{
  "_format": "hh-sol-artifact-1",
  "contractName": "DivitrendFactories",
  "sourceName": "contracts/TrndFactories.sol",
  "abi": [
    {
      "inputs": [],
      "stateMutability": "nonpayable",
      "type": "constructor"
    },
    {
      "inputs": [],
      "name": "Fact__ContractsCannotMint",
      "type": "error"
    },
    {
      "inputs": [],
      "name": "Fact__InvalidAmount",
      "type": "error"
    },
    {
      "inputs": [
        {
          "internalType": "uint256",
          "name": "maxCost",
          "type": "uint256"
        }
      ],
      "name": "Fact__MaxCostReached",
      "type": "error"
    },
    {
      "inputs": [
        {
          "internalType": "uint256",
          "name": "maxMintAmount",
          "type": "uint256"
        }
      ],
      "name": "Fact__MaxMintExceeded",
      "type": "error"
    },
    {
      "inputs": [],
      "name": "Fact__MintAtOnceExceeded",
      "type": "error"
    },
    {
      "inputs": [],
      "name": "Fact__MintNotLive",
      "type": "error"
    },
    {
      "inputs": [],
      "name": "Fact__NftsSoldOut",
      "type": "error"
    },
    {
      "inputs": [],
      "name": "Fact__NoTokensAvailable",
      "type": "error"
    },
    {
      "inputs": [],
      "name": "Fact__NotEnoughFunds",
      "type": "error"
    },
    {
      "inputs": [],
      "name": "Fact__TransferFailed",
      "type": "error"
    },
    {
      "inputs": [],
      "name": "Fact__ZeroBalance",
      "type": "error"
    },
    {
      "anonymous": false,
      "inputs": [
        {
          "indexed": false,
          "internalType": "address",
          "name": "previousAdmin",
          "type": "address"
        },
        {
          "indexed": false,
          "internalType": "address",
          "name": "newAdmin",
          "type": "address"
        }
      ],
      "name": "AdminChanged",
      "type": "event"
    },
    {
      "anonymous": false,
      "inputs": [
        {
          "indexed": true,
          "internalType": "address",
          "name": "owner",
          "type": "address"
        },
        {
          "indexed": true,
          "internalType": "address",
          "name": "approved",
          "type": "address"
        },
        {
          "indexed": true,
          "internalType": "uint256",
          "name": "tokenId",
          "type": "uint256"
        }
      ],
      "name": "Approval",
      "type": "event"
    },
    {
      "anonymous": false,
      "inputs": [
        {
          "indexed": true,
          "internalType": "address",
          "name": "owner",
          "type": "address"
        },
        {
          "indexed": true,
          "internalType": "address",
          "name": "operator",
          "type": "address"
        },
        {
          "indexed": false,
          "internalType": "bool",
          "name": "approved",
          "type": "bool"
        }
      ],
      "name": "ApprovalForAll",
      "type": "event"
    },
    {
      "anonymous": false,
      "inputs": [
        {
          "indexed": true,
          "internalType": "address",
          "name": "beacon",
          "type": "address"
        }
      ],
      "name": "BeaconUpgraded",
      "type": "event"
    },
    {
      "anonymous": false,
      "inputs": [
        {
          "indexed": false,
          "internalType": "uint8",
          "name": "version",
          "type": "uint8"
        }
      ],
      "name": "Initialized",
      "type": "event"
    },
    {
      "anonymous": false,
      "inputs": [
        {
          "indexed": true,
          "internalType": "address",
          "name": "account",
          "type": "address"
        },
        {
          "indexed": false,
          "internalType": "uint16[]",
          "name": "tokenIds",
          "type": "uint16[]"
        }
      ],
      "name": "NftMinted",
      "type": "event"
    },
    {
      "anonymous": false,
      "inputs": [
        {
          "indexed": true,
          "internalType": "address",
          "name": "account",
          "type": "address"
        },
        {
          "indexed": false,
          "internalType": "uint256",
          "name": "amount",
          "type": "uint256"
        }
      ],
      "name": "NftPayed",
      "type": "event"
    },
    {
      "anonymous": false,
      "inputs": [
        {
          "indexed": true,
          "internalType": "address",
          "name": "previousOwner",
          "type": "address"
        },
        {
          "indexed": true,
          "internalType": "address",
          "name": "newOwner",
          "type": "address"
        }
      ],
      "name": "OwnershipTransferred",
      "type": "event"
    },
    {
      "anonymous": false,
      "inputs": [
        {
          "indexed": true,
          "internalType": "address",
          "name": "from",
          "type": "address"
        },
        {
          "indexed": true,
          "internalType": "address",
          "name": "to",
          "type": "address"
        },
        {
          "indexed": true,
          "internalType": "uint256",
          "name": "tokenId",
          "type": "uint256"
        }
      ],
      "name": "Transfer",
      "type": "event"
    },
    {
      "anonymous": false,
      "inputs": [
        {
          "indexed": true,
          "internalType": "address",
          "name": "implementation",
          "type": "address"
        }
      ],
      "name": "Upgraded",
      "type": "event"
    },
    {
      "inputs": [
        {
          "internalType": "uint16",
          "name": "_amount",
          "type": "uint16"
        },
        {
          "internalType": "address",
          "name": "_recipient",
          "type": "address"
        }
      ],
      "name": "adminMint",
      "outputs": [],
      "stateMutability": "nonpayable",
      "type": "function"
    },
    {
      "inputs": [
        {
          "internalType": "address",
          "name": "to",
          "type": "address"
        },
        {
          "internalType": "uint256",
          "name": "tokenId",
          "type": "uint256"
        }
      ],
      "name": "approve",
      "outputs": [],
      "stateMutability": "nonpayable",
      "type": "function"
    },
    {
      "inputs": [
        {
          "internalType": "address",
          "name": "owner",
          "type": "address"
        }
      ],
      "name": "balanceOf",
      "outputs": [
        {
          "internalType": "uint256",
          "name": "",
          "type": "uint256"
        }
      ],
      "stateMutability": "view",
      "type": "function"
    },
    {
      "inputs": [],
      "name": "baseExtension",
      "outputs": [
        {
          "internalType": "string",
          "name": "",
          "type": "string"
        }
      ],
      "stateMutability": "view",
      "type": "function"
    },
    {
      "inputs": [],
      "name": "baseURI",
      "outputs": [
        {
          "internalType": "string",
          "name": "",
          "type": "string"
        }
      ],
      "stateMutability": "view",
      "type": "function"
    },
    {
      "inputs": [
        {
          "internalType": "uint256",
          "name": "_num",
          "type": "uint256"
        }
      ],
      "name": "calCost",
      "outputs": [
        {
          "internalType": "uint256",
          "name": "",
          "type": "uint256"
        }
      ],
      "stateMutability": "view",
      "type": "function"
    },
    {
      "inputs": [],
      "name": "claimNfts",
      "outputs": [],
      "stateMutability": "nonpayable",
      "type": "function"
    },
    {
      "inputs": [],
      "name": "getActualSupply",
      "outputs": [
        {
          "internalType": "uint16",
          "name": "",
          "type": "uint16"
        }
      ],
      "stateMutability": "view",
      "type": "function"
    },
    {
      "inputs": [
        {
          "internalType": "uint256",
          "name": "tokenId",
          "type": "uint256"
        }
      ],
      "name": "getApproved",
      "outputs": [
        {
          "internalType": "address",
          "name": "",
          "type": "address"
        }
      ],
      "stateMutability": "view",
      "type": "function"
    },
    {
      "inputs": [],
      "name": "getCashWallet",
      "outputs": [
        {
          "internalType": "address",
          "name": "",
          "type": "address"
        }
      ],
      "stateMutability": "view",
      "type": "function"
    },
    {
      "inputs": [],
      "name": "getCost",
      "outputs": [
        {
          "internalType": "uint256",
          "name": "",
          "type": "uint256"
        }
      ],
      "stateMutability": "view",
      "type": "function"
    },
    {
      "inputs": [
        {
          "internalType": "uint16",
          "name": "_index",
          "type": "uint16"
        }
      ],
      "name": "getIdsArray",
      "outputs": [
        {
          "internalType": "uint16",
          "name": "",
          "type": "uint16"
        }
      ],
      "stateMutability": "view",
      "type": "function"
    },
    {
      "inputs": [],
      "name": "getIdsArrayLength",
      "outputs": [
        {
          "internalType": "uint256",
          "name": "",
          "type": "uint256"
        }
      ],
      "stateMutability": "view",
      "type": "function"
    },
    {
      "inputs": [],
      "name": "getMaxCost",
      "outputs": [
        {
          "internalType": "uint256",
          "name": "",
          "type": "uint256"
        }
      ],
      "stateMutability": "view",
      "type": "function"
    },
    {
      "inputs": [],
      "name": "getMaxMintAmount",
      "outputs": [
        {
          "internalType": "uint16",
          "name": "",
          "type": "uint16"
        }
      ],
      "stateMutability": "view",
      "type": "function"
    },
    {
      "inputs": [
        {
          "internalType": "uint8",
          "name": "_nftType",
          "type": "uint8"
        }
      ],
      "name": "getNftBoostData",
      "outputs": [
        {
          "internalType": "uint16",
          "name": "",
          "type": "uint16"
        },
        {
          "internalType": "uint16",
          "name": "",
          "type": "uint16"
        }
      ],
      "stateMutability": "view",
      "type": "function"
    },
    {
      "inputs": [
        {
          "internalType": "uint256",
          "name": "_index",
          "type": "uint256"
        }
      ],
      "name": "getNftTypesArray",
      "outputs": [
        {
          "internalType": "uint8",
          "name": "",
          "type": "uint8"
        }
      ],
      "stateMutability": "view",
      "type": "function"
    },
    {
      "inputs": [],
      "name": "getTimeStart",
      "outputs": [
        {
          "internalType": "uint256",
          "name": "",
          "type": "uint256"
        }
      ],
      "stateMutability": "view",
      "type": "function"
    },
    {
      "inputs": [
        {
          "internalType": "uint16[]",
          "name": "_ids",
          "type": "uint16[]"
        }
      ],
      "name": "getTotalBoosts",
      "outputs": [
        {
          "internalType": "uint256",
          "name": "",
          "type": "uint256"
        },
        {
          "internalType": "uint256",
          "name": "",
          "type": "uint256"
        }
      ],
      "stateMutability": "view",
      "type": "function"
    },
    {
      "inputs": [],
      "name": "getTotalIdsArray",
      "outputs": [
        {
          "internalType": "uint16[]",
          "name": "",
          "type": "uint16[]"
        }
      ],
      "stateMutability": "view",
      "type": "function"
    },
    {
      "inputs": [
        {
          "internalType": "address",
          "name": "_user",
          "type": "address"
        }
      ],
      "name": "getUserTokensLength",
      "outputs": [
        {
          "internalType": "uint256",
          "name": "",
          "type": "uint256"
        }
      ],
      "stateMutability": "view",
      "type": "function"
    },
    {
      "inputs": [],
      "name": "initialize",
      "outputs": [],
      "stateMutability": "nonpayable",
      "type": "function"
    },
    {
      "inputs": [
        {
          "internalType": "address",
          "name": "owner",
          "type": "address"
        },
        {
          "internalType": "address",
          "name": "operator",
          "type": "address"
        }
      ],
      "name": "isApprovedForAll",
      "outputs": [
        {
          "internalType": "bool",
          "name": "",
          "type": "bool"
        }
      ],
      "stateMutability": "view",
      "type": "function"
    },
    {
      "inputs": [],
      "name": "name",
      "outputs": [
        {
          "internalType": "string",
          "name": "",
          "type": "string"
        }
      ],
      "stateMutability": "view",
      "type": "function"
    },
    {
      "inputs": [],
      "name": "owner",
      "outputs": [
        {
          "internalType": "address",
          "name": "",
          "type": "address"
        }
      ],
      "stateMutability": "view",
      "type": "function"
    },
    {
      "inputs": [
        {
          "internalType": "uint256",
          "name": "tokenId",
          "type": "uint256"
        }
      ],
      "name": "ownerOf",
      "outputs": [
        {
          "internalType": "address",
          "name": "",
          "type": "address"
        }
      ],
      "stateMutability": "view",
      "type": "function"
    },
    {
      "inputs": [
        {
          "internalType": "uint16",
          "name": "_amount",
          "type": "uint16"
        }
      ],
      "name": "payNfts",
      "outputs": [],
      "stateMutability": "payable",
      "type": "function"
    },
    {
      "inputs": [],
      "name": "proxiableUUID",
      "outputs": [
        {
          "internalType": "bytes32",
          "name": "",
          "type": "bytes32"
        }
      ],
      "stateMutability": "view",
      "type": "function"
    },
    {
      "inputs": [
        {
          "internalType": "address",
          "name": "_token",
          "type": "address"
        },
        {
          "internalType": "uint256",
          "name": "_tokenId",
          "type": "uint256"
        }
      ],
      "name": "recoverNonFungibleToken",
      "outputs": [],
      "stateMutability": "nonpayable",
      "type": "function"
    },
    {
      "inputs": [
        {
          "internalType": "address",
          "name": "_token",
          "type": "address"
        }
      ],
      "name": "recoverToken",
      "outputs": [],
      "stateMutability": "nonpayable",
      "type": "function"
    },
    {
      "inputs": [],
      "name": "renounceOwnership",
      "outputs": [],
      "stateMutability": "nonpayable",
      "type": "function"
    },
    {
      "inputs": [
        {
          "internalType": "address",
          "name": "from",
          "type": "address"
        },
        {
          "internalType": "address",
          "name": "to",
          "type": "address"
        },
        {
          "internalType": "uint256",
          "name": "tokenId",
          "type": "uint256"
        }
      ],
      "name": "safeTransferFrom",
      "outputs": [],
      "stateMutability": "nonpayable",
      "type": "function"
    },
    {
      "inputs": [
        {
          "internalType": "address",
          "name": "from",
          "type": "address"
        },
        {
          "internalType": "address",
          "name": "to",
          "type": "address"
        },
        {
          "internalType": "uint256",
          "name": "tokenId",
          "type": "uint256"
        },
        {
          "internalType": "bytes",
          "name": "data",
          "type": "bytes"
        }
      ],
      "name": "safeTransferFrom",
      "outputs": [],
      "stateMutability": "nonpayable",
      "type": "function"
    },
    {
      "inputs": [
        {
          "internalType": "address",
          "name": "operator",
          "type": "address"
        },
        {
          "internalType": "bool",
          "name": "approved",
          "type": "bool"
        }
      ],
      "name": "setApprovalForAll",
      "outputs": [],
      "stateMutability": "nonpayable",
      "type": "function"
    },
    {
      "inputs": [
        {
          "internalType": "string",
          "name": "_newBaseExtension",
          "type": "string"
        }
      ],
      "name": "setBaseExtension",
      "outputs": [],
      "stateMutability": "nonpayable",
      "type": "function"
    },
    {
      "inputs": [
        {
          "internalType": "string",
          "name": "_newBaseURI",
          "type": "string"
        }
      ],
      "name": "setBaseURI",
      "outputs": [],
      "stateMutability": "nonpayable",
      "type": "function"
    },
    {
      "inputs": [
        {
          "internalType": "address",
          "name": "_new",
          "type": "address"
        }
      ],
      "name": "setCashWallet",
      "outputs": [],
      "stateMutability": "nonpayable",
      "type": "function"
    },
    {
      "inputs": [
        {
          "internalType": "uint256",
          "name": "_newCost",
          "type": "uint256"
        }
      ],
      "name": "setCost",
      "outputs": [],
      "stateMutability": "nonpayable",
      "type": "function"
    },
    {
      "inputs": [
        {
          "internalType": "uint256",
          "name": "_newMaxCost",
          "type": "uint256"
        }
      ],
      "name": "setMaxCost",
      "outputs": [],
      "stateMutability": "nonpayable",
      "type": "function"
    },
    {
      "inputs": [
        {
          "internalType": "uint8",
          "name": "_nftType",
          "type": "uint8"
        },
        {
          "internalType": "uint16",
          "name": "_newApyBoost",
          "type": "uint16"
        },
        {
          "internalType": "uint16",
          "name": "_newDepositPerc",
          "type": "uint16"
        }
      ],
      "name": "setNftBoostData",
      "outputs": [],
      "stateMutability": "nonpayable",
      "type": "function"
    },
    {
      "inputs": [
        {
          "internalType": "uint8[299]",
          "name": "_newNftTypesArray",
          "type": "uint8[299]"
        }
      ],
      "name": "setNftTypesArray",
      "outputs": [],
      "stateMutability": "nonpayable",
      "type": "function"
    },
    {
      "inputs": [
        {
          "internalType": "uint256",
          "name": "_newTimeStart",
          "type": "uint256"
        }
      ],
      "name": "setTimeStart",
      "outputs": [],
      "stateMutability": "nonpayable",
      "type": "function"
    },
    {
      "inputs": [
        {
          "internalType": "uint16",
          "name": "_newmaxMintAmount",
          "type": "uint16"
        }
      ],
      "name": "setmaxMintAmount",
      "outputs": [],
      "stateMutability": "nonpayable",
      "type": "function"
    },
    {
      "inputs": [
        {
          "internalType": "bytes4",
          "name": "interfaceId",
          "type": "bytes4"
        }
      ],
      "name": "supportsInterface",
      "outputs": [
        {
          "internalType": "bool",
          "name": "",
          "type": "bool"
        }
      ],
      "stateMutability": "view",
      "type": "function"
    },
    {
      "inputs": [],
      "name": "symbol",
      "outputs": [
        {
          "internalType": "string",
          "name": "",
          "type": "string"
        }
      ],
      "stateMutability": "view",
      "type": "function"
    },
    {
      "inputs": [
        {
          "internalType": "uint256",
          "name": "tokenId",
          "type": "uint256"
        }
      ],
      "name": "tokenURI",
      "outputs": [
        {
          "internalType": "string",
          "name": "",
          "type": "string"
        }
      ],
      "stateMutability": "view",
      "type": "function"
    },
    {
      "inputs": [
        {
          "internalType": "address",
          "name": "_owner",
          "type": "address"
        }
      ],
      "name": "tokensOfOwner",
      "outputs": [
        {
          "internalType": "uint256[]",
          "name": "",
          "type": "uint256[]"
        }
      ],
      "stateMutability": "view",
      "type": "function"
    },
    {
      "inputs": [],
      "name": "totalSupply",
      "outputs": [
        {
          "internalType": "uint16",
          "name": "",
          "type": "uint16"
        }
      ],
      "stateMutability": "view",
      "type": "function"
    },
    {
      "inputs": [
        {
          "internalType": "address",
          "name": "from",
          "type": "address"
        },
        {
          "internalType": "address",
          "name": "to",
          "type": "address"
        },
        {
          "internalType": "uint256",
          "name": "tokenId",
          "type": "uint256"
        }
      ],
      "name": "transferFrom",
      "outputs": [],
      "stateMutability": "nonpayable",
      "type": "function"
    },
    {
      "inputs": [
        {
          "internalType": "address",
          "name": "newOwner",
          "type": "address"
        }
      ],
      "name": "transferOwnership",
      "outputs": [],
      "stateMutability": "nonpayable",
      "type": "function"
    },
    {
      "inputs": [
        {
          "internalType": "address",
          "name": "newImplementation",
          "type": "address"
        }
      ],
      "name": "upgradeTo",
      "outputs": [],
      "stateMutability": "nonpayable",
      "type": "function"
    },
    {
      "inputs": [
        {
          "internalType": "address",
          "name": "newImplementation",
          "type": "address"
        },
        {
          "internalType": "bytes",
          "name": "data",
          "type": "bytes"
        }
      ],
      "name": "upgradeToAndCall",
      "outputs": [],
      "stateMutability": "payable",
      "type": "function"
    },
    {
      "inputs": [],
      "name": "withdraw",
      "outputs": [],
      "stateMutability": "payable",
      "type": "function"
    }
  ],
  "bytecode": "0x60a06040523073ffffffffffffffffffffffffffffffffffffffff1660809073ffffffffffffffffffffffffffffffffffffffff168152506040518060400160405280600581526020017f2e6a736f6e00000000000000000000000000000000000000000000000000000081525061016090816200007e9190620003e3565b503480156200008c57600080fd5b506200009d620000a360201b60201c565b620005ae565b600060019054906101000a900460ff1615620000f6576040517f08c379a0000000000000000000000000000000000000000000000000000000008152600401620000ed9062000551565b60405180910390fd5b60ff801660008054906101000a900460ff1660ff1614620001675760ff6000806101000a81548160ff021916908360ff1602179055507f7f26b83ff96e1f2b6a682f133852f6798a09c465da95921460cefb384740249860ff6040516200015e919062000591565b60405180910390a15b565b600081519050919050565b7f4e487b7100000000000000000000000000000000000000000000000000000000600052604160045260246000fd5b7f4e487b7100000000000000000000000000000000000000000000000000000000600052602260045260246000fd5b60006002820490506001821680620001eb57607f821691505b602082108103620002015762000200620001a3565b5b50919050565b60008190508160005260206000209050919050565b60006020601f8301049050919050565b600082821b905092915050565b6000600883026200026b7fffffffffffffffffffffffffffffffffffffffffffffffffffffffffffffffff826200022c565b6200027786836200022c565b95508019841693508086168417925050509392505050565b6000819050919050565b6000819050919050565b6000620002c4620002be620002b8846200028f565b62000299565b6200028f565b9050919050565b6000819050919050565b620002e083620002a3565b620002f8620002ef82620002cb565b84845462000239565b825550505050565b600090565b6200030f62000300565b6200031c818484620002d5565b505050565b5b8181101562000344576200033860008262000305565b60018101905062000322565b5050565b601f82111562000393576200035d8162000207565b62000368846200021c565b8101602085101562000378578190505b6200039062000387856200021c565b83018262000321565b50505b505050565b600082821c905092915050565b6000620003b86000198460080262000398565b1980831691505092915050565b6000620003d38383620003a5565b9150826002028217905092915050565b620003ee8262000169565b67ffffffffffffffff8111156200040a576200040962000174565b5b620004168254620001d2565b6200042382828562000348565b600060209050601f8311600181146200045b576000841562000446578287015190505b620004528582620003c5565b865550620004c2565b601f1984166200046b8662000207565b60005b8281101562000495578489015182556001820191506020850194506020810190506200046e565b86831015620004b55784890151620004b1601f891682620003a5565b8355505b6001600288020188555050505b505050505050565b600082825260208201905092915050565b7f496e697469616c697a61626c653a20636f6e747261637420697320696e69746960008201527f616c697a696e6700000000000000000000000000000000000000000000000000602082015250565b600062000539602783620004ca565b91506200054682620004db565b604082019050919050565b600060208201905081810360008301526200056c816200052a565b9050919050565b600060ff82169050919050565b6200058b8162000573565b82525050565b6000602082019050620005a8600083018462000580565b92915050565b608051617998620005e660003960008181611459015281816114e701528181611741015281816117cf015261187f01526179986000f3fe60806040526004361061031a5760003560e01c80638c4da52a116101ab578063c026759e116100f7578063e685d48a11610095578063f2fde38b1161006f578063f2fde38b14610b84578063f3891f1b14610bad578063f426502e14610bea578063fe23251814610c285761031a565b8063e685d48a14610ae0578063e985e9c514610b09578063ee5b926314610b465761031a565b8063d6e7b8e4116100d1578063d6e7b8e414610a38578063da3ef23f14610a63578063e4e6bea714610a8c578063e647e01a14610ab75761031a565b8063c026759e146109a7578063c6682862146109d0578063c87b56dd146109fb5761031a565b8063a42c7d2811610164578063bb0fd1471161013e578063bb0fd147146108ff578063bbced2c614610928578063bcc08b2c14610965578063bd3e19d41461097c5761031a565b8063a42c7d2814610870578063b674cf8f14610899578063b88d4fde146108d65761031a565b80638c4da52a146107745780638da5cb5b1461079f57806390ede4cb146107ca57806395d89b41146107f35780639be65a601461081e578063a22cb465146108475761031a565b80634f1ef2861161026a578063715018a6116102235780638129fc1c116101fd5780638129fc1c146106ca5780638462151c146106e1578063876f303b1461071e5780638b915c25146107495761031a565b8063715018a61461065f5780637c6b3f03146106765780637e1ac0a41461069f5761031a565b80634f1ef2861461054a57806352d1902d1461056657806355f804b3146105915780636352211e146105ba5780636c0360eb146105f757806370a08231146106225761031a565b806318160ddd116102d75780633ccfd60b116102b15780633ccfd60b146104c35780633e140474146104cd57806342842e0e146104f857806344a0d68a146105215761031a565b806318160ddd1461044657806323b872dd146104715780633659cfe61461049a5761031a565b806301ffc9a71461031f57806306fdde031461035c578063081812fc14610387578063095ea7b3146103c457806310e3163d146103ed57806317911cd014610409575b600080fd5b34801561032b57600080fd5b5061034660048036038101906103419190614df2565b610c51565b6040516103539190614e3a565b60405180910390f35b34801561036857600080fd5b50610371610d33565b60405161037e9190614ee5565b60405180910390f35b34801561039357600080fd5b506103ae60048036038101906103a99190614f3d565b610dc5565b6040516103bb9190614fab565b60405180910390f35b3480156103d057600080fd5b506103eb60048036038101906103e69190614ff2565b610e0b565b005b6104076004803603810190610402919061506c565b610f22565b005b34801561041557600080fd5b50610430600480360381019061042b9190615099565b611391565b60405161043d91906150d5565b60405180910390f35b34801561045257600080fd5b5061045b6113de565b60405161046891906150ff565b60405180910390f35b34801561047d57600080fd5b506104986004803603810190610493919061511a565b6113f7565b005b3480156104a657600080fd5b506104c160048036038101906104bc9190615099565b611457565b005b6104cb6115df565b005b3480156104d957600080fd5b506104e2611694565b6040516104ef9190614fab565b60405180910390f35b34801561050457600080fd5b5061051f600480360381019061051a919061511a565b6116bf565b005b34801561052d57600080fd5b5061054860048036038101906105439190614f3d565b6116df565b005b610564600480360381019061055f91906152a2565b61173f565b005b34801561057257600080fd5b5061057b61187b565b6040516105889190615317565b60405180910390f35b34801561059d57600080fd5b506105b860048036038101906105b391906153d3565b611934565b005b3480156105c657600080fd5b506105e160048036038101906105dc9190614f3d565b611950565b6040516105ee9190614fab565b60405180910390f35b34801561060357600080fd5b5061060c6119d6565b6040516106199190614ee5565b60405180910390f35b34801561062e57600080fd5b5061064960048036038101906106449190615099565b611a65565b60405161065691906150d5565b60405180910390f35b34801561066b57600080fd5b50610674611b1c565b005b34801561068257600080fd5b5061069d60048036038101906106989190615455565b611b30565b005b3480156106ab57600080fd5b506106b4611bbd565b6040516106c191906150d5565b60405180910390f35b3480156106d657600080fd5b506106df611bcb565b005b3480156106ed57600080fd5b5061070860048036038101906107039190615099565b612397565b6040516107159190615566565b60405180910390f35b34801561072a57600080fd5b50610733612566565b60405161074091906150ff565b60405180910390f35b34801561075557600080fd5b5061075e61257f565b60405161076b91906150d5565b60405180910390f35b34801561078057600080fd5b5061078961258a565b6040516107969190615646565b60405180910390f35b3480156107ab57600080fd5b506107b461260b565b6040516107c19190614fab565b60405180910390f35b3480156107d657600080fd5b506107f160048036038101906107ec919061506c565b612635565b005b3480156107ff57600080fd5b5061080861265e565b6040516108159190614ee5565b60405180910390f35b34801561082a57600080fd5b5061084560048036038101906108409190615099565b6126f0565b005b34801561085357600080fd5b5061086e60048036038101906108699190615694565b612833565b005b34801561087c57600080fd5b5061089760048036038101906108929190615099565b612849565b005b3480156108a557600080fd5b506108c060048036038101906108bb9190614f3d565b612896565b6040516108cd91906156e3565b60405180910390f35b3480156108e257600080fd5b506108fd60048036038101906108f891906156fe565b6128cb565b005b34801561090b57600080fd5b5061092660048036038101906109219190614ff2565b61292d565b005b34801561093457600080fd5b5061094f600480360381019061094a9190614f3d565b6129a8565b60405161095c91906150d5565b60405180910390f35b34801561097157600080fd5b5061097a6129c0565b005b34801561098857600080fd5b50610991612cae565b60405161099e91906150d5565b60405180910390f35b3480156109b357600080fd5b506109ce60048036038101906109c99190615838565b612cb9565b005b3480156109dc57600080fd5b506109e5612cd8565b6040516109f29190614ee5565b60405180910390f35b348015610a0757600080fd5b50610a226004803603810190610a1d9190614f3d565b612d67565b604051610a2f9190614ee5565b60405180910390f35b348015610a4457600080fd5b50610a4d612e12565b604051610a5a91906150ff565b60405180910390f35b348015610a6f57600080fd5b50610a8a6004803603810190610a8591906153d3565b612e2b565b005b348015610a9857600080fd5b50610aa1612e47565b604051610aae91906150d5565b60405180910390f35b348015610ac357600080fd5b50610ade6004803603810190610ad99190614f3d565b612e52565b005b348015610aec57600080fd5b50610b076004803603810190610b029190614f3d565b612e65565b005b348015610b1557600080fd5b50610b306004803603810190610b2b9190615866565b612e78565b604051610b3d9190614e3a565b60405180910390f35b348015610b5257600080fd5b50610b6d6004803603810190610b689190615969565b612f0d565b604051610b7b9291906159b2565b60405180910390f35b348015610b9057600080fd5b50610bab6004803603810190610ba69190615099565b613044565b005b348015610bb957600080fd5b50610bd46004803603810190610bcf919061506c565b6130c7565b604051610be191906150ff565b60405180910390f35b348015610bf657600080fd5b50610c116004803603810190610c0c91906159db565b61310d565b604051610c1f929190615a08565b60405180910390f35b348015610c3457600080fd5b50610c4f6004803603810190610c4a9190615a31565b613171565b005b60007f80ac58cd000000000000000000000000000000000000000000000000000000007bffffffffffffffffffffffffffffffffffffffffffffffffffffffff1916827bffffffffffffffffffffffffffffffffffffffffffffffffffffffff19161480610d1c57507f5b5e139f000000000000000000000000000000000000000000000000000000007bffffffffffffffffffffffffffffffffffffffffffffffffffffffff1916827bffffffffffffffffffffffffffffffffffffffffffffffffffffffff1916145b80610d2c5750610d2b826133c4565b5b9050919050565b606060fb8054610d4290615aa0565b80601f0160208091040260200160405190810160405280929190818152602001828054610d6e90615aa0565b8015610dbb5780601f10610d9057610100808354040283529160200191610dbb565b820191906000526020600020905b815481529060010190602001808311610d9e57829003601f168201915b5050505050905090565b6000610dd08261342e565b60ff600083815260200190815260200160002060009054906101000a900473ffffffffffffffffffffffffffffffffffffffff169050919050565b6000610e1682611950565b90508073ffffffffffffffffffffffffffffffffffffffff168373ffffffffffffffffffffffffffffffffffffffff1603610e86576040517f08c379a0000000000000000000000000000000000000000000000000000000008152600401610e7d90615b43565b60405180910390fd5b8073ffffffffffffffffffffffffffffffffffffffff16610ea5613479565b73ffffffffffffffffffffffffffffffffffffffff161480610ed45750610ed381610ece613479565b612e78565b5b610f13576040517f08c379a0000000000000000000000000000000000000000000000000000000008152600401610f0a90615bd5565b60405180910390fd5b610f1d8383613481565b505050565b610f2a61353a565b42610165541115610f67576040517ff7d3556b00000000000000000000000000000000000000000000000000000000815260040160405180910390fd5b3273ffffffffffffffffffffffffffffffffffffffff163373ffffffffffffffffffffffffffffffffffffffff1614610fcc576040517f192e6d1600000000000000000000000000000000000000000000000000000000815260040160405180910390fd5b600061016260009054906101000a900461ffff16905060008261ffff1603611020576040517f47baadb900000000000000000000000000000000000000000000000000000000815260040160405180910390fd5b61016260049054906101000a900461ffff1661ffff168261ffff161115611073576040517f0b7007e400000000000000000000000000000000000000000000000000000000815260040160405180910390fd5b61016260029054906101000a900461ffff1661ffff1682826110959190615c24565b61ffff1611156110d1576040517fc4f28e8100000000000000000000000000000000000000000000000000000000815260040160405180910390fd5b6110de8261ffff166129a8565b341015611117576040517f4130c7a000000000000000000000000000000000000000000000000000000000815260040160405180910390fd5b600061016460009054906101000a900473ffffffffffffffffffffffffffffffffffffffff1673ffffffffffffffffffffffffffffffffffffffff163460405161116090615c8b565b60006040518083038185875af1925050503d806000811461119d576040519150601f19603f3d011682016040523d82523d6000602084013e6111a2565b606091505b50509050806111dd576040517f0b4971fe00000000000000000000000000000000000000000000000000000000815260040160405180910390fd5b8261016260008282829054906101000a900461ffff166111fd9190615c24565b92506101000a81548161ffff021916908361ffff160217905550600080600090505b8461ffff168110156113345761123361358b565b915061017260003373ffffffffffffffffffffffffffffffffffffffff1673ffffffffffffffffffffffffffffffffffffffff1681526020019081526020016000206101678361ffff168154811061128e5761128d615ca0565b5b90600052602060002090601091828204019190066002029054906101000a900461ffff1690806001815401808255809150506001900390600052602060002090601091828204019190066002029091909190916101000a81548161ffff021916908361ffff1602179055506113068261ffff166135b6565b6004610166600082825461131a9190615ccf565b92505081905550808061132c90615d03565b91505061121f565b503373ffffffffffffffffffffffffffffffffffffffff167f340a5dd5422f528cdb4f6e8bcc551fd61b8c114b12ae9403eef2a63790efd0ea8560405161137b9190615d86565b60405180910390a250505061138e6136c8565b50565b600061017260008373ffffffffffffffffffffffffffffffffffffffff1673ffffffffffffffffffffffffffffffffffffffff168152602001908152602001600020805490509050919050565b600061016260029054906101000a900461ffff16905090565b611408611402613479565b826136d3565b611447576040517f08c379a000000000000000000000000000000000000000000000000000000000815260040161143e90615e13565b60405180910390fd5b611452838383613768565b505050565b7f000000000000000000000000000000000000000000000000000000000000000073ffffffffffffffffffffffffffffffffffffffff163073ffffffffffffffffffffffffffffffffffffffff16036114e5576040517f08c379a00000000000000000000000000000000000000000000000000000000081526004016114dc90615ea5565b60405180910390fd5b7f000000000000000000000000000000000000000000000000000000000000000073ffffffffffffffffffffffffffffffffffffffff16611524613a61565b73ffffffffffffffffffffffffffffffffffffffff161461157a576040517f08c379a000000000000000000000000000000000000000000000000000000000815260040161157190615f37565b60405180910390fd5b61158381613ab8565b6115dc81600067ffffffffffffffff8111156115a2576115a1615177565b5b6040519080825280601f01601f1916602001820160405280156115d45781602001600182028036833780820191505090505b506000613ac3565b50565b6115e7613c31565b60006115f161260b565b73ffffffffffffffffffffffffffffffffffffffff164760405161161490615c8b565b60006040518083038185875af1925050503d8060008114611651576040519150601f19603f3d011682016040523d82523d6000602084013e611656565b606091505b5050905080611691576040517f0b4971fe00000000000000000000000000000000000000000000000000000000815260040160405180910390fd5b50565b600061016460009054906101000a900473ffffffffffffffffffffffffffffffffffffffff16905090565b6116da838383604051806020016040528060008152506128cb565b505050565b6116e7613c31565b61016354610161541061173457610163546040517f37ef31f800000000000000000000000000000000000000000000000000000000815260040161172b91906150d5565b60405180910390fd5b806101618190555050565b7f000000000000000000000000000000000000000000000000000000000000000073ffffffffffffffffffffffffffffffffffffffff163073ffffffffffffffffffffffffffffffffffffffff16036117cd576040517f08c379a00000000000000000000000000000000000000000000000000000000081526004016117c490615ea5565b60405180910390fd5b7f000000000000000000000000000000000000000000000000000000000000000073ffffffffffffffffffffffffffffffffffffffff1661180c613a61565b73ffffffffffffffffffffffffffffffffffffffff1614611862576040517f08c379a000000000000000000000000000000000000000000000000000000000815260040161185990615f37565b60405180910390fd5b61186b82613ab8565b61187782826001613ac3565b5050565b60007f000000000000000000000000000000000000000000000000000000000000000073ffffffffffffffffffffffffffffffffffffffff163073ffffffffffffffffffffffffffffffffffffffff161461190b576040517f08c379a000000000000000000000000000000000000000000000000000000000815260040161190290615fc9565b60405180910390fd5b7f360894a13ba1a3210667c828492db98dca3e2076cc3735a920a3ca505d382bbc60001b905090565b61193c613c31565b8061015f908161194c919061618b565b5050565b60008061195c83613caf565b9050600073ffffffffffffffffffffffffffffffffffffffff168173ffffffffffffffffffffffffffffffffffffffff16036119cd576040517f08c379a00000000000000000000000000000000000000000000000000000000081526004016119c4906162a9565b60405180910390fd5b80915050919050565b61015f80546119e490615aa0565b80601f0160208091040260200160405190810160405280929190818152602001828054611a1090615aa0565b8015611a5d5780601f10611a3257610100808354040283529160200191611a5d565b820191906000526020600020905b815481529060010190602001808311611a4057829003601f168201915b505050505081565b60008073ffffffffffffffffffffffffffffffffffffffff168273ffffffffffffffffffffffffffffffffffffffff1603611ad5576040517f08c379a0000000000000000000000000000000000000000000000000000000008152600401611acc9061633b565b60405180910390fd5b60fe60008373ffffffffffffffffffffffffffffffffffffffff1673ffffffffffffffffffffffffffffffffffffffff168152602001908152602001600020549050919050565b611b24613c31565b611b2e6000613cec565b565b611b38613c31565b60405180604001604052808361ffff1681526020018261ffff1681525061017360008560ff1660ff16815260200190815260200160002060008201518160000160006101000a81548161ffff021916908361ffff16021790555060208201518160000160026101000a81548161ffff021916908361ffff160217905550905050505050565b600061016780549050905090565b60008060019054906101000a900460ff16159050808015611bfc5750600160008054906101000a900460ff1660ff16105b80611c295750611c0b30613db2565b158015611c285750600160008054906101000a900460ff1660ff16145b5b611c68576040517f08c379a0000000000000000000000000000000000000000000000000000000008152600401611c5f906163cd565b60405180910390fd5b60016000806101000a81548160ff021916908360ff1602179055508015611ca5576001600060016101000a81548160ff0219169083151502179055505b611cad613dd5565b611cb5613e2e565b611d296040518060400160405280601381526020017f446976697472656e6420466163746f72696573000000000000000000000000008152506040518060400160405280600481526020017f4641435400000000000000000000000000000000000000000000000000000000815250613e87565b611d31613ee4565b611d5260405180608001604052806044815260200161791f60449139611934565b620186a061016681905550600061016260006101000a81548161ffff021916908361ffff16021790555061012b61016260026101000a81548161ffff021916908361ffff160217905550606461016181905550670214e8348c4f000061016381905550600a61016260046101000a81548161ffff021916908361ffff160217905550733d83988bed2e59de9d65c0bb0ca42ab133527a7461016460006101000a81548173ffffffffffffffffffffffffffffffffffffffff021916908373ffffffffffffffffffffffffffffffffffffffff1602179055506064610165819055506000600190505b61016260029054906101000a900461ffff1661ffff168161ffff1611611eb8576101678190806001815401808255809150506001900390600052602060002090601091828204019190066002029091909190916101000a81548161ffff021916908361ffff1602179055508080611eb0906163ed565b915050611e3a565b506040518060400160405280601961ffff168152602001600a61ffff168152506101736000600160ff16815260200190815260200160002060008201518160000160006101000a81548161ffff021916908361ffff16021790555060208201518160000160026101000a81548161ffff021916908361ffff1602179055509050506040518060400160405280603261ffff168152602001601461ffff168152506101736000600260ff16815260200190815260200160002060008201518160000160006101000a81548161ffff021916908361ffff16021790555060208201518160000160026101000a81548161ffff021916908361ffff1602179055509050506040518060400160405280604b61ffff168152602001601e61ffff168152506101736000600360ff16815260200190815260200160002060008201518160000160006101000a81548161ffff021916908361ffff16021790555060208201518160000160026101000a81548161ffff021916908361ffff1602179055509050506040518060400160405280606461ffff168152602001602861ffff168152506101736000600460ff16815260200190815260200160002060008201518160000160006101000a81548161ffff021916908361ffff16021790555060208201518160000160026101000a81548161ffff021916908361ffff1602179055509050506040518060400160405280607d61ffff168152602001603261ffff168152506101736000600560ff16815260200190815260200160002060008201518160000160006101000a81548161ffff021916908361ffff16021790555060208201518160000160026101000a81548161ffff021916908361ffff1602179055509050506040518060400160405280609661ffff168152602001604b61ffff168152506101736000600660ff16815260200190815260200160002060008201518160000160006101000a81548161ffff021916908361ffff16021790555060208201518160000160026101000a81548161ffff021916908361ffff160217905550905050604051806040016040528060c861ffff168152602001606461ffff168152506101736000600760ff16815260200190815260200160002060008201518160000160006101000a81548161ffff021916908361ffff16021790555060208201518160000160026101000a81548161ffff021916908361ffff160217905550905050604051806040016040528060fa61ffff16815260200160c861ffff168152506101736000600860ff16815260200190815260200160002060008201518160000160006101000a81548161ffff021916908361ffff16021790555060208201518160000160026101000a81548161ffff021916908361ffff16021790555090505060405180604001604052806101f461ffff16815260200161012c61ffff168152506101736000600960ff16815260200190815260200160002060008201518160000160006101000a81548161ffff021916908361ffff16021790555060208201518160000160026101000a81548161ffff021916908361ffff16021790555090505080156123945760008060016101000a81548160ff0219169083151502179055507f7f26b83ff96e1f2b6a682f133852f6798a09c465da95921460cefb3847402498600160405161238b9190616452565b60405180910390a15b50565b606060006123a483611a65565b90506000810361240057600067ffffffffffffffff8111156123c9576123c8615177565b5b6040519080825280602002602001820160405280156123f75781602001602082028036833780820191505090505b50915050612561565b60008167ffffffffffffffff81111561241c5761241b615177565b5b60405190808252806020026020018201604052801561244a5781602001602082028036833780820191505090505b50905060006124576113de565b61ffff1690506000805b82811015612558573073ffffffffffffffffffffffffffffffffffffffff16636352211e826040518263ffffffff1660e01b81526004016124a291906150d5565b602060405180830381865afa9250505080156124dc57506040513d601f19601f820116820180604052508101906124d99190616482565b60015b15612545578773ffffffffffffffffffffffffffffffffffffffff168173ffffffffffffffffffffffffffffffffffffffff1603612543578185848151811061252857612527615ca0565b5b602002602001018181525050828061253f90615d03565b9350505b505b808061255090615d03565b915050612461565b50829450505050505b919050565b600061016260009054906101000a900461ffff16905090565b600061016554905090565b606061016780548060200260200160405190810160405280929190818152602001828054801561260157602002820191906000526020600020906000905b82829054906101000a900461ffff1661ffff16815260200190600201906020826001010492830192600103820291508084116125c85790505b5050505050905090565b6000609760009054906101000a900473ffffffffffffffffffffffffffffffffffffffff16905090565b61263d613c31565b8061016260046101000a81548161ffff021916908361ffff16021790555050565b606060fc805461266d90615aa0565b80601f016020809104026020016040519081016040528092919081815260200182805461269990615aa0565b80156126e65780601f106126bb576101008083540402835291602001916126e6565b820191906000526020600020905b8154815290600101906020018083116126c957829003601f168201915b5050505050905090565b6126f8613c31565b60008173ffffffffffffffffffffffffffffffffffffffff166370a08231306040518263ffffffff1660e01b81526004016127339190614fab565b602060405180830381865afa158015612750573d6000803e3d6000fd5b505050506040513d601f19601f8201168201806040525081019061277491906164c4565b9050600081036127b0576040517fa89cf92700000000000000000000000000000000000000000000000000000000815260040160405180910390fd5b8173ffffffffffffffffffffffffffffffffffffffff1663a9059cbb33836040518363ffffffff1660e01b81526004016127eb9291906164f1565b6020604051808303816000875af115801561280a573d6000803e3d6000fd5b505050506040513d601f19601f8201168201806040525081019061282e919061652f565b505050565b61284561283e613479565b8383613f35565b5050565b612851613c31565b8061016460006101000a81548173ffffffffffffffffffffffffffffffffffffffff021916908373ffffffffffffffffffffffffffffffffffffffff16021790555050565b60006101688261012b81106128ae576128ad615ca0565b5b602091828204019190069054906101000a900460ff169050919050565b6128dc6128d6613479565b836136d3565b61291b576040517f08c379a000000000000000000000000000000000000000000000000000000000815260040161291290615e13565b60405180910390fd5b612927848484846140a2565b50505050565b612935613c31565b8173ffffffffffffffffffffffffffffffffffffffff166323b872dd3033846040518463ffffffff1660e01b81526004016129729392919061655c565b600060405180830381600087803b15801561298c57600080fd5b505af11580156129a0573d6000803e3d6000fd5b505050505050565b600061016154826129b99190616593565b9050919050565b6129c861353a565b42610165541115612a05576040517ff7d3556b00000000000000000000000000000000000000000000000000000000815260040160405180910390fd5b3273ffffffffffffffffffffffffffffffffffffffff163373ffffffffffffffffffffffffffffffffffffffff1614612a6a576040517f192e6d1600000000000000000000000000000000000000000000000000000000815260040160405180910390fd5b600061017260003373ffffffffffffffffffffffffffffffffffffffff1673ffffffffffffffffffffffffffffffffffffffff16815260200190815260200160002080549050905060008103612aec576040517f625b9d6b00000000000000000000000000000000000000000000000000000000815260040160405180910390fd5b600061017260003373ffffffffffffffffffffffffffffffffffffffff1673ffffffffffffffffffffffffffffffffffffffff168152602001908152602001600020805480602002602001604051908101604052809291908181526020018280548015612ba057602002820191906000526020600020906000905b82829054906101000a900461ffff1661ffff1681526020019060020190602082600101049283019260010382029150808411612b675790505b5050505050905060005b82811015612c0757612bd9828281518110612bc857612bc7615ca0565b5b602002602001015161ffff166140fe565b60036101666000828254612bed91906165d5565b925050819055508080612bff90615d03565b915050612baa565b5061017260003373ffffffffffffffffffffffffffffffffffffffff1673ffffffffffffffffffffffffffffffffffffffff1681526020019081526020016000206000612c549190614ca6565b3373ffffffffffffffffffffffffffffffffffffffff167f62ed7d60b5d66196410e11f0431f43dd63704aec0738ce89c79675665312177882604051612c9a9190615646565b60405180910390a25050612cac6136c8565b565b600061016154905090565b612cc1613c31565b806101689061012b612cd4929190614cce565b5050565b6101608054612ce690615aa0565b80601f0160208091040260200160405190810160405280929190818152602001828054612d1290615aa0565b8015612d5f5780601f10612d3457610100808354040283529160200191612d5f565b820191906000526020600020905b815481529060010190602001808311612d4257829003601f168201915b505050505081565b6060612d728261410b565b612db1576040517f08c379a0000000000000000000000000000000000000000000000000000000008152600401612da89061667b565b60405180910390fd5b6000612dbb61414c565b90506000815111612ddb5760405180602001604052806000815250612e0a565b80612de5846141df565b610160604051602001612dfa9392919061675a565b6040516020818303038152906040525b915050919050565b600061016260049054906101000a900461ffff16905090565b612e33613c31565b806101609081612e43919061618b565b5050565b600061016354905090565b612e5a613c31565b806101638190555050565b612e6d613c31565b806101658190555050565b600061010060008473ffffffffffffffffffffffffffffffffffffffff1673ffffffffffffffffffffffffffffffffffffffff16815260200190815260200160002060008373ffffffffffffffffffffffffffffffffffffffff1673ffffffffffffffffffffffffffffffffffffffff16815260200190815260200160002060009054906101000a900460ff16905092915050565b60008060008060005b85518110156130365760006001878381518110612f3657612f35615ca0565b5b6020026020010151612f48919061678b565b905061017360006101688361ffff1661012b8110612f6957612f68615ca0565b5b602091828204019190069054906101000a900460ff1660ff1660ff16815260200190815260200160002060000160009054906101000a900461ffff1661ffff1684612fb49190615ccf565b935061017360006101688361ffff1661012b8110612fd557612fd4615ca0565b5b602091828204019190069054906101000a900460ff1660ff1660ff16815260200190815260200160002060000160029054906101000a900461ffff1661ffff16836130209190615ccf565b925050808061302e90615d03565b915050612f16565b508181935093505050915091565b61304c613c31565b600073ffffffffffffffffffffffffffffffffffffffff168173ffffffffffffffffffffffffffffffffffffffff16036130bb576040517f08c379a00000000000000000000000000000000000000000000000000000000081526004016130b290616833565b60405180910390fd5b6130c481613cec565b50565b60006101678261ffff16815481106130e2576130e1615ca0565b5b90600052602060002090601091828204019190066002029054906101000a900461ffff169050919050565b60008061017360008460ff1660ff16815260200190815260200160002060000160009054906101000a900461ffff1661017360008560ff1660ff16815260200190815260200160002060000160029054906101000a900461ffff1691509150915091565b613179613c31565b3273ffffffffffffffffffffffffffffffffffffffff163373ffffffffffffffffffffffffffffffffffffffff16146131de576040517f192e6d1600000000000000000000000000000000000000000000000000000000815260040160405180910390fd5b600061016260009054906101000a900461ffff16905060008361ffff1603613232576040517f47baadb900000000000000000000000000000000000000000000000000000000815260040160405180910390fd5b61016260029054906101000a900461ffff1661ffff1683826132549190615c24565b61ffff161115613290576040517fc4f28e8100000000000000000000000000000000000000000000000000000000815260040160405180910390fd5b8261016260008282829054906101000a900461ffff166132b09190615c24565b92506101000a81548161ffff021916908361ffff160217905550600080600090505b8461ffff1681101561336d576132e661358b565b9150613332846101678461ffff168154811061330557613304615ca0565b5b90600052602060002090601091828204019190066002029054906101000a900461ffff1661ffff166142ad565b61333f8261ffff166135b6565b600261016660008282546133539190615ccf565b92505081905550808061336590615d03565b9150506132d2565b508273ffffffffffffffffffffffffffffffffffffffff167f62ed7d60b5d66196410e11f0431f43dd63704aec0738ce89c7967566531217786101676040516133b69190616f47565b60405180910390a250505050565b60007f01ffc9a7000000000000000000000000000000000000000000000000000000007bffffffffffffffffffffffffffffffffffffffffffffffffffffffff1916827bffffffffffffffffffffffffffffffffffffffffffffffffffffffff1916149050919050565b6134378161410b565b613476576040517f08c379a000000000000000000000000000000000000000000000000000000000815260040161346d906162a9565b60405180910390fd5b50565b600033905090565b8160ff600083815260200190815260200160002060006101000a81548173ffffffffffffffffffffffffffffffffffffffff021916908373ffffffffffffffffffffffffffffffffffffffff160217905550808273ffffffffffffffffffffffffffffffffffffffff166134f483611950565b73ffffffffffffffffffffffffffffffffffffffff167f8c5be1e5ebec7d5bd14f71427d1e84f3dd0314c0f7b2291e5b200ac8c7c3b92560405160405180910390a45050565b600261012d5403613580576040517f08c379a000000000000000000000000000000000000000000000000000000000815260040161357790616fb5565b60405180910390fd5b600261012d81905550565b6000806135966142cb565b9050600061016780549050826135ac9190617004565b9050809250505090565b6101678054905081106135f5576040517f47baadb900000000000000000000000000000000000000000000000000000000815260040160405180910390fd5b61016760016101678054905061360b91906165d5565b8154811061361c5761361b615ca0565b5b90600052602060002090601091828204019190066002029054906101000a900461ffff16610167828154811061365557613654615ca0565b5b90600052602060002090601091828204019190066002026101000a81548161ffff021916908361ffff16021790555061016780548061369757613696617035565b5b60019003818190600052602060002090601091828204019190066002026101000a81549061ffff0219169055905550565b600161012d81905550565b6000806136df83611950565b90508073ffffffffffffffffffffffffffffffffffffffff168473ffffffffffffffffffffffffffffffffffffffff16148061372157506137208185612e78565b5b8061375f57508373ffffffffffffffffffffffffffffffffffffffff1661374784610dc5565b73ffffffffffffffffffffffffffffffffffffffff16145b91505092915050565b8273ffffffffffffffffffffffffffffffffffffffff1661378882611950565b73ffffffffffffffffffffffffffffffffffffffff16146137de576040517f08c379a00000000000000000000000000000000000000000000000000000000081526004016137d5906170d6565b60405180910390fd5b600073ffffffffffffffffffffffffffffffffffffffff168273ffffffffffffffffffffffffffffffffffffffff160361384d576040517f08c379a000000000000000000000000000000000000000000000000000000000815260040161384490617168565b60405180910390fd5b61385a838383600161435a565b8273ffffffffffffffffffffffffffffffffffffffff1661387a82611950565b73ffffffffffffffffffffffffffffffffffffffff16146138d0576040517f08c379a00000000000000000000000000000000000000000000000000000000081526004016138c7906170d6565b60405180910390fd5b60ff600082815260200190815260200160002060006101000a81549073ffffffffffffffffffffffffffffffffffffffff0219169055600160fe60008573ffffffffffffffffffffffffffffffffffffffff1673ffffffffffffffffffffffffffffffffffffffff16815260200190815260200160002060008282540392505081905550600160fe60008473ffffffffffffffffffffffffffffffffffffffff1673ffffffffffffffffffffffffffffffffffffffff168152602001908152602001600020600082825401925050819055508160fd600083815260200190815260200160002060006101000a81548173ffffffffffffffffffffffffffffffffffffffff021916908373ffffffffffffffffffffffffffffffffffffffff160217905550808273ffffffffffffffffffffffffffffffffffffffff168473ffffffffffffffffffffffffffffffffffffffff167fddf252ad1be2c89b69c2b068fc378daa952ba7f163c4a11628f55a4df523b3ef60405160405180910390a4613a5c8383836001614360565b505050565b6000613a8f7f360894a13ba1a3210667c828492db98dca3e2076cc3735a920a3ca505d382bbc60001b614366565b60000160009054906101000a900473ffffffffffffffffffffffffffffffffffffffff16905090565b613ac0613c31565b50565b613aef7f4910fdfa16fed3260ed0e7147f7cc6da11a60208b5b9406d12a635614ffd914360001b614370565b60000160009054906101000a900460ff1615613b1357613b0e8361437a565b613c2c565b8273ffffffffffffffffffffffffffffffffffffffff166352d1902d6040518163ffffffff1660e01b8152600401602060405180830381865afa925050508015613b7b57506040513d601f19601f82011682018060405250810190613b7891906171b4565b60015b613bba576040517f08c379a0000000000000000000000000000000000000000000000000000000008152600401613bb190617253565b60405180910390fd5b7f360894a13ba1a3210667c828492db98dca3e2076cc3735a920a3ca505d382bbc60001b8114613c1f576040517f08c379a0000000000000000000000000000000000000000000000000000000008152600401613c16906172e5565b60405180910390fd5b50613c2b838383614433565b5b505050565b613c39613479565b73ffffffffffffffffffffffffffffffffffffffff16613c5761260b565b73ffffffffffffffffffffffffffffffffffffffff1614613cad576040517f08c379a0000000000000000000000000000000000000000000000000000000008152600401613ca490617351565b60405180910390fd5b565b600060fd600083815260200190815260200160002060009054906101000a900473ffffffffffffffffffffffffffffffffffffffff169050919050565b6000609760009054906101000a900473ffffffffffffffffffffffffffffffffffffffff16905081609760006101000a81548173ffffffffffffffffffffffffffffffffffffffff021916908373ffffffffffffffffffffffffffffffffffffffff1602179055508173ffffffffffffffffffffffffffffffffffffffff168173ffffffffffffffffffffffffffffffffffffffff167f8be0079c531659141344cd1fd0a4f28419497f9722a3daafe3b4186f6b6457e060405160405180910390a35050565b6000808273ffffffffffffffffffffffffffffffffffffffff163b119050919050565b600060019054906101000a900460ff16613e24576040517f08c379a0000000000000000000000000000000000000000000000000000000008152600401613e1b906173e3565b60405180910390fd5b613e2c61445f565b565b600060019054906101000a900460ff16613e7d576040517f08c379a0000000000000000000000000000000000000000000000000000000008152600401613e74906173e3565b60405180910390fd5b613e856144c0565b565b600060019054906101000a900460ff16613ed6576040517f08c379a0000000000000000000000000000000000000000000000000000000008152600401613ecd906173e3565b60405180910390fd5b613ee0828261451a565b5050565b600060019054906101000a900460ff16613f33576040517f08c379a0000000000000000000000000000000000000000000000000000000008152600401613f2a906173e3565b60405180910390fd5b565b8173ffffffffffffffffffffffffffffffffffffffff168373ffffffffffffffffffffffffffffffffffffffff1603613fa3576040517f08c379a0000000000000000000000000000000000000000000000000000000008152600401613f9a9061744f565b60405180910390fd5b8061010060008573ffffffffffffffffffffffffffffffffffffffff1673ffffffffffffffffffffffffffffffffffffffff16815260200190815260200160002060008473ffffffffffffffffffffffffffffffffffffffff1673ffffffffffffffffffffffffffffffffffffffff16815260200190815260200160002060006101000a81548160ff0219169083151502179055508173ffffffffffffffffffffffffffffffffffffffff168373ffffffffffffffffffffffffffffffffffffffff167f17307eab39ab6107e8899845ad3d59bd9653f200f220920489ca2b5937696c31836040516140959190614e3a565b60405180910390a3505050565b6140ad848484613768565b6140b98484848461458d565b6140f8576040517f08c379a00000000000000000000000000000000000000000000000000000000081526004016140ef906174e1565b60405180910390fd5b50505050565b61410833826142ad565b50565b60008073ffffffffffffffffffffffffffffffffffffffff1661412d83613caf565b73ffffffffffffffffffffffffffffffffffffffff1614159050919050565b606061015f805461415c90615aa0565b80601f016020809104026020016040519081016040528092919081815260200182805461418890615aa0565b80156141d55780601f106141aa576101008083540402835291602001916141d5565b820191906000526020600020905b8154815290600101906020018083116141b857829003601f168201915b5050505050905090565b6060600060016141ee84614714565b01905060008167ffffffffffffffff81111561420d5761420c615177565b5b6040519080825280601f01601f19166020018201604052801561423f5781602001600182028036833780820191505090505b509050600082602001820190505b6001156142a2578080600190039150507f3031323334353637383961626364656600000000000000000000000000000000600a86061a8153600a858161429657614295616fd5565b5b0494506000850361424d575b819350505050919050565b6142c7828260405180602001604052806000815250614867565b5050565b6000804142433373ffffffffffffffffffffffffffffffffffffffff16315a6040516020016142fe95949392919061757c565b6040516020818303038152906040528051906020012060001c9050610166548161432891906165d5565b60405160200161433891906175db565b6040516020818303038152906040528051906020012060001c90508091505090565b50505050565b50505050565b6000819050919050565b6000819050919050565b61438381613db2565b6143c2576040517f08c379a00000000000000000000000000000000000000000000000000000000081526004016143b990617668565b60405180910390fd5b806143ef7f360894a13ba1a3210667c828492db98dca3e2076cc3735a920a3ca505d382bbc60001b614366565b60000160006101000a81548173ffffffffffffffffffffffffffffffffffffffff021916908373ffffffffffffffffffffffffffffffffffffffff16021790555050565b61443c836148c2565b6000825111806144495750805b1561445a576144588383614911565b505b505050565b600060019054906101000a900460ff166144ae576040517f08c379a00000000000000000000000000000000000000000000000000000000081526004016144a5906173e3565b60405180910390fd5b6144be6144b9613479565b613cec565b565b600060019054906101000a900460ff1661450f576040517f08c379a0000000000000000000000000000000000000000000000000000000008152600401614506906173e3565b60405180910390fd5b600161012d81905550565b600060019054906101000a900460ff16614569576040517f08c379a0000000000000000000000000000000000000000000000000000000008152600401614560906173e3565b60405180910390fd5b8160fb9081614578919061618b565b508060fc9081614588919061618b565b505050565b60006145ae8473ffffffffffffffffffffffffffffffffffffffff16613db2565b15614707578373ffffffffffffffffffffffffffffffffffffffff1663150b7a026145d7613479565b8786866040518563ffffffff1660e01b81526004016145f994939291906176dd565b6020604051808303816000875af192505050801561463557506040513d601f19601f82011682018060405250810190614632919061773e565b60015b6146b7573d8060008114614665576040519150601f19603f3d011682016040523d82523d6000602084013e61466a565b606091505b5060008151036146af576040517f08c379a00000000000000000000000000000000000000000000000000000000081526004016146a6906174e1565b60405180910390fd5b805181602001fd5b63150b7a0260e01b7bffffffffffffffffffffffffffffffffffffffffffffffffffffffff1916817bffffffffffffffffffffffffffffffffffffffffffffffffffffffff19161491505061470c565b600190505b949350505050565b600080600090507a184f03e93ff9f4daa797ed6e38ed64bf6a1f0100000000000000008310614772577a184f03e93ff9f4daa797ed6e38ed64bf6a1f010000000000000000838161476857614767616fd5565b5b0492506040810190505b6d04ee2d6d415b85acef810000000083106147af576d04ee2d6d415b85acef810000000083816147a5576147a4616fd5565b5b0492506020810190505b662386f26fc1000083106147de57662386f26fc1000083816147d4576147d3616fd5565b5b0492506010810190505b6305f5e1008310614807576305f5e10083816147fd576147fc616fd5565b5b0492506008810190505b612710831061482c57612710838161482257614821616fd5565b5b0492506004810190505b6064831061484f576064838161484557614844616fd5565b5b0492506002810190505b600a831061485e576001810190505b80915050919050565b614871838361493e565b61487e600084848461458d565b6148bd576040517f08c379a00000000000000000000000000000000000000000000000000000000081526004016148b4906174e1565b60405180910390fd5b505050565b6148cb8161437a565b8073ffffffffffffffffffffffffffffffffffffffff167fbc7cd75a20ee27fd9adebab32041f755214dbc6bffa90cc0225b39da2e5c2d3b60405160405180910390a250565b606061493683836040518060600160405280602781526020016178f860279139614b5b565b905092915050565b600073ffffffffffffffffffffffffffffffffffffffff168273ffffffffffffffffffffffffffffffffffffffff16036149ad576040517f08c379a00000000000000000000000000000000000000000000000000000000081526004016149a4906177b7565b60405180910390fd5b6149b68161410b565b156149f6576040517f08c379a00000000000000000000000000000000000000000000000000000000081526004016149ed90617823565b60405180910390fd5b614a0460008383600161435a565b614a0d8161410b565b15614a4d576040517f08c379a0000000000000000000000000000000000000000000000000000000008152600401614a4490617823565b60405180910390fd5b600160fe60008473ffffffffffffffffffffffffffffffffffffffff1673ffffffffffffffffffffffffffffffffffffffff168152602001908152602001600020600082825401925050819055508160fd600083815260200190815260200160002060006101000a81548173ffffffffffffffffffffffffffffffffffffffff021916908373ffffffffffffffffffffffffffffffffffffffff160217905550808273ffffffffffffffffffffffffffffffffffffffff16600073ffffffffffffffffffffffffffffffffffffffff167fddf252ad1be2c89b69c2b068fc378daa952ba7f163c4a11628f55a4df523b3ef60405160405180910390a4614b57600083836001614360565b5050565b60606000808573ffffffffffffffffffffffffffffffffffffffff1685604051614b859190617874565b600060405180830381855af49150503d8060008114614bc0576040519150601f19603f3d011682016040523d82523d6000602084013e614bc5565b606091505b5091509150614bd686838387614be1565b925050509392505050565b60608315614c43576000835103614c3b57614bfb85613db2565b614c3a576040517f08c379a0000000000000000000000000000000000000000000000000000000008152600401614c31906178d7565b60405180910390fd5b5b829050614c4e565b614c4d8383614c56565b5b949350505050565b600082511115614c695781518083602001fd5b806040517f08c379a0000000000000000000000000000000000000000000000000000000008152600401614c9d9190614ee5565b60405180910390fd5b50805460008255600f016010900490600052602060002090810190614ccb9190614d69565b50565b8261012b601f01602090048101928215614d585791602002820160005b83821115614d2957835183826101000a81548160ff021916908360ff1602179055509260200192600101602081600001049283019260010302614ceb565b8015614d565782816101000a81549060ff0219169055600101602081600001049283019260010302614d29565b505b509050614d659190614d69565b5090565b5b80821115614d82576000816000905550600101614d6a565b5090565b6000604051905090565b600080fd5b600080fd5b60007fffffffff0000000000000000000000000000000000000000000000000000000082169050919050565b614dcf81614d9a565b8114614dda57600080fd5b50565b600081359050614dec81614dc6565b92915050565b600060208284031215614e0857614e07614d90565b5b6000614e1684828501614ddd565b91505092915050565b60008115159050919050565b614e3481614e1f565b82525050565b6000602082019050614e4f6000830184614e2b565b92915050565b600081519050919050565b600082825260208201905092915050565b60005b83811015614e8f578082015181840152602081019050614e74565b60008484015250505050565b6000601f19601f8301169050919050565b6000614eb782614e55565b614ec18185614e60565b9350614ed1818560208601614e71565b614eda81614e9b565b840191505092915050565b60006020820190508181036000830152614eff8184614eac565b905092915050565b6000819050919050565b614f1a81614f07565b8114614f2557600080fd5b50565b600081359050614f3781614f11565b92915050565b600060208284031215614f5357614f52614d90565b5b6000614f6184828501614f28565b91505092915050565b600073ffffffffffffffffffffffffffffffffffffffff82169050919050565b6000614f9582614f6a565b9050919050565b614fa581614f8a565b82525050565b6000602082019050614fc06000830184614f9c565b92915050565b614fcf81614f8a565b8114614fda57600080fd5b50565b600081359050614fec81614fc6565b92915050565b6000806040838503121561500957615008614d90565b5b600061501785828601614fdd565b925050602061502885828601614f28565b9150509250929050565b600061ffff82169050919050565b61504981615032565b811461505457600080fd5b50565b60008135905061506681615040565b92915050565b60006020828403121561508257615081614d90565b5b600061509084828501615057565b91505092915050565b6000602082840312156150af576150ae614d90565b5b60006150bd84828501614fdd565b91505092915050565b6150cf81614f07565b82525050565b60006020820190506150ea60008301846150c6565b92915050565b6150f981615032565b82525050565b600060208201905061511460008301846150f0565b92915050565b60008060006060848603121561513357615132614d90565b5b600061514186828701614fdd565b935050602061515286828701614fdd565b925050604061516386828701614f28565b9150509250925092565b600080fd5b600080fd5b7f4e487b7100000000000000000000000000000000000000000000000000000000600052604160045260246000fd5b6151af82614e9b565b810181811067ffffffffffffffff821117156151ce576151cd615177565b5b80604052505050565b60006151e1614d86565b90506151ed82826151a6565b919050565b600067ffffffffffffffff82111561520d5761520c615177565b5b61521682614e9b565b9050602081019050919050565b82818337600083830152505050565b6000615245615240846151f2565b6151d7565b90508281526020810184848401111561526157615260615172565b5b61526c848285615223565b509392505050565b600082601f8301126152895761528861516d565b5b8135615299848260208601615232565b91505092915050565b600080604083850312156152b9576152b8614d90565b5b60006152c785828601614fdd565b925050602083013567ffffffffffffffff8111156152e8576152e7614d95565b5b6152f485828601615274565b9150509250929050565b6000819050919050565b615311816152fe565b82525050565b600060208201905061532c6000830184615308565b92915050565b600067ffffffffffffffff82111561534d5761534c615177565b5b61535682614e9b565b9050602081019050919050565b600061537661537184615332565b6151d7565b90508281526020810184848401111561539257615391615172565b5b61539d848285615223565b509392505050565b600082601f8301126153ba576153b961516d565b5b81356153ca848260208601615363565b91505092915050565b6000602082840312156153e9576153e8614d90565b5b600082013567ffffffffffffffff81111561540757615406614d95565b5b615413848285016153a5565b91505092915050565b600060ff82169050919050565b6154328161541c565b811461543d57600080fd5b50565b60008135905061544f81615429565b92915050565b60008060006060848603121561546e5761546d614d90565b5b600061547c86828701615440565b935050602061548d86828701615057565b925050604061549e86828701615057565b9150509250925092565b600081519050919050565b600082825260208201905092915050565b6000819050602082019050919050565b6154dd81614f07565b82525050565b60006154ef83836154d4565b60208301905092915050565b6000602082019050919050565b6000615513826154a8565b61551d81856154b3565b9350615528836154c4565b8060005b8381101561555957815161554088826154e3565b975061554b836154fb565b92505060018101905061552c565b5085935050505092915050565b600060208201905081810360008301526155808184615508565b905092915050565b600081519050919050565b600082825260208201905092915050565b6000819050602082019050919050565b6155bd81615032565b82525050565b60006155cf83836155b4565b60208301905092915050565b6000602082019050919050565b60006155f382615588565b6155fd8185615593565b9350615608836155a4565b8060005b8381101561563957815161562088826155c3565b975061562b836155db565b92505060018101905061560c565b5085935050505092915050565b6000602082019050818103600083015261566081846155e8565b905092915050565b61567181614e1f565b811461567c57600080fd5b50565b60008135905061568e81615668565b92915050565b600080604083850312156156ab576156aa614d90565b5b60006156b985828601614fdd565b92505060206156ca8582860161567f565b9150509250929050565b6156dd8161541c565b82525050565b60006020820190506156f860008301846156d4565b92915050565b6000806000806080858703121561571857615717614d90565b5b600061572687828801614fdd565b945050602061573787828801614fdd565b935050604061574887828801614f28565b925050606085013567ffffffffffffffff81111561576957615768614d95565b5b61577587828801615274565b91505092959194509250565b600067ffffffffffffffff82111561579c5761579b615177565b5b602082029050919050565b600080fd5b60006157bf6157ba84615781565b6151d7565b905080602084028301858111156157d9576157d86157a7565b5b835b8181101561580257806157ee8882615440565b8452602084019350506020810190506157db565b5050509392505050565b600082601f8301126158215761582061516d565b5b61012b61582f8482856157ac565b91505092915050565b6000612560828403121561584f5761584e614d90565b5b600061585d8482850161580c565b91505092915050565b6000806040838503121561587d5761587c614d90565b5b600061588b85828601614fdd565b925050602061589c85828601614fdd565b9150509250929050565b600067ffffffffffffffff8211156158c1576158c0615177565b5b602082029050602081019050919050565b60006158e56158e0846158a6565b6151d7565b90508083825260208201905060208402830185811115615908576159076157a7565b5b835b81811015615931578061591d8882615057565b84526020840193505060208101905061590a565b5050509392505050565b600082601f8301126159505761594f61516d565b5b81356159608482602086016158d2565b91505092915050565b60006020828403121561597f5761597e614d90565b5b600082013567ffffffffffffffff81111561599d5761599c614d95565b5b6159a98482850161593b565b91505092915050565b60006040820190506159c760008301856150c6565b6159d460208301846150c6565b9392505050565b6000602082840312156159f1576159f0614d90565b5b60006159ff84828501615440565b91505092915050565b6000604082019050615a1d60008301856150f0565b615a2a60208301846150f0565b9392505050565b60008060408385031215615a4857615a47614d90565b5b6000615a5685828601615057565b9250506020615a6785828601614fdd565b9150509250929050565b7f4e487b7100000000000000000000000000000000000000000000000000000000600052602260045260246000fd5b60006002820490506001821680615ab857607f821691505b602082108103615acb57615aca615a71565b5b50919050565b7f4552433732313a20617070726f76616c20746f2063757272656e74206f776e6560008201527f7200000000000000000000000000000000000000000000000000000000000000602082015250565b6000615b2d602183614e60565b9150615b3882615ad1565b604082019050919050565b60006020820190508181036000830152615b5c81615b20565b9050919050565b7f4552433732313a20617070726f76652063616c6c6572206973206e6f7420746f60008201527f6b656e206f776e6572206f7220617070726f76656420666f7220616c6c000000602082015250565b6000615bbf603d83614e60565b9150615bca82615b63565b604082019050919050565b60006020820190508181036000830152615bee81615bb2565b9050919050565b7f4e487b7100000000000000000000000000000000000000000000000000000000600052601160045260246000fd5b6000615c2f82615032565b9150615c3a83615032565b9250828201905061ffff811115615c5457615c53615bf5565b5b92915050565b600081905092915050565b50565b6000615c75600083615c5a565b9150615c8082615c65565b600082019050919050565b6000615c9682615c68565b9150819050919050565b7f4e487b7100000000000000000000000000000000000000000000000000000000600052603260045260246000fd5b6000615cda82614f07565b9150615ce583614f07565b9250828201905080821115615cfd57615cfc615bf5565b5b92915050565b6000615d0e82614f07565b91507fffffffffffffffffffffffffffffffffffffffffffffffffffffffffffffffff8203615d4057615d3f615bf5565b5b600182019050919050565b6000819050919050565b6000615d70615d6b615d6684615032565b615d4b565b614f07565b9050919050565b615d8081615d55565b82525050565b6000602082019050615d9b6000830184615d77565b92915050565b7f4552433732313a2063616c6c6572206973206e6f7420746f6b656e206f776e6560008201527f72206f7220617070726f76656400000000000000000000000000000000000000602082015250565b6000615dfd602d83614e60565b9150615e0882615da1565b604082019050919050565b60006020820190508181036000830152615e2c81615df0565b9050919050565b7f46756e6374696f6e206d7573742062652063616c6c6564207468726f7567682060008201527f64656c656761746563616c6c0000000000000000000000000000000000000000602082015250565b6000615e8f602c83614e60565b9150615e9a82615e33565b604082019050919050565b60006020820190508181036000830152615ebe81615e82565b9050919050565b7f46756e6374696f6e206d7573742062652063616c6c6564207468726f7567682060008201527f6163746976652070726f78790000000000000000000000000000000000000000602082015250565b6000615f21602c83614e60565b9150615f2c82615ec5565b604082019050919050565b60006020820190508181036000830152615f5081615f14565b9050919050565b7f555550535570677261646561626c653a206d757374206e6f742062652063616c60008201527f6c6564207468726f7567682064656c656761746563616c6c0000000000000000602082015250565b6000615fb3603883614e60565b9150615fbe82615f57565b604082019050919050565b60006020820190508181036000830152615fe281615fa6565b9050919050565b60008190508160005260206000209050919050565b60006020601f8301049050919050565b600082821b905092915050565b60006008830261604b7fffffffffffffffffffffffffffffffffffffffffffffffffffffffffffffffff8261600e565b616055868361600e565b95508019841693508086168417925050509392505050565b600061608861608361607e84614f07565b615d4b565b614f07565b9050919050565b6000819050919050565b6160a28361606d565b6160b66160ae8261608f565b84845461601b565b825550505050565b600090565b6160cb6160be565b6160d6818484616099565b505050565b5b818110156160fa576160ef6000826160c3565b6001810190506160dc565b5050565b601f82111561613f5761611081615fe9565b61611984615ffe565b81016020851015616128578190505b61613c61613485615ffe565b8301826160db565b50505b505050565b600082821c905092915050565b600061616260001984600802616144565b1980831691505092915050565b600061617b8383616151565b9150826002028217905092915050565b61619482614e55565b67ffffffffffffffff8111156161ad576161ac615177565b5b6161b78254615aa0565b6161c28282856160fe565b600060209050601f8311600181146161f557600084156161e3578287015190505b6161ed858261616f565b865550616255565b601f19841661620386615fe9565b60005b8281101561622b57848901518255600182019150602085019450602081019050616206565b868310156162485784890151616244601f891682616151565b8355505b6001600288020188555050505b505050505050565b7f4552433732313a20696e76616c696420746f6b656e2049440000000000000000600082015250565b6000616293601883614e60565b915061629e8261625d565b602082019050919050565b600060208201905081810360008301526162c281616286565b9050919050565b7f4552433732313a2061646472657373207a65726f206973206e6f74206120766160008201527f6c6964206f776e65720000000000000000000000000000000000000000000000602082015250565b6000616325602983614e60565b9150616330826162c9565b604082019050919050565b6000602082019050818103600083015261635481616318565b9050919050565b7f496e697469616c697a61626c653a20636f6e747261637420697320616c72656160008201527f647920696e697469616c697a6564000000000000000000000000000000000000602082015250565b60006163b7602e83614e60565b91506163c28261635b565b604082019050919050565b600060208201905081810360008301526163e6816163aa565b9050919050565b60006163f882615032565b915061ffff820361640c5761640b615bf5565b5b600182019050919050565b6000819050919050565b600061643c61643761643284616417565b615d4b565b61541c565b9050919050565b61644c81616421565b82525050565b60006020820190506164676000830184616443565b92915050565b60008151905061647c81614fc6565b92915050565b60006020828403121561649857616497614d90565b5b60006164a68482850161646d565b91505092915050565b6000815190506164be81614f11565b92915050565b6000602082840312156164da576164d9614d90565b5b60006164e8848285016164af565b91505092915050565b60006040820190506165066000830185614f9c565b61651360208301846150c6565b9392505050565b60008151905061652981615668565b92915050565b60006020828403121561654557616544614d90565b5b60006165538482850161651a565b91505092915050565b60006060820190506165716000830186614f9c565b61657e6020830185614f9c565b61658b60408301846150c6565b949350505050565b600061659e82614f07565b91506165a983614f07565b92508282026165b781614f07565b915082820484148315176165ce576165cd615bf5565b5b5092915050565b60006165e082614f07565b91506165eb83614f07565b925082820390508181111561660357616602615bf5565b5b92915050565b7f4552433732314d657461646174613a2055524920717565727920666f72206e6f60008201527f6e6578697374656e7420746f6b656e0000000000000000000000000000000000602082015250565b6000616665602f83614e60565b915061667082616609565b604082019050919050565b6000602082019050818103600083015261669481616658565b9050919050565b600081905092915050565b60006166b182614e55565b6166bb818561669b565b93506166cb818560208601614e71565b80840191505092915050565b600081546166e481615aa0565b6166ee818661669b565b94506001821660008114616709576001811461671e57616751565b60ff1983168652811515820286019350616751565b61672785615fe9565b60005b838110156167495781548189015260018201915060208101905061672a565b838801955050505b50505092915050565b600061676682866166a6565b915061677282856166a6565b915061677e82846166d7565b9150819050949350505050565b600061679682615032565b91506167a183615032565b9250828203905061ffff8111156167bb576167ba615bf5565b5b92915050565b7f4f776e61626c653a206e6577206f776e657220697320746865207a65726f206160008201527f6464726573730000000000000000000000000000000000000000000000000000602082015250565b600061681d602683614e60565b9150616828826167c1565b604082019050919050565b6000602082019050818103600083015261684c81616810565b9050919050565b600081549050919050565b60008190508160005260206000209050919050565b60008160001c9050919050565b600061ffff82169050919050565b60006168a161689c83616873565b616880565b9050919050565b60008160101c9050919050565b60006168c86168c3836168a8565b616880565b9050919050565b60008160201c9050919050565b60006168ef6168ea836168cf565b616880565b9050919050565b60008160301c9050919050565b6000616916616911836168f6565b616880565b9050919050565b60008160401c9050919050565b600061693d6169388361691d565b616880565b9050919050565b60008160501c9050919050565b600061696461695f83616944565b616880565b9050919050565b60008160601c9050919050565b600061698b6169868361696b565b616880565b9050919050565b60008160701c9050919050565b60006169b26169ad83616992565b616880565b9050919050565b60008160801c9050919050565b60006169d96169d4836169b9565b616880565b9050919050565b60008160901c9050919050565b6000616a006169fb836169e0565b616880565b9050919050565b60008160a01c9050919050565b6000616a27616a2283616a07565b616880565b9050919050565b60008160b01c9050919050565b6000616a4e616a4983616a2e565b616880565b9050919050565b60008160c01c9050919050565b6000616a75616a7083616a55565b616880565b9050919050565b60008160d01c9050919050565b6000616a9c616a9783616a7c565b616880565b9050919050565b60008160e01c9050919050565b6000616ac3616abe83616aa3565b616880565b9050919050565b60008160f01c9050919050565b6000616aea616ae583616aca565b616880565b9050919050565b6000616afc82616853565b616b068185615593565b935083616b128461685e565b6000600115616cbf575b83600160100382011015616cbe578154616b3e88616b398361688e565b6155b4565b602088019750616b5688616b51836168b5565b6155b4565b602088019750616b6e88616b69836168dc565b6155b4565b602088019750616b8688616b8183616903565b6155b4565b602088019750616b9e88616b998361692a565b6155b4565b602088019750616bb688616bb183616951565b6155b4565b602088019750616bce88616bc983616978565b6155b4565b602088019750616be688616be18361699f565b6155b4565b602088019750616bfe88616bf9836169c6565b6155b4565b602088019750616c1688616c11836169ed565b6155b4565b602088019750616c2e88616c2983616a14565b6155b4565b602088019750616c4688616c4183616a3b565b6155b4565b602088019750616c5e88616c5983616a62565b6155b4565b602088019750616c7688616c7183616a89565b6155b4565b602088019750616c8e88616c8983616ab0565b6155b4565b602088019750616ca688616ca183616ad7565b6155b4565b60208801975060018301925050601081019050616b1c565b5b600115616f3a57815484821015616cef57616ce288616cdd8361688e565b6155b4565b6020880197506001820191505b84821015616d1657616d0988616d04836168b5565b6155b4565b6020880197506001820191505b84821015616d3d57616d3088616d2b836168dc565b6155b4565b6020880197506001820191505b84821015616d6457616d5788616d5283616903565b6155b4565b6020880197506001820191505b84821015616d8b57616d7e88616d798361692a565b6155b4565b6020880197506001820191505b84821015616db257616da588616da083616951565b6155b4565b6020880197506001820191505b84821015616dd957616dcc88616dc783616978565b6155b4565b6020880197506001820191505b84821015616e0057616df388616dee8361699f565b6155b4565b6020880197506001820191505b84821015616e2757616e1a88616e15836169c6565b6155b4565b6020880197506001820191505b84821015616e4e57616e4188616e3c836169ed565b6155b4565b6020880197506001820191505b84821015616e7557616e6888616e6383616a14565b6155b4565b6020880197506001820191505b84821015616e9c57616e8f88616e8a83616a3b565b6155b4565b6020880197506001820191505b84821015616ec357616eb688616eb183616a62565b6155b4565b6020880197506001820191505b84821015616eea57616edd88616ed883616a89565b6155b4565b6020880197506001820191505b84821015616f1157616f0488616eff83616ab0565b6155b4565b6020880197506001820191505b84821015616f3857616f2b88616f2683616ad7565b6155b4565b6020880197506001820191505b505b8694505050505092915050565b60006020820190508181036000830152616f618184616af1565b905092915050565b7f5265656e7472616e637947756172643a207265656e7472616e742063616c6c00600082015250565b6000616f9f601f83614e60565b9150616faa82616f69565b602082019050919050565b60006020820190508181036000830152616fce81616f92565b9050919050565b7f4e487b7100000000000000000000000000000000000000000000000000000000600052601260045260246000fd5b600061700f82614f07565b915061701a83614f07565b92508261702a57617029616fd5565b5b828206905092915050565b7f4e487b7100000000000000000000000000000000000000000000000000000000600052603160045260246000fd5b7f4552433732313a207472616e736665722066726f6d20696e636f72726563742060008201527f6f776e6572000000000000000000000000000000000000000000000000000000602082015250565b60006170c0602583614e60565b91506170cb82617064565b604082019050919050565b600060208201905081810360008301526170ef816170b3565b9050919050565b7f4552433732313a207472616e7366657220746f20746865207a65726f2061646460008201527f7265737300000000000000000000000000000000000000000000000000000000602082015250565b6000617152602483614e60565b915061715d826170f6565b604082019050919050565b6000602082019050818103600083015261718181617145565b9050919050565b617191816152fe565b811461719c57600080fd5b50565b6000815190506171ae81617188565b92915050565b6000602082840312156171ca576171c9614d90565b5b60006171d88482850161719f565b91505092915050565b7f45524331393637557067726164653a206e657720696d706c656d656e7461746960008201527f6f6e206973206e6f742055555053000000000000000000000000000000000000602082015250565b600061723d602e83614e60565b9150617248826171e1565b604082019050919050565b6000602082019050818103600083015261726c81617230565b9050919050565b7f45524331393637557067726164653a20756e737570706f727465642070726f7860008201527f6961626c65555549440000000000000000000000000000000000000000000000602082015250565b60006172cf602983614e60565b91506172da82617273565b604082019050919050565b600060208201905081810360008301526172fe816172c2565b9050919050565b7f4f776e61626c653a2063616c6c6572206973206e6f7420746865206f776e6572600082015250565b600061733b602083614e60565b915061734682617305565b602082019050919050565b6000602082019050818103600083015261736a8161732e565b9050919050565b7f496e697469616c697a61626c653a20636f6e7472616374206973206e6f74206960008201527f6e697469616c697a696e67000000000000000000000000000000000000000000602082015250565b60006173cd602b83614e60565b91506173d882617371565b604082019050919050565b600060208201905081810360008301526173fc816173c0565b9050919050565b7f4552433732313a20617070726f766520746f2063616c6c657200000000000000600082015250565b6000617439601983614e60565b915061744482617403565b602082019050919050565b600060208201905081810360008301526174688161742c565b9050919050565b7f4552433732313a207472616e7366657220746f206e6f6e20455243373231526560008201527f63656976657220696d706c656d656e7465720000000000000000000000000000602082015250565b60006174cb603283614e60565b91506174d68261746f565b604082019050919050565b600060208201905081810360008301526174fa816174be565b9050919050565b600061750c82614f6a565b9050919050565b60008160601b9050919050565b600061752b82617513565b9050919050565b600061753d82617520565b9050919050565b61755561755082617501565b617532565b82525050565b6000819050919050565b61757661757182614f07565b61755b565b82525050565b60006175888288617544565b6014820191506175988287617565565b6020820191506175a88286617565565b6020820191506175b88285617565565b6020820191506175c88284617565565b6020820191508190509695505050505050565b60006175e78284617565565b60208201915081905092915050565b7f455243313936373a206e657720696d706c656d656e746174696f6e206973206e60008201527f6f74206120636f6e747261637400000000000000000000000000000000000000602082015250565b6000617652602d83614e60565b915061765d826175f6565b604082019050919050565b6000602082019050818103600083015261768181617645565b9050919050565b600081519050919050565b600082825260208201905092915050565b60006176af82617688565b6176b98185617693565b93506176c9818560208601614e71565b6176d281614e9b565b840191505092915050565b60006080820190506176f26000830187614f9c565b6176ff6020830186614f9c565b61770c60408301856150c6565b818103606083015261771e81846176a4565b905095945050505050565b60008151905061773881614dc6565b92915050565b60006020828403121561775457617753614d90565b5b600061776284828501617729565b91505092915050565b7f4552433732313a206d696e7420746f20746865207a65726f2061646472657373600082015250565b60006177a1602083614e60565b91506177ac8261776b565b602082019050919050565b600060208201905081810360008301526177d081617794565b9050919050565b7f4552433732313a20746f6b656e20616c7265616479206d696e74656400000000600082015250565b600061780d601c83614e60565b9150617818826177d7565b602082019050919050565b6000602082019050818103600083015261783c81617800565b9050919050565b600061784e82617688565b6178588185615c5a565b9350617868818560208601614e71565b80840191505092915050565b60006178808284617843565b915081905092915050565b7f416464726573733a2063616c6c20746f206e6f6e2d636f6e7472616374000000600082015250565b60006178c1601d83614e60565b91506178cc8261788b565b602082019050919050565b600060208201905081810360008301526178f0816178b4565b905091905056fe416464726573733a206c6f772d6c6576656c2064656c65676174652063616c6c206661696c656468747470733a2f2f697066732e696f2f697066732f516d5379314c5441386666534c563650354a42513667504438687270326d487a46704170634346424a375956726a2fa264697066735822122031adc175c0b27a482ec3c41f4fab16b850ecceb40b8c9483e6536a90b2c0f90964736f6c63430008120033",
  "linkReferences": {},
  "deployedLinkReferences": {}
}