{"contracts/TrndRewards.sol":{"DivitrendRewards":{"abi":[{"inputs":[],"stateMutability":"nonpayable","type":"constructor"},{"inputs":[{"internalType":"uint256","name":"nftId","type":"uint256"}],"name":"TrndRewards_NotTheNftOwner","type":"error"},{"inputs":[],"name":"TrndRewards__InvalidAddress","type":"error"},{"inputs":[],"name":"TrndRewards__InvalidAmount","type":"error"},{"inputs":[],"name":"TrndRewards__InvalidStakingOption","type":"error"},{"inputs":[{"internalType":"uint256","name":"amount","type":"uint256"}],"name":"TrndRewards__MaxLimitExceeded","type":"error"},{"inputs":[],"name":"TrndRewards__NotEnoughAllowance","type":"error"},{"inputs":[],"name":"TrndRewards__NotEnoughBalance","type":"error"},{"inputs":[],"name":"TrndRewards__TransferFailed","type":"error"},{"inputs":[],"name":"TrndRewards__ZeroEthRewards","type":"error"},{"anonymous":false,"inputs":[{"indexed":false,"internalType":"address","name":"previousAdmin","type":"address"},{"indexed":false,"internalType":"address","name":"newAdmin","type":"address"}],"name":"AdminChanged","type":"event"},{"anonymous":false,"inputs":[{"indexed":true,"internalType":"address","name":"beacon","type":"address"}],"name":"BeaconUpgraded","type":"event"},{"anonymous":false,"inputs":[{"indexed":true,"internalType":"address","name":"account","type":"address"},{"indexed":false,"internalType":"uint256","name":"amount","type":"uint256"}],"name":"EthClaimed","type":"event"},{"anonymous":false,"inputs":[{"indexed":true,"internalType":"address","name":"account","type":"address"},{"indexed":false,"internalType":"uint256","name":"amount","type":"uint256"},{"indexed":false,"internalType":"uint256","name":"remainingsWithdrawn","type":"uint256"}],"name":"EthDeposited","type":"event"},{"anonymous":false,"inputs":[{"indexed":true,"internalType":"address","name":"account","type":"address"},{"indexed":false,"internalType":"uint256","name":"amount","type":"uint256"},{"indexed":false,"internalType":"uint256[]","name":"nftIds","type":"uint256[]"},{"indexed":false,"internalType":"uint8","name":"stakingOption","type":"uint8"}],"name":"FactoriesStaked","type":"event"},{"anonymous":false,"inputs":[{"indexed":true,"internalType":"address","name":"account","type":"address"},{"indexed":false,"internalType":"uint256","name":"amount","type":"uint256"},{"indexed":false,"internalType":"uint256[]","name":"nftIds","type":"uint256[]"},{"indexed":false,"internalType":"uint8","name":"stakingOption","type":"uint8"}],"name":"FactoriesUnstaked","type":"event"},{"anonymous":false,"inputs":[{"indexed":false,"internalType":"uint8","name":"version","type":"uint8"}],"name":"Initialized","type":"event"},{"anonymous":false,"inputs":[{"indexed":true,"internalType":"address","name":"previousOwner","type":"address"},{"indexed":true,"internalType":"address","name":"newOwner","type":"address"}],"name":"OwnershipTransferred","type":"event"},{"anonymous":false,"inputs":[{"indexed":false,"internalType":"address","name":"account","type":"address"}],"name":"Paused","type":"event"},{"anonymous":false,"inputs":[{"indexed":true,"internalType":"address","name":"account","type":"address"},{"indexed":false,"internalType":"uint256","name":"amount","type":"uint256"},{"indexed":false,"internalType":"uint8","name":"stakingOption","type":"uint8"}],"name":"TrndClaimed","type":"event"},{"anonymous":false,"inputs":[{"indexed":true,"internalType":"address","name":"account","type":"address"},{"indexed":false,"internalType":"uint256","name":"amount","type":"uint256"},{"indexed":false,"internalType":"uint8","name":"stakingOption","type":"uint8"}],"name":"TrndCompounded","type":"event"},{"anonymous":false,"inputs":[{"indexed":true,"internalType":"address","name":"account","type":"address"},{"indexed":false,"internalType":"uint256","name":"amount","type":"uint256"},{"indexed":false,"internalType":"uint8","name":"stakingOption","type":"uint8"}],"name":"TrndStaked","type":"event"},{"anonymous":false,"inputs":[{"indexed":true,"internalType":"address","name":"account","type":"address"},{"indexed":false,"internalType":"uint256","name":"amount","type":"uint256"},{"indexed":false,"internalType":"uint8","name":"stakingOption","type":"uint8"}],"name":"TrndUnstaked","type":"event"},{"anonymous":false,"inputs":[{"indexed":false,"internalType":"address","name":"account","type":"address"}],"name":"Unpaused","type":"event"},{"anonymous":false,"inputs":[{"indexed":true,"internalType":"address","name":"implementation","type":"address"}],"name":"Upgraded","type":"event"},{"inputs":[],"name":"claimEth","outputs":[],"stateMutability":"nonpayable","type":"function"},{"inputs":[{"internalType":"uint8","name":"_stakingOption","type":"uint8"},{"internalType":"uint8","name":"compoundPerc","type":"uint8"}],"name":"claimStaking","outputs":[],"stateMutability":"nonpayable","type":"function"},{"inputs":[],"name":"depositETH","outputs":[],"stateMutability":"payable","type":"function"},{"inputs":[{"internalType":"uint256","name":"_tokenAmount","type":"uint256"},{"internalType":"uint8","name":"_stakingOption","type":"uint8"}],"name":"enterStaking","outputs":[],"stateMutability":"payable","type":"function"},{"inputs":[{"internalType":"uint8","name":"_stakingOption","type":"uint8"}],"name":"exitStaking","outputs":[],"stateMutability":"nonpayable","type":"function"},{"inputs":[{"internalType":"address","name":"account","type":"address"},{"internalType":"uint8","name":"_stakingOption","type":"uint8"}],"name":"getActualMalus","outputs":[{"internalType":"uint24","name":"","type":"uint24"}],"stateMutability":"view","type":"function"},{"inputs":[],"name":"getContractBalance","outputs":[{"internalType":"uint256","name":"","type":"uint256"}],"stateMutability":"view","type":"function"},{"inputs":[],"name":"getContractNftBalance","outputs":[{"internalType":"uint256","name":"","type":"uint256"}],"stateMutability":"view","type":"function"},{"inputs":[{"internalType":"uint256","name":"index","type":"uint256"}],"name":"getDepositETH","outputs":[{"internalType":"uint256","name":"","type":"uint256"},{"internalType":"uint256","name":"","type":"uint256"}],"stateMutability":"view","type":"function"},{"inputs":[],"name":"getDepositNumber","outputs":[{"internalType":"uint256","name":"","type":"uint256"}],"stateMutability":"view","type":"function"},{"inputs":[{"internalType":"uint256","name":"index","type":"uint256"}],"name":"getEthDeposit","outputs":[{"internalType":"uint256","name":"","type":"uint256"},{"internalType":"uint256","name":"","type":"uint256"},{"internalType":"uint256","name":"","type":"uint256"},{"internalType":"uint256","name":"","type":"uint256"}],"stateMutability":"view","type":"function"},{"inputs":[],"name":"getLastEthDeposit","outputs":[{"internalType":"uint256","name":"","type":"uint256"},{"internalType":"uint256","name":"","type":"uint256"},{"internalType":"uint256","name":"","type":"uint256"},{"internalType":"uint256","name":"","type":"uint256"}],"stateMutability":"view","type":"function"},{"inputs":[{"internalType":"address","name":"account","type":"address"}],"name":"getLastNftCount","outputs":[{"internalType":"uint256","name":"","type":"uint256"},{"internalType":"uint256[]","name":"","type":"uint256[]"},{"internalType":"uint256","name":"","type":"uint256"},{"internalType":"uint256","name":"","type":"uint256"}],"stateMutability":"view","type":"function"},{"inputs":[{"internalType":"address","name":"account","type":"address"}],"name":"getLastStakingCount","outputs":[{"internalType":"uint256","name":"","type":"uint256"},{"internalType":"uint256","name":"","type":"uint256"},{"internalType":"uint256","name":"","type":"uint256"}],"stateMutability":"view","type":"function"},{"inputs":[],"name":"getMalusPerc","outputs":[{"internalType":"uint256","name":"","type":"uint256"}],"stateMutability":"view","type":"function"},{"inputs":[],"name":"getMalusTaxPerc","outputs":[{"internalType":"uint8","name":"","type":"uint8"}],"stateMutability":"view","type":"function"},{"inputs":[{"internalType":"address","name":"account","type":"address"}],"name":"getNftCountHistory","outputs":[{"components":[{"internalType":"uint256","name":"amount","type":"uint256"},{"internalType":"uint256[]","name":"nftIds","type":"uint256[]"},{"internalType":"uint256","name":"timestamp","type":"uint256"},{"internalType":"uint256","name":"depositNum","type":"uint256"}],"internalType":"struct DivitrendRewards.NftStake[]","name":"","type":"tuple[]"}],"stateMutability":"view","type":"function"},{"inputs":[],"name":"getPaused","outputs":[{"internalType":"bool","name":"","type":"bool"}],"stateMutability":"view","type":"function"},{"inputs":[{"internalType":"address","name":"account","type":"address"}],"name":"getStakingCountHistory","outputs":[{"components":[{"internalType":"uint256","name":"amount","type":"uint256"},{"internalType":"uint256","name":"timestamp","type":"uint256"},{"internalType":"uint256","name":"depositNum","type":"uint256"}],"internalType":"struct DivitrendRewards.TrndStake[]","name":"","type":"tuple[]"}],"stateMutability":"view","type":"function"},{"inputs":[],"name":"getStakingLimit","outputs":[{"internalType":"uint256","name":"","type":"uint256"}],"stateMutability":"view","type":"function"},{"inputs":[{"internalType":"uint8","name":"option","type":"uint8"}],"name":"getStakingOptionData","outputs":[{"internalType":"uint32","name":"","type":"uint32"},{"internalType":"uint256","name":"","type":"uint256"},{"internalType":"uint8","name":"","type":"uint8"},{"internalType":"uint256","name":"","type":"uint256"}],"stateMutability":"view","type":"function"},{"inputs":[],"name":"getStakingOptions","outputs":[{"internalType":"uint8[]","name":"","type":"uint8[]"}],"stateMutability":"view","type":"function"},{"inputs":[],"name":"getTRNDAddress","outputs":[{"internalType":"address","name":"","type":"address"}],"stateMutability":"view","type":"function"},{"inputs":[],"name":"getThreshold","outputs":[{"internalType":"uint256","name":"","type":"uint256"}],"stateMutability":"view","type":"function"},{"inputs":[],"name":"getTotStakAboveThres","outputs":[{"internalType":"uint256","name":"","type":"uint256"}],"stateMutability":"view","type":"function"},{"inputs":[],"name":"getTotStakingAmount","outputs":[{"internalType":"uint256","name":"","type":"uint256"}],"stateMutability":"view","type":"function"},{"inputs":[],"name":"getTotalRewardedETH","outputs":[{"internalType":"uint256","name":"","type":"uint256"}],"stateMutability":"view","type":"function"},{"inputs":[],"name":"getTrndNftAddress","outputs":[{"internalType":"address","name":"","type":"address"}],"stateMutability":"view","type":"function"},{"inputs":[{"internalType":"address","name":"account","type":"address"}],"name":"getUserEthClaimData","outputs":[{"internalType":"uint256","name":"","type":"uint256"},{"internalType":"uint256","name":"","type":"uint256"},{"internalType":"uint256","name":"","type":"uint256"}],"stateMutability":"view","type":"function"},{"inputs":[{"internalType":"address","name":"account","type":"address"},{"internalType":"uint8","name":"_stakingOption","type":"uint8"}],"name":"getUserNftStakingData","outputs":[{"internalType":"uint256","name":"","type":"uint256"},{"internalType":"uint256[]","name":"","type":"uint256[]"},{"internalType":"uint256","name":"","type":"uint256"},{"internalType":"uint256","name":"","type":"uint256"}],"stateMutability":"view","type":"function"},{"inputs":[{"internalType":"address","name":"account","type":"address"},{"internalType":"uint8","name":"_stakingOption","type":"uint8"}],"name":"getUserStakingClaimData","outputs":[{"internalType":"uint256","name":"","type":"uint256"},{"internalType":"uint256","name":"","type":"uint256"},{"internalType":"uint256","name":"","type":"uint256"},{"internalType":"uint256","name":"","type":"uint256"}],"stateMutability":"view","type":"function"},{"inputs":[{"internalType":"address","name":"account","type":"address"},{"internalType":"uint8","name":"_stakingOption","type":"uint8"}],"name":"getUserStakingData","outputs":[{"internalType":"uint256","name":"","type":"uint256"},{"internalType":"uint256","name":"","type":"uint256"},{"internalType":"uint256","name":"","type":"uint256"}],"stateMutability":"view","type":"function"},{"inputs":[{"internalType":"address","name":"tokenAddress","type":"address"},{"internalType":"address","name":"nftAddress","type":"address"}],"name":"initialize","outputs":[],"stateMutability":"nonpayable","type":"function"},{"inputs":[{"internalType":"address","name":"","type":"address"},{"internalType":"address","name":"","type":"address"},{"internalType":"uint256","name":"","type":"uint256"},{"internalType":"bytes","name":"","type":"bytes"}],"name":"onERC721Received","outputs":[{"internalType":"bytes4","name":"","type":"bytes4"}],"stateMutability":"pure","type":"function"},{"inputs":[],"name":"owner","outputs":[{"internalType":"address","name":"","type":"address"}],"stateMutability":"view","type":"function"},{"inputs":[],"name":"pause","outputs":[],"stateMutability":"nonpayable","type":"function"},{"inputs":[],"name":"paused","outputs":[{"internalType":"bool","name":"","type":"bool"}],"stateMutability":"view","type":"function"},{"inputs":[{"internalType":"address","name":"account","type":"address"}],"name":"pendingEthRew","outputs":[{"internalType":"uint256","name":"","type":"uint256"}],"stateMutability":"view","type":"function"},{"inputs":[{"internalType":"address","name":"account","type":"address"}],"name":"pendingNftEthRew","outputs":[{"internalType":"uint256","name":"","type":"uint256"}],"stateMutability":"view","type":"function"},{"inputs":[{"internalType":"address","name":"account","type":"address"},{"internalType":"uint8","name":"_stakingOption","type":"uint8"}],"name":"pendingStakingRew","outputs":[{"internalType":"uint256","name":"","type":"uint256"}],"stateMutability":"view","type":"function"},{"inputs":[],"name":"proxiableUUID","outputs":[{"internalType":"bytes32","name":"","type":"bytes32"}],"stateMutability":"view","type":"function"},{"inputs":[],"name":"renounceOwnership","outputs":[],"stateMutability":"nonpayable","type":"function"},{"inputs":[{"internalType":"uint24","name":"perc","type":"uint24"}],"name":"setMalusPerc","outputs":[],"stateMutability":"nonpayable","type":"function"},{"inputs":[{"internalType":"uint8","name":"perc","type":"uint8"}],"name":"setMalusTaxPerc","outputs":[],"stateMutability":"nonpayable","type":"function"},{"inputs":[{"internalType":"uint256","name":"amount","type":"uint256"}],"name":"setStakingLimit","outputs":[],"stateMutability":"nonpayable","type":"function"},{"inputs":[{"internalType":"uint8","name":"option","type":"uint8"},{"internalType":"uint32","name":"vestingTime","type":"uint32"},{"internalType":"uint256","name":"apy","type":"uint256"},{"internalType":"uint8","name":"maxNftSlots","type":"uint8"}],"name":"setStakingOptionData","outputs":[],"stateMutability":"nonpayable","type":"function"},{"inputs":[{"internalType":"uint8[]","name":"options","type":"uint8[]"}],"name":"setStakingOptions","outputs":[],"stateMutability":"nonpayable","type":"function"},{"inputs":[{"internalType":"address","name":"tokenAddress","type":"address"}],"name":"setTRNDAddress","outputs":[],"stateMutability":"nonpayable","type":"function"},{"inputs":[{"internalType":"uint256","name":"amount","type":"uint256"}],"name":"setThreshold","outputs":[],"stateMutability":"nonpayable","type":"function"},{"inputs":[{"internalType":"address","name":"nftAddress","type":"address"}],"name":"setTrndNftAddress","outputs":[],"stateMutability":"nonpayable","type":"function"},{"inputs":[{"internalType":"uint256[]","name":"nftIds","type":"uint256[]"},{"internalType":"uint8","name":"_stakingOption","type":"uint8"}],"name":"stakeNfts","outputs":[],"stateMutability":"nonpayable","type":"function"},{"inputs":[{"internalType":"address","name":"newOwner","type":"address"}],"name":"transferOwnership","outputs":[],"stateMutability":"nonpayable","type":"function"},{"inputs":[],"name":"unpause","outputs":[],"stateMutability":"nonpayable","type":"function"},{"inputs":[{"internalType":"uint8","name":"_stakingOption","type":"uint8"},{"internalType":"uint256[]","name":"ids","type":"uint256[]"}],"name":"unstakeNfts","outputs":[],"stateMutability":"nonpayable","type":"function"},{"inputs":[{"internalType":"address","name":"newImplementation","type":"address"}],"name":"upgradeTo","outputs":[],"stateMutability":"nonpayable","type":"function"},{"inputs":[{"internalType":"address","name":"newImplementation","type":"address"},{"internalType":"bytes","name":"data","type":"bytes"}],"name":"upgradeToAndCall","outputs":[],"stateMutability":"payable","type":"function"},{"inputs":[{"internalType":"address","name":"nftAddress","type":"address"},{"internalType":"uint256","name":"tokenId","type":"uint256"}],"name":"withdrawERC721","outputs":[],"stateMutability":"nonpayable","type":"function"},{"inputs":[],"name":"withdrawETH","outputs":[],"stateMutability":"nonpayable","type":"function"},{"inputs":[{"internalType":"address","name":"tokenAddress","type":"address"}],"name":"withdrawTokens","outputs":[],"stateMutability":"nonpayable","type":"function"},{"stateMutability":"payable","type":"receive"}],"evm":{"bytecode":{"linkReferences":{},"object":"60a06040523073ffffffffffffffffffffffffffffffffffffffff1660809073ffffffffffffffffffffffffffffffffffffffff168152503480156200004457600080fd5b50620000556200005b60201b60201c565b62000205565b600060019054906101000a900460ff1615620000ae576040517f08c379a0000000000000000000000000000000000000000000000000000000008152600401620000a590620001a8565b60405180910390fd5b60ff801660008054906101000a900460ff1660ff16146200011f5760ff6000806101000a81548160ff021916908360ff1602179055507f7f26b83ff96e1f2b6a682f133852f6798a09c465da95921460cefb384740249860ff604051620001169190620001e8565b60405180910390a15b565b600082825260208201905092915050565b7f496e697469616c697a61626c653a20636f6e747261637420697320696e69746960008201527f616c697a696e6700000000000000000000000000000000000000000000000000602082015250565b60006200019060278362000121565b91506200019d8262000132565b604082019050919050565b60006020820190508181036000830152620001c38162000181565b9050919050565b600060ff82169050919050565b620001e281620001ca565b82525050565b6000602082019050620001ff6000830184620001d7565b92915050565b6080516198066200023d60003960008181611b0901528181611b9701528181612c9201528181612d200152612de801526198066000f3fe60806040526004361061038f5760003560e01c8063715018a6116101dc578063aaded46911610102578063e086e5ec116100a0578063f2fde38b1161006f578063f2fde38b14610d71578063f3e414f814610d9a578063f6326fb314610dc3578063fe33e67d14610dcd57610396565b8063e086e5ec14610cdb578063e75235b814610cf2578063ee9d4ab614610d1d578063efc661e414610d4657610396565b8063b7cdddcb116100dc578063b7cdddcb14610c1f578063c21c331614610c36578063c717239214610c73578063d652f46b14610cb057610396565b8063aaded46914610b90578063aaf2815f14610bb9578063ab9f15d414610bf657610396565b80638d0bda631161017a578063960bfe0411610149578063960bfe0414610abd5780639c47c3a614610ae65780639e8207fc14610b26578063a2c0453d14610b6557610396565b80638d0bda63146109ed5780638da5cb5b14610a165780639047996e14610a415780639325273d14610a8057610396565b80637e76b071116101b65780637e76b0711461092d5780638456cb591461096d578063855900ab146109845780638c7e3a35146109c457610396565b8063715018a6146108ad5780637575268d146108c45780637a8974f3146108ed57610396565b8063485cc955116102c15780635c975abb1161025f5780636cb455b71161022e5780636cb455b7146108035780636e98b6711461082c5780636f9fb98a14610857578063714dbd351461088257610396565b80635c975abb146107425780635d706b901461076d578063644e808a146107ad5780636805b84b146107d857610396565b80634f1ef2861161029b5780634f1ef286146106a757806351594748146106c357806352d1902d146106ec5780635420a1011461071757610396565b8063485cc9551461061857806349df728c146106415780634b032d741461066a57610396565b80633659cfe61161032e5780633f4ba83a116103085780633f4ba83a1461056e578063420874ef146105855780634279b9a8146105c4578063485ca920146105ed57610396565b80633659cfe6146104d95780633cf761d0146105025780633da57fa81461053057610396565b8063150b7a021161036a578063150b7a021461040b578063160a65411461044857806319261d3e146104735780632a707bd21461049c57610396565b8062a90bdd1461039b57806306d0d5b3146103c657806308efbc2a146103e257610396565b3661039657005b600080fd5b3480156103a757600080fd5b506103b0610df8565b6040516103bd91906179b1565b60405180910390f35b6103e060048036038101906103db9190617a42565b610e10565b005b3480156103ee57600080fd5b5061040960048036038101906104049190617a82565b6114be565b005b34801561041757600080fd5b50610432600480360381019061042d9190617b72565b6114e5565b60405161043f9190617c35565b60405180910390f35b34801561045457600080fd5b5061045d6114fa565b60405161046a9190617c5f565b60405180910390f35b34801561047f57600080fd5b5061049a60048036038101906104959190617c7a565b611516565b005b3480156104a857600080fd5b506104c360048036038101906104be9190617c7a565b6115c9565b6040516104d09190617c5f565b60405180910390f35b3480156104e557600080fd5b5061050060048036038101906104fb9190617c7a565b611b07565b005b34801561050e57600080fd5b50610517611c8f565b6040516105279493929190617ca7565b60405180910390f35b34801561053c57600080fd5b5061055760048036038101906105529190617cec565b611d0f565b604051610565929190617d19565b60405180910390f35b34801561057a57600080fd5b50610583611d4b565b005b34801561059157600080fd5b506105ac60048036038101906105a79190617d42565b611d5d565b6040516105bb93929190617d82565b60405180910390f35b3480156105d057600080fd5b506105eb60048036038101906105e69190617c7a565b611eb0565b005b3480156105f957600080fd5b50610602611f63565b60405161060f9190617c5f565b60405180910390f35b34801561062457600080fd5b5061063f600480360381019061063a9190617db9565b611f6e565b005b34801561064d57600080fd5b5061066860048036038101906106639190617c7a565b61247c565b005b34801561067657600080fd5b50610691600480360381019061068c9190617c7a565b612585565b60405161069e9190617c5f565b60405180910390f35b6106c160048036038101906106bc9190617f3a565b612c90565b005b3480156106cf57600080fd5b506106ea60048036038101906106e59190617fd1565b612dcc565b005b3480156106f857600080fd5b50610701612de4565b60405161070e9190618017565b60405180910390f35b34801561072357600080fd5b5061072c612e9d565b6040516107399190618041565b60405180910390f35b34801561074e57600080fd5b50610757612ec8565b6040516107649190618077565b60405180910390f35b34801561077957600080fd5b50610794600480360381019061078f9190617d42565b612edf565b6040516107a49493929190618150565b60405180910390f35b3480156107b957600080fd5b506107c2613096565b6040516107cf9190617c5f565b60405180910390f35b3480156107e457600080fd5b506107ed6130a1565b6040516107fa9190618077565b60405180910390f35b34801561080f57600080fd5b5061082a60048036038101906108259190617cec565b6130b0565b005b34801561083857600080fd5b506108416130c3565b60405161084e9190617c5f565b60405180910390f35b34801561086357600080fd5b5061086c6130ce565b6040516108799190617c5f565b60405180910390f35b34801561088e57600080fd5b506108976130d6565b6040516108a49190617c5f565b60405180910390f35b3480156108b957600080fd5b506108c261317a565b005b3480156108d057600080fd5b506108eb60048036038101906108e691906181d8565b61318e565b005b3480156108f957600080fd5b50610914600480360381019061090f9190617cec565b613287565b6040516109249493929190617ca7565b60405180910390f35b34801561093957600080fd5b50610954600480360381019061094f9190617c7a565b6132fc565b6040516109649493929190618150565b60405180910390f35b34801561097957600080fd5b5061098261352c565b005b34801561099057600080fd5b506109ab60048036038101906109a69190617d42565b61353e565b6040516109bb9493929190617ca7565b60405180910390f35b3480156109d057600080fd5b506109eb60048036038101906109e69190618302565b6136a6565b005b3480156109f957600080fd5b50610a146004803603810190610a0f919061835e565b613f35565b005b348015610a2257600080fd5b50610a2b6148fb565b604051610a389190618041565b60405180910390f35b348015610a4d57600080fd5b50610a686004803603810190610a639190617c7a565b614925565b604051610a7793929190617d82565b60405180910390f35b348015610a8c57600080fd5b50610aa76004803603810190610aa29190617d42565b614a19565b604051610ab49190617c5f565b60405180910390f35b348015610ac957600080fd5b50610ae46004803603810190610adf9190617cec565b614ea3565b005b348015610af257600080fd5b50610b0d6004803603810190610b089190617a82565b614eb6565b604051610b1d94939291906183c9565b60405180910390f35b348015610b3257600080fd5b50610b4d6004803603810190610b489190617c7a565b614fa8565b604051610b5c93929190617d82565b60405180910390f35b348015610b7157600080fd5b50610b7a61512b565b604051610b879190617c5f565b60405180910390f35b348015610b9c57600080fd5b50610bb76004803603810190610bb29190617a82565b615136565b005b348015610bc557600080fd5b50610be06004803603810190610bdb9190617d42565b6157f9565b604051610bed919061841d565b60405180910390f35b348015610c0257600080fd5b50610c1d6004803603810190610c189190618438565b615aaf565b005b348015610c2b57600080fd5b50610c346161d4565b005b348015610c4257600080fd5b50610c5d6004803603810190610c589190617c7a565b61643e565b604051610c6a9190618569565b60405180910390f35b348015610c7f57600080fd5b50610c9a6004803603810190610c959190617c7a565b616561565b604051610ca7919061871f565b60405180910390f35b348015610cbc57600080fd5b50610cc56166dc565b604051610cd29190617c5f565b60405180910390f35b348015610ce757600080fd5b50610cf06166e7565b005b348015610cfe57600080fd5b50610d07616795565b604051610d149190617c5f565b60405180910390f35b348015610d2957600080fd5b50610d446004803603810190610d3f9190618804565b6167a0565b005b348015610d5257600080fd5b50610d5b6167c3565b604051610d68919061890b565b60405180910390f35b348015610d7d57600080fd5b50610d986004803603810190610d939190617c7a565b616842565b005b348015610da657600080fd5b50610dc16004803603810190610dbc919061892d565b6168c5565b005b610dcb616940565b005b348015610dd957600080fd5b50610de2616cbc565b604051610def9190618041565b60405180910390f35b600061013660009054906101000a900460ff16905090565b610e18616ce7565b610e20616d31565b6000610137805490509050600061013960003373ffffffffffffffffffffffffffffffffffffffff1673ffffffffffffffffffffffffffffffffffffffff168152602001908152602001600020805490509050600084905060008503610eb2576040517f964e9c0000000000000000000000000000000000000000000000000000000000815260040160405180910390fd5b8461012d60009054906101000a900473ffffffffffffffffffffffffffffffffffffffff1673ffffffffffffffffffffffffffffffffffffffff166370a08231336040518263ffffffff1660e01b8152600401610f0f9190618041565b602060405180830381865afa158015610f2c573d6000803e3d6000fd5b505050506040513d601f19601f82011682018060405250810190610f509190618982565b1015610f88576040517f4bb2437200000000000000000000000000000000000000000000000000000000815260040160405180910390fd5b828460ff1610610fc4576040517f054cf5a200000000000000000000000000000000000000000000000000000000815260040160405180910390fd5b8461012d60009054906101000a900473ffffffffffffffffffffffffffffffffffffffff1673ffffffffffffffffffffffffffffffffffffffff1663dd62ed3e33306040518363ffffffff1660e01b81526004016110239291906189af565b602060405180830381865afa158015611040573d6000803e3d6000fd5b505050506040513d601f19601f820116820180604052508101906110649190618982565b101561109c576040517f8990d1b600000000000000000000000000000000000000000000000000000000815260040160405180910390fd5b6110a461771a565b60008311156111575761013960003373ffffffffffffffffffffffffffffffffffffffff1673ffffffffffffffffffffffffffffffffffffffff1681526020019081526020016000206001846110fa9190618a07565b8154811061110b5761110a618a3b565b5b9060005260206000209060030201604051806060016040529081600082015481526020016001820154815260200160028201548152505090508060000151826111549190618a6a565b91505b610132548211156111a257610132546040517fdbc26e0b0000000000000000000000000000000000000000000000000000000081526004016111999190617c5f565b60405180910390fd5b61012d60009054906101000a900473ffffffffffffffffffffffffffffffffffffffff1673ffffffffffffffffffffffffffffffffffffffff166323b872dd3330896040518463ffffffff1660e01b815260040161120293929190618a9e565b6020604051808303816000875af1158015611221573d6000803e3d6000fd5b505050506040513d601f19601f820116820180604052508101906112459190618b01565b508561013360008282546112599190618a6a565b925050819055506101315481600001511061128d578561013460008282546112819190618a6a565b925050819055506112b3565b6101315482106112b2578161013460008282546112aa9190618a6a565b925050819055505b5b61013960003373ffffffffffffffffffffffffffffffffffffffff1673ffffffffffffffffffffffffffffffffffffffff168152602001908152602001600020604051806060016040528084815260200142815260200161012f5481525090806001815401808255809150506001900390600052602060002090600302016000909190919091506000820151816000015560208201518160010155604082015181600201555050600061013a60003373ffffffffffffffffffffffffffffffffffffffff1673ffffffffffffffffffffffffffffffffffffffff16815260200190815260200160002060008760ff1660ff16815260200190815260200160002060000154905086816113c59190618a6a565b9050604051806060016040528082815260200142815260200161012f5481525061013a60003373ffffffffffffffffffffffffffffffffffffffff1673ffffffffffffffffffffffffffffffffffffffff16815260200190815260200160002060008860ff1660ff1681526020019081526020016000206000820151816000015560208201518160010155604082015181600201559050503373ffffffffffffffffffffffffffffffffffffffff167f759a0c1e59f1589954ef052b32707e4b68e04b2ea79c051fe89305d0debfba0a88886040516114a5929190618b2e565b60405180910390a250505050506114ba616d80565b5050565b6114c6616d8a565b8061013660006101000a81548160ff021916908360ff16021790555050565b600063150b7a0260e01b905095945050505050565b60006103e861ffff16610135546115119190618b86565b905090565b61151e616d8a565b600073ffffffffffffffffffffffffffffffffffffffff168173ffffffffffffffffffffffffffffffffffffffff1603611584576040517fca834e4600000000000000000000000000000000000000000000000000000000815260040160405180910390fd5b8061012d60006101000a81548173ffffffffffffffffffffffffffffffffffffffff021916908373ffffffffffffffffffffffffffffffffffffffff16021790555050565b60008073ffffffffffffffffffffffffffffffffffffffff168273ffffffffffffffffffffffffffffffffffffffff1603611630576040517fca834e4600000000000000000000000000000000000000000000000000000000815260040160405180910390fd5b600061013960008473ffffffffffffffffffffffffffffffffffffffff1673ffffffffffffffffffffffffffffffffffffffff1681526020019081526020016000208054905090506000810361168a576000915050611b02565b600061012f540361169f576000915050611b02565b600061013d60008573ffffffffffffffffffffffffffffffffffffffff1673ffffffffffffffffffffffffffffffffffffffff1681526020019081526020016000206040518060600160405290816000820154815260200160018201548152602001600282015481525050905061171461773b565b61171c61771a565b61172461771a565b600080600080600090506000808960200151036117d35761013960008d73ffffffffffffffffffffffffffffffffffffffff1673ffffffffffffffffffffffffffffffffffffffff16815260200190815260200160002060008154811061178e5761178d618a3b565b5b906000526020600020906003020160405180606001604052908160008201548152602001600182015481526020016002820154815250509650866040015194506117db565b886040015194505b61012f5485036117f85760009a5050505050505050505050611b02565b60008590505b61012f54811015611af3576000915061013c600060018361181f9190618a6a565b81526020019081526020016000206040518060800160405290816000820154815260200160018201548152602001600282015481526020016003820154815250509850600289600001516118739190618b86565b945060005b8b8110156119d55761013960008f73ffffffffffffffffffffffffffffffffffffffff1673ffffffffffffffffffffffffffffffffffffffff16815260200190815260200160002081815481106118d2576118d1618a3b565b5b9060005260206000209060030201604051806060016040529081600082015481526020016001820154815260200160028201548152505097506001826119189190618a6a565b8860400151036119c25761013960008f73ffffffffffffffffffffffffffffffffffffffff1673ffffffffffffffffffffffffffffffffffffffff16815260200190815260200160002060018261196f9190618a07565b815481106119805761197f618a3b565b5b906000526020600020906003020160405180606001604052908160008201548152602001600182015481526020016002820154815250509850600192506119d5565b80806119cd90618bb7565b915050611878565b5081611a735761013960008e73ffffffffffffffffffffffffffffffffffffffff1673ffffffffffffffffffffffffffffffffffffffff16815260200190815260200160002060018c611a289190618a07565b81548110611a3957611a38618a3b565b5b9060005260206000209060030201604051806060016040529081600082015481526020016001820154815260200160028201548152505097505b61013154886000015110158015611a8f57506000896040015114155b15611ae0578860400151620f42408960000151611aac9190618bff565b611ab69190618b86565b9350620f42408486611ac89190618bff565b611ad29190618b86565b83611add9190618a6a565b92505b8080611aeb90618bb7565b9150506117fe565b50819a50505050505050505050505b919050565b7f000000000000000000000000000000000000000000000000000000000000000073ffffffffffffffffffffffffffffffffffffffff163073ffffffffffffffffffffffffffffffffffffffff1603611b95576040517f08c379a0000000000000000000000000000000000000000000000000000000008152600401611b8c90618cc4565b60405180910390fd5b7f000000000000000000000000000000000000000000000000000000000000000073ffffffffffffffffffffffffffffffffffffffff16611bd4616e08565b73ffffffffffffffffffffffffffffffffffffffff1614611c2a576040517f08c379a0000000000000000000000000000000000000000000000000000000008152600401611c2190618d56565b60405180910390fd5b611c3381616e5f565b611c8c81600067ffffffffffffffff811115611c5257611c51617e0f565b5b6040519080825280601f01601f191660200182016040528015611c845781602001600182028036833780820191505090505b506000616e6a565b50565b60008060008061013c600061012f5481526020019081526020016000206000015461013c600061012f5481526020019081526020016000206001015461013c600061012f5481526020019081526020016000206002015461013c600061012f54815260200190815260200160002060030154935093509350935090919293565b60008061013c60008481526020019081526020016000206000015461013c60008581526020019081526020016000206001015491509150915091565b611d53616d8a565b611d5b616fd8565b565b60008060008073ffffffffffffffffffffffffffffffffffffffff168573ffffffffffffffffffffffffffffffffffffffff1603611dc7576040517fca834e4600000000000000000000000000000000000000000000000000000000815260040160405180910390fd5b6000610137805490509050808560ff1610611e0e576040517f054cf5a200000000000000000000000000000000000000000000000000000000815260040160405180910390fd5b600061013a60008873ffffffffffffffffffffffffffffffffffffffff1673ffffffffffffffffffffffffffffffffffffffff16815260200190815260200160002060008760ff1660ff1681526020019081526020016000206040518060600160405290816000820154815260200160018201548152602001600282015481525050905080600001518160200151826040015194509450945050509250925092565b611eb8616d8a565b600073ffffffffffffffffffffffffffffffffffffffff168173ffffffffffffffffffffffffffffffffffffffff1603611f1e576040517fca834e4600000000000000000000000000000000000000000000000000000000815260040160405180910390fd5b8061012e60006101000a81548173ffffffffffffffffffffffffffffffffffffffff021916908373ffffffffffffffffffffffffffffffffffffffff16021790555050565b600061013454905090565b60008060019054906101000a900460ff16159050808015611f9f5750600160008054906101000a900460ff1660ff16105b80611fcc5750611fae3061703b565b158015611fcb5750600160008054906101000a900460ff1660ff16145b5b61200b576040517f08c379a000000000000000000000000000000000000000000000000000000000815260040161200290618de8565b60405180910390fd5b60016000806101000a81548160ff021916908360ff1602179055508015612048576001600060016101000a81548160ff0219169083151502179055505b61205061705e565b6120586170b7565b612060617110565b612068617169565b8261012d60006101000a81548173ffffffffffffffffffffffffffffffffffffffff021916908373ffffffffffffffffffffffffffffffffffffffff1602179055508161012e60006101000a81548173ffffffffffffffffffffffffffffffffffffffff021916908373ffffffffffffffffffffffffffffffffffffffff160217905550683635c9adc5dea000006101318190555069054b40b1f852bda0000061013281905550600061012f819055506161a861013581905550603261013660006101000a81548160ff021916908360ff1602179055506040518060800160405280600060ff168152602001600160ff168152602001600260ff168152602001600360ff16815250610137906004612181929190617763565b5060405180608001604052806278614d63ffffffff16815260200160c88152602001600160ff1681526020014281525061013860008060ff16815260200190815260200160002060008201518160000160006101000a81548163ffffffff021916908363ffffffff1602179055506020820151816001015560408201518160020160006101000a81548160ff021916908360ff16021790555060608201518160030155905050604051806080016040528062f0c29a63ffffffff1681526020016101908152602001600260ff168152602001428152506101386000600160ff16815260200190815260200160002060008201518160000160006101000a81548163ffffffff021916908363ffffffff1602179055506020820151816001015560408201518160020160006101000a81548160ff021916908360ff1602179055506060820151816003015590505060405180608001604052806301e1853e63ffffffff1681526020016103208152602001600560ff168152602001428152506101386000600260ff16815260200190815260200160002060008201518160000160006101000a81548163ffffffff021916908363ffffffff1602179055506020820151816001015560408201518160020160006101000a81548160ff021916908360ff1602179055506060820151816003015590505060405180608001604052806303c30a7c63ffffffff1681526020016107d08152602001600a60ff168152602001428152506101386000600360ff16815260200190815260200160002060008201518160000160006101000a81548163ffffffff021916908363ffffffff1602179055506020820151816001015560408201518160020160006101000a81548160ff021916908360ff1602179055506060820151816003015590505080156124775760008060016101000a81548160ff0219169083151502179055507f7f26b83ff96e1f2b6a682f133852f6798a09c465da95921460cefb3847402498600160405161246e9190618e4d565b60405180910390a15b505050565b612484616d8a565b60008173ffffffffffffffffffffffffffffffffffffffff166370a08231306040518263ffffffff1660e01b81526004016124bf9190618041565b602060405180830381865afa1580156124dc573d6000803e3d6000fd5b505050506040513d601f19601f820116820180604052508101906125009190618982565b90508173ffffffffffffffffffffffffffffffffffffffff1663a9059cbb33836040518363ffffffff1660e01b815260040161253d929190618e68565b6020604051808303816000875af115801561255c573d6000803e3d6000fd5b505050506040513d601f19601f820116820180604052508101906125809190618b01565b505050565b60008073ffffffffffffffffffffffffffffffffffffffff168273ffffffffffffffffffffffffffffffffffffffff16036125ec576040517fca834e4600000000000000000000000000000000000000000000000000000000815260040160405180910390fd5b600061013e60008473ffffffffffffffffffffffffffffffffffffffff1673ffffffffffffffffffffffffffffffffffffffff16815260200190815260200160002080549050905060008103612646576000915050612c8b565b600061012f540361265b576000915050612c8b565b600061013d60008573ffffffffffffffffffffffffffffffffffffffff1673ffffffffffffffffffffffffffffffffffffffff168152602001908152602001600020604051806060016040529081600082015481526020016001820154815260200160028201548152505090506126d061773b565b6126d861780a565b6126e061780a565b600080600080600090506000808960200151036127e75761013e60008d73ffffffffffffffffffffffffffffffffffffffff1673ffffffffffffffffffffffffffffffffffffffff16815260200190815260200160002060008154811061274a57612749618a3b565b5b906000526020600020906004020160405180608001604052908160008201548152602001600182018054806020026020016040519081016040528092919081815260200182805480156127bc57602002820191906000526020600020905b8154815260200190600101908083116127a8575b50505050508152602001600282015481526020016003820154815250509650866060015194506127ef565b886040015194505b61012f54850361280c5760009a5050505050505050505050612c8b565b60008590505b61012f54811015612c7c576000915061013c60006001836128339190618a6a565b81526020019081526020016000206040518060800160405290816000820154815260200160018201548152602001600282015481526020016003820154815250509850600289600001516128879190618b86565b945060005b8b811015612a995761013e60008f73ffffffffffffffffffffffffffffffffffffffff1673ffffffffffffffffffffffffffffffffffffffff16815260200190815260200160002081815481106128e6576128e5618a3b565b5b9060005260206000209060040201604051806080016040529081600082015481526020016001820180548060200260200160405190810160405280929190818152602001828054801561295857602002820191906000526020600020905b815481526020019060010190808311612944575b505050505081526020016002820154815260200160038201548152505097506001826129849190618a6a565b886060015103612a865761013e60008f73ffffffffffffffffffffffffffffffffffffffff1673ffffffffffffffffffffffffffffffffffffffff1681526020019081526020016000206001826129db9190618a07565b815481106129ec576129eb618a3b565b5b90600052602060002090600402016040518060800160405290816000820154815260200160018201805480602002602001604051908101604052809291908181526020018280548015612a5e57602002820191906000526020600020905b815481526020019060010190808311612a4a575b5050505050815260200160028201548152602001600382015481525050985060019250612a99565b8080612a9190618bb7565b91505061288c565b5081612b8f5761013e60008e73ffffffffffffffffffffffffffffffffffffffff1673ffffffffffffffffffffffffffffffffffffffff16815260200190815260200160002060018c612aec9190618a07565b81548110612afd57612afc618a3b565b5b90600052602060002090600402016040518060800160405290816000820154815260200160018201805480602002602001604051908101604052809291908181526020018280548015612b6f57602002820191906000526020600020905b815481526020019060010190808311612b5b575b505050505081526020016002820154815260200160038201548152505097505b600088600001511115612c695761012e60009054906101000a900473ffffffffffffffffffffffffffffffffffffffff1673ffffffffffffffffffffffffffffffffffffffff1663f4b4994689602001516040518263ffffffff1660e01b8152600401612bfc9190618e91565b6040805180830381865afa158015612c18573d6000803e3d6000fd5b505050506040513d601f19601f82011682018060405250810190612c3c9190618eb3565b9050809450506127108486612c519190618bff565b612c5b9190618b86565b83612c669190618a6a565b92505b8080612c7490618bb7565b915050612812565b50819a50505050505050505050505b919050565b7f000000000000000000000000000000000000000000000000000000000000000073ffffffffffffffffffffffffffffffffffffffff163073ffffffffffffffffffffffffffffffffffffffff1603612d1e576040517f08c379a0000000000000000000000000000000000000000000000000000000008152600401612d1590618cc4565b60405180910390fd5b7f000000000000000000000000000000000000000000000000000000000000000073ffffffffffffffffffffffffffffffffffffffff16612d5d616e08565b73ffffffffffffffffffffffffffffffffffffffff1614612db3576040517f08c379a0000000000000000000000000000000000000000000000000000000008152600401612daa90618d56565b60405180910390fd5b612dbc82616e5f565b612dc882826001616e6a565b5050565b612dd4616d8a565b8062ffffff166101358190555050565b60007f000000000000000000000000000000000000000000000000000000000000000073ffffffffffffffffffffffffffffffffffffffff163073ffffffffffffffffffffffffffffffffffffffff1614612e74576040517f08c379a0000000000000000000000000000000000000000000000000000000008152600401612e6b90618f65565b60405180910390fd5b7f360894a13ba1a3210667c828492db98dca3e2076cc3735a920a3ca505d382bbc60001b905090565b600061012d60009054906101000a900473ffffffffffffffffffffffffffffffffffffffff16905090565b600060c960009054906101000a900460ff16905090565b60006060600080600073ffffffffffffffffffffffffffffffffffffffff168673ffffffffffffffffffffffffffffffffffffffff1603612f4c576040517fca834e4600000000000000000000000000000000000000000000000000000000815260040160405180910390fd5b6000610137805490509050808660ff1610612f93576040517f054cf5a200000000000000000000000000000000000000000000000000000000815260040160405180910390fd5b600061013f60008973ffffffffffffffffffffffffffffffffffffffff1673ffffffffffffffffffffffffffffffffffffffff16815260200190815260200160002060008860ff1660ff168152602001908152602001600020604051806080016040529081600082015481526020016001820180548060200260200160405190810160405280929190818152602001828054801561305057602002820191906000526020600020905b81548152602001906001019080831161303c575b5050505050815260200160028201548152602001600382015481525050905080600001518160200151826040015183606001519550955095509550505092959194509250565b600061013054905090565b60006130ab612ec8565b905090565b6130b8616d8a565b806101328190555050565b600061013354905090565b600047905090565b600061012e60009054906101000a900473ffffffffffffffffffffffffffffffffffffffff1673ffffffffffffffffffffffffffffffffffffffff166370a08231306040518263ffffffff1660e01b81526004016131349190618041565b602060405180830381865afa158015613151573d6000803e3d6000fd5b505050506040513d601f19601f820116820180604052508101906131759190618982565b905090565b613182616d8a565b61318c60006171ba565b565b613196616d8a565b6000610137805490509050808560ff16106131dd576040517f054cf5a200000000000000000000000000000000000000000000000000000000815260040160405180910390fd5b60405180608001604052808563ffffffff1681526020018481526020018360ff1681526020014281525061013860008760ff1660ff16815260200190815260200160002060008201518160000160006101000a81548163ffffffff021916908363ffffffff1602179055506020820151816001015560408201518160020160006101000a81548160ff021916908360ff160217905550606082015181600301559050505050505050565b60008060008061013c60008681526020019081526020016000206000015461013c60008781526020019081526020016000206001015461013c60008881526020019081526020016000206002015461013c60008981526020019081526020016000206003015493509350935093509193509193565b60006060600080600073ffffffffffffffffffffffffffffffffffffffff168573ffffffffffffffffffffffffffffffffffffffff1603613369576040517fca834e4600000000000000000000000000000000000000000000000000000000815260040160405180910390fd5b600061013e60008773ffffffffffffffffffffffffffffffffffffffff1673ffffffffffffffffffffffffffffffffffffffff168152602001908152602001600020805490509050600081036134155760008067ffffffffffffffff8111156133d5576133d4617e0f565b5b6040519080825280602002602001820160405280156134035781602001602082028036833780820191505090505b50600080945094509450945050613525565b600061013e60008873ffffffffffffffffffffffffffffffffffffffff1673ffffffffffffffffffffffffffffffffffffffff1681526020019081526020016000206001836134649190618a07565b8154811061347557613474618a3b565b5b906000526020600020906004020160405180608001604052908160008201548152602001600182018054806020026020016040519081016040528092919081815260200182805480156134e757602002820191906000526020600020905b8154815260200190600101908083116134d3575b505050505081526020016002820154815260200160038201548152505090508060000151816020015182604001518360600151955095509550955050505b9193509193565b613534616d8a565b61353c617280565b565b600080600080600073ffffffffffffffffffffffffffffffffffffffff168673ffffffffffffffffffffffffffffffffffffffff16036135aa576040517fca834e4600000000000000000000000000000000000000000000000000000000815260040160405180910390fd5b6000610137805490509050808660ff16106135f1576040517f054cf5a200000000000000000000000000000000000000000000000000000000815260040160405180910390fd5b600061013b60008973ffffffffffffffffffffffffffffffffffffffff1673ffffffffffffffffffffffffffffffffffffffff16815260200190815260200160002060008860ff1660ff168152602001908152602001600020604051806080016040529081600082015481526020016001820154815260200160028201548152602001600382015481525050905080600001518160200151826040015183606001519550955095509550505092959194509250565b6136ae616ce7565b6136b6616d31565b60006101378054905090506060806000838660ff1610613702576040517f054cf5a200000000000000000000000000000000000000000000000000000000815260040160405180910390fd5b600085510361373d576040517f964e9c0000000000000000000000000000000000000000000000000000000000815260040160405180910390fd5b600061013f60003373ffffffffffffffffffffffffffffffffffffffff1673ffffffffffffffffffffffffffffffffffffffff16815260200190815260200160002060008860ff1660ff16815260200190815260200160002060405180608001604052908160008201548152602001600182018054806020026020016040519081016040528092919081815260200182805480156137fa57602002820191906000526020600020905b8154815260200190600101908083116137e6575b505050505081526020016002820154815260200160038201548152505090506000816000015103613857576040517f4bb2437200000000000000000000000000000000000000000000000000000000815260040160405180910390fd5b8060200151935060005b8651811015613a3f576000925060005b85518110156139cf5785818151811061388d5761388c618a3b565b5b60200260200101518883815181106138a8576138a7618a3b565b5b6020026020010151036139bc5760019350858260016138c79190618a6a565b87516138d39190618a07565b815181106138e4576138e3618a3b565b5b60200260200101518682815181106138ff576138fe618a3b565b5b60200260200101818152505061012e60009054906101000a900473ffffffffffffffffffffffffffffffffffffffff1673ffffffffffffffffffffffffffffffffffffffff166342842e0e30338b868151811061395f5761395e618a3b565b5b60200260200101516040518463ffffffff1660e01b815260040161398593929190618a9e565b600060405180830381600087803b15801561399f57600080fd5b505af11580156139b3573d6000803e3d6000fd5b505050506139cf565b80806139c790618bb7565b915050613871565b5082613a2c578681815181106139e8576139e7618a3b565b5b60200260200101516040517fcf892bc3000000000000000000000000000000000000000000000000000000008152600401613a239190617c5f565b60405180910390fd5b8080613a3790618bb7565b915050613861565b5085518451613a4e9190618a07565b67ffffffffffffffff811115613a6757613a66617e0f565b5b604051908082528060200260200182016040528015613a955781602001602082028036833780820191505090505b5092506000835114613afc5760005b8351811015613afa57848181518110613ac057613abf618a3b565b5b6020026020010151848281518110613adb57613ada618a3b565b5b6020026020010181815250508080613af290618bb7565b915050613aa4565b505b600061013e60003373ffffffffffffffffffffffffffffffffffffffff1673ffffffffffffffffffffffffffffffffffffffff168152602001908152602001600020805490509050600061013e60003373ffffffffffffffffffffffffffffffffffffffff1673ffffffffffffffffffffffffffffffffffffffff168152602001908152602001600020600183613b939190618a07565b81548110613ba457613ba3618a3b565b5b9060005260206000209060040201600101805480602002602001604051908101604052809291908181526020018280548015613bff57602002820191906000526020600020905b815481526020019060010190808311613beb575b50505050509050600088518251613c169190618a07565b67ffffffffffffffff811115613c2f57613c2e617e0f565b5b604051908082528060200260200182016040528015613c5d5781602001602082028036833780820191505090505b5090506000815114613d42576000805b8351811015613d3f576000965060005b8b51811015613cdd578b8181518110613c9957613c98618a3b565b5b6020026020010151858381518110613cb457613cb3618a3b565b5b602002602001015103613cca5760019750613cdd565b8080613cd590618bb7565b915050613c7d565b5086613d2c57838181518110613cf657613cf5618a3b565b5b6020026020010151838381518110613d1157613d10618a3b565b5b6020026020010181815250508180613d2890618bb7565b9250505b8080613d3790618bb7565b915050613c6d565b50505b61013e60003373ffffffffffffffffffffffffffffffffffffffff1673ffffffffffffffffffffffffffffffffffffffff16815260200190815260200160002060405180608001604052808351815260200183815260200142815260200161012f548152509080600181540180825580915050600190039060005260206000209060040201600090919091909150600082015181600001556020820151816001019080519060200190613df6929190617832565b506040820151816002015560608201518160030155505085518460000181815250508584602001819052504284604001818152505061012f548460600181815250508361013f60003373ffffffffffffffffffffffffffffffffffffffff1673ffffffffffffffffffffffffffffffffffffffff16815260200190815260200160002060008c60ff1660ff168152602001908152602001600020600082015181600001556020820151816001019080519060200190613eb6929190617832565b5060408201518160020155606082015181600301559050503373ffffffffffffffffffffffffffffffffffffffff167fd370a0093663f261a7153f84a0e811095a59a6185f4ca94b10fd4e15999e533f8a518b8d604051613f1993929190618f85565b60405180910390a25050505050505050613f31616d80565b5050565b613f3d616ce7565b613f45616d31565b6000610137805490509050600061013e60003373ffffffffffffffffffffffffffffffffffffffff1673ffffffffffffffffffffffffffffffffffffffff168152602001908152602001600020805490509050818360ff1610613fd4576040517f054cf5a200000000000000000000000000000000000000000000000000000000815260040160405180910390fd5b600061013860008560ff1660ff1681526020019081526020016000206040518060800160405290816000820160009054906101000a900463ffffffff1663ffffffff1663ffffffff168152602001600182015481526020016002820160009054906101000a900460ff1660ff1660ff1681526020016003820154815250509050600061013f60003373ffffffffffffffffffffffffffffffffffffffff1673ffffffffffffffffffffffffffffffffffffffff16815260200190815260200160002060008660ff1660ff168152602001908152602001600020905085518160000154836040015160ff166140c89190618a07565b101561410f5781604001516040517fdbc26e0b0000000000000000000000000000000000000000000000000000000081526004016141069190618ff4565b60405180910390fd5b60005b865181101561426e573373ffffffffffffffffffffffffffffffffffffffff1661012e60009054906101000a900473ffffffffffffffffffffffffffffffffffffffff1673ffffffffffffffffffffffffffffffffffffffff16636352211e89848151811061418457614183618a3b565b5b60200260200101516040518263ffffffff1660e01b81526004016141a89190617c5f565b602060405180830381865afa1580156141c5573d6000803e3d6000fd5b505050506040513d601f19601f820116820180604052508101906141e99190619024565b73ffffffffffffffffffffffffffffffffffffffff161461425b5786818151811061421757614216618a3b565b5b60200260200101516040517fcf892bc30000000000000000000000000000000000000000000000000000000081526004016142529190617c5f565b60405180910390fd5b808061426690618bb7565b915050614112565b5061012e60009054906101000a900473ffffffffffffffffffffffffffffffffffffffff1673ffffffffffffffffffffffffffffffffffffffff1663e985e9c533306040518363ffffffff1660e01b81526004016142cd9291906189af565b602060405180830381865afa1580156142ea573d6000803e3d6000fd5b505050506040513d601f19601f8201168201806040525081019061430e9190618b01565b614344576040517f8990d1b600000000000000000000000000000000000000000000000000000000815260040160405180910390fd5b60005b86518110156144545761012e60009054906101000a900473ffffffffffffffffffffffffffffffffffffffff1673ffffffffffffffffffffffffffffffffffffffff166342842e0e33308a85815181106143a4576143a3618a3b565b5b60200260200101516040518463ffffffff1660e01b81526004016143ca93929190618a9e565b600060405180830381600087803b1580156143e457600080fd5b505af11580156143f8573d6000803e3d6000fd5b505050508160010187828151811061441357614412618a3b565b5b60200260200101519080600181540180825580915050600190039060005260206000200160009091909190915055808061444c90618bb7565b915050614347565b50855181600001600082825461446a9190618a6a565b9250508190555042816002018190555061012f5481600301819055508061013f60003373ffffffffffffffffffffffffffffffffffffffff1673ffffffffffffffffffffffffffffffffffffffff16815260200190815260200160002060008760ff1660ff1681526020019081526020016000206000820154816000015560018201816001019080546144fe92919061787f565b506002820154816002015560038201548160030155905050600083036145ee5761013e60003373ffffffffffffffffffffffffffffffffffffffff1673ffffffffffffffffffffffffffffffffffffffff16815260200190815260200160002060405180608001604052808851815260200188815260200142815260200161012f5481525090806001815401808255809150506001900390600052602060002090600402016000909190919091506000820151816000015560208201518160010190805190602001906145d2929190617832565b5060408201518160020155606082015181600301555050614898565b600061013e60003373ffffffffffffffffffffffffffffffffffffffff1673ffffffffffffffffffffffffffffffffffffffff16815260200190815260200160002060018561463d9190618a07565b8154811061464e5761464d618a3b565b5b90600052602060002090600402016001018054806020026020016040519081016040528092919081815260200182805480156146a957602002820191906000526020600020905b815481526020019060010190808311614695575b505050505090506000875182516146c09190618a6a565b67ffffffffffffffff8111156146d9576146d8617e0f565b5b6040519080825280602002602001820160405280156147075781602001602082028036833780820191505090505b50905060005b82518110156147635782818151811061472957614728618a3b565b5b602002602001015182828151811061474457614743618a3b565b5b602002602001018181525050808061475b90618bb7565b91505061470d565b5060005b88518110156147c95788818151811061478357614782618a3b565b5b6020026020010151828285516147999190618a6a565b815181106147aa576147a9618a3b565b5b60200260200101818152505080806147c190618bb7565b915050614767565b5061013e60003373ffffffffffffffffffffffffffffffffffffffff1673ffffffffffffffffffffffffffffffffffffffff16815260200190815260200160002060405180608001604052808351815260200183815260200142815260200161012f54815250908060018154018082558091505060019003906000526020600020906004020160009091909190915060008201518160000155602082015181600101908051906020019061487e929190617832565b506040820151816002015560608201518160030155505050505b3373ffffffffffffffffffffffffffffffffffffffff167f7f89a3c8c8c2206e1b8ef49ed76ac5270f16999a804b4f5b378bfc538a5f949a875188886040516148e393929190618f85565b60405180910390a2505050506148f7616d80565b5050565b6000609760009054906101000a900473ffffffffffffffffffffffffffffffffffffffff16905090565b60008060008073ffffffffffffffffffffffffffffffffffffffff168473ffffffffffffffffffffffffffffffffffffffff160361498f576040517fca834e4600000000000000000000000000000000000000000000000000000000815260040160405180910390fd5b600061013d60008673ffffffffffffffffffffffffffffffffffffffff1673ffffffffffffffffffffffffffffffffffffffff16815260200190815260200160002060405180606001604052908160008201548152602001600182015481526020016002820154815250509050806000015181602001518260400151935093509350509193909250565b60008073ffffffffffffffffffffffffffffffffffffffff168373ffffffffffffffffffffffffffffffffffffffff1603614a80576040517fca834e4600000000000000000000000000000000000000000000000000000000815260040160405180910390fd5b6000610137805490509050600080828560ff1610614aca576040517f054cf5a200000000000000000000000000000000000000000000000000000000815260040160405180910390fd5b600061013a60008873ffffffffffffffffffffffffffffffffffffffff1673ffffffffffffffffffffffffffffffffffffffff16815260200190815260200160002060008760ff1660ff16815260200190815260200160002060405180606001604052908160008201548152602001600182015481526020016002820154815250509050600061013b60008973ffffffffffffffffffffffffffffffffffffffff1673ffffffffffffffffffffffffffffffffffffffff16815260200190815260200160002060008860ff1660ff1681526020019081526020016000206040518060800160405290816000820154815260200160018201548152602001600282015481526020016003820154815250509050600061013860008960ff1660ff1681526020019081526020016000206040518060800160405290816000820160009054906101000a900463ffffffff1663ffffffff1663ffffffff168152602001600182015481526020016002820160009054906101000a900460ff1660ff1660ff1681526020016003820154815250509050600061013f60008b73ffffffffffffffffffffffffffffffffffffffff1673ffffffffffffffffffffffffffffffffffffffff16815260200190815260200160002060008a60ff1660ff1681526020019081526020016000206040518060800160405290816000820154815260200160018201805480602002602001604051908101604052809291908181526020018280548015614d1957602002820191906000526020600020905b815481526020019060010190808311614d05575b505050505081526020016002820154815260200160038201548152505090506000846000015103614d54576000975050505050505050614e9d565b6000836020015103614d7757836020015142614d709190618a07565b9550614d8a565b826020015142614d879190618a07565b95505b81602001519450600081600001511115614e5357600061012e60009054906101000a900473ffffffffffffffffffffffffffffffffffffffff1673ffffffffffffffffffffffffffffffffffffffff1663f4b4994683602001516040518263ffffffff1660e01b8152600401614e009190618e91565b6040805180830381865afa158015614e1c573d6000803e3d6000fd5b505050506040513d601f19601f82011682018060405250810190614e409190618eb3565b5090508086614e4f9190618a6a565b9550505b6000612710868660000151614e689190618bff565b614e729190618b86565b90506301e1853e8782614e859190618bff565b614e8f9190618b86565b905080985050505050505050505b92915050565b614eab616d8a565b806101318190555050565b6000806000806000610137805490509050808660ff1610614f03576040517f054cf5a200000000000000000000000000000000000000000000000000000000815260040160405180910390fd5b600061013860008860ff1660ff1681526020019081526020016000206040518060800160405290816000820160009054906101000a900463ffffffff1663ffffffff1663ffffffff168152602001600182015481526020016002820160009054906101000a900460ff1660ff1660ff16815260200160038201548152505090508060000151816020015182604001518360600151955095509550955050509193509193565b60008060008073ffffffffffffffffffffffffffffffffffffffff168473ffffffffffffffffffffffffffffffffffffffff1603615012576040517fca834e4600000000000000000000000000000000000000000000000000000000815260040160405180910390fd5b600061013960008673ffffffffffffffffffffffffffffffffffffffff1673ffffffffffffffffffffffffffffffffffffffff1681526020019081526020016000208054905090506000810361507357600080600093509350935050615124565b600061013960008773ffffffffffffffffffffffffffffffffffffffff1673ffffffffffffffffffffffffffffffffffffffff1681526020019081526020016000206001836150c29190618a07565b815481106150d3576150d2618a3b565b5b90600052602060002090600302016040518060600160405290816000820154815260200160018201548152602001600282015481525050905080600001518160200151826040015194509450945050505b9193909250565b600061012f54905090565b61513e616ce7565b615146616d31565b6000610137805490509050600061013960003373ffffffffffffffffffffffffffffffffffffffff1673ffffffffffffffffffffffffffffffffffffffff1681526020019081526020016000208054905090506000806000806000868860ff16106151dd576040517f054cf5a200000000000000000000000000000000000000000000000000000000815260040160405180910390fd5b600061013a60003373ffffffffffffffffffffffffffffffffffffffff1673ffffffffffffffffffffffffffffffffffffffff16815260200190815260200160002060008a60ff1660ff16815260200190815260200160002060405180606001604052908160008201548152602001600182015481526020016002820154815250509050600081600001510361529f576040517f4bb2437200000000000000000000000000000000000000000000000000000000815260040160405180910390fd5b600061013960003373ffffffffffffffffffffffffffffffffffffffff1673ffffffffffffffffffffffffffffffffffffffff1681526020019081526020016000206001896152ee9190618a07565b815481106152ff576152fe618a3b565b5b90600052602060002090600302016040518060600160405290816000820154815260200160018201548152602001600282015481525050905081600001519250816000015181600001516153539190618a07565b965061535f338b6157f9565b955060008662ffffff16146155385760648662ffffff1683600001516153859190618bff565b61538f9190618b86565b94506103e861ffff16856153a39190618b86565b94508482600001516153b59190618a07565b9250606461013660009054906101000a900460ff1660ff16866153d89190618bff565b6153e29190618b86565b935061012d60009054906101000a900473ffffffffffffffffffffffffffffffffffffffff1673ffffffffffffffffffffffffffffffffffffffff1663095ea7b361012d60009054906101000a900473ffffffffffffffffffffffffffffffffffffffff16866040518363ffffffff1660e01b8152600401615465929190618e68565b6020604051808303816000875af1158015615484573d6000803e3d6000fd5b505050506040513d601f19601f820116820180604052508101906154a89190618b01565b5061012d60009054906101000a900473ffffffffffffffffffffffffffffffffffffffff1673ffffffffffffffffffffffffffffffffffffffff16633f6c518d856040518263ffffffff1660e01b81526004016155059190617c5f565b600060405180830381600087803b15801561551f57600080fd5b505af1158015615533573d6000803e3d6000fd5b505050505b61012d60009054906101000a900473ffffffffffffffffffffffffffffffffffffffff1673ffffffffffffffffffffffffffffffffffffffff1663a9059cbb33856040518363ffffffff1660e01b8152600401615596929190618e68565b6020604051808303816000875af11580156155b5573d6000803e3d6000fd5b505050506040513d601f19601f820116820180604052508101906155d99190618b01565b50816000015161013360008282546155f19190618a07565b9250508190555061013154871061562557816000015161013460008282546156199190618a07565b92505081905550615653565b61013154816000015110615652578060000151610134600082825461564a9190618a07565b925050819055505b5b60405180606001604052806000815260200142815260200161012f5481525061013a60003373ffffffffffffffffffffffffffffffffffffffff1673ffffffffffffffffffffffffffffffffffffffff16815260200190815260200160002060008c60ff1660ff16815260200190815260200160002060008201518160000155602082015181600101556040820151816002015590505061013960003373ffffffffffffffffffffffffffffffffffffffff1673ffffffffffffffffffffffffffffffffffffffff168152602001908152602001600020604051806060016040528089815260200142815260200161012f54815250908060018154018082558091505060019003906000526020600020906003020160009091909190915060008201518160000155602082015181600101556040820151816002015550503373ffffffffffffffffffffffffffffffffffffffff167f3e15a4d682572f2e7fa643eddd15fc288293a578f01eb4e9f22a8bcd24f5017e83600001518c6040516157dd929190618b2e565b60405180910390a25050505050505050506157f6616d80565b50565b60008073ffffffffffffffffffffffffffffffffffffffff168373ffffffffffffffffffffffffffffffffffffffff1603615860576040517fca834e4600000000000000000000000000000000000000000000000000000000815260040160405180910390fd5b6000610137805490509050808360ff16106158a7576040517f054cf5a200000000000000000000000000000000000000000000000000000000815260040160405180910390fd5b600080600061013960008873ffffffffffffffffffffffffffffffffffffffff1673ffffffffffffffffffffffffffffffffffffffff16815260200190815260200160002080549050905060008103615907576000945050505050615aa9565b600061013a60008973ffffffffffffffffffffffffffffffffffffffff1673ffffffffffffffffffffffffffffffffffffffff16815260200190815260200160002060008860ff1660ff16815260200190815260200160002060405180606001604052908160008201548152602001600182015481526020016002820154815250509050600061013860008960ff1660ff1681526020019081526020016000206040518060800160405290816000820160009054906101000a900463ffffffff1663ffffffff1663ffffffff168152602001600182015481526020016002820160009054906101000a900460ff1660ff1660ff1681526020016003820154815250509050806000015163ffffffff16826020015142615a269190618a07565b10615a3a5760009650505050505050615aa9565b806000015163ffffffff16620f424061013554615a579190618bff565b615a619190618b86565b9350620f4240826020015142615a779190618a07565b85615a829190618bff565b615a8c9190618b86565b93508361013554615a9d9190618a07565b94508496505050505050505b92915050565b615ab7616ce7565b615abf616d31565b600061013780549050905060008061013b60003373ffffffffffffffffffffffffffffffffffffffff1673ffffffffffffffffffffffffffffffffffffffff16815260200190815260200160002060008660ff1660ff168152602001908152602001600020604051806080016040529081600082015481526020016001820154815260200160028201548152602001600382015481525050905060648460ff161115615b97576040517f964e9c0000000000000000000000000000000000000000000000000000000000815260040160405180910390fd5b828560ff1610615bd3576040517f054cf5a200000000000000000000000000000000000000000000000000000000815260040160405180910390fd5b615bdd3386614a19565b915060008203615c19576040517f4bb2437200000000000000000000000000000000000000000000000000000000815260040160405180910390fd5b6101335461012d60009054906101000a900473ffffffffffffffffffffffffffffffffffffffff1673ffffffffffffffffffffffffffffffffffffffff166370a08231306040518263ffffffff1660e01b8152600401615c799190618041565b602060405180830381865afa158015615c96573d6000803e3d6000fd5b505050506040513d601f19601f82011682018060405250810190615cba9190618982565b11615cf1576040517f4bb2437200000000000000000000000000000000000000000000000000000000815260040160405180910390fd5b60008460ff161461602357600061013960003373ffffffffffffffffffffffffffffffffffffffff1673ffffffffffffffffffffffffffffffffffffffff168152602001908152602001600020805490509050600061013a60003373ffffffffffffffffffffffffffffffffffffffff1673ffffffffffffffffffffffffffffffffffffffff16815260200190815260200160002060008860ff1660ff16815260200190815260200160002060405180606001604052908160008201548152602001600182015481526020016002820154815250509050600061013960003373ffffffffffffffffffffffffffffffffffffffff1673ffffffffffffffffffffffffffffffffffffffff168152602001908152602001600020600184615e179190618a07565b81548110615e2857615e27618a3b565b5b906000526020600020906003020160405180606001604052908160008201548152602001600182015481526020016002820154815250509050600060648860ff1687615e749190618bff565b615e7e9190618b86565b90508086615e8c9190618a07565b95508083600001818151615ea09190618a6a565b91508181525050806101336000828254615eba9190618a6a565b9250508190555061013154826000015110615eee57806101346000828254615ee29190618a6a565b92505081905550615f32565b61013154818360000151615f029190618a6a565b10615f3157808260000151615f179190618a6a565b6101346000828254615f299190618a6a565b925050819055505b5b8261013a60003373ffffffffffffffffffffffffffffffffffffffff1673ffffffffffffffffffffffffffffffffffffffff16815260200190815260200160002060008b60ff1660ff1681526020019081526020016000206000820151816000015560208201518160010155604082015181600201559050508085604001818151615fbd9190618a6a565b91508181525050428560600181815250503373ffffffffffffffffffffffffffffffffffffffff167f740ea299cbe0b22e247b46dc1ded3fb8e11870090ac711572392bc2dd7da11bd828b604051616016929190618b2e565b60405180910390a2505050505b60008211156161425761012d60009054906101000a900473ffffffffffffffffffffffffffffffffffffffff1673ffffffffffffffffffffffffffffffffffffffff1663a9059cbb33846040518363ffffffff1660e01b815260040161608a929190618e68565b6020604051808303816000875af11580156160a9573d6000803e3d6000fd5b505050506040513d601f19601f820116820180604052508101906160cd9190618b01565b5081816000018181516160e09190618a6a565b91508181525050428160200181815250503373ffffffffffffffffffffffffffffffffffffffff167fb2aa745c6ade7e5f0ef71b67bc8b5c414166f7349b1ff999ac5f449b68df3f6f8387604051616139929190618b2e565b60405180910390a25b8061013b60003373ffffffffffffffffffffffffffffffffffffffff1673ffffffffffffffffffffffffffffffffffffffff16815260200190815260200160002060008760ff1660ff168152602001908152602001600020600082015181600001556020820151816001015560408201518160020155606082015181600301559050505050506161d0616d80565b5050565b6161dc616ce7565b6161e4616d31565b600061013d60003373ffffffffffffffffffffffffffffffffffffffff1673ffffffffffffffffffffffffffffffffffffffff16815260200190815260200160002060405180606001604052908160008201548152602001600182015481526020016002820154815250509050600061625c336115c9565b905061626733612585565b816162729190618a6a565b9050600081036162ae576040517f5b8e6e3700000000000000000000000000000000000000000000000000000000815260040160405180910390fd5b60003373ffffffffffffffffffffffffffffffffffffffff16826040516162d490619082565b60006040518083038185875af1925050503d8060008114616311576040519150601f19603f3d011682016040523d82523d6000602084013e616316565b606091505b5050905080616351576040517f668912ae00000000000000000000000000000000000000000000000000000000815260040160405180910390fd5b81836000018181516163639190618a6a565b915081815250504283602001818152505061012f548360400181815250508261013d60003373ffffffffffffffffffffffffffffffffffffffff1673ffffffffffffffffffffffffffffffffffffffff1681526020019081526020016000206000820151816000015560208201518160010155604082015181600201559050503373ffffffffffffffffffffffffffffffffffffffff167f0d7976053781e071cecf47e898ad2a6dc87621ca33734e96eb4b92453319e8c9836040516164299190617c5f565b60405180910390a250505061643c616d80565b565b6060600073ffffffffffffffffffffffffffffffffffffffff168273ffffffffffffffffffffffffffffffffffffffff16036164a6576040517fca834e4600000000000000000000000000000000000000000000000000000000815260040160405180910390fd5b61013960008373ffffffffffffffffffffffffffffffffffffffff1673ffffffffffffffffffffffffffffffffffffffff168152602001908152602001600020805480602002602001604051908101604052809291908181526020016000905b828210156165565783829060005260206000209060030201604051806060016040529081600082015481526020016001820154815260200160028201548152505081526020019060010190616506565b505050509050919050565b6060600073ffffffffffffffffffffffffffffffffffffffff168273ffffffffffffffffffffffffffffffffffffffff16036165c9576040517fca834e4600000000000000000000000000000000000000000000000000000000815260040160405180910390fd5b61013e60008373ffffffffffffffffffffffffffffffffffffffff1673ffffffffffffffffffffffffffffffffffffffff168152602001908152602001600020805480602002602001604051908101604052809291908181526020016000905b828210156166d1578382906000526020600020906004020160405180608001604052908160008201548152602001600182018054806020026020016040519081016040528092919081815260200182805480156166a557602002820191906000526020600020905b815481526020019060010190808311616691575b505050505081526020016002820154815260200160038201548152505081526020019060010190616629565b505050509050919050565b600061013254905090565b6166ef616d8a565b60003373ffffffffffffffffffffffffffffffffffffffff164760405161671590619082565b60006040518083038185875af1925050503d8060008114616752576040519150601f19603f3d011682016040523d82523d6000602084013e616757565b606091505b5050905080616792576040517f668912ae00000000000000000000000000000000000000000000000000000000815260040160405180910390fd5b50565b600061013154905090565b6167a8616d8a565b8061013790805190602001906167bf9291906178d1565b5050565b606061013780548060200260200160405190810160405280929190818152602001828054801561683857602002820191906000526020600020906000905b82829054906101000a900460ff1660ff16815260200190600101906020826000010492830192600103820291508084116168015790505b5050505050905090565b61684a616d8a565b600073ffffffffffffffffffffffffffffffffffffffff168173ffffffffffffffffffffffffffffffffffffffff16036168b9576040517f08c379a00000000000000000000000000000000000000000000000000000000081526004016168b090619109565b60405180910390fd5b6168c2816171ba565b50565b6168cd616d8a565b8173ffffffffffffffffffffffffffffffffffffffff166323b872dd3033846040518463ffffffff1660e01b815260040161690a93929190618a9e565b600060405180830381600087803b15801561692457600080fd5b505af1158015616938573d6000803e3d6000fd5b505050505050565b616948616ce7565b616950616d8a565b600034148061696057506103e834105b15616997576040517f964e9c0000000000000000000000000000000000000000000000000000000000815260040160405180910390fd5b6060600080600061012f60008154809291906169b290618bb7565b91905055503461013060008282546169ca9190618a6a565b925050819055506002346169de9190618b86565b925082915061012e60009054906101000a900473ffffffffffffffffffffffffffffffffffffffff1673ffffffffffffffffffffffffffffffffffffffff16638462151c306040518263ffffffff1660e01b8152600401616a3f9190618041565b600060405180830381865afa158015616a5c573d6000803e3d6000fd5b505050506040513d6000823e3d601f19601f82011682018060405250810190616a8591906191c0565b93506000845114616c005761012e60009054906101000a900473ffffffffffffffffffffffffffffffffffffffff1673ffffffffffffffffffffffffffffffffffffffff1663f4b49946856040518263ffffffff1660e01b8152600401616aec9190618e91565b6040805180830381865afa158015616b08573d6000803e3d6000fd5b505050506040513d601f19601f82011682018060405250810190616b2c9190618eb3565b9050809150506127108184616b419190618bff565b616b4b9190618b86565b91508183616b599190618a07565b915060003373ffffffffffffffffffffffffffffffffffffffff1683604051616b8190619082565b60006040518083038185875af1925050503d8060008114616bbe576040519150601f19603f3d011682016040523d82523d6000602084013e616bc3565b606091505b5050905080616bfe576040517f668912ae00000000000000000000000000000000000000000000000000000000815260040160405180910390fd5b505b60405180608001604052803481526020014281526020016101345481526020018381525061013c600061012f548152602001908152602001600020600082015181600001556020820151816001015560408201518160020155606082015181600301559050503373ffffffffffffffffffffffffffffffffffffffff167f3f7db3ccdc06492eb9fcca5fe34fcee7f7ddcca331e5053cb3534067b9a532323484604051616cae929190617d19565b60405180910390a250505050565b600061012e60009054906101000a900473ffffffffffffffffffffffffffffffffffffffff16905090565b616cef612ec8565b15616d2f576040517f08c379a0000000000000000000000000000000000000000000000000000000008152600401616d2690619255565b60405180910390fd5b565b600260fb5403616d76576040517f08c379a0000000000000000000000000000000000000000000000000000000008152600401616d6d906192c1565b60405180910390fd5b600260fb81905550565b600160fb81905550565b616d926172e3565b73ffffffffffffffffffffffffffffffffffffffff16616db06148fb565b73ffffffffffffffffffffffffffffffffffffffff1614616e06576040517f08c379a0000000000000000000000000000000000000000000000000000000008152600401616dfd9061932d565b60405180910390fd5b565b6000616e367f360894a13ba1a3210667c828492db98dca3e2076cc3735a920a3ca505d382bbc60001b6172eb565b60000160009054906101000a900473ffffffffffffffffffffffffffffffffffffffff16905090565b616e67616d8a565b50565b616e967f4910fdfa16fed3260ed0e7147f7cc6da11a60208b5b9406d12a635614ffd914360001b6172f5565b60000160009054906101000a900460ff1615616eba57616eb5836172ff565b616fd3565b8273ffffffffffffffffffffffffffffffffffffffff166352d1902d6040518163ffffffff1660e01b8152600401602060405180830381865afa925050508015616f2257506040513d601f19601f82011682018060405250810190616f1f9190619379565b60015b616f61576040517f08c379a0000000000000000000000000000000000000000000000000000000008152600401616f5890619418565b60405180910390fd5b7f360894a13ba1a3210667c828492db98dca3e2076cc3735a920a3ca505d382bbc60001b8114616fc6576040517f08c379a0000000000000000000000000000000000000000000000000000000008152600401616fbd906194aa565b60405180910390fd5b50616fd28383836173b8565b5b505050565b616fe06173e4565b600060c960006101000a81548160ff0219169083151502179055507f5db9ee0a495bf2e6ff9c91a7834c1ba4fdd244a5e8aa4e537bd38aeae4b073aa6170246172e3565b6040516170319190618041565b60405180910390a1565b6000808273ffffffffffffffffffffffffffffffffffffffff163b119050919050565b600060019054906101000a900460ff166170ad576040517f08c379a00000000000000000000000000000000000000000000000000000000081526004016170a49061953c565b60405180910390fd5b6170b561742d565b565b600060019054906101000a900460ff16617106576040517f08c379a00000000000000000000000000000000000000000000000000000000081526004016170fd9061953c565b60405180910390fd5b61710e61748e565b565b600060019054906101000a900460ff1661715f576040517f08c379a00000000000000000000000000000000000000000000000000000000081526004016171569061953c565b60405180910390fd5b6171676174fa565b565b600060019054906101000a900460ff166171b8576040517f08c379a00000000000000000000000000000000000000000000000000000000081526004016171af9061953c565b60405180910390fd5b565b6000609760009054906101000a900473ffffffffffffffffffffffffffffffffffffffff16905081609760006101000a81548173ffffffffffffffffffffffffffffffffffffffff021916908373ffffffffffffffffffffffffffffffffffffffff1602179055508173ffffffffffffffffffffffffffffffffffffffff168173ffffffffffffffffffffffffffffffffffffffff167f8be0079c531659141344cd1fd0a4f28419497f9722a3daafe3b4186f6b6457e060405160405180910390a35050565b617288616ce7565b600160c960006101000a81548160ff0219169083151502179055507f62e78cea01bee320cd4e420270b5ea74000d11b0c9f74754ebdbfc544b05a2586172cc6172e3565b6040516172d99190618041565b60405180910390a1565b600033905090565b6000819050919050565b6000819050919050565b6173088161703b565b617347576040517f08c379a000000000000000000000000000000000000000000000000000000000815260040161733e906195ce565b60405180910390fd5b806173747f360894a13ba1a3210667c828492db98dca3e2076cc3735a920a3ca505d382bbc60001b6172eb565b60000160006101000a81548173ffffffffffffffffffffffffffffffffffffffff021916908373ffffffffffffffffffffffffffffffffffffffff16021790555050565b6173c183617553565b6000825111806173ce5750805b156173df576173dd83836175a2565b505b505050565b6173ec612ec8565b61742b576040517f08c379a00000000000000000000000000000000000000000000000000000000081526004016174229061963a565b60405180910390fd5b565b600060019054906101000a900460ff1661747c576040517f08c379a00000000000000000000000000000000000000000000000000000000081526004016174739061953c565b60405180910390fd5b61748c6174876172e3565b6171ba565b565b600060019054906101000a900460ff166174dd576040517f08c379a00000000000000000000000000000000000000000000000000000000081526004016174d49061953c565b60405180910390fd5b600060c960006101000a81548160ff021916908315150217905550565b600060019054906101000a900460ff16617549576040517f08c379a00000000000000000000000000000000000000000000000000000000081526004016175409061953c565b60405180910390fd5b600160fb81905550565b61755c816172ff565b8073ffffffffffffffffffffffffffffffffffffffff167fbc7cd75a20ee27fd9adebab32041f755214dbc6bffa90cc0225b39da2e5c2d3b60405160405180910390a250565b60606175c783836040518060600160405280602781526020016197aa602791396175cf565b905092915050565b60606000808573ffffffffffffffffffffffffffffffffffffffff16856040516175f991906196c0565b600060405180830381855af49150503d8060008114617634576040519150601f19603f3d011682016040523d82523d6000602084013e617639565b606091505b509150915061764a86838387617655565b925050509392505050565b606083156176b75760008351036176af5761766f8561703b565b6176ae576040517f08c379a00000000000000000000000000000000000000000000000000000000081526004016176a590619723565b60405180910390fd5b5b8290506176c2565b6176c183836176ca565b5b949350505050565b6000825111156176dd5781518083602001fd5b806040517f08c379a00000000000000000000000000000000000000000000000000000000081526004016177119190619787565b60405180910390fd5b60405180606001604052806000815260200160008152602001600081525090565b6040518060800160405280600081526020016000815260200160008152602001600081525090565b82805482825590600052602060002090601f016020900481019282156177f95791602002820160005b838211156177ca57835183826101000a81548160ff021916908360ff160217905550926020019260010160208160000104928301926001030261778c565b80156177f75782816101000a81549060ff02191690556001016020816000010492830192600103026177ca565b505b5090506178069190617978565b5090565b6040518060800160405280600081526020016060815260200160008152602001600081525090565b82805482825590600052602060002090810192821561786e579160200282015b8281111561786d578251825591602001919060010190617852565b5b50905061787b9190617978565b5090565b8280548282559060005260206000209081019282156178c05760005260206000209182015b828111156178bf5782548255916001019190600101906178a4565b5b5090506178cd9190617978565b5090565b82805482825590600052602060002090601f016020900481019282156179675791602002820160005b8382111561793857835183826101000a81548160ff021916908360ff16021790555092602001926001016020816000010492830192600103026178fa565b80156179655782816101000a81549060ff0219169055600101602081600001049283019260010302617938565b505b5090506179749190617978565b5090565b5b80821115617991576000816000905550600101617979565b5090565b600060ff82169050919050565b6179ab81617995565b82525050565b60006020820190506179c660008301846179a2565b92915050565b6000604051905090565b600080fd5b600080fd5b6000819050919050565b6179f3816179e0565b81146179fe57600080fd5b50565b600081359050617a10816179ea565b92915050565b617a1f81617995565b8114617a2a57600080fd5b50565b600081359050617a3c81617a16565b92915050565b60008060408385031215617a5957617a586179d6565b5b6000617a6785828601617a01565b9250506020617a7885828601617a2d565b9150509250929050565b600060208284031215617a9857617a976179d6565b5b6000617aa684828501617a2d565b91505092915050565b600073ffffffffffffffffffffffffffffffffffffffff82169050919050565b6000617ada82617aaf565b9050919050565b617aea81617acf565b8114617af557600080fd5b50565b600081359050617b0781617ae1565b92915050565b600080fd5b600080fd5b600080fd5b60008083601f840112617b3257617b31617b0d565b5b8235905067ffffffffffffffff811115617b4f57617b4e617b12565b5b602083019150836001820283011115617b6b57617b6a617b17565b5b9250929050565b600080600080600060808688031215617b8e57617b8d6179d6565b5b6000617b9c88828901617af8565b9550506020617bad88828901617af8565b9450506040617bbe88828901617a01565b935050606086013567ffffffffffffffff811115617bdf57617bde6179db565b5b617beb88828901617b1c565b92509250509295509295909350565b60007fffffffff0000000000000000000000000000000000000000000000000000000082169050919050565b617c2f81617bfa565b82525050565b6000602082019050617c4a6000830184617c26565b92915050565b617c59816179e0565b82525050565b6000602082019050617c746000830184617c50565b92915050565b600060208284031215617c9057617c8f6179d6565b5b6000617c9e84828501617af8565b91505092915050565b6000608082019050617cbc6000830187617c50565b617cc96020830186617c50565b617cd66040830185617c50565b617ce36060830184617c50565b95945050505050565b600060208284031215617d0257617d016179d6565b5b6000617d1084828501617a01565b91505092915050565b6000604082019050617d2e6000830185617c50565b617d3b6020830184617c50565b9392505050565b60008060408385031215617d5957617d586179d6565b5b6000617d6785828601617af8565b9250506020617d7885828601617a2d565b9150509250929050565b6000606082019050617d976000830186617c50565b617da46020830185617c50565b617db16040830184617c50565b949350505050565b60008060408385031215617dd057617dcf6179d6565b5b6000617dde85828601617af8565b9250506020617def85828601617af8565b9150509250929050565b600080fd5b6000601f19601f8301169050919050565b7f4e487b7100000000000000000000000000000000000000000000000000000000600052604160045260246000fd5b617e4782617dfe565b810181811067ffffffffffffffff82111715617e6657617e65617e0f565b5b80604052505050565b6000617e796179cc565b9050617e858282617e3e565b919050565b600067ffffffffffffffff821115617ea557617ea4617e0f565b5b617eae82617dfe565b9050602081019050919050565b82818337600083830152505050565b6000617edd617ed884617e8a565b617e6f565b905082815260208101848484011115617ef957617ef8617df9565b5b617f04848285617ebb565b509392505050565b600082601f830112617f2157617f20617b0d565b5b8135617f31848260208601617eca565b91505092915050565b60008060408385031215617f5157617f506179d6565b5b6000617f5f85828601617af8565b925050602083013567ffffffffffffffff811115617f8057617f7f6179db565b5b617f8c85828601617f0c565b9150509250929050565b600062ffffff82169050919050565b617fae81617f96565b8114617fb957600080fd5b50565b600081359050617fcb81617fa5565b92915050565b600060208284031215617fe757617fe66179d6565b5b6000617ff584828501617fbc565b91505092915050565b6000819050919050565b61801181617ffe565b82525050565b600060208201905061802c6000830184618008565b92915050565b61803b81617acf565b82525050565b60006020820190506180566000830184618032565b92915050565b60008115159050919050565b6180718161805c565b82525050565b600060208201905061808c6000830184618068565b92915050565b600081519050919050565b600082825260208201905092915050565b6000819050602082019050919050565b6180c7816179e0565b82525050565b60006180d983836180be565b60208301905092915050565b6000602082019050919050565b60006180fd82618092565b618107818561809d565b9350618112836180ae565b8060005b8381101561814357815161812a88826180cd565b9750618135836180e5565b925050600181019050618116565b5085935050505092915050565b60006080820190506181656000830187617c50565b818103602083015261817781866180f2565b90506181866040830185617c50565b6181936060830184617c50565b95945050505050565b600063ffffffff82169050919050565b6181b58161819c565b81146181c057600080fd5b50565b6000813590506181d2816181ac565b92915050565b600080600080608085870312156181f2576181f16179d6565b5b600061820087828801617a2d565b9450506020618211878288016181c3565b935050604061822287828801617a01565b925050606061823387828801617a2d565b91505092959194509250565b600067ffffffffffffffff82111561825a57618259617e0f565b5b602082029050602081019050919050565b600061827e6182798461823f565b617e6f565b905080838252602082019050602084028301858111156182a1576182a0617b17565b5b835b818110156182ca57806182b68882617a01565b8452602084019350506020810190506182a3565b5050509392505050565b600082601f8301126182e9576182e8617b0d565b5b81356182f984826020860161826b565b91505092915050565b60008060408385031215618319576183186179d6565b5b600061832785828601617a2d565b925050602083013567ffffffffffffffff811115618348576183476179db565b5b618354858286016182d4565b9150509250929050565b60008060408385031215618375576183746179d6565b5b600083013567ffffffffffffffff811115618393576183926179db565b5b61839f858286016182d4565b92505060206183b085828601617a2d565b9150509250929050565b6183c38161819c565b82525050565b60006080820190506183de60008301876183ba565b6183eb6020830186617c50565b6183f860408301856179a2565b6184056060830184617c50565b95945050505050565b61841781617f96565b82525050565b6000602082019050618432600083018461840e565b92915050565b6000806040838503121561844f5761844e6179d6565b5b600061845d85828601617a2d565b925050602061846e85828601617a2d565b9150509250929050565b600081519050919050565b600082825260208201905092915050565b6000819050602082019050919050565b6060820160008201516184ba60008501826180be565b5060208201516184cd60208501826180be565b5060408201516184e060408501826180be565b50505050565b60006184f283836184a4565b60608301905092915050565b6000602082019050919050565b600061851682618478565b6185208185618483565b935061852b83618494565b8060005b8381101561855c57815161854388826184e6565b975061854e836184fe565b92505060018101905061852f565b5085935050505092915050565b60006020820190508181036000830152618583818461850b565b905092915050565b600081519050919050565b600082825260208201905092915050565b6000819050602082019050919050565b600082825260208201905092915050565b60006185d382618092565b6185dd81856185b7565b93506185e8836180ae565b8060005b8381101561861957815161860088826180cd565b975061860b836180e5565b9250506001810190506185ec565b5085935050505092915050565b600060808301600083015161863e60008601826180be565b506020830151848203602086015261865682826185c8565b915050604083015161866b60408601826180be565b50606083015161867e60608601826180be565b508091505092915050565b60006186958383618626565b905092915050565b6000602082019050919050565b60006186b58261858b565b6186bf8185618596565b9350836020820285016186d1856185a7565b8060005b8581101561870d57848403895281516186ee8582618689565b94506186f98361869d565b925060208a019950506001810190506186d5565b50829750879550505050505092915050565b6000602082019050818103600083015261873981846186aa565b905092915050565b600067ffffffffffffffff82111561875c5761875b617e0f565b5b602082029050602081019050919050565b600061878061877b84618741565b617e6f565b905080838252602082019050602084028301858111156187a3576187a2617b17565b5b835b818110156187cc57806187b88882617a2d565b8452602084019350506020810190506187a5565b5050509392505050565b600082601f8301126187eb576187ea617b0d565b5b81356187fb84826020860161876d565b91505092915050565b60006020828403121561881a576188196179d6565b5b600082013567ffffffffffffffff811115618838576188376179db565b5b618844848285016187d6565b91505092915050565b600081519050919050565b600082825260208201905092915050565b6000819050602082019050919050565b61888281617995565b82525050565b60006188948383618879565b60208301905092915050565b6000602082019050919050565b60006188b88261884d565b6188c28185618858565b93506188cd83618869565b8060005b838110156188fe5781516188e58882618888565b97506188f0836188a0565b9250506001810190506188d1565b5085935050505092915050565b6000602082019050818103600083015261892581846188ad565b905092915050565b60008060408385031215618944576189436179d6565b5b600061895285828601617af8565b925050602061896385828601617a01565b9150509250929050565b60008151905061897c816179ea565b92915050565b600060208284031215618998576189976179d6565b5b60006189a68482850161896d565b91505092915050565b60006040820190506189c46000830185618032565b6189d16020830184618032565b9392505050565b7f4e487b7100000000000000000000000000000000000000000000000000000000600052601160045260246000fd5b6000618a12826179e0565b9150618a1d836179e0565b9250828203905081811115618a3557618a346189d8565b5b92915050565b7f4e487b7100000000000000000000000000000000000000000000000000000000600052603260045260246000fd5b6000618a75826179e0565b9150618a80836179e0565b9250828201905080821115618a9857618a976189d8565b5b92915050565b6000606082019050618ab36000830186618032565b618ac06020830185618032565b618acd6040830184617c50565b949350505050565b618ade8161805c565b8114618ae957600080fd5b50565b600081519050618afb81618ad5565b92915050565b600060208284031215618b1757618b166179d6565b5b6000618b2584828501618aec565b91505092915050565b6000604082019050618b436000830185617c50565b618b5060208301846179a2565b9392505050565b7f4e487b7100000000000000000000000000000000000000000000000000000000600052601260045260246000fd5b6000618b91826179e0565b9150618b9c836179e0565b925082618bac57618bab618b57565b5b828204905092915050565b6000618bc2826179e0565b91507fffffffffffffffffffffffffffffffffffffffffffffffffffffffffffffffff8203618bf457618bf36189d8565b5b600182019050919050565b6000618c0a826179e0565b9150618c15836179e0565b9250828202618c23816179e0565b91508282048414831517618c3a57618c396189d8565b5b5092915050565b600082825260208201905092915050565b7f46756e6374696f6e206d7573742062652063616c6c6564207468726f7567682060008201527f64656c656761746563616c6c0000000000000000000000000000000000000000602082015250565b6000618cae602c83618c41565b9150618cb982618c52565b604082019050919050565b60006020820190508181036000830152618cdd81618ca1565b9050919050565b7f46756e6374696f6e206d7573742062652063616c6c6564207468726f7567682060008201527f6163746976652070726f78790000000000000000000000000000000000000000602082015250565b6000618d40602c83618c41565b9150618d4b82618ce4565b604082019050919050565b60006020820190508181036000830152618d6f81618d33565b9050919050565b7f496e697469616c697a61626c653a20636f6e747261637420697320616c72656160008201527f647920696e697469616c697a6564000000000000000000000000000000000000602082015250565b6000618dd2602e83618c41565b9150618ddd82618d76565b604082019050919050565b60006020820190508181036000830152618e0181618dc5565b9050919050565b6000819050919050565b6000819050919050565b6000618e37618e32618e2d84618e08565b618e12565b617995565b9050919050565b618e4781618e1c565b82525050565b6000602082019050618e626000830184618e3e565b92915050565b6000604082019050618e7d6000830185618032565b618e8a6020830184617c50565b9392505050565b60006020820190508181036000830152618eab81846180f2565b905092915050565b60008060408385031215618eca57618ec96179d6565b5b6000618ed88582860161896d565b9250506020618ee98582860161896d565b9150509250929050565b7f555550535570677261646561626c653a206d757374206e6f742062652063616c60008201527f6c6564207468726f7567682064656c656761746563616c6c0000000000000000602082015250565b6000618f4f603883618c41565b9150618f5a82618ef3565b604082019050919050565b60006020820190508181036000830152618f7e81618f42565b9050919050565b6000606082019050618f9a6000830186617c50565b8181036020830152618fac81856180f2565b9050618fbb60408301846179a2565b949350505050565b6000618fde618fd9618fd484617995565b618e12565b6179e0565b9050919050565b618fee81618fc3565b82525050565b60006020820190506190096000830184618fe5565b92915050565b60008151905061901e81617ae1565b92915050565b60006020828403121561903a576190396179d6565b5b60006190488482850161900f565b91505092915050565b600081905092915050565b50565b600061906c600083619051565b91506190778261905c565b600082019050919050565b600061908d8261905f565b9150819050919050565b7f4f776e61626c653a206e6577206f776e657220697320746865207a65726f206160008201527f6464726573730000000000000000000000000000000000000000000000000000602082015250565b60006190f3602683618c41565b91506190fe82619097565b604082019050919050565b60006020820190508181036000830152619122816190e6565b9050919050565b600061913c6191378461823f565b617e6f565b9050808382526020820190506020840283018581111561915f5761915e617b17565b5b835b818110156191885780619174888261896d565b845260208401935050602081019050619161565b5050509392505050565b600082601f8301126191a7576191a6617b0d565b5b81516191b7848260208601619129565b91505092915050565b6000602082840312156191d6576191d56179d6565b5b600082015167ffffffffffffffff8111156191f4576191f36179db565b5b61920084828501619192565b91505092915050565b7f5061757361626c653a2070617573656400000000000000000000000000000000600082015250565b600061923f601083618c41565b915061924a82619209565b602082019050919050565b6000602082019050818103600083015261926e81619232565b9050919050565b7f5265656e7472616e637947756172643a207265656e7472616e742063616c6c00600082015250565b60006192ab601f83618c41565b91506192b682619275565b602082019050919050565b600060208201905081810360008301526192da8161929e565b9050919050565b7f4f776e61626c653a2063616c6c6572206973206e6f7420746865206f776e6572600082015250565b6000619317602083618c41565b9150619322826192e1565b602082019050919050565b600060208201905081810360008301526193468161930a565b9050919050565b61935681617ffe565b811461936157600080fd5b50565b6000815190506193738161934d565b92915050565b60006020828403121561938f5761938e6179d6565b5b600061939d84828501619364565b91505092915050565b7f45524331393637557067726164653a206e657720696d706c656d656e7461746960008201527f6f6e206973206e6f742055555053000000000000000000000000000000000000602082015250565b6000619402602e83618c41565b915061940d826193a6565b604082019050919050565b60006020820190508181036000830152619431816193f5565b9050919050565b7f45524331393637557067726164653a20756e737570706f727465642070726f7860008201527f6961626c65555549440000000000000000000000000000000000000000000000602082015250565b6000619494602983618c41565b915061949f82619438565b604082019050919050565b600060208201905081810360008301526194c381619487565b9050919050565b7f496e697469616c697a61626c653a20636f6e7472616374206973206e6f74206960008201527f6e697469616c697a696e67000000000000000000000000000000000000000000602082015250565b6000619526602b83618c41565b9150619531826194ca565b604082019050919050565b6000602082019050818103600083015261955581619519565b9050919050565b7f455243313936373a206e657720696d706c656d656e746174696f6e206973206e60008201527f6f74206120636f6e747261637400000000000000000000000000000000000000602082015250565b60006195b8602d83618c41565b91506195c38261955c565b604082019050919050565b600060208201905081810360008301526195e7816195ab565b9050919050565b7f5061757361626c653a206e6f7420706175736564000000000000000000000000600082015250565b6000619624601483618c41565b915061962f826195ee565b602082019050919050565b6000602082019050818103600083015261965381619617565b9050919050565b600081519050919050565b60005b83811015619683578082015181840152602081019050619668565b60008484015250505050565b600061969a8261965a565b6196a48185619051565b93506196b4818560208601619665565b80840191505092915050565b60006196cc828461968f565b915081905092915050565b7f416464726573733a2063616c6c20746f206e6f6e2d636f6e7472616374000000600082015250565b600061970d601d83618c41565b9150619718826196d7565b602082019050919050565b6000602082019050818103600083015261973c81619700565b9050919050565b600081519050919050565b600061975982619743565b6197638185618c41565b9350619773818560208601619665565b61977c81617dfe565b840191505092915050565b600060208201905081810360008301526197a1818461974e565b90509291505056fe416464726573733a206c6f772d6c6576656c2064656c65676174652063616c6c206661696c6564a264697066735822122084a23ae0ae689eb51ddab03259356d18f3a5be6d48c3d05538eebb5dc934407764736f6c63430008120033","opcodes":"PUSH1 0xA0 PUSH1 0x40 MSTORE ADDRESS PUSH20 0xFFFFFFFFFFFFFFFFFFFFFFFFFFFFFFFFFFFFFFFF AND PUSH1 0x80 SWAP1 PUSH20 0xFFFFFFFFFFFFFFFFFFFFFFFFFFFFFFFFFFFFFFFF AND DUP2 MSTORE POP CALLVALUE DUP1 ISZERO PUSH3 0x44 JUMPI PUSH1 0x0 DUP1 REVERT JUMPDEST POP PUSH3 0x55 PUSH3 0x5B PUSH1 0x20 SHL PUSH1 0x20 SHR JUMP JUMPDEST PUSH3 0x205 JUMP JUMPDEST PUSH1 0x0 PUSH1 0x1 SWAP1 SLOAD SWAP1 PUSH2 0x100 EXP SWAP1 DIV PUSH1 0xFF AND ISZERO PUSH3 0xAE JUMPI PUSH1 0x40 MLOAD PUSH32 0x8C379A000000000000000000000000000000000000000000000000000000000 DUP2 MSTORE PUSH1 0x4 ADD PUSH3 0xA5 SWAP1 PUSH3 0x1A8 JUMP JUMPDEST PUSH1 0x40 MLOAD DUP1 SWAP2 SUB SWAP1 REVERT JUMPDEST PUSH1 0xFF DUP1 AND PUSH1 0x0 DUP1 SLOAD SWAP1 PUSH2 0x100 EXP SWAP1 DIV PUSH1 0xFF AND PUSH1 0xFF AND EQ PUSH3 0x11F JUMPI PUSH1 0xFF PUSH1 0x0 DUP1 PUSH2 0x100 EXP DUP2 SLOAD DUP2 PUSH1 0xFF MUL NOT AND SWAP1 DUP4 PUSH1 0xFF AND MUL OR SWAP1 SSTORE POP PUSH32 0x7F26B83FF96E1F2B6A682F133852F6798A09C465DA95921460CEFB3847402498 PUSH1 0xFF PUSH1 0x40 MLOAD PUSH3 0x116 SWAP2 SWAP1 PUSH3 0x1E8 JUMP JUMPDEST PUSH1 0x40 MLOAD DUP1 SWAP2 SUB SWAP1 LOG1 JUMPDEST JUMP JUMPDEST PUSH1 0x0 DUP3 DUP3 MSTORE PUSH1 0x20 DUP3 ADD SWAP1 POP SWAP3 SWAP2 POP POP JUMP JUMPDEST PUSH32 0x496E697469616C697A61626C653A20636F6E747261637420697320696E697469 PUSH1 0x0 DUP3 ADD MSTORE PUSH32 0x616C697A696E6700000000000000000000000000000000000000000000000000 PUSH1 0x20 DUP3 ADD MSTORE POP JUMP JUMPDEST PUSH1 0x0 PUSH3 0x190 PUSH1 0x27 DUP4 PUSH3 0x121 JUMP JUMPDEST SWAP2 POP PUSH3 0x19D DUP3 PUSH3 0x132 JUMP JUMPDEST PUSH1 0x40 DUP3 ADD SWAP1 POP SWAP2 SWAP1 POP JUMP JUMPDEST PUSH1 0x0 PUSH1 0x20 DUP3 ADD SWAP1 POP DUP2 DUP2 SUB PUSH1 0x0 DUP4 ADD MSTORE PUSH3 0x1C3 DUP2 PUSH3 0x181 JUMP JUMPDEST SWAP1 POP SWAP2 SWAP1 POP JUMP JUMPDEST PUSH1 0x0 PUSH1 0xFF DUP3 AND SWAP1 POP SWAP2 SWAP1 POP JUMP JUMPDEST PUSH3 0x1E2 DUP2 PUSH3 0x1CA JUMP JUMPDEST DUP3 MSTORE POP POP JUMP JUMPDEST PUSH1 0x0 PUSH1 0x20 DUP3 ADD SWAP1 POP PUSH3 0x1FF PUSH1 0x0 DUP4 ADD DUP5 PUSH3 0x1D7 JUMP JUMPDEST SWAP3 SWAP2 POP POP JUMP JUMPDEST PUSH1 0x80 MLOAD PUSH2 0x9806 PUSH3 0x23D PUSH1 0x0 CODECOPY PUSH1 0x0 DUP2 DUP2 PUSH2 0x1B09 ADD MSTORE DUP2 DUP2 PUSH2 0x1B97 ADD MSTORE DUP2 DUP2 PUSH2 0x2C92 ADD MSTORE DUP2 DUP2 PUSH2 0x2D20 ADD MSTORE PUSH2 0x2DE8 ADD MSTORE PUSH2 0x9806 PUSH1 0x0 RETURN INVALID PUSH1 0x80 PUSH1 0x40 MSTORE PUSH1 0x4 CALLDATASIZE LT PUSH2 0x38F JUMPI PUSH1 0x0 CALLDATALOAD PUSH1 0xE0 SHR DUP1 PUSH4 0x715018A6 GT PUSH2 0x1DC JUMPI DUP1 PUSH4 0xAADED469 GT PUSH2 0x102 JUMPI DUP1 PUSH4 0xE086E5EC GT PUSH2 0xA0 JUMPI DUP1 PUSH4 0xF2FDE38B GT PUSH2 0x6F JUMPI DUP1 PUSH4 0xF2FDE38B EQ PUSH2 0xD71 JUMPI DUP1 PUSH4 0xF3E414F8 EQ PUSH2 0xD9A JUMPI DUP1 PUSH4 0xF6326FB3 EQ PUSH2 0xDC3 JUMPI DUP1 PUSH4 0xFE33E67D EQ PUSH2 0xDCD JUMPI PUSH2 0x396 JUMP JUMPDEST DUP1 PUSH4 0xE086E5EC EQ PUSH2 0xCDB JUMPI DUP1 PUSH4 0xE75235B8 EQ PUSH2 0xCF2 JUMPI DUP1 PUSH4 0xEE9D4AB6 EQ PUSH2 0xD1D JUMPI DUP1 PUSH4 0xEFC661E4 EQ PUSH2 0xD46 JUMPI PUSH2 0x396 JUMP JUMPDEST DUP1 PUSH4 0xB7CDDDCB GT PUSH2 0xDC JUMPI DUP1 PUSH4 0xB7CDDDCB EQ PUSH2 0xC1F JUMPI DUP1 PUSH4 0xC21C3316 EQ PUSH2 0xC36 JUMPI DUP1 PUSH4 0xC7172392 EQ PUSH2 0xC73 JUMPI DUP1 PUSH4 0xD652F46B EQ PUSH2 0xCB0 JUMPI PUSH2 0x396 JUMP JUMPDEST DUP1 PUSH4 0xAADED469 EQ PUSH2 0xB90 JUMPI DUP1 PUSH4 0xAAF2815F EQ PUSH2 0xBB9 JUMPI DUP1 PUSH4 0xAB9F15D4 EQ PUSH2 0xBF6 JUMPI PUSH2 0x396 JUMP JUMPDEST DUP1 PUSH4 0x8D0BDA63 GT PUSH2 0x17A JUMPI DUP1 PUSH4 0x960BFE04 GT PUSH2 0x149 JUMPI DUP1 PUSH4 0x960BFE04 EQ PUSH2 0xABD JUMPI DUP1 PUSH4 0x9C47C3A6 EQ PUSH2 0xAE6 JUMPI DUP1 PUSH4 0x9E8207FC EQ PUSH2 0xB26 JUMPI DUP1 PUSH4 0xA2C0453D EQ PUSH2 0xB65 JUMPI PUSH2 0x396 JUMP JUMPDEST DUP1 PUSH4 0x8D0BDA63 EQ PUSH2 0x9ED JUMPI DUP1 PUSH4 0x8DA5CB5B EQ PUSH2 0xA16 JUMPI DUP1 PUSH4 0x9047996E EQ PUSH2 0xA41 JUMPI DUP1 PUSH4 0x9325273D EQ PUSH2 0xA80 JUMPI PUSH2 0x396 JUMP JUMPDEST DUP1 PUSH4 0x7E76B071 GT PUSH2 0x1B6 JUMPI DUP1 PUSH4 0x7E76B071 EQ PUSH2 0x92D JUMPI DUP1 PUSH4 0x8456CB59 EQ PUSH2 0x96D JUMPI DUP1 PUSH4 0x855900AB EQ PUSH2 0x984 JUMPI DUP1 PUSH4 0x8C7E3A35 EQ PUSH2 0x9C4 JUMPI PUSH2 0x396 JUMP JUMPDEST DUP1 PUSH4 0x715018A6 EQ PUSH2 0x8AD JUMPI DUP1 PUSH4 0x7575268D EQ PUSH2 0x8C4 JUMPI DUP1 PUSH4 0x7A8974F3 EQ PUSH2 0x8ED JUMPI PUSH2 0x396 JUMP JUMPDEST DUP1 PUSH4 0x485CC955 GT PUSH2 0x2C1 JUMPI DUP1 PUSH4 0x5C975ABB GT PUSH2 0x25F JUMPI DUP1 PUSH4 0x6CB455B7 GT PUSH2 0x22E JUMPI DUP1 PUSH4 0x6CB455B7 EQ PUSH2 0x803 JUMPI DUP1 PUSH4 0x6E98B671 EQ PUSH2 0x82C JUMPI DUP1 PUSH4 0x6F9FB98A EQ PUSH2 0x857 JUMPI DUP1 PUSH4 0x714DBD35 EQ PUSH2 0x882 JUMPI PUSH2 0x396 JUMP JUMPDEST DUP1 PUSH4 0x5C975ABB EQ PUSH2 0x742 JUMPI DUP1 PUSH4 0x5D706B90 EQ PUSH2 0x76D JUMPI DUP1 PUSH4 0x644E808A EQ PUSH2 0x7AD JUMPI DUP1 PUSH4 0x6805B84B EQ PUSH2 0x7D8 JUMPI PUSH2 0x396 JUMP JUMPDEST DUP1 PUSH4 0x4F1EF286 GT PUSH2 0x29B JUMPI DUP1 PUSH4 0x4F1EF286 EQ PUSH2 0x6A7 JUMPI DUP1 PUSH4 0x51594748 EQ PUSH2 0x6C3 JUMPI DUP1 PUSH4 0x52D1902D EQ PUSH2 0x6EC JUMPI DUP1 PUSH4 0x5420A101 EQ PUSH2 0x717 JUMPI PUSH2 0x396 JUMP JUMPDEST DUP1 PUSH4 0x485CC955 EQ PUSH2 0x618 JUMPI DUP1 PUSH4 0x49DF728C EQ PUSH2 0x641 JUMPI DUP1 PUSH4 0x4B032D74 EQ PUSH2 0x66A JUMPI PUSH2 0x396 JUMP JUMPDEST DUP1 PUSH4 0x3659CFE6 GT PUSH2 0x32E JUMPI DUP1 PUSH4 0x3F4BA83A GT PUSH2 0x308 JUMPI DUP1 PUSH4 0x3F4BA83A EQ PUSH2 0x56E JUMPI DUP1 PUSH4 0x420874EF EQ PUSH2 0x585 JUMPI DUP1 PUSH4 0x4279B9A8 EQ PUSH2 0x5C4 JUMPI DUP1 PUSH4 0x485CA920 EQ PUSH2 0x5ED JUMPI PUSH2 0x396 JUMP JUMPDEST DUP1 PUSH4 0x3659CFE6 EQ PUSH2 0x4D9 JUMPI DUP1 PUSH4 0x3CF761D0 EQ PUSH2 0x502 JUMPI DUP1 PUSH4 0x3DA57FA8 EQ PUSH2 0x530 JUMPI PUSH2 0x396 JUMP JUMPDEST DUP1 PUSH4 0x150B7A02 GT PUSH2 0x36A JUMPI DUP1 PUSH4 0x150B7A02 EQ PUSH2 0x40B JUMPI DUP1 PUSH4 0x160A6541 EQ PUSH2 0x448 JUMPI DUP1 PUSH4 0x19261D3E EQ PUSH2 0x473 JUMPI DUP1 PUSH4 0x2A707BD2 EQ PUSH2 0x49C JUMPI PUSH2 0x396 JUMP JUMPDEST DUP1 PUSH3 0xA90BDD EQ PUSH2 0x39B JUMPI DUP1 PUSH4 0x6D0D5B3 EQ PUSH2 0x3C6 JUMPI DUP1 PUSH4 0x8EFBC2A EQ PUSH2 0x3E2 JUMPI PUSH2 0x396 JUMP JUMPDEST CALLDATASIZE PUSH2 0x396 JUMPI STOP JUMPDEST PUSH1 0x0 DUP1 REVERT JUMPDEST CALLVALUE DUP1 ISZERO PUSH2 0x3A7 JUMPI PUSH1 0x0 DUP1 REVERT JUMPDEST POP PUSH2 0x3B0 PUSH2 0xDF8 JUMP JUMPDEST PUSH1 0x40 MLOAD PUSH2 0x3BD SWAP2 SWAP1 PUSH2 0x79B1 JUMP JUMPDEST PUSH1 0x40 MLOAD DUP1 SWAP2 SUB SWAP1 RETURN JUMPDEST PUSH2 0x3E0 PUSH1 0x4 DUP1 CALLDATASIZE SUB DUP2 ADD SWAP1 PUSH2 0x3DB SWAP2 SWAP1 PUSH2 0x7A42 JUMP JUMPDEST PUSH2 0xE10 JUMP JUMPDEST STOP JUMPDEST CALLVALUE DUP1 ISZERO PUSH2 0x3EE JUMPI PUSH1 0x0 DUP1 REVERT JUMPDEST POP PUSH2 0x409 PUSH1 0x4 DUP1 CALLDATASIZE SUB DUP2 ADD SWAP1 PUSH2 0x404 SWAP2 SWAP1 PUSH2 0x7A82 JUMP JUMPDEST PUSH2 0x14BE JUMP JUMPDEST STOP JUMPDEST CALLVALUE DUP1 ISZERO PUSH2 0x417 JUMPI PUSH1 0x0 DUP1 REVERT JUMPDEST POP PUSH2 0x432 PUSH1 0x4 DUP1 CALLDATASIZE SUB DUP2 ADD SWAP1 PUSH2 0x42D SWAP2 SWAP1 PUSH2 0x7B72 JUMP JUMPDEST PUSH2 0x14E5 JUMP JUMPDEST PUSH1 0x40 MLOAD PUSH2 0x43F SWAP2 SWAP1 PUSH2 0x7C35 JUMP JUMPDEST PUSH1 0x40 MLOAD DUP1 SWAP2 SUB SWAP1 RETURN JUMPDEST CALLVALUE DUP1 ISZERO PUSH2 0x454 JUMPI PUSH1 0x0 DUP1 REVERT JUMPDEST POP PUSH2 0x45D PUSH2 0x14FA JUMP JUMPDEST PUSH1 0x40 MLOAD PUSH2 0x46A SWAP2 SWAP1 PUSH2 0x7C5F JUMP JUMPDEST PUSH1 0x40 MLOAD DUP1 SWAP2 SUB SWAP1 RETURN JUMPDEST CALLVALUE DUP1 ISZERO PUSH2 0x47F JUMPI PUSH1 0x0 DUP1 REVERT JUMPDEST POP PUSH2 0x49A PUSH1 0x4 DUP1 CALLDATASIZE SUB DUP2 ADD SWAP1 PUSH2 0x495 SWAP2 SWAP1 PUSH2 0x7C7A JUMP JUMPDEST PUSH2 0x1516 JUMP JUMPDEST STOP JUMPDEST CALLVALUE DUP1 ISZERO PUSH2 0x4A8 JUMPI PUSH1 0x0 DUP1 REVERT JUMPDEST POP PUSH2 0x4C3 PUSH1 0x4 DUP1 CALLDATASIZE SUB DUP2 ADD SWAP1 PUSH2 0x4BE SWAP2 SWAP1 PUSH2 0x7C7A JUMP JUMPDEST PUSH2 0x15C9 JUMP JUMPDEST PUSH1 0x40 MLOAD PUSH2 0x4D0 SWAP2 SWAP1 PUSH2 0x7C5F JUMP JUMPDEST PUSH1 0x40 MLOAD DUP1 SWAP2 SUB SWAP1 RETURN JUMPDEST CALLVALUE DUP1 ISZERO PUSH2 0x4E5 JUMPI PUSH1 0x0 DUP1 REVERT JUMPDEST POP PUSH2 0x500 PUSH1 0x4 DUP1 CALLDATASIZE SUB DUP2 ADD SWAP1 PUSH2 0x4FB SWAP2 SWAP1 PUSH2 0x7C7A JUMP JUMPDEST PUSH2 0x1B07 JUMP JUMPDEST STOP JUMPDEST CALLVALUE DUP1 ISZERO PUSH2 0x50E JUMPI PUSH1 0x0 DUP1 REVERT JUMPDEST POP PUSH2 0x517 PUSH2 0x1C8F JUMP JUMPDEST PUSH1 0x40 MLOAD PUSH2 0x527 SWAP5 SWAP4 SWAP3 SWAP2 SWAP1 PUSH2 0x7CA7 JUMP JUMPDEST PUSH1 0x40 MLOAD DUP1 SWAP2 SUB SWAP1 RETURN JUMPDEST CALLVALUE DUP1 ISZERO PUSH2 0x53C JUMPI PUSH1 0x0 DUP1 REVERT JUMPDEST POP PUSH2 0x557 PUSH1 0x4 DUP1 CALLDATASIZE SUB DUP2 ADD SWAP1 PUSH2 0x552 SWAP2 SWAP1 PUSH2 0x7CEC JUMP JUMPDEST PUSH2 0x1D0F JUMP JUMPDEST PUSH1 0x40 MLOAD PUSH2 0x565 SWAP3 SWAP2 SWAP1 PUSH2 0x7D19 JUMP JUMPDEST PUSH1 0x40 MLOAD DUP1 SWAP2 SUB SWAP1 RETURN JUMPDEST CALLVALUE DUP1 ISZERO PUSH2 0x57A JUMPI PUSH1 0x0 DUP1 REVERT JUMPDEST POP PUSH2 0x583 PUSH2 0x1D4B JUMP JUMPDEST STOP JUMPDEST CALLVALUE DUP1 ISZERO PUSH2 0x591 JUMPI PUSH1 0x0 DUP1 REVERT JUMPDEST POP PUSH2 0x5AC PUSH1 0x4 DUP1 CALLDATASIZE SUB DUP2 ADD SWAP1 PUSH2 0x5A7 SWAP2 SWAP1 PUSH2 0x7D42 JUMP JUMPDEST PUSH2 0x1D5D JUMP JUMPDEST PUSH1 0x40 MLOAD PUSH2 0x5BB SWAP4 SWAP3 SWAP2 SWAP1 PUSH2 0x7D82 JUMP JUMPDEST PUSH1 0x40 MLOAD DUP1 SWAP2 SUB SWAP1 RETURN JUMPDEST CALLVALUE DUP1 ISZERO PUSH2 0x5D0 JUMPI PUSH1 0x0 DUP1 REVERT JUMPDEST POP PUSH2 0x5EB PUSH1 0x4 DUP1 CALLDATASIZE SUB DUP2 ADD SWAP1 PUSH2 0x5E6 SWAP2 SWAP1 PUSH2 0x7C7A JUMP JUMPDEST PUSH2 0x1EB0 JUMP JUMPDEST STOP JUMPDEST CALLVALUE DUP1 ISZERO PUSH2 0x5F9 JUMPI PUSH1 0x0 DUP1 REVERT JUMPDEST POP PUSH2 0x602 PUSH2 0x1F63 JUMP JUMPDEST PUSH1 0x40 MLOAD PUSH2 0x60F SWAP2 SWAP1 PUSH2 0x7C5F JUMP JUMPDEST PUSH1 0x40 MLOAD DUP1 SWAP2 SUB SWAP1 RETURN JUMPDEST CALLVALUE DUP1 ISZERO PUSH2 0x624 JUMPI PUSH1 0x0 DUP1 REVERT JUMPDEST POP PUSH2 0x63F PUSH1 0x4 DUP1 CALLDATASIZE SUB DUP2 ADD SWAP1 PUSH2 0x63A SWAP2 SWAP1 PUSH2 0x7DB9 JUMP JUMPDEST PUSH2 0x1F6E JUMP JUMPDEST STOP JUMPDEST CALLVALUE DUP1 ISZERO PUSH2 0x64D JUMPI PUSH1 0x0 DUP1 REVERT JUMPDEST POP PUSH2 0x668 PUSH1 0x4 DUP1 CALLDATASIZE SUB DUP2 ADD SWAP1 PUSH2 0x663 SWAP2 SWAP1 PUSH2 0x7C7A JUMP JUMPDEST PUSH2 0x247C JUMP JUMPDEST STOP JUMPDEST CALLVALUE DUP1 ISZERO PUSH2 0x676 JUMPI PUSH1 0x0 DUP1 REVERT JUMPDEST POP PUSH2 0x691 PUSH1 0x4 DUP1 CALLDATASIZE SUB DUP2 ADD SWAP1 PUSH2 0x68C SWAP2 SWAP1 PUSH2 0x7C7A JUMP JUMPDEST PUSH2 0x2585 JUMP JUMPDEST PUSH1 0x40 MLOAD PUSH2 0x69E SWAP2 SWAP1 PUSH2 0x7C5F JUMP JUMPDEST PUSH1 0x40 MLOAD DUP1 SWAP2 SUB SWAP1 RETURN JUMPDEST PUSH2 0x6C1 PUSH1 0x4 DUP1 CALLDATASIZE SUB DUP2 ADD SWAP1 PUSH2 0x6BC SWAP2 SWAP1 PUSH2 0x7F3A JUMP JUMPDEST PUSH2 0x2C90 JUMP JUMPDEST STOP JUMPDEST CALLVALUE DUP1 ISZERO PUSH2 0x6CF JUMPI PUSH1 0x0 DUP1 REVERT JUMPDEST POP PUSH2 0x6EA PUSH1 0x4 DUP1 CALLDATASIZE SUB DUP2 ADD SWAP1 PUSH2 0x6E5 SWAP2 SWAP1 PUSH2 0x7FD1 JUMP JUMPDEST PUSH2 0x2DCC JUMP JUMPDEST STOP JUMPDEST CALLVALUE DUP1 ISZERO PUSH2 0x6F8 JUMPI PUSH1 0x0 DUP1 REVERT JUMPDEST POP PUSH2 0x701 PUSH2 0x2DE4 JUMP JUMPDEST PUSH1 0x40 MLOAD PUSH2 0x70E SWAP2 SWAP1 PUSH2 0x8017 JUMP JUMPDEST PUSH1 0x40 MLOAD DUP1 SWAP2 SUB SWAP1 RETURN JUMPDEST CALLVALUE DUP1 ISZERO PUSH2 0x723 JUMPI PUSH1 0x0 DUP1 REVERT JUMPDEST POP PUSH2 0x72C PUSH2 0x2E9D JUMP JUMPDEST PUSH1 0x40 MLOAD PUSH2 0x739 SWAP2 SWAP1 PUSH2 0x8041 JUMP JUMPDEST PUSH1 0x40 MLOAD DUP1 SWAP2 SUB SWAP1 RETURN JUMPDEST CALLVALUE DUP1 ISZERO PUSH2 0x74E JUMPI PUSH1 0x0 DUP1 REVERT JUMPDEST POP PUSH2 0x757 PUSH2 0x2EC8 JUMP JUMPDEST PUSH1 0x40 MLOAD PUSH2 0x764 SWAP2 SWAP1 PUSH2 0x8077 JUMP JUMPDEST PUSH1 0x40 MLOAD DUP1 SWAP2 SUB SWAP1 RETURN JUMPDEST CALLVALUE DUP1 ISZERO PUSH2 0x779 JUMPI PUSH1 0x0 DUP1 REVERT JUMPDEST POP PUSH2 0x794 PUSH1 0x4 DUP1 CALLDATASIZE SUB DUP2 ADD SWAP1 PUSH2 0x78F SWAP2 SWAP1 PUSH2 0x7D42 JUMP JUMPDEST PUSH2 0x2EDF JUMP JUMPDEST PUSH1 0x40 MLOAD PUSH2 0x7A4 SWAP5 SWAP4 SWAP3 SWAP2 SWAP1 PUSH2 0x8150 JUMP JUMPDEST PUSH1 0x40 MLOAD DUP1 SWAP2 SUB SWAP1 RETURN JUMPDEST CALLVALUE DUP1 ISZERO PUSH2 0x7B9 JUMPI PUSH1 0x0 DUP1 REVERT JUMPDEST POP PUSH2 0x7C2 PUSH2 0x3096 JUMP JUMPDEST PUSH1 0x40 MLOAD PUSH2 0x7CF SWAP2 SWAP1 PUSH2 0x7C5F JUMP JUMPDEST PUSH1 0x40 MLOAD DUP1 SWAP2 SUB SWAP1 RETURN JUMPDEST CALLVALUE DUP1 ISZERO PUSH2 0x7E4 JUMPI PUSH1 0x0 DUP1 REVERT JUMPDEST POP PUSH2 0x7ED PUSH2 0x30A1 JUMP JUMPDEST PUSH1 0x40 MLOAD PUSH2 0x7FA SWAP2 SWAP1 PUSH2 0x8077 JUMP JUMPDEST PUSH1 0x40 MLOAD DUP1 SWAP2 SUB SWAP1 RETURN JUMPDEST CALLVALUE DUP1 ISZERO PUSH2 0x80F JUMPI PUSH1 0x0 DUP1 REVERT JUMPDEST POP PUSH2 0x82A PUSH1 0x4 DUP1 CALLDATASIZE SUB DUP2 ADD SWAP1 PUSH2 0x825 SWAP2 SWAP1 PUSH2 0x7CEC JUMP JUMPDEST PUSH2 0x30B0 JUMP JUMPDEST STOP JUMPDEST CALLVALUE DUP1 ISZERO PUSH2 0x838 JUMPI PUSH1 0x0 DUP1 REVERT JUMPDEST POP PUSH2 0x841 PUSH2 0x30C3 JUMP JUMPDEST PUSH1 0x40 MLOAD PUSH2 0x84E SWAP2 SWAP1 PUSH2 0x7C5F JUMP JUMPDEST PUSH1 0x40 MLOAD DUP1 SWAP2 SUB SWAP1 RETURN JUMPDEST CALLVALUE DUP1 ISZERO PUSH2 0x863 JUMPI PUSH1 0x0 DUP1 REVERT JUMPDEST POP PUSH2 0x86C PUSH2 0x30CE JUMP JUMPDEST PUSH1 0x40 MLOAD PUSH2 0x879 SWAP2 SWAP1 PUSH2 0x7C5F JUMP JUMPDEST PUSH1 0x40 MLOAD DUP1 SWAP2 SUB SWAP1 RETURN JUMPDEST CALLVALUE DUP1 ISZERO PUSH2 0x88E JUMPI PUSH1 0x0 DUP1 REVERT JUMPDEST POP PUSH2 0x897 PUSH2 0x30D6 JUMP JUMPDEST PUSH1 0x40 MLOAD PUSH2 0x8A4 SWAP2 SWAP1 PUSH2 0x7C5F JUMP JUMPDEST PUSH1 0x40 MLOAD DUP1 SWAP2 SUB SWAP1 RETURN JUMPDEST CALLVALUE DUP1 ISZERO PUSH2 0x8B9 JUMPI PUSH1 0x0 DUP1 REVERT JUMPDEST POP PUSH2 0x8C2 PUSH2 0x317A JUMP JUMPDEST STOP JUMPDEST CALLVALUE DUP1 ISZERO PUSH2 0x8D0 JUMPI PUSH1 0x0 DUP1 REVERT JUMPDEST POP PUSH2 0x8EB PUSH1 0x4 DUP1 CALLDATASIZE SUB DUP2 ADD SWAP1 PUSH2 0x8E6 SWAP2 SWAP1 PUSH2 0x81D8 JUMP JUMPDEST PUSH2 0x318E JUMP JUMPDEST STOP JUMPDEST CALLVALUE DUP1 ISZERO PUSH2 0x8F9 JUMPI PUSH1 0x0 DUP1 REVERT JUMPDEST POP PUSH2 0x914 PUSH1 0x4 DUP1 CALLDATASIZE SUB DUP2 ADD SWAP1 PUSH2 0x90F SWAP2 SWAP1 PUSH2 0x7CEC JUMP JUMPDEST PUSH2 0x3287 JUMP JUMPDEST PUSH1 0x40 MLOAD PUSH2 0x924 SWAP5 SWAP4 SWAP3 SWAP2 SWAP1 PUSH2 0x7CA7 JUMP JUMPDEST PUSH1 0x40 MLOAD DUP1 SWAP2 SUB SWAP1 RETURN JUMPDEST CALLVALUE DUP1 ISZERO PUSH2 0x939 JUMPI PUSH1 0x0 DUP1 REVERT JUMPDEST POP PUSH2 0x954 PUSH1 0x4 DUP1 CALLDATASIZE SUB DUP2 ADD SWAP1 PUSH2 0x94F SWAP2 SWAP1 PUSH2 0x7C7A JUMP JUMPDEST PUSH2 0x32FC JUMP JUMPDEST PUSH1 0x40 MLOAD PUSH2 0x964 SWAP5 SWAP4 SWAP3 SWAP2 SWAP1 PUSH2 0x8150 JUMP JUMPDEST PUSH1 0x40 MLOAD DUP1 SWAP2 SUB SWAP1 RETURN JUMPDEST CALLVALUE DUP1 ISZERO PUSH2 0x979 JUMPI PUSH1 0x0 DUP1 REVERT JUMPDEST POP PUSH2 0x982 PUSH2 0x352C JUMP JUMPDEST STOP JUMPDEST CALLVALUE DUP1 ISZERO PUSH2 0x990 JUMPI PUSH1 0x0 DUP1 REVERT JUMPDEST POP PUSH2 0x9AB PUSH1 0x4 DUP1 CALLDATASIZE SUB DUP2 ADD SWAP1 PUSH2 0x9A6 SWAP2 SWAP1 PUSH2 0x7D42 JUMP JUMPDEST PUSH2 0x353E JUMP JUMPDEST PUSH1 0x40 MLOAD PUSH2 0x9BB SWAP5 SWAP4 SWAP3 SWAP2 SWAP1 PUSH2 0x7CA7 JUMP JUMPDEST PUSH1 0x40 MLOAD DUP1 SWAP2 SUB SWAP1 RETURN JUMPDEST CALLVALUE DUP1 ISZERO PUSH2 0x9D0 JUMPI PUSH1 0x0 DUP1 REVERT JUMPDEST POP PUSH2 0x9EB PUSH1 0x4 DUP1 CALLDATASIZE SUB DUP2 ADD SWAP1 PUSH2 0x9E6 SWAP2 SWAP1 PUSH2 0x8302 JUMP JUMPDEST PUSH2 0x36A6 JUMP JUMPDEST STOP JUMPDEST CALLVALUE DUP1 ISZERO PUSH2 0x9F9 JUMPI PUSH1 0x0 DUP1 REVERT JUMPDEST POP PUSH2 0xA14 PUSH1 0x4 DUP1 CALLDATASIZE SUB DUP2 ADD SWAP1 PUSH2 0xA0F SWAP2 SWAP1 PUSH2 0x835E JUMP JUMPDEST PUSH2 0x3F35 JUMP JUMPDEST STOP JUMPDEST CALLVALUE DUP1 ISZERO PUSH2 0xA22 JUMPI PUSH1 0x0 DUP1 REVERT JUMPDEST POP PUSH2 0xA2B PUSH2 0x48FB JUMP JUMPDEST PUSH1 0x40 MLOAD PUSH2 0xA38 SWAP2 SWAP1 PUSH2 0x8041 JUMP JUMPDEST PUSH1 0x40 MLOAD DUP1 SWAP2 SUB SWAP1 RETURN JUMPDEST CALLVALUE DUP1 ISZERO PUSH2 0xA4D JUMPI PUSH1 0x0 DUP1 REVERT JUMPDEST POP PUSH2 0xA68 PUSH1 0x4 DUP1 CALLDATASIZE SUB DUP2 ADD SWAP1 PUSH2 0xA63 SWAP2 SWAP1 PUSH2 0x7C7A JUMP JUMPDEST PUSH2 0x4925 JUMP JUMPDEST PUSH1 0x40 MLOAD PUSH2 0xA77 SWAP4 SWAP3 SWAP2 SWAP1 PUSH2 0x7D82 JUMP JUMPDEST PUSH1 0x40 MLOAD DUP1 SWAP2 SUB SWAP1 RETURN JUMPDEST CALLVALUE DUP1 ISZERO PUSH2 0xA8C JUMPI PUSH1 0x0 DUP1 REVERT JUMPDEST POP PUSH2 0xAA7 PUSH1 0x4 DUP1 CALLDATASIZE SUB DUP2 ADD SWAP1 PUSH2 0xAA2 SWAP2 SWAP1 PUSH2 0x7D42 JUMP JUMPDEST PUSH2 0x4A19 JUMP JUMPDEST PUSH1 0x40 MLOAD PUSH2 0xAB4 SWAP2 SWAP1 PUSH2 0x7C5F JUMP JUMPDEST PUSH1 0x40 MLOAD DUP1 SWAP2 SUB SWAP1 RETURN JUMPDEST CALLVALUE DUP1 ISZERO PUSH2 0xAC9 JUMPI PUSH1 0x0 DUP1 REVERT JUMPDEST POP PUSH2 0xAE4 PUSH1 0x4 DUP1 CALLDATASIZE SUB DUP2 ADD SWAP1 PUSH2 0xADF SWAP2 SWAP1 PUSH2 0x7CEC JUMP JUMPDEST PUSH2 0x4EA3 JUMP JUMPDEST STOP JUMPDEST CALLVALUE DUP1 ISZERO PUSH2 0xAF2 JUMPI PUSH1 0x0 DUP1 REVERT JUMPDEST POP PUSH2 0xB0D PUSH1 0x4 DUP1 CALLDATASIZE SUB DUP2 ADD SWAP1 PUSH2 0xB08 SWAP2 SWAP1 PUSH2 0x7A82 JUMP JUMPDEST PUSH2 0x4EB6 JUMP JUMPDEST PUSH1 0x40 MLOAD PUSH2 0xB1D SWAP5 SWAP4 SWAP3 SWAP2 SWAP1 PUSH2 0x83C9 JUMP JUMPDEST PUSH1 0x40 MLOAD DUP1 SWAP2 SUB SWAP1 RETURN JUMPDEST CALLVALUE DUP1 ISZERO PUSH2 0xB32 JUMPI PUSH1 0x0 DUP1 REVERT JUMPDEST POP PUSH2 0xB4D PUSH1 0x4 DUP1 CALLDATASIZE SUB DUP2 ADD SWAP1 PUSH2 0xB48 SWAP2 SWAP1 PUSH2 0x7C7A JUMP JUMPDEST PUSH2 0x4FA8 JUMP JUMPDEST PUSH1 0x40 MLOAD PUSH2 0xB5C SWAP4 SWAP3 SWAP2 SWAP1 PUSH2 0x7D82 JUMP JUMPDEST PUSH1 0x40 MLOAD DUP1 SWAP2 SUB SWAP1 RETURN JUMPDEST CALLVALUE DUP1 ISZERO PUSH2 0xB71 JUMPI PUSH1 0x0 DUP1 REVERT JUMPDEST POP PUSH2 0xB7A PUSH2 0x512B JUMP JUMPDEST PUSH1 0x40 MLOAD PUSH2 0xB87 SWAP2 SWAP1 PUSH2 0x7C5F JUMP JUMPDEST PUSH1 0x40 MLOAD DUP1 SWAP2 SUB SWAP1 RETURN JUMPDEST CALLVALUE DUP1 ISZERO PUSH2 0xB9C JUMPI PUSH1 0x0 DUP1 REVERT JUMPDEST POP PUSH2 0xBB7 PUSH1 0x4 DUP1 CALLDATASIZE SUB DUP2 ADD SWAP1 PUSH2 0xBB2 SWAP2 SWAP1 PUSH2 0x7A82 JUMP JUMPDEST PUSH2 0x5136 JUMP JUMPDEST STOP JUMPDEST CALLVALUE DUP1 ISZERO PUSH2 0xBC5 JUMPI PUSH1 0x0 DUP1 REVERT JUMPDEST POP PUSH2 0xBE0 PUSH1 0x4 DUP1 CALLDATASIZE SUB DUP2 ADD SWAP1 PUSH2 0xBDB SWAP2 SWAP1 PUSH2 0x7D42 JUMP JUMPDEST PUSH2 0x57F9 JUMP JUMPDEST PUSH1 0x40 MLOAD PUSH2 0xBED SWAP2 SWAP1 PUSH2 0x841D JUMP JUMPDEST PUSH1 0x40 MLOAD DUP1 SWAP2 SUB SWAP1 RETURN JUMPDEST CALLVALUE DUP1 ISZERO PUSH2 0xC02 JUMPI PUSH1 0x0 DUP1 REVERT JUMPDEST POP PUSH2 0xC1D PUSH1 0x4 DUP1 CALLDATASIZE SUB DUP2 ADD SWAP1 PUSH2 0xC18 SWAP2 SWAP1 PUSH2 0x8438 JUMP JUMPDEST PUSH2 0x5AAF JUMP JUMPDEST STOP JUMPDEST CALLVALUE DUP1 ISZERO PUSH2 0xC2B JUMPI PUSH1 0x0 DUP1 REVERT JUMPDEST POP PUSH2 0xC34 PUSH2 0x61D4 JUMP JUMPDEST STOP JUMPDEST CALLVALUE DUP1 ISZERO PUSH2 0xC42 JUMPI PUSH1 0x0 DUP1 REVERT JUMPDEST POP PUSH2 0xC5D PUSH1 0x4 DUP1 CALLDATASIZE SUB DUP2 ADD SWAP1 PUSH2 0xC58 SWAP2 SWAP1 PUSH2 0x7C7A JUMP JUMPDEST PUSH2 0x643E JUMP JUMPDEST PUSH1 0x40 MLOAD PUSH2 0xC6A SWAP2 SWAP1 PUSH2 0x8569 JUMP JUMPDEST PUSH1 0x40 MLOAD DUP1 SWAP2 SUB SWAP1 RETURN JUMPDEST CALLVALUE DUP1 ISZERO PUSH2 0xC7F JUMPI PUSH1 0x0 DUP1 REVERT JUMPDEST POP PUSH2 0xC9A PUSH1 0x4 DUP1 CALLDATASIZE SUB DUP2 ADD SWAP1 PUSH2 0xC95 SWAP2 SWAP1 PUSH2 0x7C7A JUMP JUMPDEST PUSH2 0x6561 JUMP JUMPDEST PUSH1 0x40 MLOAD PUSH2 0xCA7 SWAP2 SWAP1 PUSH2 0x871F JUMP JUMPDEST PUSH1 0x40 MLOAD DUP1 SWAP2 SUB SWAP1 RETURN JUMPDEST CALLVALUE DUP1 ISZERO PUSH2 0xCBC JUMPI PUSH1 0x0 DUP1 REVERT JUMPDEST POP PUSH2 0xCC5 PUSH2 0x66DC JUMP JUMPDEST PUSH1 0x40 MLOAD PUSH2 0xCD2 SWAP2 SWAP1 PUSH2 0x7C5F JUMP JUMPDEST PUSH1 0x40 MLOAD DUP1 SWAP2 SUB SWAP1 RETURN JUMPDEST CALLVALUE DUP1 ISZERO PUSH2 0xCE7 JUMPI PUSH1 0x0 DUP1 REVERT JUMPDEST POP PUSH2 0xCF0 PUSH2 0x66E7 JUMP JUMPDEST STOP JUMPDEST CALLVALUE DUP1 ISZERO PUSH2 0xCFE JUMPI PUSH1 0x0 DUP1 REVERT JUMPDEST POP PUSH2 0xD07 PUSH2 0x6795 JUMP JUMPDEST PUSH1 0x40 MLOAD PUSH2 0xD14 SWAP2 SWAP1 PUSH2 0x7C5F JUMP JUMPDEST PUSH1 0x40 MLOAD DUP1 SWAP2 SUB SWAP1 RETURN JUMPDEST CALLVALUE DUP1 ISZERO PUSH2 0xD29 JUMPI PUSH1 0x0 DUP1 REVERT JUMPDEST POP PUSH2 0xD44 PUSH1 0x4 DUP1 CALLDATASIZE SUB DUP2 ADD SWAP1 PUSH2 0xD3F SWAP2 SWAP1 PUSH2 0x8804 JUMP JUMPDEST PUSH2 0x67A0 JUMP JUMPDEST STOP JUMPDEST CALLVALUE DUP1 ISZERO PUSH2 0xD52 JUMPI PUSH1 0x0 DUP1 REVERT JUMPDEST POP PUSH2 0xD5B PUSH2 0x67C3 JUMP JUMPDEST PUSH1 0x40 MLOAD PUSH2 0xD68 SWAP2 SWAP1 PUSH2 0x890B JUMP JUMPDEST PUSH1 0x40 MLOAD DUP1 SWAP2 SUB SWAP1 RETURN JUMPDEST CALLVALUE DUP1 ISZERO PUSH2 0xD7D JUMPI PUSH1 0x0 DUP1 REVERT JUMPDEST POP PUSH2 0xD98 PUSH1 0x4 DUP1 CALLDATASIZE SUB DUP2 ADD SWAP1 PUSH2 0xD93 SWAP2 SWAP1 PUSH2 0x7C7A JUMP JUMPDEST PUSH2 0x6842 JUMP JUMPDEST STOP JUMPDEST CALLVALUE DUP1 ISZERO PUSH2 0xDA6 JUMPI PUSH1 0x0 DUP1 REVERT JUMPDEST POP PUSH2 0xDC1 PUSH1 0x4 DUP1 CALLDATASIZE SUB DUP2 ADD SWAP1 PUSH2 0xDBC SWAP2 SWAP1 PUSH2 0x892D JUMP JUMPDEST PUSH2 0x68C5 JUMP JUMPDEST STOP JUMPDEST PUSH2 0xDCB PUSH2 0x6940 JUMP JUMPDEST STOP JUMPDEST CALLVALUE DUP1 ISZERO PUSH2 0xDD9 JUMPI PUSH1 0x0 DUP1 REVERT JUMPDEST POP PUSH2 0xDE2 PUSH2 0x6CBC JUMP JUMPDEST PUSH1 0x40 MLOAD PUSH2 0xDEF SWAP2 SWAP1 PUSH2 0x8041 JUMP JUMPDEST PUSH1 0x40 MLOAD DUP1 SWAP2 SUB SWAP1 RETURN JUMPDEST PUSH1 0x0 PUSH2 0x136 PUSH1 0x0 SWAP1 SLOAD SWAP1 PUSH2 0x100 EXP SWAP1 DIV PUSH1 0xFF AND SWAP1 POP SWAP1 JUMP JUMPDEST PUSH2 0xE18 PUSH2 0x6CE7 JUMP JUMPDEST PUSH2 0xE20 PUSH2 0x6D31 JUMP JUMPDEST PUSH1 0x0 PUSH2 0x137 DUP1 SLOAD SWAP1 POP SWAP1 POP PUSH1 0x0 PUSH2 0x139 PUSH1 0x0 CALLER PUSH20 0xFFFFFFFFFFFFFFFFFFFFFFFFFFFFFFFFFFFFFFFF AND PUSH20 0xFFFFFFFFFFFFFFFFFFFFFFFFFFFFFFFFFFFFFFFF AND DUP2 MSTORE PUSH1 0x20 ADD SWAP1 DUP2 MSTORE PUSH1 0x20 ADD PUSH1 0x0 KECCAK256 DUP1 SLOAD SWAP1 POP SWAP1 POP PUSH1 0x0 DUP5 SWAP1 POP PUSH1 0x0 DUP6 SUB PUSH2 0xEB2 JUMPI PUSH1 0x40 MLOAD PUSH32 0x964E9C0000000000000000000000000000000000000000000000000000000000 DUP2 MSTORE PUSH1 0x4 ADD PUSH1 0x40 MLOAD DUP1 SWAP2 SUB SWAP1 REVERT JUMPDEST DUP5 PUSH2 0x12D PUSH1 0x0 SWAP1 SLOAD SWAP1 PUSH2 0x100 EXP SWAP1 DIV PUSH20 0xFFFFFFFFFFFFFFFFFFFFFFFFFFFFFFFFFFFFFFFF AND PUSH20 0xFFFFFFFFFFFFFFFFFFFFFFFFFFFFFFFFFFFFFFFF AND PUSH4 0x70A08231 CALLER PUSH1 0x40 MLOAD DUP3 PUSH4 0xFFFFFFFF AND PUSH1 0xE0 SHL DUP2 MSTORE PUSH1 0x4 ADD PUSH2 0xF0F SWAP2 SWAP1 PUSH2 0x8041 JUMP JUMPDEST PUSH1 0x20 PUSH1 0x40 MLOAD DUP1 DUP4 SUB DUP2 DUP7 GAS STATICCALL ISZERO DUP1 ISZERO PUSH2 0xF2C JUMPI RETURNDATASIZE PUSH1 0x0 DUP1 RETURNDATACOPY RETURNDATASIZE PUSH1 0x0 REVERT JUMPDEST POP POP POP POP PUSH1 0x40 MLOAD RETURNDATASIZE PUSH1 0x1F NOT PUSH1 0x1F DUP3 ADD AND DUP3 ADD DUP1 PUSH1 0x40 MSTORE POP DUP2 ADD SWAP1 PUSH2 0xF50 SWAP2 SWAP1 PUSH2 0x8982 JUMP JUMPDEST LT ISZERO PUSH2 0xF88 JUMPI PUSH1 0x40 MLOAD PUSH32 0x4BB2437200000000000000000000000000000000000000000000000000000000 DUP2 MSTORE PUSH1 0x4 ADD PUSH1 0x40 MLOAD DUP1 SWAP2 SUB SWAP1 REVERT JUMPDEST DUP3 DUP5 PUSH1 0xFF AND LT PUSH2 0xFC4 JUMPI PUSH1 0x40 MLOAD PUSH32 0x54CF5A200000000000000000000000000000000000000000000000000000000 DUP2 MSTORE PUSH1 0x4 ADD PUSH1 0x40 MLOAD DUP1 SWAP2 SUB SWAP1 REVERT JUMPDEST DUP5 PUSH2 0x12D PUSH1 0x0 SWAP1 SLOAD SWAP1 PUSH2 0x100 EXP SWAP1 DIV PUSH20 0xFFFFFFFFFFFFFFFFFFFFFFFFFFFFFFFFFFFFFFFF AND PUSH20 0xFFFFFFFFFFFFFFFFFFFFFFFFFFFFFFFFFFFFFFFF AND PUSH4 0xDD62ED3E CALLER ADDRESS PUSH1 0x40 MLOAD DUP4 PUSH4 0xFFFFFFFF AND PUSH1 0xE0 SHL DUP2 MSTORE PUSH1 0x4 ADD PUSH2 0x1023 SWAP3 SWAP2 SWAP1 PUSH2 0x89AF JUMP JUMPDEST PUSH1 0x20 PUSH1 0x40 MLOAD DUP1 DUP4 SUB DUP2 DUP7 GAS STATICCALL ISZERO DUP1 ISZERO PUSH2 0x1040 JUMPI RETURNDATASIZE PUSH1 0x0 DUP1 RETURNDATACOPY RETURNDATASIZE PUSH1 0x0 REVERT JUMPDEST POP POP POP POP PUSH1 0x40 MLOAD RETURNDATASIZE PUSH1 0x1F NOT PUSH1 0x1F DUP3 ADD AND DUP3 ADD DUP1 PUSH1 0x40 MSTORE POP DUP2 ADD SWAP1 PUSH2 0x1064 SWAP2 SWAP1 PUSH2 0x8982 JUMP JUMPDEST LT ISZERO PUSH2 0x109C JUMPI PUSH1 0x40 MLOAD PUSH32 0x8990D1B600000000000000000000000000000000000000000000000000000000 DUP2 MSTORE PUSH1 0x4 ADD PUSH1 0x40 MLOAD DUP1 SWAP2 SUB SWAP1 REVERT JUMPDEST PUSH2 0x10A4 PUSH2 0x771A JUMP JUMPDEST PUSH1 0x0 DUP4 GT ISZERO PUSH2 0x1157 JUMPI PUSH2 0x139 PUSH1 0x0 CALLER PUSH20 0xFFFFFFFFFFFFFFFFFFFFFFFFFFFFFFFFFFFFFFFF AND PUSH20 0xFFFFFFFFFFFFFFFFFFFFFFFFFFFFFFFFFFFFFFFF AND DUP2 MSTORE PUSH1 0x20 ADD SWAP1 DUP2 MSTORE PUSH1 0x20 ADD PUSH1 0x0 KECCAK256 PUSH1 0x1 DUP5 PUSH2 0x10FA SWAP2 SWAP1 PUSH2 0x8A07 JUMP JUMPDEST DUP2 SLOAD DUP2 LT PUSH2 0x110B JUMPI PUSH2 0x110A PUSH2 0x8A3B JUMP JUMPDEST JUMPDEST SWAP1 PUSH1 0x0 MSTORE PUSH1 0x20 PUSH1 0x0 KECCAK256 SWAP1 PUSH1 0x3 MUL ADD PUSH1 0x40 MLOAD DUP1 PUSH1 0x60 ADD PUSH1 0x40 MSTORE SWAP1 DUP2 PUSH1 0x0 DUP3 ADD SLOAD DUP2 MSTORE PUSH1 0x20 ADD PUSH1 0x1 DUP3 ADD SLOAD DUP2 MSTORE PUSH1 0x20 ADD PUSH1 0x2 DUP3 ADD SLOAD DUP2 MSTORE POP POP SWAP1 POP DUP1 PUSH1 0x0 ADD MLOAD DUP3 PUSH2 0x1154 SWAP2 SWAP1 PUSH2 0x8A6A JUMP JUMPDEST SWAP2 POP JUMPDEST PUSH2 0x132 SLOAD DUP3 GT ISZERO PUSH2 0x11A2 JUMPI PUSH2 0x132 SLOAD PUSH1 0x40 MLOAD PUSH32 0xDBC26E0B00000000000000000000000000000000000000000000000000000000 DUP2 MSTORE PUSH1 0x4 ADD PUSH2 0x1199 SWAP2 SWAP1 PUSH2 0x7C5F JUMP JUMPDEST PUSH1 0x40 MLOAD DUP1 SWAP2 SUB SWAP1 REVERT JUMPDEST PUSH2 0x12D PUSH1 0x0 SWAP1 SLOAD SWAP1 PUSH2 0x100 EXP SWAP1 DIV PUSH20 0xFFFFFFFFFFFFFFFFFFFFFFFFFFFFFFFFFFFFFFFF AND PUSH20 0xFFFFFFFFFFFFFFFFFFFFFFFFFFFFFFFFFFFFFFFF AND PUSH4 0x23B872DD CALLER ADDRESS DUP10 PUSH1 0x40 MLOAD DUP5 PUSH4 0xFFFFFFFF AND PUSH1 0xE0 SHL DUP2 MSTORE PUSH1 0x4 ADD PUSH2 0x1202 SWAP4 SWAP3 SWAP2 SWAP1 PUSH2 0x8A9E JUMP JUMPDEST PUSH1 0x20 PUSH1 0x40 MLOAD DUP1 DUP4 SUB DUP2 PUSH1 0x0 DUP8 GAS CALL ISZERO DUP1 ISZERO PUSH2 0x1221 JUMPI RETURNDATASIZE PUSH1 0x0 DUP1 RETURNDATACOPY RETURNDATASIZE PUSH1 0x0 REVERT JUMPDEST POP POP POP POP PUSH1 0x40 MLOAD RETURNDATASIZE PUSH1 0x1F NOT PUSH1 0x1F DUP3 ADD AND DUP3 ADD DUP1 PUSH1 0x40 MSTORE POP DUP2 ADD SWAP1 PUSH2 0x1245 SWAP2 SWAP1 PUSH2 0x8B01 JUMP JUMPDEST POP DUP6 PUSH2 0x133 PUSH1 0x0 DUP3 DUP3 SLOAD PUSH2 0x1259 SWAP2 SWAP1 PUSH2 0x8A6A JUMP JUMPDEST SWAP3 POP POP DUP2 SWAP1 SSTORE POP PUSH2 0x131 SLOAD DUP2 PUSH1 0x0 ADD MLOAD LT PUSH2 0x128D JUMPI DUP6 PUSH2 0x134 PUSH1 0x0 DUP3 DUP3 SLOAD PUSH2 0x1281 SWAP2 SWAP1 PUSH2 0x8A6A JUMP JUMPDEST SWAP3 POP POP DUP2 SWAP1 SSTORE POP PUSH2 0x12B3 JUMP JUMPDEST PUSH2 0x131 SLOAD DUP3 LT PUSH2 0x12B2 JUMPI DUP2 PUSH2 0x134 PUSH1 0x0 DUP3 DUP3 SLOAD PUSH2 0x12AA SWAP2 SWAP1 PUSH2 0x8A6A JUMP JUMPDEST SWAP3 POP POP DUP2 SWAP1 SSTORE POP JUMPDEST JUMPDEST PUSH2 0x139 PUSH1 0x0 CALLER PUSH20 0xFFFFFFFFFFFFFFFFFFFFFFFFFFFFFFFFFFFFFFFF AND PUSH20 0xFFFFFFFFFFFFFFFFFFFFFFFFFFFFFFFFFFFFFFFF AND DUP2 MSTORE PUSH1 0x20 ADD SWAP1 DUP2 MSTORE PUSH1 0x20 ADD PUSH1 0x0 KECCAK256 PUSH1 0x40 MLOAD DUP1 PUSH1 0x60 ADD PUSH1 0x40 MSTORE DUP1 DUP5 DUP2 MSTORE PUSH1 0x20 ADD TIMESTAMP DUP2 MSTORE PUSH1 0x20 ADD PUSH2 0x12F SLOAD DUP2 MSTORE POP SWAP1 DUP1 PUSH1 0x1 DUP2 SLOAD ADD DUP1 DUP3 SSTORE DUP1 SWAP2 POP POP PUSH1 0x1 SWAP1 SUB SWAP1 PUSH1 0x0 MSTORE PUSH1 0x20 PUSH1 0x0 KECCAK256 SWAP1 PUSH1 0x3 MUL ADD PUSH1 0x0 SWAP1 SWAP2 SWAP1 SWAP2 SWAP1 SWAP2 POP PUSH1 0x0 DUP3 ADD MLOAD DUP2 PUSH1 0x0 ADD SSTORE PUSH1 0x20 DUP3 ADD MLOAD DUP2 PUSH1 0x1 ADD SSTORE PUSH1 0x40 DUP3 ADD MLOAD DUP2 PUSH1 0x2 ADD SSTORE POP POP PUSH1 0x0 PUSH2 0x13A PUSH1 0x0 CALLER PUSH20 0xFFFFFFFFFFFFFFFFFFFFFFFFFFFFFFFFFFFFFFFF AND PUSH20 0xFFFFFFFFFFFFFFFFFFFFFFFFFFFFFFFFFFFFFFFF AND DUP2 MSTORE PUSH1 0x20 ADD SWAP1 DUP2 MSTORE PUSH1 0x20 ADD PUSH1 0x0 KECCAK256 PUSH1 0x0 DUP8 PUSH1 0xFF AND PUSH1 0xFF AND DUP2 MSTORE PUSH1 0x20 ADD SWAP1 DUP2 MSTORE PUSH1 0x20 ADD PUSH1 0x0 KECCAK256 PUSH1 0x0 ADD SLOAD SWAP1 POP DUP7 DUP2 PUSH2 0x13C5 SWAP2 SWAP1 PUSH2 0x8A6A JUMP JUMPDEST SWAP1 POP PUSH1 0x40 MLOAD DUP1 PUSH1 0x60 ADD PUSH1 0x40 MSTORE DUP1 DUP3 DUP2 MSTORE PUSH1 0x20 ADD TIMESTAMP DUP2 MSTORE PUSH1 0x20 ADD PUSH2 0x12F SLOAD DUP2 MSTORE POP PUSH2 0x13A PUSH1 0x0 CALLER PUSH20 0xFFFFFFFFFFFFFFFFFFFFFFFFFFFFFFFFFFFFFFFF AND PUSH20 0xFFFFFFFFFFFFFFFFFFFFFFFFFFFFFFFFFFFFFFFF AND DUP2 MSTORE PUSH1 0x20 ADD SWAP1 DUP2 MSTORE PUSH1 0x20 ADD PUSH1 0x0 KECCAK256 PUSH1 0x0 DUP9 PUSH1 0xFF AND PUSH1 0xFF AND DUP2 MSTORE PUSH1 0x20 ADD SWAP1 DUP2 MSTORE PUSH1 0x20 ADD PUSH1 0x0 KECCAK256 PUSH1 0x0 DUP3 ADD MLOAD DUP2 PUSH1 0x0 ADD SSTORE PUSH1 0x20 DUP3 ADD MLOAD DUP2 PUSH1 0x1 ADD SSTORE PUSH1 0x40 DUP3 ADD MLOAD DUP2 PUSH1 0x2 ADD SSTORE SWAP1 POP POP CALLER PUSH20 0xFFFFFFFFFFFFFFFFFFFFFFFFFFFFFFFFFFFFFFFF AND PUSH32 0x759A0C1E59F1589954EF052B32707E4B68E04B2EA79C051FE89305D0DEBFBA0A DUP9 DUP9 PUSH1 0x40 MLOAD PUSH2 0x14A5 SWAP3 SWAP2 SWAP1 PUSH2 0x8B2E JUMP JUMPDEST PUSH1 0x40 MLOAD DUP1 SWAP2 SUB SWAP1 LOG2 POP POP POP POP POP PUSH2 0x14BA PUSH2 0x6D80 JUMP JUMPDEST POP POP JUMP JUMPDEST PUSH2 0x14C6 PUSH2 0x6D8A JUMP JUMPDEST DUP1 PUSH2 0x136 PUSH1 0x0 PUSH2 0x100 EXP DUP2 SLOAD DUP2 PUSH1 0xFF MUL NOT AND SWAP1 DUP4 PUSH1 0xFF AND MUL OR SWAP1 SSTORE POP POP JUMP JUMPDEST PUSH1 0x0 PUSH4 0x150B7A02 PUSH1 0xE0 SHL SWAP1 POP SWAP6 SWAP5 POP POP POP POP POP JUMP JUMPDEST PUSH1 0x0 PUSH2 0x3E8 PUSH2 0xFFFF AND PUSH2 0x135 SLOAD PUSH2 0x1511 SWAP2 SWAP1 PUSH2 0x8B86 JUMP JUMPDEST SWAP1 POP SWAP1 JUMP JUMPDEST PUSH2 0x151E PUSH2 0x6D8A JUMP JUMPDEST PUSH1 0x0 PUSH20 0xFFFFFFFFFFFFFFFFFFFFFFFFFFFFFFFFFFFFFFFF AND DUP2 PUSH20 0xFFFFFFFFFFFFFFFFFFFFFFFFFFFFFFFFFFFFFFFF AND SUB PUSH2 0x1584 JUMPI PUSH1 0x40 MLOAD PUSH32 0xCA834E4600000000000000000000000000000000000000000000000000000000 DUP2 MSTORE PUSH1 0x4 ADD PUSH1 0x40 MLOAD DUP1 SWAP2 SUB SWAP1 REVERT JUMPDEST DUP1 PUSH2 0x12D PUSH1 0x0 PUSH2 0x100 EXP DUP2 SLOAD DUP2 PUSH20 0xFFFFFFFFFFFFFFFFFFFFFFFFFFFFFFFFFFFFFFFF MUL NOT AND SWAP1 DUP4 PUSH20 0xFFFFFFFFFFFFFFFFFFFFFFFFFFFFFFFFFFFFFFFF AND MUL OR SWAP1 SSTORE POP POP JUMP JUMPDEST PUSH1 0x0 DUP1 PUSH20 0xFFFFFFFFFFFFFFFFFFFFFFFFFFFFFFFFFFFFFFFF AND DUP3 PUSH20 0xFFFFFFFFFFFFFFFFFFFFFFFFFFFFFFFFFFFFFFFF AND SUB PUSH2 0x1630 JUMPI PUSH1 0x40 MLOAD PUSH32 0xCA834E4600000000000000000000000000000000000000000000000000000000 DUP2 MSTORE PUSH1 0x4 ADD PUSH1 0x40 MLOAD DUP1 SWAP2 SUB SWAP1 REVERT JUMPDEST PUSH1 0x0 PUSH2 0x139 PUSH1 0x0 DUP5 PUSH20 0xFFFFFFFFFFFFFFFFFFFFFFFFFFFFFFFFFFFFFFFF AND PUSH20 0xFFFFFFFFFFFFFFFFFFFFFFFFFFFFFFFFFFFFFFFF AND DUP2 MSTORE PUSH1 0x20 ADD SWAP1 DUP2 MSTORE PUSH1 0x20 ADD PUSH1 0x0 KECCAK256 DUP1 SLOAD SWAP1 POP SWAP1 POP PUSH1 0x0 DUP2 SUB PUSH2 0x168A JUMPI PUSH1 0x0 SWAP2 POP POP PUSH2 0x1B02 JUMP JUMPDEST PUSH1 0x0 PUSH2 0x12F SLOAD SUB PUSH2 0x169F JUMPI PUSH1 0x0 SWAP2 POP POP PUSH2 0x1B02 JUMP JUMPDEST PUSH1 0x0 PUSH2 0x13D PUSH1 0x0 DUP6 PUSH20 0xFFFFFFFFFFFFFFFFFFFFFFFFFFFFFFFFFFFFFFFF AND PUSH20 0xFFFFFFFFFFFFFFFFFFFFFFFFFFFFFFFFFFFFFFFF AND DUP2 MSTORE PUSH1 0x20 ADD SWAP1 DUP2 MSTORE PUSH1 0x20 ADD PUSH1 0x0 KECCAK256 PUSH1 0x40 MLOAD DUP1 PUSH1 0x60 ADD PUSH1 0x40 MSTORE SWAP1 DUP2 PUSH1 0x0 DUP3 ADD SLOAD DUP2 MSTORE PUSH1 0x20 ADD PUSH1 0x1 DUP3 ADD SLOAD DUP2 MSTORE PUSH1 0x20 ADD PUSH1 0x2 DUP3 ADD SLOAD DUP2 MSTORE POP POP SWAP1 POP PUSH2 0x1714 PUSH2 0x773B JUMP JUMPDEST PUSH2 0x171C PUSH2 0x771A JUMP JUMPDEST PUSH2 0x1724 PUSH2 0x771A JUMP JUMPDEST PUSH1 0x0 DUP1 PUSH1 0x0 DUP1 PUSH1 0x0 SWAP1 POP PUSH1 0x0 DUP1 DUP10 PUSH1 0x20 ADD MLOAD SUB PUSH2 0x17D3 JUMPI PUSH2 0x139 PUSH1 0x0 DUP14 PUSH20 0xFFFFFFFFFFFFFFFFFFFFFFFFFFFFFFFFFFFFFFFF AND PUSH20 0xFFFFFFFFFFFFFFFFFFFFFFFFFFFFFFFFFFFFFFFF AND DUP2 MSTORE PUSH1 0x20 ADD SWAP1 DUP2 MSTORE PUSH1 0x20 ADD PUSH1 0x0 KECCAK256 PUSH1 0x0 DUP2 SLOAD DUP2 LT PUSH2 0x178E JUMPI PUSH2 0x178D PUSH2 0x8A3B JUMP JUMPDEST JUMPDEST SWAP1 PUSH1 0x0 MSTORE PUSH1 0x20 PUSH1 0x0 KECCAK256 SWAP1 PUSH1 0x3 MUL ADD PUSH1 0x40 MLOAD DUP1 PUSH1 0x60 ADD PUSH1 0x40 MSTORE SWAP1 DUP2 PUSH1 0x0 DUP3 ADD SLOAD DUP2 MSTORE PUSH1 0x20 ADD PUSH1 0x1 DUP3 ADD SLOAD DUP2 MSTORE PUSH1 0x20 ADD PUSH1 0x2 DUP3 ADD SLOAD DUP2 MSTORE POP POP SWAP7 POP DUP7 PUSH1 0x40 ADD MLOAD SWAP5 POP PUSH2 0x17DB JUMP JUMPDEST DUP9 PUSH1 0x40 ADD MLOAD SWAP5 POP JUMPDEST PUSH2 0x12F SLOAD DUP6 SUB PUSH2 0x17F8 JUMPI PUSH1 0x0 SWAP11 POP POP POP POP POP POP POP POP POP POP POP PUSH2 0x1B02 JUMP JUMPDEST PUSH1 0x0 DUP6 SWAP1 POP JUMPDEST PUSH2 0x12F SLOAD DUP2 LT ISZERO PUSH2 0x1AF3 JUMPI PUSH1 0x0 SWAP2 POP PUSH2 0x13C PUSH1 0x0 PUSH1 0x1 DUP4 PUSH2 0x181F SWAP2 SWAP1 PUSH2 0x8A6A JUMP JUMPDEST DUP2 MSTORE PUSH1 0x20 ADD SWAP1 DUP2 MSTORE PUSH1 0x20 ADD PUSH1 0x0 KECCAK256 PUSH1 0x40 MLOAD DUP1 PUSH1 0x80 ADD PUSH1 0x40 MSTORE SWAP1 DUP2 PUSH1 0x0 DUP3 ADD SLOAD DUP2 MSTORE PUSH1 0x20 ADD PUSH1 0x1 DUP3 ADD SLOAD DUP2 MSTORE PUSH1 0x20 ADD PUSH1 0x2 DUP3 ADD SLOAD DUP2 MSTORE PUSH1 0x20 ADD PUSH1 0x3 DUP3 ADD SLOAD DUP2 MSTORE POP POP SWAP9 POP PUSH1 0x2 DUP10 PUSH1 0x0 ADD MLOAD PUSH2 0x1873 SWAP2 SWAP1 PUSH2 0x8B86 JUMP JUMPDEST SWAP5 POP PUSH1 0x0 JUMPDEST DUP12 DUP2 LT ISZERO PUSH2 0x19D5 JUMPI PUSH2 0x139 PUSH1 0x0 DUP16 PUSH20 0xFFFFFFFFFFFFFFFFFFFFFFFFFFFFFFFFFFFFFFFF AND PUSH20 0xFFFFFFFFFFFFFFFFFFFFFFFFFFFFFFFFFFFFFFFF AND DUP2 MSTORE PUSH1 0x20 ADD SWAP1 DUP2 MSTORE PUSH1 0x20 ADD PUSH1 0x0 KECCAK256 DUP2 DUP2 SLOAD DUP2 LT PUSH2 0x18D2 JUMPI PUSH2 0x18D1 PUSH2 0x8A3B JUMP JUMPDEST JUMPDEST SWAP1 PUSH1 0x0 MSTORE PUSH1 0x20 PUSH1 0x0 KECCAK256 SWAP1 PUSH1 0x3 MUL ADD PUSH1 0x40 MLOAD DUP1 PUSH1 0x60 ADD PUSH1 0x40 MSTORE SWAP1 DUP2 PUSH1 0x0 DUP3 ADD SLOAD DUP2 MSTORE PUSH1 0x20 ADD PUSH1 0x1 DUP3 ADD SLOAD DUP2 MSTORE PUSH1 0x20 ADD PUSH1 0x2 DUP3 ADD SLOAD DUP2 MSTORE POP POP SWAP8 POP PUSH1 0x1 DUP3 PUSH2 0x1918 SWAP2 SWAP1 PUSH2 0x8A6A JUMP JUMPDEST DUP9 PUSH1 0x40 ADD MLOAD SUB PUSH2 0x19C2 JUMPI PUSH2 0x139 PUSH1 0x0 DUP16 PUSH20 0xFFFFFFFFFFFFFFFFFFFFFFFFFFFFFFFFFFFFFFFF AND PUSH20 0xFFFFFFFFFFFFFFFFFFFFFFFFFFFFFFFFFFFFFFFF AND DUP2 MSTORE PUSH1 0x20 ADD SWAP1 DUP2 MSTORE PUSH1 0x20 ADD PUSH1 0x0 KECCAK256 PUSH1 0x1 DUP3 PUSH2 0x196F SWAP2 SWAP1 PUSH2 0x8A07 JUMP JUMPDEST DUP2 SLOAD DUP2 LT PUSH2 0x1980 JUMPI PUSH2 0x197F PUSH2 0x8A3B JUMP JUMPDEST JUMPDEST SWAP1 PUSH1 0x0 MSTORE PUSH1 0x20 PUSH1 0x0 KECCAK256 SWAP1 PUSH1 0x3 MUL ADD PUSH1 0x40 MLOAD DUP1 PUSH1 0x60 ADD PUSH1 0x40 MSTORE SWAP1 DUP2 PUSH1 0x0 DUP3 ADD SLOAD DUP2 MSTORE PUSH1 0x20 ADD PUSH1 0x1 DUP3 ADD SLOAD DUP2 MSTORE PUSH1 0x20 ADD PUSH1 0x2 DUP3 ADD SLOAD DUP2 MSTORE POP POP SWAP9 POP PUSH1 0x1 SWAP3 POP PUSH2 0x19D5 JUMP JUMPDEST DUP1 DUP1 PUSH2 0x19CD SWAP1 PUSH2 0x8BB7 JUMP JUMPDEST SWAP2 POP POP PUSH2 0x1878 JUMP JUMPDEST POP DUP2 PUSH2 0x1A73 JUMPI PUSH2 0x139 PUSH1 0x0 DUP15 PUSH20 0xFFFFFFFFFFFFFFFFFFFFFFFFFFFFFFFFFFFFFFFF AND PUSH20 0xFFFFFFFFFFFFFFFFFFFFFFFFFFFFFFFFFFFFFFFF AND DUP2 MSTORE PUSH1 0x20 ADD SWAP1 DUP2 MSTORE PUSH1 0x20 ADD PUSH1 0x0 KECCAK256 PUSH1 0x1 DUP13 PUSH2 0x1A28 SWAP2 SWAP1 PUSH2 0x8A07 JUMP JUMPDEST DUP2 SLOAD DUP2 LT PUSH2 0x1A39 JUMPI PUSH2 0x1A38 PUSH2 0x8A3B JUMP JUMPDEST JUMPDEST SWAP1 PUSH1 0x0 MSTORE PUSH1 0x20 PUSH1 0x0 KECCAK256 SWAP1 PUSH1 0x3 MUL ADD PUSH1 0x40 MLOAD DUP1 PUSH1 0x60 ADD PUSH1 0x40 MSTORE SWAP1 DUP2 PUSH1 0x0 DUP3 ADD SLOAD DUP2 MSTORE PUSH1 0x20 ADD PUSH1 0x1 DUP3 ADD SLOAD DUP2 MSTORE PUSH1 0x20 ADD PUSH1 0x2 DUP3 ADD SLOAD DUP2 MSTORE POP POP SWAP8 POP JUMPDEST PUSH2 0x131 SLOAD DUP9 PUSH1 0x0 ADD MLOAD LT ISZERO DUP1 ISZERO PUSH2 0x1A8F JUMPI POP PUSH1 0x0 DUP10 PUSH1 0x40 ADD MLOAD EQ ISZERO JUMPDEST ISZERO PUSH2 0x1AE0 JUMPI DUP9 PUSH1 0x40 ADD MLOAD PUSH3 0xF4240 DUP10 PUSH1 0x0 ADD MLOAD PUSH2 0x1AAC SWAP2 SWAP1 PUSH2 0x8BFF JUMP JUMPDEST PUSH2 0x1AB6 SWAP2 SWAP1 PUSH2 0x8B86 JUMP JUMPDEST SWAP4 POP PUSH3 0xF4240 DUP5 DUP7 PUSH2 0x1AC8 SWAP2 SWAP1 PUSH2 0x8BFF JUMP JUMPDEST PUSH2 0x1AD2 SWAP2 SWAP1 PUSH2 0x8B86 JUMP JUMPDEST DUP4 PUSH2 0x1ADD SWAP2 SWAP1 PUSH2 0x8A6A JUMP JUMPDEST SWAP3 POP JUMPDEST DUP1 DUP1 PUSH2 0x1AEB SWAP1 PUSH2 0x8BB7 JUMP JUMPDEST SWAP2 POP POP PUSH2 0x17FE JUMP JUMPDEST POP DUP2 SWAP11 POP POP POP POP POP POP POP POP POP POP POP JUMPDEST SWAP2 SWAP1 POP JUMP JUMPDEST PUSH32 0x0 PUSH20 0xFFFFFFFFFFFFFFFFFFFFFFFFFFFFFFFFFFFFFFFF AND ADDRESS PUSH20 0xFFFFFFFFFFFFFFFFFFFFFFFFFFFFFFFFFFFFFFFF AND SUB PUSH2 0x1B95 JUMPI PUSH1 0x40 MLOAD PUSH32 0x8C379A000000000000000000000000000000000000000000000000000000000 DUP2 MSTORE PUSH1 0x4 ADD PUSH2 0x1B8C SWAP1 PUSH2 0x8CC4 JUMP JUMPDEST PUSH1 0x40 MLOAD DUP1 SWAP2 SUB SWAP1 REVERT JUMPDEST PUSH32 0x0 PUSH20 0xFFFFFFFFFFFFFFFFFFFFFFFFFFFFFFFFFFFFFFFF AND PUSH2 0x1BD4 PUSH2 0x6E08 JUMP JUMPDEST PUSH20 0xFFFFFFFFFFFFFFFFFFFFFFFFFFFFFFFFFFFFFFFF AND EQ PUSH2 0x1C2A JUMPI PUSH1 0x40 MLOAD PUSH32 0x8C379A000000000000000000000000000000000000000000000000000000000 DUP2 MSTORE PUSH1 0x4 ADD PUSH2 0x1C21 SWAP1 PUSH2 0x8D56 JUMP JUMPDEST PUSH1 0x40 MLOAD DUP1 SWAP2 SUB SWAP1 REVERT JUMPDEST PUSH2 0x1C33 DUP2 PUSH2 0x6E5F JUMP JUMPDEST PUSH2 0x1C8C DUP2 PUSH1 0x0 PUSH8 0xFFFFFFFFFFFFFFFF DUP2 GT ISZERO PUSH2 0x1C52 JUMPI PUSH2 0x1C51 PUSH2 0x7E0F JUMP JUMPDEST JUMPDEST PUSH1 0x40 MLOAD SWAP1 DUP1 DUP3 MSTORE DUP1 PUSH1 0x1F ADD PUSH1 0x1F NOT AND PUSH1 0x20 ADD DUP3 ADD PUSH1 0x40 MSTORE DUP1 ISZERO PUSH2 0x1C84 JUMPI DUP2 PUSH1 0x20 ADD PUSH1 0x1 DUP3 MUL DUP1 CALLDATASIZE DUP4 CALLDATACOPY DUP1 DUP3 ADD SWAP2 POP POP SWAP1 POP JUMPDEST POP PUSH1 0x0 PUSH2 0x6E6A JUMP JUMPDEST POP JUMP JUMPDEST PUSH1 0x0 DUP1 PUSH1 0x0 DUP1 PUSH2 0x13C PUSH1 0x0 PUSH2 0x12F SLOAD DUP2 MSTORE PUSH1 0x20 ADD SWAP1 DUP2 MSTORE PUSH1 0x20 ADD PUSH1 0x0 KECCAK256 PUSH1 0x0 ADD SLOAD PUSH2 0x13C PUSH1 0x0 PUSH2 0x12F SLOAD DUP2 MSTORE PUSH1 0x20 ADD SWAP1 DUP2 MSTORE PUSH1 0x20 ADD PUSH1 0x0 KECCAK256 PUSH1 0x1 ADD SLOAD PUSH2 0x13C PUSH1 0x0 PUSH2 0x12F SLOAD DUP2 MSTORE PUSH1 0x20 ADD SWAP1 DUP2 MSTORE PUSH1 0x20 ADD PUSH1 0x0 KECCAK256 PUSH1 0x2 ADD SLOAD PUSH2 0x13C PUSH1 0x0 PUSH2 0x12F SLOAD DUP2 MSTORE PUSH1 0x20 ADD SWAP1 DUP2 MSTORE PUSH1 0x20 ADD PUSH1 0x0 KECCAK256 PUSH1 0x3 ADD SLOAD SWAP4 POP SWAP4 POP SWAP4 POP SWAP4 POP SWAP1 SWAP2 SWAP3 SWAP4 JUMP JUMPDEST PUSH1 0x0 DUP1 PUSH2 0x13C PUSH1 0x0 DUP5 DUP2 MSTORE PUSH1 0x20 ADD SWAP1 DUP2 MSTORE PUSH1 0x20 ADD PUSH1 0x0 KECCAK256 PUSH1 0x0 ADD SLOAD PUSH2 0x13C PUSH1 0x0 DUP6 DUP2 MSTORE PUSH1 0x20 ADD SWAP1 DUP2 MSTORE PUSH1 0x20 ADD PUSH1 0x0 KECCAK256 PUSH1 0x1 ADD SLOAD SWAP2 POP SWAP2 POP SWAP2 POP SWAP2 JUMP JUMPDEST PUSH2 0x1D53 PUSH2 0x6D8A JUMP JUMPDEST PUSH2 0x1D5B PUSH2 0x6FD8 JUMP JUMPDEST JUMP JUMPDEST PUSH1 0x0 DUP1 PUSH1 0x0 DUP1 PUSH20 0xFFFFFFFFFFFFFFFFFFFFFFFFFFFFFFFFFFFFFFFF AND DUP6 PUSH20 0xFFFFFFFFFFFFFFFFFFFFFFFFFFFFFFFFFFFFFFFF AND SUB PUSH2 0x1DC7 JUMPI PUSH1 0x40 MLOAD PUSH32 0xCA834E4600000000000000000000000000000000000000000000000000000000 DUP2 MSTORE PUSH1 0x4 ADD PUSH1 0x40 MLOAD DUP1 SWAP2 SUB SWAP1 REVERT JUMPDEST PUSH1 0x0 PUSH2 0x137 DUP1 SLOAD SWAP1 POP SWAP1 POP DUP1 DUP6 PUSH1 0xFF AND LT PUSH2 0x1E0E JUMPI PUSH1 0x40 MLOAD PUSH32 0x54CF5A200000000000000000000000000000000000000000000000000000000 DUP2 MSTORE PUSH1 0x4 ADD PUSH1 0x40 MLOAD DUP1 SWAP2 SUB SWAP1 REVERT JUMPDEST PUSH1 0x0 PUSH2 0x13A PUSH1 0x0 DUP9 PUSH20 0xFFFFFFFFFFFFFFFFFFFFFFFFFFFFFFFFFFFFFFFF AND PUSH20 0xFFFFFFFFFFFFFFFFFFFFFFFFFFFFFFFFFFFFFFFF AND DUP2 MSTORE PUSH1 0x20 ADD SWAP1 DUP2 MSTORE PUSH1 0x20 ADD PUSH1 0x0 KECCAK256 PUSH1 0x0 DUP8 PUSH1 0xFF AND PUSH1 0xFF AND DUP2 MSTORE PUSH1 0x20 ADD SWAP1 DUP2 MSTORE PUSH1 0x20 ADD PUSH1 0x0 KECCAK256 PUSH1 0x40 MLOAD DUP1 PUSH1 0x60 ADD PUSH1 0x40 MSTORE SWAP1 DUP2 PUSH1 0x0 DUP3 ADD SLOAD DUP2 MSTORE PUSH1 0x20 ADD PUSH1 0x1 DUP3 ADD SLOAD DUP2 MSTORE PUSH1 0x20 ADD PUSH1 0x2 DUP3 ADD SLOAD DUP2 MSTORE POP POP SWAP1 POP DUP1 PUSH1 0x0 ADD MLOAD DUP2 PUSH1 0x20 ADD MLOAD DUP3 PUSH1 0x40 ADD MLOAD SWAP5 POP SWAP5 POP SWAP5 POP POP POP SWAP3 POP SWAP3 POP SWAP3 JUMP JUMPDEST PUSH2 0x1EB8 PUSH2 0x6D8A JUMP JUMPDEST PUSH1 0x0 PUSH20 0xFFFFFFFFFFFFFFFFFFFFFFFFFFFFFFFFFFFFFFFF AND DUP2 PUSH20 0xFFFFFFFFFFFFFFFFFFFFFFFFFFFFFFFFFFFFFFFF AND SUB PUSH2 0x1F1E JUMPI PUSH1 0x40 MLOAD PUSH32 0xCA834E4600000000000000000000000000000000000000000000000000000000 DUP2 MSTORE PUSH1 0x4 ADD PUSH1 0x40 MLOAD DUP1 SWAP2 SUB SWAP1 REVERT JUMPDEST DUP1 PUSH2 0x12E PUSH1 0x0 PUSH2 0x100 EXP DUP2 SLOAD DUP2 PUSH20 0xFFFFFFFFFFFFFFFFFFFFFFFFFFFFFFFFFFFFFFFF MUL NOT AND SWAP1 DUP4 PUSH20 0xFFFFFFFFFFFFFFFFFFFFFFFFFFFFFFFFFFFFFFFF AND MUL OR SWAP1 SSTORE POP POP JUMP JUMPDEST PUSH1 0x0 PUSH2 0x134 SLOAD SWAP1 POP SWAP1 JUMP JUMPDEST PUSH1 0x0 DUP1 PUSH1 0x1 SWAP1 SLOAD SWAP1 PUSH2 0x100 EXP SWAP1 DIV PUSH1 0xFF AND ISZERO SWAP1 POP DUP1 DUP1 ISZERO PUSH2 0x1F9F JUMPI POP PUSH1 0x1 PUSH1 0x0 DUP1 SLOAD SWAP1 PUSH2 0x100 EXP SWAP1 DIV PUSH1 0xFF AND PUSH1 0xFF AND LT JUMPDEST DUP1 PUSH2 0x1FCC JUMPI POP PUSH2 0x1FAE ADDRESS PUSH2 0x703B JUMP JUMPDEST ISZERO DUP1 ISZERO PUSH2 0x1FCB JUMPI POP PUSH1 0x1 PUSH1 0x0 DUP1 SLOAD SWAP1 PUSH2 0x100 EXP SWAP1 DIV PUSH1 0xFF AND PUSH1 0xFF AND EQ JUMPDEST JUMPDEST PUSH2 0x200B JUMPI PUSH1 0x40 MLOAD PUSH32 0x8C379A000000000000000000000000000000000000000000000000000000000 DUP2 MSTORE PUSH1 0x4 ADD PUSH2 0x2002 SWAP1 PUSH2 0x8DE8 JUMP JUMPDEST PUSH1 0x40 MLOAD DUP1 SWAP2 SUB SWAP1 REVERT JUMPDEST PUSH1 0x1 PUSH1 0x0 DUP1 PUSH2 0x100 EXP DUP2 SLOAD DUP2 PUSH1 0xFF MUL NOT AND SWAP1 DUP4 PUSH1 0xFF AND MUL OR SWAP1 SSTORE POP DUP1 ISZERO PUSH2 0x2048 JUMPI PUSH1 0x1 PUSH1 0x0 PUSH1 0x1 PUSH2 0x100 EXP DUP2 SLOAD DUP2 PUSH1 0xFF MUL NOT AND SWAP1 DUP4 ISZERO ISZERO MUL OR SWAP1 SSTORE POP JUMPDEST PUSH2 0x2050 PUSH2 0x705E JUMP JUMPDEST PUSH2 0x2058 PUSH2 0x70B7 JUMP JUMPDEST PUSH2 0x2060 PUSH2 0x7110 JUMP JUMPDEST PUSH2 0x2068 PUSH2 0x7169 JUMP JUMPDEST DUP3 PUSH2 0x12D PUSH1 0x0 PUSH2 0x100 EXP DUP2 SLOAD DUP2 PUSH20 0xFFFFFFFFFFFFFFFFFFFFFFFFFFFFFFFFFFFFFFFF MUL NOT AND SWAP1 DUP4 PUSH20 0xFFFFFFFFFFFFFFFFFFFFFFFFFFFFFFFFFFFFFFFF AND MUL OR SWAP1 SSTORE POP DUP2 PUSH2 0x12E PUSH1 0x0 PUSH2 0x100 EXP DUP2 SLOAD DUP2 PUSH20 0xFFFFFFFFFFFFFFFFFFFFFFFFFFFFFFFFFFFFFFFF MUL NOT AND SWAP1 DUP4 PUSH20 0xFFFFFFFFFFFFFFFFFFFFFFFFFFFFFFFFFFFFFFFF AND MUL OR SWAP1 SSTORE POP PUSH9 0x3635C9ADC5DEA00000 PUSH2 0x131 DUP2 SWAP1 SSTORE POP PUSH10 0x54B40B1F852BDA00000 PUSH2 0x132 DUP2 SWAP1 SSTORE POP PUSH1 0x0 PUSH2 0x12F DUP2 SWAP1 SSTORE POP PUSH2 0x61A8 PUSH2 0x135 DUP2 SWAP1 SSTORE POP PUSH1 0x32 PUSH2 0x136 PUSH1 0x0 PUSH2 0x100 EXP DUP2 SLOAD DUP2 PUSH1 0xFF MUL NOT AND SWAP1 DUP4 PUSH1 0xFF AND MUL OR SWAP1 SSTORE POP PUSH1 0x40 MLOAD DUP1 PUSH1 0x80 ADD PUSH1 0x40 MSTORE DUP1 PUSH1 0x0 PUSH1 0xFF AND DUP2 MSTORE PUSH1 0x20 ADD PUSH1 0x1 PUSH1 0xFF AND DUP2 MSTORE PUSH1 0x20 ADD PUSH1 0x2 PUSH1 0xFF AND DUP2 MSTORE PUSH1 0x20 ADD PUSH1 0x3 PUSH1 0xFF AND DUP2 MSTORE POP PUSH2 0x137 SWAP1 PUSH1 0x4 PUSH2 0x2181 SWAP3 SWAP2 SWAP1 PUSH2 0x7763 JUMP JUMPDEST POP PUSH1 0x40 MLOAD DUP1 PUSH1 0x80 ADD PUSH1 0x40 MSTORE DUP1 PUSH3 0x78614D PUSH4 0xFFFFFFFF AND DUP2 MSTORE PUSH1 0x20 ADD PUSH1 0xC8 DUP2 MSTORE PUSH1 0x20 ADD PUSH1 0x1 PUSH1 0xFF AND DUP2 MSTORE PUSH1 0x20 ADD TIMESTAMP DUP2 MSTORE POP PUSH2 0x138 PUSH1 0x0 DUP1 PUSH1 0xFF AND DUP2 MSTORE PUSH1 0x20 ADD SWAP1 DUP2 MSTORE PUSH1 0x20 ADD PUSH1 0x0 KECCAK256 PUSH1 0x0 DUP3 ADD MLOAD DUP2 PUSH1 0x0 ADD PUSH1 0x0 PUSH2 0x100 EXP DUP2 SLOAD DUP2 PUSH4 0xFFFFFFFF MUL NOT AND SWAP1 DUP4 PUSH4 0xFFFFFFFF AND MUL OR SWAP1 SSTORE POP PUSH1 0x20 DUP3 ADD MLOAD DUP2 PUSH1 0x1 ADD SSTORE PUSH1 0x40 DUP3 ADD MLOAD DUP2 PUSH1 0x2 ADD PUSH1 0x0 PUSH2 0x100 EXP DUP2 SLOAD DUP2 PUSH1 0xFF MUL NOT AND SWAP1 DUP4 PUSH1 0xFF AND MUL OR SWAP1 SSTORE POP PUSH1 0x60 DUP3 ADD MLOAD DUP2 PUSH1 0x3 ADD SSTORE SWAP1 POP POP PUSH1 0x40 MLOAD DUP1 PUSH1 0x80 ADD PUSH1 0x40 MSTORE DUP1 PUSH3 0xF0C29A PUSH4 0xFFFFFFFF AND DUP2 MSTORE PUSH1 0x20 ADD PUSH2 0x190 DUP2 MSTORE PUSH1 0x20 ADD PUSH1 0x2 PUSH1 0xFF AND DUP2 MSTORE PUSH1 0x20 ADD TIMESTAMP DUP2 MSTORE POP PUSH2 0x138 PUSH1 0x0 PUSH1 0x1 PUSH1 0xFF AND DUP2 MSTORE PUSH1 0x20 ADD SWAP1 DUP2 MSTORE PUSH1 0x20 ADD PUSH1 0x0 KECCAK256 PUSH1 0x0 DUP3 ADD MLOAD DUP2 PUSH1 0x0 ADD PUSH1 0x0 PUSH2 0x100 EXP DUP2 SLOAD DUP2 PUSH4 0xFFFFFFFF MUL NOT AND SWAP1 DUP4 PUSH4 0xFFFFFFFF AND MUL OR SWAP1 SSTORE POP PUSH1 0x20 DUP3 ADD MLOAD DUP2 PUSH1 0x1 ADD SSTORE PUSH1 0x40 DUP3 ADD MLOAD DUP2 PUSH1 0x2 ADD PUSH1 0x0 PUSH2 0x100 EXP DUP2 SLOAD DUP2 PUSH1 0xFF MUL NOT AND SWAP1 DUP4 PUSH1 0xFF AND MUL OR SWAP1 SSTORE POP PUSH1 0x60 DUP3 ADD MLOAD DUP2 PUSH1 0x3 ADD SSTORE SWAP1 POP POP PUSH1 0x40 MLOAD DUP1 PUSH1 0x80 ADD PUSH1 0x40 MSTORE DUP1 PUSH4 0x1E1853E PUSH4 0xFFFFFFFF AND DUP2 MSTORE PUSH1 0x20 ADD PUSH2 0x320 DUP2 MSTORE PUSH1 0x20 ADD PUSH1 0x5 PUSH1 0xFF AND DUP2 MSTORE PUSH1 0x20 ADD TIMESTAMP DUP2 MSTORE POP PUSH2 0x138 PUSH1 0x0 PUSH1 0x2 PUSH1 0xFF AND DUP2 MSTORE PUSH1 0x20 ADD SWAP1 DUP2 MSTORE PUSH1 0x20 ADD PUSH1 0x0 KECCAK256 PUSH1 0x0 DUP3 ADD MLOAD DUP2 PUSH1 0x0 ADD PUSH1 0x0 PUSH2 0x100 EXP DUP2 SLOAD DUP2 PUSH4 0xFFFFFFFF MUL NOT AND SWAP1 DUP4 PUSH4 0xFFFFFFFF AND MUL OR SWAP1 SSTORE POP PUSH1 0x20 DUP3 ADD MLOAD DUP2 PUSH1 0x1 ADD SSTORE PUSH1 0x40 DUP3 ADD MLOAD DUP2 PUSH1 0x2 ADD PUSH1 0x0 PUSH2 0x100 EXP DUP2 SLOAD DUP2 PUSH1 0xFF MUL NOT AND SWAP1 DUP4 PUSH1 0xFF AND MUL OR SWAP1 SSTORE POP PUSH1 0x60 DUP3 ADD MLOAD DUP2 PUSH1 0x3 ADD SSTORE SWAP1 POP POP PUSH1 0x40 MLOAD DUP1 PUSH1 0x80 ADD PUSH1 0x40 MSTORE DUP1 PUSH4 0x3C30A7C PUSH4 0xFFFFFFFF AND DUP2 MSTORE PUSH1 0x20 ADD PUSH2 0x7D0 DUP2 MSTORE PUSH1 0x20 ADD PUSH1 0xA PUSH1 0xFF AND DUP2 MSTORE PUSH1 0x20 ADD TIMESTAMP DUP2 MSTORE POP PUSH2 0x138 PUSH1 0x0 PUSH1 0x3 PUSH1 0xFF AND DUP2 MSTORE PUSH1 0x20 ADD SWAP1 DUP2 MSTORE PUSH1 0x20 ADD PUSH1 0x0 KECCAK256 PUSH1 0x0 DUP3 ADD MLOAD DUP2 PUSH1 0x0 ADD PUSH1 0x0 PUSH2 0x100 EXP DUP2 SLOAD DUP2 PUSH4 0xFFFFFFFF MUL NOT AND SWAP1 DUP4 PUSH4 0xFFFFFFFF AND MUL OR SWAP1 SSTORE POP PUSH1 0x20 DUP3 ADD MLOAD DUP2 PUSH1 0x1 ADD SSTORE PUSH1 0x40 DUP3 ADD MLOAD DUP2 PUSH1 0x2 ADD PUSH1 0x0 PUSH2 0x100 EXP DUP2 SLOAD DUP2 PUSH1 0xFF MUL NOT AND SWAP1 DUP4 PUSH1 0xFF AND MUL OR SWAP1 SSTORE POP PUSH1 0x60 DUP3 ADD MLOAD DUP2 PUSH1 0x3 ADD SSTORE SWAP1 POP POP DUP1 ISZERO PUSH2 0x2477 JUMPI PUSH1 0x0 DUP1 PUSH1 0x1 PUSH2 0x100 EXP DUP2 SLOAD DUP2 PUSH1 0xFF MUL NOT AND SWAP1 DUP4 ISZERO ISZERO MUL OR SWAP1 SSTORE POP PUSH32 0x7F26B83FF96E1F2B6A682F133852F6798A09C465DA95921460CEFB3847402498 PUSH1 0x1 PUSH1 0x40 MLOAD PUSH2 0x246E SWAP2 SWAP1 PUSH2 0x8E4D JUMP JUMPDEST PUSH1 0x40 MLOAD DUP1 SWAP2 SUB SWAP1 LOG1 JUMPDEST POP POP POP JUMP JUMPDEST PUSH2 0x2484 PUSH2 0x6D8A JUMP JUMPDEST PUSH1 0x0 DUP2 PUSH20 0xFFFFFFFFFFFFFFFFFFFFFFFFFFFFFFFFFFFFFFFF AND PUSH4 0x70A08231 ADDRESS PUSH1 0x40 MLOAD DUP3 PUSH4 0xFFFFFFFF AND PUSH1 0xE0 SHL DUP2 MSTORE PUSH1 0x4 ADD PUSH2 0x24BF SWAP2 SWAP1 PUSH2 0x8041 JUMP JUMPDEST PUSH1 0x20 PUSH1 0x40 MLOAD DUP1 DUP4 SUB DUP2 DUP7 GAS STATICCALL ISZERO DUP1 ISZERO PUSH2 0x24DC JUMPI RETURNDATASIZE PUSH1 0x0 DUP1 RETURNDATACOPY RETURNDATASIZE PUSH1 0x0 REVERT JUMPDEST POP POP POP POP PUSH1 0x40 MLOAD RETURNDATASIZE PUSH1 0x1F NOT PUSH1 0x1F DUP3 ADD AND DUP3 ADD DUP1 PUSH1 0x40 MSTORE POP DUP2 ADD SWAP1 PUSH2 0x2500 SWAP2 SWAP1 PUSH2 0x8982 JUMP JUMPDEST SWAP1 POP DUP2 PUSH20 0xFFFFFFFFFFFFFFFFFFFFFFFFFFFFFFFFFFFFFFFF AND PUSH4 0xA9059CBB CALLER DUP4 PUSH1 0x40 MLOAD DUP4 PUSH4 0xFFFFFFFF AND PUSH1 0xE0 SHL DUP2 MSTORE PUSH1 0x4 ADD PUSH2 0x253D SWAP3 SWAP2 SWAP1 PUSH2 0x8E68 JUMP JUMPDEST PUSH1 0x20 PUSH1 0x40 MLOAD DUP1 DUP4 SUB DUP2 PUSH1 0x0 DUP8 GAS CALL ISZERO DUP1 ISZERO PUSH2 0x255C JUMPI RETURNDATASIZE PUSH1 0x0 DUP1 RETURNDATACOPY RETURNDATASIZE PUSH1 0x0 REVERT JUMPDEST POP POP POP POP PUSH1 0x40 MLOAD RETURNDATASIZE PUSH1 0x1F NOT PUSH1 0x1F DUP3 ADD AND DUP3 ADD DUP1 PUSH1 0x40 MSTORE POP DUP2 ADD SWAP1 PUSH2 0x2580 SWAP2 SWAP1 PUSH2 0x8B01 JUMP JUMPDEST POP POP POP JUMP JUMPDEST PUSH1 0x0 DUP1 PUSH20 0xFFFFFFFFFFFFFFFFFFFFFFFFFFFFFFFFFFFFFFFF AND DUP3 PUSH20 0xFFFFFFFFFFFFFFFFFFFFFFFFFFFFFFFFFFFFFFFF AND SUB PUSH2 0x25EC JUMPI PUSH1 0x40 MLOAD PUSH32 0xCA834E4600000000000000000000000000000000000000000000000000000000 DUP2 MSTORE PUSH1 0x4 ADD PUSH1 0x40 MLOAD DUP1 SWAP2 SUB SWAP1 REVERT JUMPDEST PUSH1 0x0 PUSH2 0x13E PUSH1 0x0 DUP5 PUSH20 0xFFFFFFFFFFFFFFFFFFFFFFFFFFFFFFFFFFFFFFFF AND PUSH20 0xFFFFFFFFFFFFFFFFFFFFFFFFFFFFFFFFFFFFFFFF AND DUP2 MSTORE PUSH1 0x20 ADD SWAP1 DUP2 MSTORE PUSH1 0x20 ADD PUSH1 0x0 KECCAK256 DUP1 SLOAD SWAP1 POP SWAP1 POP PUSH1 0x0 DUP2 SUB PUSH2 0x2646 JUMPI PUSH1 0x0 SWAP2 POP POP PUSH2 0x2C8B JUMP JUMPDEST PUSH1 0x0 PUSH2 0x12F SLOAD SUB PUSH2 0x265B JUMPI PUSH1 0x0 SWAP2 POP POP PUSH2 0x2C8B JUMP JUMPDEST PUSH1 0x0 PUSH2 0x13D PUSH1 0x0 DUP6 PUSH20 0xFFFFFFFFFFFFFFFFFFFFFFFFFFFFFFFFFFFFFFFF AND PUSH20 0xFFFFFFFFFFFFFFFFFFFFFFFFFFFFFFFFFFFFFFFF AND DUP2 MSTORE PUSH1 0x20 ADD SWAP1 DUP2 MSTORE PUSH1 0x20 ADD PUSH1 0x0 KECCAK256 PUSH1 0x40 MLOAD DUP1 PUSH1 0x60 ADD PUSH1 0x40 MSTORE SWAP1 DUP2 PUSH1 0x0 DUP3 ADD SLOAD DUP2 MSTORE PUSH1 0x20 ADD PUSH1 0x1 DUP3 ADD SLOAD DUP2 MSTORE PUSH1 0x20 ADD PUSH1 0x2 DUP3 ADD SLOAD DUP2 MSTORE POP POP SWAP1 POP PUSH2 0x26D0 PUSH2 0x773B JUMP JUMPDEST PUSH2 0x26D8 PUSH2 0x780A JUMP JUMPDEST PUSH2 0x26E0 PUSH2 0x780A JUMP JUMPDEST PUSH1 0x0 DUP1 PUSH1 0x0 DUP1 PUSH1 0x0 SWAP1 POP PUSH1 0x0 DUP1 DUP10 PUSH1 0x20 ADD MLOAD SUB PUSH2 0x27E7 JUMPI PUSH2 0x13E PUSH1 0x0 DUP14 PUSH20 0xFFFFFFFFFFFFFFFFFFFFFFFFFFFFFFFFFFFFFFFF AND PUSH20 0xFFFFFFFFFFFFFFFFFFFFFFFFFFFFFFFFFFFFFFFF AND DUP2 MSTORE PUSH1 0x20 ADD SWAP1 DUP2 MSTORE PUSH1 0x20 ADD PUSH1 0x0 KECCAK256 PUSH1 0x0 DUP2 SLOAD DUP2 LT PUSH2 0x274A JUMPI PUSH2 0x2749 PUSH2 0x8A3B JUMP JUMPDEST JUMPDEST SWAP1 PUSH1 0x0 MSTORE PUSH1 0x20 PUSH1 0x0 KECCAK256 SWAP1 PUSH1 0x4 MUL ADD PUSH1 0x40 MLOAD DUP1 PUSH1 0x80 ADD PUSH1 0x40 MSTORE SWAP1 DUP2 PUSH1 0x0 DUP3 ADD SLOAD DUP2 MSTORE PUSH1 0x20 ADD PUSH1 0x1 DUP3 ADD DUP1 SLOAD DUP1 PUSH1 0x20 MUL PUSH1 0x20 ADD PUSH1 0x40 MLOAD SWAP1 DUP2 ADD PUSH1 0x40 MSTORE DUP1 SWAP3 SWAP2 SWAP1 DUP2 DUP2 MSTORE PUSH1 0x20 ADD DUP3 DUP1 SLOAD DUP1 ISZERO PUSH2 0x27BC JUMPI PUSH1 0x20 MUL DUP3 ADD SWAP2 SWAP1 PUSH1 0x0 MSTORE PUSH1 0x20 PUSH1 0x0 KECCAK256 SWAP1 JUMPDEST DUP2 SLOAD DUP2 MSTORE PUSH1 0x20 ADD SWAP1 PUSH1 0x1 ADD SWAP1 DUP1 DUP4 GT PUSH2 0x27A8 JUMPI JUMPDEST POP POP POP POP POP DUP2 MSTORE PUSH1 0x20 ADD PUSH1 0x2 DUP3 ADD SLOAD DUP2 MSTORE PUSH1 0x20 ADD PUSH1 0x3 DUP3 ADD SLOAD DUP2 MSTORE POP POP SWAP7 POP DUP7 PUSH1 0x60 ADD MLOAD SWAP5 POP PUSH2 0x27EF JUMP JUMPDEST DUP9 PUSH1 0x40 ADD MLOAD SWAP5 POP JUMPDEST PUSH2 0x12F SLOAD DUP6 SUB PUSH2 0x280C JUMPI PUSH1 0x0 SWAP11 POP POP POP POP POP POP POP POP POP POP POP PUSH2 0x2C8B JUMP JUMPDEST PUSH1 0x0 DUP6 SWAP1 POP JUMPDEST PUSH2 0x12F SLOAD DUP2 LT ISZERO PUSH2 0x2C7C JUMPI PUSH1 0x0 SWAP2 POP PUSH2 0x13C PUSH1 0x0 PUSH1 0x1 DUP4 PUSH2 0x2833 SWAP2 SWAP1 PUSH2 0x8A6A JUMP JUMPDEST DUP2 MSTORE PUSH1 0x20 ADD SWAP1 DUP2 MSTORE PUSH1 0x20 ADD PUSH1 0x0 KECCAK256 PUSH1 0x40 MLOAD DUP1 PUSH1 0x80 ADD PUSH1 0x40 MSTORE SWAP1 DUP2 PUSH1 0x0 DUP3 ADD SLOAD DUP2 MSTORE PUSH1 0x20 ADD PUSH1 0x1 DUP3 ADD SLOAD DUP2 MSTORE PUSH1 0x20 ADD PUSH1 0x2 DUP3 ADD SLOAD DUP2 MSTORE PUSH1 0x20 ADD PUSH1 0x3 DUP3 ADD SLOAD DUP2 MSTORE POP POP SWAP9 POP PUSH1 0x2 DUP10 PUSH1 0x0 ADD MLOAD PUSH2 0x2887 SWAP2 SWAP1 PUSH2 0x8B86 JUMP JUMPDEST SWAP5 POP PUSH1 0x0 JUMPDEST DUP12 DUP2 LT ISZERO PUSH2 0x2A99 JUMPI PUSH2 0x13E PUSH1 0x0 DUP16 PUSH20 0xFFFFFFFFFFFFFFFFFFFFFFFFFFFFFFFFFFFFFFFF AND PUSH20 0xFFFFFFFFFFFFFFFFFFFFFFFFFFFFFFFFFFFFFFFF AND DUP2 MSTORE PUSH1 0x20 ADD SWAP1 DUP2 MSTORE PUSH1 0x20 ADD PUSH1 0x0 KECCAK256 DUP2 DUP2 SLOAD DUP2 LT PUSH2 0x28E6 JUMPI PUSH2 0x28E5 PUSH2 0x8A3B JUMP JUMPDEST JUMPDEST SWAP1 PUSH1 0x0 MSTORE PUSH1 0x20 PUSH1 0x0 KECCAK256 SWAP1 PUSH1 0x4 MUL ADD PUSH1 0x40 MLOAD DUP1 PUSH1 0x80 ADD PUSH1 0x40 MSTORE SWAP1 DUP2 PUSH1 0x0 DUP3 ADD SLOAD DUP2 MSTORE PUSH1 0x20 ADD PUSH1 0x1 DUP3 ADD DUP1 SLOAD DUP1 PUSH1 0x20 MUL PUSH1 0x20 ADD PUSH1 0x40 MLOAD SWAP1 DUP2 ADD PUSH1 0x40 MSTORE DUP1 SWAP3 SWAP2 SWAP1 DUP2 DUP2 MSTORE PUSH1 0x20 ADD DUP3 DUP1 SLOAD DUP1 ISZERO PUSH2 0x2958 JUMPI PUSH1 0x20 MUL DUP3 ADD SWAP2 SWAP1 PUSH1 0x0 MSTORE PUSH1 0x20 PUSH1 0x0 KECCAK256 SWAP1 JUMPDEST DUP2 SLOAD DUP2 MSTORE PUSH1 0x20 ADD SWAP1 PUSH1 0x1 ADD SWAP1 DUP1 DUP4 GT PUSH2 0x2944 JUMPI JUMPDEST POP POP POP POP POP DUP2 MSTORE PUSH1 0x20 ADD PUSH1 0x2 DUP3 ADD SLOAD DUP2 MSTORE PUSH1 0x20 ADD PUSH1 0x3 DUP3 ADD SLOAD DUP2 MSTORE POP POP SWAP8 POP PUSH1 0x1 DUP3 PUSH2 0x2984 SWAP2 SWAP1 PUSH2 0x8A6A JUMP JUMPDEST DUP9 PUSH1 0x60 ADD MLOAD SUB PUSH2 0x2A86 JUMPI PUSH2 0x13E PUSH1 0x0 DUP16 PUSH20 0xFFFFFFFFFFFFFFFFFFFFFFFFFFFFFFFFFFFFFFFF AND PUSH20 0xFFFFFFFFFFFFFFFFFFFFFFFFFFFFFFFFFFFFFFFF AND DUP2 MSTORE PUSH1 0x20 ADD SWAP1 DUP2 MSTORE PUSH1 0x20 ADD PUSH1 0x0 KECCAK256 PUSH1 0x1 DUP3 PUSH2 0x29DB SWAP2 SWAP1 PUSH2 0x8A07 JUMP JUMPDEST DUP2 SLOAD DUP2 LT PUSH2 0x29EC JUMPI PUSH2 0x29EB PUSH2 0x8A3B JUMP JUMPDEST JUMPDEST SWAP1 PUSH1 0x0 MSTORE PUSH1 0x20 PUSH1 0x0 KECCAK256 SWAP1 PUSH1 0x4 MUL ADD PUSH1 0x40 MLOAD DUP1 PUSH1 0x80 ADD PUSH1 0x40 MSTORE SWAP1 DUP2 PUSH1 0x0 DUP3 ADD SLOAD DUP2 MSTORE PUSH1 0x20 ADD PUSH1 0x1 DUP3 ADD DUP1 SLOAD DUP1 PUSH1 0x20 MUL PUSH1 0x20 ADD PUSH1 0x40 MLOAD SWAP1 DUP2 ADD PUSH1 0x40 MSTORE DUP1 SWAP3 SWAP2 SWAP1 DUP2 DUP2 MSTORE PUSH1 0x20 ADD DUP3 DUP1 SLOAD DUP1 ISZERO PUSH2 0x2A5E JUMPI PUSH1 0x20 MUL DUP3 ADD SWAP2 SWAP1 PUSH1 0x0 MSTORE PUSH1 0x20 PUSH1 0x0 KECCAK256 SWAP1 JUMPDEST DUP2 SLOAD DUP2 MSTORE PUSH1 0x20 ADD SWAP1 PUSH1 0x1 ADD SWAP1 DUP1 DUP4 GT PUSH2 0x2A4A JUMPI JUMPDEST POP POP POP POP POP DUP2 MSTORE PUSH1 0x20 ADD PUSH1 0x2 DUP3 ADD SLOAD DUP2 MSTORE PUSH1 0x20 ADD PUSH1 0x3 DUP3 ADD SLOAD DUP2 MSTORE POP POP SWAP9 POP PUSH1 0x1 SWAP3 POP PUSH2 0x2A99 JUMP JUMPDEST DUP1 DUP1 PUSH2 0x2A91 SWAP1 PUSH2 0x8BB7 JUMP JUMPDEST SWAP2 POP POP PUSH2 0x288C JUMP JUMPDEST POP DUP2 PUSH2 0x2B8F JUMPI PUSH2 0x13E PUSH1 0x0 DUP15 PUSH20 0xFFFFFFFFFFFFFFFFFFFFFFFFFFFFFFFFFFFFFFFF AND PUSH20 0xFFFFFFFFFFFFFFFFFFFFFFFFFFFFFFFFFFFFFFFF AND DUP2 MSTORE PUSH1 0x20 ADD SWAP1 DUP2 MSTORE PUSH1 0x20 ADD PUSH1 0x0 KECCAK256 PUSH1 0x1 DUP13 PUSH2 0x2AEC SWAP2 SWAP1 PUSH2 0x8A07 JUMP JUMPDEST DUP2 SLOAD DUP2 LT PUSH2 0x2AFD JUMPI PUSH2 0x2AFC PUSH2 0x8A3B JUMP JUMPDEST JUMPDEST SWAP1 PUSH1 0x0 MSTORE PUSH1 0x20 PUSH1 0x0 KECCAK256 SWAP1 PUSH1 0x4 MUL ADD PUSH1 0x40 MLOAD DUP1 PUSH1 0x80 ADD PUSH1 0x40 MSTORE SWAP1 DUP2 PUSH1 0x0 DUP3 ADD SLOAD DUP2 MSTORE PUSH1 0x20 ADD PUSH1 0x1 DUP3 ADD DUP1 SLOAD DUP1 PUSH1 0x20 MUL PUSH1 0x20 ADD PUSH1 0x40 MLOAD SWAP1 DUP2 ADD PUSH1 0x40 MSTORE DUP1 SWAP3 SWAP2 SWAP1 DUP2 DUP2 MSTORE PUSH1 0x20 ADD DUP3 DUP1 SLOAD DUP1 ISZERO PUSH2 0x2B6F JUMPI PUSH1 0x20 MUL DUP3 ADD SWAP2 SWAP1 PUSH1 0x0 MSTORE PUSH1 0x20 PUSH1 0x0 KECCAK256 SWAP1 JUMPDEST DUP2 SLOAD DUP2 MSTORE PUSH1 0x20 ADD SWAP1 PUSH1 0x1 ADD SWAP1 DUP1 DUP4 GT PUSH2 0x2B5B JUMPI JUMPDEST POP POP POP POP POP DUP2 MSTORE PUSH1 0x20 ADD PUSH1 0x2 DUP3 ADD SLOAD DUP2 MSTORE PUSH1 0x20 ADD PUSH1 0x3 DUP3 ADD SLOAD DUP2 MSTORE POP POP SWAP8 POP JUMPDEST PUSH1 0x0 DUP9 PUSH1 0x0 ADD MLOAD GT ISZERO PUSH2 0x2C69 JUMPI PUSH2 0x12E PUSH1 0x0 SWAP1 SLOAD SWAP1 PUSH2 0x100 EXP SWAP1 DIV PUSH20 0xFFFFFFFFFFFFFFFFFFFFFFFFFFFFFFFFFFFFFFFF AND PUSH20 0xFFFFFFFFFFFFFFFFFFFFFFFFFFFFFFFFFFFFFFFF AND PUSH4 0xF4B49946 DUP10 PUSH1 0x20 ADD MLOAD PUSH1 0x40 MLOAD DUP3 PUSH4 0xFFFFFFFF AND PUSH1 0xE0 SHL DUP2 MSTORE PUSH1 0x4 ADD PUSH2 0x2BFC SWAP2 SWAP1 PUSH2 0x8E91 JUMP JUMPDEST PUSH1 0x40 DUP1 MLOAD DUP1 DUP4 SUB DUP2 DUP7 GAS STATICCALL ISZERO DUP1 ISZERO PUSH2 0x2C18 JUMPI RETURNDATASIZE PUSH1 0x0 DUP1 RETURNDATACOPY RETURNDATASIZE PUSH1 0x0 REVERT JUMPDEST POP POP POP POP PUSH1 0x40 MLOAD RETURNDATASIZE PUSH1 0x1F NOT PUSH1 0x1F DUP3 ADD AND DUP3 ADD DUP1 PUSH1 0x40 MSTORE POP DUP2 ADD SWAP1 PUSH2 0x2C3C SWAP2 SWAP1 PUSH2 0x8EB3 JUMP JUMPDEST SWAP1 POP DUP1 SWAP5 POP POP PUSH2 0x2710 DUP5 DUP7 PUSH2 0x2C51 SWAP2 SWAP1 PUSH2 0x8BFF JUMP JUMPDEST PUSH2 0x2C5B SWAP2 SWAP1 PUSH2 0x8B86 JUMP JUMPDEST DUP4 PUSH2 0x2C66 SWAP2 SWAP1 PUSH2 0x8A6A JUMP JUMPDEST SWAP3 POP JUMPDEST DUP1 DUP1 PUSH2 0x2C74 SWAP1 PUSH2 0x8BB7 JUMP JUMPDEST SWAP2 POP POP PUSH2 0x2812 JUMP JUMPDEST POP DUP2 SWAP11 POP POP POP POP POP POP POP POP POP POP POP JUMPDEST SWAP2 SWAP1 POP JUMP JUMPDEST PUSH32 0x0 PUSH20 0xFFFFFFFFFFFFFFFFFFFFFFFFFFFFFFFFFFFFFFFF AND ADDRESS PUSH20 0xFFFFFFFFFFFFFFFFFFFFFFFFFFFFFFFFFFFFFFFF AND SUB PUSH2 0x2D1E JUMPI PUSH1 0x40 MLOAD PUSH32 0x8C379A000000000000000000000000000000000000000000000000000000000 DUP2 MSTORE PUSH1 0x4 ADD PUSH2 0x2D15 SWAP1 PUSH2 0x8CC4 JUMP JUMPDEST PUSH1 0x40 MLOAD DUP1 SWAP2 SUB SWAP1 REVERT JUMPDEST PUSH32 0x0 PUSH20 0xFFFFFFFFFFFFFFFFFFFFFFFFFFFFFFFFFFFFFFFF AND PUSH2 0x2D5D PUSH2 0x6E08 JUMP JUMPDEST PUSH20 0xFFFFFFFFFFFFFFFFFFFFFFFFFFFFFFFFFFFFFFFF AND EQ PUSH2 0x2DB3 JUMPI PUSH1 0x40 MLOAD PUSH32 0x8C379A000000000000000000000000000000000000000000000000000000000 DUP2 MSTORE PUSH1 0x4 ADD PUSH2 0x2DAA SWAP1 PUSH2 0x8D56 JUMP JUMPDEST PUSH1 0x40 MLOAD DUP1 SWAP2 SUB SWAP1 REVERT JUMPDEST PUSH2 0x2DBC DUP3 PUSH2 0x6E5F JUMP JUMPDEST PUSH2 0x2DC8 DUP3 DUP3 PUSH1 0x1 PUSH2 0x6E6A JUMP JUMPDEST POP POP JUMP JUMPDEST PUSH2 0x2DD4 PUSH2 0x6D8A JUMP JUMPDEST DUP1 PUSH3 0xFFFFFF AND PUSH2 0x135 DUP2 SWAP1 SSTORE POP POP JUMP JUMPDEST PUSH1 0x0 PUSH32 0x0 PUSH20 0xFFFFFFFFFFFFFFFFFFFFFFFFFFFFFFFFFFFFFFFF AND ADDRESS PUSH20 0xFFFFFFFFFFFFFFFFFFFFFFFFFFFFFFFFFFFFFFFF AND EQ PUSH2 0x2E74 JUMPI PUSH1 0x40 MLOAD PUSH32 0x8C379A000000000000000000000000000000000000000000000000000000000 DUP2 MSTORE PUSH1 0x4 ADD PUSH2 0x2E6B SWAP1 PUSH2 0x8F65 JUMP JUMPDEST PUSH1 0x40 MLOAD DUP1 SWAP2 SUB SWAP1 REVERT JUMPDEST PUSH32 0x360894A13BA1A3210667C828492DB98DCA3E2076CC3735A920A3CA505D382BBC PUSH1 0x0 SHL SWAP1 POP SWAP1 JUMP JUMPDEST PUSH1 0x0 PUSH2 0x12D PUSH1 0x0 SWAP1 SLOAD SWAP1 PUSH2 0x100 EXP SWAP1 DIV PUSH20 0xFFFFFFFFFFFFFFFFFFFFFFFFFFFFFFFFFFFFFFFF AND SWAP1 POP SWAP1 JUMP JUMPDEST PUSH1 0x0 PUSH1 0xC9 PUSH1 0x0 SWAP1 SLOAD SWAP1 PUSH2 0x100 EXP SWAP1 DIV PUSH1 0xFF AND SWAP1 POP SWAP1 JUMP JUMPDEST PUSH1 0x0 PUSH1 0x60 PUSH1 0x0 DUP1 PUSH1 0x0 PUSH20 0xFFFFFFFFFFFFFFFFFFFFFFFFFFFFFFFFFFFFFFFF AND DUP7 PUSH20 0xFFFFFFFFFFFFFFFFFFFFFFFFFFFFFFFFFFFFFFFF AND SUB PUSH2 0x2F4C JUMPI PUSH1 0x40 MLOAD PUSH32 0xCA834E4600000000000000000000000000000000000000000000000000000000 DUP2 MSTORE PUSH1 0x4 ADD PUSH1 0x40 MLOAD DUP1 SWAP2 SUB SWAP1 REVERT JUMPDEST PUSH1 0x0 PUSH2 0x137 DUP1 SLOAD SWAP1 POP SWAP1 POP DUP1 DUP7 PUSH1 0xFF AND LT PUSH2 0x2F93 JUMPI PUSH1 0x40 MLOAD PUSH32 0x54CF5A200000000000000000000000000000000000000000000000000000000 DUP2 MSTORE PUSH1 0x4 ADD PUSH1 0x40 MLOAD DUP1 SWAP2 SUB SWAP1 REVERT JUMPDEST PUSH1 0x0 PUSH2 0x13F PUSH1 0x0 DUP10 PUSH20 0xFFFFFFFFFFFFFFFFFFFFFFFFFFFFFFFFFFFFFFFF AND PUSH20 0xFFFFFFFFFFFFFFFFFFFFFFFFFFFFFFFFFFFFFFFF AND DUP2 MSTORE PUSH1 0x20 ADD SWAP1 DUP2 MSTORE PUSH1 0x20 ADD PUSH1 0x0 KECCAK256 PUSH1 0x0 DUP9 PUSH1 0xFF AND PUSH1 0xFF AND DUP2 MSTORE PUSH1 0x20 ADD SWAP1 DUP2 MSTORE PUSH1 0x20 ADD PUSH1 0x0 KECCAK256 PUSH1 0x40 MLOAD DUP1 PUSH1 0x80 ADD PUSH1 0x40 MSTORE SWAP1 DUP2 PUSH1 0x0 DUP3 ADD SLOAD DUP2 MSTORE PUSH1 0x20 ADD PUSH1 0x1 DUP3 ADD DUP1 SLOAD DUP1 PUSH1 0x20 MUL PUSH1 0x20 ADD PUSH1 0x40 MLOAD SWAP1 DUP2 ADD PUSH1 0x40 MSTORE DUP1 SWAP3 SWAP2 SWAP1 DUP2 DUP2 MSTORE PUSH1 0x20 ADD DUP3 DUP1 SLOAD DUP1 ISZERO PUSH2 0x3050 JUMPI PUSH1 0x20 MUL DUP3 ADD SWAP2 SWAP1 PUSH1 0x0 MSTORE PUSH1 0x20 PUSH1 0x0 KECCAK256 SWAP1 JUMPDEST DUP2 SLOAD DUP2 MSTORE PUSH1 0x20 ADD SWAP1 PUSH1 0x1 ADD SWAP1 DUP1 DUP4 GT PUSH2 0x303C JUMPI JUMPDEST POP POP POP POP POP DUP2 MSTORE PUSH1 0x20 ADD PUSH1 0x2 DUP3 ADD SLOAD DUP2 MSTORE PUSH1 0x20 ADD PUSH1 0x3 DUP3 ADD SLOAD DUP2 MSTORE POP POP SWAP1 POP DUP1 PUSH1 0x0 ADD MLOAD DUP2 PUSH1 0x20 ADD MLOAD DUP3 PUSH1 0x40 ADD MLOAD DUP4 PUSH1 0x60 ADD MLOAD SWAP6 POP SWAP6 POP SWAP6 POP SWAP6 POP POP POP SWAP3 SWAP6 SWAP2 SWAP5 POP SWAP3 POP JUMP JUMPDEST PUSH1 0x0 PUSH2 0x130 SLOAD SWAP1 POP SWAP1 JUMP JUMPDEST PUSH1 0x0 PUSH2 0x30AB PUSH2 0x2EC8 JUMP JUMPDEST SWAP1 POP SWAP1 JUMP JUMPDEST PUSH2 0x30B8 PUSH2 0x6D8A JUMP JUMPDEST DUP1 PUSH2 0x132 DUP2 SWAP1 SSTORE POP POP JUMP JUMPDEST PUSH1 0x0 PUSH2 0x133 SLOAD SWAP1 POP SWAP1 JUMP JUMPDEST PUSH1 0x0 SELFBALANCE SWAP1 POP SWAP1 JUMP JUMPDEST PUSH1 0x0 PUSH2 0x12E PUSH1 0x0 SWAP1 SLOAD SWAP1 PUSH2 0x100 EXP SWAP1 DIV PUSH20 0xFFFFFFFFFFFFFFFFFFFFFFFFFFFFFFFFFFFFFFFF AND PUSH20 0xFFFFFFFFFFFFFFFFFFFFFFFFFFFFFFFFFFFFFFFF AND PUSH4 0x70A08231 ADDRESS PUSH1 0x40 MLOAD DUP3 PUSH4 0xFFFFFFFF AND PUSH1 0xE0 SHL DUP2 MSTORE PUSH1 0x4 ADD PUSH2 0x3134 SWAP2 SWAP1 PUSH2 0x8041 JUMP JUMPDEST PUSH1 0x20 PUSH1 0x40 MLOAD DUP1 DUP4 SUB DUP2 DUP7 GAS STATICCALL ISZERO DUP1 ISZERO PUSH2 0x3151 JUMPI RETURNDATASIZE PUSH1 0x0 DUP1 RETURNDATACOPY RETURNDATASIZE PUSH1 0x0 REVERT JUMPDEST POP POP POP POP PUSH1 0x40 MLOAD RETURNDATASIZE PUSH1 0x1F NOT PUSH1 0x1F DUP3 ADD AND DUP3 ADD DUP1 PUSH1 0x40 MSTORE POP DUP2 ADD SWAP1 PUSH2 0x3175 SWAP2 SWAP1 PUSH2 0x8982 JUMP JUMPDEST SWAP1 POP SWAP1 JUMP JUMPDEST PUSH2 0x3182 PUSH2 0x6D8A JUMP JUMPDEST PUSH2 0x318C PUSH1 0x0 PUSH2 0x71BA JUMP JUMPDEST JUMP JUMPDEST PUSH2 0x3196 PUSH2 0x6D8A JUMP JUMPDEST PUSH1 0x0 PUSH2 0x137 DUP1 SLOAD SWAP1 POP SWAP1 POP DUP1 DUP6 PUSH1 0xFF AND LT PUSH2 0x31DD JUMPI PUSH1 0x40 MLOAD PUSH32 0x54CF5A200000000000000000000000000000000000000000000000000000000 DUP2 MSTORE PUSH1 0x4 ADD PUSH1 0x40 MLOAD DUP1 SWAP2 SUB SWAP1 REVERT JUMPDEST PUSH1 0x40 MLOAD DUP1 PUSH1 0x80 ADD PUSH1 0x40 MSTORE DUP1 DUP6 PUSH4 0xFFFFFFFF AND DUP2 MSTORE PUSH1 0x20 ADD DUP5 DUP2 MSTORE PUSH1 0x20 ADD DUP4 PUSH1 0xFF AND DUP2 MSTORE PUSH1 0x20 ADD TIMESTAMP DUP2 MSTORE POP PUSH2 0x138 PUSH1 0x0 DUP8 PUSH1 0xFF AND PUSH1 0xFF AND DUP2 MSTORE PUSH1 0x20 ADD SWAP1 DUP2 MSTORE PUSH1 0x20 ADD PUSH1 0x0 KECCAK256 PUSH1 0x0 DUP3 ADD MLOAD DUP2 PUSH1 0x0 ADD PUSH1 0x0 PUSH2 0x100 EXP DUP2 SLOAD DUP2 PUSH4 0xFFFFFFFF MUL NOT AND SWAP1 DUP4 PUSH4 0xFFFFFFFF AND MUL OR SWAP1 SSTORE POP PUSH1 0x20 DUP3 ADD MLOAD DUP2 PUSH1 0x1 ADD SSTORE PUSH1 0x40 DUP3 ADD MLOAD DUP2 PUSH1 0x2 ADD PUSH1 0x0 PUSH2 0x100 EXP DUP2 SLOAD DUP2 PUSH1 0xFF MUL NOT AND SWAP1 DUP4 PUSH1 0xFF AND MUL OR SWAP1 SSTORE POP PUSH1 0x60 DUP3 ADD MLOAD DUP2 PUSH1 0x3 ADD SSTORE SWAP1 POP POP POP POP POP POP POP JUMP JUMPDEST PUSH1 0x0 DUP1 PUSH1 0x0 DUP1 PUSH2 0x13C PUSH1 0x0 DUP7 DUP2 MSTORE PUSH1 0x20 ADD SWAP1 DUP2 MSTORE PUSH1 0x20 ADD PUSH1 0x0 KECCAK256 PUSH1 0x0 ADD SLOAD PUSH2 0x13C PUSH1 0x0 DUP8 DUP2 MSTORE PUSH1 0x20 ADD SWAP1 DUP2 MSTORE PUSH1 0x20 ADD PUSH1 0x0 KECCAK256 PUSH1 0x1 ADD SLOAD PUSH2 0x13C PUSH1 0x0 DUP9 DUP2 MSTORE PUSH1 0x20 ADD SWAP1 DUP2 MSTORE PUSH1 0x20 ADD PUSH1 0x0 KECCAK256 PUSH1 0x2 ADD SLOAD PUSH2 0x13C PUSH1 0x0 DUP10 DUP2 MSTORE PUSH1 0x20 ADD SWAP1 DUP2 MSTORE PUSH1 0x20 ADD PUSH1 0x0 KECCAK256 PUSH1 0x3 ADD SLOAD SWAP4 POP SWAP4 POP SWAP4 POP SWAP4 POP SWAP2 SWAP4 POP SWAP2 SWAP4 JUMP JUMPDEST PUSH1 0x0 PUSH1 0x60 PUSH1 0x0 DUP1 PUSH1 0x0 PUSH20 0xFFFFFFFFFFFFFFFFFFFFFFFFFFFFFFFFFFFFFFFF AND DUP6 PUSH20 0xFFFFFFFFFFFFFFFFFFFFFFFFFFFFFFFFFFFFFFFF AND SUB PUSH2 0x3369 JUMPI PUSH1 0x40 MLOAD PUSH32 0xCA834E4600000000000000000000000000000000000000000000000000000000 DUP2 MSTORE PUSH1 0x4 ADD PUSH1 0x40 MLOAD DUP1 SWAP2 SUB SWAP1 REVERT JUMPDEST PUSH1 0x0 PUSH2 0x13E PUSH1 0x0 DUP8 PUSH20 0xFFFFFFFFFFFFFFFFFFFFFFFFFFFFFFFFFFFFFFFF AND PUSH20 0xFFFFFFFFFFFFFFFFFFFFFFFFFFFFFFFFFFFFFFFF AND DUP2 MSTORE PUSH1 0x20 ADD SWAP1 DUP2 MSTORE PUSH1 0x20 ADD PUSH1 0x0 KECCAK256 DUP1 SLOAD SWAP1 POP SWAP1 POP PUSH1 0x0 DUP2 SUB PUSH2 0x3415 JUMPI PUSH1 0x0 DUP1 PUSH8 0xFFFFFFFFFFFFFFFF DUP2 GT ISZERO PUSH2 0x33D5 JUMPI PUSH2 0x33D4 PUSH2 0x7E0F JUMP JUMPDEST JUMPDEST PUSH1 0x40 MLOAD SWAP1 DUP1 DUP3 MSTORE DUP1 PUSH1 0x20 MUL PUSH1 0x20 ADD DUP3 ADD PUSH1 0x40 MSTORE DUP1 ISZERO PUSH2 0x3403 JUMPI DUP2 PUSH1 0x20 ADD PUSH1 0x20 DUP3 MUL DUP1 CALLDATASIZE DUP4 CALLDATACOPY DUP1 DUP3 ADD SWAP2 POP POP SWAP1 POP JUMPDEST POP PUSH1 0x0 DUP1 SWAP5 POP SWAP5 POP SWAP5 POP SWAP5 POP POP PUSH2 0x3525 JUMP JUMPDEST PUSH1 0x0 PUSH2 0x13E PUSH1 0x0 DUP9 PUSH20 0xFFFFFFFFFFFFFFFFFFFFFFFFFFFFFFFFFFFFFFFF AND PUSH20 0xFFFFFFFFFFFFFFFFFFFFFFFFFFFFFFFFFFFFFFFF AND DUP2 MSTORE PUSH1 0x20 ADD SWAP1 DUP2 MSTORE PUSH1 0x20 ADD PUSH1 0x0 KECCAK256 PUSH1 0x1 DUP4 PUSH2 0x3464 SWAP2 SWAP1 PUSH2 0x8A07 JUMP JUMPDEST DUP2 SLOAD DUP2 LT PUSH2 0x3475 JUMPI PUSH2 0x3474 PUSH2 0x8A3B JUMP JUMPDEST JUMPDEST SWAP1 PUSH1 0x0 MSTORE PUSH1 0x20 PUSH1 0x0 KECCAK256 SWAP1 PUSH1 0x4 MUL ADD PUSH1 0x40 MLOAD DUP1 PUSH1 0x80 ADD PUSH1 0x40 MSTORE SWAP1 DUP2 PUSH1 0x0 DUP3 ADD SLOAD DUP2 MSTORE PUSH1 0x20 ADD PUSH1 0x1 DUP3 ADD DUP1 SLOAD DUP1 PUSH1 0x20 MUL PUSH1 0x20 ADD PUSH1 0x40 MLOAD SWAP1 DUP2 ADD PUSH1 0x40 MSTORE DUP1 SWAP3 SWAP2 SWAP1 DUP2 DUP2 MSTORE PUSH1 0x20 ADD DUP3 DUP1 SLOAD DUP1 ISZERO PUSH2 0x34E7 JUMPI PUSH1 0x20 MUL DUP3 ADD SWAP2 SWAP1 PUSH1 0x0 MSTORE PUSH1 0x20 PUSH1 0x0 KECCAK256 SWAP1 JUMPDEST DUP2 SLOAD DUP2 MSTORE PUSH1 0x20 ADD SWAP1 PUSH1 0x1 ADD SWAP1 DUP1 DUP4 GT PUSH2 0x34D3 JUMPI JUMPDEST POP POP POP POP POP DUP2 MSTORE PUSH1 0x20 ADD PUSH1 0x2 DUP3 ADD SLOAD DUP2 MSTORE PUSH1 0x20 ADD PUSH1 0x3 DUP3 ADD SLOAD DUP2 MSTORE POP POP SWAP1 POP DUP1 PUSH1 0x0 ADD MLOAD DUP2 PUSH1 0x20 ADD MLOAD DUP3 PUSH1 0x40 ADD MLOAD DUP4 PUSH1 0x60 ADD MLOAD SWAP6 POP SWAP6 POP SWAP6 POP SWAP6 POP POP POP JUMPDEST SWAP2 SWAP4 POP SWAP2 SWAP4 JUMP JUMPDEST PUSH2 0x3534 PUSH2 0x6D8A JUMP JUMPDEST PUSH2 0x353C PUSH2 0x7280 JUMP JUMPDEST JUMP JUMPDEST PUSH1 0x0 DUP1 PUSH1 0x0 DUP1 PUSH1 0x0 PUSH20 0xFFFFFFFFFFFFFFFFFFFFFFFFFFFFFFFFFFFFFFFF AND DUP7 PUSH20 0xFFFFFFFFFFFFFFFFFFFFFFFFFFFFFFFFFFFFFFFF AND SUB PUSH2 0x35AA JUMPI PUSH1 0x40 MLOAD PUSH32 0xCA834E4600000000000000000000000000000000000000000000000000000000 DUP2 MSTORE PUSH1 0x4 ADD PUSH1 0x40 MLOAD DUP1 SWAP2 SUB SWAP1 REVERT JUMPDEST PUSH1 0x0 PUSH2 0x137 DUP1 SLOAD SWAP1 POP SWAP1 POP DUP1 DUP7 PUSH1 0xFF AND LT PUSH2 0x35F1 JUMPI PUSH1 0x40 MLOAD PUSH32 0x54CF5A200000000000000000000000000000000000000000000000000000000 DUP2 MSTORE PUSH1 0x4 ADD PUSH1 0x40 MLOAD DUP1 SWAP2 SUB SWAP1 REVERT JUMPDEST PUSH1 0x0 PUSH2 0x13B PUSH1 0x0 DUP10 PUSH20 0xFFFFFFFFFFFFFFFFFFFFFFFFFFFFFFFFFFFFFFFF AND PUSH20 0xFFFFFFFFFFFFFFFFFFFFFFFFFFFFFFFFFFFFFFFF AND DUP2 MSTORE PUSH1 0x20 ADD SWAP1 DUP2 MSTORE PUSH1 0x20 ADD PUSH1 0x0 KECCAK256 PUSH1 0x0 DUP9 PUSH1 0xFF AND PUSH1 0xFF AND DUP2 MSTORE PUSH1 0x20 ADD SWAP1 DUP2 MSTORE PUSH1 0x20 ADD PUSH1 0x0 KECCAK256 PUSH1 0x40 MLOAD DUP1 PUSH1 0x80 ADD PUSH1 0x40 MSTORE SWAP1 DUP2 PUSH1 0x0 DUP3 ADD SLOAD DUP2 MSTORE PUSH1 0x20 ADD PUSH1 0x1 DUP3 ADD SLOAD DUP2 MSTORE PUSH1 0x20 ADD PUSH1 0x2 DUP3 ADD SLOAD DUP2 MSTORE PUSH1 0x20 ADD PUSH1 0x3 DUP3 ADD SLOAD DUP2 MSTORE POP POP SWAP1 POP DUP1 PUSH1 0x0 ADD MLOAD DUP2 PUSH1 0x20 ADD MLOAD DUP3 PUSH1 0x40 ADD MLOAD DUP4 PUSH1 0x60 ADD MLOAD SWAP6 POP SWAP6 POP SWAP6 POP SWAP6 POP POP POP SWAP3 SWAP6 SWAP2 SWAP5 POP SWAP3 POP JUMP JUMPDEST PUSH2 0x36AE PUSH2 0x6CE7 JUMP JUMPDEST PUSH2 0x36B6 PUSH2 0x6D31 JUMP JUMPDEST PUSH1 0x0 PUSH2 0x137 DUP1 SLOAD SWAP1 POP SWAP1 POP PUSH1 0x60 DUP1 PUSH1 0x0 DUP4 DUP7 PUSH1 0xFF AND LT PUSH2 0x3702 JUMPI PUSH1 0x40 MLOAD PUSH32 0x54CF5A200000000000000000000000000000000000000000000000000000000 DUP2 MSTORE PUSH1 0x4 ADD PUSH1 0x40 MLOAD DUP1 SWAP2 SUB SWAP1 REVERT JUMPDEST PUSH1 0x0 DUP6 MLOAD SUB PUSH2 0x373D JUMPI PUSH1 0x40 MLOAD PUSH32 0x964E9C0000000000000000000000000000000000000000000000000000000000 DUP2 MSTORE PUSH1 0x4 ADD PUSH1 0x40 MLOAD DUP1 SWAP2 SUB SWAP1 REVERT JUMPDEST PUSH1 0x0 PUSH2 0x13F PUSH1 0x0 CALLER PUSH20 0xFFFFFFFFFFFFFFFFFFFFFFFFFFFFFFFFFFFFFFFF AND PUSH20 0xFFFFFFFFFFFFFFFFFFFFFFFFFFFFFFFFFFFFFFFF AND DUP2 MSTORE PUSH1 0x20 ADD SWAP1 DUP2 MSTORE PUSH1 0x20 ADD PUSH1 0x0 KECCAK256 PUSH1 0x0 DUP9 PUSH1 0xFF AND PUSH1 0xFF AND DUP2 MSTORE PUSH1 0x20 ADD SWAP1 DUP2 MSTORE PUSH1 0x20 ADD PUSH1 0x0 KECCAK256 PUSH1 0x40 MLOAD DUP1 PUSH1 0x80 ADD PUSH1 0x40 MSTORE SWAP1 DUP2 PUSH1 0x0 DUP3 ADD SLOAD DUP2 MSTORE PUSH1 0x20 ADD PUSH1 0x1 DUP3 ADD DUP1 SLOAD DUP1 PUSH1 0x20 MUL PUSH1 0x20 ADD PUSH1 0x40 MLOAD SWAP1 DUP2 ADD PUSH1 0x40 MSTORE DUP1 SWAP3 SWAP2 SWAP1 DUP2 DUP2 MSTORE PUSH1 0x20 ADD DUP3 DUP1 SLOAD DUP1 ISZERO PUSH2 0x37FA JUMPI PUSH1 0x20 MUL DUP3 ADD SWAP2 SWAP1 PUSH1 0x0 MSTORE PUSH1 0x20 PUSH1 0x0 KECCAK256 SWAP1 JUMPDEST DUP2 SLOAD DUP2 MSTORE PUSH1 0x20 ADD SWAP1 PUSH1 0x1 ADD SWAP1 DUP1 DUP4 GT PUSH2 0x37E6 JUMPI JUMPDEST POP POP POP POP POP DUP2 MSTORE PUSH1 0x20 ADD PUSH1 0x2 DUP3 ADD SLOAD DUP2 MSTORE PUSH1 0x20 ADD PUSH1 0x3 DUP3 ADD SLOAD DUP2 MSTORE POP POP SWAP1 POP PUSH1 0x0 DUP2 PUSH1 0x0 ADD MLOAD SUB PUSH2 0x3857 JUMPI PUSH1 0x40 MLOAD PUSH32 0x4BB2437200000000000000000000000000000000000000000000000000000000 DUP2 MSTORE PUSH1 0x4 ADD PUSH1 0x40 MLOAD DUP1 SWAP2 SUB SWAP1 REVERT JUMPDEST DUP1 PUSH1 0x20 ADD MLOAD SWAP4 POP PUSH1 0x0 JUMPDEST DUP7 MLOAD DUP2 LT ISZERO PUSH2 0x3A3F JUMPI PUSH1 0x0 SWAP3 POP PUSH1 0x0 JUMPDEST DUP6 MLOAD DUP2 LT ISZERO PUSH2 0x39CF JUMPI DUP6 DUP2 DUP2 MLOAD DUP2 LT PUSH2 0x388D JUMPI PUSH2 0x388C PUSH2 0x8A3B JUMP JUMPDEST JUMPDEST PUSH1 0x20 MUL PUSH1 0x20 ADD ADD MLOAD DUP9 DUP4 DUP2 MLOAD DUP2 LT PUSH2 0x38A8 JUMPI PUSH2 0x38A7 PUSH2 0x8A3B JUMP JUMPDEST JUMPDEST PUSH1 0x20 MUL PUSH1 0x20 ADD ADD MLOAD SUB PUSH2 0x39BC JUMPI PUSH1 0x1 SWAP4 POP DUP6 DUP3 PUSH1 0x1 PUSH2 0x38C7 SWAP2 SWAP1 PUSH2 0x8A6A JUMP JUMPDEST DUP8 MLOAD PUSH2 0x38D3 SWAP2 SWAP1 PUSH2 0x8A07 JUMP JUMPDEST DUP2 MLOAD DUP2 LT PUSH2 0x38E4 JUMPI PUSH2 0x38E3 PUSH2 0x8A3B JUMP JUMPDEST JUMPDEST PUSH1 0x20 MUL PUSH1 0x20 ADD ADD MLOAD DUP7 DUP3 DUP2 MLOAD DUP2 LT PUSH2 0x38FF JUMPI PUSH2 0x38FE PUSH2 0x8A3B JUMP JUMPDEST JUMPDEST PUSH1 0x20 MUL PUSH1 0x20 ADD ADD DUP2 DUP2 MSTORE POP POP PUSH2 0x12E PUSH1 0x0 SWAP1 SLOAD SWAP1 PUSH2 0x100 EXP SWAP1 DIV PUSH20 0xFFFFFFFFFFFFFFFFFFFFFFFFFFFFFFFFFFFFFFFF AND PUSH20 0xFFFFFFFFFFFFFFFFFFFFFFFFFFFFFFFFFFFFFFFF AND PUSH4 0x42842E0E ADDRESS CALLER DUP12 DUP7 DUP2 MLOAD DUP2 LT PUSH2 0x395F JUMPI PUSH2 0x395E PUSH2 0x8A3B JUMP JUMPDEST JUMPDEST PUSH1 0x20 MUL PUSH1 0x20 ADD ADD MLOAD PUSH1 0x40 MLOAD DUP5 PUSH4 0xFFFFFFFF AND PUSH1 0xE0 SHL DUP2 MSTORE PUSH1 0x4 ADD PUSH2 0x3985 SWAP4 SWAP3 SWAP2 SWAP1 PUSH2 0x8A9E JUMP JUMPDEST PUSH1 0x0 PUSH1 0x40 MLOAD DUP1 DUP4 SUB DUP2 PUSH1 0x0 DUP8 DUP1 EXTCODESIZE ISZERO DUP1 ISZERO PUSH2 0x399F JUMPI PUSH1 0x0 DUP1 REVERT JUMPDEST POP GAS CALL ISZERO DUP1 ISZERO PUSH2 0x39B3 JUMPI RETURNDATASIZE PUSH1 0x0 DUP1 RETURNDATACOPY RETURNDATASIZE PUSH1 0x0 REVERT JUMPDEST POP POP POP POP PUSH2 0x39CF JUMP JUMPDEST DUP1 DUP1 PUSH2 0x39C7 SWAP1 PUSH2 0x8BB7 JUMP JUMPDEST SWAP2 POP POP PUSH2 0x3871 JUMP JUMPDEST POP DUP3 PUSH2 0x3A2C JUMPI DUP7 DUP2 DUP2 MLOAD DUP2 LT PUSH2 0x39E8 JUMPI PUSH2 0x39E7 PUSH2 0x8A3B JUMP JUMPDEST JUMPDEST PUSH1 0x20 MUL PUSH1 0x20 ADD ADD MLOAD PUSH1 0x40 MLOAD PUSH32 0xCF892BC300000000000000000000000000000000000000000000000000000000 DUP2 MSTORE PUSH1 0x4 ADD PUSH2 0x3A23 SWAP2 SWAP1 PUSH2 0x7C5F JUMP JUMPDEST PUSH1 0x40 MLOAD DUP1 SWAP2 SUB SWAP1 REVERT JUMPDEST DUP1 DUP1 PUSH2 0x3A37 SWAP1 PUSH2 0x8BB7 JUMP JUMPDEST SWAP2 POP POP PUSH2 0x3861 JUMP JUMPDEST POP DUP6 MLOAD DUP5 MLOAD PUSH2 0x3A4E SWAP2 SWAP1 PUSH2 0x8A07 JUMP JUMPDEST PUSH8 0xFFFFFFFFFFFFFFFF DUP2 GT ISZERO PUSH2 0x3A67 JUMPI PUSH2 0x3A66 PUSH2 0x7E0F JUMP JUMPDEST JUMPDEST PUSH1 0x40 MLOAD SWAP1 DUP1 DUP3 MSTORE DUP1 PUSH1 0x20 MUL PUSH1 0x20 ADD DUP3 ADD PUSH1 0x40 MSTORE DUP1 ISZERO PUSH2 0x3A95 JUMPI DUP2 PUSH1 0x20 ADD PUSH1 0x20 DUP3 MUL DUP1 CALLDATASIZE DUP4 CALLDATACOPY DUP1 DUP3 ADD SWAP2 POP POP SWAP1 POP JUMPDEST POP SWAP3 POP PUSH1 0x0 DUP4 MLOAD EQ PUSH2 0x3AFC JUMPI PUSH1 0x0 JUMPDEST DUP4 MLOAD DUP2 LT ISZERO PUSH2 0x3AFA JUMPI DUP5 DUP2 DUP2 MLOAD DUP2 LT PUSH2 0x3AC0 JUMPI PUSH2 0x3ABF PUSH2 0x8A3B JUMP JUMPDEST JUMPDEST PUSH1 0x20 MUL PUSH1 0x20 ADD ADD MLOAD DUP5 DUP3 DUP2 MLOAD DUP2 LT PUSH2 0x3ADB JUMPI PUSH2 0x3ADA PUSH2 0x8A3B JUMP JUMPDEST JUMPDEST PUSH1 0x20 MUL PUSH1 0x20 ADD ADD DUP2 DUP2 MSTORE POP POP DUP1 DUP1 PUSH2 0x3AF2 SWAP1 PUSH2 0x8BB7 JUMP JUMPDEST SWAP2 POP POP PUSH2 0x3AA4 JUMP JUMPDEST POP JUMPDEST PUSH1 0x0 PUSH2 0x13E PUSH1 0x0 CALLER PUSH20 0xFFFFFFFFFFFFFFFFFFFFFFFFFFFFFFFFFFFFFFFF AND PUSH20 0xFFFFFFFFFFFFFFFFFFFFFFFFFFFFFFFFFFFFFFFF AND DUP2 MSTORE PUSH1 0x20 ADD SWAP1 DUP2 MSTORE PUSH1 0x20 ADD PUSH1 0x0 KECCAK256 DUP1 SLOAD SWAP1 POP SWAP1 POP PUSH1 0x0 PUSH2 0x13E PUSH1 0x0 CALLER PUSH20 0xFFFFFFFFFFFFFFFFFFFFFFFFFFFFFFFFFFFFFFFF AND PUSH20 0xFFFFFFFFFFFFFFFFFFFFFFFFFFFFFFFFFFFFFFFF AND DUP2 MSTORE PUSH1 0x20 ADD SWAP1 DUP2 MSTORE PUSH1 0x20 ADD PUSH1 0x0 KECCAK256 PUSH1 0x1 DUP4 PUSH2 0x3B93 SWAP2 SWAP1 PUSH2 0x8A07 JUMP JUMPDEST DUP2 SLOAD DUP2 LT PUSH2 0x3BA4 JUMPI PUSH2 0x3BA3 PUSH2 0x8A3B JUMP JUMPDEST JUMPDEST SWAP1 PUSH1 0x0 MSTORE PUSH1 0x20 PUSH1 0x0 KECCAK256 SWAP1 PUSH1 0x4 MUL ADD PUSH1 0x1 ADD DUP1 SLOAD DUP1 PUSH1 0x20 MUL PUSH1 0x20 ADD PUSH1 0x40 MLOAD SWAP1 DUP2 ADD PUSH1 0x40 MSTORE DUP1 SWAP3 SWAP2 SWAP1 DUP2 DUP2 MSTORE PUSH1 0x20 ADD DUP3 DUP1 SLOAD DUP1 ISZERO PUSH2 0x3BFF JUMPI PUSH1 0x20 MUL DUP3 ADD SWAP2 SWAP1 PUSH1 0x0 MSTORE PUSH1 0x20 PUSH1 0x0 KECCAK256 SWAP1 JUMPDEST DUP2 SLOAD DUP2 MSTORE PUSH1 0x20 ADD SWAP1 PUSH1 0x1 ADD SWAP1 DUP1 DUP4 GT PUSH2 0x3BEB JUMPI JUMPDEST POP POP POP POP POP SWAP1 POP PUSH1 0x0 DUP9 MLOAD DUP3 MLOAD PUSH2 0x3C16 SWAP2 SWAP1 PUSH2 0x8A07 JUMP JUMPDEST PUSH8 0xFFFFFFFFFFFFFFFF DUP2 GT ISZERO PUSH2 0x3C2F JUMPI PUSH2 0x3C2E PUSH2 0x7E0F JUMP JUMPDEST JUMPDEST PUSH1 0x40 MLOAD SWAP1 DUP1 DUP3 MSTORE DUP1 PUSH1 0x20 MUL PUSH1 0x20 ADD DUP3 ADD PUSH1 0x40 MSTORE DUP1 ISZERO PUSH2 0x3C5D JUMPI DUP2 PUSH1 0x20 ADD PUSH1 0x20 DUP3 MUL DUP1 CALLDATASIZE DUP4 CALLDATACOPY DUP1 DUP3 ADD SWAP2 POP POP SWAP1 POP JUMPDEST POP SWAP1 POP PUSH1 0x0 DUP2 MLOAD EQ PUSH2 0x3D42 JUMPI PUSH1 0x0 DUP1 JUMPDEST DUP4 MLOAD DUP2 LT ISZERO PUSH2 0x3D3F JUMPI PUSH1 0x0 SWAP7 POP PUSH1 0x0 JUMPDEST DUP12 MLOAD DUP2 LT ISZERO PUSH2 0x3CDD JUMPI DUP12 DUP2 DUP2 MLOAD DUP2 LT PUSH2 0x3C99 JUMPI PUSH2 0x3C98 PUSH2 0x8A3B JUMP JUMPDEST JUMPDEST PUSH1 0x20 MUL PUSH1 0x20 ADD ADD MLOAD DUP6 DUP4 DUP2 MLOAD DUP2 LT PUSH2 0x3CB4 JUMPI PUSH2 0x3CB3 PUSH2 0x8A3B JUMP JUMPDEST JUMPDEST PUSH1 0x20 MUL PUSH1 0x20 ADD ADD MLOAD SUB PUSH2 0x3CCA JUMPI PUSH1 0x1 SWAP8 POP PUSH2 0x3CDD JUMP JUMPDEST DUP1 DUP1 PUSH2 0x3CD5 SWAP1 PUSH2 0x8BB7 JUMP JUMPDEST SWAP2 POP POP PUSH2 0x3C7D JUMP JUMPDEST POP DUP7 PUSH2 0x3D2C JUMPI DUP4 DUP2 DUP2 MLOAD DUP2 LT PUSH2 0x3CF6 JUMPI PUSH2 0x3CF5 PUSH2 0x8A3B JUMP JUMPDEST JUMPDEST PUSH1 0x20 MUL PUSH1 0x20 ADD ADD MLOAD DUP4 DUP4 DUP2 MLOAD DUP2 LT PUSH2 0x3D11 JUMPI PUSH2 0x3D10 PUSH2 0x8A3B JUMP JUMPDEST JUMPDEST PUSH1 0x20 MUL PUSH1 0x20 ADD ADD DUP2 DUP2 MSTORE POP POP DUP2 DUP1 PUSH2 0x3D28 SWAP1 PUSH2 0x8BB7 JUMP JUMPDEST SWAP3 POP POP JUMPDEST DUP1 DUP1 PUSH2 0x3D37 SWAP1 PUSH2 0x8BB7 JUMP JUMPDEST SWAP2 POP POP PUSH2 0x3C6D JUMP JUMPDEST POP POP JUMPDEST PUSH2 0x13E PUSH1 0x0 CALLER PUSH20 0xFFFFFFFFFFFFFFFFFFFFFFFFFFFFFFFFFFFFFFFF AND PUSH20 0xFFFFFFFFFFFFFFFFFFFFFFFFFFFFFFFFFFFFFFFF AND DUP2 MSTORE PUSH1 0x20 ADD SWAP1 DUP2 MSTORE PUSH1 0x20 ADD PUSH1 0x0 KECCAK256 PUSH1 0x40 MLOAD DUP1 PUSH1 0x80 ADD PUSH1 0x40 MSTORE DUP1 DUP4 MLOAD DUP2 MSTORE PUSH1 0x20 ADD DUP4 DUP2 MSTORE PUSH1 0x20 ADD TIMESTAMP DUP2 MSTORE PUSH1 0x20 ADD PUSH2 0x12F SLOAD DUP2 MSTORE POP SWAP1 DUP1 PUSH1 0x1 DUP2 SLOAD ADD DUP1 DUP3 SSTORE DUP1 SWAP2 POP POP PUSH1 0x1 SWAP1 SUB SWAP1 PUSH1 0x0 MSTORE PUSH1 0x20 PUSH1 0x0 KECCAK256 SWAP1 PUSH1 0x4 MUL ADD PUSH1 0x0 SWAP1 SWAP2 SWAP1 SWAP2 SWAP1 SWAP2 POP PUSH1 0x0 DUP3 ADD MLOAD DUP2 PUSH1 0x0 ADD SSTORE PUSH1 0x20 DUP3 ADD MLOAD DUP2 PUSH1 0x1 ADD SWAP1 DUP1 MLOAD SWAP1 PUSH1 0x20 ADD SWAP1 PUSH2 0x3DF6 SWAP3 SWAP2 SWAP1 PUSH2 0x7832 JUMP JUMPDEST POP PUSH1 0x40 DUP3 ADD MLOAD DUP2 PUSH1 0x2 ADD SSTORE PUSH1 0x60 DUP3 ADD MLOAD DUP2 PUSH1 0x3 ADD SSTORE POP POP DUP6 MLOAD DUP5 PUSH1 0x0 ADD DUP2 DUP2 MSTORE POP POP DUP6 DUP5 PUSH1 0x20 ADD DUP2 SWAP1 MSTORE POP TIMESTAMP DUP5 PUSH1 0x40 ADD DUP2 DUP2 MSTORE POP POP PUSH2 0x12F SLOAD DUP5 PUSH1 0x60 ADD DUP2 DUP2 MSTORE POP POP DUP4 PUSH2 0x13F PUSH1 0x0 CALLER PUSH20 0xFFFFFFFFFFFFFFFFFFFFFFFFFFFFFFFFFFFFFFFF AND PUSH20 0xFFFFFFFFFFFFFFFFFFFFFFFFFFFFFFFFFFFFFFFF AND DUP2 MSTORE PUSH1 0x20 ADD SWAP1 DUP2 MSTORE PUSH1 0x20 ADD PUSH1 0x0 KECCAK256 PUSH1 0x0 DUP13 PUSH1 0xFF AND PUSH1 0xFF AND DUP2 MSTORE PUSH1 0x20 ADD SWAP1 DUP2 MSTORE PUSH1 0x20 ADD PUSH1 0x0 KECCAK256 PUSH1 0x0 DUP3 ADD MLOAD DUP2 PUSH1 0x0 ADD SSTORE PUSH1 0x20 DUP3 ADD MLOAD DUP2 PUSH1 0x1 ADD SWAP1 DUP1 MLOAD SWAP1 PUSH1 0x20 ADD SWAP1 PUSH2 0x3EB6 SWAP3 SWAP2 SWAP1 PUSH2 0x7832 JUMP JUMPDEST POP PUSH1 0x40 DUP3 ADD MLOAD DUP2 PUSH1 0x2 ADD SSTORE PUSH1 0x60 DUP3 ADD MLOAD DUP2 PUSH1 0x3 ADD SSTORE SWAP1 POP POP CALLER PUSH20 0xFFFFFFFFFFFFFFFFFFFFFFFFFFFFFFFFFFFFFFFF AND PUSH32 0xD370A0093663F261A7153F84A0E811095A59A6185F4CA94B10FD4E15999E533F DUP11 MLOAD DUP12 DUP14 PUSH1 0x40 MLOAD PUSH2 0x3F19 SWAP4 SWAP3 SWAP2 SWAP1 PUSH2 0x8F85 JUMP JUMPDEST PUSH1 0x40 MLOAD DUP1 SWAP2 SUB SWAP1 LOG2 POP POP POP POP POP POP POP POP PUSH2 0x3F31 PUSH2 0x6D80 JUMP JUMPDEST POP POP JUMP JUMPDEST PUSH2 0x3F3D PUSH2 0x6CE7 JUMP JUMPDEST PUSH2 0x3F45 PUSH2 0x6D31 JUMP JUMPDEST PUSH1 0x0 PUSH2 0x137 DUP1 SLOAD SWAP1 POP SWAP1 POP PUSH1 0x0 PUSH2 0x13E PUSH1 0x0 CALLER PUSH20 0xFFFFFFFFFFFFFFFFFFFFFFFFFFFFFFFFFFFFFFFF AND PUSH20 0xFFFFFFFFFFFFFFFFFFFFFFFFFFFFFFFFFFFFFFFF AND DUP2 MSTORE PUSH1 0x20 ADD SWAP1 DUP2 MSTORE PUSH1 0x20 ADD PUSH1 0x0 KECCAK256 DUP1 SLOAD SWAP1 POP SWAP1 POP DUP2 DUP4 PUSH1 0xFF AND LT PUSH2 0x3FD4 JUMPI PUSH1 0x40 MLOAD PUSH32 0x54CF5A200000000000000000000000000000000000000000000000000000000 DUP2 MSTORE PUSH1 0x4 ADD PUSH1 0x40 MLOAD DUP1 SWAP2 SUB SWAP1 REVERT JUMPDEST PUSH1 0x0 PUSH2 0x138 PUSH1 0x0 DUP6 PUSH1 0xFF AND PUSH1 0xFF AND DUP2 MSTORE PUSH1 0x20 ADD SWAP1 DUP2 MSTORE PUSH1 0x20 ADD PUSH1 0x0 KECCAK256 PUSH1 0x40 MLOAD DUP1 PUSH1 0x80 ADD PUSH1 0x40 MSTORE SWAP1 DUP2 PUSH1 0x0 DUP3 ADD PUSH1 0x0 SWAP1 SLOAD SWAP1 PUSH2 0x100 EXP SWAP1 DIV PUSH4 0xFFFFFFFF AND PUSH4 0xFFFFFFFF AND PUSH4 0xFFFFFFFF AND DUP2 MSTORE PUSH1 0x20 ADD PUSH1 0x1 DUP3 ADD SLOAD DUP2 MSTORE PUSH1 0x20 ADD PUSH1 0x2 DUP3 ADD PUSH1 0x0 SWAP1 SLOAD SWAP1 PUSH2 0x100 EXP SWAP1 DIV PUSH1 0xFF AND PUSH1 0xFF AND PUSH1 0xFF AND DUP2 MSTORE PUSH1 0x20 ADD PUSH1 0x3 DUP3 ADD SLOAD DUP2 MSTORE POP POP SWAP1 POP PUSH1 0x0 PUSH2 0x13F PUSH1 0x0 CALLER PUSH20 0xFFFFFFFFFFFFFFFFFFFFFFFFFFFFFFFFFFFFFFFF AND PUSH20 0xFFFFFFFFFFFFFFFFFFFFFFFFFFFFFFFFFFFFFFFF AND DUP2 MSTORE PUSH1 0x20 ADD SWAP1 DUP2 MSTORE PUSH1 0x20 ADD PUSH1 0x0 KECCAK256 PUSH1 0x0 DUP7 PUSH1 0xFF AND PUSH1 0xFF AND DUP2 MSTORE PUSH1 0x20 ADD SWAP1 DUP2 MSTORE PUSH1 0x20 ADD PUSH1 0x0 KECCAK256 SWAP1 POP DUP6 MLOAD DUP2 PUSH1 0x0 ADD SLOAD DUP4 PUSH1 0x40 ADD MLOAD PUSH1 0xFF AND PUSH2 0x40C8 SWAP2 SWAP1 PUSH2 0x8A07 JUMP JUMPDEST LT ISZERO PUSH2 0x410F JUMPI DUP2 PUSH1 0x40 ADD MLOAD PUSH1 0x40 MLOAD PUSH32 0xDBC26E0B00000000000000000000000000000000000000000000000000000000 DUP2 MSTORE PUSH1 0x4 ADD PUSH2 0x4106 SWAP2 SWAP1 PUSH2 0x8FF4 JUMP JUMPDEST PUSH1 0x40 MLOAD DUP1 SWAP2 SUB SWAP1 REVERT JUMPDEST PUSH1 0x0 JUMPDEST DUP7 MLOAD DUP2 LT ISZERO PUSH2 0x426E JUMPI CALLER PUSH20 0xFFFFFFFFFFFFFFFFFFFFFFFFFFFFFFFFFFFFFFFF AND PUSH2 0x12E PUSH1 0x0 SWAP1 SLOAD SWAP1 PUSH2 0x100 EXP SWAP1 DIV PUSH20 0xFFFFFFFFFFFFFFFFFFFFFFFFFFFFFFFFFFFFFFFF AND PUSH20 0xFFFFFFFFFFFFFFFFFFFFFFFFFFFFFFFFFFFFFFFF AND PUSH4 0x6352211E DUP10 DUP5 DUP2 MLOAD DUP2 LT PUSH2 0x4184 JUMPI PUSH2 0x4183 PUSH2 0x8A3B JUMP JUMPDEST JUMPDEST PUSH1 0x20 MUL PUSH1 0x20 ADD ADD MLOAD PUSH1 0x40 MLOAD DUP3 PUSH4 0xFFFFFFFF AND PUSH1 0xE0 SHL DUP2 MSTORE PUSH1 0x4 ADD PUSH2 0x41A8 SWAP2 SWAP1 PUSH2 0x7C5F JUMP JUMPDEST PUSH1 0x20 PUSH1 0x40 MLOAD DUP1 DUP4 SUB DUP2 DUP7 GAS STATICCALL ISZERO DUP1 ISZERO PUSH2 0x41C5 JUMPI RETURNDATASIZE PUSH1 0x0 DUP1 RETURNDATACOPY RETURNDATASIZE PUSH1 0x0 REVERT JUMPDEST POP POP POP POP PUSH1 0x40 MLOAD RETURNDATASIZE PUSH1 0x1F NOT PUSH1 0x1F DUP3 ADD AND DUP3 ADD DUP1 PUSH1 0x40 MSTORE POP DUP2 ADD SWAP1 PUSH2 0x41E9 SWAP2 SWAP1 PUSH2 0x9024 JUMP JUMPDEST PUSH20 0xFFFFFFFFFFFFFFFFFFFFFFFFFFFFFFFFFFFFFFFF AND EQ PUSH2 0x425B JUMPI DUP7 DUP2 DUP2 MLOAD DUP2 LT PUSH2 0x4217 JUMPI PUSH2 0x4216 PUSH2 0x8A3B JUMP JUMPDEST JUMPDEST PUSH1 0x20 MUL PUSH1 0x20 ADD ADD MLOAD PUSH1 0x40 MLOAD PUSH32 0xCF892BC300000000000000000000000000000000000000000000000000000000 DUP2 MSTORE PUSH1 0x4 ADD PUSH2 0x4252 SWAP2 SWAP1 PUSH2 0x7C5F JUMP JUMPDEST PUSH1 0x40 MLOAD DUP1 SWAP2 SUB SWAP1 REVERT JUMPDEST DUP1 DUP1 PUSH2 0x4266 SWAP1 PUSH2 0x8BB7 JUMP JUMPDEST SWAP2 POP POP PUSH2 0x4112 JUMP JUMPDEST POP PUSH2 0x12E PUSH1 0x0 SWAP1 SLOAD SWAP1 PUSH2 0x100 EXP SWAP1 DIV PUSH20 0xFFFFFFFFFFFFFFFFFFFFFFFFFFFFFFFFFFFFFFFF AND PUSH20 0xFFFFFFFFFFFFFFFFFFFFFFFFFFFFFFFFFFFFFFFF AND PUSH4 0xE985E9C5 CALLER ADDRESS PUSH1 0x40 MLOAD DUP4 PUSH4 0xFFFFFFFF AND PUSH1 0xE0 SHL DUP2 MSTORE PUSH1 0x4 ADD PUSH2 0x42CD SWAP3 SWAP2 SWAP1 PUSH2 0x89AF JUMP JUMPDEST PUSH1 0x20 PUSH1 0x40 MLOAD DUP1 DUP4 SUB DUP2 DUP7 GAS STATICCALL ISZERO DUP1 ISZERO PUSH2 0x42EA JUMPI RETURNDATASIZE PUSH1 0x0 DUP1 RETURNDATACOPY RETURNDATASIZE PUSH1 0x0 REVERT JUMPDEST POP POP POP POP PUSH1 0x40 MLOAD RETURNDATASIZE PUSH1 0x1F NOT PUSH1 0x1F DUP3 ADD AND DUP3 ADD DUP1 PUSH1 0x40 MSTORE POP DUP2 ADD SWAP1 PUSH2 0x430E SWAP2 SWAP1 PUSH2 0x8B01 JUMP JUMPDEST PUSH2 0x4344 JUMPI PUSH1 0x40 MLOAD PUSH32 0x8990D1B600000000000000000000000000000000000000000000000000000000 DUP2 MSTORE PUSH1 0x4 ADD PUSH1 0x40 MLOAD DUP1 SWAP2 SUB SWAP1 REVERT JUMPDEST PUSH1 0x0 JUMPDEST DUP7 MLOAD DUP2 LT ISZERO PUSH2 0x4454 JUMPI PUSH2 0x12E PUSH1 0x0 SWAP1 SLOAD SWAP1 PUSH2 0x100 EXP SWAP1 DIV PUSH20 0xFFFFFFFFFFFFFFFFFFFFFFFFFFFFFFFFFFFFFFFF AND PUSH20 0xFFFFFFFFFFFFFFFFFFFFFFFFFFFFFFFFFFFFFFFF AND PUSH4 0x42842E0E CALLER ADDRESS DUP11 DUP6 DUP2 MLOAD DUP2 LT PUSH2 0x43A4 JUMPI PUSH2 0x43A3 PUSH2 0x8A3B JUMP JUMPDEST JUMPDEST PUSH1 0x20 MUL PUSH1 0x20 ADD ADD MLOAD PUSH1 0x40 MLOAD DUP5 PUSH4 0xFFFFFFFF AND PUSH1 0xE0 SHL DUP2 MSTORE PUSH1 0x4 ADD PUSH2 0x43CA SWAP4 SWAP3 SWAP2 SWAP1 PUSH2 0x8A9E JUMP JUMPDEST PUSH1 0x0 PUSH1 0x40 MLOAD DUP1 DUP4 SUB DUP2 PUSH1 0x0 DUP8 DUP1 EXTCODESIZE ISZERO DUP1 ISZERO PUSH2 0x43E4 JUMPI PUSH1 0x0 DUP1 REVERT JUMPDEST POP GAS CALL ISZERO DUP1 ISZERO PUSH2 0x43F8 JUMPI RETURNDATASIZE PUSH1 0x0 DUP1 RETURNDATACOPY RETURNDATASIZE PUSH1 0x0 REVERT JUMPDEST POP POP POP POP DUP2 PUSH1 0x1 ADD DUP8 DUP3 DUP2 MLOAD DUP2 LT PUSH2 0x4413 JUMPI PUSH2 0x4412 PUSH2 0x8A3B JUMP JUMPDEST JUMPDEST PUSH1 0x20 MUL PUSH1 0x20 ADD ADD MLOAD SWAP1 DUP1 PUSH1 0x1 DUP2 SLOAD ADD DUP1 DUP3 SSTORE DUP1 SWAP2 POP POP PUSH1 0x1 SWAP1 SUB SWAP1 PUSH1 0x0 MSTORE PUSH1 0x20 PUSH1 0x0 KECCAK256 ADD PUSH1 0x0 SWAP1 SWAP2 SWAP1 SWAP2 SWAP1 SWAP2 POP SSTORE DUP1 DUP1 PUSH2 0x444C SWAP1 PUSH2 0x8BB7 JUMP JUMPDEST SWAP2 POP POP PUSH2 0x4347 JUMP JUMPDEST POP DUP6 MLOAD DUP2 PUSH1 0x0 ADD PUSH1 0x0 DUP3 DUP3 SLOAD PUSH2 0x446A SWAP2 SWAP1 PUSH2 0x8A6A JUMP JUMPDEST SWAP3 POP POP DUP2 SWAP1 SSTORE POP TIMESTAMP DUP2 PUSH1 0x2 ADD DUP2 SWAP1 SSTORE POP PUSH2 0x12F SLOAD DUP2 PUSH1 0x3 ADD DUP2 SWAP1 SSTORE POP DUP1 PUSH2 0x13F PUSH1 0x0 CALLER PUSH20 0xFFFFFFFFFFFFFFFFFFFFFFFFFFFFFFFFFFFFFFFF AND PUSH20 0xFFFFFFFFFFFFFFFFFFFFFFFFFFFFFFFFFFFFFFFF AND DUP2 MSTORE PUSH1 0x20 ADD SWAP1 DUP2 MSTORE PUSH1 0x20 ADD PUSH1 0x0 KECCAK256 PUSH1 0x0 DUP8 PUSH1 0xFF AND PUSH1 0xFF AND DUP2 MSTORE PUSH1 0x20 ADD SWAP1 DUP2 MSTORE PUSH1 0x20 ADD PUSH1 0x0 KECCAK256 PUSH1 0x0 DUP3 ADD SLOAD DUP2 PUSH1 0x0 ADD SSTORE PUSH1 0x1 DUP3 ADD DUP2 PUSH1 0x1 ADD SWAP1 DUP1 SLOAD PUSH2 0x44FE SWAP3 SWAP2 SWAP1 PUSH2 0x787F JUMP JUMPDEST POP PUSH1 0x2 DUP3 ADD SLOAD DUP2 PUSH1 0x2 ADD SSTORE PUSH1 0x3 DUP3 ADD SLOAD DUP2 PUSH1 0x3 ADD SSTORE SWAP1 POP POP PUSH1 0x0 DUP4 SUB PUSH2 0x45EE JUMPI PUSH2 0x13E PUSH1 0x0 CALLER PUSH20 0xFFFFFFFFFFFFFFFFFFFFFFFFFFFFFFFFFFFFFFFF AND PUSH20 0xFFFFFFFFFFFFFFFFFFFFFFFFFFFFFFFFFFFFFFFF AND DUP2 MSTORE PUSH1 0x20 ADD SWAP1 DUP2 MSTORE PUSH1 0x20 ADD PUSH1 0x0 KECCAK256 PUSH1 0x40 MLOAD DUP1 PUSH1 0x80 ADD PUSH1 0x40 MSTORE DUP1 DUP9 MLOAD DUP2 MSTORE PUSH1 0x20 ADD DUP9 DUP2 MSTORE PUSH1 0x20 ADD TIMESTAMP DUP2 MSTORE PUSH1 0x20 ADD PUSH2 0x12F SLOAD DUP2 MSTORE POP SWAP1 DUP1 PUSH1 0x1 DUP2 SLOAD ADD DUP1 DUP3 SSTORE DUP1 SWAP2 POP POP PUSH1 0x1 SWAP1 SUB SWAP1 PUSH1 0x0 MSTORE PUSH1 0x20 PUSH1 0x0 KECCAK256 SWAP1 PUSH1 0x4 MUL ADD PUSH1 0x0 SWAP1 SWAP2 SWAP1 SWAP2 SWAP1 SWAP2 POP PUSH1 0x0 DUP3 ADD MLOAD DUP2 PUSH1 0x0 ADD SSTORE PUSH1 0x20 DUP3 ADD MLOAD DUP2 PUSH1 0x1 ADD SWAP1 DUP1 MLOAD SWAP1 PUSH1 0x20 ADD SWAP1 PUSH2 0x45D2 SWAP3 SWAP2 SWAP1 PUSH2 0x7832 JUMP JUMPDEST POP PUSH1 0x40 DUP3 ADD MLOAD DUP2 PUSH1 0x2 ADD SSTORE PUSH1 0x60 DUP3 ADD MLOAD DUP2 PUSH1 0x3 ADD SSTORE POP POP PUSH2 0x4898 JUMP JUMPDEST PUSH1 0x0 PUSH2 0x13E PUSH1 0x0 CALLER PUSH20 0xFFFFFFFFFFFFFFFFFFFFFFFFFFFFFFFFFFFFFFFF AND PUSH20 0xFFFFFFFFFFFFFFFFFFFFFFFFFFFFFFFFFFFFFFFF AND DUP2 MSTORE PUSH1 0x20 ADD SWAP1 DUP2 MSTORE PUSH1 0x20 ADD PUSH1 0x0 KECCAK256 PUSH1 0x1 DUP6 PUSH2 0x463D SWAP2 SWAP1 PUSH2 0x8A07 JUMP JUMPDEST DUP2 SLOAD DUP2 LT PUSH2 0x464E JUMPI PUSH2 0x464D PUSH2 0x8A3B JUMP JUMPDEST JUMPDEST SWAP1 PUSH1 0x0 MSTORE PUSH1 0x20 PUSH1 0x0 KECCAK256 SWAP1 PUSH1 0x4 MUL ADD PUSH1 0x1 ADD DUP1 SLOAD DUP1 PUSH1 0x20 MUL PUSH1 0x20 ADD PUSH1 0x40 MLOAD SWAP1 DUP2 ADD PUSH1 0x40 MSTORE DUP1 SWAP3 SWAP2 SWAP1 DUP2 DUP2 MSTORE PUSH1 0x20 ADD DUP3 DUP1 SLOAD DUP1 ISZERO PUSH2 0x46A9 JUMPI PUSH1 0x20 MUL DUP3 ADD SWAP2 SWAP1 PUSH1 0x0 MSTORE PUSH1 0x20 PUSH1 0x0 KECCAK256 SWAP1 JUMPDEST DUP2 SLOAD DUP2 MSTORE PUSH1 0x20 ADD SWAP1 PUSH1 0x1 ADD SWAP1 DUP1 DUP4 GT PUSH2 0x4695 JUMPI JUMPDEST POP POP POP POP POP SWAP1 POP PUSH1 0x0 DUP8 MLOAD DUP3 MLOAD PUSH2 0x46C0 SWAP2 SWAP1 PUSH2 0x8A6A JUMP JUMPDEST PUSH8 0xFFFFFFFFFFFFFFFF DUP2 GT ISZERO PUSH2 0x46D9 JUMPI PUSH2 0x46D8 PUSH2 0x7E0F JUMP JUMPDEST JUMPDEST PUSH1 0x40 MLOAD SWAP1 DUP1 DUP3 MSTORE DUP1 PUSH1 0x20 MUL PUSH1 0x20 ADD DUP3 ADD PUSH1 0x40 MSTORE DUP1 ISZERO PUSH2 0x4707 JUMPI DUP2 PUSH1 0x20 ADD PUSH1 0x20 DUP3 MUL DUP1 CALLDATASIZE DUP4 CALLDATACOPY DUP1 DUP3 ADD SWAP2 POP POP SWAP1 POP JUMPDEST POP SWAP1 POP PUSH1 0x0 JUMPDEST DUP3 MLOAD DUP2 LT ISZERO PUSH2 0x4763 JUMPI DUP3 DUP2 DUP2 MLOAD DUP2 LT PUSH2 0x4729 JUMPI PUSH2 0x4728 PUSH2 0x8A3B JUMP JUMPDEST JUMPDEST PUSH1 0x20 MUL PUSH1 0x20 ADD ADD MLOAD DUP3 DUP3 DUP2 MLOAD DUP2 LT PUSH2 0x4744 JUMPI PUSH2 0x4743 PUSH2 0x8A3B JUMP JUMPDEST JUMPDEST PUSH1 0x20 MUL PUSH1 0x20 ADD ADD DUP2 DUP2 MSTORE POP POP DUP1 DUP1 PUSH2 0x475B SWAP1 PUSH2 0x8BB7 JUMP JUMPDEST SWAP2 POP POP PUSH2 0x470D JUMP JUMPDEST POP PUSH1 0x0 JUMPDEST DUP9 MLOAD DUP2 LT ISZERO PUSH2 0x47C9 JUMPI DUP9 DUP2 DUP2 MLOAD DUP2 LT PUSH2 0x4783 JUMPI PUSH2 0x4782 PUSH2 0x8A3B JUMP JUMPDEST JUMPDEST PUSH1 0x20 MUL PUSH1 0x20 ADD ADD MLOAD DUP3 DUP3 DUP6 MLOAD PUSH2 0x4799 SWAP2 SWAP1 PUSH2 0x8A6A JUMP JUMPDEST DUP2 MLOAD DUP2 LT PUSH2 0x47AA JUMPI PUSH2 0x47A9 PUSH2 0x8A3B JUMP JUMPDEST JUMPDEST PUSH1 0x20 MUL PUSH1 0x20 ADD ADD DUP2 DUP2 MSTORE POP POP DUP1 DUP1 PUSH2 0x47C1 SWAP1 PUSH2 0x8BB7 JUMP JUMPDEST SWAP2 POP POP PUSH2 0x4767 JUMP JUMPDEST POP PUSH2 0x13E PUSH1 0x0 CALLER PUSH20 0xFFFFFFFFFFFFFFFFFFFFFFFFFFFFFFFFFFFFFFFF AND PUSH20 0xFFFFFFFFFFFFFFFFFFFFFFFFFFFFFFFFFFFFFFFF AND DUP2 MSTORE PUSH1 0x20 ADD SWAP1 DUP2 MSTORE PUSH1 0x20 ADD PUSH1 0x0 KECCAK256 PUSH1 0x40 MLOAD DUP1 PUSH1 0x80 ADD PUSH1 0x40 MSTORE DUP1 DUP4 MLOAD DUP2 MSTORE PUSH1 0x20 ADD DUP4 DUP2 MSTORE PUSH1 0x20 ADD TIMESTAMP DUP2 MSTORE PUSH1 0x20 ADD PUSH2 0x12F SLOAD DUP2 MSTORE POP SWAP1 DUP1 PUSH1 0x1 DUP2 SLOAD ADD DUP1 DUP3 SSTORE DUP1 SWAP2 POP POP PUSH1 0x1 SWAP1 SUB SWAP1 PUSH1 0x0 MSTORE PUSH1 0x20 PUSH1 0x0 KECCAK256 SWAP1 PUSH1 0x4 MUL ADD PUSH1 0x0 SWAP1 SWAP2 SWAP1 SWAP2 SWAP1 SWAP2 POP PUSH1 0x0 DUP3 ADD MLOAD DUP2 PUSH1 0x0 ADD SSTORE PUSH1 0x20 DUP3 ADD MLOAD DUP2 PUSH1 0x1 ADD SWAP1 DUP1 MLOAD SWAP1 PUSH1 0x20 ADD SWAP1 PUSH2 0x487E SWAP3 SWAP2 SWAP1 PUSH2 0x7832 JUMP JUMPDEST POP PUSH1 0x40 DUP3 ADD MLOAD DUP2 PUSH1 0x2 ADD SSTORE PUSH1 0x60 DUP3 ADD MLOAD DUP2 PUSH1 0x3 ADD SSTORE POP POP POP POP JUMPDEST CALLER PUSH20 0xFFFFFFFFFFFFFFFFFFFFFFFFFFFFFFFFFFFFFFFF AND PUSH32 0x7F89A3C8C8C2206E1B8EF49ED76AC5270F16999A804B4F5B378BFC538A5F949A DUP8 MLOAD DUP9 DUP9 PUSH1 0x40 MLOAD PUSH2 0x48E3 SWAP4 SWAP3 SWAP2 SWAP1 PUSH2 0x8F85 JUMP JUMPDEST PUSH1 0x40 MLOAD DUP1 SWAP2 SUB SWAP1 LOG2 POP POP POP POP PUSH2 0x48F7 PUSH2 0x6D80 JUMP JUMPDEST POP POP JUMP JUMPDEST PUSH1 0x0 PUSH1 0x97 PUSH1 0x0 SWAP1 SLOAD SWAP1 PUSH2 0x100 EXP SWAP1 DIV PUSH20 0xFFFFFFFFFFFFFFFFFFFFFFFFFFFFFFFFFFFFFFFF AND SWAP1 POP SWAP1 JUMP JUMPDEST PUSH1 0x0 DUP1 PUSH1 0x0 DUP1 PUSH20 0xFFFFFFFFFFFFFFFFFFFFFFFFFFFFFFFFFFFFFFFF AND DUP5 PUSH20 0xFFFFFFFFFFFFFFFFFFFFFFFFFFFFFFFFFFFFFFFF AND SUB PUSH2 0x498F JUMPI PUSH1 0x40 MLOAD PUSH32 0xCA834E4600000000000000000000000000000000000000000000000000000000 DUP2 MSTORE PUSH1 0x4 ADD PUSH1 0x40 MLOAD DUP1 SWAP2 SUB SWAP1 REVERT JUMPDEST PUSH1 0x0 PUSH2 0x13D PUSH1 0x0 DUP7 PUSH20 0xFFFFFFFFFFFFFFFFFFFFFFFFFFFFFFFFFFFFFFFF AND PUSH20 0xFFFFFFFFFFFFFFFFFFFFFFFFFFFFFFFFFFFFFFFF AND DUP2 MSTORE PUSH1 0x20 ADD SWAP1 DUP2 MSTORE PUSH1 0x20 ADD PUSH1 0x0 KECCAK256 PUSH1 0x40 MLOAD DUP1 PUSH1 0x60 ADD PUSH1 0x40 MSTORE SWAP1 DUP2 PUSH1 0x0 DUP3 ADD SLOAD DUP2 MSTORE PUSH1 0x20 ADD PUSH1 0x1 DUP3 ADD SLOAD DUP2 MSTORE PUSH1 0x20 ADD PUSH1 0x2 DUP3 ADD SLOAD DUP2 MSTORE POP POP SWAP1 POP DUP1 PUSH1 0x0 ADD MLOAD DUP2 PUSH1 0x20 ADD MLOAD DUP3 PUSH1 0x40 ADD MLOAD SWAP4 POP SWAP4 POP SWAP4 POP POP SWAP2 SWAP4 SWAP1 SWAP3 POP JUMP JUMPDEST PUSH1 0x0 DUP1 PUSH20 0xFFFFFFFFFFFFFFFFFFFFFFFFFFFFFFFFFFFFFFFF AND DUP4 PUSH20 0xFFFFFFFFFFFFFFFFFFFFFFFFFFFFFFFFFFFFFFFF AND SUB PUSH2 0x4A80 JUMPI PUSH1 0x40 MLOAD PUSH32 0xCA834E4600000000000000000000000000000000000000000000000000000000 DUP2 MSTORE PUSH1 0x4 ADD PUSH1 0x40 MLOAD DUP1 SWAP2 SUB SWAP1 REVERT JUMPDEST PUSH1 0x0 PUSH2 0x137 DUP1 SLOAD SWAP1 POP SWAP1 POP PUSH1 0x0 DUP1 DUP3 DUP6 PUSH1 0xFF AND LT PUSH2 0x4ACA JUMPI PUSH1 0x40 MLOAD PUSH32 0x54CF5A200000000000000000000000000000000000000000000000000000000 DUP2 MSTORE PUSH1 0x4 ADD PUSH1 0x40 MLOAD DUP1 SWAP2 SUB SWAP1 REVERT JUMPDEST PUSH1 0x0 PUSH2 0x13A PUSH1 0x0 DUP9 PUSH20 0xFFFFFFFFFFFFFFFFFFFFFFFFFFFFFFFFFFFFFFFF AND PUSH20 0xFFFFFFFFFFFFFFFFFFFFFFFFFFFFFFFFFFFFFFFF AND DUP2 MSTORE PUSH1 0x20 ADD SWAP1 DUP2 MSTORE PUSH1 0x20 ADD PUSH1 0x0 KECCAK256 PUSH1 0x0 DUP8 PUSH1 0xFF AND PUSH1 0xFF AND DUP2 MSTORE PUSH1 0x20 ADD SWAP1 DUP2 MSTORE PUSH1 0x20 ADD PUSH1 0x0 KECCAK256 PUSH1 0x40 MLOAD DUP1 PUSH1 0x60 ADD PUSH1 0x40 MSTORE SWAP1 DUP2 PUSH1 0x0 DUP3 ADD SLOAD DUP2 MSTORE PUSH1 0x20 ADD PUSH1 0x1 DUP3 ADD SLOAD DUP2 MSTORE PUSH1 0x20 ADD PUSH1 0x2 DUP3 ADD SLOAD DUP2 MSTORE POP POP SWAP1 POP PUSH1 0x0 PUSH2 0x13B PUSH1 0x0 DUP10 PUSH20 0xFFFFFFFFFFFFFFFFFFFFFFFFFFFFFFFFFFFFFFFF AND PUSH20 0xFFFFFFFFFFFFFFFFFFFFFFFFFFFFFFFFFFFFFFFF AND DUP2 MSTORE PUSH1 0x20 ADD SWAP1 DUP2 MSTORE PUSH1 0x20 ADD PUSH1 0x0 KECCAK256 PUSH1 0x0 DUP9 PUSH1 0xFF AND PUSH1 0xFF AND DUP2 MSTORE PUSH1 0x20 ADD SWAP1 DUP2 MSTORE PUSH1 0x20 ADD PUSH1 0x0 KECCAK256 PUSH1 0x40 MLOAD DUP1 PUSH1 0x80 ADD PUSH1 0x40 MSTORE SWAP1 DUP2 PUSH1 0x0 DUP3 ADD SLOAD DUP2 MSTORE PUSH1 0x20 ADD PUSH1 0x1 DUP3 ADD SLOAD DUP2 MSTORE PUSH1 0x20 ADD PUSH1 0x2 DUP3 ADD SLOAD DUP2 MSTORE PUSH1 0x20 ADD PUSH1 0x3 DUP3 ADD SLOAD DUP2 MSTORE POP POP SWAP1 POP PUSH1 0x0 PUSH2 0x138 PUSH1 0x0 DUP10 PUSH1 0xFF AND PUSH1 0xFF AND DUP2 MSTORE PUSH1 0x20 ADD SWAP1 DUP2 MSTORE PUSH1 0x20 ADD PUSH1 0x0 KECCAK256 PUSH1 0x40 MLOAD DUP1 PUSH1 0x80 ADD PUSH1 0x40 MSTORE SWAP1 DUP2 PUSH1 0x0 DUP3 ADD PUSH1 0x0 SWAP1 SLOAD SWAP1 PUSH2 0x100 EXP SWAP1 DIV PUSH4 0xFFFFFFFF AND PUSH4 0xFFFFFFFF AND PUSH4 0xFFFFFFFF AND DUP2 MSTORE PUSH1 0x20 ADD PUSH1 0x1 DUP3 ADD SLOAD DUP2 MSTORE PUSH1 0x20 ADD PUSH1 0x2 DUP3 ADD PUSH1 0x0 SWAP1 SLOAD SWAP1 PUSH2 0x100 EXP SWAP1 DIV PUSH1 0xFF AND PUSH1 0xFF AND PUSH1 0xFF AND DUP2 MSTORE PUSH1 0x20 ADD PUSH1 0x3 DUP3 ADD SLOAD DUP2 MSTORE POP POP SWAP1 POP PUSH1 0x0 PUSH2 0x13F PUSH1 0x0 DUP12 PUSH20 0xFFFFFFFFFFFFFFFFFFFFFFFFFFFFFFFFFFFFFFFF AND PUSH20 0xFFFFFFFFFFFFFFFFFFFFFFFFFFFFFFFFFFFFFFFF AND DUP2 MSTORE PUSH1 0x20 ADD SWAP1 DUP2 MSTORE PUSH1 0x20 ADD PUSH1 0x0 KECCAK256 PUSH1 0x0 DUP11 PUSH1 0xFF AND PUSH1 0xFF AND DUP2 MSTORE PUSH1 0x20 ADD SWAP1 DUP2 MSTORE PUSH1 0x20 ADD PUSH1 0x0 KECCAK256 PUSH1 0x40 MLOAD DUP1 PUSH1 0x80 ADD PUSH1 0x40 MSTORE SWAP1 DUP2 PUSH1 0x0 DUP3 ADD SLOAD DUP2 MSTORE PUSH1 0x20 ADD PUSH1 0x1 DUP3 ADD DUP1 SLOAD DUP1 PUSH1 0x20 MUL PUSH1 0x20 ADD PUSH1 0x40 MLOAD SWAP1 DUP2 ADD PUSH1 0x40 MSTORE DUP1 SWAP3 SWAP2 SWAP1 DUP2 DUP2 MSTORE PUSH1 0x20 ADD DUP3 DUP1 SLOAD DUP1 ISZERO PUSH2 0x4D19 JUMPI PUSH1 0x20 MUL DUP3 ADD SWAP2 SWAP1 PUSH1 0x0 MSTORE PUSH1 0x20 PUSH1 0x0 KECCAK256 SWAP1 JUMPDEST DUP2 SLOAD DUP2 MSTORE PUSH1 0x20 ADD SWAP1 PUSH1 0x1 ADD SWAP1 DUP1 DUP4 GT PUSH2 0x4D05 JUMPI JUMPDEST POP POP POP POP POP DUP2 MSTORE PUSH1 0x20 ADD PUSH1 0x2 DUP3 ADD SLOAD DUP2 MSTORE PUSH1 0x20 ADD PUSH1 0x3 DUP3 ADD SLOAD DUP2 MSTORE POP POP SWAP1 POP PUSH1 0x0 DUP5 PUSH1 0x0 ADD MLOAD SUB PUSH2 0x4D54 JUMPI PUSH1 0x0 SWAP8 POP POP POP POP POP POP POP POP PUSH2 0x4E9D JUMP JUMPDEST PUSH1 0x0 DUP4 PUSH1 0x20 ADD MLOAD SUB PUSH2 0x4D77 JUMPI DUP4 PUSH1 0x20 ADD MLOAD TIMESTAMP PUSH2 0x4D70 SWAP2 SWAP1 PUSH2 0x8A07 JUMP JUMPDEST SWAP6 POP PUSH2 0x4D8A JUMP JUMPDEST DUP3 PUSH1 0x20 ADD MLOAD TIMESTAMP PUSH2 0x4D87 SWAP2 SWAP1 PUSH2 0x8A07 JUMP JUMPDEST SWAP6 POP JUMPDEST DUP2 PUSH1 0x20 ADD MLOAD SWAP5 POP PUSH1 0x0 DUP2 PUSH1 0x0 ADD MLOAD GT ISZERO PUSH2 0x4E53 JUMPI PUSH1 0x0 PUSH2 0x12E PUSH1 0x0 SWAP1 SLOAD SWAP1 PUSH2 0x100 EXP SWAP1 DIV PUSH20 0xFFFFFFFFFFFFFFFFFFFFFFFFFFFFFFFFFFFFFFFF AND PUSH20 0xFFFFFFFFFFFFFFFFFFFFFFFFFFFFFFFFFFFFFFFF AND PUSH4 0xF4B49946 DUP4 PUSH1 0x20 ADD MLOAD PUSH1 0x40 MLOAD DUP3 PUSH4 0xFFFFFFFF AND PUSH1 0xE0 SHL DUP2 MSTORE PUSH1 0x4 ADD PUSH2 0x4E00 SWAP2 SWAP1 PUSH2 0x8E91 JUMP JUMPDEST PUSH1 0x40 DUP1 MLOAD DUP1 DUP4 SUB DUP2 DUP7 GAS STATICCALL ISZERO DUP1 ISZERO PUSH2 0x4E1C JUMPI RETURNDATASIZE PUSH1 0x0 DUP1 RETURNDATACOPY RETURNDATASIZE PUSH1 0x0 REVERT JUMPDEST POP POP POP POP PUSH1 0x40 MLOAD RETURNDATASIZE PUSH1 0x1F NOT PUSH1 0x1F DUP3 ADD AND DUP3 ADD DUP1 PUSH1 0x40 MSTORE POP DUP2 ADD SWAP1 PUSH2 0x4E40 SWAP2 SWAP1 PUSH2 0x8EB3 JUMP JUMPDEST POP SWAP1 POP DUP1 DUP7 PUSH2 0x4E4F SWAP2 SWAP1 PUSH2 0x8A6A JUMP JUMPDEST SWAP6 POP POP JUMPDEST PUSH1 0x0 PUSH2 0x2710 DUP7 DUP7 PUSH1 0x0 ADD MLOAD PUSH2 0x4E68 SWAP2 SWAP1 PUSH2 0x8BFF JUMP JUMPDEST PUSH2 0x4E72 SWAP2 SWAP1 PUSH2 0x8B86 JUMP JUMPDEST SWAP1 POP PUSH4 0x1E1853E DUP8 DUP3 PUSH2 0x4E85 SWAP2 SWAP1 PUSH2 0x8BFF JUMP JUMPDEST PUSH2 0x4E8F SWAP2 SWAP1 PUSH2 0x8B86 JUMP JUMPDEST SWAP1 POP DUP1 SWAP9 POP POP POP POP POP POP POP POP POP JUMPDEST SWAP3 SWAP2 POP POP JUMP JUMPDEST PUSH2 0x4EAB PUSH2 0x6D8A JUMP JUMPDEST DUP1 PUSH2 0x131 DUP2 SWAP1 SSTORE POP POP JUMP JUMPDEST PUSH1 0x0 DUP1 PUSH1 0x0 DUP1 PUSH1 0x0 PUSH2 0x137 DUP1 SLOAD SWAP1 POP SWAP1 POP DUP1 DUP7 PUSH1 0xFF AND LT PUSH2 0x4F03 JUMPI PUSH1 0x40 MLOAD PUSH32 0x54CF5A200000000000000000000000000000000000000000000000000000000 DUP2 MSTORE PUSH1 0x4 ADD PUSH1 0x40 MLOAD DUP1 SWAP2 SUB SWAP1 REVERT JUMPDEST PUSH1 0x0 PUSH2 0x138 PUSH1 0x0 DUP9 PUSH1 0xFF AND PUSH1 0xFF AND DUP2 MSTORE PUSH1 0x20 ADD SWAP1 DUP2 MSTORE PUSH1 0x20 ADD PUSH1 0x0 KECCAK256 PUSH1 0x40 MLOAD DUP1 PUSH1 0x80 ADD PUSH1 0x40 MSTORE SWAP1 DUP2 PUSH1 0x0 DUP3 ADD PUSH1 0x0 SWAP1 SLOAD SWAP1 PUSH2 0x100 EXP SWAP1 DIV PUSH4 0xFFFFFFFF AND PUSH4 0xFFFFFFFF AND PUSH4 0xFFFFFFFF AND DUP2 MSTORE PUSH1 0x20 ADD PUSH1 0x1 DUP3 ADD SLOAD DUP2 MSTORE PUSH1 0x20 ADD PUSH1 0x2 DUP3 ADD PUSH1 0x0 SWAP1 SLOAD SWAP1 PUSH2 0x100 EXP SWAP1 DIV PUSH1 0xFF AND PUSH1 0xFF AND PUSH1 0xFF AND DUP2 MSTORE PUSH1 0x20 ADD PUSH1 0x3 DUP3 ADD SLOAD DUP2 MSTORE POP POP SWAP1 POP DUP1 PUSH1 0x0 ADD MLOAD DUP2 PUSH1 0x20 ADD MLOAD DUP3 PUSH1 0x40 ADD MLOAD DUP4 PUSH1 0x60 ADD MLOAD SWAP6 POP SWAP6 POP SWAP6 POP SWAP6 POP POP POP SWAP2 SWAP4 POP SWAP2 SWAP4 JUMP JUMPDEST PUSH1 0x0 DUP1 PUSH1 0x0 DUP1 PUSH20 0xFFFFFFFFFFFFFFFFFFFFFFFFFFFFFFFFFFFFFFFF AND DUP5 PUSH20 0xFFFFFFFFFFFFFFFFFFFFFFFFFFFFFFFFFFFFFFFF AND SUB PUSH2 0x5012 JUMPI PUSH1 0x40 MLOAD PUSH32 0xCA834E4600000000000000000000000000000000000000000000000000000000 DUP2 MSTORE PUSH1 0x4 ADD PUSH1 0x40 MLOAD DUP1 SWAP2 SUB SWAP1 REVERT JUMPDEST PUSH1 0x0 PUSH2 0x139 PUSH1 0x0 DUP7 PUSH20 0xFFFFFFFFFFFFFFFFFFFFFFFFFFFFFFFFFFFFFFFF AND PUSH20 0xFFFFFFFFFFFFFFFFFFFFFFFFFFFFFFFFFFFFFFFF AND DUP2 MSTORE PUSH1 0x20 ADD SWAP1 DUP2 MSTORE PUSH1 0x20 ADD PUSH1 0x0 KECCAK256 DUP1 SLOAD SWAP1 POP SWAP1 POP PUSH1 0x0 DUP2 SUB PUSH2 0x5073 JUMPI PUSH1 0x0 DUP1 PUSH1 0x0 SWAP4 POP SWAP4 POP SWAP4 POP POP PUSH2 0x5124 JUMP JUMPDEST PUSH1 0x0 PUSH2 0x139 PUSH1 0x0 DUP8 PUSH20 0xFFFFFFFFFFFFFFFFFFFFFFFFFFFFFFFFFFFFFFFF AND PUSH20 0xFFFFFFFFFFFFFFFFFFFFFFFFFFFFFFFFFFFFFFFF AND DUP2 MSTORE PUSH1 0x20 ADD SWAP1 DUP2 MSTORE PUSH1 0x20 ADD PUSH1 0x0 KECCAK256 PUSH1 0x1 DUP4 PUSH2 0x50C2 SWAP2 SWAP1 PUSH2 0x8A07 JUMP JUMPDEST DUP2 SLOAD DUP2 LT PUSH2 0x50D3 JUMPI PUSH2 0x50D2 PUSH2 0x8A3B JUMP JUMPDEST JUMPDEST SWAP1 PUSH1 0x0 MSTORE PUSH1 0x20 PUSH1 0x0 KECCAK256 SWAP1 PUSH1 0x3 MUL ADD PUSH1 0x40 MLOAD DUP1 PUSH1 0x60 ADD PUSH1 0x40 MSTORE SWAP1 DUP2 PUSH1 0x0 DUP3 ADD SLOAD DUP2 MSTORE PUSH1 0x20 ADD PUSH1 0x1 DUP3 ADD SLOAD DUP2 MSTORE PUSH1 0x20 ADD PUSH1 0x2 DUP3 ADD SLOAD DUP2 MSTORE POP POP SWAP1 POP DUP1 PUSH1 0x0 ADD MLOAD DUP2 PUSH1 0x20 ADD MLOAD DUP3 PUSH1 0x40 ADD MLOAD SWAP5 POP SWAP5 POP SWAP5 POP POP POP JUMPDEST SWAP2 SWAP4 SWAP1 SWAP3 POP JUMP JUMPDEST PUSH1 0x0 PUSH2 0x12F SLOAD SWAP1 POP SWAP1 JUMP JUMPDEST PUSH2 0x513E PUSH2 0x6CE7 JUMP JUMPDEST PUSH2 0x5146 PUSH2 0x6D31 JUMP JUMPDEST PUSH1 0x0 PUSH2 0x137 DUP1 SLOAD SWAP1 POP SWAP1 POP PUSH1 0x0 PUSH2 0x139 PUSH1 0x0 CALLER PUSH20 0xFFFFFFFFFFFFFFFFFFFFFFFFFFFFFFFFFFFFFFFF AND PUSH20 0xFFFFFFFFFFFFFFFFFFFFFFFFFFFFFFFFFFFFFFFF AND DUP2 MSTORE PUSH1 0x20 ADD SWAP1 DUP2 MSTORE PUSH1 0x20 ADD PUSH1 0x0 KECCAK256 DUP1 SLOAD SWAP1 POP SWAP1 POP PUSH1 0x0 DUP1 PUSH1 0x0 DUP1 PUSH1 0x0 DUP7 DUP9 PUSH1 0xFF AND LT PUSH2 0x51DD JUMPI PUSH1 0x40 MLOAD PUSH32 0x54CF5A200000000000000000000000000000000000000000000000000000000 DUP2 MSTORE PUSH1 0x4 ADD PUSH1 0x40 MLOAD DUP1 SWAP2 SUB SWAP1 REVERT JUMPDEST PUSH1 0x0 PUSH2 0x13A PUSH1 0x0 CALLER PUSH20 0xFFFFFFFFFFFFFFFFFFFFFFFFFFFFFFFFFFFFFFFF AND PUSH20 0xFFFFFFFFFFFFFFFFFFFFFFFFFFFFFFFFFFFFFFFF AND DUP2 MSTORE PUSH1 0x20 ADD SWAP1 DUP2 MSTORE PUSH1 0x20 ADD PUSH1 0x0 KECCAK256 PUSH1 0x0 DUP11 PUSH1 0xFF AND PUSH1 0xFF AND DUP2 MSTORE PUSH1 0x20 ADD SWAP1 DUP2 MSTORE PUSH1 0x20 ADD PUSH1 0x0 KECCAK256 PUSH1 0x40 MLOAD DUP1 PUSH1 0x60 ADD PUSH1 0x40 MSTORE SWAP1 DUP2 PUSH1 0x0 DUP3 ADD SLOAD DUP2 MSTORE PUSH1 0x20 ADD PUSH1 0x1 DUP3 ADD SLOAD DUP2 MSTORE PUSH1 0x20 ADD PUSH1 0x2 DUP3 ADD SLOAD DUP2 MSTORE POP POP SWAP1 POP PUSH1 0x0 DUP2 PUSH1 0x0 ADD MLOAD SUB PUSH2 0x529F JUMPI PUSH1 0x40 MLOAD PUSH32 0x4BB2437200000000000000000000000000000000000000000000000000000000 DUP2 MSTORE PUSH1 0x4 ADD PUSH1 0x40 MLOAD DUP1 SWAP2 SUB SWAP1 REVERT JUMPDEST PUSH1 0x0 PUSH2 0x139 PUSH1 0x0 CALLER PUSH20 0xFFFFFFFFFFFFFFFFFFFFFFFFFFFFFFFFFFFFFFFF AND PUSH20 0xFFFFFFFFFFFFFFFFFFFFFFFFFFFFFFFFFFFFFFFF AND DUP2 MSTORE PUSH1 0x20 ADD SWAP1 DUP2 MSTORE PUSH1 0x20 ADD PUSH1 0x0 KECCAK256 PUSH1 0x1 DUP10 PUSH2 0x52EE SWAP2 SWAP1 PUSH2 0x8A07 JUMP JUMPDEST DUP2 SLOAD DUP2 LT PUSH2 0x52FF JUMPI PUSH2 0x52FE PUSH2 0x8A3B JUMP JUMPDEST JUMPDEST SWAP1 PUSH1 0x0 MSTORE PUSH1 0x20 PUSH1 0x0 KECCAK256 SWAP1 PUSH1 0x3 MUL ADD PUSH1 0x40 MLOAD DUP1 PUSH1 0x60 ADD PUSH1 0x40 MSTORE SWAP1 DUP2 PUSH1 0x0 DUP3 ADD SLOAD DUP2 MSTORE PUSH1 0x20 ADD PUSH1 0x1 DUP3 ADD SLOAD DUP2 MSTORE PUSH1 0x20 ADD PUSH1 0x2 DUP3 ADD SLOAD DUP2 MSTORE POP POP SWAP1 POP DUP2 PUSH1 0x0 ADD MLOAD SWAP3 POP DUP2 PUSH1 0x0 ADD MLOAD DUP2 PUSH1 0x0 ADD MLOAD PUSH2 0x5353 SWAP2 SWAP1 PUSH2 0x8A07 JUMP JUMPDEST SWAP7 POP PUSH2 0x535F CALLER DUP12 PUSH2 0x57F9 JUMP JUMPDEST SWAP6 POP PUSH1 0x0 DUP7 PUSH3 0xFFFFFF AND EQ PUSH2 0x5538 JUMPI PUSH1 0x64 DUP7 PUSH3 0xFFFFFF AND DUP4 PUSH1 0x0 ADD MLOAD PUSH2 0x5385 SWAP2 SWAP1 PUSH2 0x8BFF JUMP JUMPDEST PUSH2 0x538F SWAP2 SWAP1 PUSH2 0x8B86 JUMP JUMPDEST SWAP5 POP PUSH2 0x3E8 PUSH2 0xFFFF AND DUP6 PUSH2 0x53A3 SWAP2 SWAP1 PUSH2 0x8B86 JUMP JUMPDEST SWAP5 POP DUP5 DUP3 PUSH1 0x0 ADD MLOAD PUSH2 0x53B5 SWAP2 SWAP1 PUSH2 0x8A07 JUMP JUMPDEST SWAP3 POP PUSH1 0x64 PUSH2 0x136 PUSH1 0x0 SWAP1 SLOAD SWAP1 PUSH2 0x100 EXP SWAP1 DIV PUSH1 0xFF AND PUSH1 0xFF AND DUP7 PUSH2 0x53D8 SWAP2 SWAP1 PUSH2 0x8BFF JUMP JUMPDEST PUSH2 0x53E2 SWAP2 SWAP1 PUSH2 0x8B86 JUMP JUMPDEST SWAP4 POP PUSH2 0x12D PUSH1 0x0 SWAP1 SLOAD SWAP1 PUSH2 0x100 EXP SWAP1 DIV PUSH20 0xFFFFFFFFFFFFFFFFFFFFFFFFFFFFFFFFFFFFFFFF AND PUSH20 0xFFFFFFFFFFFFFFFFFFFFFFFFFFFFFFFFFFFFFFFF AND PUSH4 0x95EA7B3 PUSH2 0x12D PUSH1 0x0 SWAP1 SLOAD SWAP1 PUSH2 0x100 EXP SWAP1 DIV PUSH20 0xFFFFFFFFFFFFFFFFFFFFFFFFFFFFFFFFFFFFFFFF AND DUP7 PUSH1 0x40 MLOAD DUP4 PUSH4 0xFFFFFFFF AND PUSH1 0xE0 SHL DUP2 MSTORE PUSH1 0x4 ADD PUSH2 0x5465 SWAP3 SWAP2 SWAP1 PUSH2 0x8E68 JUMP JUMPDEST PUSH1 0x20 PUSH1 0x40 MLOAD DUP1 DUP4 SUB DUP2 PUSH1 0x0 DUP8 GAS CALL ISZERO DUP1 ISZERO PUSH2 0x5484 JUMPI RETURNDATASIZE PUSH1 0x0 DUP1 RETURNDATACOPY RETURNDATASIZE PUSH1 0x0 REVERT JUMPDEST POP POP POP POP PUSH1 0x40 MLOAD RETURNDATASIZE PUSH1 0x1F NOT PUSH1 0x1F DUP3 ADD AND DUP3 ADD DUP1 PUSH1 0x40 MSTORE POP DUP2 ADD SWAP1 PUSH2 0x54A8 SWAP2 SWAP1 PUSH2 0x8B01 JUMP JUMPDEST POP PUSH2 0x12D PUSH1 0x0 SWAP1 SLOAD SWAP1 PUSH2 0x100 EXP SWAP1 DIV PUSH20 0xFFFFFFFFFFFFFFFFFFFFFFFFFFFFFFFFFFFFFFFF AND PUSH20 0xFFFFFFFFFFFFFFFFFFFFFFFFFFFFFFFFFFFFFFFF AND PUSH4 0x3F6C518D DUP6 PUSH1 0x40 MLOAD DUP3 PUSH4 0xFFFFFFFF AND PUSH1 0xE0 SHL DUP2 MSTORE PUSH1 0x4 ADD PUSH2 0x5505 SWAP2 SWAP1 PUSH2 0x7C5F JUMP JUMPDEST PUSH1 0x0 PUSH1 0x40 MLOAD DUP1 DUP4 SUB DUP2 PUSH1 0x0 DUP8 DUP1 EXTCODESIZE ISZERO DUP1 ISZERO PUSH2 0x551F JUMPI PUSH1 0x0 DUP1 REVERT JUMPDEST POP GAS CALL ISZERO DUP1 ISZERO PUSH2 0x5533 JUMPI RETURNDATASIZE PUSH1 0x0 DUP1 RETURNDATACOPY RETURNDATASIZE PUSH1 0x0 REVERT JUMPDEST POP POP POP POP JUMPDEST PUSH2 0x12D PUSH1 0x0 SWAP1 SLOAD SWAP1 PUSH2 0x100 EXP SWAP1 DIV PUSH20 0xFFFFFFFFFFFFFFFFFFFFFFFFFFFFFFFFFFFFFFFF AND PUSH20 0xFFFFFFFFFFFFFFFFFFFFFFFFFFFFFFFFFFFFFFFF AND PUSH4 0xA9059CBB CALLER DUP6 PUSH1 0x40 MLOAD DUP4 PUSH4 0xFFFFFFFF AND PUSH1 0xE0 SHL DUP2 MSTORE PUSH1 0x4 ADD PUSH2 0x5596 SWAP3 SWAP2 SWAP1 PUSH2 0x8E68 JUMP JUMPDEST PUSH1 0x20 PUSH1 0x40 MLOAD DUP1 DUP4 SUB DUP2 PUSH1 0x0 DUP8 GAS CALL ISZERO DUP1 ISZERO PUSH2 0x55B5 JUMPI RETURNDATASIZE PUSH1 0x0 DUP1 RETURNDATACOPY RETURNDATASIZE PUSH1 0x0 REVERT JUMPDEST POP POP POP POP PUSH1 0x40 MLOAD RETURNDATASIZE PUSH1 0x1F NOT PUSH1 0x1F DUP3 ADD AND DUP3 ADD DUP1 PUSH1 0x40 MSTORE POP DUP2 ADD SWAP1 PUSH2 0x55D9 SWAP2 SWAP1 PUSH2 0x8B01 JUMP JUMPDEST POP DUP2 PUSH1 0x0 ADD MLOAD PUSH2 0x133 PUSH1 0x0 DUP3 DUP3 SLOAD PUSH2 0x55F1 SWAP2 SWAP1 PUSH2 0x8A07 JUMP JUMPDEST SWAP3 POP POP DUP2 SWAP1 SSTORE POP PUSH2 0x131 SLOAD DUP8 LT PUSH2 0x5625 JUMPI DUP2 PUSH1 0x0 ADD MLOAD PUSH2 0x134 PUSH1 0x0 DUP3 DUP3 SLOAD PUSH2 0x5619 SWAP2 SWAP1 PUSH2 0x8A07 JUMP JUMPDEST SWAP3 POP POP DUP2 SWAP1 SSTORE POP PUSH2 0x5653 JUMP JUMPDEST PUSH2 0x131 SLOAD DUP2 PUSH1 0x0 ADD MLOAD LT PUSH2 0x5652 JUMPI DUP1 PUSH1 0x0 ADD MLOAD PUSH2 0x134 PUSH1 0x0 DUP3 DUP3 SLOAD PUSH2 0x564A SWAP2 SWAP1 PUSH2 0x8A07 JUMP JUMPDEST SWAP3 POP POP DUP2 SWAP1 SSTORE POP JUMPDEST JUMPDEST PUSH1 0x40 MLOAD DUP1 PUSH1 0x60 ADD PUSH1 0x40 MSTORE DUP1 PUSH1 0x0 DUP2 MSTORE PUSH1 0x20 ADD TIMESTAMP DUP2 MSTORE PUSH1 0x20 ADD PUSH2 0x12F SLOAD DUP2 MSTORE POP PUSH2 0x13A PUSH1 0x0 CALLER PUSH20 0xFFFFFFFFFFFFFFFFFFFFFFFFFFFFFFFFFFFFFFFF AND PUSH20 0xFFFFFFFFFFFFFFFFFFFFFFFFFFFFFFFFFFFFFFFF AND DUP2 MSTORE PUSH1 0x20 ADD SWAP1 DUP2 MSTORE PUSH1 0x20 ADD PUSH1 0x0 KECCAK256 PUSH1 0x0 DUP13 PUSH1 0xFF AND PUSH1 0xFF AND DUP2 MSTORE PUSH1 0x20 ADD SWAP1 DUP2 MSTORE PUSH1 0x20 ADD PUSH1 0x0 KECCAK256 PUSH1 0x0 DUP3 ADD MLOAD DUP2 PUSH1 0x0 ADD SSTORE PUSH1 0x20 DUP3 ADD MLOAD DUP2 PUSH1 0x1 ADD SSTORE PUSH1 0x40 DUP3 ADD MLOAD DUP2 PUSH1 0x2 ADD SSTORE SWAP1 POP POP PUSH2 0x139 PUSH1 0x0 CALLER PUSH20 0xFFFFFFFFFFFFFFFFFFFFFFFFFFFFFFFFFFFFFFFF AND PUSH20 0xFFFFFFFFFFFFFFFFFFFFFFFFFFFFFFFFFFFFFFFF AND DUP2 MSTORE PUSH1 0x20 ADD SWAP1 DUP2 MSTORE PUSH1 0x20 ADD PUSH1 0x0 KECCAK256 PUSH1 0x40 MLOAD DUP1 PUSH1 0x60 ADD PUSH1 0x40 MSTORE DUP1 DUP10 DUP2 MSTORE PUSH1 0x20 ADD TIMESTAMP DUP2 MSTORE PUSH1 0x20 ADD PUSH2 0x12F SLOAD DUP2 MSTORE POP SWAP1 DUP1 PUSH1 0x1 DUP2 SLOAD ADD DUP1 DUP3 SSTORE DUP1 SWAP2 POP POP PUSH1 0x1 SWAP1 SUB SWAP1 PUSH1 0x0 MSTORE PUSH1 0x20 PUSH1 0x0 KECCAK256 SWAP1 PUSH1 0x3 MUL ADD PUSH1 0x0 SWAP1 SWAP2 SWAP1 SWAP2 SWAP1 SWAP2 POP PUSH1 0x0 DUP3 ADD MLOAD DUP2 PUSH1 0x0 ADD SSTORE PUSH1 0x20 DUP3 ADD MLOAD DUP2 PUSH1 0x1 ADD SSTORE PUSH1 0x40 DUP3 ADD MLOAD DUP2 PUSH1 0x2 ADD SSTORE POP POP CALLER PUSH20 0xFFFFFFFFFFFFFFFFFFFFFFFFFFFFFFFFFFFFFFFF AND PUSH32 0x3E15A4D682572F2E7FA643EDDD15FC288293A578F01EB4E9F22A8BCD24F5017E DUP4 PUSH1 0x0 ADD MLOAD DUP13 PUSH1 0x40 MLOAD PUSH2 0x57DD SWAP3 SWAP2 SWAP1 PUSH2 0x8B2E JUMP JUMPDEST PUSH1 0x40 MLOAD DUP1 SWAP2 SUB SWAP1 LOG2 POP POP POP POP POP POP POP POP POP PUSH2 0x57F6 PUSH2 0x6D80 JUMP JUMPDEST POP JUMP JUMPDEST PUSH1 0x0 DUP1 PUSH20 0xFFFFFFFFFFFFFFFFFFFFFFFFFFFFFFFFFFFFFFFF AND DUP4 PUSH20 0xFFFFFFFFFFFFFFFFFFFFFFFFFFFFFFFFFFFFFFFF AND SUB PUSH2 0x5860 JUMPI PUSH1 0x40 MLOAD PUSH32 0xCA834E4600000000000000000000000000000000000000000000000000000000 DUP2 MSTORE PUSH1 0x4 ADD PUSH1 0x40 MLOAD DUP1 SWAP2 SUB SWAP1 REVERT JUMPDEST PUSH1 0x0 PUSH2 0x137 DUP1 SLOAD SWAP1 POP SWAP1 POP DUP1 DUP4 PUSH1 0xFF AND LT PUSH2 0x58A7 JUMPI PUSH1 0x40 MLOAD PUSH32 0x54CF5A200000000000000000000000000000000000000000000000000000000 DUP2 MSTORE PUSH1 0x4 ADD PUSH1 0x40 MLOAD DUP1 SWAP2 SUB SWAP1 REVERT JUMPDEST PUSH1 0x0 DUP1 PUSH1 0x0 PUSH2 0x139 PUSH1 0x0 DUP9 PUSH20 0xFFFFFFFFFFFFFFFFFFFFFFFFFFFFFFFFFFFFFFFF AND PUSH20 0xFFFFFFFFFFFFFFFFFFFFFFFFFFFFFFFFFFFFFFFF AND DUP2 MSTORE PUSH1 0x20 ADD SWAP1 DUP2 MSTORE PUSH1 0x20 ADD PUSH1 0x0 KECCAK256 DUP1 SLOAD SWAP1 POP SWAP1 POP PUSH1 0x0 DUP2 SUB PUSH2 0x5907 JUMPI PUSH1 0x0 SWAP5 POP POP POP POP POP PUSH2 0x5AA9 JUMP JUMPDEST PUSH1 0x0 PUSH2 0x13A PUSH1 0x0 DUP10 PUSH20 0xFFFFFFFFFFFFFFFFFFFFFFFFFFFFFFFFFFFFFFFF AND PUSH20 0xFFFFFFFFFFFFFFFFFFFFFFFFFFFFFFFFFFFFFFFF AND DUP2 MSTORE PUSH1 0x20 ADD SWAP1 DUP2 MSTORE PUSH1 0x20 ADD PUSH1 0x0 KECCAK256 PUSH1 0x0 DUP9 PUSH1 0xFF AND PUSH1 0xFF AND DUP2 MSTORE PUSH1 0x20 ADD SWAP1 DUP2 MSTORE PUSH1 0x20 ADD PUSH1 0x0 KECCAK256 PUSH1 0x40 MLOAD DUP1 PUSH1 0x60 ADD PUSH1 0x40 MSTORE SWAP1 DUP2 PUSH1 0x0 DUP3 ADD SLOAD DUP2 MSTORE PUSH1 0x20 ADD PUSH1 0x1 DUP3 ADD SLOAD DUP2 MSTORE PUSH1 0x20 ADD PUSH1 0x2 DUP3 ADD SLOAD DUP2 MSTORE POP POP SWAP1 POP PUSH1 0x0 PUSH2 0x138 PUSH1 0x0 DUP10 PUSH1 0xFF AND PUSH1 0xFF AND DUP2 MSTORE PUSH1 0x20 ADD SWAP1 DUP2 MSTORE PUSH1 0x20 ADD PUSH1 0x0 KECCAK256 PUSH1 0x40 MLOAD DUP1 PUSH1 0x80 ADD PUSH1 0x40 MSTORE SWAP1 DUP2 PUSH1 0x0 DUP3 ADD PUSH1 0x0 SWAP1 SLOAD SWAP1 PUSH2 0x100 EXP SWAP1 DIV PUSH4 0xFFFFFFFF AND PUSH4 0xFFFFFFFF AND PUSH4 0xFFFFFFFF AND DUP2 MSTORE PUSH1 0x20 ADD PUSH1 0x1 DUP3 ADD SLOAD DUP2 MSTORE PUSH1 0x20 ADD PUSH1 0x2 DUP3 ADD PUSH1 0x0 SWAP1 SLOAD SWAP1 PUSH2 0x100 EXP SWAP1 DIV PUSH1 0xFF AND PUSH1 0xFF AND PUSH1 0xFF AND DUP2 MSTORE PUSH1 0x20 ADD PUSH1 0x3 DUP3 ADD SLOAD DUP2 MSTORE POP POP SWAP1 POP DUP1 PUSH1 0x0 ADD MLOAD PUSH4 0xFFFFFFFF AND DUP3 PUSH1 0x20 ADD MLOAD TIMESTAMP PUSH2 0x5A26 SWAP2 SWAP1 PUSH2 0x8A07 JUMP JUMPDEST LT PUSH2 0x5A3A JUMPI PUSH1 0x0 SWAP7 POP POP POP POP POP POP POP PUSH2 0x5AA9 JUMP JUMPDEST DUP1 PUSH1 0x0 ADD MLOAD PUSH4 0xFFFFFFFF AND PUSH3 0xF4240 PUSH2 0x135 SLOAD PUSH2 0x5A57 SWAP2 SWAP1 PUSH2 0x8BFF JUMP JUMPDEST PUSH2 0x5A61 SWAP2 SWAP1 PUSH2 0x8B86 JUMP JUMPDEST SWAP4 POP PUSH3 0xF4240 DUP3 PUSH1 0x20 ADD MLOAD TIMESTAMP PUSH2 0x5A77 SWAP2 SWAP1 PUSH2 0x8A07 JUMP JUMPDEST DUP6 PUSH2 0x5A82 SWAP2 SWAP1 PUSH2 0x8BFF JUMP JUMPDEST PUSH2 0x5A8C SWAP2 SWAP1 PUSH2 0x8B86 JUMP JUMPDEST SWAP4 POP DUP4 PUSH2 0x135 SLOAD PUSH2 0x5A9D SWAP2 SWAP1 PUSH2 0x8A07 JUMP JUMPDEST SWAP5 POP DUP5 SWAP7 POP POP POP POP POP POP POP JUMPDEST SWAP3 SWAP2 POP POP JUMP JUMPDEST PUSH2 0x5AB7 PUSH2 0x6CE7 JUMP JUMPDEST PUSH2 0x5ABF PUSH2 0x6D31 JUMP JUMPDEST PUSH1 0x0 PUSH2 0x137 DUP1 SLOAD SWAP1 POP SWAP1 POP PUSH1 0x0 DUP1 PUSH2 0x13B PUSH1 0x0 CALLER PUSH20 0xFFFFFFFFFFFFFFFFFFFFFFFFFFFFFFFFFFFFFFFF AND PUSH20 0xFFFFFFFFFFFFFFFFFFFFFFFFFFFFFFFFFFFFFFFF AND DUP2 MSTORE PUSH1 0x20 ADD SWAP1 DUP2 MSTORE PUSH1 0x20 ADD PUSH1 0x0 KECCAK256 PUSH1 0x0 DUP7 PUSH1 0xFF AND PUSH1 0xFF AND DUP2 MSTORE PUSH1 0x20 ADD SWAP1 DUP2 MSTORE PUSH1 0x20 ADD PUSH1 0x0 KECCAK256 PUSH1 0x40 MLOAD DUP1 PUSH1 0x80 ADD PUSH1 0x40 MSTORE SWAP1 DUP2 PUSH1 0x0 DUP3 ADD SLOAD DUP2 MSTORE PUSH1 0x20 ADD PUSH1 0x1 DUP3 ADD SLOAD DUP2 MSTORE PUSH1 0x20 ADD PUSH1 0x2 DUP3 ADD SLOAD DUP2 MSTORE PUSH1 0x20 ADD PUSH1 0x3 DUP3 ADD SLOAD DUP2 MSTORE POP POP SWAP1 POP PUSH1 0x64 DUP5 PUSH1 0xFF AND GT ISZERO PUSH2 0x5B97 JUMPI PUSH1 0x40 MLOAD PUSH32 0x964E9C0000000000000000000000000000000000000000000000000000000000 DUP2 MSTORE PUSH1 0x4 ADD PUSH1 0x40 MLOAD DUP1 SWAP2 SUB SWAP1 REVERT JUMPDEST DUP3 DUP6 PUSH1 0xFF AND LT PUSH2 0x5BD3 JUMPI PUSH1 0x40 MLOAD PUSH32 0x54CF5A200000000000000000000000000000000000000000000000000000000 DUP2 MSTORE PUSH1 0x4 ADD PUSH1 0x40 MLOAD DUP1 SWAP2 SUB SWAP1 REVERT JUMPDEST PUSH2 0x5BDD CALLER DUP7 PUSH2 0x4A19 JUMP JUMPDEST SWAP2 POP PUSH1 0x0 DUP3 SUB PUSH2 0x5C19 JUMPI PUSH1 0x40 MLOAD PUSH32 0x4BB2437200000000000000000000000000000000000000000000000000000000 DUP2 MSTORE PUSH1 0x4 ADD PUSH1 0x40 MLOAD DUP1 SWAP2 SUB SWAP1 REVERT JUMPDEST PUSH2 0x133 SLOAD PUSH2 0x12D PUSH1 0x0 SWAP1 SLOAD SWAP1 PUSH2 0x100 EXP SWAP1 DIV PUSH20 0xFFFFFFFFFFFFFFFFFFFFFFFFFFFFFFFFFFFFFFFF AND PUSH20 0xFFFFFFFFFFFFFFFFFFFFFFFFFFFFFFFFFFFFFFFF AND PUSH4 0x70A08231 ADDRESS PUSH1 0x40 MLOAD DUP3 PUSH4 0xFFFFFFFF AND PUSH1 0xE0 SHL DUP2 MSTORE PUSH1 0x4 ADD PUSH2 0x5C79 SWAP2 SWAP1 PUSH2 0x8041 JUMP JUMPDEST PUSH1 0x20 PUSH1 0x40 MLOAD DUP1 DUP4 SUB DUP2 DUP7 GAS STATICCALL ISZERO DUP1 ISZERO PUSH2 0x5C96 JUMPI RETURNDATASIZE PUSH1 0x0 DUP1 RETURNDATACOPY RETURNDATASIZE PUSH1 0x0 REVERT JUMPDEST POP POP POP POP PUSH1 0x40 MLOAD RETURNDATASIZE PUSH1 0x1F NOT PUSH1 0x1F DUP3 ADD AND DUP3 ADD DUP1 PUSH1 0x40 MSTORE POP DUP2 ADD SWAP1 PUSH2 0x5CBA SWAP2 SWAP1 PUSH2 0x8982 JUMP JUMPDEST GT PUSH2 0x5CF1 JUMPI PUSH1 0x40 MLOAD PUSH32 0x4BB2437200000000000000000000000000000000000000000000000000000000 DUP2 MSTORE PUSH1 0x4 ADD PUSH1 0x40 MLOAD DUP1 SWAP2 SUB SWAP1 REVERT JUMPDEST PUSH1 0x0 DUP5 PUSH1 0xFF AND EQ PUSH2 0x6023 JUMPI PUSH1 0x0 PUSH2 0x139 PUSH1 0x0 CALLER PUSH20 0xFFFFFFFFFFFFFFFFFFFFFFFFFFFFFFFFFFFFFFFF AND PUSH20 0xFFFFFFFFFFFFFFFFFFFFFFFFFFFFFFFFFFFFFFFF AND DUP2 MSTORE PUSH1 0x20 ADD SWAP1 DUP2 MSTORE PUSH1 0x20 ADD PUSH1 0x0 KECCAK256 DUP1 SLOAD SWAP1 POP SWAP1 POP PUSH1 0x0 PUSH2 0x13A PUSH1 0x0 CALLER PUSH20 0xFFFFFFFFFFFFFFFFFFFFFFFFFFFFFFFFFFFFFFFF AND PUSH20 0xFFFFFFFFFFFFFFFFFFFFFFFFFFFFFFFFFFFFFFFF AND DUP2 MSTORE PUSH1 0x20 ADD SWAP1 DUP2 MSTORE PUSH1 0x20 ADD PUSH1 0x0 KECCAK256 PUSH1 0x0 DUP9 PUSH1 0xFF AND PUSH1 0xFF AND DUP2 MSTORE PUSH1 0x20 ADD SWAP1 DUP2 MSTORE PUSH1 0x20 ADD PUSH1 0x0 KECCAK256 PUSH1 0x40 MLOAD DUP1 PUSH1 0x60 ADD PUSH1 0x40 MSTORE SWAP1 DUP2 PUSH1 0x0 DUP3 ADD SLOAD DUP2 MSTORE PUSH1 0x20 ADD PUSH1 0x1 DUP3 ADD SLOAD DUP2 MSTORE PUSH1 0x20 ADD PUSH1 0x2 DUP3 ADD SLOAD DUP2 MSTORE POP POP SWAP1 POP PUSH1 0x0 PUSH2 0x139 PUSH1 0x0 CALLER PUSH20 0xFFFFFFFFFFFFFFFFFFFFFFFFFFFFFFFFFFFFFFFF AND PUSH20 0xFFFFFFFFFFFFFFFFFFFFFFFFFFFFFFFFFFFFFFFF AND DUP2 MSTORE PUSH1 0x20 ADD SWAP1 DUP2 MSTORE PUSH1 0x20 ADD PUSH1 0x0 KECCAK256 PUSH1 0x1 DUP5 PUSH2 0x5E17 SWAP2 SWAP1 PUSH2 0x8A07 JUMP JUMPDEST DUP2 SLOAD DUP2 LT PUSH2 0x5E28 JUMPI PUSH2 0x5E27 PUSH2 0x8A3B JUMP JUMPDEST JUMPDEST SWAP1 PUSH1 0x0 MSTORE PUSH1 0x20 PUSH1 0x0 KECCAK256 SWAP1 PUSH1 0x3 MUL ADD PUSH1 0x40 MLOAD DUP1 PUSH1 0x60 ADD PUSH1 0x40 MSTORE SWAP1 DUP2 PUSH1 0x0 DUP3 ADD SLOAD DUP2 MSTORE PUSH1 0x20 ADD PUSH1 0x1 DUP3 ADD SLOAD DUP2 MSTORE PUSH1 0x20 ADD PUSH1 0x2 DUP3 ADD SLOAD DUP2 MSTORE POP POP SWAP1 POP PUSH1 0x0 PUSH1 0x64 DUP9 PUSH1 0xFF AND DUP8 PUSH2 0x5E74 SWAP2 SWAP1 PUSH2 0x8BFF JUMP JUMPDEST PUSH2 0x5E7E SWAP2 SWAP1 PUSH2 0x8B86 JUMP JUMPDEST SWAP1 POP DUP1 DUP7 PUSH2 0x5E8C SWAP2 SWAP1 PUSH2 0x8A07 JUMP JUMPDEST SWAP6 POP DUP1 DUP4 PUSH1 0x0 ADD DUP2 DUP2 MLOAD PUSH2 0x5EA0 SWAP2 SWAP1 PUSH2 0x8A6A JUMP JUMPDEST SWAP2 POP DUP2 DUP2 MSTORE POP POP DUP1 PUSH2 0x133 PUSH1 0x0 DUP3 DUP3 SLOAD PUSH2 0x5EBA SWAP2 SWAP1 PUSH2 0x8A6A JUMP JUMPDEST SWAP3 POP POP DUP2 SWAP1 SSTORE POP PUSH2 0x131 SLOAD DUP3 PUSH1 0x0 ADD MLOAD LT PUSH2 0x5EEE JUMPI DUP1 PUSH2 0x134 PUSH1 0x0 DUP3 DUP3 SLOAD PUSH2 0x5EE2 SWAP2 SWAP1 PUSH2 0x8A6A JUMP JUMPDEST SWAP3 POP POP DUP2 SWAP1 SSTORE POP PUSH2 0x5F32 JUMP JUMPDEST PUSH2 0x131 SLOAD DUP2 DUP4 PUSH1 0x0 ADD MLOAD PUSH2 0x5F02 SWAP2 SWAP1 PUSH2 0x8A6A JUMP JUMPDEST LT PUSH2 0x5F31 JUMPI DUP1 DUP3 PUSH1 0x0 ADD MLOAD PUSH2 0x5F17 SWAP2 SWAP1 PUSH2 0x8A6A JUMP JUMPDEST PUSH2 0x134 PUSH1 0x0 DUP3 DUP3 SLOAD PUSH2 0x5F29 SWAP2 SWAP1 PUSH2 0x8A6A JUMP JUMPDEST SWAP3 POP POP DUP2 SWAP1 SSTORE POP JUMPDEST JUMPDEST DUP3 PUSH2 0x13A PUSH1 0x0 CALLER PUSH20 0xFFFFFFFFFFFFFFFFFFFFFFFFFFFFFFFFFFFFFFFF AND PUSH20 0xFFFFFFFFFFFFFFFFFFFFFFFFFFFFFFFFFFFFFFFF AND DUP2 MSTORE PUSH1 0x20 ADD SWAP1 DUP2 MSTORE PUSH1 0x20 ADD PUSH1 0x0 KECCAK256 PUSH1 0x0 DUP12 PUSH1 0xFF AND PUSH1 0xFF AND DUP2 MSTORE PUSH1 0x20 ADD SWAP1 DUP2 MSTORE PUSH1 0x20 ADD PUSH1 0x0 KECCAK256 PUSH1 0x0 DUP3 ADD MLOAD DUP2 PUSH1 0x0 ADD SSTORE PUSH1 0x20 DUP3 ADD MLOAD DUP2 PUSH1 0x1 ADD SSTORE PUSH1 0x40 DUP3 ADD MLOAD DUP2 PUSH1 0x2 ADD SSTORE SWAP1 POP POP DUP1 DUP6 PUSH1 0x40 ADD DUP2 DUP2 MLOAD PUSH2 0x5FBD SWAP2 SWAP1 PUSH2 0x8A6A JUMP JUMPDEST SWAP2 POP DUP2 DUP2 MSTORE POP POP TIMESTAMP DUP6 PUSH1 0x60 ADD DUP2 DUP2 MSTORE POP POP CALLER PUSH20 0xFFFFFFFFFFFFFFFFFFFFFFFFFFFFFFFFFFFFFFFF AND PUSH32 0x740EA299CBE0B22E247B46DC1DED3FB8E11870090AC711572392BC2DD7DA11BD DUP3 DUP12 PUSH1 0x40 MLOAD PUSH2 0x6016 SWAP3 SWAP2 SWAP1 PUSH2 0x8B2E JUMP JUMPDEST PUSH1 0x40 MLOAD DUP1 SWAP2 SUB SWAP1 LOG2 POP POP POP POP JUMPDEST PUSH1 0x0 DUP3 GT ISZERO PUSH2 0x6142 JUMPI PUSH2 0x12D PUSH1 0x0 SWAP1 SLOAD SWAP1 PUSH2 0x100 EXP SWAP1 DIV PUSH20 0xFFFFFFFFFFFFFFFFFFFFFFFFFFFFFFFFFFFFFFFF AND PUSH20 0xFFFFFFFFFFFFFFFFFFFFFFFFFFFFFFFFFFFFFFFF AND PUSH4 0xA9059CBB CALLER DUP5 PUSH1 0x40 MLOAD DUP4 PUSH4 0xFFFFFFFF AND PUSH1 0xE0 SHL DUP2 MSTORE PUSH1 0x4 ADD PUSH2 0x608A SWAP3 SWAP2 SWAP1 PUSH2 0x8E68 JUMP JUMPDEST PUSH1 0x20 PUSH1 0x40 MLOAD DUP1 DUP4 SUB DUP2 PUSH1 0x0 DUP8 GAS CALL ISZERO DUP1 ISZERO PUSH2 0x60A9 JUMPI RETURNDATASIZE PUSH1 0x0 DUP1 RETURNDATACOPY RETURNDATASIZE PUSH1 0x0 REVERT JUMPDEST POP POP POP POP PUSH1 0x40 MLOAD RETURNDATASIZE PUSH1 0x1F NOT PUSH1 0x1F DUP3 ADD AND DUP3 ADD DUP1 PUSH1 0x40 MSTORE POP DUP2 ADD SWAP1 PUSH2 0x60CD SWAP2 SWAP1 PUSH2 0x8B01 JUMP JUMPDEST POP DUP2 DUP2 PUSH1 0x0 ADD DUP2 DUP2 MLOAD PUSH2 0x60E0 SWAP2 SWAP1 PUSH2 0x8A6A JUMP JUMPDEST SWAP2 POP DUP2 DUP2 MSTORE POP POP TIMESTAMP DUP2 PUSH1 0x20 ADD DUP2 DUP2 MSTORE POP POP CALLER PUSH20 0xFFFFFFFFFFFFFFFFFFFFFFFFFFFFFFFFFFFFFFFF AND PUSH32 0xB2AA745C6ADE7E5F0EF71B67BC8B5C414166F7349B1FF999AC5F449B68DF3F6F DUP4 DUP8 PUSH1 0x40 MLOAD PUSH2 0x6139 SWAP3 SWAP2 SWAP1 PUSH2 0x8B2E JUMP JUMPDEST PUSH1 0x40 MLOAD DUP1 SWAP2 SUB SWAP1 LOG2 JUMPDEST DUP1 PUSH2 0x13B PUSH1 0x0 CALLER PUSH20 0xFFFFFFFFFFFFFFFFFFFFFFFFFFFFFFFFFFFFFFFF AND PUSH20 0xFFFFFFFFFFFFFFFFFFFFFFFFFFFFFFFFFFFFFFFF AND DUP2 MSTORE PUSH1 0x20 ADD SWAP1 DUP2 MSTORE PUSH1 0x20 ADD PUSH1 0x0 KECCAK256 PUSH1 0x0 DUP8 PUSH1 0xFF AND PUSH1 0xFF AND DUP2 MSTORE PUSH1 0x20 ADD SWAP1 DUP2 MSTORE PUSH1 0x20 ADD PUSH1 0x0 KECCAK256 PUSH1 0x0 DUP3 ADD MLOAD DUP2 PUSH1 0x0 ADD SSTORE PUSH1 0x20 DUP3 ADD MLOAD DUP2 PUSH1 0x1 ADD SSTORE PUSH1 0x40 DUP3 ADD MLOAD DUP2 PUSH1 0x2 ADD SSTORE PUSH1 0x60 DUP3 ADD MLOAD DUP2 PUSH1 0x3 ADD SSTORE SWAP1 POP POP POP POP POP PUSH2 0x61D0 PUSH2 0x6D80 JUMP JUMPDEST POP POP JUMP JUMPDEST PUSH2 0x61DC PUSH2 0x6CE7 JUMP JUMPDEST PUSH2 0x61E4 PUSH2 0x6D31 JUMP JUMPDEST PUSH1 0x0 PUSH2 0x13D PUSH1 0x0 CALLER PUSH20 0xFFFFFFFFFFFFFFFFFFFFFFFFFFFFFFFFFFFFFFFF AND PUSH20 0xFFFFFFFFFFFFFFFFFFFFFFFFFFFFFFFFFFFFFFFF AND DUP2 MSTORE PUSH1 0x20 ADD SWAP1 DUP2 MSTORE PUSH1 0x20 ADD PUSH1 0x0 KECCAK256 PUSH1 0x40 MLOAD DUP1 PUSH1 0x60 ADD PUSH1 0x40 MSTORE SWAP1 DUP2 PUSH1 0x0 DUP3 ADD SLOAD DUP2 MSTORE PUSH1 0x20 ADD PUSH1 0x1 DUP3 ADD SLOAD DUP2 MSTORE PUSH1 0x20 ADD PUSH1 0x2 DUP3 ADD SLOAD DUP2 MSTORE POP POP SWAP1 POP PUSH1 0x0 PUSH2 0x625C CALLER PUSH2 0x15C9 JUMP JUMPDEST SWAP1 POP PUSH2 0x6267 CALLER PUSH2 0x2585 JUMP JUMPDEST DUP2 PUSH2 0x6272 SWAP2 SWAP1 PUSH2 0x8A6A JUMP JUMPDEST SWAP1 POP PUSH1 0x0 DUP2 SUB PUSH2 0x62AE JUMPI PUSH1 0x40 MLOAD PUSH32 0x5B8E6E3700000000000000000000000000000000000000000000000000000000 DUP2 MSTORE PUSH1 0x4 ADD PUSH1 0x40 MLOAD DUP1 SWAP2 SUB SWAP1 REVERT JUMPDEST PUSH1 0x0 CALLER PUSH20 0xFFFFFFFFFFFFFFFFFFFFFFFFFFFFFFFFFFFFFFFF AND DUP3 PUSH1 0x40 MLOAD PUSH2 0x62D4 SWAP1 PUSH2 0x9082 JUMP JUMPDEST PUSH1 0x0 PUSH1 0x40 MLOAD DUP1 DUP4 SUB DUP2 DUP6 DUP8 GAS CALL SWAP3 POP POP POP RETURNDATASIZE DUP1 PUSH1 0x0 DUP2 EQ PUSH2 0x6311 JUMPI PUSH1 0x40 MLOAD SWAP2 POP PUSH1 0x1F NOT PUSH1 0x3F RETURNDATASIZE ADD AND DUP3 ADD PUSH1 0x40 MSTORE RETURNDATASIZE DUP3 MSTORE RETURNDATASIZE PUSH1 0x0 PUSH1 0x20 DUP5 ADD RETURNDATACOPY PUSH2 0x6316 JUMP JUMPDEST PUSH1 0x60 SWAP2 POP JUMPDEST POP POP SWAP1 POP DUP1 PUSH2 0x6351 JUMPI PUSH1 0x40 MLOAD PUSH32 0x668912AE00000000000000000000000000000000000000000000000000000000 DUP2 MSTORE PUSH1 0x4 ADD PUSH1 0x40 MLOAD DUP1 SWAP2 SUB SWAP1 REVERT JUMPDEST DUP2 DUP4 PUSH1 0x0 ADD DUP2 DUP2 MLOAD PUSH2 0x6363 SWAP2 SWAP1 PUSH2 0x8A6A JUMP JUMPDEST SWAP2 POP DUP2 DUP2 MSTORE POP POP TIMESTAMP DUP4 PUSH1 0x20 ADD DUP2 DUP2 MSTORE POP POP PUSH2 0x12F SLOAD DUP4 PUSH1 0x40 ADD DUP2 DUP2 MSTORE POP POP DUP3 PUSH2 0x13D PUSH1 0x0 CALLER PUSH20 0xFFFFFFFFFFFFFFFFFFFFFFFFFFFFFFFFFFFFFFFF AND PUSH20 0xFFFFFFFFFFFFFFFFFFFFFFFFFFFFFFFFFFFFFFFF AND DUP2 MSTORE PUSH1 0x20 ADD SWAP1 DUP2 MSTORE PUSH1 0x20 ADD PUSH1 0x0 KECCAK256 PUSH1 0x0 DUP3 ADD MLOAD DUP2 PUSH1 0x0 ADD SSTORE PUSH1 0x20 DUP3 ADD MLOAD DUP2 PUSH1 0x1 ADD SSTORE PUSH1 0x40 DUP3 ADD MLOAD DUP2 PUSH1 0x2 ADD SSTORE SWAP1 POP POP CALLER PUSH20 0xFFFFFFFFFFFFFFFFFFFFFFFFFFFFFFFFFFFFFFFF AND PUSH32 0xD7976053781E071CECF47E898AD2A6DC87621CA33734E96EB4B92453319E8C9 DUP4 PUSH1 0x40 MLOAD PUSH2 0x6429 SWAP2 SWAP1 PUSH2 0x7C5F JUMP JUMPDEST PUSH1 0x40 MLOAD DUP1 SWAP2 SUB SWAP1 LOG2 POP POP POP PUSH2 0x643C PUSH2 0x6D80 JUMP JUMPDEST JUMP JUMPDEST PUSH1 0x60 PUSH1 0x0 PUSH20 0xFFFFFFFFFFFFFFFFFFFFFFFFFFFFFFFFFFFFFFFF AND DUP3 PUSH20 0xFFFFFFFFFFFFFFFFFFFFFFFFFFFFFFFFFFFFFFFF AND SUB PUSH2 0x64A6 JUMPI PUSH1 0x40 MLOAD PUSH32 0xCA834E4600000000000000000000000000000000000000000000000000000000 DUP2 MSTORE PUSH1 0x4 ADD PUSH1 0x40 MLOAD DUP1 SWAP2 SUB SWAP1 REVERT JUMPDEST PUSH2 0x139 PUSH1 0x0 DUP4 PUSH20 0xFFFFFFFFFFFFFFFFFFFFFFFFFFFFFFFFFFFFFFFF AND PUSH20 0xFFFFFFFFFFFFFFFFFFFFFFFFFFFFFFFFFFFFFFFF AND DUP2 MSTORE PUSH1 0x20 ADD SWAP1 DUP2 MSTORE PUSH1 0x20 ADD PUSH1 0x0 KECCAK256 DUP1 SLOAD DUP1 PUSH1 0x20 MUL PUSH1 0x20 ADD PUSH1 0x40 MLOAD SWAP1 DUP2 ADD PUSH1 0x40 MSTORE DUP1 SWAP3 SWAP2 SWAP1 DUP2 DUP2 MSTORE PUSH1 0x20 ADD PUSH1 0x0 SWAP1 JUMPDEST DUP3 DUP3 LT ISZERO PUSH2 0x6556 JUMPI DUP4 DUP3 SWAP1 PUSH1 0x0 MSTORE PUSH1 0x20 PUSH1 0x0 KECCAK256 SWAP1 PUSH1 0x3 MUL ADD PUSH1 0x40 MLOAD DUP1 PUSH1 0x60 ADD PUSH1 0x40 MSTORE SWAP1 DUP2 PUSH1 0x0 DUP3 ADD SLOAD DUP2 MSTORE PUSH1 0x20 ADD PUSH1 0x1 DUP3 ADD SLOAD DUP2 MSTORE PUSH1 0x20 ADD PUSH1 0x2 DUP3 ADD SLOAD DUP2 MSTORE POP POP DUP2 MSTORE PUSH1 0x20 ADD SWAP1 PUSH1 0x1 ADD SWAP1 PUSH2 0x6506 JUMP JUMPDEST POP POP POP POP SWAP1 POP SWAP2 SWAP1 POP JUMP JUMPDEST PUSH1 0x60 PUSH1 0x0 PUSH20 0xFFFFFFFFFFFFFFFFFFFFFFFFFFFFFFFFFFFFFFFF AND DUP3 PUSH20 0xFFFFFFFFFFFFFFFFFFFFFFFFFFFFFFFFFFFFFFFF AND SUB PUSH2 0x65C9 JUMPI PUSH1 0x40 MLOAD PUSH32 0xCA834E4600000000000000000000000000000000000000000000000000000000 DUP2 MSTORE PUSH1 0x4 ADD PUSH1 0x40 MLOAD DUP1 SWAP2 SUB SWAP1 REVERT JUMPDEST PUSH2 0x13E PUSH1 0x0 DUP4 PUSH20 0xFFFFFFFFFFFFFFFFFFFFFFFFFFFFFFFFFFFFFFFF AND PUSH20 0xFFFFFFFFFFFFFFFFFFFFFFFFFFFFFFFFFFFFFFFF AND DUP2 MSTORE PUSH1 0x20 ADD SWAP1 DUP2 MSTORE PUSH1 0x20 ADD PUSH1 0x0 KECCAK256 DUP1 SLOAD DUP1 PUSH1 0x20 MUL PUSH1 0x20 ADD PUSH1 0x40 MLOAD SWAP1 DUP2 ADD PUSH1 0x40 MSTORE DUP1 SWAP3 SWAP2 SWAP1 DUP2 DUP2 MSTORE PUSH1 0x20 ADD PUSH1 0x0 SWAP1 JUMPDEST DUP3 DUP3 LT ISZERO PUSH2 0x66D1 JUMPI DUP4 DUP3 SWAP1 PUSH1 0x0 MSTORE PUSH1 0x20 PUSH1 0x0 KECCAK256 SWAP1 PUSH1 0x4 MUL ADD PUSH1 0x40 MLOAD DUP1 PUSH1 0x80 ADD PUSH1 0x40 MSTORE SWAP1 DUP2 PUSH1 0x0 DUP3 ADD SLOAD DUP2 MSTORE PUSH1 0x20 ADD PUSH1 0x1 DUP3 ADD DUP1 SLOAD DUP1 PUSH1 0x20 MUL PUSH1 0x20 ADD PUSH1 0x40 MLOAD SWAP1 DUP2 ADD PUSH1 0x40 MSTORE DUP1 SWAP3 SWAP2 SWAP1 DUP2 DUP2 MSTORE PUSH1 0x20 ADD DUP3 DUP1 SLOAD DUP1 ISZERO PUSH2 0x66A5 JUMPI PUSH1 0x20 MUL DUP3 ADD SWAP2 SWAP1 PUSH1 0x0 MSTORE PUSH1 0x20 PUSH1 0x0 KECCAK256 SWAP1 JUMPDEST DUP2 SLOAD DUP2 MSTORE PUSH1 0x20 ADD SWAP1 PUSH1 0x1 ADD SWAP1 DUP1 DUP4 GT PUSH2 0x6691 JUMPI JUMPDEST POP POP POP POP POP DUP2 MSTORE PUSH1 0x20 ADD PUSH1 0x2 DUP3 ADD SLOAD DUP2 MSTORE PUSH1 0x20 ADD PUSH1 0x3 DUP3 ADD SLOAD DUP2 MSTORE POP POP DUP2 MSTORE PUSH1 0x20 ADD SWAP1 PUSH1 0x1 ADD SWAP1 PUSH2 0x6629 JUMP JUMPDEST POP POP POP POP SWAP1 POP SWAP2 SWAP1 POP JUMP JUMPDEST PUSH1 0x0 PUSH2 0x132 SLOAD SWAP1 POP SWAP1 JUMP JUMPDEST PUSH2 0x66EF PUSH2 0x6D8A JUMP JUMPDEST PUSH1 0x0 CALLER PUSH20 0xFFFFFFFFFFFFFFFFFFFFFFFFFFFFFFFFFFFFFFFF AND SELFBALANCE PUSH1 0x40 MLOAD PUSH2 0x6715 SWAP1 PUSH2 0x9082 JUMP JUMPDEST PUSH1 0x0 PUSH1 0x40 MLOAD DUP1 DUP4 SUB DUP2 DUP6 DUP8 GAS CALL SWAP3 POP POP POP RETURNDATASIZE DUP1 PUSH1 0x0 DUP2 EQ PUSH2 0x6752 JUMPI PUSH1 0x40 MLOAD SWAP2 POP PUSH1 0x1F NOT PUSH1 0x3F RETURNDATASIZE ADD AND DUP3 ADD PUSH1 0x40 MSTORE RETURNDATASIZE DUP3 MSTORE RETURNDATASIZE PUSH1 0x0 PUSH1 0x20 DUP5 ADD RETURNDATACOPY PUSH2 0x6757 JUMP JUMPDEST PUSH1 0x60 SWAP2 POP JUMPDEST POP POP SWAP1 POP DUP1 PUSH2 0x6792 JUMPI PUSH1 0x40 MLOAD PUSH32 0x668912AE00000000000000000000000000000000000000000000000000000000 DUP2 MSTORE PUSH1 0x4 ADD PUSH1 0x40 MLOAD DUP1 SWAP2 SUB SWAP1 REVERT JUMPDEST POP JUMP JUMPDEST PUSH1 0x0 PUSH2 0x131 SLOAD SWAP1 POP SWAP1 JUMP JUMPDEST PUSH2 0x67A8 PUSH2 0x6D8A JUMP JUMPDEST DUP1 PUSH2 0x137 SWAP1 DUP1 MLOAD SWAP1 PUSH1 0x20 ADD SWAP1 PUSH2 0x67BF SWAP3 SWAP2 SWAP1 PUSH2 0x78D1 JUMP JUMPDEST POP POP JUMP JUMPDEST PUSH1 0x60 PUSH2 0x137 DUP1 SLOAD DUP1 PUSH1 0x20 MUL PUSH1 0x20 ADD PUSH1 0x40 MLOAD SWAP1 DUP2 ADD PUSH1 0x40 MSTORE DUP1 SWAP3 SWAP2 SWAP1 DUP2 DUP2 MSTORE PUSH1 0x20 ADD DUP3 DUP1 SLOAD DUP1 ISZERO PUSH2 0x6838 JUMPI PUSH1 0x20 MUL DUP3 ADD SWAP2 SWAP1 PUSH1 0x0 MSTORE PUSH1 0x20 PUSH1 0x0 KECCAK256 SWAP1 PUSH1 0x0 SWAP1 JUMPDEST DUP3 DUP3 SWAP1 SLOAD SWAP1 PUSH2 0x100 EXP SWAP1 DIV PUSH1 0xFF AND PUSH1 0xFF AND DUP2 MSTORE PUSH1 0x20 ADD SWAP1 PUSH1 0x1 ADD SWAP1 PUSH1 0x20 DUP3 PUSH1 0x0 ADD DIV SWAP3 DUP4 ADD SWAP3 PUSH1 0x1 SUB DUP3 MUL SWAP2 POP DUP1 DUP5 GT PUSH2 0x6801 JUMPI SWAP1 POP JUMPDEST POP POP POP POP POP SWAP1 POP SWAP1 JUMP JUMPDEST PUSH2 0x684A PUSH2 0x6D8A JUMP JUMPDEST PUSH1 0x0 PUSH20 0xFFFFFFFFFFFFFFFFFFFFFFFFFFFFFFFFFFFFFFFF AND DUP2 PUSH20 0xFFFFFFFFFFFFFFFFFFFFFFFFFFFFFFFFFFFFFFFF AND SUB PUSH2 0x68B9 JUMPI PUSH1 0x40 MLOAD PUSH32 0x8C379A000000000000000000000000000000000000000000000000000000000 DUP2 MSTORE PUSH1 0x4 ADD PUSH2 0x68B0 SWAP1 PUSH2 0x9109 JUMP JUMPDEST PUSH1 0x40 MLOAD DUP1 SWAP2 SUB SWAP1 REVERT JUMPDEST PUSH2 0x68C2 DUP2 PUSH2 0x71BA JUMP JUMPDEST POP JUMP JUMPDEST PUSH2 0x68CD PUSH2 0x6D8A JUMP JUMPDEST DUP2 PUSH20 0xFFFFFFFFFFFFFFFFFFFFFFFFFFFFFFFFFFFFFFFF AND PUSH4 0x23B872DD ADDRESS CALLER DUP5 PUSH1 0x40 MLOAD DUP5 PUSH4 0xFFFFFFFF AND PUSH1 0xE0 SHL DUP2 MSTORE PUSH1 0x4 ADD PUSH2 0x690A SWAP4 SWAP3 SWAP2 SWAP1 PUSH2 0x8A9E JUMP JUMPDEST PUSH1 0x0 PUSH1 0x40 MLOAD DUP1 DUP4 SUB DUP2 PUSH1 0x0 DUP8 DUP1 EXTCODESIZE ISZERO DUP1 ISZERO PUSH2 0x6924 JUMPI PUSH1 0x0 DUP1 REVERT JUMPDEST POP GAS CALL ISZERO DUP1 ISZERO PUSH2 0x6938 JUMPI RETURNDATASIZE PUSH1 0x0 DUP1 RETURNDATACOPY RETURNDATASIZE PUSH1 0x0 REVERT JUMPDEST POP POP POP POP POP POP JUMP JUMPDEST PUSH2 0x6948 PUSH2 0x6CE7 JUMP JUMPDEST PUSH2 0x6950 PUSH2 0x6D8A JUMP JUMPDEST PUSH1 0x0 CALLVALUE EQ DUP1 PUSH2 0x6960 JUMPI POP PUSH2 0x3E8 CALLVALUE LT JUMPDEST ISZERO PUSH2 0x6997 JUMPI PUSH1 0x40 MLOAD PUSH32 0x964E9C0000000000000000000000000000000000000000000000000000000000 DUP2 MSTORE PUSH1 0x4 ADD PUSH1 0x40 MLOAD DUP1 SWAP2 SUB SWAP1 REVERT JUMPDEST PUSH1 0x60 PUSH1 0x0 DUP1 PUSH1 0x0 PUSH2 0x12F PUSH1 0x0 DUP2 SLOAD DUP1 SWAP3 SWAP2 SWAP1 PUSH2 0x69B2 SWAP1 PUSH2 0x8BB7 JUMP JUMPDEST SWAP2 SWAP1 POP SSTORE POP CALLVALUE PUSH2 0x130 PUSH1 0x0 DUP3 DUP3 SLOAD PUSH2 0x69CA SWAP2 SWAP1 PUSH2 0x8A6A JUMP JUMPDEST SWAP3 POP POP DUP2 SWAP1 SSTORE POP PUSH1 0x2 CALLVALUE PUSH2 0x69DE SWAP2 SWAP1 PUSH2 0x8B86 JUMP JUMPDEST SWAP3 POP DUP3 SWAP2 POP PUSH2 0x12E PUSH1 0x0 SWAP1 SLOAD SWAP1 PUSH2 0x100 EXP SWAP1 DIV PUSH20 0xFFFFFFFFFFFFFFFFFFFFFFFFFFFFFFFFFFFFFFFF AND PUSH20 0xFFFFFFFFFFFFFFFFFFFFFFFFFFFFFFFFFFFFFFFF AND PUSH4 0x8462151C ADDRESS PUSH1 0x40 MLOAD DUP3 PUSH4 0xFFFFFFFF AND PUSH1 0xE0 SHL DUP2 MSTORE PUSH1 0x4 ADD PUSH2 0x6A3F SWAP2 SWAP1 PUSH2 0x8041 JUMP JUMPDEST PUSH1 0x0 PUSH1 0x40 MLOAD DUP1 DUP4 SUB DUP2 DUP7 GAS STATICCALL ISZERO DUP1 ISZERO PUSH2 0x6A5C JUMPI RETURNDATASIZE PUSH1 0x0 DUP1 RETURNDATACOPY RETURNDATASIZE PUSH1 0x0 REVERT JUMPDEST POP POP POP POP PUSH1 0x40 MLOAD RETURNDATASIZE PUSH1 0x0 DUP3 RETURNDATACOPY RETURNDATASIZE PUSH1 0x1F NOT PUSH1 0x1F DUP3 ADD AND DUP3 ADD DUP1 PUSH1 0x40 MSTORE POP DUP2 ADD SWAP1 PUSH2 0x6A85 SWAP2 SWAP1 PUSH2 0x91C0 JUMP JUMPDEST SWAP4 POP PUSH1 0x0 DUP5 MLOAD EQ PUSH2 0x6C00 JUMPI PUSH2 0x12E PUSH1 0x0 SWAP1 SLOAD SWAP1 PUSH2 0x100 EXP SWAP1 DIV PUSH20 0xFFFFFFFFFFFFFFFFFFFFFFFFFFFFFFFFFFFFFFFF AND PUSH20 0xFFFFFFFFFFFFFFFFFFFFFFFFFFFFFFFFFFFFFFFF AND PUSH4 0xF4B49946 DUP6 PUSH1 0x40 MLOAD DUP3 PUSH4 0xFFFFFFFF AND PUSH1 0xE0 SHL DUP2 MSTORE PUSH1 0x4 ADD PUSH2 0x6AEC SWAP2 SWAP1 PUSH2 0x8E91 JUMP JUMPDEST PUSH1 0x40 DUP1 MLOAD DUP1 DUP4 SUB DUP2 DUP7 GAS STATICCALL ISZERO DUP1 ISZERO PUSH2 0x6B08 JUMPI RETURNDATASIZE PUSH1 0x0 DUP1 RETURNDATACOPY RETURNDATASIZE PUSH1 0x0 REVERT JUMPDEST POP POP POP POP PUSH1 0x40 MLOAD RETURNDATASIZE PUSH1 0x1F NOT PUSH1 0x1F DUP3 ADD AND DUP3 ADD DUP1 PUSH1 0x40 MSTORE POP DUP2 ADD SWAP1 PUSH2 0x6B2C SWAP2 SWAP1 PUSH2 0x8EB3 JUMP JUMPDEST SWAP1 POP DUP1 SWAP2 POP POP PUSH2 0x2710 DUP2 DUP5 PUSH2 0x6B41 SWAP2 SWAP1 PUSH2 0x8BFF JUMP JUMPDEST PUSH2 0x6B4B SWAP2 SWAP1 PUSH2 0x8B86 JUMP JUMPDEST SWAP2 POP DUP2 DUP4 PUSH2 0x6B59 SWAP2 SWAP1 PUSH2 0x8A07 JUMP JUMPDEST SWAP2 POP PUSH1 0x0 CALLER PUSH20 0xFFFFFFFFFFFFFFFFFFFFFFFFFFFFFFFFFFFFFFFF AND DUP4 PUSH1 0x40 MLOAD PUSH2 0x6B81 SWAP1 PUSH2 0x9082 JUMP JUMPDEST PUSH1 0x0 PUSH1 0x40 MLOAD DUP1 DUP4 SUB DUP2 DUP6 DUP8 GAS CALL SWAP3 POP POP POP RETURNDATASIZE DUP1 PUSH1 0x0 DUP2 EQ PUSH2 0x6BBE JUMPI PUSH1 0x40 MLOAD SWAP2 POP PUSH1 0x1F NOT PUSH1 0x3F RETURNDATASIZE ADD AND DUP3 ADD PUSH1 0x40 MSTORE RETURNDATASIZE DUP3 MSTORE RETURNDATASIZE PUSH1 0x0 PUSH1 0x20 DUP5 ADD RETURNDATACOPY PUSH2 0x6BC3 JUMP JUMPDEST PUSH1 0x60 SWAP2 POP JUMPDEST POP POP SWAP1 POP DUP1 PUSH2 0x6BFE JUMPI PUSH1 0x40 MLOAD PUSH32 0x668912AE00000000000000000000000000000000000000000000000000000000 DUP2 MSTORE PUSH1 0x4 ADD PUSH1 0x40 MLOAD DUP1 SWAP2 SUB SWAP1 REVERT JUMPDEST POP JUMPDEST PUSH1 0x40 MLOAD DUP1 PUSH1 0x80 ADD PUSH1 0x40 MSTORE DUP1 CALLVALUE DUP2 MSTORE PUSH1 0x20 ADD TIMESTAMP DUP2 MSTORE PUSH1 0x20 ADD PUSH2 0x134 SLOAD DUP2 MSTORE PUSH1 0x20 ADD DUP4 DUP2 MSTORE POP PUSH2 0x13C PUSH1 0x0 PUSH2 0x12F SLOAD DUP2 MSTORE PUSH1 0x20 ADD SWAP1 DUP2 MSTORE PUSH1 0x20 ADD PUSH1 0x0 KECCAK256 PUSH1 0x0 DUP3 ADD MLOAD DUP2 PUSH1 0x0 ADD SSTORE PUSH1 0x20 DUP3 ADD MLOAD DUP2 PUSH1 0x1 ADD SSTORE PUSH1 0x40 DUP3 ADD MLOAD DUP2 PUSH1 0x2 ADD SSTORE PUSH1 0x60 DUP3 ADD MLOAD DUP2 PUSH1 0x3 ADD SSTORE SWAP1 POP POP CALLER PUSH20 0xFFFFFFFFFFFFFFFFFFFFFFFFFFFFFFFFFFFFFFFF AND PUSH32 0x3F7DB3CCDC06492EB9FCCA5FE34FCEE7F7DDCCA331E5053CB3534067B9A53232 CALLVALUE DUP5 PUSH1 0x40 MLOAD PUSH2 0x6CAE SWAP3 SWAP2 SWAP1 PUSH2 0x7D19 JUMP JUMPDEST PUSH1 0x40 MLOAD DUP1 SWAP2 SUB SWAP1 LOG2 POP POP POP POP JUMP JUMPDEST PUSH1 0x0 PUSH2 0x12E PUSH1 0x0 SWAP1 SLOAD SWAP1 PUSH2 0x100 EXP SWAP1 DIV PUSH20 0xFFFFFFFFFFFFFFFFFFFFFFFFFFFFFFFFFFFFFFFF AND SWAP1 POP SWAP1 JUMP JUMPDEST PUSH2 0x6CEF PUSH2 0x2EC8 JUMP JUMPDEST ISZERO PUSH2 0x6D2F JUMPI PUSH1 0x40 MLOAD PUSH32 0x8C379A000000000000000000000000000000000000000000000000000000000 DUP2 MSTORE PUSH1 0x4 ADD PUSH2 0x6D26 SWAP1 PUSH2 0x9255 JUMP JUMPDEST PUSH1 0x40 MLOAD DUP1 SWAP2 SUB SWAP1 REVERT JUMPDEST JUMP JUMPDEST PUSH1 0x2 PUSH1 0xFB SLOAD SUB PUSH2 0x6D76 JUMPI PUSH1 0x40 MLOAD PUSH32 0x8C379A000000000000000000000000000000000000000000000000000000000 DUP2 MSTORE PUSH1 0x4 ADD PUSH2 0x6D6D SWAP1 PUSH2 0x92C1 JUMP JUMPDEST PUSH1 0x40 MLOAD DUP1 SWAP2 SUB SWAP1 REVERT JUMPDEST PUSH1 0x2 PUSH1 0xFB DUP2 SWAP1 SSTORE POP JUMP JUMPDEST PUSH1 0x1 PUSH1 0xFB DUP2 SWAP1 SSTORE POP JUMP JUMPDEST PUSH2 0x6D92 PUSH2 0x72E3 JUMP JUMPDEST PUSH20 0xFFFFFFFFFFFFFFFFFFFFFFFFFFFFFFFFFFFFFFFF AND PUSH2 0x6DB0 PUSH2 0x48FB JUMP JUMPDEST PUSH20 0xFFFFFFFFFFFFFFFFFFFFFFFFFFFFFFFFFFFFFFFF AND EQ PUSH2 0x6E06 JUMPI PUSH1 0x40 MLOAD PUSH32 0x8C379A000000000000000000000000000000000000000000000000000000000 DUP2 MSTORE PUSH1 0x4 ADD PUSH2 0x6DFD SWAP1 PUSH2 0x932D JUMP JUMPDEST PUSH1 0x40 MLOAD DUP1 SWAP2 SUB SWAP1 REVERT JUMPDEST JUMP JUMPDEST PUSH1 0x0 PUSH2 0x6E36 PUSH32 0x360894A13BA1A3210667C828492DB98DCA3E2076CC3735A920A3CA505D382BBC PUSH1 0x0 SHL PUSH2 0x72EB JUMP JUMPDEST PUSH1 0x0 ADD PUSH1 0x0 SWAP1 SLOAD SWAP1 PUSH2 0x100 EXP SWAP1 DIV PUSH20 0xFFFFFFFFFFFFFFFFFFFFFFFFFFFFFFFFFFFFFFFF AND SWAP1 POP SWAP1 JUMP JUMPDEST PUSH2 0x6E67 PUSH2 0x6D8A JUMP JUMPDEST POP JUMP JUMPDEST PUSH2 0x6E96 PUSH32 0x4910FDFA16FED3260ED0E7147F7CC6DA11A60208B5B9406D12A635614FFD9143 PUSH1 0x0 SHL PUSH2 0x72F5 JUMP JUMPDEST PUSH1 0x0 ADD PUSH1 0x0 SWAP1 SLOAD SWAP1 PUSH2 0x100 EXP SWAP1 DIV PUSH1 0xFF AND ISZERO PUSH2 0x6EBA JUMPI PUSH2 0x6EB5 DUP4 PUSH2 0x72FF JUMP JUMPDEST PUSH2 0x6FD3 JUMP JUMPDEST DUP3 PUSH20 0xFFFFFFFFFFFFFFFFFFFFFFFFFFFFFFFFFFFFFFFF AND PUSH4 0x52D1902D PUSH1 0x40 MLOAD DUP2 PUSH4 0xFFFFFFFF AND PUSH1 0xE0 SHL DUP2 MSTORE PUSH1 0x4 ADD PUSH1 0x20 PUSH1 0x40 MLOAD DUP1 DUP4 SUB DUP2 DUP7 GAS STATICCALL SWAP3 POP POP POP DUP1 ISZERO PUSH2 0x6F22 JUMPI POP PUSH1 0x40 MLOAD RETURNDATASIZE PUSH1 0x1F NOT PUSH1 0x1F DUP3 ADD AND DUP3 ADD DUP1 PUSH1 0x40 MSTORE POP DUP2 ADD SWAP1 PUSH2 0x6F1F SWAP2 SWAP1 PUSH2 0x9379 JUMP JUMPDEST PUSH1 0x1 JUMPDEST PUSH2 0x6F61 JUMPI PUSH1 0x40 MLOAD PUSH32 0x8C379A000000000000000000000000000000000000000000000000000000000 DUP2 MSTORE PUSH1 0x4 ADD PUSH2 0x6F58 SWAP1 PUSH2 0x9418 JUMP JUMPDEST PUSH1 0x40 MLOAD DUP1 SWAP2 SUB SWAP1 REVERT JUMPDEST PUSH32 0x360894A13BA1A3210667C828492DB98DCA3E2076CC3735A920A3CA505D382BBC PUSH1 0x0 SHL DUP2 EQ PUSH2 0x6FC6 JUMPI PUSH1 0x40 MLOAD PUSH32 0x8C379A000000000000000000000000000000000000000000000000000000000 DUP2 MSTORE PUSH1 0x4 ADD PUSH2 0x6FBD SWAP1 PUSH2 0x94AA JUMP JUMPDEST PUSH1 0x40 MLOAD DUP1 SWAP2 SUB SWAP1 REVERT JUMPDEST POP PUSH2 0x6FD2 DUP4 DUP4 DUP4 PUSH2 0x73B8 JUMP JUMPDEST JUMPDEST POP POP POP JUMP JUMPDEST PUSH2 0x6FE0 PUSH2 0x73E4 JUMP JUMPDEST PUSH1 0x0 PUSH1 0xC9 PUSH1 0x0 PUSH2 0x100 EXP DUP2 SLOAD DUP2 PUSH1 0xFF MUL NOT AND SWAP1 DUP4 ISZERO ISZERO MUL OR SWAP1 SSTORE POP PUSH32 0x5DB9EE0A495BF2E6FF9C91A7834C1BA4FDD244A5E8AA4E537BD38AEAE4B073AA PUSH2 0x7024 PUSH2 0x72E3 JUMP JUMPDEST PUSH1 0x40 MLOAD PUSH2 0x7031 SWAP2 SWAP1 PUSH2 0x8041 JUMP JUMPDEST PUSH1 0x40 MLOAD DUP1 SWAP2 SUB SWAP1 LOG1 JUMP JUMPDEST PUSH1 0x0 DUP1 DUP3 PUSH20 0xFFFFFFFFFFFFFFFFFFFFFFFFFFFFFFFFFFFFFFFF AND EXTCODESIZE GT SWAP1 POP SWAP2 SWAP1 POP JUMP JUMPDEST PUSH1 0x0 PUSH1 0x1 SWAP1 SLOAD SWAP1 PUSH2 0x100 EXP SWAP1 DIV PUSH1 0xFF AND PUSH2 0x70AD JUMPI PUSH1 0x40 MLOAD PUSH32 0x8C379A000000000000000000000000000000000000000000000000000000000 DUP2 MSTORE PUSH1 0x4 ADD PUSH2 0x70A4 SWAP1 PUSH2 0x953C JUMP JUMPDEST PUSH1 0x40 MLOAD DUP1 SWAP2 SUB SWAP1 REVERT JUMPDEST PUSH2 0x70B5 PUSH2 0x742D JUMP JUMPDEST JUMP JUMPDEST PUSH1 0x0 PUSH1 0x1 SWAP1 SLOAD SWAP1 PUSH2 0x100 EXP SWAP1 DIV PUSH1 0xFF AND PUSH2 0x7106 JUMPI PUSH1 0x40 MLOAD PUSH32 0x8C379A000000000000000000000000000000000000000000000000000000000 DUP2 MSTORE PUSH1 0x4 ADD PUSH2 0x70FD SWAP1 PUSH2 0x953C JUMP JUMPDEST PUSH1 0x40 MLOAD DUP1 SWAP2 SUB SWAP1 REVERT JUMPDEST PUSH2 0x710E PUSH2 0x748E JUMP JUMPDEST JUMP JUMPDEST PUSH1 0x0 PUSH1 0x1 SWAP1 SLOAD SWAP1 PUSH2 0x100 EXP SWAP1 DIV PUSH1 0xFF AND PUSH2 0x715F JUMPI PUSH1 0x40 MLOAD PUSH32 0x8C379A000000000000000000000000000000000000000000000000000000000 DUP2 MSTORE PUSH1 0x4 ADD PUSH2 0x7156 SWAP1 PUSH2 0x953C JUMP JUMPDEST PUSH1 0x40 MLOAD DUP1 SWAP2 SUB SWAP1 REVERT JUMPDEST PUSH2 0x7167 PUSH2 0x74FA JUMP JUMPDEST JUMP JUMPDEST PUSH1 0x0 PUSH1 0x1 SWAP1 SLOAD SWAP1 PUSH2 0x100 EXP SWAP1 DIV PUSH1 0xFF AND PUSH2 0x71B8 JUMPI PUSH1 0x40 MLOAD PUSH32 0x8C379A000000000000000000000000000000000000000000000000000000000 DUP2 MSTORE PUSH1 0x4 ADD PUSH2 0x71AF SWAP1 PUSH2 0x953C JUMP JUMPDEST PUSH1 0x40 MLOAD DUP1 SWAP2 SUB SWAP1 REVERT JUMPDEST JUMP JUMPDEST PUSH1 0x0 PUSH1 0x97 PUSH1 0x0 SWAP1 SLOAD SWAP1 PUSH2 0x100 EXP SWAP1 DIV PUSH20 0xFFFFFFFFFFFFFFFFFFFFFFFFFFFFFFFFFFFFFFFF AND SWAP1 POP DUP2 PUSH1 0x97 PUSH1 0x0 PUSH2 0x100 EXP DUP2 SLOAD DUP2 PUSH20 0xFFFFFFFFFFFFFFFFFFFFFFFFFFFFFFFFFFFFFFFF MUL NOT AND SWAP1 DUP4 PUSH20 0xFFFFFFFFFFFFFFFFFFFFFFFFFFFFFFFFFFFFFFFF AND MUL OR SWAP1 SSTORE POP DUP2 PUSH20 0xFFFFFFFFFFFFFFFFFFFFFFFFFFFFFFFFFFFFFFFF AND DUP2 PUSH20 0xFFFFFFFFFFFFFFFFFFFFFFFFFFFFFFFFFFFFFFFF AND PUSH32 0x8BE0079C531659141344CD1FD0A4F28419497F9722A3DAAFE3B4186F6B6457E0 PUSH1 0x40 MLOAD PUSH1 0x40 MLOAD DUP1 SWAP2 SUB SWAP1 LOG3 POP POP JUMP JUMPDEST PUSH2 0x7288 PUSH2 0x6CE7 JUMP JUMPDEST PUSH1 0x1 PUSH1 0xC9 PUSH1 0x0 PUSH2 0x100 EXP DUP2 SLOAD DUP2 PUSH1 0xFF MUL NOT AND SWAP1 DUP4 ISZERO ISZERO MUL OR SWAP1 SSTORE POP PUSH32 0x62E78CEA01BEE320CD4E420270B5EA74000D11B0C9F74754EBDBFC544B05A258 PUSH2 0x72CC PUSH2 0x72E3 JUMP JUMPDEST PUSH1 0x40 MLOAD PUSH2 0x72D9 SWAP2 SWAP1 PUSH2 0x8041 JUMP JUMPDEST PUSH1 0x40 MLOAD DUP1 SWAP2 SUB SWAP1 LOG1 JUMP JUMPDEST PUSH1 0x0 CALLER SWAP1 POP SWAP1 JUMP JUMPDEST PUSH1 0x0 DUP2 SWAP1 POP SWAP2 SWAP1 POP JUMP JUMPDEST PUSH1 0x0 DUP2 SWAP1 POP SWAP2 SWAP1 POP JUMP JUMPDEST PUSH2 0x7308 DUP2 PUSH2 0x703B JUMP JUMPDEST PUSH2 0x7347 JUMPI PUSH1 0x40 MLOAD PUSH32 0x8C379A000000000000000000000000000000000000000000000000000000000 DUP2 MSTORE PUSH1 0x4 ADD PUSH2 0x733E SWAP1 PUSH2 0x95CE JUMP JUMPDEST PUSH1 0x40 MLOAD DUP1 SWAP2 SUB SWAP1 REVERT JUMPDEST DUP1 PUSH2 0x7374 PUSH32 0x360894A13BA1A3210667C828492DB98DCA3E2076CC3735A920A3CA505D382BBC PUSH1 0x0 SHL PUSH2 0x72EB JUMP JUMPDEST PUSH1 0x0 ADD PUSH1 0x0 PUSH2 0x100 EXP DUP2 SLOAD DUP2 PUSH20 0xFFFFFFFFFFFFFFFFFFFFFFFFFFFFFFFFFFFFFFFF MUL NOT AND SWAP1 DUP4 PUSH20 0xFFFFFFFFFFFFFFFFFFFFFFFFFFFFFFFFFFFFFFFF AND MUL OR SWAP1 SSTORE POP POP JUMP JUMPDEST PUSH2 0x73C1 DUP4 PUSH2 0x7553 JUMP JUMPDEST PUSH1 0x0 DUP3 MLOAD GT DUP1 PUSH2 0x73CE JUMPI POP DUP1 JUMPDEST ISZERO PUSH2 0x73DF JUMPI PUSH2 0x73DD DUP4 DUP4 PUSH2 0x75A2 JUMP JUMPDEST POP JUMPDEST POP POP POP JUMP JUMPDEST PUSH2 0x73EC PUSH2 0x2EC8 JUMP JUMPDEST PUSH2 0x742B JUMPI PUSH1 0x40 MLOAD PUSH32 0x8C379A000000000000000000000000000000000000000000000000000000000 DUP2 MSTORE PUSH1 0x4 ADD PUSH2 0x7422 SWAP1 PUSH2 0x963A JUMP JUMPDEST PUSH1 0x40 MLOAD DUP1 SWAP2 SUB SWAP1 REVERT JUMPDEST JUMP JUMPDEST PUSH1 0x0 PUSH1 0x1 SWAP1 SLOAD SWAP1 PUSH2 0x100 EXP SWAP1 DIV PUSH1 0xFF AND PUSH2 0x747C JUMPI PUSH1 0x40 MLOAD PUSH32 0x8C379A000000000000000000000000000000000000000000000000000000000 DUP2 MSTORE PUSH1 0x4 ADD PUSH2 0x7473 SWAP1 PUSH2 0x953C JUMP JUMPDEST PUSH1 0x40 MLOAD DUP1 SWAP2 SUB SWAP1 REVERT JUMPDEST PUSH2 0x748C PUSH2 0x7487 PUSH2 0x72E3 JUMP JUMPDEST PUSH2 0x71BA JUMP JUMPDEST JUMP JUMPDEST PUSH1 0x0 PUSH1 0x1 SWAP1 SLOAD SWAP1 PUSH2 0x100 EXP SWAP1 DIV PUSH1 0xFF AND PUSH2 0x74DD JUMPI PUSH1 0x40 MLOAD PUSH32 0x8C379A000000000000000000000000000000000000000000000000000000000 DUP2 MSTORE PUSH1 0x4 ADD PUSH2 0x74D4 SWAP1 PUSH2 0x953C JUMP JUMPDEST PUSH1 0x40 MLOAD DUP1 SWAP2 SUB SWAP1 REVERT JUMPDEST PUSH1 0x0 PUSH1 0xC9 PUSH1 0x0 PUSH2 0x100 EXP DUP2 SLOAD DUP2 PUSH1 0xFF MUL NOT AND SWAP1 DUP4 ISZERO ISZERO MUL OR SWAP1 SSTORE POP JUMP JUMPDEST PUSH1 0x0 PUSH1 0x1 SWAP1 SLOAD SWAP1 PUSH2 0x100 EXP SWAP1 DIV PUSH1 0xFF AND PUSH2 0x7549 JUMPI PUSH1 0x40 MLOAD PUSH32 0x8C379A000000000000000000000000000000000000000000000000000000000 DUP2 MSTORE PUSH1 0x4 ADD PUSH2 0x7540 SWAP1 PUSH2 0x953C JUMP JUMPDEST PUSH1 0x40 MLOAD DUP1 SWAP2 SUB SWAP1 REVERT JUMPDEST PUSH1 0x1 PUSH1 0xFB DUP2 SWAP1 SSTORE POP JUMP JUMPDEST PUSH2 0x755C DUP2 PUSH2 0x72FF JUMP JUMPDEST DUP1 PUSH20 0xFFFFFFFFFFFFFFFFFFFFFFFFFFFFFFFFFFFFFFFF AND PUSH32 0xBC7CD75A20EE27FD9ADEBAB32041F755214DBC6BFFA90CC0225B39DA2E5C2D3B PUSH1 0x40 MLOAD PUSH1 0x40 MLOAD DUP1 SWAP2 SUB SWAP1 LOG2 POP JUMP JUMPDEST PUSH1 0x60 PUSH2 0x75C7 DUP4 DUP4 PUSH1 0x40 MLOAD DUP1 PUSH1 0x60 ADD PUSH1 0x40 MSTORE DUP1 PUSH1 0x27 DUP2 MSTORE PUSH1 0x20 ADD PUSH2 0x97AA PUSH1 0x27 SWAP2 CODECOPY PUSH2 0x75CF JUMP JUMPDEST SWAP1 POP SWAP3 SWAP2 POP POP JUMP JUMPDEST PUSH1 0x60 PUSH1 0x0 DUP1 DUP6 PUSH20 0xFFFFFFFFFFFFFFFFFFFFFFFFFFFFFFFFFFFFFFFF AND DUP6 PUSH1 0x40 MLOAD PUSH2 0x75F9 SWAP2 SWAP1 PUSH2 0x96C0 JUMP JUMPDEST PUSH1 0x0 PUSH1 0x40 MLOAD DUP1 DUP4 SUB DUP2 DUP6 GAS DELEGATECALL SWAP2 POP POP RETURNDATASIZE DUP1 PUSH1 0x0 DUP2 EQ PUSH2 0x7634 JUMPI PUSH1 0x40 MLOAD SWAP2 POP PUSH1 0x1F NOT PUSH1 0x3F RETURNDATASIZE ADD AND DUP3 ADD PUSH1 0x40 MSTORE RETURNDATASIZE DUP3 MSTORE RETURNDATASIZE PUSH1 0x0 PUSH1 0x20 DUP5 ADD RETURNDATACOPY PUSH2 0x7639 JUMP JUMPDEST PUSH1 0x60 SWAP2 POP JUMPDEST POP SWAP2 POP SWAP2 POP PUSH2 0x764A DUP7 DUP4 DUP4 DUP8 PUSH2 0x7655 JUMP JUMPDEST SWAP3 POP POP POP SWAP4 SWAP3 POP POP POP JUMP JUMPDEST PUSH1 0x60 DUP4 ISZERO PUSH2 0x76B7 JUMPI PUSH1 0x0 DUP4 MLOAD SUB PUSH2 0x76AF JUMPI PUSH2 0x766F DUP6 PUSH2 0x703B JUMP JUMPDEST PUSH2 0x76AE JUMPI PUSH1 0x40 MLOAD PUSH32 0x8C379A000000000000000000000000000000000000000000000000000000000 DUP2 MSTORE PUSH1 0x4 ADD PUSH2 0x76A5 SWAP1 PUSH2 0x9723 JUMP JUMPDEST PUSH1 0x40 MLOAD DUP1 SWAP2 SUB SWAP1 REVERT JUMPDEST JUMPDEST DUP3 SWAP1 POP PUSH2 0x76C2 JUMP JUMPDEST PUSH2 0x76C1 DUP4 DUP4 PUSH2 0x76CA JUMP JUMPDEST JUMPDEST SWAP5 SWAP4 POP POP POP POP JUMP JUMPDEST PUSH1 0x0 DUP3 MLOAD GT ISZERO PUSH2 0x76DD JUMPI DUP2 MLOAD DUP1 DUP4 PUSH1 0x20 ADD REVERT JUMPDEST DUP1 PUSH1 0x40 MLOAD PUSH32 0x8C379A000000000000000000000000000000000000000000000000000000000 DUP2 MSTORE PUSH1 0x4 ADD PUSH2 0x7711 SWAP2 SWAP1 PUSH2 0x9787 JUMP JUMPDEST PUSH1 0x40 MLOAD DUP1 SWAP2 SUB SWAP1 REVERT JUMPDEST PUSH1 0x40 MLOAD DUP1 PUSH1 0x60 ADD PUSH1 0x40 MSTORE DUP1 PUSH1 0x0 DUP2 MSTORE PUSH1 0x20 ADD PUSH1 0x0 DUP2 MSTORE PUSH1 0x20 ADD PUSH1 0x0 DUP2 MSTORE POP SWAP1 JUMP JUMPDEST PUSH1 0x40 MLOAD DUP1 PUSH1 0x80 ADD PUSH1 0x40 MSTORE DUP1 PUSH1 0x0 DUP2 MSTORE PUSH1 0x20 ADD PUSH1 0x0 DUP2 MSTORE PUSH1 0x20 ADD PUSH1 0x0 DUP2 MSTORE PUSH1 0x20 ADD PUSH1 0x0 DUP2 MSTORE POP SWAP1 JUMP JUMPDEST DUP3 DUP1 SLOAD DUP3 DUP3 SSTORE SWAP1 PUSH1 0x0 MSTORE PUSH1 0x20 PUSH1 0x0 KECCAK256 SWAP1 PUSH1 0x1F ADD PUSH1 0x20 SWAP1 DIV DUP2 ADD SWAP3 DUP3 ISZERO PUSH2 0x77F9 JUMPI SWAP2 PUSH1 0x20 MUL DUP3 ADD PUSH1 0x0 JUMPDEST DUP4 DUP3 GT ISZERO PUSH2 0x77CA JUMPI DUP4 MLOAD DUP4 DUP3 PUSH2 0x100 EXP DUP2 SLOAD DUP2 PUSH1 0xFF MUL NOT AND SWAP1 DUP4 PUSH1 0xFF AND MUL OR SWAP1 SSTORE POP SWAP3 PUSH1 0x20 ADD SWAP3 PUSH1 0x1 ADD PUSH1 0x20 DUP2 PUSH1 0x0 ADD DIV SWAP3 DUP4 ADD SWAP3 PUSH1 0x1 SUB MUL PUSH2 0x778C JUMP JUMPDEST DUP1 ISZERO PUSH2 0x77F7 JUMPI DUP3 DUP2 PUSH2 0x100 EXP DUP2 SLOAD SWAP1 PUSH1 0xFF MUL NOT AND SWAP1 SSTORE PUSH1 0x1 ADD PUSH1 0x20 DUP2 PUSH1 0x0 ADD DIV SWAP3 DUP4 ADD SWAP3 PUSH1 0x1 SUB MUL PUSH2 0x77CA JUMP JUMPDEST POP JUMPDEST POP SWAP1 POP PUSH2 0x7806 SWAP2 SWAP1 PUSH2 0x7978 JUMP JUMPDEST POP SWAP1 JUMP JUMPDEST PUSH1 0x40 MLOAD DUP1 PUSH1 0x80 ADD PUSH1 0x40 MSTORE DUP1 PUSH1 0x0 DUP2 MSTORE PUSH1 0x20 ADD PUSH1 0x60 DUP2 MSTORE PUSH1 0x20 ADD PUSH1 0x0 DUP2 MSTORE PUSH1 0x20 ADD PUSH1 0x0 DUP2 MSTORE POP SWAP1 JUMP JUMPDEST DUP3 DUP1 SLOAD DUP3 DUP3 SSTORE SWAP1 PUSH1 0x0 MSTORE PUSH1 0x20 PUSH1 0x0 KECCAK256 SWAP1 DUP2 ADD SWAP3 DUP3 ISZERO PUSH2 0x786E JUMPI SWAP2 PUSH1 0x20 MUL DUP3 ADD JUMPDEST DUP3 DUP2 GT ISZERO PUSH2 0x786D JUMPI DUP3 MLOAD DUP3 SSTORE SWAP2 PUSH1 0x20 ADD SWAP2 SWAP1 PUSH1 0x1 ADD SWAP1 PUSH2 0x7852 JUMP JUMPDEST JUMPDEST POP SWAP1 POP PUSH2 0x787B SWAP2 SWAP1 PUSH2 0x7978 JUMP JUMPDEST POP SWAP1 JUMP JUMPDEST DUP3 DUP1 SLOAD DUP3 DUP3 SSTORE SWAP1 PUSH1 0x0 MSTORE PUSH1 0x20 PUSH1 0x0 KECCAK256 SWAP1 DUP2 ADD SWAP3 DUP3 ISZERO PUSH2 0x78C0 JUMPI PUSH1 0x0 MSTORE PUSH1 0x20 PUSH1 0x0 KECCAK256 SWAP2 DUP3 ADD JUMPDEST DUP3 DUP2 GT ISZERO PUSH2 0x78BF JUMPI DUP3 SLOAD DUP3 SSTORE SWAP2 PUSH1 0x1 ADD SWAP2 SWAP1 PUSH1 0x1 ADD SWAP1 PUSH2 0x78A4 JUMP JUMPDEST JUMPDEST POP SWAP1 POP PUSH2 0x78CD SWAP2 SWAP1 PUSH2 0x7978 JUMP JUMPDEST POP SWAP1 JUMP JUMPDEST DUP3 DUP1 SLOAD DUP3 DUP3 SSTORE SWAP1 PUSH1 0x0 MSTORE PUSH1 0x20 PUSH1 0x0 KECCAK256 SWAP1 PUSH1 0x1F ADD PUSH1 0x20 SWAP1 DIV DUP2 ADD SWAP3 DUP3 ISZERO PUSH2 0x7967 JUMPI SWAP2 PUSH1 0x20 MUL DUP3 ADD PUSH1 0x0 JUMPDEST DUP4 DUP3 GT ISZERO PUSH2 0x7938 JUMPI DUP4 MLOAD DUP4 DUP3 PUSH2 0x100 EXP DUP2 SLOAD DUP2 PUSH1 0xFF MUL NOT AND SWAP1 DUP4 PUSH1 0xFF AND MUL OR SWAP1 SSTORE POP SWAP3 PUSH1 0x20 ADD SWAP3 PUSH1 0x1 ADD PUSH1 0x20 DUP2 PUSH1 0x0 ADD DIV SWAP3 DUP4 ADD SWAP3 PUSH1 0x1 SUB MUL PUSH2 0x78FA JUMP JUMPDEST DUP1 ISZERO PUSH2 0x7965 JUMPI DUP3 DUP2 PUSH2 0x100 EXP DUP2 SLOAD SWAP1 PUSH1 0xFF MUL NOT AND SWAP1 SSTORE PUSH1 0x1 ADD PUSH1 0x20 DUP2 PUSH1 0x0 ADD DIV SWAP3 DUP4 ADD SWAP3 PUSH1 0x1 SUB MUL PUSH2 0x7938 JUMP JUMPDEST POP JUMPDEST POP SWAP1 POP PUSH2 0x7974 SWAP2 SWAP1 PUSH2 0x7978 JUMP JUMPDEST POP SWAP1 JUMP JUMPDEST JUMPDEST DUP1 DUP3 GT ISZERO PUSH2 0x7991 JUMPI PUSH1 0x0 DUP2 PUSH1 0x0 SWAP1 SSTORE POP PUSH1 0x1 ADD PUSH2 0x7979 JUMP JUMPDEST POP SWAP1 JUMP JUMPDEST PUSH1 0x0 PUSH1 0xFF DUP3 AND SWAP1 POP SWAP2 SWAP1 POP JUMP JUMPDEST PUSH2 0x79AB DUP2 PUSH2 0x7995 JUMP JUMPDEST DUP3 MSTORE POP POP JUMP JUMPDEST PUSH1 0x0 PUSH1 0x20 DUP3 ADD SWAP1 POP PUSH2 0x79C6 PUSH1 0x0 DUP4 ADD DUP5 PUSH2 0x79A2 JUMP JUMPDEST SWAP3 SWAP2 POP POP JUMP JUMPDEST PUSH1 0x0 PUSH1 0x40 MLOAD SWAP1 POP SWAP1 JUMP JUMPDEST PUSH1 0x0 DUP1 REVERT JUMPDEST PUSH1 0x0 DUP1 REVERT JUMPDEST PUSH1 0x0 DUP2 SWAP1 POP SWAP2 SWAP1 POP JUMP JUMPDEST PUSH2 0x79F3 DUP2 PUSH2 0x79E0 JUMP JUMPDEST DUP2 EQ PUSH2 0x79FE JUMPI PUSH1 0x0 DUP1 REVERT JUMPDEST POP JUMP JUMPDEST PUSH1 0x0 DUP2 CALLDATALOAD SWAP1 POP PUSH2 0x7A10 DUP2 PUSH2 0x79EA JUMP JUMPDEST SWAP3 SWAP2 POP POP JUMP JUMPDEST PUSH2 0x7A1F DUP2 PUSH2 0x7995 JUMP JUMPDEST DUP2 EQ PUSH2 0x7A2A JUMPI PUSH1 0x0 DUP1 REVERT JUMPDEST POP JUMP JUMPDEST PUSH1 0x0 DUP2 CALLDATALOAD SWAP1 POP PUSH2 0x7A3C DUP2 PUSH2 0x7A16 JUMP JUMPDEST SWAP3 SWAP2 POP POP JUMP JUMPDEST PUSH1 0x0 DUP1 PUSH1 0x40 DUP4 DUP6 SUB SLT ISZERO PUSH2 0x7A59 JUMPI PUSH2 0x7A58 PUSH2 0x79D6 JUMP JUMPDEST JUMPDEST PUSH1 0x0 PUSH2 0x7A67 DUP6 DUP3 DUP7 ADD PUSH2 0x7A01 JUMP JUMPDEST SWAP3 POP POP PUSH1 0x20 PUSH2 0x7A78 DUP6 DUP3 DUP7 ADD PUSH2 0x7A2D JUMP JUMPDEST SWAP2 POP POP SWAP3 POP SWAP3 SWAP1 POP JUMP JUMPDEST PUSH1 0x0 PUSH1 0x20 DUP3 DUP5 SUB SLT ISZERO PUSH2 0x7A98 JUMPI PUSH2 0x7A97 PUSH2 0x79D6 JUMP JUMPDEST JUMPDEST PUSH1 0x0 PUSH2 0x7AA6 DUP5 DUP3 DUP6 ADD PUSH2 0x7A2D JUMP JUMPDEST SWAP2 POP POP SWAP3 SWAP2 POP POP JUMP JUMPDEST PUSH1 0x0 PUSH20 0xFFFFFFFFFFFFFFFFFFFFFFFFFFFFFFFFFFFFFFFF DUP3 AND SWAP1 POP SWAP2 SWAP1 POP JUMP JUMPDEST PUSH1 0x0 PUSH2 0x7ADA DUP3 PUSH2 0x7AAF JUMP JUMPDEST SWAP1 POP SWAP2 SWAP1 POP JUMP JUMPDEST PUSH2 0x7AEA DUP2 PUSH2 0x7ACF JUMP JUMPDEST DUP2 EQ PUSH2 0x7AF5 JUMPI PUSH1 0x0 DUP1 REVERT JUMPDEST POP JUMP JUMPDEST PUSH1 0x0 DUP2 CALLDATALOAD SWAP1 POP PUSH2 0x7B07 DUP2 PUSH2 0x7AE1 JUMP JUMPDEST SWAP3 SWAP2 POP POP JUMP JUMPDEST PUSH1 0x0 DUP1 REVERT JUMPDEST PUSH1 0x0 DUP1 REVERT JUMPDEST PUSH1 0x0 DUP1 REVERT JUMPDEST PUSH1 0x0 DUP1 DUP4 PUSH1 0x1F DUP5 ADD SLT PUSH2 0x7B32 JUMPI PUSH2 0x7B31 PUSH2 0x7B0D JUMP JUMPDEST JUMPDEST DUP3 CALLDATALOAD SWAP1 POP PUSH8 0xFFFFFFFFFFFFFFFF DUP2 GT ISZERO PUSH2 0x7B4F JUMPI PUSH2 0x7B4E PUSH2 0x7B12 JUMP JUMPDEST JUMPDEST PUSH1 0x20 DUP4 ADD SWAP2 POP DUP4 PUSH1 0x1 DUP3 MUL DUP4 ADD GT ISZERO PUSH2 0x7B6B JUMPI PUSH2 0x7B6A PUSH2 0x7B17 JUMP JUMPDEST JUMPDEST SWAP3 POP SWAP3 SWAP1 POP JUMP JUMPDEST PUSH1 0x0 DUP1 PUSH1 0x0 DUP1 PUSH1 0x0 PUSH1 0x80 DUP7 DUP9 SUB SLT ISZERO PUSH2 0x7B8E JUMPI PUSH2 0x7B8D PUSH2 0x79D6 JUMP JUMPDEST JUMPDEST PUSH1 0x0 PUSH2 0x7B9C DUP9 DUP3 DUP10 ADD PUSH2 0x7AF8 JUMP JUMPDEST SWAP6 POP POP PUSH1 0x20 PUSH2 0x7BAD DUP9 DUP3 DUP10 ADD PUSH2 0x7AF8 JUMP JUMPDEST SWAP5 POP POP PUSH1 0x40 PUSH2 0x7BBE DUP9 DUP3 DUP10 ADD PUSH2 0x7A01 JUMP JUMPDEST SWAP4 POP POP PUSH1 0x60 DUP7 ADD CALLDATALOAD PUSH8 0xFFFFFFFFFFFFFFFF DUP2 GT ISZERO PUSH2 0x7BDF JUMPI PUSH2 0x7BDE PUSH2 0x79DB JUMP JUMPDEST JUMPDEST PUSH2 0x7BEB DUP9 DUP3 DUP10 ADD PUSH2 0x7B1C JUMP JUMPDEST SWAP3 POP SWAP3 POP POP SWAP3 SWAP6 POP SWAP3 SWAP6 SWAP1 SWAP4 POP JUMP JUMPDEST PUSH1 0x0 PUSH32 0xFFFFFFFF00000000000000000000000000000000000000000000000000000000 DUP3 AND SWAP1 POP SWAP2 SWAP1 POP JUMP JUMPDEST PUSH2 0x7C2F DUP2 PUSH2 0x7BFA JUMP JUMPDEST DUP3 MSTORE POP POP JUMP JUMPDEST PUSH1 0x0 PUSH1 0x20 DUP3 ADD SWAP1 POP PUSH2 0x7C4A PUSH1 0x0 DUP4 ADD DUP5 PUSH2 0x7C26 JUMP JUMPDEST SWAP3 SWAP2 POP POP JUMP JUMPDEST PUSH2 0x7C59 DUP2 PUSH2 0x79E0 JUMP JUMPDEST DUP3 MSTORE POP POP JUMP JUMPDEST PUSH1 0x0 PUSH1 0x20 DUP3 ADD SWAP1 POP PUSH2 0x7C74 PUSH1 0x0 DUP4 ADD DUP5 PUSH2 0x7C50 JUMP JUMPDEST SWAP3 SWAP2 POP POP JUMP JUMPDEST PUSH1 0x0 PUSH1 0x20 DUP3 DUP5 SUB SLT ISZERO PUSH2 0x7C90 JUMPI PUSH2 0x7C8F PUSH2 0x79D6 JUMP JUMPDEST JUMPDEST PUSH1 0x0 PUSH2 0x7C9E DUP5 DUP3 DUP6 ADD PUSH2 0x7AF8 JUMP JUMPDEST SWAP2 POP POP SWAP3 SWAP2 POP POP JUMP JUMPDEST PUSH1 0x0 PUSH1 0x80 DUP3 ADD SWAP1 POP PUSH2 0x7CBC PUSH1 0x0 DUP4 ADD DUP8 PUSH2 0x7C50 JUMP JUMPDEST PUSH2 0x7CC9 PUSH1 0x20 DUP4 ADD DUP7 PUSH2 0x7C50 JUMP JUMPDEST PUSH2 0x7CD6 PUSH1 0x40 DUP4 ADD DUP6 PUSH2 0x7C50 JUMP JUMPDEST PUSH2 0x7CE3 PUSH1 0x60 DUP4 ADD DUP5 PUSH2 0x7C50 JUMP JUMPDEST SWAP6 SWAP5 POP POP POP POP POP JUMP JUMPDEST PUSH1 0x0 PUSH1 0x20 DUP3 DUP5 SUB SLT ISZERO PUSH2 0x7D02 JUMPI PUSH2 0x7D01 PUSH2 0x79D6 JUMP JUMPDEST JUMPDEST PUSH1 0x0 PUSH2 0x7D10 DUP5 DUP3 DUP6 ADD PUSH2 0x7A01 JUMP JUMPDEST SWAP2 POP POP SWAP3 SWAP2 POP POP JUMP JUMPDEST PUSH1 0x0 PUSH1 0x40 DUP3 ADD SWAP1 POP PUSH2 0x7D2E PUSH1 0x0 DUP4 ADD DUP6 PUSH2 0x7C50 JUMP JUMPDEST PUSH2 0x7D3B PUSH1 0x20 DUP4 ADD DUP5 PUSH2 0x7C50 JUMP JUMPDEST SWAP4 SWAP3 POP POP POP JUMP JUMPDEST PUSH1 0x0 DUP1 PUSH1 0x40 DUP4 DUP6 SUB SLT ISZERO PUSH2 0x7D59 JUMPI PUSH2 0x7D58 PUSH2 0x79D6 JUMP JUMPDEST JUMPDEST PUSH1 0x0 PUSH2 0x7D67 DUP6 DUP3 DUP7 ADD PUSH2 0x7AF8 JUMP JUMPDEST SWAP3 POP POP PUSH1 0x20 PUSH2 0x7D78 DUP6 DUP3 DUP7 ADD PUSH2 0x7A2D JUMP JUMPDEST SWAP2 POP POP SWAP3 POP SWAP3 SWAP1 POP JUMP JUMPDEST PUSH1 0x0 PUSH1 0x60 DUP3 ADD SWAP1 POP PUSH2 0x7D97 PUSH1 0x0 DUP4 ADD DUP7 PUSH2 0x7C50 JUMP JUMPDEST PUSH2 0x7DA4 PUSH1 0x20 DUP4 ADD DUP6 PUSH2 0x7C50 JUMP JUMPDEST PUSH2 0x7DB1 PUSH1 0x40 DUP4 ADD DUP5 PUSH2 0x7C50 JUMP JUMPDEST SWAP5 SWAP4 POP POP POP POP JUMP JUMPDEST PUSH1 0x0 DUP1 PUSH1 0x40 DUP4 DUP6 SUB SLT ISZERO PUSH2 0x7DD0 JUMPI PUSH2 0x7DCF PUSH2 0x79D6 JUMP JUMPDEST JUMPDEST PUSH1 0x0 PUSH2 0x7DDE DUP6 DUP3 DUP7 ADD PUSH2 0x7AF8 JUMP JUMPDEST SWAP3 POP POP PUSH1 0x20 PUSH2 0x7DEF DUP6 DUP3 DUP7 ADD PUSH2 0x7AF8 JUMP JUMPDEST SWAP2 POP POP SWAP3 POP SWAP3 SWAP1 POP JUMP JUMPDEST PUSH1 0x0 DUP1 REVERT JUMPDEST PUSH1 0x0 PUSH1 0x1F NOT PUSH1 0x1F DUP4 ADD AND SWAP1 POP SWAP2 SWAP1 POP JUMP JUMPDEST PUSH32 0x4E487B7100000000000000000000000000000000000000000000000000000000 PUSH1 0x0 MSTORE PUSH1 0x41 PUSH1 0x4 MSTORE PUSH1 0x24 PUSH1 0x0 REVERT JUMPDEST PUSH2 0x7E47 DUP3 PUSH2 0x7DFE JUMP JUMPDEST DUP2 ADD DUP2 DUP2 LT PUSH8 0xFFFFFFFFFFFFFFFF DUP3 GT OR ISZERO PUSH2 0x7E66 JUMPI PUSH2 0x7E65 PUSH2 0x7E0F JUMP JUMPDEST JUMPDEST DUP1 PUSH1 0x40 MSTORE POP POP POP JUMP JUMPDEST PUSH1 0x0 PUSH2 0x7E79 PUSH2 0x79CC JUMP JUMPDEST SWAP1 POP PUSH2 0x7E85 DUP3 DUP3 PUSH2 0x7E3E JUMP JUMPDEST SWAP2 SWAP1 POP JUMP JUMPDEST PUSH1 0x0 PUSH8 0xFFFFFFFFFFFFFFFF DUP3 GT ISZERO PUSH2 0x7EA5 JUMPI PUSH2 0x7EA4 PUSH2 0x7E0F JUMP JUMPDEST JUMPDEST PUSH2 0x7EAE DUP3 PUSH2 0x7DFE JUMP JUMPDEST SWAP1 POP PUSH1 0x20 DUP2 ADD SWAP1 POP SWAP2 SWAP1 POP JUMP JUMPDEST DUP3 DUP2 DUP4 CALLDATACOPY PUSH1 0x0 DUP4 DUP4 ADD MSTORE POP POP POP JUMP JUMPDEST PUSH1 0x0 PUSH2 0x7EDD PUSH2 0x7ED8 DUP5 PUSH2 0x7E8A JUMP JUMPDEST PUSH2 0x7E6F JUMP JUMPDEST SWAP1 POP DUP3 DUP2 MSTORE PUSH1 0x20 DUP2 ADD DUP5 DUP5 DUP5 ADD GT ISZERO PUSH2 0x7EF9 JUMPI PUSH2 0x7EF8 PUSH2 0x7DF9 JUMP JUMPDEST JUMPDEST PUSH2 0x7F04 DUP5 DUP3 DUP6 PUSH2 0x7EBB JUMP JUMPDEST POP SWAP4 SWAP3 POP POP POP JUMP JUMPDEST PUSH1 0x0 DUP3 PUSH1 0x1F DUP4 ADD SLT PUSH2 0x7F21 JUMPI PUSH2 0x7F20 PUSH2 0x7B0D JUMP JUMPDEST JUMPDEST DUP2 CALLDATALOAD PUSH2 0x7F31 DUP5 DUP3 PUSH1 0x20 DUP7 ADD PUSH2 0x7ECA JUMP JUMPDEST SWAP2 POP POP SWAP3 SWAP2 POP POP JUMP JUMPDEST PUSH1 0x0 DUP1 PUSH1 0x40 DUP4 DUP6 SUB SLT ISZERO PUSH2 0x7F51 JUMPI PUSH2 0x7F50 PUSH2 0x79D6 JUMP JUMPDEST JUMPDEST PUSH1 0x0 PUSH2 0x7F5F DUP6 DUP3 DUP7 ADD PUSH2 0x7AF8 JUMP JUMPDEST SWAP3 POP POP PUSH1 0x20 DUP4 ADD CALLDATALOAD PUSH8 0xFFFFFFFFFFFFFFFF DUP2 GT ISZERO PUSH2 0x7F80 JUMPI PUSH2 0x7F7F PUSH2 0x79DB JUMP JUMPDEST JUMPDEST PUSH2 0x7F8C DUP6 DUP3 DUP7 ADD PUSH2 0x7F0C JUMP JUMPDEST SWAP2 POP POP SWAP3 POP SWAP3 SWAP1 POP JUMP JUMPDEST PUSH1 0x0 PUSH3 0xFFFFFF DUP3 AND SWAP1 POP SWAP2 SWAP1 POP JUMP JUMPDEST PUSH2 0x7FAE DUP2 PUSH2 0x7F96 JUMP JUMPDEST DUP2 EQ PUSH2 0x7FB9 JUMPI PUSH1 0x0 DUP1 REVERT JUMPDEST POP JUMP JUMPDEST PUSH1 0x0 DUP2 CALLDATALOAD SWAP1 POP PUSH2 0x7FCB DUP2 PUSH2 0x7FA5 JUMP JUMPDEST SWAP3 SWAP2 POP POP JUMP JUMPDEST PUSH1 0x0 PUSH1 0x20 DUP3 DUP5 SUB SLT ISZERO PUSH2 0x7FE7 JUMPI PUSH2 0x7FE6 PUSH2 0x79D6 JUMP JUMPDEST JUMPDEST PUSH1 0x0 PUSH2 0x7FF5 DUP5 DUP3 DUP6 ADD PUSH2 0x7FBC JUMP JUMPDEST SWAP2 POP POP SWAP3 SWAP2 POP POP JUMP JUMPDEST PUSH1 0x0 DUP2 SWAP1 POP SWAP2 SWAP1 POP JUMP JUMPDEST PUSH2 0x8011 DUP2 PUSH2 0x7FFE JUMP JUMPDEST DUP3 MSTORE POP POP JUMP JUMPDEST PUSH1 0x0 PUSH1 0x20 DUP3 ADD SWAP1 POP PUSH2 0x802C PUSH1 0x0 DUP4 ADD DUP5 PUSH2 0x8008 JUMP JUMPDEST SWAP3 SWAP2 POP POP JUMP JUMPDEST PUSH2 0x803B DUP2 PUSH2 0x7ACF JUMP JUMPDEST DUP3 MSTORE POP POP JUMP JUMPDEST PUSH1 0x0 PUSH1 0x20 DUP3 ADD SWAP1 POP PUSH2 0x8056 PUSH1 0x0 DUP4 ADD DUP5 PUSH2 0x8032 JUMP JUMPDEST SWAP3 SWAP2 POP POP JUMP JUMPDEST PUSH1 0x0 DUP2 ISZERO ISZERO SWAP1 POP SWAP2 SWAP1 POP JUMP JUMPDEST PUSH2 0x8071 DUP2 PUSH2 0x805C JUMP JUMPDEST DUP3 MSTORE POP POP JUMP JUMPDEST PUSH1 0x0 PUSH1 0x20 DUP3 ADD SWAP1 POP PUSH2 0x808C PUSH1 0x0 DUP4 ADD DUP5 PUSH2 0x8068 JUMP JUMPDEST SWAP3 SWAP2 POP POP JUMP JUMPDEST PUSH1 0x0 DUP2 MLOAD SWAP1 POP SWAP2 SWAP1 POP JUMP JUMPDEST PUSH1 0x0 DUP3 DUP3 MSTORE PUSH1 0x20 DUP3 ADD SWAP1 POP SWAP3 SWAP2 POP POP JUMP JUMPDEST PUSH1 0x0 DUP2 SWAP1 POP PUSH1 0x20 DUP3 ADD SWAP1 POP SWAP2 SWAP1 POP JUMP JUMPDEST PUSH2 0x80C7 DUP2 PUSH2 0x79E0 JUMP JUMPDEST DUP3 MSTORE POP POP JUMP JUMPDEST PUSH1 0x0 PUSH2 0x80D9 DUP4 DUP4 PUSH2 0x80BE JUMP JUMPDEST PUSH1 0x20 DUP4 ADD SWAP1 POP SWAP3 SWAP2 POP POP JUMP JUMPDEST PUSH1 0x0 PUSH1 0x20 DUP3 ADD SWAP1 POP SWAP2 SWAP1 POP JUMP JUMPDEST PUSH1 0x0 PUSH2 0x80FD DUP3 PUSH2 0x8092 JUMP JUMPDEST PUSH2 0x8107 DUP2 DUP6 PUSH2 0x809D JUMP JUMPDEST SWAP4 POP PUSH2 0x8112 DUP4 PUSH2 0x80AE JUMP JUMPDEST DUP1 PUSH1 0x0 JUMPDEST DUP4 DUP2 LT ISZERO PUSH2 0x8143 JUMPI DUP2 MLOAD PUSH2 0x812A DUP9 DUP3 PUSH2 0x80CD JUMP JUMPDEST SWAP8 POP PUSH2 0x8135 DUP4 PUSH2 0x80E5 JUMP JUMPDEST SWAP3 POP POP PUSH1 0x1 DUP2 ADD SWAP1 POP PUSH2 0x8116 JUMP JUMPDEST POP DUP6 SWAP4 POP POP POP POP SWAP3 SWAP2 POP POP JUMP JUMPDEST PUSH1 0x0 PUSH1 0x80 DUP3 ADD SWAP1 POP PUSH2 0x8165 PUSH1 0x0 DUP4 ADD DUP8 PUSH2 0x7C50 JUMP JUMPDEST DUP2 DUP2 SUB PUSH1 0x20 DUP4 ADD MSTORE PUSH2 0x8177 DUP2 DUP7 PUSH2 0x80F2 JUMP JUMPDEST SWAP1 POP PUSH2 0x8186 PUSH1 0x40 DUP4 ADD DUP6 PUSH2 0x7C50 JUMP JUMPDEST PUSH2 0x8193 PUSH1 0x60 DUP4 ADD DUP5 PUSH2 0x7C50 JUMP JUMPDEST SWAP6 SWAP5 POP POP POP POP POP JUMP JUMPDEST PUSH1 0x0 PUSH4 0xFFFFFFFF DUP3 AND SWAP1 POP SWAP2 SWAP1 POP JUMP JUMPDEST PUSH2 0x81B5 DUP2 PUSH2 0x819C JUMP JUMPDEST DUP2 EQ PUSH2 0x81C0 JUMPI PUSH1 0x0 DUP1 REVERT JUMPDEST POP JUMP JUMPDEST PUSH1 0x0 DUP2 CALLDATALOAD SWAP1 POP PUSH2 0x81D2 DUP2 PUSH2 0x81AC JUMP JUMPDEST SWAP3 SWAP2 POP POP JUMP JUMPDEST PUSH1 0x0 DUP1 PUSH1 0x0 DUP1 PUSH1 0x80 DUP6 DUP8 SUB SLT ISZERO PUSH2 0x81F2 JUMPI PUSH2 0x81F1 PUSH2 0x79D6 JUMP JUMPDEST JUMPDEST PUSH1 0x0 PUSH2 0x8200 DUP8 DUP3 DUP9 ADD PUSH2 0x7A2D JUMP JUMPDEST SWAP5 POP POP PUSH1 0x20 PUSH2 0x8211 DUP8 DUP3 DUP9 ADD PUSH2 0x81C3 JUMP JUMPDEST SWAP4 POP POP PUSH1 0x40 PUSH2 0x8222 DUP8 DUP3 DUP9 ADD PUSH2 0x7A01 JUMP JUMPDEST SWAP3 POP POP PUSH1 0x60 PUSH2 0x8233 DUP8 DUP3 DUP9 ADD PUSH2 0x7A2D JUMP JUMPDEST SWAP2 POP POP SWAP3 SWAP6 SWAP2 SWAP5 POP SWAP3 POP JUMP JUMPDEST PUSH1 0x0 PUSH8 0xFFFFFFFFFFFFFFFF DUP3 GT ISZERO PUSH2 0x825A JUMPI PUSH2 0x8259 PUSH2 0x7E0F JUMP JUMPDEST JUMPDEST PUSH1 0x20 DUP3 MUL SWAP1 POP PUSH1 0x20 DUP2 ADD SWAP1 POP SWAP2 SWAP1 POP JUMP JUMPDEST PUSH1 0x0 PUSH2 0x827E PUSH2 0x8279 DUP5 PUSH2 0x823F JUMP JUMPDEST PUSH2 0x7E6F JUMP JUMPDEST SWAP1 POP DUP1 DUP4 DUP3 MSTORE PUSH1 0x20 DUP3 ADD SWAP1 POP PUSH1 0x20 DUP5 MUL DUP4 ADD DUP6 DUP2 GT ISZERO PUSH2 0x82A1 JUMPI PUSH2 0x82A0 PUSH2 0x7B17 JUMP JUMPDEST JUMPDEST DUP4 JUMPDEST DUP2 DUP2 LT ISZERO PUSH2 0x82CA JUMPI DUP1 PUSH2 0x82B6 DUP9 DUP3 PUSH2 0x7A01 JUMP JUMPDEST DUP5 MSTORE PUSH1 0x20 DUP5 ADD SWAP4 POP POP PUSH1 0x20 DUP2 ADD SWAP1 POP PUSH2 0x82A3 JUMP JUMPDEST POP POP POP SWAP4 SWAP3 POP POP POP JUMP JUMPDEST PUSH1 0x0 DUP3 PUSH1 0x1F DUP4 ADD SLT PUSH2 0x82E9 JUMPI PUSH2 0x82E8 PUSH2 0x7B0D JUMP JUMPDEST JUMPDEST DUP2 CALLDATALOAD PUSH2 0x82F9 DUP5 DUP3 PUSH1 0x20 DUP7 ADD PUSH2 0x826B JUMP JUMPDEST SWAP2 POP POP SWAP3 SWAP2 POP POP JUMP JUMPDEST PUSH1 0x0 DUP1 PUSH1 0x40 DUP4 DUP6 SUB SLT ISZERO PUSH2 0x8319 JUMPI PUSH2 0x8318 PUSH2 0x79D6 JUMP JUMPDEST JUMPDEST PUSH1 0x0 PUSH2 0x8327 DUP6 DUP3 DUP7 ADD PUSH2 0x7A2D JUMP JUMPDEST SWAP3 POP POP PUSH1 0x20 DUP4 ADD CALLDATALOAD PUSH8 0xFFFFFFFFFFFFFFFF DUP2 GT ISZERO PUSH2 0x8348 JUMPI PUSH2 0x8347 PUSH2 0x79DB JUMP JUMPDEST JUMPDEST PUSH2 0x8354 DUP6 DUP3 DUP7 ADD PUSH2 0x82D4 JUMP JUMPDEST SWAP2 POP POP SWAP3 POP SWAP3 SWAP1 POP JUMP JUMPDEST PUSH1 0x0 DUP1 PUSH1 0x40 DUP4 DUP6 SUB SLT ISZERO PUSH2 0x8375 JUMPI PUSH2 0x8374 PUSH2 0x79D6 JUMP JUMPDEST JUMPDEST PUSH1 0x0 DUP4 ADD CALLDATALOAD PUSH8 0xFFFFFFFFFFFFFFFF DUP2 GT ISZERO PUSH2 0x8393 JUMPI PUSH2 0x8392 PUSH2 0x79DB JUMP JUMPDEST JUMPDEST PUSH2 0x839F DUP6 DUP3 DUP7 ADD PUSH2 0x82D4 JUMP JUMPDEST SWAP3 POP POP PUSH1 0x20 PUSH2 0x83B0 DUP6 DUP3 DUP7 ADD PUSH2 0x7A2D JUMP JUMPDEST SWAP2 POP POP SWAP3 POP SWAP3 SWAP1 POP JUMP JUMPDEST PUSH2 0x83C3 DUP2 PUSH2 0x819C JUMP JUMPDEST DUP3 MSTORE POP POP JUMP JUMPDEST PUSH1 0x0 PUSH1 0x80 DUP3 ADD SWAP1 POP PUSH2 0x83DE PUSH1 0x0 DUP4 ADD DUP8 PUSH2 0x83BA JUMP JUMPDEST PUSH2 0x83EB PUSH1 0x20 DUP4 ADD DUP7 PUSH2 0x7C50 JUMP JUMPDEST PUSH2 0x83F8 PUSH1 0x40 DUP4 ADD DUP6 PUSH2 0x79A2 JUMP JUMPDEST PUSH2 0x8405 PUSH1 0x60 DUP4 ADD DUP5 PUSH2 0x7C50 JUMP JUMPDEST SWAP6 SWAP5 POP POP POP POP POP JUMP JUMPDEST PUSH2 0x8417 DUP2 PUSH2 0x7F96 JUMP JUMPDEST DUP3 MSTORE POP POP JUMP JUMPDEST PUSH1 0x0 PUSH1 0x20 DUP3 ADD SWAP1 POP PUSH2 0x8432 PUSH1 0x0 DUP4 ADD DUP5 PUSH2 0x840E JUMP JUMPDEST SWAP3 SWAP2 POP POP JUMP JUMPDEST PUSH1 0x0 DUP1 PUSH1 0x40 DUP4 DUP6 SUB SLT ISZERO PUSH2 0x844F JUMPI PUSH2 0x844E PUSH2 0x79D6 JUMP JUMPDEST JUMPDEST PUSH1 0x0 PUSH2 0x845D DUP6 DUP3 DUP7 ADD PUSH2 0x7A2D JUMP JUMPDEST SWAP3 POP POP PUSH1 0x20 PUSH2 0x846E DUP6 DUP3 DUP7 ADD PUSH2 0x7A2D JUMP JUMPDEST SWAP2 POP POP SWAP3 POP SWAP3 SWAP1 POP JUMP JUMPDEST PUSH1 0x0 DUP2 MLOAD SWAP1 POP SWAP2 SWAP1 POP JUMP JUMPDEST PUSH1 0x0 DUP3 DUP3 MSTORE PUSH1 0x20 DUP3 ADD SWAP1 POP SWAP3 SWAP2 POP POP JUMP JUMPDEST PUSH1 0x0 DUP2 SWAP1 POP PUSH1 0x20 DUP3 ADD SWAP1 POP SWAP2 SWAP1 POP JUMP JUMPDEST PUSH1 0x60 DUP3 ADD PUSH1 0x0 DUP3 ADD MLOAD PUSH2 0x84BA PUSH1 0x0 DUP6 ADD DUP3 PUSH2 0x80BE JUMP JUMPDEST POP PUSH1 0x20 DUP3 ADD MLOAD PUSH2 0x84CD PUSH1 0x20 DUP6 ADD DUP3 PUSH2 0x80BE JUMP JUMPDEST POP PUSH1 0x40 DUP3 ADD MLOAD PUSH2 0x84E0 PUSH1 0x40 DUP6 ADD DUP3 PUSH2 0x80BE JUMP JUMPDEST POP POP POP POP JUMP JUMPDEST PUSH1 0x0 PUSH2 0x84F2 DUP4 DUP4 PUSH2 0x84A4 JUMP JUMPDEST PUSH1 0x60 DUP4 ADD SWAP1 POP SWAP3 SWAP2 POP POP JUMP JUMPDEST PUSH1 0x0 PUSH1 0x20 DUP3 ADD SWAP1 POP SWAP2 SWAP1 POP JUMP JUMPDEST PUSH1 0x0 PUSH2 0x8516 DUP3 PUSH2 0x8478 JUMP JUMPDEST PUSH2 0x8520 DUP2 DUP6 PUSH2 0x8483 JUMP JUMPDEST SWAP4 POP PUSH2 0x852B DUP4 PUSH2 0x8494 JUMP JUMPDEST DUP1 PUSH1 0x0 JUMPDEST DUP4 DUP2 LT ISZERO PUSH2 0x855C JUMPI DUP2 MLOAD PUSH2 0x8543 DUP9 DUP3 PUSH2 0x84E6 JUMP JUMPDEST SWAP8 POP PUSH2 0x854E DUP4 PUSH2 0x84FE JUMP JUMPDEST SWAP3 POP POP PUSH1 0x1 DUP2 ADD SWAP1 POP PUSH2 0x852F JUMP JUMPDEST POP DUP6 SWAP4 POP POP POP POP SWAP3 SWAP2 POP POP JUMP JUMPDEST PUSH1 0x0 PUSH1 0x20 DUP3 ADD SWAP1 POP DUP2 DUP2 SUB PUSH1 0x0 DUP4 ADD MSTORE PUSH2 0x8583 DUP2 DUP5 PUSH2 0x850B JUMP JUMPDEST SWAP1 POP SWAP3 SWAP2 POP POP JUMP JUMPDEST PUSH1 0x0 DUP2 MLOAD SWAP1 POP SWAP2 SWAP1 POP JUMP JUMPDEST PUSH1 0x0 DUP3 DUP3 MSTORE PUSH1 0x20 DUP3 ADD SWAP1 POP SWAP3 SWAP2 POP POP JUMP JUMPDEST PUSH1 0x0 DUP2 SWAP1 POP PUSH1 0x20 DUP3 ADD SWAP1 POP SWAP2 SWAP1 POP JUMP JUMPDEST PUSH1 0x0 DUP3 DUP3 MSTORE PUSH1 0x20 DUP3 ADD SWAP1 POP SWAP3 SWAP2 POP POP JUMP JUMPDEST PUSH1 0x0 PUSH2 0x85D3 DUP3 PUSH2 0x8092 JUMP JUMPDEST PUSH2 0x85DD DUP2 DUP6 PUSH2 0x85B7 JUMP JUMPDEST SWAP4 POP PUSH2 0x85E8 DUP4 PUSH2 0x80AE JUMP JUMPDEST DUP1 PUSH1 0x0 JUMPDEST DUP4 DUP2 LT ISZERO PUSH2 0x8619 JUMPI DUP2 MLOAD PUSH2 0x8600 DUP9 DUP3 PUSH2 0x80CD JUMP JUMPDEST SWAP8 POP PUSH2 0x860B DUP4 PUSH2 0x80E5 JUMP JUMPDEST SWAP3 POP POP PUSH1 0x1 DUP2 ADD SWAP1 POP PUSH2 0x85EC JUMP JUMPDEST POP DUP6 SWAP4 POP POP POP POP SWAP3 SWAP2 POP POP JUMP JUMPDEST PUSH1 0x0 PUSH1 0x80 DUP4 ADD PUSH1 0x0 DUP4 ADD MLOAD PUSH2 0x863E PUSH1 0x0 DUP7 ADD DUP3 PUSH2 0x80BE JUMP JUMPDEST POP PUSH1 0x20 DUP4 ADD MLOAD DUP5 DUP3 SUB PUSH1 0x20 DUP7 ADD MSTORE PUSH2 0x8656 DUP3 DUP3 PUSH2 0x85C8 JUMP JUMPDEST SWAP2 POP POP PUSH1 0x40 DUP4 ADD MLOAD PUSH2 0x866B PUSH1 0x40 DUP7 ADD DUP3 PUSH2 0x80BE JUMP JUMPDEST POP PUSH1 0x60 DUP4 ADD MLOAD PUSH2 0x867E PUSH1 0x60 DUP7 ADD DUP3 PUSH2 0x80BE JUMP JUMPDEST POP DUP1 SWAP2 POP POP SWAP3 SWAP2 POP POP JUMP JUMPDEST PUSH1 0x0 PUSH2 0x8695 DUP4 DUP4 PUSH2 0x8626 JUMP JUMPDEST SWAP1 POP SWAP3 SWAP2 POP POP JUMP JUMPDEST PUSH1 0x0 PUSH1 0x20 DUP3 ADD SWAP1 POP SWAP2 SWAP1 POP JUMP JUMPDEST PUSH1 0x0 PUSH2 0x86B5 DUP3 PUSH2 0x858B JUMP JUMPDEST PUSH2 0x86BF DUP2 DUP6 PUSH2 0x8596 JUMP JUMPDEST SWAP4 POP DUP4 PUSH1 0x20 DUP3 MUL DUP6 ADD PUSH2 0x86D1 DUP6 PUSH2 0x85A7 JUMP JUMPDEST DUP1 PUSH1 0x0 JUMPDEST DUP6 DUP2 LT ISZERO PUSH2 0x870D JUMPI DUP5 DUP5 SUB DUP10 MSTORE DUP2 MLOAD PUSH2 0x86EE DUP6 DUP3 PUSH2 0x8689 JUMP JUMPDEST SWAP5 POP PUSH2 0x86F9 DUP4 PUSH2 0x869D JUMP JUMPDEST SWAP3 POP PUSH1 0x20 DUP11 ADD SWAP10 POP POP PUSH1 0x1 DUP2 ADD SWAP1 POP PUSH2 0x86D5 JUMP JUMPDEST POP DUP3 SWAP8 POP DUP8 SWAP6 POP POP POP POP POP POP SWAP3 SWAP2 POP POP JUMP JUMPDEST PUSH1 0x0 PUSH1 0x20 DUP3 ADD SWAP1 POP DUP2 DUP2 SUB PUSH1 0x0 DUP4 ADD MSTORE PUSH2 0x8739 DUP2 DUP5 PUSH2 0x86AA JUMP JUMPDEST SWAP1 POP SWAP3 SWAP2 POP POP JUMP JUMPDEST PUSH1 0x0 PUSH8 0xFFFFFFFFFFFFFFFF DUP3 GT ISZERO PUSH2 0x875C JUMPI PUSH2 0x875B PUSH2 0x7E0F JUMP JUMPDEST JUMPDEST PUSH1 0x20 DUP3 MUL SWAP1 POP PUSH1 0x20 DUP2 ADD SWAP1 POP SWAP2 SWAP1 POP JUMP JUMPDEST PUSH1 0x0 PUSH2 0x8780 PUSH2 0x877B DUP5 PUSH2 0x8741 JUMP JUMPDEST PUSH2 0x7E6F JUMP JUMPDEST SWAP1 POP DUP1 DUP4 DUP3 MSTORE PUSH1 0x20 DUP3 ADD SWAP1 POP PUSH1 0x20 DUP5 MUL DUP4 ADD DUP6 DUP2 GT ISZERO PUSH2 0x87A3 JUMPI PUSH2 0x87A2 PUSH2 0x7B17 JUMP JUMPDEST JUMPDEST DUP4 JUMPDEST DUP2 DUP2 LT ISZERO PUSH2 0x87CC JUMPI DUP1 PUSH2 0x87B8 DUP9 DUP3 PUSH2 0x7A2D JUMP JUMPDEST DUP5 MSTORE PUSH1 0x20 DUP5 ADD SWAP4 POP POP PUSH1 0x20 DUP2 ADD SWAP1 POP PUSH2 0x87A5 JUMP JUMPDEST POP POP POP SWAP4 SWAP3 POP POP POP JUMP JUMPDEST PUSH1 0x0 DUP3 PUSH1 0x1F DUP4 ADD SLT PUSH2 0x87EB JUMPI PUSH2 0x87EA PUSH2 0x7B0D JUMP JUMPDEST JUMPDEST DUP2 CALLDATALOAD PUSH2 0x87FB DUP5 DUP3 PUSH1 0x20 DUP7 ADD PUSH2 0x876D JUMP JUMPDEST SWAP2 POP POP SWAP3 SWAP2 POP POP JUMP JUMPDEST PUSH1 0x0 PUSH1 0x20 DUP3 DUP5 SUB SLT ISZERO PUSH2 0x881A JUMPI PUSH2 0x8819 PUSH2 0x79D6 JUMP JUMPDEST JUMPDEST PUSH1 0x0 DUP3 ADD CALLDATALOAD PUSH8 0xFFFFFFFFFFFFFFFF DUP2 GT ISZERO PUSH2 0x8838 JUMPI PUSH2 0x8837 PUSH2 0x79DB JUMP JUMPDEST JUMPDEST PUSH2 0x8844 DUP5 DUP3 DUP6 ADD PUSH2 0x87D6 JUMP JUMPDEST SWAP2 POP POP SWAP3 SWAP2 POP POP JUMP JUMPDEST PUSH1 0x0 DUP2 MLOAD SWAP1 POP SWAP2 SWAP1 POP JUMP JUMPDEST PUSH1 0x0 DUP3 DUP3 MSTORE PUSH1 0x20 DUP3 ADD SWAP1 POP SWAP3 SWAP2 POP POP JUMP JUMPDEST PUSH1 0x0 DUP2 SWAP1 POP PUSH1 0x20 DUP3 ADD SWAP1 POP SWAP2 SWAP1 POP JUMP JUMPDEST PUSH2 0x8882 DUP2 PUSH2 0x7995 JUMP JUMPDEST DUP3 MSTORE POP POP JUMP JUMPDEST PUSH1 0x0 PUSH2 0x8894 DUP4 DUP4 PUSH2 0x8879 JUMP JUMPDEST PUSH1 0x20 DUP4 ADD SWAP1 POP SWAP3 SWAP2 POP POP JUMP JUMPDEST PUSH1 0x0 PUSH1 0x20 DUP3 ADD SWAP1 POP SWAP2 SWAP1 POP JUMP JUMPDEST PUSH1 0x0 PUSH2 0x88B8 DUP3 PUSH2 0x884D JUMP JUMPDEST PUSH2 0x88C2 DUP2 DUP6 PUSH2 0x8858 JUMP JUMPDEST SWAP4 POP PUSH2 0x88CD DUP4 PUSH2 0x8869 JUMP JUMPDEST DUP1 PUSH1 0x0 JUMPDEST DUP4 DUP2 LT ISZERO PUSH2 0x88FE JUMPI DUP2 MLOAD PUSH2 0x88E5 DUP9 DUP3 PUSH2 0x8888 JUMP JUMPDEST SWAP8 POP PUSH2 0x88F0 DUP4 PUSH2 0x88A0 JUMP JUMPDEST SWAP3 POP POP PUSH1 0x1 DUP2 ADD SWAP1 POP PUSH2 0x88D1 JUMP JUMPDEST POP DUP6 SWAP4 POP POP POP POP SWAP3 SWAP2 POP POP JUMP JUMPDEST PUSH1 0x0 PUSH1 0x20 DUP3 ADD SWAP1 POP DUP2 DUP2 SUB PUSH1 0x0 DUP4 ADD MSTORE PUSH2 0x8925 DUP2 DUP5 PUSH2 0x88AD JUMP JUMPDEST SWAP1 POP SWAP3 SWAP2 POP POP JUMP JUMPDEST PUSH1 0x0 DUP1 PUSH1 0x40 DUP4 DUP6 SUB SLT ISZERO PUSH2 0x8944 JUMPI PUSH2 0x8943 PUSH2 0x79D6 JUMP JUMPDEST JUMPDEST PUSH1 0x0 PUSH2 0x8952 DUP6 DUP3 DUP7 ADD PUSH2 0x7AF8 JUMP JUMPDEST SWAP3 POP POP PUSH1 0x20 PUSH2 0x8963 DUP6 DUP3 DUP7 ADD PUSH2 0x7A01 JUMP JUMPDEST SWAP2 POP POP SWAP3 POP SWAP3 SWAP1 POP JUMP JUMPDEST PUSH1 0x0 DUP2 MLOAD SWAP1 POP PUSH2 0x897C DUP2 PUSH2 0x79EA JUMP JUMPDEST SWAP3 SWAP2 POP POP JUMP JUMPDEST PUSH1 0x0 PUSH1 0x20 DUP3 DUP5 SUB SLT ISZERO PUSH2 0x8998 JUMPI PUSH2 0x8997 PUSH2 0x79D6 JUMP JUMPDEST JUMPDEST PUSH1 0x0 PUSH2 0x89A6 DUP5 DUP3 DUP6 ADD PUSH2 0x896D JUMP JUMPDEST SWAP2 POP POP SWAP3 SWAP2 POP POP JUMP JUMPDEST PUSH1 0x0 PUSH1 0x40 DUP3 ADD SWAP1 POP PUSH2 0x89C4 PUSH1 0x0 DUP4 ADD DUP6 PUSH2 0x8032 JUMP JUMPDEST PUSH2 0x89D1 PUSH1 0x20 DUP4 ADD DUP5 PUSH2 0x8032 JUMP JUMPDEST SWAP4 SWAP3 POP POP POP JUMP JUMPDEST PUSH32 0x4E487B7100000000000000000000000000000000000000000000000000000000 PUSH1 0x0 MSTORE PUSH1 0x11 PUSH1 0x4 MSTORE PUSH1 0x24 PUSH1 0x0 REVERT JUMPDEST PUSH1 0x0 PUSH2 0x8A12 DUP3 PUSH2 0x79E0 JUMP JUMPDEST SWAP2 POP PUSH2 0x8A1D DUP4 PUSH2 0x79E0 JUMP JUMPDEST SWAP3 POP DUP3 DUP3 SUB SWAP1 POP DUP2 DUP2 GT ISZERO PUSH2 0x8A35 JUMPI PUSH2 0x8A34 PUSH2 0x89D8 JUMP JUMPDEST JUMPDEST SWAP3 SWAP2 POP POP JUMP JUMPDEST PUSH32 0x4E487B7100000000000000000000000000000000000000000000000000000000 PUSH1 0x0 MSTORE PUSH1 0x32 PUSH1 0x4 MSTORE PUSH1 0x24 PUSH1 0x0 REVERT JUMPDEST PUSH1 0x0 PUSH2 0x8A75 DUP3 PUSH2 0x79E0 JUMP JUMPDEST SWAP2 POP PUSH2 0x8A80 DUP4 PUSH2 0x79E0 JUMP JUMPDEST SWAP3 POP DUP3 DUP3 ADD SWAP1 POP DUP1 DUP3 GT ISZERO PUSH2 0x8A98 JUMPI PUSH2 0x8A97 PUSH2 0x89D8 JUMP JUMPDEST JUMPDEST SWAP3 SWAP2 POP POP JUMP JUMPDEST PUSH1 0x0 PUSH1 0x60 DUP3 ADD SWAP1 POP PUSH2 0x8AB3 PUSH1 0x0 DUP4 ADD DUP7 PUSH2 0x8032 JUMP JUMPDEST PUSH2 0x8AC0 PUSH1 0x20 DUP4 ADD DUP6 PUSH2 0x8032 JUMP JUMPDEST PUSH2 0x8ACD PUSH1 0x40 DUP4 ADD DUP5 PUSH2 0x7C50 JUMP JUMPDEST SWAP5 SWAP4 POP POP POP POP JUMP JUMPDEST PUSH2 0x8ADE DUP2 PUSH2 0x805C JUMP JUMPDEST DUP2 EQ PUSH2 0x8AE9 JUMPI PUSH1 0x0 DUP1 REVERT JUMPDEST POP JUMP JUMPDEST PUSH1 0x0 DUP2 MLOAD SWAP1 POP PUSH2 0x8AFB DUP2 PUSH2 0x8AD5 JUMP JUMPDEST SWAP3 SWAP2 POP POP JUMP JUMPDEST PUSH1 0x0 PUSH1 0x20 DUP3 DUP5 SUB SLT ISZERO PUSH2 0x8B17 JUMPI PUSH2 0x8B16 PUSH2 0x79D6 JUMP JUMPDEST JUMPDEST PUSH1 0x0 PUSH2 0x8B25 DUP5 DUP3 DUP6 ADD PUSH2 0x8AEC JUMP JUMPDEST SWAP2 POP POP SWAP3 SWAP2 POP POP JUMP JUMPDEST PUSH1 0x0 PUSH1 0x40 DUP3 ADD SWAP1 POP PUSH2 0x8B43 PUSH1 0x0 DUP4 ADD DUP6 PUSH2 0x7C50 JUMP JUMPDEST PUSH2 0x8B50 PUSH1 0x20 DUP4 ADD DUP5 PUSH2 0x79A2 JUMP JUMPDEST SWAP4 SWAP3 POP POP POP JUMP JUMPDEST PUSH32 0x4E487B7100000000000000000000000000000000000000000000000000000000 PUSH1 0x0 MSTORE PUSH1 0x12 PUSH1 0x4 MSTORE PUSH1 0x24 PUSH1 0x0 REVERT JUMPDEST PUSH1 0x0 PUSH2 0x8B91 DUP3 PUSH2 0x79E0 JUMP JUMPDEST SWAP2 POP PUSH2 0x8B9C DUP4 PUSH2 0x79E0 JUMP JUMPDEST SWAP3 POP DUP3 PUSH2 0x8BAC JUMPI PUSH2 0x8BAB PUSH2 0x8B57 JUMP JUMPDEST JUMPDEST DUP3 DUP3 DIV SWAP1 POP SWAP3 SWAP2 POP POP JUMP JUMPDEST PUSH1 0x0 PUSH2 0x8BC2 DUP3 PUSH2 0x79E0 JUMP JUMPDEST SWAP2 POP PUSH32 0xFFFFFFFFFFFFFFFFFFFFFFFFFFFFFFFFFFFFFFFFFFFFFFFFFFFFFFFFFFFFFFFF DUP3 SUB PUSH2 0x8BF4 JUMPI PUSH2 0x8BF3 PUSH2 0x89D8 JUMP JUMPDEST JUMPDEST PUSH1 0x1 DUP3 ADD SWAP1 POP SWAP2 SWAP1 POP JUMP JUMPDEST PUSH1 0x0 PUSH2 0x8C0A DUP3 PUSH2 0x79E0 JUMP JUMPDEST SWAP2 POP PUSH2 0x8C15 DUP4 PUSH2 0x79E0 JUMP JUMPDEST SWAP3 POP DUP3 DUP3 MUL PUSH2 0x8C23 DUP2 PUSH2 0x79E0 JUMP JUMPDEST SWAP2 POP DUP3 DUP3 DIV DUP5 EQ DUP4 ISZERO OR PUSH2 0x8C3A JUMPI PUSH2 0x8C39 PUSH2 0x89D8 JUMP JUMPDEST JUMPDEST POP SWAP3 SWAP2 POP POP JUMP JUMPDEST PUSH1 0x0 DUP3 DUP3 MSTORE PUSH1 0x20 DUP3 ADD SWAP1 POP SWAP3 SWAP2 POP POP JUMP JUMPDEST PUSH32 0x46756E6374696F6E206D7573742062652063616C6C6564207468726F75676820 PUSH1 0x0 DUP3 ADD MSTORE PUSH32 0x64656C656761746563616C6C0000000000000000000000000000000000000000 PUSH1 0x20 DUP3 ADD MSTORE POP JUMP JUMPDEST PUSH1 0x0 PUSH2 0x8CAE PUSH1 0x2C DUP4 PUSH2 0x8C41 JUMP JUMPDEST SWAP2 POP PUSH2 0x8CB9 DUP3 PUSH2 0x8C52 JUMP JUMPDEST PUSH1 0x40 DUP3 ADD SWAP1 POP SWAP2 SWAP1 POP JUMP JUMPDEST PUSH1 0x0 PUSH1 0x20 DUP3 ADD SWAP1 POP DUP2 DUP2 SUB PUSH1 0x0 DUP4 ADD MSTORE PUSH2 0x8CDD DUP2 PUSH2 0x8CA1 JUMP JUMPDEST SWAP1 POP SWAP2 SWAP1 POP JUMP JUMPDEST PUSH32 0x46756E6374696F6E206D7573742062652063616C6C6564207468726F75676820 PUSH1 0x0 DUP3 ADD MSTORE PUSH32 0x6163746976652070726F78790000000000000000000000000000000000000000 PUSH1 0x20 DUP3 ADD MSTORE POP JUMP JUMPDEST PUSH1 0x0 PUSH2 0x8D40 PUSH1 0x2C DUP4 PUSH2 0x8C41 JUMP JUMPDEST SWAP2 POP PUSH2 0x8D4B DUP3 PUSH2 0x8CE4 JUMP JUMPDEST PUSH1 0x40 DUP3 ADD SWAP1 POP SWAP2 SWAP1 POP JUMP JUMPDEST PUSH1 0x0 PUSH1 0x20 DUP3 ADD SWAP1 POP DUP2 DUP2 SUB PUSH1 0x0 DUP4 ADD MSTORE PUSH2 0x8D6F DUP2 PUSH2 0x8D33 JUMP JUMPDEST SWAP1 POP SWAP2 SWAP1 POP JUMP JUMPDEST PUSH32 0x496E697469616C697A61626C653A20636F6E747261637420697320616C726561 PUSH1 0x0 DUP3 ADD MSTORE PUSH32 0x647920696E697469616C697A6564000000000000000000000000000000000000 PUSH1 0x20 DUP3 ADD MSTORE POP JUMP JUMPDEST PUSH1 0x0 PUSH2 0x8DD2 PUSH1 0x2E DUP4 PUSH2 0x8C41 JUMP JUMPDEST SWAP2 POP PUSH2 0x8DDD DUP3 PUSH2 0x8D76 JUMP JUMPDEST PUSH1 0x40 DUP3 ADD SWAP1 POP SWAP2 SWAP1 POP JUMP JUMPDEST PUSH1 0x0 PUSH1 0x20 DUP3 ADD SWAP1 POP DUP2 DUP2 SUB PUSH1 0x0 DUP4 ADD MSTORE PUSH2 0x8E01 DUP2 PUSH2 0x8DC5 JUMP JUMPDEST SWAP1 POP SWAP2 SWAP1 POP JUMP JUMPDEST PUSH1 0x0 DUP2 SWAP1 POP SWAP2 SWAP1 POP JUMP JUMPDEST PUSH1 0x0 DUP2 SWAP1 POP SWAP2 SWAP1 POP JUMP JUMPDEST PUSH1 0x0 PUSH2 0x8E37 PUSH2 0x8E32 PUSH2 0x8E2D DUP5 PUSH2 0x8E08 JUMP JUMPDEST PUSH2 0x8E12 JUMP JUMPDEST PUSH2 0x7995 JUMP JUMPDEST SWAP1 POP SWAP2 SWAP1 POP JUMP JUMPDEST PUSH2 0x8E47 DUP2 PUSH2 0x8E1C JUMP JUMPDEST DUP3 MSTORE POP POP JUMP JUMPDEST PUSH1 0x0 PUSH1 0x20 DUP3 ADD SWAP1 POP PUSH2 0x8E62 PUSH1 0x0 DUP4 ADD DUP5 PUSH2 0x8E3E JUMP JUMPDEST SWAP3 SWAP2 POP POP JUMP JUMPDEST PUSH1 0x0 PUSH1 0x40 DUP3 ADD SWAP1 POP PUSH2 0x8E7D PUSH1 0x0 DUP4 ADD DUP6 PUSH2 0x8032 JUMP JUMPDEST PUSH2 0x8E8A PUSH1 0x20 DUP4 ADD DUP5 PUSH2 0x7C50 JUMP JUMPDEST SWAP4 SWAP3 POP POP POP JUMP JUMPDEST PUSH1 0x0 PUSH1 0x20 DUP3 ADD SWAP1 POP DUP2 DUP2 SUB PUSH1 0x0 DUP4 ADD MSTORE PUSH2 0x8EAB DUP2 DUP5 PUSH2 0x80F2 JUMP JUMPDEST SWAP1 POP SWAP3 SWAP2 POP POP JUMP JUMPDEST PUSH1 0x0 DUP1 PUSH1 0x40 DUP4 DUP6 SUB SLT ISZERO PUSH2 0x8ECA JUMPI PUSH2 0x8EC9 PUSH2 0x79D6 JUMP JUMPDEST JUMPDEST PUSH1 0x0 PUSH2 0x8ED8 DUP6 DUP3 DUP7 ADD PUSH2 0x896D JUMP JUMPDEST SWAP3 POP POP PUSH1 0x20 PUSH2 0x8EE9 DUP6 DUP3 DUP7 ADD PUSH2 0x896D JUMP JUMPDEST SWAP2 POP POP SWAP3 POP SWAP3 SWAP1 POP JUMP JUMPDEST PUSH32 0x555550535570677261646561626C653A206D757374206E6F742062652063616C PUSH1 0x0 DUP3 ADD MSTORE PUSH32 0x6C6564207468726F7567682064656C656761746563616C6C0000000000000000 PUSH1 0x20 DUP3 ADD MSTORE POP JUMP JUMPDEST PUSH1 0x0 PUSH2 0x8F4F PUSH1 0x38 DUP4 PUSH2 0x8C41 JUMP JUMPDEST SWAP2 POP PUSH2 0x8F5A DUP3 PUSH2 0x8EF3 JUMP JUMPDEST PUSH1 0x40 DUP3 ADD SWAP1 POP SWAP2 SWAP1 POP JUMP JUMPDEST PUSH1 0x0 PUSH1 0x20 DUP3 ADD SWAP1 POP DUP2 DUP2 SUB PUSH1 0x0 DUP4 ADD MSTORE PUSH2 0x8F7E DUP2 PUSH2 0x8F42 JUMP JUMPDEST SWAP1 POP SWAP2 SWAP1 POP JUMP JUMPDEST PUSH1 0x0 PUSH1 0x60 DUP3 ADD SWAP1 POP PUSH2 0x8F9A PUSH1 0x0 DUP4 ADD DUP7 PUSH2 0x7C50 JUMP JUMPDEST DUP2 DUP2 SUB PUSH1 0x20 DUP4 ADD MSTORE PUSH2 0x8FAC DUP2 DUP6 PUSH2 0x80F2 JUMP JUMPDEST SWAP1 POP PUSH2 0x8FBB PUSH1 0x40 DUP4 ADD DUP5 PUSH2 0x79A2 JUMP JUMPDEST SWAP5 SWAP4 POP POP POP POP JUMP JUMPDEST PUSH1 0x0 PUSH2 0x8FDE PUSH2 0x8FD9 PUSH2 0x8FD4 DUP5 PUSH2 0x7995 JUMP JUMPDEST PUSH2 0x8E12 JUMP JUMPDEST PUSH2 0x79E0 JUMP JUMPDEST SWAP1 POP SWAP2 SWAP1 POP JUMP JUMPDEST PUSH2 0x8FEE DUP2 PUSH2 0x8FC3 JUMP JUMPDEST DUP3 MSTORE POP POP JUMP JUMPDEST PUSH1 0x0 PUSH1 0x20 DUP3 ADD SWAP1 POP PUSH2 0x9009 PUSH1 0x0 DUP4 ADD DUP5 PUSH2 0x8FE5 JUMP JUMPDEST SWAP3 SWAP2 POP POP JUMP JUMPDEST PUSH1 0x0 DUP2 MLOAD SWAP1 POP PUSH2 0x901E DUP2 PUSH2 0x7AE1 JUMP JUMPDEST SWAP3 SWAP2 POP POP JUMP JUMPDEST PUSH1 0x0 PUSH1 0x20 DUP3 DUP5 SUB SLT ISZERO PUSH2 0x903A JUMPI PUSH2 0x9039 PUSH2 0x79D6 JUMP JUMPDEST JUMPDEST PUSH1 0x0 PUSH2 0x9048 DUP5 DUP3 DUP6 ADD PUSH2 0x900F JUMP JUMPDEST SWAP2 POP POP SWAP3 SWAP2 POP POP JUMP JUMPDEST PUSH1 0x0 DUP2 SWAP1 POP SWAP3 SWAP2 POP POP JUMP JUMPDEST POP JUMP JUMPDEST PUSH1 0x0 PUSH2 0x906C PUSH1 0x0 DUP4 PUSH2 0x9051 JUMP JUMPDEST SWAP2 POP PUSH2 0x9077 DUP3 PUSH2 0x905C JUMP JUMPDEST PUSH1 0x0 DUP3 ADD SWAP1 POP SWAP2 SWAP1 POP JUMP JUMPDEST PUSH1 0x0 PUSH2 0x908D DUP3 PUSH2 0x905F JUMP JUMPDEST SWAP2 POP DUP2 SWAP1 POP SWAP2 SWAP1 POP JUMP JUMPDEST PUSH32 0x4F776E61626C653A206E6577206F776E657220697320746865207A65726F2061 PUSH1 0x0 DUP3 ADD MSTORE PUSH32 0x6464726573730000000000000000000000000000000000000000000000000000 PUSH1 0x20 DUP3 ADD MSTORE POP JUMP JUMPDEST PUSH1 0x0 PUSH2 0x90F3 PUSH1 0x26 DUP4 PUSH2 0x8C41 JUMP JUMPDEST SWAP2 POP PUSH2 0x90FE DUP3 PUSH2 0x9097 JUMP JUMPDEST PUSH1 0x40 DUP3 ADD SWAP1 POP SWAP2 SWAP1 POP JUMP JUMPDEST PUSH1 0x0 PUSH1 0x20 DUP3 ADD SWAP1 POP DUP2 DUP2 SUB PUSH1 0x0 DUP4 ADD MSTORE PUSH2 0x9122 DUP2 PUSH2 0x90E6 JUMP JUMPDEST SWAP1 POP SWAP2 SWAP1 POP JUMP JUMPDEST PUSH1 0x0 PUSH2 0x913C PUSH2 0x9137 DUP5 PUSH2 0x823F JUMP JUMPDEST PUSH2 0x7E6F JUMP JUMPDEST SWAP1 POP DUP1 DUP4 DUP3 MSTORE PUSH1 0x20 DUP3 ADD SWAP1 POP PUSH1 0x20 DUP5 MUL DUP4 ADD DUP6 DUP2 GT ISZERO PUSH2 0x915F JUMPI PUSH2 0x915E PUSH2 0x7B17 JUMP JUMPDEST JUMPDEST DUP4 JUMPDEST DUP2 DUP2 LT ISZERO PUSH2 0x9188 JUMPI DUP1 PUSH2 0x9174 DUP9 DUP3 PUSH2 0x896D JUMP JUMPDEST DUP5 MSTORE PUSH1 0x20 DUP5 ADD SWAP4 POP POP PUSH1 0x20 DUP2 ADD SWAP1 POP PUSH2 0x9161 JUMP JUMPDEST POP POP POP SWAP4 SWAP3 POP POP POP JUMP JUMPDEST PUSH1 0x0 DUP3 PUSH1 0x1F DUP4 ADD SLT PUSH2 0x91A7 JUMPI PUSH2 0x91A6 PUSH2 0x7B0D JUMP JUMPDEST JUMPDEST DUP2 MLOAD PUSH2 0x91B7 DUP5 DUP3 PUSH1 0x20 DUP7 ADD PUSH2 0x9129 JUMP JUMPDEST SWAP2 POP POP SWAP3 SWAP2 POP POP JUMP JUMPDEST PUSH1 0x0 PUSH1 0x20 DUP3 DUP5 SUB SLT ISZERO PUSH2 0x91D6 JUMPI PUSH2 0x91D5 PUSH2 0x79D6 JUMP JUMPDEST JUMPDEST PUSH1 0x0 DUP3 ADD MLOAD PUSH8 0xFFFFFFFFFFFFFFFF DUP2 GT ISZERO PUSH2 0x91F4 JUMPI PUSH2 0x91F3 PUSH2 0x79DB JUMP JUMPDEST JUMPDEST PUSH2 0x9200 DUP5 DUP3 DUP6 ADD PUSH2 0x9192 JUMP JUMPDEST SWAP2 POP POP SWAP3 SWAP2 POP POP JUMP JUMPDEST PUSH32 0x5061757361626C653A2070617573656400000000000000000000000000000000 PUSH1 0x0 DUP3 ADD MSTORE POP JUMP JUMPDEST PUSH1 0x0 PUSH2 0x923F PUSH1 0x10 DUP4 PUSH2 0x8C41 JUMP JUMPDEST SWAP2 POP PUSH2 0x924A DUP3 PUSH2 0x9209 JUMP JUMPDEST PUSH1 0x20 DUP3 ADD SWAP1 POP SWAP2 SWAP1 POP JUMP JUMPDEST PUSH1 0x0 PUSH1 0x20 DUP3 ADD SWAP1 POP DUP2 DUP2 SUB PUSH1 0x0 DUP4 ADD MSTORE PUSH2 0x926E DUP2 PUSH2 0x9232 JUMP JUMPDEST SWAP1 POP SWAP2 SWAP1 POP JUMP JUMPDEST PUSH32 0x5265656E7472616E637947756172643A207265656E7472616E742063616C6C00 PUSH1 0x0 DUP3 ADD MSTORE POP JUMP JUMPDEST PUSH1 0x0 PUSH2 0x92AB PUSH1 0x1F DUP4 PUSH2 0x8C41 JUMP JUMPDEST SWAP2 POP PUSH2 0x92B6 DUP3 PUSH2 0x9275 JUMP JUMPDEST PUSH1 0x20 DUP3 ADD SWAP1 POP SWAP2 SWAP1 POP JUMP JUMPDEST PUSH1 0x0 PUSH1 0x20 DUP3 ADD SWAP1 POP DUP2 DUP2 SUB PUSH1 0x0 DUP4 ADD MSTORE PUSH2 0x92DA DUP2 PUSH2 0x929E JUMP JUMPDEST SWAP1 POP SWAP2 SWAP1 POP JUMP JUMPDEST PUSH32 0x4F776E61626C653A2063616C6C6572206973206E6F7420746865206F776E6572 PUSH1 0x0 DUP3 ADD MSTORE POP JUMP JUMPDEST PUSH1 0x0 PUSH2 0x9317 PUSH1 0x20 DUP4 PUSH2 0x8C41 JUMP JUMPDEST SWAP2 POP PUSH2 0x9322 DUP3 PUSH2 0x92E1 JUMP JUMPDEST PUSH1 0x20 DUP3 ADD SWAP1 POP SWAP2 SWAP1 POP JUMP JUMPDEST PUSH1 0x0 PUSH1 0x20 DUP3 ADD SWAP1 POP DUP2 DUP2 SUB PUSH1 0x0 DUP4 ADD MSTORE PUSH2 0x9346 DUP2 PUSH2 0x930A JUMP JUMPDEST SWAP1 POP SWAP2 SWAP1 POP JUMP JUMPDEST PUSH2 0x9356 DUP2 PUSH2 0x7FFE JUMP JUMPDEST DUP2 EQ PUSH2 0x9361 JUMPI PUSH1 0x0 DUP1 REVERT JUMPDEST POP JUMP JUMPDEST PUSH1 0x0 DUP2 MLOAD SWAP1 POP PUSH2 0x9373 DUP2 PUSH2 0x934D JUMP JUMPDEST SWAP3 SWAP2 POP POP JUMP JUMPDEST PUSH1 0x0 PUSH1 0x20 DUP3 DUP5 SUB SLT ISZERO PUSH2 0x938F JUMPI PUSH2 0x938E PUSH2 0x79D6 JUMP JUMPDEST JUMPDEST PUSH1 0x0 PUSH2 0x939D DUP5 DUP3 DUP6 ADD PUSH2 0x9364 JUMP JUMPDEST SWAP2 POP POP SWAP3 SWAP2 POP POP JUMP JUMPDEST PUSH32 0x45524331393637557067726164653A206E657720696D706C656D656E74617469 PUSH1 0x0 DUP3 ADD MSTORE PUSH32 0x6F6E206973206E6F742055555053000000000000000000000000000000000000 PUSH1 0x20 DUP3 ADD MSTORE POP JUMP JUMPDEST PUSH1 0x0 PUSH2 0x9402 PUSH1 0x2E DUP4 PUSH2 0x8C41 JUMP JUMPDEST SWAP2 POP PUSH2 0x940D DUP3 PUSH2 0x93A6 JUMP JUMPDEST PUSH1 0x40 DUP3 ADD SWAP1 POP SWAP2 SWAP1 POP JUMP JUMPDEST PUSH1 0x0 PUSH1 0x20 DUP3 ADD SWAP1 POP DUP2 DUP2 SUB PUSH1 0x0 DUP4 ADD MSTORE PUSH2 0x9431 DUP2 PUSH2 0x93F5 JUMP JUMPDEST SWAP1 POP SWAP2 SWAP1 POP JUMP JUMPDEST PUSH32 0x45524331393637557067726164653A20756E737570706F727465642070726F78 PUSH1 0x0 DUP3 ADD MSTORE PUSH32 0x6961626C65555549440000000000000000000000000000000000000000000000 PUSH1 0x20 DUP3 ADD MSTORE POP JUMP JUMPDEST PUSH1 0x0 PUSH2 0x9494 PUSH1 0x29 DUP4 PUSH2 0x8C41 JUMP JUMPDEST SWAP2 POP PUSH2 0x949F DUP3 PUSH2 0x9438 JUMP JUMPDEST PUSH1 0x40 DUP3 ADD SWAP1 POP SWAP2 SWAP1 POP JUMP JUMPDEST PUSH1 0x0 PUSH1 0x20 DUP3 ADD SWAP1 POP DUP2 DUP2 SUB PUSH1 0x0 DUP4 ADD MSTORE PUSH2 0x94C3 DUP2 PUSH2 0x9487 JUMP JUMPDEST SWAP1 POP SWAP2 SWAP1 POP JUMP JUMPDEST PUSH32 0x496E697469616C697A61626C653A20636F6E7472616374206973206E6F742069 PUSH1 0x0 DUP3 ADD MSTORE PUSH32 0x6E697469616C697A696E67000000000000000000000000000000000000000000 PUSH1 0x20 DUP3 ADD MSTORE POP JUMP JUMPDEST PUSH1 0x0 PUSH2 0x9526 PUSH1 0x2B DUP4 PUSH2 0x8C41 JUMP JUMPDEST SWAP2 POP PUSH2 0x9531 DUP3 PUSH2 0x94CA JUMP JUMPDEST PUSH1 0x40 DUP3 ADD SWAP1 POP SWAP2 SWAP1 POP JUMP JUMPDEST PUSH1 0x0 PUSH1 0x20 DUP3 ADD SWAP1 POP DUP2 DUP2 SUB PUSH1 0x0 DUP4 ADD MSTORE PUSH2 0x9555 DUP2 PUSH2 0x9519 JUMP JUMPDEST SWAP1 POP SWAP2 SWAP1 POP JUMP JUMPDEST PUSH32 0x455243313936373A206E657720696D706C656D656E746174696F6E206973206E PUSH1 0x0 DUP3 ADD MSTORE PUSH32 0x6F74206120636F6E747261637400000000000000000000000000000000000000 PUSH1 0x20 DUP3 ADD MSTORE POP JUMP JUMPDEST PUSH1 0x0 PUSH2 0x95B8 PUSH1 0x2D DUP4 PUSH2 0x8C41 JUMP JUMPDEST SWAP2 POP PUSH2 0x95C3 DUP3 PUSH2 0x955C JUMP JUMPDEST PUSH1 0x40 DUP3 ADD SWAP1 POP SWAP2 SWAP1 POP JUMP JUMPDEST PUSH1 0x0 PUSH1 0x20 DUP3 ADD SWAP1 POP DUP2 DUP2 SUB PUSH1 0x0 DUP4 ADD MSTORE PUSH2 0x95E7 DUP2 PUSH2 0x95AB JUMP JUMPDEST SWAP1 POP SWAP2 SWAP1 POP JUMP JUMPDEST PUSH32 0x5061757361626C653A206E6F7420706175736564000000000000000000000000 PUSH1 0x0 DUP3 ADD MSTORE POP JUMP JUMPDEST PUSH1 0x0 PUSH2 0x9624 PUSH1 0x14 DUP4 PUSH2 0x8C41 JUMP JUMPDEST SWAP2 POP PUSH2 0x962F DUP3 PUSH2 0x95EE JUMP JUMPDEST PUSH1 0x20 DUP3 ADD SWAP1 POP SWAP2 SWAP1 POP JUMP JUMPDEST PUSH1 0x0 PUSH1 0x20 DUP3 ADD SWAP1 POP DUP2 DUP2 SUB PUSH1 0x0 DUP4 ADD MSTORE PUSH2 0x9653 DUP2 PUSH2 0x9617 JUMP JUMPDEST SWAP1 POP SWAP2 SWAP1 POP JUMP JUMPDEST PUSH1 0x0 DUP2 MLOAD SWAP1 POP SWAP2 SWAP1 POP JUMP JUMPDEST PUSH1 0x0 JUMPDEST DUP4 DUP2 LT ISZERO PUSH2 0x9683 JUMPI DUP1 DUP3 ADD MLOAD DUP2 DUP5 ADD MSTORE PUSH1 0x20 DUP2 ADD SWAP1 POP PUSH2 0x9668 JUMP JUMPDEST PUSH1 0x0 DUP5 DUP5 ADD MSTORE POP POP POP POP JUMP JUMPDEST PUSH1 0x0 PUSH2 0x969A DUP3 PUSH2 0x965A JUMP JUMPDEST PUSH2 0x96A4 DUP2 DUP6 PUSH2 0x9051 JUMP JUMPDEST SWAP4 POP PUSH2 0x96B4 DUP2 DUP6 PUSH1 0x20 DUP7 ADD PUSH2 0x9665 JUMP JUMPDEST DUP1 DUP5 ADD SWAP2 POP POP SWAP3 SWAP2 POP POP JUMP JUMPDEST PUSH1 0x0 PUSH2 0x96CC DUP3 DUP5 PUSH2 0x968F JUMP JUMPDEST SWAP2 POP DUP2 SWAP1 POP SWAP3 SWAP2 POP POP JUMP JUMPDEST PUSH32 0x416464726573733A2063616C6C20746F206E6F6E2D636F6E7472616374000000 PUSH1 0x0 DUP3 ADD MSTORE POP JUMP JUMPDEST PUSH1 0x0 PUSH2 0x970D PUSH1 0x1D DUP4 PUSH2 0x8C41 JUMP JUMPDEST SWAP2 POP PUSH2 0x9718 DUP3 PUSH2 0x96D7 JUMP JUMPDEST PUSH1 0x20 DUP3 ADD SWAP1 POP SWAP2 SWAP1 POP JUMP JUMPDEST PUSH1 0x0 PUSH1 0x20 DUP3 ADD SWAP1 POP DUP2 DUP2 SUB PUSH1 0x0 DUP4 ADD MSTORE PUSH2 0x973C DUP2 PUSH2 0x9700 JUMP JUMPDEST SWAP1 POP SWAP2 SWAP1 POP JUMP JUMPDEST PUSH1 0x0 DUP2 MLOAD SWAP1 POP SWAP2 SWAP1 POP JUMP JUMPDEST PUSH1 0x0 PUSH2 0x9759 DUP3 PUSH2 0x9743 JUMP JUMPDEST PUSH2 0x9763 DUP2 DUP6 PUSH2 0x8C41 JUMP JUMPDEST SWAP4 POP PUSH2 0x9773 DUP2 DUP6 PUSH1 0x20 DUP7 ADD PUSH2 0x9665 JUMP JUMPDEST PUSH2 0x977C DUP2 PUSH2 0x7DFE JUMP JUMPDEST DUP5 ADD SWAP2 POP POP SWAP3 SWAP2 POP POP JUMP JUMPDEST PUSH1 0x0 PUSH1 0x20 DUP3 ADD SWAP1 POP DUP2 DUP2 SUB PUSH1 0x0 DUP4 ADD MSTORE PUSH2 0x97A1 DUP2 DUP5 PUSH2 0x974E JUMP JUMPDEST SWAP1 POP SWAP3 SWAP2 POP POP JUMP INVALID COINBASE PUSH5 0x6472657373 GASPRICE KECCAK256 PUSH13 0x6F772D6C6576656C2064656C65 PUSH8 0x6174652063616C6C KECCAK256 PUSH7 0x61696C6564A264 PUSH10 0x7066735822122084A23A 0xE0 0xAE PUSH9 0x9EB51DDAB03259356D XOR RETURN 0xA5 0xBE PUSH14 0x48C3D05538EEBB5DC93440776473 PUSH16 0x6C634300081200330000000000000000 "},"methodIdentifiers":{"claimEth()":"b7cdddcb","claimStaking(uint8,uint8)":"ab9f15d4","depositETH()":"f6326fb3","enterStaking(uint256,uint8)":"06d0d5b3","exitStaking(uint8)":"aaded469","getActualMalus(address,uint8)":"aaf2815f","getContractBalance()":"6f9fb98a","getContractNftBalance()":"714dbd35","getDepositETH(uint256)":"3da57fa8","getDepositNumber()":"a2c0453d","getEthDeposit(uint256)":"7a8974f3","getLastEthDeposit()":"3cf761d0","getLastNftCount(address)":"7e76b071","getLastStakingCount(address)":"9e8207fc","getMalusPerc()":"160a6541","getMalusTaxPerc()":"00a90bdd","getNftCountHistory(address)":"c7172392","getPaused()":"6805b84b","getStakingCountHistory(address)":"c21c3316","getStakingLimit()":"d652f46b","getStakingOptionData(uint8)":"9c47c3a6","getStakingOptions()":"efc661e4","getTRNDAddress()":"5420a101","getThreshold()":"e75235b8","getTotStakAboveThres()":"485ca920","getTotStakingAmount()":"6e98b671","getTotalRewardedETH()":"644e808a","getTrndNftAddress()":"fe33e67d","getUserEthClaimData(address)":"9047996e","getUserNftStakingData(address,uint8)":"5d706b90","getUserStakingClaimData(address,uint8)":"855900ab","getUserStakingData(address,uint8)":"420874ef","initialize(address,address)":"485cc955","onERC721Received(address,address,uint256,bytes)":"150b7a02","owner()":"8da5cb5b","pause()":"8456cb59","paused()":"5c975abb","pendingEthRew(address)":"2a707bd2","pendingNftEthRew(address)":"4b032d74","pendingStakingRew(address,uint8)":"9325273d","proxiableUUID()":"52d1902d","renounceOwnership()":"715018a6","setMalusPerc(uint24)":"51594748","setMalusTaxPerc(uint8)":"08efbc2a","setStakingLimit(uint256)":"6cb455b7","setStakingOptionData(uint8,uint32,uint256,uint8)":"7575268d","setStakingOptions(uint8[])":"ee9d4ab6","setTRNDAddress(address)":"19261d3e","setThreshold(uint256)":"960bfe04","setTrndNftAddress(address)":"4279b9a8","stakeNfts(uint256[],uint8)":"8d0bda63","transferOwnership(address)":"f2fde38b","unpause()":"3f4ba83a","unstakeNfts(uint8,uint256[])":"8c7e3a35","upgradeTo(address)":"3659cfe6","upgradeToAndCall(address,bytes)":"4f1ef286","withdrawERC721(address,uint256)":"f3e414f8","withdrawETH()":"e086e5ec","withdrawTokens(address)":"49df728c"}},"storageLayout":{"storage":[{"astId":503,"contract":"contracts/TrndRewards.sol:DivitrendRewards","label":"_initialized","offset":0,"slot":"0","type":"t_uint8"},{"astId":506,"contract":"contracts/TrndRewards.sol:DivitrendRewards","label":"_initializing","offset":1,"slot":"0","type":"t_bool"},{"astId":485,"contract":"contracts/TrndRewards.sol:DivitrendRewards","label":"__gap","offset":0,"slot":"1","type":"t_array(t_uint256)50_storage"},{"astId":800,"contract":"contracts/TrndRewards.sol:DivitrendRewards","label":"__gap","offset":0,"slot":"51","type":"t_array(t_uint256)50_storage"},{"astId":1401,"contract":"contracts/TrndRewards.sol:DivitrendRewards","label":"__gap","offset":0,"slot":"101","type":"t_array(t_uint256)50_storage"},{"astId":10,"contract":"contracts/TrndRewards.sol:DivitrendRewards","label":"_owner","offset":0,"slot":"151","type":"t_address"},{"astId":130,"contract":"contracts/TrndRewards.sol:DivitrendRewards","label":"__gap","offset":0,"slot":"152","type":"t_array(t_uint256)49_storage"},{"astId":822,"contract":"contracts/TrndRewards.sol:DivitrendRewards","label":"_paused","offset":0,"slot":"201","type":"t_bool"},{"astId":927,"contract":"contracts/TrndRewards.sol:DivitrendRewards","label":"__gap","offset":0,"slot":"202","type":"t_array(t_uint256)49_storage"},{"astId":942,"contract":"contracts/TrndRewards.sol:DivitrendRewards","label":"_status","offset":0,"slot":"251","type":"t_uint256"},{"astId":1011,"contract":"contracts/TrndRewards.sol:DivitrendRewards","label":"__gap","offset":0,"slot":"252","type":"t_array(t_uint256)49_storage"},{"astId":2578,"contract":"contracts/TrndRewards.sol:DivitrendRewards","label":"divitrend","offset":0,"slot":"301","type":"t_contract(IDivitrend)6260"},{"astId":2581,"contract":"contracts/TrndRewards.sol:DivitrendRewards","label":"factories","offset":0,"slot":"302","type":"t_contract(ITrndFactories)6471"},{"astId":2583,"contract":"contracts/TrndRewards.sol:DivitrendRewards","label":"depositNumber","offset":0,"slot":"303","type":"t_uint256"},{"astId":2585,"contract":"contracts/TrndRewards.sol:DivitrendRewards","label":"totalRewardedEth","offset":0,"slot":"304","type":"t_uint256"},{"astId":2587,"contract":"contracts/TrndRewards.sol:DivitrendRewards","label":"threshold","offset":0,"slot":"305","type":"t_uint256"},{"astId":2589,"contract":"contracts/TrndRewards.sol:DivitrendRewards","label":"stakingLimit","offset":0,"slot":"306","type":"t_uint256"},{"astId":2591,"contract":"contracts/TrndRewards.sol:DivitrendRewards","label":"totStakingAmount","offset":0,"slot":"307","type":"t_uint256"},{"astId":2593,"contract":"contracts/TrndRewards.sol:DivitrendRewards","label":"totStakAboveThres","offset":0,"slot":"308","type":"t_uint256"},{"astId":2595,"contract":"contracts/TrndRewards.sol:DivitrendRewards","label":"malusPerc","offset":0,"slot":"309","type":"t_uint256"},{"astId":2597,"contract":"contracts/TrndRewards.sol:DivitrendRewards","label":"malusTaxPerc","offset":0,"slot":"310","type":"t_uint8"},{"astId":2600,"contract":"contracts/TrndRewards.sol:DivitrendRewards","label":"stakingOptions","offset":0,"slot":"311","type":"t_array(t_uint8)dyn_storage"},{"astId":2605,"contract":"contracts/TrndRewards.sol:DivitrendRewards","label":"stakOptionsData","offset":0,"slot":"312","type":"t_mapping(t_uint8,t_struct(OptionData)2542_storage)"},{"astId":2611,"contract":"contracts/TrndRewards.sol:DivitrendRewards","label":"totStakingCount","offset":0,"slot":"313","type":"t_mapping(t_address,t_array(t_struct(TrndStake)2549_storage)dyn_storage)"},{"astId":2618,"contract":"contracts/TrndRewards.sol:DivitrendRewards","label":"stakingData","offset":0,"slot":"314","type":"t_mapping(t_address,t_mapping(t_uint8,t_struct(TrndStake)2549_storage))"},{"astId":2625,"contract":"contracts/TrndRewards.sol:DivitrendRewards","label":"trndClaimData","offset":0,"slot":"315","type":"t_mapping(t_address,t_mapping(t_uint8,t_struct(TrndClaim)2558_storage))"},{"astId":2630,"contract":"contracts/TrndRewards.sol:DivitrendRewards","label":"ethDeposits","offset":0,"slot":"316","type":"t_mapping(t_uint256,t_struct(EthDepositData)2533_storage)"},{"astId":2635,"contract":"contracts/TrndRewards.sol:DivitrendRewards","label":"ethClaimData","offset":0,"slot":"317","type":"t_mapping(t_address,t_struct(EthClaim)2565_storage)"},{"astId":2641,"contract":"contracts/TrndRewards.sol:DivitrendRewards","label":"totNftCount","offset":0,"slot":"318","type":"t_mapping(t_address,t_array(t_struct(NftStake)2575_storage)dyn_storage)"},{"astId":2648,"contract":"contracts/TrndRewards.sol:DivitrendRewards","label":"nftStakingData","offset":0,"slot":"319","type":"t_mapping(t_address,t_mapping(t_uint8,t_struct(NftStake)2575_storage))"}],"types":{"t_address":{"encoding":"inplace","label":"address","numberOfBytes":"20"},"t_array(t_struct(NftStake)2575_storage)dyn_storage":{"base":"t_struct(NftStake)2575_storage","encoding":"dynamic_array","label":"struct DivitrendRewards.NftStake[]","numberOfBytes":"32"},"t_array(t_struct(TrndStake)2549_storage)dyn_storage":{"base":"t_struct(TrndStake)2549_storage","encoding":"dynamic_array","label":"struct DivitrendRewards.TrndStake[]","numberOfBytes":"32"},"t_array(t_uint256)49_storage":{"base":"t_uint256","encoding":"inplace","label":"uint256[49]","numberOfBytes":"1568"},"t_array(t_uint256)50_storage":{"base":"t_uint256","encoding":"inplace","label":"uint256[50]","numberOfBytes":"1600"},"t_array(t_uint256)dyn_storage":{"base":"t_uint256","encoding":"dynamic_array","label":"uint256[]","numberOfBytes":"32"},"t_array(t_uint8)dyn_storage":{"base":"t_uint8","encoding":"dynamic_array","label":"uint8[]","numberOfBytes":"32"},"t_bool":{"encoding":"inplace","label":"bool","numberOfBytes":"1"},"t_contract(IDivitrend)6260":{"encoding":"inplace","label":"contract IDivitrend","numberOfBytes":"20"},"t_contract(ITrndFactories)6471":{"encoding":"inplace","label":"contract ITrndFactories","numberOfBytes":"20"},"t_mapping(t_address,t_array(t_struct(NftStake)2575_storage)dyn_storage)":{"encoding":"mapping","key":"t_address","label":"mapping(address => struct DivitrendRewards.NftStake[])","numberOfBytes":"32","value":"t_array(t_struct(NftStake)2575_storage)dyn_storage"},"t_mapping(t_address,t_array(t_struct(TrndStake)2549_storage)dyn_storage)":{"encoding":"mapping","key":"t_address","label":"mapping(address => struct DivitrendRewards.TrndStake[])","numberOfBytes":"32","value":"t_array(t_struct(TrndStake)2549_storage)dyn_storage"},"t_mapping(t_address,t_mapping(t_uint8,t_struct(NftStake)2575_storage))":{"encoding":"mapping","key":"t_address","label":"mapping(address => mapping(uint8 => struct DivitrendRewards.NftStake))","numberOfBytes":"32","value":"t_mapping(t_uint8,t_struct(NftStake)2575_storage)"},"t_mapping(t_address,t_mapping(t_uint8,t_struct(TrndClaim)2558_storage))":{"encoding":"mapping","key":"t_address","label":"mapping(address => mapping(uint8 => struct DivitrendRewards.TrndClaim))","numberOfBytes":"32","value":"t_mapping(t_uint8,t_struct(TrndClaim)2558_storage)"},"t_mapping(t_address,t_mapping(t_uint8,t_struct(TrndStake)2549_storage))":{"encoding":"mapping","key":"t_address","label":"mapping(address => mapping(uint8 => struct DivitrendRewards.TrndStake))","numberOfBytes":"32","value":"t_mapping(t_uint8,t_struct(TrndStake)2549_storage)"},"t_mapping(t_address,t_struct(EthClaim)2565_storage)":{"encoding":"mapping","key":"t_address","label":"mapping(address => struct DivitrendRewards.EthClaim)","numberOfBytes":"32","value":"t_struct(EthClaim)2565_storage"},"t_mapping(t_uint256,t_struct(EthDepositData)2533_storage)":{"encoding":"mapping","key":"t_uint256","label":"mapping(uint256 => struct DivitrendRewards.EthDepositData)","numberOfBytes":"32","value":"t_struct(EthDepositData)2533_storage"},"t_mapping(t_uint8,t_struct(NftStake)2575_storage)":{"encoding":"mapping","key":"t_uint8","label":"mapping(uint8 => struct DivitrendRewards.NftStake)","numberOfBytes":"32","value":"t_struct(NftStake)2575_storage"},"t_mapping(t_uint8,t_struct(OptionData)2542_storage)":{"encoding":"mapping","key":"t_uint8","label":"mapping(uint8 => struct DivitrendRewards.OptionData)","numberOfBytes":"32","value":"t_struct(OptionData)2542_storage"},"t_mapping(t_uint8,t_struct(TrndClaim)2558_storage)":{"encoding":"mapping","key":"t_uint8","label":"mapping(uint8 => struct DivitrendRewards.TrndClaim)","numberOfBytes":"32","value":"t_struct(TrndClaim)2558_storage"},"t_mapping(t_uint8,t_struct(TrndStake)2549_storage)":{"encoding":"mapping","key":"t_uint8","label":"mapping(uint8 => struct DivitrendRewards.TrndStake)","numberOfBytes":"32","value":"t_struct(TrndStake)2549_storage"},"t_struct(EthClaim)2565_storage":{"encoding":"inplace","label":"struct DivitrendRewards.EthClaim","members":[{"astId":2560,"contract":"contracts/TrndRewards.sol:DivitrendRewards","label":"totClaimed","offset":0,"slot":"0","type":"t_uint256"},{"astId":2562,"contract":"contracts/TrndRewards.sol:DivitrendRewards","label":"lastClaimTime","offset":0,"slot":"1","type":"t_uint256"},{"astId":2564,"contract":"contracts/TrndRewards.sol:DivitrendRewards","label":"depositNum","offset":0,"slot":"2","type":"t_uint256"}],"numberOfBytes":"96"},"t_struct(EthDepositData)2533_storage":{"encoding":"inplace","label":"struct DivitrendRewards.EthDepositData","members":[{"astId":2526,"contract":"contracts/TrndRewards.sol:DivitrendRewards","label":"amount","offset":0,"slot":"0","type":"t_uint256"},{"astId":2528,"contract":"contracts/TrndRewards.sol:DivitrendRewards","label":"timestamp","offset":0,"slot":"1","type":"t_uint256"},{"astId":2530,"contract":"contracts/TrndRewards.sol:DivitrendRewards","label":"totStakedThres","offset":0,"slot":"2","type":"t_uint256"},{"astId":2532,"contract":"contracts/TrndRewards.sol:DivitrendRewards","label":"remainingAmountNft","offset":0,"slot":"3","type":"t_uint256"}],"numberOfBytes":"128"},"t_struct(NftStake)2575_storage":{"encoding":"inplace","label":"struct DivitrendRewards.NftStake","members":[{"astId":2567,"contract":"contracts/TrndRewards.sol:DivitrendRewards","label":"amount","offset":0,"slot":"0","type":"t_uint256"},{"astId":2570,"contract":"contracts/TrndRewards.sol:DivitrendRewards","label":"nftIds","offset":0,"slot":"1","type":"t_array(t_uint256)dyn_storage"},{"astId":2572,"contract":"contracts/TrndRewards.sol:DivitrendRewards","label":"timestamp","offset":0,"slot":"2","type":"t_uint256"},{"astId":2574,"contract":"contracts/TrndRewards.sol:DivitrendRewards","label":"depositNum","offset":0,"slot":"3","type":"t_uint256"}],"numberOfBytes":"128"},"t_struct(OptionData)2542_storage":{"encoding":"inplace","label":"struct DivitrendRewards.OptionData","members":[{"astId":2535,"contract":"contracts/TrndRewards.sol:DivitrendRewards","label":"vestingTime","offset":0,"slot":"0","type":"t_uint32"},{"astId":2537,"contract":"contracts/TrndRewards.sol:DivitrendRewards","label":"apy","offset":0,"slot":"1","type":"t_uint256"},{"astId":2539,"contract":"contracts/TrndRewards.sol:DivitrendRewards","label":"maxNftSlots","offset":0,"slot":"2","type":"t_uint8"},{"astId":2541,"contract":"contracts/TrndRewards.sol:DivitrendRewards","label":"lastChanged","offset":0,"slot":"3","type":"t_uint256"}],"numberOfBytes":"128"},"t_struct(TrndClaim)2558_storage":{"encoding":"inplace","label":"struct DivitrendRewards.TrndClaim","members":[{"astId":2551,"contract":"contracts/TrndRewards.sol:DivitrendRewards","label":"totClaimed","offset":0,"slot":"0","type":"t_uint256"},{"astId":2553,"contract":"contracts/TrndRewards.sol:DivitrendRewards","label":"lastClaimTime","offset":0,"slot":"1","type":"t_uint256"},{"astId":2555,"contract":"contracts/TrndRewards.sol:DivitrendRewards","label":"totCompounded","offset":0,"slot":"2","type":"t_uint256"},{"astId":2557,"contract":"contracts/TrndRewards.sol:DivitrendRewards","label":"lastCompTime","offset":0,"slot":"3","type":"t_uint256"}],"numberOfBytes":"128"},"t_struct(TrndStake)2549_storage":{"encoding":"inplace","label":"struct DivitrendRewards.TrndStake","members":[{"astId":2544,"contract":"contracts/TrndRewards.sol:DivitrendRewards","label":"amount","offset":0,"slot":"0","type":"t_uint256"},{"astId":2546,"contract":"contracts/TrndRewards.sol:DivitrendRewards","label":"timestamp","offset":0,"slot":"1","type":"t_uint256"},{"astId":2548,"contract":"contracts/TrndRewards.sol:DivitrendRewards","label":"depositNum","offset":0,"slot":"2","type":"t_uint256"}],"numberOfBytes":"96"},"t_uint256":{"encoding":"inplace","label":"uint256","numberOfBytes":"32"},"t_uint32":{"encoding":"inplace","label":"uint32","numberOfBytes":"4"},"t_uint8":{"encoding":"inplace","label":"uint8","numberOfBytes":"1"}}}}}}