{"contracts/TrndFactories.sol":{"DivitrendFactories":{"abi":[{"inputs":[],"stateMutability":"nonpayable","type":"constructor"},{"inputs":[],"name":"Fact__ContractsCannotMint","type":"error"},{"inputs":[],"name":"Fact__InvalidAmount","type":"error"},{"inputs":[{"internalType":"uint256","name":"maxCost","type":"uint256"}],"name":"Fact__MaxCostReached","type":"error"},{"inputs":[{"internalType":"uint256","name":"maxMintAmount","type":"uint256"}],"name":"Fact__MaxMintExceeded","type":"error"},{"inputs":[],"name":"Fact__MintAtOnceExceeded","type":"error"},{"inputs":[],"name":"Fact__MintNotLive","type":"error"},{"inputs":[],"name":"Fact__NftsSoldOut","type":"error"},{"inputs":[],"name":"Fact__NoTokensAvailable","type":"error"},{"inputs":[],"name":"Fact__NotEnoughFunds","type":"error"},{"inputs":[],"name":"Fact__TransferFailed","type":"error"},{"inputs":[],"name":"Fact__ZeroBalance","type":"error"},{"anonymous":false,"inputs":[{"indexed":false,"internalType":"address","name":"previousAdmin","type":"address"},{"indexed":false,"internalType":"address","name":"newAdmin","type":"address"}],"name":"AdminChanged","type":"event"},{"anonymous":false,"inputs":[{"indexed":true,"internalType":"address","name":"owner","type":"address"},{"indexed":true,"internalType":"address","name":"approved","type":"address"},{"indexed":true,"internalType":"uint256","name":"tokenId","type":"uint256"}],"name":"Approval","type":"event"},{"anonymous":false,"inputs":[{"indexed":true,"internalType":"address","name":"owner","type":"address"},{"indexed":true,"internalType":"address","name":"operator","type":"address"},{"indexed":false,"internalType":"bool","name":"approved","type":"bool"}],"name":"ApprovalForAll","type":"event"},{"anonymous":false,"inputs":[{"indexed":true,"internalType":"address","name":"beacon","type":"address"}],"name":"BeaconUpgraded","type":"event"},{"anonymous":false,"inputs":[{"indexed":false,"internalType":"uint8","name":"version","type":"uint8"}],"name":"Initialized","type":"event"},{"anonymous":false,"inputs":[{"indexed":true,"internalType":"address","name":"account","type":"address"},{"indexed":false,"internalType":"uint16[]","name":"tokenIds","type":"uint16[]"}],"name":"NftMinted","type":"event"},{"anonymous":false,"inputs":[{"indexed":true,"internalType":"address","name":"account","type":"address"},{"indexed":false,"internalType":"uint256","name":"amount","type":"uint256"}],"name":"NftPayed","type":"event"},{"anonymous":false,"inputs":[{"indexed":true,"internalType":"address","name":"previousOwner","type":"address"},{"indexed":true,"internalType":"address","name":"newOwner","type":"address"}],"name":"OwnershipTransferred","type":"event"},{"anonymous":false,"inputs":[{"indexed":true,"internalType":"address","name":"from","type":"address"},{"indexed":true,"internalType":"address","name":"to","type":"address"},{"indexed":true,"internalType":"uint256","name":"tokenId","type":"uint256"}],"name":"Transfer","type":"event"},{"anonymous":false,"inputs":[{"indexed":true,"internalType":"address","name":"implementation","type":"address"}],"name":"Upgraded","type":"event"},{"inputs":[{"internalType":"uint16","name":"_amount","type":"uint16"},{"internalType":"address","name":"_recipient","type":"address"}],"name":"adminMint","outputs":[],"stateMutability":"nonpayable","type":"function"},{"inputs":[{"internalType":"address","name":"to","type":"address"},{"internalType":"uint256","name":"tokenId","type":"uint256"}],"name":"approve","outputs":[],"stateMutability":"nonpayable","type":"function"},{"inputs":[{"internalType":"address","name":"owner","type":"address"}],"name":"balanceOf","outputs":[{"internalType":"uint256","name":"","type":"uint256"}],"stateMutability":"view","type":"function"},{"inputs":[],"name":"baseExtension","outputs":[{"internalType":"string","name":"","type":"string"}],"stateMutability":"view","type":"function"},{"inputs":[],"name":"baseURI","outputs":[{"internalType":"string","name":"","type":"string"}],"stateMutability":"view","type":"function"},{"inputs":[{"internalType":"uint256","name":"_num","type":"uint256"}],"name":"calCost","outputs":[{"internalType":"uint256","name":"","type":"uint256"}],"stateMutability":"view","type":"function"},{"inputs":[],"name":"claimNfts","outputs":[],"stateMutability":"nonpayable","type":"function"},{"inputs":[],"name":"getActualSupply","outputs":[{"internalType":"uint16","name":"","type":"uint16"}],"stateMutability":"view","type":"function"},{"inputs":[{"internalType":"uint256","name":"tokenId","type":"uint256"}],"name":"getApproved","outputs":[{"internalType":"address","name":"","type":"address"}],"stateMutability":"view","type":"function"},{"inputs":[],"name":"getCashWallet","outputs":[{"internalType":"address","name":"","type":"address"}],"stateMutability":"view","type":"function"},{"inputs":[],"name":"getCost","outputs":[{"internalType":"uint256","name":"","type":"uint256"}],"stateMutability":"view","type":"function"},{"inputs":[{"internalType":"uint16","name":"_index","type":"uint16"}],"name":"getIdsArray","outputs":[{"internalType":"uint16","name":"","type":"uint16"}],"stateMutability":"view","type":"function"},{"inputs":[],"name":"getIdsArrayLength","outputs":[{"internalType":"uint256","name":"","type":"uint256"}],"stateMutability":"view","type":"function"},{"inputs":[],"name":"getMaxCost","outputs":[{"internalType":"uint256","name":"","type":"uint256"}],"stateMutability":"view","type":"function"},{"inputs":[],"name":"getMaxMintAmount","outputs":[{"internalType":"uint16","name":"","type":"uint16"}],"stateMutability":"view","type":"function"},{"inputs":[{"internalType":"uint8","name":"_nftType","type":"uint8"}],"name":"getNftBoostData","outputs":[{"internalType":"uint16","name":"","type":"uint16"},{"internalType":"uint16","name":"","type":"uint16"}],"stateMutability":"view","type":"function"},{"inputs":[{"internalType":"uint256","name":"_index","type":"uint256"}],"name":"getNftTypesArray","outputs":[{"internalType":"uint8","name":"","type":"uint8"}],"stateMutability":"view","type":"function"},{"inputs":[],"name":"getTimeStart","outputs":[{"internalType":"uint256","name":"","type":"uint256"}],"stateMutability":"view","type":"function"},{"inputs":[{"internalType":"uint16[]","name":"_ids","type":"uint16[]"}],"name":"getTotalBoosts","outputs":[{"internalType":"uint256","name":"","type":"uint256"},{"internalType":"uint256","name":"","type":"uint256"}],"stateMutability":"view","type":"function"},{"inputs":[],"name":"getTotalIdsArray","outputs":[{"internalType":"uint16[]","name":"","type":"uint16[]"}],"stateMutability":"view","type":"function"},{"inputs":[{"internalType":"address","name":"_user","type":"address"}],"name":"getUserTokensLength","outputs":[{"internalType":"uint256","name":"","type":"uint256"}],"stateMutability":"view","type":"function"},{"inputs":[],"name":"initialize","outputs":[],"stateMutability":"nonpayable","type":"function"},{"inputs":[{"internalType":"address","name":"owner","type":"address"},{"internalType":"address","name":"operator","type":"address"}],"name":"isApprovedForAll","outputs":[{"internalType":"bool","name":"","type":"bool"}],"stateMutability":"view","type":"function"},{"inputs":[],"name":"name","outputs":[{"internalType":"string","name":"","type":"string"}],"stateMutability":"view","type":"function"},{"inputs":[],"name":"owner","outputs":[{"internalType":"address","name":"","type":"address"}],"stateMutability":"view","type":"function"},{"inputs":[{"internalType":"uint256","name":"tokenId","type":"uint256"}],"name":"ownerOf","outputs":[{"internalType":"address","name":"","type":"address"}],"stateMutability":"view","type":"function"},{"inputs":[{"internalType":"uint16","name":"_amount","type":"uint16"}],"name":"payNfts","outputs":[],"stateMutability":"payable","type":"function"},{"inputs":[],"name":"proxiableUUID","outputs":[{"internalType":"bytes32","name":"","type":"bytes32"}],"stateMutability":"view","type":"function"},{"inputs":[{"internalType":"address","name":"_token","type":"address"},{"internalType":"uint256","name":"_tokenId","type":"uint256"}],"name":"recoverNonFungibleToken","outputs":[],"stateMutability":"nonpayable","type":"function"},{"inputs":[{"internalType":"address","name":"_token","type":"address"}],"name":"recoverToken","outputs":[],"stateMutability":"nonpayable","type":"function"},{"inputs":[],"name":"renounceOwnership","outputs":[],"stateMutability":"nonpayable","type":"function"},{"inputs":[{"internalType":"address","name":"from","type":"address"},{"internalType":"address","name":"to","type":"address"},{"internalType":"uint256","name":"tokenId","type":"uint256"}],"name":"safeTransferFrom","outputs":[],"stateMutability":"nonpayable","type":"function"},{"inputs":[{"internalType":"address","name":"from","type":"address"},{"internalType":"address","name":"to","type":"address"},{"internalType":"uint256","name":"tokenId","type":"uint256"},{"internalType":"bytes","name":"data","type":"bytes"}],"name":"safeTransferFrom","outputs":[],"stateMutability":"nonpayable","type":"function"},{"inputs":[{"internalType":"address","name":"operator","type":"address"},{"internalType":"bool","name":"approved","type":"bool"}],"name":"setApprovalForAll","outputs":[],"stateMutability":"nonpayable","type":"function"},{"inputs":[{"internalType":"string","name":"_newBaseExtension","type":"string"}],"name":"setBaseExtension","outputs":[],"stateMutability":"nonpayable","type":"function"},{"inputs":[{"internalType":"string","name":"_newBaseURI","type":"string"}],"name":"setBaseURI","outputs":[],"stateMutability":"nonpayable","type":"function"},{"inputs":[{"internalType":"address","name":"_new","type":"address"}],"name":"setCashWallet","outputs":[],"stateMutability":"nonpayable","type":"function"},{"inputs":[{"internalType":"uint256","name":"_newCost","type":"uint256"}],"name":"setCost","outputs":[],"stateMutability":"nonpayable","type":"function"},{"inputs":[{"internalType":"uint256","name":"_newMaxCost","type":"uint256"}],"name":"setMaxCost","outputs":[],"stateMutability":"nonpayable","type":"function"},{"inputs":[{"internalType":"uint8","name":"_nftType","type":"uint8"},{"internalType":"uint16","name":"_newApyBoost","type":"uint16"},{"internalType":"uint16","name":"_newDepositPerc","type":"uint16"}],"name":"setNftBoostData","outputs":[],"stateMutability":"nonpayable","type":"function"},{"inputs":[{"internalType":"uint8[299]","name":"_newNftTypesArray","type":"uint8[299]"}],"name":"setNftTypesArray","outputs":[],"stateMutability":"nonpayable","type":"function"},{"inputs":[{"internalType":"uint256","name":"_newTimeStart","type":"uint256"}],"name":"setTimeStart","outputs":[],"stateMutability":"nonpayable","type":"function"},{"inputs":[{"internalType":"uint16","name":"_newmaxMintAmount","type":"uint16"}],"name":"setmaxMintAmount","outputs":[],"stateMutability":"nonpayable","type":"function"},{"inputs":[{"internalType":"bytes4","name":"interfaceId","type":"bytes4"}],"name":"supportsInterface","outputs":[{"internalType":"bool","name":"","type":"bool"}],"stateMutability":"view","type":"function"},{"inputs":[],"name":"symbol","outputs":[{"internalType":"string","name":"","type":"string"}],"stateMutability":"view","type":"function"},{"inputs":[{"internalType":"uint256","name":"tokenId","type":"uint256"}],"name":"tokenURI","outputs":[{"internalType":"string","name":"","type":"string"}],"stateMutability":"view","type":"function"},{"inputs":[{"internalType":"address","name":"_owner","type":"address"}],"name":"tokensOfOwner","outputs":[{"internalType":"uint256[]","name":"","type":"uint256[]"}],"stateMutability":"view","type":"function"},{"inputs":[],"name":"totalSupply","outputs":[{"internalType":"uint16","name":"","type":"uint16"}],"stateMutability":"view","type":"function"},{"inputs":[{"internalType":"address","name":"from","type":"address"},{"internalType":"address","name":"to","type":"address"},{"internalType":"uint256","name":"tokenId","type":"uint256"}],"name":"transferFrom","outputs":[],"stateMutability":"nonpayable","type":"function"},{"inputs":[{"internalType":"address","name":"newOwner","type":"address"}],"name":"transferOwnership","outputs":[],"stateMutability":"nonpayable","type":"function"},{"inputs":[{"internalType":"address","name":"newImplementation","type":"address"}],"name":"upgradeTo","outputs":[],"stateMutability":"nonpayable","type":"function"},{"inputs":[{"internalType":"address","name":"newImplementation","type":"address"},{"internalType":"bytes","name":"data","type":"bytes"}],"name":"upgradeToAndCall","outputs":[],"stateMutability":"payable","type":"function"},{"inputs":[],"name":"withdraw","outputs":[],"stateMutability":"payable","type":"function"}],"evm":{"bytecode":{"linkReferences":{},"object":"60a06040523073ffffffffffffffffffffffffffffffffffffffff1660809073ffffffffffffffffffffffffffffffffffffffff168152506040518060400160405280600581526020017f2e6a736f6e00000000000000000000000000000000000000000000000000000081525061016090816200007e9190620003e3565b503480156200008c57600080fd5b506200009d620000a360201b60201c565b620005ae565b600060019054906101000a900460ff1615620000f6576040517f08c379a0000000000000000000000000000000000000000000000000000000008152600401620000ed9062000551565b60405180910390fd5b60ff801660008054906101000a900460ff1660ff1614620001675760ff6000806101000a81548160ff021916908360ff1602179055507f7f26b83ff96e1f2b6a682f133852f6798a09c465da95921460cefb384740249860ff6040516200015e919062000591565b60405180910390a15b565b600081519050919050565b7f4e487b7100000000000000000000000000000000000000000000000000000000600052604160045260246000fd5b7f4e487b7100000000000000000000000000000000000000000000000000000000600052602260045260246000fd5b60006002820490506001821680620001eb57607f821691505b602082108103620002015762000200620001a3565b5b50919050565b60008190508160005260206000209050919050565b60006020601f8301049050919050565b600082821b905092915050565b6000600883026200026b7fffffffffffffffffffffffffffffffffffffffffffffffffffffffffffffffff826200022c565b6200027786836200022c565b95508019841693508086168417925050509392505050565b6000819050919050565b6000819050919050565b6000620002c4620002be620002b8846200028f565b62000299565b6200028f565b9050919050565b6000819050919050565b620002e083620002a3565b620002f8620002ef82620002cb565b84845462000239565b825550505050565b600090565b6200030f62000300565b6200031c818484620002d5565b505050565b5b8181101562000344576200033860008262000305565b60018101905062000322565b5050565b601f82111562000393576200035d8162000207565b62000368846200021c565b8101602085101562000378578190505b6200039062000387856200021c565b83018262000321565b50505b505050565b600082821c905092915050565b6000620003b86000198460080262000398565b1980831691505092915050565b6000620003d38383620003a5565b9150826002028217905092915050565b620003ee8262000169565b67ffffffffffffffff8111156200040a576200040962000174565b5b620004168254620001d2565b6200042382828562000348565b600060209050601f8311600181146200045b576000841562000446578287015190505b620004528582620003c5565b865550620004c2565b601f1984166200046b8662000207565b60005b8281101562000495578489015182556001820191506020850194506020810190506200046e565b86831015620004b55784890151620004b1601f891682620003a5565b8355505b6001600288020188555050505b505050505050565b600082825260208201905092915050565b7f496e697469616c697a61626c653a20636f6e747261637420697320696e69746960008201527f616c697a696e6700000000000000000000000000000000000000000000000000602082015250565b600062000539602783620004ca565b91506200054682620004db565b604082019050919050565b600060208201905081810360008301526200056c816200052a565b9050919050565b600060ff82169050919050565b6200058b8162000573565b82525050565b6000602082019050620005a8600083018462000580565b92915050565b608051617998620005e660003960008181611459015281816114e701528181611741015281816117cf015261187f01526179986000f3fe60806040526004361061031a5760003560e01c80638c4da52a116101ab578063c026759e116100f7578063e685d48a11610095578063f2fde38b1161006f578063f2fde38b14610b84578063f3891f1b14610bad578063f426502e14610bea578063fe23251814610c285761031a565b8063e685d48a14610ae0578063e985e9c514610b09578063ee5b926314610b465761031a565b8063d6e7b8e4116100d1578063d6e7b8e414610a38578063da3ef23f14610a63578063e4e6bea714610a8c578063e647e01a14610ab75761031a565b8063c026759e146109a7578063c6682862146109d0578063c87b56dd146109fb5761031a565b8063a42c7d2811610164578063bb0fd1471161013e578063bb0fd147146108ff578063bbced2c614610928578063bcc08b2c14610965578063bd3e19d41461097c5761031a565b8063a42c7d2814610870578063b674cf8f14610899578063b88d4fde146108d65761031a565b80638c4da52a146107745780638da5cb5b1461079f57806390ede4cb146107ca57806395d89b41146107f35780639be65a601461081e578063a22cb465146108475761031a565b80634f1ef2861161026a578063715018a6116102235780638129fc1c116101fd5780638129fc1c146106ca5780638462151c146106e1578063876f303b1461071e5780638b915c25146107495761031a565b8063715018a61461065f5780637c6b3f03146106765780637e1ac0a41461069f5761031a565b80634f1ef2861461054a57806352d1902d1461056657806355f804b3146105915780636352211e146105ba5780636c0360eb146105f757806370a08231146106225761031a565b806318160ddd116102d75780633ccfd60b116102b15780633ccfd60b146104c35780633e140474146104cd57806342842e0e146104f857806344a0d68a146105215761031a565b806318160ddd1461044657806323b872dd146104715780633659cfe61461049a5761031a565b806301ffc9a71461031f57806306fdde031461035c578063081812fc14610387578063095ea7b3146103c457806310e3163d146103ed57806317911cd014610409575b600080fd5b34801561032b57600080fd5b5061034660048036038101906103419190614df2565b610c51565b6040516103539190614e3a565b60405180910390f35b34801561036857600080fd5b50610371610d33565b60405161037e9190614ee5565b60405180910390f35b34801561039357600080fd5b506103ae60048036038101906103a99190614f3d565b610dc5565b6040516103bb9190614fab565b60405180910390f35b3480156103d057600080fd5b506103eb60048036038101906103e69190614ff2565b610e0b565b005b6104076004803603810190610402919061506c565b610f22565b005b34801561041557600080fd5b50610430600480360381019061042b9190615099565b611391565b60405161043d91906150d5565b60405180910390f35b34801561045257600080fd5b5061045b6113de565b60405161046891906150ff565b60405180910390f35b34801561047d57600080fd5b506104986004803603810190610493919061511a565b6113f7565b005b3480156104a657600080fd5b506104c160048036038101906104bc9190615099565b611457565b005b6104cb6115df565b005b3480156104d957600080fd5b506104e2611694565b6040516104ef9190614fab565b60405180910390f35b34801561050457600080fd5b5061051f600480360381019061051a919061511a565b6116bf565b005b34801561052d57600080fd5b5061054860048036038101906105439190614f3d565b6116df565b005b610564600480360381019061055f91906152a2565b61173f565b005b34801561057257600080fd5b5061057b61187b565b6040516105889190615317565b60405180910390f35b34801561059d57600080fd5b506105b860048036038101906105b391906153d3565b611934565b005b3480156105c657600080fd5b506105e160048036038101906105dc9190614f3d565b611950565b6040516105ee9190614fab565b60405180910390f35b34801561060357600080fd5b5061060c6119d6565b6040516106199190614ee5565b60405180910390f35b34801561062e57600080fd5b5061064960048036038101906106449190615099565b611a65565b60405161065691906150d5565b60405180910390f35b34801561066b57600080fd5b50610674611b1c565b005b34801561068257600080fd5b5061069d60048036038101906106989190615455565b611b30565b005b3480156106ab57600080fd5b506106b4611bbd565b6040516106c191906150d5565b60405180910390f35b3480156106d657600080fd5b506106df611bcb565b005b3480156106ed57600080fd5b5061070860048036038101906107039190615099565b612397565b6040516107159190615566565b60405180910390f35b34801561072a57600080fd5b50610733612566565b60405161074091906150ff565b60405180910390f35b34801561075557600080fd5b5061075e61257f565b60405161076b91906150d5565b60405180910390f35b34801561078057600080fd5b5061078961258a565b6040516107969190615646565b60405180910390f35b3480156107ab57600080fd5b506107b461260b565b6040516107c19190614fab565b60405180910390f35b3480156107d657600080fd5b506107f160048036038101906107ec919061506c565b612635565b005b3480156107ff57600080fd5b5061080861265e565b6040516108159190614ee5565b60405180910390f35b34801561082a57600080fd5b5061084560048036038101906108409190615099565b6126f0565b005b34801561085357600080fd5b5061086e60048036038101906108699190615694565b612833565b005b34801561087c57600080fd5b5061089760048036038101906108929190615099565b612849565b005b3480156108a557600080fd5b506108c060048036038101906108bb9190614f3d565b612896565b6040516108cd91906156e3565b60405180910390f35b3480156108e257600080fd5b506108fd60048036038101906108f891906156fe565b6128cb565b005b34801561090b57600080fd5b5061092660048036038101906109219190614ff2565b61292d565b005b34801561093457600080fd5b5061094f600480360381019061094a9190614f3d565b6129a8565b60405161095c91906150d5565b60405180910390f35b34801561097157600080fd5b5061097a6129c0565b005b34801561098857600080fd5b50610991612cae565b60405161099e91906150d5565b60405180910390f35b3480156109b357600080fd5b506109ce60048036038101906109c99190615838565b612cb9565b005b3480156109dc57600080fd5b506109e5612cd8565b6040516109f29190614ee5565b60405180910390f35b348015610a0757600080fd5b50610a226004803603810190610a1d9190614f3d565b612d67565b604051610a2f9190614ee5565b60405180910390f35b348015610a4457600080fd5b50610a4d612e12565b604051610a5a91906150ff565b60405180910390f35b348015610a6f57600080fd5b50610a8a6004803603810190610a8591906153d3565b612e2b565b005b348015610a9857600080fd5b50610aa1612e47565b604051610aae91906150d5565b60405180910390f35b348015610ac357600080fd5b50610ade6004803603810190610ad99190614f3d565b612e52565b005b348015610aec57600080fd5b50610b076004803603810190610b029190614f3d565b612e65565b005b348015610b1557600080fd5b50610b306004803603810190610b2b9190615866565b612e78565b604051610b3d9190614e3a565b60405180910390f35b348015610b5257600080fd5b50610b6d6004803603810190610b689190615969565b612f0d565b604051610b7b9291906159b2565b60405180910390f35b348015610b9057600080fd5b50610bab6004803603810190610ba69190615099565b613044565b005b348015610bb957600080fd5b50610bd46004803603810190610bcf919061506c565b6130c7565b604051610be191906150ff565b60405180910390f35b348015610bf657600080fd5b50610c116004803603810190610c0c91906159db565b61310d565b604051610c1f929190615a08565b60405180910390f35b348015610c3457600080fd5b50610c4f6004803603810190610c4a9190615a31565b613171565b005b60007f80ac58cd000000000000000000000000000000000000000000000000000000007bffffffffffffffffffffffffffffffffffffffffffffffffffffffff1916827bffffffffffffffffffffffffffffffffffffffffffffffffffffffff19161480610d1c57507f5b5e139f000000000000000000000000000000000000000000000000000000007bffffffffffffffffffffffffffffffffffffffffffffffffffffffff1916827bffffffffffffffffffffffffffffffffffffffffffffffffffffffff1916145b80610d2c5750610d2b826133c4565b5b9050919050565b606060fb8054610d4290615aa0565b80601f0160208091040260200160405190810160405280929190818152602001828054610d6e90615aa0565b8015610dbb5780601f10610d9057610100808354040283529160200191610dbb565b820191906000526020600020905b815481529060010190602001808311610d9e57829003601f168201915b5050505050905090565b6000610dd08261342e565b60ff600083815260200190815260200160002060009054906101000a900473ffffffffffffffffffffffffffffffffffffffff169050919050565b6000610e1682611950565b90508073ffffffffffffffffffffffffffffffffffffffff168373ffffffffffffffffffffffffffffffffffffffff1603610e86576040517f08c379a0000000000000000000000000000000000000000000000000000000008152600401610e7d90615b43565b60405180910390fd5b8073ffffffffffffffffffffffffffffffffffffffff16610ea5613479565b73ffffffffffffffffffffffffffffffffffffffff161480610ed45750610ed381610ece613479565b612e78565b5b610f13576040517f08c379a0000000000000000000000000000000000000000000000000000000008152600401610f0a90615bd5565b60405180910390fd5b610f1d8383613481565b505050565b610f2a61353a565b42610165541115610f67576040517ff7d3556b00000000000000000000000000000000000000000000000000000000815260040160405180910390fd5b3273ffffffffffffffffffffffffffffffffffffffff163373ffffffffffffffffffffffffffffffffffffffff1614610fcc576040517f192e6d1600000000000000000000000000000000000000000000000000000000815260040160405180910390fd5b600061016260009054906101000a900461ffff16905060008261ffff1603611020576040517f47baadb900000000000000000000000000000000000000000000000000000000815260040160405180910390fd5b61016260049054906101000a900461ffff1661ffff168261ffff161115611073576040517f0b7007e400000000000000000000000000000000000000000000000000000000815260040160405180910390fd5b61016260029054906101000a900461ffff1661ffff1682826110959190615c24565b61ffff1611156110d1576040517fc4f28e8100000000000000000000000000000000000000000000000000000000815260040160405180910390fd5b6110de8261ffff166129a8565b341015611117576040517f4130c7a000000000000000000000000000000000000000000000000000000000815260040160405180910390fd5b600061016460009054906101000a900473ffffffffffffffffffffffffffffffffffffffff1673ffffffffffffffffffffffffffffffffffffffff163460405161116090615c8b565b60006040518083038185875af1925050503d806000811461119d576040519150601f19603f3d011682016040523d82523d6000602084013e6111a2565b606091505b50509050806111dd576040517f0b4971fe00000000000000000000000000000000000000000000000000000000815260040160405180910390fd5b8261016260008282829054906101000a900461ffff166111fd9190615c24565b92506101000a81548161ffff021916908361ffff160217905550600080600090505b8461ffff168110156113345761123361358b565b915061017260003373ffffffffffffffffffffffffffffffffffffffff1673ffffffffffffffffffffffffffffffffffffffff1681526020019081526020016000206101678361ffff168154811061128e5761128d615ca0565b5b90600052602060002090601091828204019190066002029054906101000a900461ffff1690806001815401808255809150506001900390600052602060002090601091828204019190066002029091909190916101000a81548161ffff021916908361ffff1602179055506113068261ffff166135b6565b6004610166600082825461131a9190615ccf565b92505081905550808061132c90615d03565b91505061121f565b503373ffffffffffffffffffffffffffffffffffffffff167f340a5dd5422f528cdb4f6e8bcc551fd61b8c114b12ae9403eef2a63790efd0ea8560405161137b9190615d86565b60405180910390a250505061138e6136c8565b50565b600061017260008373ffffffffffffffffffffffffffffffffffffffff1673ffffffffffffffffffffffffffffffffffffffff168152602001908152602001600020805490509050919050565b600061016260029054906101000a900461ffff16905090565b611408611402613479565b826136d3565b611447576040517f08c379a000000000000000000000000000000000000000000000000000000000815260040161143e90615e13565b60405180910390fd5b611452838383613768565b505050565b7f000000000000000000000000000000000000000000000000000000000000000073ffffffffffffffffffffffffffffffffffffffff163073ffffffffffffffffffffffffffffffffffffffff16036114e5576040517f08c379a00000000000000000000000000000000000000000000000000000000081526004016114dc90615ea5565b60405180910390fd5b7f000000000000000000000000000000000000000000000000000000000000000073ffffffffffffffffffffffffffffffffffffffff16611524613a61565b73ffffffffffffffffffffffffffffffffffffffff161461157a576040517f08c379a000000000000000000000000000000000000000000000000000000000815260040161157190615f37565b60405180910390fd5b61158381613ab8565b6115dc81600067ffffffffffffffff8111156115a2576115a1615177565b5b6040519080825280601f01601f1916602001820160405280156115d45781602001600182028036833780820191505090505b506000613ac3565b50565b6115e7613c31565b60006115f161260b565b73ffffffffffffffffffffffffffffffffffffffff164760405161161490615c8b565b60006040518083038185875af1925050503d8060008114611651576040519150601f19603f3d011682016040523d82523d6000602084013e611656565b606091505b5050905080611691576040517f0b4971fe00000000000000000000000000000000000000000000000000000000815260040160405180910390fd5b50565b600061016460009054906101000a900473ffffffffffffffffffffffffffffffffffffffff16905090565b6116da838383604051806020016040528060008152506128cb565b505050565b6116e7613c31565b61016354610161541061173457610163546040517f37ef31f800000000000000000000000000000000000000000000000000000000815260040161172b91906150d5565b60405180910390fd5b806101618190555050565b7f000000000000000000000000000000000000000000000000000000000000000073ffffffffffffffffffffffffffffffffffffffff163073ffffffffffffffffffffffffffffffffffffffff16036117cd576040517f08c379a00000000000000000000000000000000000000000000000000000000081526004016117c490615ea5565b60405180910390fd5b7f000000000000000000000000000000000000000000000000000000000000000073ffffffffffffffffffffffffffffffffffffffff1661180c613a61565b73ffffffffffffffffffffffffffffffffffffffff1614611862576040517f08c379a000000000000000000000000000000000000000000000000000000000815260040161185990615f37565b60405180910390fd5b61186b82613ab8565b61187782826001613ac3565b5050565b60007f000000000000000000000000000000000000000000000000000000000000000073ffffffffffffffffffffffffffffffffffffffff163073ffffffffffffffffffffffffffffffffffffffff161461190b576040517f08c379a000000000000000000000000000000000000000000000000000000000815260040161190290615fc9565b60405180910390fd5b7f360894a13ba1a3210667c828492db98dca3e2076cc3735a920a3ca505d382bbc60001b905090565b61193c613c31565b8061015f908161194c919061618b565b5050565b60008061195c83613caf565b9050600073ffffffffffffffffffffffffffffffffffffffff168173ffffffffffffffffffffffffffffffffffffffff16036119cd576040517f08c379a00000000000000000000000000000000000000000000000000000000081526004016119c4906162a9565b60405180910390fd5b80915050919050565b61015f80546119e490615aa0565b80601f0160208091040260200160405190810160405280929190818152602001828054611a1090615aa0565b8015611a5d5780601f10611a3257610100808354040283529160200191611a5d565b820191906000526020600020905b815481529060010190602001808311611a4057829003601f168201915b505050505081565b60008073ffffffffffffffffffffffffffffffffffffffff168273ffffffffffffffffffffffffffffffffffffffff1603611ad5576040517f08c379a0000000000000000000000000000000000000000000000000000000008152600401611acc9061633b565b60405180910390fd5b60fe60008373ffffffffffffffffffffffffffffffffffffffff1673ffffffffffffffffffffffffffffffffffffffff168152602001908152602001600020549050919050565b611b24613c31565b611b2e6000613cec565b565b611b38613c31565b60405180604001604052808361ffff1681526020018261ffff1681525061017360008560ff1660ff16815260200190815260200160002060008201518160000160006101000a81548161ffff021916908361ffff16021790555060208201518160000160026101000a81548161ffff021916908361ffff160217905550905050505050565b600061016780549050905090565b60008060019054906101000a900460ff16159050808015611bfc5750600160008054906101000a900460ff1660ff16105b80611c295750611c0b30613db2565b158015611c285750600160008054906101000a900460ff1660ff16145b5b611c68576040517f08c379a0000000000000000000000000000000000000000000000000000000008152600401611c5f906163cd565b60405180910390fd5b60016000806101000a81548160ff021916908360ff1602179055508015611ca5576001600060016101000a81548160ff0219169083151502179055505b611cad613dd5565b611cb5613e2e565b611d296040518060400160405280601381526020017f446976697472656e6420466163746f72696573000000000000000000000000008152506040518060400160405280600481526020017f4641435400000000000000000000000000000000000000000000000000000000815250613e87565b611d31613ee4565b611d5260405180608001604052806044815260200161791f60449139611934565b620186a061016681905550600061016260006101000a81548161ffff021916908361ffff16021790555061012b61016260026101000a81548161ffff021916908361ffff160217905550606461016181905550670214e8348c4f000061016381905550600a61016260046101000a81548161ffff021916908361ffff160217905550733d83988bed2e59de9d65c0bb0ca42ab133527a7461016460006101000a81548173ffffffffffffffffffffffffffffffffffffffff021916908373ffffffffffffffffffffffffffffffffffffffff1602179055506064610165819055506000600190505b61016260029054906101000a900461ffff1661ffff168161ffff1611611eb8576101678190806001815401808255809150506001900390600052602060002090601091828204019190066002029091909190916101000a81548161ffff021916908361ffff1602179055508080611eb0906163ed565b915050611e3a565b506040518060400160405280601961ffff168152602001600a61ffff168152506101736000600160ff16815260200190815260200160002060008201518160000160006101000a81548161ffff021916908361ffff16021790555060208201518160000160026101000a81548161ffff021916908361ffff1602179055509050506040518060400160405280603261ffff168152602001601461ffff168152506101736000600260ff16815260200190815260200160002060008201518160000160006101000a81548161ffff021916908361ffff16021790555060208201518160000160026101000a81548161ffff021916908361ffff1602179055509050506040518060400160405280604b61ffff168152602001601e61ffff168152506101736000600360ff16815260200190815260200160002060008201518160000160006101000a81548161ffff021916908361ffff16021790555060208201518160000160026101000a81548161ffff021916908361ffff1602179055509050506040518060400160405280606461ffff168152602001602861ffff168152506101736000600460ff16815260200190815260200160002060008201518160000160006101000a81548161ffff021916908361ffff16021790555060208201518160000160026101000a81548161ffff021916908361ffff1602179055509050506040518060400160405280607d61ffff168152602001603261ffff168152506101736000600560ff16815260200190815260200160002060008201518160000160006101000a81548161ffff021916908361ffff16021790555060208201518160000160026101000a81548161ffff021916908361ffff1602179055509050506040518060400160405280609661ffff168152602001604b61ffff168152506101736000600660ff16815260200190815260200160002060008201518160000160006101000a81548161ffff021916908361ffff16021790555060208201518160000160026101000a81548161ffff021916908361ffff160217905550905050604051806040016040528060c861ffff168152602001606461ffff168152506101736000600760ff16815260200190815260200160002060008201518160000160006101000a81548161ffff021916908361ffff16021790555060208201518160000160026101000a81548161ffff021916908361ffff160217905550905050604051806040016040528060fa61ffff16815260200160c861ffff168152506101736000600860ff16815260200190815260200160002060008201518160000160006101000a81548161ffff021916908361ffff16021790555060208201518160000160026101000a81548161ffff021916908361ffff16021790555090505060405180604001604052806101f461ffff16815260200161012c61ffff168152506101736000600960ff16815260200190815260200160002060008201518160000160006101000a81548161ffff021916908361ffff16021790555060208201518160000160026101000a81548161ffff021916908361ffff16021790555090505080156123945760008060016101000a81548160ff0219169083151502179055507f7f26b83ff96e1f2b6a682f133852f6798a09c465da95921460cefb3847402498600160405161238b9190616452565b60405180910390a15b50565b606060006123a483611a65565b90506000810361240057600067ffffffffffffffff8111156123c9576123c8615177565b5b6040519080825280602002602001820160405280156123f75781602001602082028036833780820191505090505b50915050612561565b60008167ffffffffffffffff81111561241c5761241b615177565b5b60405190808252806020026020018201604052801561244a5781602001602082028036833780820191505090505b50905060006124576113de565b61ffff1690506000805b82811015612558573073ffffffffffffffffffffffffffffffffffffffff16636352211e826040518263ffffffff1660e01b81526004016124a291906150d5565b602060405180830381865afa9250505080156124dc57506040513d601f19601f820116820180604052508101906124d99190616482565b60015b15612545578773ffffffffffffffffffffffffffffffffffffffff168173ffffffffffffffffffffffffffffffffffffffff1603612543578185848151811061252857612527615ca0565b5b602002602001018181525050828061253f90615d03565b9350505b505b808061255090615d03565b915050612461565b50829450505050505b919050565b600061016260009054906101000a900461ffff16905090565b600061016554905090565b606061016780548060200260200160405190810160405280929190818152602001828054801561260157602002820191906000526020600020906000905b82829054906101000a900461ffff1661ffff16815260200190600201906020826001010492830192600103820291508084116125c85790505b5050505050905090565b6000609760009054906101000a900473ffffffffffffffffffffffffffffffffffffffff16905090565b61263d613c31565b8061016260046101000a81548161ffff021916908361ffff16021790555050565b606060fc805461266d90615aa0565b80601f016020809104026020016040519081016040528092919081815260200182805461269990615aa0565b80156126e65780601f106126bb576101008083540402835291602001916126e6565b820191906000526020600020905b8154815290600101906020018083116126c957829003601f168201915b5050505050905090565b6126f8613c31565b60008173ffffffffffffffffffffffffffffffffffffffff166370a08231306040518263ffffffff1660e01b81526004016127339190614fab565b602060405180830381865afa158015612750573d6000803e3d6000fd5b505050506040513d601f19601f8201168201806040525081019061277491906164c4565b9050600081036127b0576040517fa89cf92700000000000000000000000000000000000000000000000000000000815260040160405180910390fd5b8173ffffffffffffffffffffffffffffffffffffffff1663a9059cbb33836040518363ffffffff1660e01b81526004016127eb9291906164f1565b6020604051808303816000875af115801561280a573d6000803e3d6000fd5b505050506040513d601f19601f8201168201806040525081019061282e919061652f565b505050565b61284561283e613479565b8383613f35565b5050565b612851613c31565b8061016460006101000a81548173ffffffffffffffffffffffffffffffffffffffff021916908373ffffffffffffffffffffffffffffffffffffffff16021790555050565b60006101688261012b81106128ae576128ad615ca0565b5b602091828204019190069054906101000a900460ff169050919050565b6128dc6128d6613479565b836136d3565b61291b576040517f08c379a000000000000000000000000000000000000000000000000000000000815260040161291290615e13565b60405180910390fd5b612927848484846140a2565b50505050565b612935613c31565b8173ffffffffffffffffffffffffffffffffffffffff166323b872dd3033846040518463ffffffff1660e01b81526004016129729392919061655c565b600060405180830381600087803b15801561298c57600080fd5b505af11580156129a0573d6000803e3d6000fd5b505050505050565b600061016154826129b99190616593565b9050919050565b6129c861353a565b42610165541115612a05576040517ff7d3556b00000000000000000000000000000000000000000000000000000000815260040160405180910390fd5b3273ffffffffffffffffffffffffffffffffffffffff163373ffffffffffffffffffffffffffffffffffffffff1614612a6a576040517f192e6d1600000000000000000000000000000000000000000000000000000000815260040160405180910390fd5b600061017260003373ffffffffffffffffffffffffffffffffffffffff1673ffffffffffffffffffffffffffffffffffffffff16815260200190815260200160002080549050905060008103612aec576040517f625b9d6b00000000000000000000000000000000000000000000000000000000815260040160405180910390fd5b600061017260003373ffffffffffffffffffffffffffffffffffffffff1673ffffffffffffffffffffffffffffffffffffffff168152602001908152602001600020805480602002602001604051908101604052809291908181526020018280548015612ba057602002820191906000526020600020906000905b82829054906101000a900461ffff1661ffff1681526020019060020190602082600101049283019260010382029150808411612b675790505b5050505050905060005b82811015612c0757612bd9828281518110612bc857612bc7615ca0565b5b602002602001015161ffff166140fe565b60036101666000828254612bed91906165d5565b925050819055508080612bff90615d03565b915050612baa565b5061017260003373ffffffffffffffffffffffffffffffffffffffff1673ffffffffffffffffffffffffffffffffffffffff1681526020019081526020016000206000612c549190614ca6565b3373ffffffffffffffffffffffffffffffffffffffff167f62ed7d60b5d66196410e11f0431f43dd63704aec0738ce89c79675665312177882604051612c9a9190615646565b60405180910390a25050612cac6136c8565b565b600061016154905090565b612cc1613c31565b806101689061012b612cd4929190614cce565b5050565b6101608054612ce690615aa0565b80601f0160208091040260200160405190810160405280929190818152602001828054612d1290615aa0565b8015612d5f5780601f10612d3457610100808354040283529160200191612d5f565b820191906000526020600020905b815481529060010190602001808311612d4257829003601f168201915b505050505081565b6060612d728261410b565b612db1576040517f08c379a0000000000000000000000000000000000000000000000000000000008152600401612da89061667b565b60405180910390fd5b6000612dbb61414c565b90506000815111612ddb5760405180602001604052806000815250612e0a565b80612de5846141df565b610160604051602001612dfa9392919061675a565b6040516020818303038152906040525b915050919050565b600061016260049054906101000a900461ffff16905090565b612e33613c31565b806101609081612e43919061618b565b5050565b600061016354905090565b612e5a613c31565b806101638190555050565b612e6d613c31565b806101658190555050565b600061010060008473ffffffffffffffffffffffffffffffffffffffff1673ffffffffffffffffffffffffffffffffffffffff16815260200190815260200160002060008373ffffffffffffffffffffffffffffffffffffffff1673ffffffffffffffffffffffffffffffffffffffff16815260200190815260200160002060009054906101000a900460ff16905092915050565b60008060008060005b85518110156130365760006001878381518110612f3657612f35615ca0565b5b6020026020010151612f48919061678b565b905061017360006101688361ffff1661012b8110612f6957612f68615ca0565b5b602091828204019190069054906101000a900460ff1660ff1660ff16815260200190815260200160002060000160009054906101000a900461ffff1661ffff1684612fb49190615ccf565b935061017360006101688361ffff1661012b8110612fd557612fd4615ca0565b5b602091828204019190069054906101000a900460ff1660ff1660ff16815260200190815260200160002060000160029054906101000a900461ffff1661ffff16836130209190615ccf565b925050808061302e90615d03565b915050612f16565b508181935093505050915091565b61304c613c31565b600073ffffffffffffffffffffffffffffffffffffffff168173ffffffffffffffffffffffffffffffffffffffff16036130bb576040517f08c379a00000000000000000000000000000000000000000000000000000000081526004016130b290616833565b60405180910390fd5b6130c481613cec565b50565b60006101678261ffff16815481106130e2576130e1615ca0565b5b90600052602060002090601091828204019190066002029054906101000a900461ffff169050919050565b60008061017360008460ff1660ff16815260200190815260200160002060000160009054906101000a900461ffff1661017360008560ff1660ff16815260200190815260200160002060000160029054906101000a900461ffff1691509150915091565b613179613c31565b3273ffffffffffffffffffffffffffffffffffffffff163373ffffffffffffffffffffffffffffffffffffffff16146131de576040517f192e6d1600000000000000000000000000000000000000000000000000000000815260040160405180910390fd5b600061016260009054906101000a900461ffff16905060008361ffff1603613232576040517f47baadb900000000000000000000000000000000000000000000000000000000815260040160405180910390fd5b61016260029054906101000a900461ffff1661ffff1683826132549190615c24565b61ffff161115613290576040517fc4f28e8100000000000000000000000000000000000000000000000000000000815260040160405180910390fd5b8261016260008282829054906101000a900461ffff166132b09190615c24565b92506101000a81548161ffff021916908361ffff160217905550600080600090505b8461ffff1681101561336d576132e661358b565b9150613332846101678461ffff168154811061330557613304615ca0565b5b90600052602060002090601091828204019190066002029054906101000a900461ffff1661ffff166142ad565b61333f8261ffff166135b6565b600261016660008282546133539190615ccf565b92505081905550808061336590615d03565b9150506132d2565b508273ffffffffffffffffffffffffffffffffffffffff167f62ed7d60b5d66196410e11f0431f43dd63704aec0738ce89c7967566531217786101676040516133b69190616f47565b60405180910390a250505050565b60007f01ffc9a7000000000000000000000000000000000000000000000000000000007bffffffffffffffffffffffffffffffffffffffffffffffffffffffff1916827bffffffffffffffffffffffffffffffffffffffffffffffffffffffff1916149050919050565b6134378161410b565b613476576040517f08c379a000000000000000000000000000000000000000000000000000000000815260040161346d906162a9565b60405180910390fd5b50565b600033905090565b8160ff600083815260200190815260200160002060006101000a81548173ffffffffffffffffffffffffffffffffffffffff021916908373ffffffffffffffffffffffffffffffffffffffff160217905550808273ffffffffffffffffffffffffffffffffffffffff166134f483611950565b73ffffffffffffffffffffffffffffffffffffffff167f8c5be1e5ebec7d5bd14f71427d1e84f3dd0314c0f7b2291e5b200ac8c7c3b92560405160405180910390a45050565b600261012d5403613580576040517f08c379a000000000000000000000000000000000000000000000000000000000815260040161357790616fb5565b60405180910390fd5b600261012d81905550565b6000806135966142cb565b9050600061016780549050826135ac9190617004565b9050809250505090565b6101678054905081106135f5576040517f47baadb900000000000000000000000000000000000000000000000000000000815260040160405180910390fd5b61016760016101678054905061360b91906165d5565b8154811061361c5761361b615ca0565b5b90600052602060002090601091828204019190066002029054906101000a900461ffff16610167828154811061365557613654615ca0565b5b90600052602060002090601091828204019190066002026101000a81548161ffff021916908361ffff16021790555061016780548061369757613696617035565b5b60019003818190600052602060002090601091828204019190066002026101000a81549061ffff0219169055905550565b600161012d81905550565b6000806136df83611950565b90508073ffffffffffffffffffffffffffffffffffffffff168473ffffffffffffffffffffffffffffffffffffffff16148061372157506137208185612e78565b5b8061375f57508373ffffffffffffffffffffffffffffffffffffffff1661374784610dc5565b73ffffffffffffffffffffffffffffffffffffffff16145b91505092915050565b8273ffffffffffffffffffffffffffffffffffffffff1661378882611950565b73ffffffffffffffffffffffffffffffffffffffff16146137de576040517f08c379a00000000000000000000000000000000000000000000000000000000081526004016137d5906170d6565b60405180910390fd5b600073ffffffffffffffffffffffffffffffffffffffff168273ffffffffffffffffffffffffffffffffffffffff160361384d576040517f08c379a000000000000000000000000000000000000000000000000000000000815260040161384490617168565b60405180910390fd5b61385a838383600161435a565b8273ffffffffffffffffffffffffffffffffffffffff1661387a82611950565b73ffffffffffffffffffffffffffffffffffffffff16146138d0576040517f08c379a00000000000000000000000000000000000000000000000000000000081526004016138c7906170d6565b60405180910390fd5b60ff600082815260200190815260200160002060006101000a81549073ffffffffffffffffffffffffffffffffffffffff0219169055600160fe60008573ffffffffffffffffffffffffffffffffffffffff1673ffffffffffffffffffffffffffffffffffffffff16815260200190815260200160002060008282540392505081905550600160fe60008473ffffffffffffffffffffffffffffffffffffffff1673ffffffffffffffffffffffffffffffffffffffff168152602001908152602001600020600082825401925050819055508160fd600083815260200190815260200160002060006101000a81548173ffffffffffffffffffffffffffffffffffffffff021916908373ffffffffffffffffffffffffffffffffffffffff160217905550808273ffffffffffffffffffffffffffffffffffffffff168473ffffffffffffffffffffffffffffffffffffffff167fddf252ad1be2c89b69c2b068fc378daa952ba7f163c4a11628f55a4df523b3ef60405160405180910390a4613a5c8383836001614360565b505050565b6000613a8f7f360894a13ba1a3210667c828492db98dca3e2076cc3735a920a3ca505d382bbc60001b614366565b60000160009054906101000a900473ffffffffffffffffffffffffffffffffffffffff16905090565b613ac0613c31565b50565b613aef7f4910fdfa16fed3260ed0e7147f7cc6da11a60208b5b9406d12a635614ffd914360001b614370565b60000160009054906101000a900460ff1615613b1357613b0e8361437a565b613c2c565b8273ffffffffffffffffffffffffffffffffffffffff166352d1902d6040518163ffffffff1660e01b8152600401602060405180830381865afa925050508015613b7b57506040513d601f19601f82011682018060405250810190613b7891906171b4565b60015b613bba576040517f08c379a0000000000000000000000000000000000000000000000000000000008152600401613bb190617253565b60405180910390fd5b7f360894a13ba1a3210667c828492db98dca3e2076cc3735a920a3ca505d382bbc60001b8114613c1f576040517f08c379a0000000000000000000000000000000000000000000000000000000008152600401613c16906172e5565b60405180910390fd5b50613c2b838383614433565b5b505050565b613c39613479565b73ffffffffffffffffffffffffffffffffffffffff16613c5761260b565b73ffffffffffffffffffffffffffffffffffffffff1614613cad576040517f08c379a0000000000000000000000000000000000000000000000000000000008152600401613ca490617351565b60405180910390fd5b565b600060fd600083815260200190815260200160002060009054906101000a900473ffffffffffffffffffffffffffffffffffffffff169050919050565b6000609760009054906101000a900473ffffffffffffffffffffffffffffffffffffffff16905081609760006101000a81548173ffffffffffffffffffffffffffffffffffffffff021916908373ffffffffffffffffffffffffffffffffffffffff1602179055508173ffffffffffffffffffffffffffffffffffffffff168173ffffffffffffffffffffffffffffffffffffffff167f8be0079c531659141344cd1fd0a4f28419497f9722a3daafe3b4186f6b6457e060405160405180910390a35050565b6000808273ffffffffffffffffffffffffffffffffffffffff163b119050919050565b600060019054906101000a900460ff16613e24576040517f08c379a0000000000000000000000000000000000000000000000000000000008152600401613e1b906173e3565b60405180910390fd5b613e2c61445f565b565b600060019054906101000a900460ff16613e7d576040517f08c379a0000000000000000000000000000000000000000000000000000000008152600401613e74906173e3565b60405180910390fd5b613e856144c0565b565b600060019054906101000a900460ff16613ed6576040517f08c379a0000000000000000000000000000000000000000000000000000000008152600401613ecd906173e3565b60405180910390fd5b613ee0828261451a565b5050565b600060019054906101000a900460ff16613f33576040517f08c379a0000000000000000000000000000000000000000000000000000000008152600401613f2a906173e3565b60405180910390fd5b565b8173ffffffffffffffffffffffffffffffffffffffff168373ffffffffffffffffffffffffffffffffffffffff1603613fa3576040517f08c379a0000000000000000000000000000000000000000000000000000000008152600401613f9a9061744f565b60405180910390fd5b8061010060008573ffffffffffffffffffffffffffffffffffffffff1673ffffffffffffffffffffffffffffffffffffffff16815260200190815260200160002060008473ffffffffffffffffffffffffffffffffffffffff1673ffffffffffffffffffffffffffffffffffffffff16815260200190815260200160002060006101000a81548160ff0219169083151502179055508173ffffffffffffffffffffffffffffffffffffffff168373ffffffffffffffffffffffffffffffffffffffff167f17307eab39ab6107e8899845ad3d59bd9653f200f220920489ca2b5937696c31836040516140959190614e3a565b60405180910390a3505050565b6140ad848484613768565b6140b98484848461458d565b6140f8576040517f08c379a00000000000000000000000000000000000000000000000000000000081526004016140ef906174e1565b60405180910390fd5b50505050565b61410833826142ad565b50565b60008073ffffffffffffffffffffffffffffffffffffffff1661412d83613caf565b73ffffffffffffffffffffffffffffffffffffffff1614159050919050565b606061015f805461415c90615aa0565b80601f016020809104026020016040519081016040528092919081815260200182805461418890615aa0565b80156141d55780601f106141aa576101008083540402835291602001916141d5565b820191906000526020600020905b8154815290600101906020018083116141b857829003601f168201915b5050505050905090565b6060600060016141ee84614714565b01905060008167ffffffffffffffff81111561420d5761420c615177565b5b6040519080825280601f01601f19166020018201604052801561423f5781602001600182028036833780820191505090505b509050600082602001820190505b6001156142a2578080600190039150507f3031323334353637383961626364656600000000000000000000000000000000600a86061a8153600a858161429657614295616fd5565b5b0494506000850361424d575b819350505050919050565b6142c7828260405180602001604052806000815250614867565b5050565b6000804142433373ffffffffffffffffffffffffffffffffffffffff16315a6040516020016142fe95949392919061757c565b6040516020818303038152906040528051906020012060001c9050610166548161432891906165d5565b60405160200161433891906175db565b6040516020818303038152906040528051906020012060001c90508091505090565b50505050565b50505050565b6000819050919050565b6000819050919050565b61438381613db2565b6143c2576040517f08c379a00000000000000000000000000000000000000000000000000000000081526004016143b990617668565b60405180910390fd5b806143ef7f360894a13ba1a3210667c828492db98dca3e2076cc3735a920a3ca505d382bbc60001b614366565b60000160006101000a81548173ffffffffffffffffffffffffffffffffffffffff021916908373ffffffffffffffffffffffffffffffffffffffff16021790555050565b61443c836148c2565b6000825111806144495750805b1561445a576144588383614911565b505b505050565b600060019054906101000a900460ff166144ae576040517f08c379a00000000000000000000000000000000000000000000000000000000081526004016144a5906173e3565b60405180910390fd5b6144be6144b9613479565b613cec565b565b600060019054906101000a900460ff1661450f576040517f08c379a0000000000000000000000000000000000000000000000000000000008152600401614506906173e3565b60405180910390fd5b600161012d81905550565b600060019054906101000a900460ff16614569576040517f08c379a0000000000000000000000000000000000000000000000000000000008152600401614560906173e3565b60405180910390fd5b8160fb9081614578919061618b565b508060fc9081614588919061618b565b505050565b60006145ae8473ffffffffffffffffffffffffffffffffffffffff16613db2565b15614707578373ffffffffffffffffffffffffffffffffffffffff1663150b7a026145d7613479565b8786866040518563ffffffff1660e01b81526004016145f994939291906176dd565b6020604051808303816000875af192505050801561463557506040513d601f19601f82011682018060405250810190614632919061773e565b60015b6146b7573d8060008114614665576040519150601f19603f3d011682016040523d82523d6000602084013e61466a565b606091505b5060008151036146af576040517f08c379a00000000000000000000000000000000000000000000000000000000081526004016146a6906174e1565b60405180910390fd5b805181602001fd5b63150b7a0260e01b7bffffffffffffffffffffffffffffffffffffffffffffffffffffffff1916817bffffffffffffffffffffffffffffffffffffffffffffffffffffffff19161491505061470c565b600190505b949350505050565b600080600090507a184f03e93ff9f4daa797ed6e38ed64bf6a1f0100000000000000008310614772577a184f03e93ff9f4daa797ed6e38ed64bf6a1f010000000000000000838161476857614767616fd5565b5b0492506040810190505b6d04ee2d6d415b85acef810000000083106147af576d04ee2d6d415b85acef810000000083816147a5576147a4616fd5565b5b0492506020810190505b662386f26fc1000083106147de57662386f26fc1000083816147d4576147d3616fd5565b5b0492506010810190505b6305f5e1008310614807576305f5e10083816147fd576147fc616fd5565b5b0492506008810190505b612710831061482c57612710838161482257614821616fd5565b5b0492506004810190505b6064831061484f576064838161484557614844616fd5565b5b0492506002810190505b600a831061485e576001810190505b80915050919050565b614871838361493e565b61487e600084848461458d565b6148bd576040517f08c379a00000000000000000000000000000000000000000000000000000000081526004016148b4906174e1565b60405180910390fd5b505050565b6148cb8161437a565b8073ffffffffffffffffffffffffffffffffffffffff167fbc7cd75a20ee27fd9adebab32041f755214dbc6bffa90cc0225b39da2e5c2d3b60405160405180910390a250565b606061493683836040518060600160405280602781526020016178f860279139614b5b565b905092915050565b600073ffffffffffffffffffffffffffffffffffffffff168273ffffffffffffffffffffffffffffffffffffffff16036149ad576040517f08c379a00000000000000000000000000000000000000000000000000000000081526004016149a4906177b7565b60405180910390fd5b6149b68161410b565b156149f6576040517f08c379a00000000000000000000000000000000000000000000000000000000081526004016149ed90617823565b60405180910390fd5b614a0460008383600161435a565b614a0d8161410b565b15614a4d576040517f08c379a0000000000000000000000000000000000000000000000000000000008152600401614a4490617823565b60405180910390fd5b600160fe60008473ffffffffffffffffffffffffffffffffffffffff1673ffffffffffffffffffffffffffffffffffffffff168152602001908152602001600020600082825401925050819055508160fd600083815260200190815260200160002060006101000a81548173ffffffffffffffffffffffffffffffffffffffff021916908373ffffffffffffffffffffffffffffffffffffffff160217905550808273ffffffffffffffffffffffffffffffffffffffff16600073ffffffffffffffffffffffffffffffffffffffff167fddf252ad1be2c89b69c2b068fc378daa952ba7f163c4a11628f55a4df523b3ef60405160405180910390a4614b57600083836001614360565b5050565b60606000808573ffffffffffffffffffffffffffffffffffffffff1685604051614b859190617874565b600060405180830381855af49150503d8060008114614bc0576040519150601f19603f3d011682016040523d82523d6000602084013e614bc5565b606091505b5091509150614bd686838387614be1565b925050509392505050565b60608315614c43576000835103614c3b57614bfb85613db2565b614c3a576040517f08c379a0000000000000000000000000000000000000000000000000000000008152600401614c31906178d7565b60405180910390fd5b5b829050614c4e565b614c4d8383614c56565b5b949350505050565b600082511115614c695781518083602001fd5b806040517f08c379a0000000000000000000000000000000000000000000000000000000008152600401614c9d9190614ee5565b60405180910390fd5b50805460008255600f016010900490600052602060002090810190614ccb9190614d69565b50565b8261012b601f01602090048101928215614d585791602002820160005b83821115614d2957835183826101000a81548160ff021916908360ff1602179055509260200192600101602081600001049283019260010302614ceb565b8015614d565782816101000a81549060ff0219169055600101602081600001049283019260010302614d29565b505b509050614d659190614d69565b5090565b5b80821115614d82576000816000905550600101614d6a565b5090565b6000604051905090565b600080fd5b600080fd5b60007fffffffff0000000000000000000000000000000000000000000000000000000082169050919050565b614dcf81614d9a565b8114614dda57600080fd5b50565b600081359050614dec81614dc6565b92915050565b600060208284031215614e0857614e07614d90565b5b6000614e1684828501614ddd565b91505092915050565b60008115159050919050565b614e3481614e1f565b82525050565b6000602082019050614e4f6000830184614e2b565b92915050565b600081519050919050565b600082825260208201905092915050565b60005b83811015614e8f578082015181840152602081019050614e74565b60008484015250505050565b6000601f19601f8301169050919050565b6000614eb782614e55565b614ec18185614e60565b9350614ed1818560208601614e71565b614eda81614e9b565b840191505092915050565b60006020820190508181036000830152614eff8184614eac565b905092915050565b6000819050919050565b614f1a81614f07565b8114614f2557600080fd5b50565b600081359050614f3781614f11565b92915050565b600060208284031215614f5357614f52614d90565b5b6000614f6184828501614f28565b91505092915050565b600073ffffffffffffffffffffffffffffffffffffffff82169050919050565b6000614f9582614f6a565b9050919050565b614fa581614f8a565b82525050565b6000602082019050614fc06000830184614f9c565b92915050565b614fcf81614f8a565b8114614fda57600080fd5b50565b600081359050614fec81614fc6565b92915050565b6000806040838503121561500957615008614d90565b5b600061501785828601614fdd565b925050602061502885828601614f28565b9150509250929050565b600061ffff82169050919050565b61504981615032565b811461505457600080fd5b50565b60008135905061506681615040565b92915050565b60006020828403121561508257615081614d90565b5b600061509084828501615057565b91505092915050565b6000602082840312156150af576150ae614d90565b5b60006150bd84828501614fdd565b91505092915050565b6150cf81614f07565b82525050565b60006020820190506150ea60008301846150c6565b92915050565b6150f981615032565b82525050565b600060208201905061511460008301846150f0565b92915050565b60008060006060848603121561513357615132614d90565b5b600061514186828701614fdd565b935050602061515286828701614fdd565b925050604061516386828701614f28565b9150509250925092565b600080fd5b600080fd5b7f4e487b7100000000000000000000000000000000000000000000000000000000600052604160045260246000fd5b6151af82614e9b565b810181811067ffffffffffffffff821117156151ce576151cd615177565b5b80604052505050565b60006151e1614d86565b90506151ed82826151a6565b919050565b600067ffffffffffffffff82111561520d5761520c615177565b5b61521682614e9b565b9050602081019050919050565b82818337600083830152505050565b6000615245615240846151f2565b6151d7565b90508281526020810184848401111561526157615260615172565b5b61526c848285615223565b509392505050565b600082601f8301126152895761528861516d565b5b8135615299848260208601615232565b91505092915050565b600080604083850312156152b9576152b8614d90565b5b60006152c785828601614fdd565b925050602083013567ffffffffffffffff8111156152e8576152e7614d95565b5b6152f485828601615274565b9150509250929050565b6000819050919050565b615311816152fe565b82525050565b600060208201905061532c6000830184615308565b92915050565b600067ffffffffffffffff82111561534d5761534c615177565b5b61535682614e9b565b9050602081019050919050565b600061537661537184615332565b6151d7565b90508281526020810184848401111561539257615391615172565b5b61539d848285615223565b509392505050565b600082601f8301126153ba576153b961516d565b5b81356153ca848260208601615363565b91505092915050565b6000602082840312156153e9576153e8614d90565b5b600082013567ffffffffffffffff81111561540757615406614d95565b5b615413848285016153a5565b91505092915050565b600060ff82169050919050565b6154328161541c565b811461543d57600080fd5b50565b60008135905061544f81615429565b92915050565b60008060006060848603121561546e5761546d614d90565b5b600061547c86828701615440565b935050602061548d86828701615057565b925050604061549e86828701615057565b9150509250925092565b600081519050919050565b600082825260208201905092915050565b6000819050602082019050919050565b6154dd81614f07565b82525050565b60006154ef83836154d4565b60208301905092915050565b6000602082019050919050565b6000615513826154a8565b61551d81856154b3565b9350615528836154c4565b8060005b8381101561555957815161554088826154e3565b975061554b836154fb565b92505060018101905061552c565b5085935050505092915050565b600060208201905081810360008301526155808184615508565b905092915050565b600081519050919050565b600082825260208201905092915050565b6000819050602082019050919050565b6155bd81615032565b82525050565b60006155cf83836155b4565b60208301905092915050565b6000602082019050919050565b60006155f382615588565b6155fd8185615593565b9350615608836155a4565b8060005b8381101561563957815161562088826155c3565b975061562b836155db565b92505060018101905061560c565b5085935050505092915050565b6000602082019050818103600083015261566081846155e8565b905092915050565b61567181614e1f565b811461567c57600080fd5b50565b60008135905061568e81615668565b92915050565b600080604083850312156156ab576156aa614d90565b5b60006156b985828601614fdd565b92505060206156ca8582860161567f565b9150509250929050565b6156dd8161541c565b82525050565b60006020820190506156f860008301846156d4565b92915050565b6000806000806080858703121561571857615717614d90565b5b600061572687828801614fdd565b945050602061573787828801614fdd565b935050604061574887828801614f28565b925050606085013567ffffffffffffffff81111561576957615768614d95565b5b61577587828801615274565b91505092959194509250565b600067ffffffffffffffff82111561579c5761579b615177565b5b602082029050919050565b600080fd5b60006157bf6157ba84615781565b6151d7565b905080602084028301858111156157d9576157d86157a7565b5b835b8181101561580257806157ee8882615440565b8452602084019350506020810190506157db565b5050509392505050565b600082601f8301126158215761582061516d565b5b61012b61582f8482856157ac565b91505092915050565b6000612560828403121561584f5761584e614d90565b5b600061585d8482850161580c565b91505092915050565b6000806040838503121561587d5761587c614d90565b5b600061588b85828601614fdd565b925050602061589c85828601614fdd565b9150509250929050565b600067ffffffffffffffff8211156158c1576158c0615177565b5b602082029050602081019050919050565b60006158e56158e0846158a6565b6151d7565b90508083825260208201905060208402830185811115615908576159076157a7565b5b835b81811015615931578061591d8882615057565b84526020840193505060208101905061590a565b5050509392505050565b600082601f8301126159505761594f61516d565b5b81356159608482602086016158d2565b91505092915050565b60006020828403121561597f5761597e614d90565b5b600082013567ffffffffffffffff81111561599d5761599c614d95565b5b6159a98482850161593b565b91505092915050565b60006040820190506159c760008301856150c6565b6159d460208301846150c6565b9392505050565b6000602082840312156159f1576159f0614d90565b5b60006159ff84828501615440565b91505092915050565b6000604082019050615a1d60008301856150f0565b615a2a60208301846150f0565b9392505050565b60008060408385031215615a4857615a47614d90565b5b6000615a5685828601615057565b9250506020615a6785828601614fdd565b9150509250929050565b7f4e487b7100000000000000000000000000000000000000000000000000000000600052602260045260246000fd5b60006002820490506001821680615ab857607f821691505b602082108103615acb57615aca615a71565b5b50919050565b7f4552433732313a20617070726f76616c20746f2063757272656e74206f776e6560008201527f7200000000000000000000000000000000000000000000000000000000000000602082015250565b6000615b2d602183614e60565b9150615b3882615ad1565b604082019050919050565b60006020820190508181036000830152615b5c81615b20565b9050919050565b7f4552433732313a20617070726f76652063616c6c6572206973206e6f7420746f60008201527f6b656e206f776e6572206f7220617070726f76656420666f7220616c6c000000602082015250565b6000615bbf603d83614e60565b9150615bca82615b63565b604082019050919050565b60006020820190508181036000830152615bee81615bb2565b9050919050565b7f4e487b7100000000000000000000000000000000000000000000000000000000600052601160045260246000fd5b6000615c2f82615032565b9150615c3a83615032565b9250828201905061ffff811115615c5457615c53615bf5565b5b92915050565b600081905092915050565b50565b6000615c75600083615c5a565b9150615c8082615c65565b600082019050919050565b6000615c9682615c68565b9150819050919050565b7f4e487b7100000000000000000000000000000000000000000000000000000000600052603260045260246000fd5b6000615cda82614f07565b9150615ce583614f07565b9250828201905080821115615cfd57615cfc615bf5565b5b92915050565b6000615d0e82614f07565b91507fffffffffffffffffffffffffffffffffffffffffffffffffffffffffffffffff8203615d4057615d3f615bf5565b5b600182019050919050565b6000819050919050565b6000615d70615d6b615d6684615032565b615d4b565b614f07565b9050919050565b615d8081615d55565b82525050565b6000602082019050615d9b6000830184615d77565b92915050565b7f4552433732313a2063616c6c6572206973206e6f7420746f6b656e206f776e6560008201527f72206f7220617070726f76656400000000000000000000000000000000000000602082015250565b6000615dfd602d83614e60565b9150615e0882615da1565b604082019050919050565b60006020820190508181036000830152615e2c81615df0565b9050919050565b7f46756e6374696f6e206d7573742062652063616c6c6564207468726f7567682060008201527f64656c656761746563616c6c0000000000000000000000000000000000000000602082015250565b6000615e8f602c83614e60565b9150615e9a82615e33565b604082019050919050565b60006020820190508181036000830152615ebe81615e82565b9050919050565b7f46756e6374696f6e206d7573742062652063616c6c6564207468726f7567682060008201527f6163746976652070726f78790000000000000000000000000000000000000000602082015250565b6000615f21602c83614e60565b9150615f2c82615ec5565b604082019050919050565b60006020820190508181036000830152615f5081615f14565b9050919050565b7f555550535570677261646561626c653a206d757374206e6f742062652063616c60008201527f6c6564207468726f7567682064656c656761746563616c6c0000000000000000602082015250565b6000615fb3603883614e60565b9150615fbe82615f57565b604082019050919050565b60006020820190508181036000830152615fe281615fa6565b9050919050565b60008190508160005260206000209050919050565b60006020601f8301049050919050565b600082821b905092915050565b60006008830261604b7fffffffffffffffffffffffffffffffffffffffffffffffffffffffffffffffff8261600e565b616055868361600e565b95508019841693508086168417925050509392505050565b600061608861608361607e84614f07565b615d4b565b614f07565b9050919050565b6000819050919050565b6160a28361606d565b6160b66160ae8261608f565b84845461601b565b825550505050565b600090565b6160cb6160be565b6160d6818484616099565b505050565b5b818110156160fa576160ef6000826160c3565b6001810190506160dc565b5050565b601f82111561613f5761611081615fe9565b61611984615ffe565b81016020851015616128578190505b61613c61613485615ffe565b8301826160db565b50505b505050565b600082821c905092915050565b600061616260001984600802616144565b1980831691505092915050565b600061617b8383616151565b9150826002028217905092915050565b61619482614e55565b67ffffffffffffffff8111156161ad576161ac615177565b5b6161b78254615aa0565b6161c28282856160fe565b600060209050601f8311600181146161f557600084156161e3578287015190505b6161ed858261616f565b865550616255565b601f19841661620386615fe9565b60005b8281101561622b57848901518255600182019150602085019450602081019050616206565b868310156162485784890151616244601f891682616151565b8355505b6001600288020188555050505b505050505050565b7f4552433732313a20696e76616c696420746f6b656e2049440000000000000000600082015250565b6000616293601883614e60565b915061629e8261625d565b602082019050919050565b600060208201905081810360008301526162c281616286565b9050919050565b7f4552433732313a2061646472657373207a65726f206973206e6f74206120766160008201527f6c6964206f776e65720000000000000000000000000000000000000000000000602082015250565b6000616325602983614e60565b9150616330826162c9565b604082019050919050565b6000602082019050818103600083015261635481616318565b9050919050565b7f496e697469616c697a61626c653a20636f6e747261637420697320616c72656160008201527f647920696e697469616c697a6564000000000000000000000000000000000000602082015250565b60006163b7602e83614e60565b91506163c28261635b565b604082019050919050565b600060208201905081810360008301526163e6816163aa565b9050919050565b60006163f882615032565b915061ffff820361640c5761640b615bf5565b5b600182019050919050565b6000819050919050565b600061643c61643761643284616417565b615d4b565b61541c565b9050919050565b61644c81616421565b82525050565b60006020820190506164676000830184616443565b92915050565b60008151905061647c81614fc6565b92915050565b60006020828403121561649857616497614d90565b5b60006164a68482850161646d565b91505092915050565b6000815190506164be81614f11565b92915050565b6000602082840312156164da576164d9614d90565b5b60006164e8848285016164af565b91505092915050565b60006040820190506165066000830185614f9c565b61651360208301846150c6565b9392505050565b60008151905061652981615668565b92915050565b60006020828403121561654557616544614d90565b5b60006165538482850161651a565b91505092915050565b60006060820190506165716000830186614f9c565b61657e6020830185614f9c565b61658b60408301846150c6565b949350505050565b600061659e82614f07565b91506165a983614f07565b92508282026165b781614f07565b915082820484148315176165ce576165cd615bf5565b5b5092915050565b60006165e082614f07565b91506165eb83614f07565b925082820390508181111561660357616602615bf5565b5b92915050565b7f4552433732314d657461646174613a2055524920717565727920666f72206e6f60008201527f6e6578697374656e7420746f6b656e0000000000000000000000000000000000602082015250565b6000616665602f83614e60565b915061667082616609565b604082019050919050565b6000602082019050818103600083015261669481616658565b9050919050565b600081905092915050565b60006166b182614e55565b6166bb818561669b565b93506166cb818560208601614e71565b80840191505092915050565b600081546166e481615aa0565b6166ee818661669b565b94506001821660008114616709576001811461671e57616751565b60ff1983168652811515820286019350616751565b61672785615fe9565b60005b838110156167495781548189015260018201915060208101905061672a565b838801955050505b50505092915050565b600061676682866166a6565b915061677282856166a6565b915061677e82846166d7565b9150819050949350505050565b600061679682615032565b91506167a183615032565b9250828203905061ffff8111156167bb576167ba615bf5565b5b92915050565b7f4f776e61626c653a206e6577206f776e657220697320746865207a65726f206160008201527f6464726573730000000000000000000000000000000000000000000000000000602082015250565b600061681d602683614e60565b9150616828826167c1565b604082019050919050565b6000602082019050818103600083015261684c81616810565b9050919050565b600081549050919050565b60008190508160005260206000209050919050565b60008160001c9050919050565b600061ffff82169050919050565b60006168a161689c83616873565b616880565b9050919050565b60008160101c9050919050565b60006168c86168c3836168a8565b616880565b9050919050565b60008160201c9050919050565b60006168ef6168ea836168cf565b616880565b9050919050565b60008160301c9050919050565b6000616916616911836168f6565b616880565b9050919050565b60008160401c9050919050565b600061693d6169388361691d565b616880565b9050919050565b60008160501c9050919050565b600061696461695f83616944565b616880565b9050919050565b60008160601c9050919050565b600061698b6169868361696b565b616880565b9050919050565b60008160701c9050919050565b60006169b26169ad83616992565b616880565b9050919050565b60008160801c9050919050565b60006169d96169d4836169b9565b616880565b9050919050565b60008160901c9050919050565b6000616a006169fb836169e0565b616880565b9050919050565b60008160a01c9050919050565b6000616a27616a2283616a07565b616880565b9050919050565b60008160b01c9050919050565b6000616a4e616a4983616a2e565b616880565b9050919050565b60008160c01c9050919050565b6000616a75616a7083616a55565b616880565b9050919050565b60008160d01c9050919050565b6000616a9c616a9783616a7c565b616880565b9050919050565b60008160e01c9050919050565b6000616ac3616abe83616aa3565b616880565b9050919050565b60008160f01c9050919050565b6000616aea616ae583616aca565b616880565b9050919050565b6000616afc82616853565b616b068185615593565b935083616b128461685e565b6000600115616cbf575b83600160100382011015616cbe578154616b3e88616b398361688e565b6155b4565b602088019750616b5688616b51836168b5565b6155b4565b602088019750616b6e88616b69836168dc565b6155b4565b602088019750616b8688616b8183616903565b6155b4565b602088019750616b9e88616b998361692a565b6155b4565b602088019750616bb688616bb183616951565b6155b4565b602088019750616bce88616bc983616978565b6155b4565b602088019750616be688616be18361699f565b6155b4565b602088019750616bfe88616bf9836169c6565b6155b4565b602088019750616c1688616c11836169ed565b6155b4565b602088019750616c2e88616c2983616a14565b6155b4565b602088019750616c4688616c4183616a3b565b6155b4565b602088019750616c5e88616c5983616a62565b6155b4565b602088019750616c7688616c7183616a89565b6155b4565b602088019750616c8e88616c8983616ab0565b6155b4565b602088019750616ca688616ca183616ad7565b6155b4565b60208801975060018301925050601081019050616b1c565b5b600115616f3a57815484821015616cef57616ce288616cdd8361688e565b6155b4565b6020880197506001820191505b84821015616d1657616d0988616d04836168b5565b6155b4565b6020880197506001820191505b84821015616d3d57616d3088616d2b836168dc565b6155b4565b6020880197506001820191505b84821015616d6457616d5788616d5283616903565b6155b4565b6020880197506001820191505b84821015616d8b57616d7e88616d798361692a565b6155b4565b6020880197506001820191505b84821015616db257616da588616da083616951565b6155b4565b6020880197506001820191505b84821015616dd957616dcc88616dc783616978565b6155b4565b6020880197506001820191505b84821015616e0057616df388616dee8361699f565b6155b4565b6020880197506001820191505b84821015616e2757616e1a88616e15836169c6565b6155b4565b6020880197506001820191505b84821015616e4e57616e4188616e3c836169ed565b6155b4565b6020880197506001820191505b84821015616e7557616e6888616e6383616a14565b6155b4565b6020880197506001820191505b84821015616e9c57616e8f88616e8a83616a3b565b6155b4565b6020880197506001820191505b84821015616ec357616eb688616eb183616a62565b6155b4565b6020880197506001820191505b84821015616eea57616edd88616ed883616a89565b6155b4565b6020880197506001820191505b84821015616f1157616f0488616eff83616ab0565b6155b4565b6020880197506001820191505b84821015616f3857616f2b88616f2683616ad7565b6155b4565b6020880197506001820191505b505b8694505050505092915050565b60006020820190508181036000830152616f618184616af1565b905092915050565b7f5265656e7472616e637947756172643a207265656e7472616e742063616c6c00600082015250565b6000616f9f601f83614e60565b9150616faa82616f69565b602082019050919050565b60006020820190508181036000830152616fce81616f92565b9050919050565b7f4e487b7100000000000000000000000000000000000000000000000000000000600052601260045260246000fd5b600061700f82614f07565b915061701a83614f07565b92508261702a57617029616fd5565b5b828206905092915050565b7f4e487b7100000000000000000000000000000000000000000000000000000000600052603160045260246000fd5b7f4552433732313a207472616e736665722066726f6d20696e636f72726563742060008201527f6f776e6572000000000000000000000000000000000000000000000000000000602082015250565b60006170c0602583614e60565b91506170cb82617064565b604082019050919050565b600060208201905081810360008301526170ef816170b3565b9050919050565b7f4552433732313a207472616e7366657220746f20746865207a65726f2061646460008201527f7265737300000000000000000000000000000000000000000000000000000000602082015250565b6000617152602483614e60565b915061715d826170f6565b604082019050919050565b6000602082019050818103600083015261718181617145565b9050919050565b617191816152fe565b811461719c57600080fd5b50565b6000815190506171ae81617188565b92915050565b6000602082840312156171ca576171c9614d90565b5b60006171d88482850161719f565b91505092915050565b7f45524331393637557067726164653a206e657720696d706c656d656e7461746960008201527f6f6e206973206e6f742055555053000000000000000000000000000000000000602082015250565b600061723d602e83614e60565b9150617248826171e1565b604082019050919050565b6000602082019050818103600083015261726c81617230565b9050919050565b7f45524331393637557067726164653a20756e737570706f727465642070726f7860008201527f6961626c65555549440000000000000000000000000000000000000000000000602082015250565b60006172cf602983614e60565b91506172da82617273565b604082019050919050565b600060208201905081810360008301526172fe816172c2565b9050919050565b7f4f776e61626c653a2063616c6c6572206973206e6f7420746865206f776e6572600082015250565b600061733b602083614e60565b915061734682617305565b602082019050919050565b6000602082019050818103600083015261736a8161732e565b9050919050565b7f496e697469616c697a61626c653a20636f6e7472616374206973206e6f74206960008201527f6e697469616c697a696e67000000000000000000000000000000000000000000602082015250565b60006173cd602b83614e60565b91506173d882617371565b604082019050919050565b600060208201905081810360008301526173fc816173c0565b9050919050565b7f4552433732313a20617070726f766520746f2063616c6c657200000000000000600082015250565b6000617439601983614e60565b915061744482617403565b602082019050919050565b600060208201905081810360008301526174688161742c565b9050919050565b7f4552433732313a207472616e7366657220746f206e6f6e20455243373231526560008201527f63656976657220696d706c656d656e7465720000000000000000000000000000602082015250565b60006174cb603283614e60565b91506174d68261746f565b604082019050919050565b600060208201905081810360008301526174fa816174be565b9050919050565b600061750c82614f6a565b9050919050565b60008160601b9050919050565b600061752b82617513565b9050919050565b600061753d82617520565b9050919050565b61755561755082617501565b617532565b82525050565b6000819050919050565b61757661757182614f07565b61755b565b82525050565b60006175888288617544565b6014820191506175988287617565565b6020820191506175a88286617565565b6020820191506175b88285617565565b6020820191506175c88284617565565b6020820191508190509695505050505050565b60006175e78284617565565b60208201915081905092915050565b7f455243313936373a206e657720696d706c656d656e746174696f6e206973206e60008201527f6f74206120636f6e747261637400000000000000000000000000000000000000602082015250565b6000617652602d83614e60565b915061765d826175f6565b604082019050919050565b6000602082019050818103600083015261768181617645565b9050919050565b600081519050919050565b600082825260208201905092915050565b60006176af82617688565b6176b98185617693565b93506176c9818560208601614e71565b6176d281614e9b565b840191505092915050565b60006080820190506176f26000830187614f9c565b6176ff6020830186614f9c565b61770c60408301856150c6565b818103606083015261771e81846176a4565b905095945050505050565b60008151905061773881614dc6565b92915050565b60006020828403121561775457617753614d90565b5b600061776284828501617729565b91505092915050565b7f4552433732313a206d696e7420746f20746865207a65726f2061646472657373600082015250565b60006177a1602083614e60565b91506177ac8261776b565b602082019050919050565b600060208201905081810360008301526177d081617794565b9050919050565b7f4552433732313a20746f6b656e20616c7265616479206d696e74656400000000600082015250565b600061780d601c83614e60565b9150617818826177d7565b602082019050919050565b6000602082019050818103600083015261783c81617800565b9050919050565b600061784e82617688565b6178588185615c5a565b9350617868818560208601614e71565b80840191505092915050565b60006178808284617843565b915081905092915050565b7f416464726573733a2063616c6c20746f206e6f6e2d636f6e7472616374000000600082015250565b60006178c1601d83614e60565b91506178cc8261788b565b602082019050919050565b600060208201905081810360008301526178f0816178b4565b905091905056fe416464726573733a206c6f772d6c6576656c2064656c65676174652063616c6c206661696c656468747470733a2f2f697066732e696f2f697066732f516d5379314c5441386666534c563650354a42513667504438687270326d487a46704170634346424a375956726a2fa264697066735822122031adc175c0b27a482ec3c41f4fab16b850ecceb40b8c9483e6536a90b2c0f90964736f6c63430008120033","opcodes":"PUSH1 0xA0 PUSH1 0x40 MSTORE ADDRESS PUSH20 0xFFFFFFFFFFFFFFFFFFFFFFFFFFFFFFFFFFFFFFFF AND PUSH1 0x80 SWAP1 PUSH20 0xFFFFFFFFFFFFFFFFFFFFFFFFFFFFFFFFFFFFFFFF AND DUP2 MSTORE POP PUSH1 0x40 MLOAD DUP1 PUSH1 0x40 ADD PUSH1 0x40 MSTORE DUP1 PUSH1 0x5 DUP2 MSTORE PUSH1 0x20 ADD PUSH32 0x2E6A736F6E000000000000000000000000000000000000000000000000000000 DUP2 MSTORE POP PUSH2 0x160 SWAP1 DUP2 PUSH3 0x7E SWAP2 SWAP1 PUSH3 0x3E3 JUMP JUMPDEST POP CALLVALUE DUP1 ISZERO PUSH3 0x8C JUMPI PUSH1 0x0 DUP1 REVERT JUMPDEST POP PUSH3 0x9D PUSH3 0xA3 PUSH1 0x20 SHL PUSH1 0x20 SHR JUMP JUMPDEST PUSH3 0x5AE JUMP JUMPDEST PUSH1 0x0 PUSH1 0x1 SWAP1 SLOAD SWAP1 PUSH2 0x100 EXP SWAP1 DIV PUSH1 0xFF AND ISZERO PUSH3 0xF6 JUMPI PUSH1 0x40 MLOAD PUSH32 0x8C379A000000000000000000000000000000000000000000000000000000000 DUP2 MSTORE PUSH1 0x4 ADD PUSH3 0xED SWAP1 PUSH3 0x551 JUMP JUMPDEST PUSH1 0x40 MLOAD DUP1 SWAP2 SUB SWAP1 REVERT JUMPDEST PUSH1 0xFF DUP1 AND PUSH1 0x0 DUP1 SLOAD SWAP1 PUSH2 0x100 EXP SWAP1 DIV PUSH1 0xFF AND PUSH1 0xFF AND EQ PUSH3 0x167 JUMPI PUSH1 0xFF PUSH1 0x0 DUP1 PUSH2 0x100 EXP DUP2 SLOAD DUP2 PUSH1 0xFF MUL NOT AND SWAP1 DUP4 PUSH1 0xFF AND MUL OR SWAP1 SSTORE POP PUSH32 0x7F26B83FF96E1F2B6A682F133852F6798A09C465DA95921460CEFB3847402498 PUSH1 0xFF PUSH1 0x40 MLOAD PUSH3 0x15E SWAP2 SWAP1 PUSH3 0x591 JUMP JUMPDEST PUSH1 0x40 MLOAD DUP1 SWAP2 SUB SWAP1 LOG1 JUMPDEST JUMP JUMPDEST PUSH1 0x0 DUP2 MLOAD SWAP1 POP SWAP2 SWAP1 POP JUMP JUMPDEST PUSH32 0x4E487B7100000000000000000000000000000000000000000000000000000000 PUSH1 0x0 MSTORE PUSH1 0x41 PUSH1 0x4 MSTORE PUSH1 0x24 PUSH1 0x0 REVERT JUMPDEST PUSH32 0x4E487B7100000000000000000000000000000000000000000000000000000000 PUSH1 0x0 MSTORE PUSH1 0x22 PUSH1 0x4 MSTORE PUSH1 0x24 PUSH1 0x0 REVERT JUMPDEST PUSH1 0x0 PUSH1 0x2 DUP3 DIV SWAP1 POP PUSH1 0x1 DUP3 AND DUP1 PUSH3 0x1EB JUMPI PUSH1 0x7F DUP3 AND SWAP2 POP JUMPDEST PUSH1 0x20 DUP3 LT DUP2 SUB PUSH3 0x201 JUMPI PUSH3 0x200 PUSH3 0x1A3 JUMP JUMPDEST JUMPDEST POP SWAP2 SWAP1 POP JUMP JUMPDEST PUSH1 0x0 DUP2 SWAP1 POP DUP2 PUSH1 0x0 MSTORE PUSH1 0x20 PUSH1 0x0 KECCAK256 SWAP1 POP SWAP2 SWAP1 POP JUMP JUMPDEST PUSH1 0x0 PUSH1 0x20 PUSH1 0x1F DUP4 ADD DIV SWAP1 POP SWAP2 SWAP1 POP JUMP JUMPDEST PUSH1 0x0 DUP3 DUP3 SHL SWAP1 POP SWAP3 SWAP2 POP POP JUMP JUMPDEST PUSH1 0x0 PUSH1 0x8 DUP4 MUL PUSH3 0x26B PUSH32 0xFFFFFFFFFFFFFFFFFFFFFFFFFFFFFFFFFFFFFFFFFFFFFFFFFFFFFFFFFFFFFFFF DUP3 PUSH3 0x22C JUMP JUMPDEST PUSH3 0x277 DUP7 DUP4 PUSH3 0x22C JUMP JUMPDEST SWAP6 POP DUP1 NOT DUP5 AND SWAP4 POP DUP1 DUP7 AND DUP5 OR SWAP3 POP POP POP SWAP4 SWAP3 POP POP POP JUMP JUMPDEST PUSH1 0x0 DUP2 SWAP1 POP SWAP2 SWAP1 POP JUMP JUMPDEST PUSH1 0x0 DUP2 SWAP1 POP SWAP2 SWAP1 POP JUMP JUMPDEST PUSH1 0x0 PUSH3 0x2C4 PUSH3 0x2BE PUSH3 0x2B8 DUP5 PUSH3 0x28F JUMP JUMPDEST PUSH3 0x299 JUMP JUMPDEST PUSH3 0x28F JUMP JUMPDEST SWAP1 POP SWAP2 SWAP1 POP JUMP JUMPDEST PUSH1 0x0 DUP2 SWAP1 POP SWAP2 SWAP1 POP JUMP JUMPDEST PUSH3 0x2E0 DUP4 PUSH3 0x2A3 JUMP JUMPDEST PUSH3 0x2F8 PUSH3 0x2EF DUP3 PUSH3 0x2CB JUMP JUMPDEST DUP5 DUP5 SLOAD PUSH3 0x239 JUMP JUMPDEST DUP3 SSTORE POP POP POP POP JUMP JUMPDEST PUSH1 0x0 SWAP1 JUMP JUMPDEST PUSH3 0x30F PUSH3 0x300 JUMP JUMPDEST PUSH3 0x31C DUP2 DUP5 DUP5 PUSH3 0x2D5 JUMP JUMPDEST POP POP POP JUMP JUMPDEST JUMPDEST DUP2 DUP2 LT ISZERO PUSH3 0x344 JUMPI PUSH3 0x338 PUSH1 0x0 DUP3 PUSH3 0x305 JUMP JUMPDEST PUSH1 0x1 DUP2 ADD SWAP1 POP PUSH3 0x322 JUMP JUMPDEST POP POP JUMP JUMPDEST PUSH1 0x1F DUP3 GT ISZERO PUSH3 0x393 JUMPI PUSH3 0x35D DUP2 PUSH3 0x207 JUMP JUMPDEST PUSH3 0x368 DUP5 PUSH3 0x21C JUMP JUMPDEST DUP2 ADD PUSH1 0x20 DUP6 LT ISZERO PUSH3 0x378 JUMPI DUP2 SWAP1 POP JUMPDEST PUSH3 0x390 PUSH3 0x387 DUP6 PUSH3 0x21C JUMP JUMPDEST DUP4 ADD DUP3 PUSH3 0x321 JUMP JUMPDEST POP POP JUMPDEST POP POP POP JUMP JUMPDEST PUSH1 0x0 DUP3 DUP3 SHR SWAP1 POP SWAP3 SWAP2 POP POP JUMP JUMPDEST PUSH1 0x0 PUSH3 0x3B8 PUSH1 0x0 NOT DUP5 PUSH1 0x8 MUL PUSH3 0x398 JUMP JUMPDEST NOT DUP1 DUP4 AND SWAP2 POP POP SWAP3 SWAP2 POP POP JUMP JUMPDEST PUSH1 0x0 PUSH3 0x3D3 DUP4 DUP4 PUSH3 0x3A5 JUMP JUMPDEST SWAP2 POP DUP3 PUSH1 0x2 MUL DUP3 OR SWAP1 POP SWAP3 SWAP2 POP POP JUMP JUMPDEST PUSH3 0x3EE DUP3 PUSH3 0x169 JUMP JUMPDEST PUSH8 0xFFFFFFFFFFFFFFFF DUP2 GT ISZERO PUSH3 0x40A JUMPI PUSH3 0x409 PUSH3 0x174 JUMP JUMPDEST JUMPDEST PUSH3 0x416 DUP3 SLOAD PUSH3 0x1D2 JUMP JUMPDEST PUSH3 0x423 DUP3 DUP3 DUP6 PUSH3 0x348 JUMP JUMPDEST PUSH1 0x0 PUSH1 0x20 SWAP1 POP PUSH1 0x1F DUP4 GT PUSH1 0x1 DUP2 EQ PUSH3 0x45B JUMPI PUSH1 0x0 DUP5 ISZERO PUSH3 0x446 JUMPI DUP3 DUP8 ADD MLOAD SWAP1 POP JUMPDEST PUSH3 0x452 DUP6 DUP3 PUSH3 0x3C5 JUMP JUMPDEST DUP7 SSTORE POP PUSH3 0x4C2 JUMP JUMPDEST PUSH1 0x1F NOT DUP5 AND PUSH3 0x46B DUP7 PUSH3 0x207 JUMP JUMPDEST PUSH1 0x0 JUMPDEST DUP3 DUP2 LT ISZERO PUSH3 0x495 JUMPI DUP5 DUP10 ADD MLOAD DUP3 SSTORE PUSH1 0x1 DUP3 ADD SWAP2 POP PUSH1 0x20 DUP6 ADD SWAP5 POP PUSH1 0x20 DUP2 ADD SWAP1 POP PUSH3 0x46E JUMP JUMPDEST DUP7 DUP4 LT ISZERO PUSH3 0x4B5 JUMPI DUP5 DUP10 ADD MLOAD PUSH3 0x4B1 PUSH1 0x1F DUP10 AND DUP3 PUSH3 0x3A5 JUMP JUMPDEST DUP4 SSTORE POP JUMPDEST PUSH1 0x1 PUSH1 0x2 DUP9 MUL ADD DUP9 SSTORE POP POP POP JUMPDEST POP POP POP POP POP POP JUMP JUMPDEST PUSH1 0x0 DUP3 DUP3 MSTORE PUSH1 0x20 DUP3 ADD SWAP1 POP SWAP3 SWAP2 POP POP JUMP JUMPDEST PUSH32 0x496E697469616C697A61626C653A20636F6E747261637420697320696E697469 PUSH1 0x0 DUP3 ADD MSTORE PUSH32 0x616C697A696E6700000000000000000000000000000000000000000000000000 PUSH1 0x20 DUP3 ADD MSTORE POP JUMP JUMPDEST PUSH1 0x0 PUSH3 0x539 PUSH1 0x27 DUP4 PUSH3 0x4CA JUMP JUMPDEST SWAP2 POP PUSH3 0x546 DUP3 PUSH3 0x4DB JUMP JUMPDEST PUSH1 0x40 DUP3 ADD SWAP1 POP SWAP2 SWAP1 POP JUMP JUMPDEST PUSH1 0x0 PUSH1 0x20 DUP3 ADD SWAP1 POP DUP2 DUP2 SUB PUSH1 0x0 DUP4 ADD MSTORE PUSH3 0x56C DUP2 PUSH3 0x52A JUMP JUMPDEST SWAP1 POP SWAP2 SWAP1 POP JUMP JUMPDEST PUSH1 0x0 PUSH1 0xFF DUP3 AND SWAP1 POP SWAP2 SWAP1 POP JUMP JUMPDEST PUSH3 0x58B DUP2 PUSH3 0x573 JUMP JUMPDEST DUP3 MSTORE POP POP JUMP JUMPDEST PUSH1 0x0 PUSH1 0x20 DUP3 ADD SWAP1 POP PUSH3 0x5A8 PUSH1 0x0 DUP4 ADD DUP5 PUSH3 0x580 JUMP JUMPDEST SWAP3 SWAP2 POP POP JUMP JUMPDEST PUSH1 0x80 MLOAD PUSH2 0x7998 PUSH3 0x5E6 PUSH1 0x0 CODECOPY PUSH1 0x0 DUP2 DUP2 PUSH2 0x1459 ADD MSTORE DUP2 DUP2 PUSH2 0x14E7 ADD MSTORE DUP2 DUP2 PUSH2 0x1741 ADD MSTORE DUP2 DUP2 PUSH2 0x17CF ADD MSTORE PUSH2 0x187F ADD MSTORE PUSH2 0x7998 PUSH1 0x0 RETURN INVALID PUSH1 0x80 PUSH1 0x40 MSTORE PUSH1 0x4 CALLDATASIZE LT PUSH2 0x31A JUMPI PUSH1 0x0 CALLDATALOAD PUSH1 0xE0 SHR DUP1 PUSH4 0x8C4DA52A GT PUSH2 0x1AB JUMPI DUP1 PUSH4 0xC026759E GT PUSH2 0xF7 JUMPI DUP1 PUSH4 0xE685D48A GT PUSH2 0x95 JUMPI DUP1 PUSH4 0xF2FDE38B GT PUSH2 0x6F JUMPI DUP1 PUSH4 0xF2FDE38B EQ PUSH2 0xB84 JUMPI DUP1 PUSH4 0xF3891F1B EQ PUSH2 0xBAD JUMPI DUP1 PUSH4 0xF426502E EQ PUSH2 0xBEA JUMPI DUP1 PUSH4 0xFE232518 EQ PUSH2 0xC28 JUMPI PUSH2 0x31A JUMP JUMPDEST DUP1 PUSH4 0xE685D48A EQ PUSH2 0xAE0 JUMPI DUP1 PUSH4 0xE985E9C5 EQ PUSH2 0xB09 JUMPI DUP1 PUSH4 0xEE5B9263 EQ PUSH2 0xB46 JUMPI PUSH2 0x31A JUMP JUMPDEST DUP1 PUSH4 0xD6E7B8E4 GT PUSH2 0xD1 JUMPI DUP1 PUSH4 0xD6E7B8E4 EQ PUSH2 0xA38 JUMPI DUP1 PUSH4 0xDA3EF23F EQ PUSH2 0xA63 JUMPI DUP1 PUSH4 0xE4E6BEA7 EQ PUSH2 0xA8C JUMPI DUP1 PUSH4 0xE647E01A EQ PUSH2 0xAB7 JUMPI PUSH2 0x31A JUMP JUMPDEST DUP1 PUSH4 0xC026759E EQ PUSH2 0x9A7 JUMPI DUP1 PUSH4 0xC6682862 EQ PUSH2 0x9D0 JUMPI DUP1 PUSH4 0xC87B56DD EQ PUSH2 0x9FB JUMPI PUSH2 0x31A JUMP JUMPDEST DUP1 PUSH4 0xA42C7D28 GT PUSH2 0x164 JUMPI DUP1 PUSH4 0xBB0FD147 GT PUSH2 0x13E JUMPI DUP1 PUSH4 0xBB0FD147 EQ PUSH2 0x8FF JUMPI DUP1 PUSH4 0xBBCED2C6 EQ PUSH2 0x928 JUMPI DUP1 PUSH4 0xBCC08B2C EQ PUSH2 0x965 JUMPI DUP1 PUSH4 0xBD3E19D4 EQ PUSH2 0x97C JUMPI PUSH2 0x31A JUMP JUMPDEST DUP1 PUSH4 0xA42C7D28 EQ PUSH2 0x870 JUMPI DUP1 PUSH4 0xB674CF8F EQ PUSH2 0x899 JUMPI DUP1 PUSH4 0xB88D4FDE EQ PUSH2 0x8D6 JUMPI PUSH2 0x31A JUMP JUMPDEST DUP1 PUSH4 0x8C4DA52A EQ PUSH2 0x774 JUMPI DUP1 PUSH4 0x8DA5CB5B EQ PUSH2 0x79F JUMPI DUP1 PUSH4 0x90EDE4CB EQ PUSH2 0x7CA JUMPI DUP1 PUSH4 0x95D89B41 EQ PUSH2 0x7F3 JUMPI DUP1 PUSH4 0x9BE65A60 EQ PUSH2 0x81E JUMPI DUP1 PUSH4 0xA22CB465 EQ PUSH2 0x847 JUMPI PUSH2 0x31A JUMP JUMPDEST DUP1 PUSH4 0x4F1EF286 GT PUSH2 0x26A JUMPI DUP1 PUSH4 0x715018A6 GT PUSH2 0x223 JUMPI DUP1 PUSH4 0x8129FC1C GT PUSH2 0x1FD JUMPI DUP1 PUSH4 0x8129FC1C EQ PUSH2 0x6CA JUMPI DUP1 PUSH4 0x8462151C EQ PUSH2 0x6E1 JUMPI DUP1 PUSH4 0x876F303B EQ PUSH2 0x71E JUMPI DUP1 PUSH4 0x8B915C25 EQ PUSH2 0x749 JUMPI PUSH2 0x31A JUMP JUMPDEST DUP1 PUSH4 0x715018A6 EQ PUSH2 0x65F JUMPI DUP1 PUSH4 0x7C6B3F03 EQ PUSH2 0x676 JUMPI DUP1 PUSH4 0x7E1AC0A4 EQ PUSH2 0x69F JUMPI PUSH2 0x31A JUMP JUMPDEST DUP1 PUSH4 0x4F1EF286 EQ PUSH2 0x54A JUMPI DUP1 PUSH4 0x52D1902D EQ PUSH2 0x566 JUMPI DUP1 PUSH4 0x55F804B3 EQ PUSH2 0x591 JUMPI DUP1 PUSH4 0x6352211E EQ PUSH2 0x5BA JUMPI DUP1 PUSH4 0x6C0360EB EQ PUSH2 0x5F7 JUMPI DUP1 PUSH4 0x70A08231 EQ PUSH2 0x622 JUMPI PUSH2 0x31A JUMP JUMPDEST DUP1 PUSH4 0x18160DDD GT PUSH2 0x2D7 JUMPI DUP1 PUSH4 0x3CCFD60B GT PUSH2 0x2B1 JUMPI DUP1 PUSH4 0x3CCFD60B EQ PUSH2 0x4C3 JUMPI DUP1 PUSH4 0x3E140474 EQ PUSH2 0x4CD JUMPI DUP1 PUSH4 0x42842E0E EQ PUSH2 0x4F8 JUMPI DUP1 PUSH4 0x44A0D68A EQ PUSH2 0x521 JUMPI PUSH2 0x31A JUMP JUMPDEST DUP1 PUSH4 0x18160DDD EQ PUSH2 0x446 JUMPI DUP1 PUSH4 0x23B872DD EQ PUSH2 0x471 JUMPI DUP1 PUSH4 0x3659CFE6 EQ PUSH2 0x49A JUMPI PUSH2 0x31A JUMP JUMPDEST DUP1 PUSH4 0x1FFC9A7 EQ PUSH2 0x31F JUMPI DUP1 PUSH4 0x6FDDE03 EQ PUSH2 0x35C JUMPI DUP1 PUSH4 0x81812FC EQ PUSH2 0x387 JUMPI DUP1 PUSH4 0x95EA7B3 EQ PUSH2 0x3C4 JUMPI DUP1 PUSH4 0x10E3163D EQ PUSH2 0x3ED JUMPI DUP1 PUSH4 0x17911CD0 EQ PUSH2 0x409 JUMPI JUMPDEST PUSH1 0x0 DUP1 REVERT JUMPDEST CALLVALUE DUP1 ISZERO PUSH2 0x32B JUMPI PUSH1 0x0 DUP1 REVERT JUMPDEST POP PUSH2 0x346 PUSH1 0x4 DUP1 CALLDATASIZE SUB DUP2 ADD SWAP1 PUSH2 0x341 SWAP2 SWAP1 PUSH2 0x4DF2 JUMP JUMPDEST PUSH2 0xC51 JUMP JUMPDEST PUSH1 0x40 MLOAD PUSH2 0x353 SWAP2 SWAP1 PUSH2 0x4E3A JUMP JUMPDEST PUSH1 0x40 MLOAD DUP1 SWAP2 SUB SWAP1 RETURN JUMPDEST CALLVALUE DUP1 ISZERO PUSH2 0x368 JUMPI PUSH1 0x0 DUP1 REVERT JUMPDEST POP PUSH2 0x371 PUSH2 0xD33 JUMP JUMPDEST PUSH1 0x40 MLOAD PUSH2 0x37E SWAP2 SWAP1 PUSH2 0x4EE5 JUMP JUMPDEST PUSH1 0x40 MLOAD DUP1 SWAP2 SUB SWAP1 RETURN JUMPDEST CALLVALUE DUP1 ISZERO PUSH2 0x393 JUMPI PUSH1 0x0 DUP1 REVERT JUMPDEST POP PUSH2 0x3AE PUSH1 0x4 DUP1 CALLDATASIZE SUB DUP2 ADD SWAP1 PUSH2 0x3A9 SWAP2 SWAP1 PUSH2 0x4F3D JUMP JUMPDEST PUSH2 0xDC5 JUMP JUMPDEST PUSH1 0x40 MLOAD PUSH2 0x3BB SWAP2 SWAP1 PUSH2 0x4FAB JUMP JUMPDEST PUSH1 0x40 MLOAD DUP1 SWAP2 SUB SWAP1 RETURN JUMPDEST CALLVALUE DUP1 ISZERO PUSH2 0x3D0 JUMPI PUSH1 0x0 DUP1 REVERT JUMPDEST POP PUSH2 0x3EB PUSH1 0x4 DUP1 CALLDATASIZE SUB DUP2 ADD SWAP1 PUSH2 0x3E6 SWAP2 SWAP1 PUSH2 0x4FF2 JUMP JUMPDEST PUSH2 0xE0B JUMP JUMPDEST STOP JUMPDEST PUSH2 0x407 PUSH1 0x4 DUP1 CALLDATASIZE SUB DUP2 ADD SWAP1 PUSH2 0x402 SWAP2 SWAP1 PUSH2 0x506C JUMP JUMPDEST PUSH2 0xF22 JUMP JUMPDEST STOP JUMPDEST CALLVALUE DUP1 ISZERO PUSH2 0x415 JUMPI PUSH1 0x0 DUP1 REVERT JUMPDEST POP PUSH2 0x430 PUSH1 0x4 DUP1 CALLDATASIZE SUB DUP2 ADD SWAP1 PUSH2 0x42B SWAP2 SWAP1 PUSH2 0x5099 JUMP JUMPDEST PUSH2 0x1391 JUMP JUMPDEST PUSH1 0x40 MLOAD PUSH2 0x43D SWAP2 SWAP1 PUSH2 0x50D5 JUMP JUMPDEST PUSH1 0x40 MLOAD DUP1 SWAP2 SUB SWAP1 RETURN JUMPDEST CALLVALUE DUP1 ISZERO PUSH2 0x452 JUMPI PUSH1 0x0 DUP1 REVERT JUMPDEST POP PUSH2 0x45B PUSH2 0x13DE JUMP JUMPDEST PUSH1 0x40 MLOAD PUSH2 0x468 SWAP2 SWAP1 PUSH2 0x50FF JUMP JUMPDEST PUSH1 0x40 MLOAD DUP1 SWAP2 SUB SWAP1 RETURN JUMPDEST CALLVALUE DUP1 ISZERO PUSH2 0x47D JUMPI PUSH1 0x0 DUP1 REVERT JUMPDEST POP PUSH2 0x498 PUSH1 0x4 DUP1 CALLDATASIZE SUB DUP2 ADD SWAP1 PUSH2 0x493 SWAP2 SWAP1 PUSH2 0x511A JUMP JUMPDEST PUSH2 0x13F7 JUMP JUMPDEST STOP JUMPDEST CALLVALUE DUP1 ISZERO PUSH2 0x4A6 JUMPI PUSH1 0x0 DUP1 REVERT JUMPDEST POP PUSH2 0x4C1 PUSH1 0x4 DUP1 CALLDATASIZE SUB DUP2 ADD SWAP1 PUSH2 0x4BC SWAP2 SWAP1 PUSH2 0x5099 JUMP JUMPDEST PUSH2 0x1457 JUMP JUMPDEST STOP JUMPDEST PUSH2 0x4CB PUSH2 0x15DF JUMP JUMPDEST STOP JUMPDEST CALLVALUE DUP1 ISZERO PUSH2 0x4D9 JUMPI PUSH1 0x0 DUP1 REVERT JUMPDEST POP PUSH2 0x4E2 PUSH2 0x1694 JUMP JUMPDEST PUSH1 0x40 MLOAD PUSH2 0x4EF SWAP2 SWAP1 PUSH2 0x4FAB JUMP JUMPDEST PUSH1 0x40 MLOAD DUP1 SWAP2 SUB SWAP1 RETURN JUMPDEST CALLVALUE DUP1 ISZERO PUSH2 0x504 JUMPI PUSH1 0x0 DUP1 REVERT JUMPDEST POP PUSH2 0x51F PUSH1 0x4 DUP1 CALLDATASIZE SUB DUP2 ADD SWAP1 PUSH2 0x51A SWAP2 SWAP1 PUSH2 0x511A JUMP JUMPDEST PUSH2 0x16BF JUMP JUMPDEST STOP JUMPDEST CALLVALUE DUP1 ISZERO PUSH2 0x52D JUMPI PUSH1 0x0 DUP1 REVERT JUMPDEST POP PUSH2 0x548 PUSH1 0x4 DUP1 CALLDATASIZE SUB DUP2 ADD SWAP1 PUSH2 0x543 SWAP2 SWAP1 PUSH2 0x4F3D JUMP JUMPDEST PUSH2 0x16DF JUMP JUMPDEST STOP JUMPDEST PUSH2 0x564 PUSH1 0x4 DUP1 CALLDATASIZE SUB DUP2 ADD SWAP1 PUSH2 0x55F SWAP2 SWAP1 PUSH2 0x52A2 JUMP JUMPDEST PUSH2 0x173F JUMP JUMPDEST STOP JUMPDEST CALLVALUE DUP1 ISZERO PUSH2 0x572 JUMPI PUSH1 0x0 DUP1 REVERT JUMPDEST POP PUSH2 0x57B PUSH2 0x187B JUMP JUMPDEST PUSH1 0x40 MLOAD PUSH2 0x588 SWAP2 SWAP1 PUSH2 0x5317 JUMP JUMPDEST PUSH1 0x40 MLOAD DUP1 SWAP2 SUB SWAP1 RETURN JUMPDEST CALLVALUE DUP1 ISZERO PUSH2 0x59D JUMPI PUSH1 0x0 DUP1 REVERT JUMPDEST POP PUSH2 0x5B8 PUSH1 0x4 DUP1 CALLDATASIZE SUB DUP2 ADD SWAP1 PUSH2 0x5B3 SWAP2 SWAP1 PUSH2 0x53D3 JUMP JUMPDEST PUSH2 0x1934 JUMP JUMPDEST STOP JUMPDEST CALLVALUE DUP1 ISZERO PUSH2 0x5C6 JUMPI PUSH1 0x0 DUP1 REVERT JUMPDEST POP PUSH2 0x5E1 PUSH1 0x4 DUP1 CALLDATASIZE SUB DUP2 ADD SWAP1 PUSH2 0x5DC SWAP2 SWAP1 PUSH2 0x4F3D JUMP JUMPDEST PUSH2 0x1950 JUMP JUMPDEST PUSH1 0x40 MLOAD PUSH2 0x5EE SWAP2 SWAP1 PUSH2 0x4FAB JUMP JUMPDEST PUSH1 0x40 MLOAD DUP1 SWAP2 SUB SWAP1 RETURN JUMPDEST CALLVALUE DUP1 ISZERO PUSH2 0x603 JUMPI PUSH1 0x0 DUP1 REVERT JUMPDEST POP PUSH2 0x60C PUSH2 0x19D6 JUMP JUMPDEST PUSH1 0x40 MLOAD PUSH2 0x619 SWAP2 SWAP1 PUSH2 0x4EE5 JUMP JUMPDEST PUSH1 0x40 MLOAD DUP1 SWAP2 SUB SWAP1 RETURN JUMPDEST CALLVALUE DUP1 ISZERO PUSH2 0x62E JUMPI PUSH1 0x0 DUP1 REVERT JUMPDEST POP PUSH2 0x649 PUSH1 0x4 DUP1 CALLDATASIZE SUB DUP2 ADD SWAP1 PUSH2 0x644 SWAP2 SWAP1 PUSH2 0x5099 JUMP JUMPDEST PUSH2 0x1A65 JUMP JUMPDEST PUSH1 0x40 MLOAD PUSH2 0x656 SWAP2 SWAP1 PUSH2 0x50D5 JUMP JUMPDEST PUSH1 0x40 MLOAD DUP1 SWAP2 SUB SWAP1 RETURN JUMPDEST CALLVALUE DUP1 ISZERO PUSH2 0x66B JUMPI PUSH1 0x0 DUP1 REVERT JUMPDEST POP PUSH2 0x674 PUSH2 0x1B1C JUMP JUMPDEST STOP JUMPDEST CALLVALUE DUP1 ISZERO PUSH2 0x682 JUMPI PUSH1 0x0 DUP1 REVERT JUMPDEST POP PUSH2 0x69D PUSH1 0x4 DUP1 CALLDATASIZE SUB DUP2 ADD SWAP1 PUSH2 0x698 SWAP2 SWAP1 PUSH2 0x5455 JUMP JUMPDEST PUSH2 0x1B30 JUMP JUMPDEST STOP JUMPDEST CALLVALUE DUP1 ISZERO PUSH2 0x6AB JUMPI PUSH1 0x0 DUP1 REVERT JUMPDEST POP PUSH2 0x6B4 PUSH2 0x1BBD JUMP JUMPDEST PUSH1 0x40 MLOAD PUSH2 0x6C1 SWAP2 SWAP1 PUSH2 0x50D5 JUMP JUMPDEST PUSH1 0x40 MLOAD DUP1 SWAP2 SUB SWAP1 RETURN JUMPDEST CALLVALUE DUP1 ISZERO PUSH2 0x6D6 JUMPI PUSH1 0x0 DUP1 REVERT JUMPDEST POP PUSH2 0x6DF PUSH2 0x1BCB JUMP JUMPDEST STOP JUMPDEST CALLVALUE DUP1 ISZERO PUSH2 0x6ED JUMPI PUSH1 0x0 DUP1 REVERT JUMPDEST POP PUSH2 0x708 PUSH1 0x4 DUP1 CALLDATASIZE SUB DUP2 ADD SWAP1 PUSH2 0x703 SWAP2 SWAP1 PUSH2 0x5099 JUMP JUMPDEST PUSH2 0x2397 JUMP JUMPDEST PUSH1 0x40 MLOAD PUSH2 0x715 SWAP2 SWAP1 PUSH2 0x5566 JUMP JUMPDEST PUSH1 0x40 MLOAD DUP1 SWAP2 SUB SWAP1 RETURN JUMPDEST CALLVALUE DUP1 ISZERO PUSH2 0x72A JUMPI PUSH1 0x0 DUP1 REVERT JUMPDEST POP PUSH2 0x733 PUSH2 0x2566 JUMP JUMPDEST PUSH1 0x40 MLOAD PUSH2 0x740 SWAP2 SWAP1 PUSH2 0x50FF JUMP JUMPDEST PUSH1 0x40 MLOAD DUP1 SWAP2 SUB SWAP1 RETURN JUMPDEST CALLVALUE DUP1 ISZERO PUSH2 0x755 JUMPI PUSH1 0x0 DUP1 REVERT JUMPDEST POP PUSH2 0x75E PUSH2 0x257F JUMP JUMPDEST PUSH1 0x40 MLOAD PUSH2 0x76B SWAP2 SWAP1 PUSH2 0x50D5 JUMP JUMPDEST PUSH1 0x40 MLOAD DUP1 SWAP2 SUB SWAP1 RETURN JUMPDEST CALLVALUE DUP1 ISZERO PUSH2 0x780 JUMPI PUSH1 0x0 DUP1 REVERT JUMPDEST POP PUSH2 0x789 PUSH2 0x258A JUMP JUMPDEST PUSH1 0x40 MLOAD PUSH2 0x796 SWAP2 SWAP1 PUSH2 0x5646 JUMP JUMPDEST PUSH1 0x40 MLOAD DUP1 SWAP2 SUB SWAP1 RETURN JUMPDEST CALLVALUE DUP1 ISZERO PUSH2 0x7AB JUMPI PUSH1 0x0 DUP1 REVERT JUMPDEST POP PUSH2 0x7B4 PUSH2 0x260B JUMP JUMPDEST PUSH1 0x40 MLOAD PUSH2 0x7C1 SWAP2 SWAP1 PUSH2 0x4FAB JUMP JUMPDEST PUSH1 0x40 MLOAD DUP1 SWAP2 SUB SWAP1 RETURN JUMPDEST CALLVALUE DUP1 ISZERO PUSH2 0x7D6 JUMPI PUSH1 0x0 DUP1 REVERT JUMPDEST POP PUSH2 0x7F1 PUSH1 0x4 DUP1 CALLDATASIZE SUB DUP2 ADD SWAP1 PUSH2 0x7EC SWAP2 SWAP1 PUSH2 0x506C JUMP JUMPDEST PUSH2 0x2635 JUMP JUMPDEST STOP JUMPDEST CALLVALUE DUP1 ISZERO PUSH2 0x7FF JUMPI PUSH1 0x0 DUP1 REVERT JUMPDEST POP PUSH2 0x808 PUSH2 0x265E JUMP JUMPDEST PUSH1 0x40 MLOAD PUSH2 0x815 SWAP2 SWAP1 PUSH2 0x4EE5 JUMP JUMPDEST PUSH1 0x40 MLOAD DUP1 SWAP2 SUB SWAP1 RETURN JUMPDEST CALLVALUE DUP1 ISZERO PUSH2 0x82A JUMPI PUSH1 0x0 DUP1 REVERT JUMPDEST POP PUSH2 0x845 PUSH1 0x4 DUP1 CALLDATASIZE SUB DUP2 ADD SWAP1 PUSH2 0x840 SWAP2 SWAP1 PUSH2 0x5099 JUMP JUMPDEST PUSH2 0x26F0 JUMP JUMPDEST STOP JUMPDEST CALLVALUE DUP1 ISZERO PUSH2 0x853 JUMPI PUSH1 0x0 DUP1 REVERT JUMPDEST POP PUSH2 0x86E PUSH1 0x4 DUP1 CALLDATASIZE SUB DUP2 ADD SWAP1 PUSH2 0x869 SWAP2 SWAP1 PUSH2 0x5694 JUMP JUMPDEST PUSH2 0x2833 JUMP JUMPDEST STOP JUMPDEST CALLVALUE DUP1 ISZERO PUSH2 0x87C JUMPI PUSH1 0x0 DUP1 REVERT JUMPDEST POP PUSH2 0x897 PUSH1 0x4 DUP1 CALLDATASIZE SUB DUP2 ADD SWAP1 PUSH2 0x892 SWAP2 SWAP1 PUSH2 0x5099 JUMP JUMPDEST PUSH2 0x2849 JUMP JUMPDEST STOP JUMPDEST CALLVALUE DUP1 ISZERO PUSH2 0x8A5 JUMPI PUSH1 0x0 DUP1 REVERT JUMPDEST POP PUSH2 0x8C0 PUSH1 0x4 DUP1 CALLDATASIZE SUB DUP2 ADD SWAP1 PUSH2 0x8BB SWAP2 SWAP1 PUSH2 0x4F3D JUMP JUMPDEST PUSH2 0x2896 JUMP JUMPDEST PUSH1 0x40 MLOAD PUSH2 0x8CD SWAP2 SWAP1 PUSH2 0x56E3 JUMP JUMPDEST PUSH1 0x40 MLOAD DUP1 SWAP2 SUB SWAP1 RETURN JUMPDEST CALLVALUE DUP1 ISZERO PUSH2 0x8E2 JUMPI PUSH1 0x0 DUP1 REVERT JUMPDEST POP PUSH2 0x8FD PUSH1 0x4 DUP1 CALLDATASIZE SUB DUP2 ADD SWAP1 PUSH2 0x8F8 SWAP2 SWAP1 PUSH2 0x56FE JUMP JUMPDEST PUSH2 0x28CB JUMP JUMPDEST STOP JUMPDEST CALLVALUE DUP1 ISZERO PUSH2 0x90B JUMPI PUSH1 0x0 DUP1 REVERT JUMPDEST POP PUSH2 0x926 PUSH1 0x4 DUP1 CALLDATASIZE SUB DUP2 ADD SWAP1 PUSH2 0x921 SWAP2 SWAP1 PUSH2 0x4FF2 JUMP JUMPDEST PUSH2 0x292D JUMP JUMPDEST STOP JUMPDEST CALLVALUE DUP1 ISZERO PUSH2 0x934 JUMPI PUSH1 0x0 DUP1 REVERT JUMPDEST POP PUSH2 0x94F PUSH1 0x4 DUP1 CALLDATASIZE SUB DUP2 ADD SWAP1 PUSH2 0x94A SWAP2 SWAP1 PUSH2 0x4F3D JUMP JUMPDEST PUSH2 0x29A8 JUMP JUMPDEST PUSH1 0x40 MLOAD PUSH2 0x95C SWAP2 SWAP1 PUSH2 0x50D5 JUMP JUMPDEST PUSH1 0x40 MLOAD DUP1 SWAP2 SUB SWAP1 RETURN JUMPDEST CALLVALUE DUP1 ISZERO PUSH2 0x971 JUMPI PUSH1 0x0 DUP1 REVERT JUMPDEST POP PUSH2 0x97A PUSH2 0x29C0 JUMP JUMPDEST STOP JUMPDEST CALLVALUE DUP1 ISZERO PUSH2 0x988 JUMPI PUSH1 0x0 DUP1 REVERT JUMPDEST POP PUSH2 0x991 PUSH2 0x2CAE JUMP JUMPDEST PUSH1 0x40 MLOAD PUSH2 0x99E SWAP2 SWAP1 PUSH2 0x50D5 JUMP JUMPDEST PUSH1 0x40 MLOAD DUP1 SWAP2 SUB SWAP1 RETURN JUMPDEST CALLVALUE DUP1 ISZERO PUSH2 0x9B3 JUMPI PUSH1 0x0 DUP1 REVERT JUMPDEST POP PUSH2 0x9CE PUSH1 0x4 DUP1 CALLDATASIZE SUB DUP2 ADD SWAP1 PUSH2 0x9C9 SWAP2 SWAP1 PUSH2 0x5838 JUMP JUMPDEST PUSH2 0x2CB9 JUMP JUMPDEST STOP JUMPDEST CALLVALUE DUP1 ISZERO PUSH2 0x9DC JUMPI PUSH1 0x0 DUP1 REVERT JUMPDEST POP PUSH2 0x9E5 PUSH2 0x2CD8 JUMP JUMPDEST PUSH1 0x40 MLOAD PUSH2 0x9F2 SWAP2 SWAP1 PUSH2 0x4EE5 JUMP JUMPDEST PUSH1 0x40 MLOAD DUP1 SWAP2 SUB SWAP1 RETURN JUMPDEST CALLVALUE DUP1 ISZERO PUSH2 0xA07 JUMPI PUSH1 0x0 DUP1 REVERT JUMPDEST POP PUSH2 0xA22 PUSH1 0x4 DUP1 CALLDATASIZE SUB DUP2 ADD SWAP1 PUSH2 0xA1D SWAP2 SWAP1 PUSH2 0x4F3D JUMP JUMPDEST PUSH2 0x2D67 JUMP JUMPDEST PUSH1 0x40 MLOAD PUSH2 0xA2F SWAP2 SWAP1 PUSH2 0x4EE5 JUMP JUMPDEST PUSH1 0x40 MLOAD DUP1 SWAP2 SUB SWAP1 RETURN JUMPDEST CALLVALUE DUP1 ISZERO PUSH2 0xA44 JUMPI PUSH1 0x0 DUP1 REVERT JUMPDEST POP PUSH2 0xA4D PUSH2 0x2E12 JUMP JUMPDEST PUSH1 0x40 MLOAD PUSH2 0xA5A SWAP2 SWAP1 PUSH2 0x50FF JUMP JUMPDEST PUSH1 0x40 MLOAD DUP1 SWAP2 SUB SWAP1 RETURN JUMPDEST CALLVALUE DUP1 ISZERO PUSH2 0xA6F JUMPI PUSH1 0x0 DUP1 REVERT JUMPDEST POP PUSH2 0xA8A PUSH1 0x4 DUP1 CALLDATASIZE SUB DUP2 ADD SWAP1 PUSH2 0xA85 SWAP2 SWAP1 PUSH2 0x53D3 JUMP JUMPDEST PUSH2 0x2E2B JUMP JUMPDEST STOP JUMPDEST CALLVALUE DUP1 ISZERO PUSH2 0xA98 JUMPI PUSH1 0x0 DUP1 REVERT JUMPDEST POP PUSH2 0xAA1 PUSH2 0x2E47 JUMP JUMPDEST PUSH1 0x40 MLOAD PUSH2 0xAAE SWAP2 SWAP1 PUSH2 0x50D5 JUMP JUMPDEST PUSH1 0x40 MLOAD DUP1 SWAP2 SUB SWAP1 RETURN JUMPDEST CALLVALUE DUP1 ISZERO PUSH2 0xAC3 JUMPI PUSH1 0x0 DUP1 REVERT JUMPDEST POP PUSH2 0xADE PUSH1 0x4 DUP1 CALLDATASIZE SUB DUP2 ADD SWAP1 PUSH2 0xAD9 SWAP2 SWAP1 PUSH2 0x4F3D JUMP JUMPDEST PUSH2 0x2E52 JUMP JUMPDEST STOP JUMPDEST CALLVALUE DUP1 ISZERO PUSH2 0xAEC JUMPI PUSH1 0x0 DUP1 REVERT JUMPDEST POP PUSH2 0xB07 PUSH1 0x4 DUP1 CALLDATASIZE SUB DUP2 ADD SWAP1 PUSH2 0xB02 SWAP2 SWAP1 PUSH2 0x4F3D JUMP JUMPDEST PUSH2 0x2E65 JUMP JUMPDEST STOP JUMPDEST CALLVALUE DUP1 ISZERO PUSH2 0xB15 JUMPI PUSH1 0x0 DUP1 REVERT JUMPDEST POP PUSH2 0xB30 PUSH1 0x4 DUP1 CALLDATASIZE SUB DUP2 ADD SWAP1 PUSH2 0xB2B SWAP2 SWAP1 PUSH2 0x5866 JUMP JUMPDEST PUSH2 0x2E78 JUMP JUMPDEST PUSH1 0x40 MLOAD PUSH2 0xB3D SWAP2 SWAP1 PUSH2 0x4E3A JUMP JUMPDEST PUSH1 0x40 MLOAD DUP1 SWAP2 SUB SWAP1 RETURN JUMPDEST CALLVALUE DUP1 ISZERO PUSH2 0xB52 JUMPI PUSH1 0x0 DUP1 REVERT JUMPDEST POP PUSH2 0xB6D PUSH1 0x4 DUP1 CALLDATASIZE SUB DUP2 ADD SWAP1 PUSH2 0xB68 SWAP2 SWAP1 PUSH2 0x5969 JUMP JUMPDEST PUSH2 0x2F0D JUMP JUMPDEST PUSH1 0x40 MLOAD PUSH2 0xB7B SWAP3 SWAP2 SWAP1 PUSH2 0x59B2 JUMP JUMPDEST PUSH1 0x40 MLOAD DUP1 SWAP2 SUB SWAP1 RETURN JUMPDEST CALLVALUE DUP1 ISZERO PUSH2 0xB90 JUMPI PUSH1 0x0 DUP1 REVERT JUMPDEST POP PUSH2 0xBAB PUSH1 0x4 DUP1 CALLDATASIZE SUB DUP2 ADD SWAP1 PUSH2 0xBA6 SWAP2 SWAP1 PUSH2 0x5099 JUMP JUMPDEST PUSH2 0x3044 JUMP JUMPDEST STOP JUMPDEST CALLVALUE DUP1 ISZERO PUSH2 0xBB9 JUMPI PUSH1 0x0 DUP1 REVERT JUMPDEST POP PUSH2 0xBD4 PUSH1 0x4 DUP1 CALLDATASIZE SUB DUP2 ADD SWAP1 PUSH2 0xBCF SWAP2 SWAP1 PUSH2 0x506C JUMP JUMPDEST PUSH2 0x30C7 JUMP JUMPDEST PUSH1 0x40 MLOAD PUSH2 0xBE1 SWAP2 SWAP1 PUSH2 0x50FF JUMP JUMPDEST PUSH1 0x40 MLOAD DUP1 SWAP2 SUB SWAP1 RETURN JUMPDEST CALLVALUE DUP1 ISZERO PUSH2 0xBF6 JUMPI PUSH1 0x0 DUP1 REVERT JUMPDEST POP PUSH2 0xC11 PUSH1 0x4 DUP1 CALLDATASIZE SUB DUP2 ADD SWAP1 PUSH2 0xC0C SWAP2 SWAP1 PUSH2 0x59DB JUMP JUMPDEST PUSH2 0x310D JUMP JUMPDEST PUSH1 0x40 MLOAD PUSH2 0xC1F SWAP3 SWAP2 SWAP1 PUSH2 0x5A08 JUMP JUMPDEST PUSH1 0x40 MLOAD DUP1 SWAP2 SUB SWAP1 RETURN JUMPDEST CALLVALUE DUP1 ISZERO PUSH2 0xC34 JUMPI PUSH1 0x0 DUP1 REVERT JUMPDEST POP PUSH2 0xC4F PUSH1 0x4 DUP1 CALLDATASIZE SUB DUP2 ADD SWAP1 PUSH2 0xC4A SWAP2 SWAP1 PUSH2 0x5A31 JUMP JUMPDEST PUSH2 0x3171 JUMP JUMPDEST STOP JUMPDEST PUSH1 0x0 PUSH32 0x80AC58CD00000000000000000000000000000000000000000000000000000000 PUSH28 0xFFFFFFFFFFFFFFFFFFFFFFFFFFFFFFFFFFFFFFFFFFFFFFFFFFFFFFFF NOT AND DUP3 PUSH28 0xFFFFFFFFFFFFFFFFFFFFFFFFFFFFFFFFFFFFFFFFFFFFFFFFFFFFFFFF NOT AND EQ DUP1 PUSH2 0xD1C JUMPI POP PUSH32 0x5B5E139F00000000000000000000000000000000000000000000000000000000 PUSH28 0xFFFFFFFFFFFFFFFFFFFFFFFFFFFFFFFFFFFFFFFFFFFFFFFFFFFFFFFF NOT AND DUP3 PUSH28 0xFFFFFFFFFFFFFFFFFFFFFFFFFFFFFFFFFFFFFFFFFFFFFFFFFFFFFFFF NOT AND EQ JUMPDEST DUP1 PUSH2 0xD2C JUMPI POP PUSH2 0xD2B DUP3 PUSH2 0x33C4 JUMP JUMPDEST JUMPDEST SWAP1 POP SWAP2 SWAP1 POP JUMP JUMPDEST PUSH1 0x60 PUSH1 0xFB DUP1 SLOAD PUSH2 0xD42 SWAP1 PUSH2 0x5AA0 JUMP JUMPDEST DUP1 PUSH1 0x1F ADD PUSH1 0x20 DUP1 SWAP2 DIV MUL PUSH1 0x20 ADD PUSH1 0x40 MLOAD SWAP1 DUP2 ADD PUSH1 0x40 MSTORE DUP1 SWAP3 SWAP2 SWAP1 DUP2 DUP2 MSTORE PUSH1 0x20 ADD DUP3 DUP1 SLOAD PUSH2 0xD6E SWAP1 PUSH2 0x5AA0 JUMP JUMPDEST DUP1 ISZERO PUSH2 0xDBB JUMPI DUP1 PUSH1 0x1F LT PUSH2 0xD90 JUMPI PUSH2 0x100 DUP1 DUP4 SLOAD DIV MUL DUP4 MSTORE SWAP2 PUSH1 0x20 ADD SWAP2 PUSH2 0xDBB JUMP JUMPDEST DUP3 ADD SWAP2 SWAP1 PUSH1 0x0 MSTORE PUSH1 0x20 PUSH1 0x0 KECCAK256 SWAP1 JUMPDEST DUP2 SLOAD DUP2 MSTORE SWAP1 PUSH1 0x1 ADD SWAP1 PUSH1 0x20 ADD DUP1 DUP4 GT PUSH2 0xD9E JUMPI DUP3 SWAP1 SUB PUSH1 0x1F AND DUP3 ADD SWAP2 JUMPDEST POP POP POP POP POP SWAP1 POP SWAP1 JUMP JUMPDEST PUSH1 0x0 PUSH2 0xDD0 DUP3 PUSH2 0x342E JUMP JUMPDEST PUSH1 0xFF PUSH1 0x0 DUP4 DUP2 MSTORE PUSH1 0x20 ADD SWAP1 DUP2 MSTORE PUSH1 0x20 ADD PUSH1 0x0 KECCAK256 PUSH1 0x0 SWAP1 SLOAD SWAP1 PUSH2 0x100 EXP SWAP1 DIV PUSH20 0xFFFFFFFFFFFFFFFFFFFFFFFFFFFFFFFFFFFFFFFF AND SWAP1 POP SWAP2 SWAP1 POP JUMP JUMPDEST PUSH1 0x0 PUSH2 0xE16 DUP3 PUSH2 0x1950 JUMP JUMPDEST SWAP1 POP DUP1 PUSH20 0xFFFFFFFFFFFFFFFFFFFFFFFFFFFFFFFFFFFFFFFF AND DUP4 PUSH20 0xFFFFFFFFFFFFFFFFFFFFFFFFFFFFFFFFFFFFFFFF AND SUB PUSH2 0xE86 JUMPI PUSH1 0x40 MLOAD PUSH32 0x8C379A000000000000000000000000000000000000000000000000000000000 DUP2 MSTORE PUSH1 0x4 ADD PUSH2 0xE7D SWAP1 PUSH2 0x5B43 JUMP JUMPDEST PUSH1 0x40 MLOAD DUP1 SWAP2 SUB SWAP1 REVERT JUMPDEST DUP1 PUSH20 0xFFFFFFFFFFFFFFFFFFFFFFFFFFFFFFFFFFFFFFFF AND PUSH2 0xEA5 PUSH2 0x3479 JUMP JUMPDEST PUSH20 0xFFFFFFFFFFFFFFFFFFFFFFFFFFFFFFFFFFFFFFFF AND EQ DUP1 PUSH2 0xED4 JUMPI POP PUSH2 0xED3 DUP2 PUSH2 0xECE PUSH2 0x3479 JUMP JUMPDEST PUSH2 0x2E78 JUMP JUMPDEST JUMPDEST PUSH2 0xF13 JUMPI PUSH1 0x40 MLOAD PUSH32 0x8C379A000000000000000000000000000000000000000000000000000000000 DUP2 MSTORE PUSH1 0x4 ADD PUSH2 0xF0A SWAP1 PUSH2 0x5BD5 JUMP JUMPDEST PUSH1 0x40 MLOAD DUP1 SWAP2 SUB SWAP1 REVERT JUMPDEST PUSH2 0xF1D DUP4 DUP4 PUSH2 0x3481 JUMP JUMPDEST POP POP POP JUMP JUMPDEST PUSH2 0xF2A PUSH2 0x353A JUMP JUMPDEST TIMESTAMP PUSH2 0x165 SLOAD GT ISZERO PUSH2 0xF67 JUMPI PUSH1 0x40 MLOAD PUSH32 0xF7D3556B00000000000000000000000000000000000000000000000000000000 DUP2 MSTORE PUSH1 0x4 ADD PUSH1 0x40 MLOAD DUP1 SWAP2 SUB SWAP1 REVERT JUMPDEST ORIGIN PUSH20 0xFFFFFFFFFFFFFFFFFFFFFFFFFFFFFFFFFFFFFFFF AND CALLER PUSH20 0xFFFFFFFFFFFFFFFFFFFFFFFFFFFFFFFFFFFFFFFF AND EQ PUSH2 0xFCC JUMPI PUSH1 0x40 MLOAD PUSH32 0x192E6D1600000000000000000000000000000000000000000000000000000000 DUP2 MSTORE PUSH1 0x4 ADD PUSH1 0x40 MLOAD DUP1 SWAP2 SUB SWAP1 REVERT JUMPDEST PUSH1 0x0 PUSH2 0x162 PUSH1 0x0 SWAP1 SLOAD SWAP1 PUSH2 0x100 EXP SWAP1 DIV PUSH2 0xFFFF AND SWAP1 POP PUSH1 0x0 DUP3 PUSH2 0xFFFF AND SUB PUSH2 0x1020 JUMPI PUSH1 0x40 MLOAD PUSH32 0x47BAADB900000000000000000000000000000000000000000000000000000000 DUP2 MSTORE PUSH1 0x4 ADD PUSH1 0x40 MLOAD DUP1 SWAP2 SUB SWAP1 REVERT JUMPDEST PUSH2 0x162 PUSH1 0x4 SWAP1 SLOAD SWAP1 PUSH2 0x100 EXP SWAP1 DIV PUSH2 0xFFFF AND PUSH2 0xFFFF AND DUP3 PUSH2 0xFFFF AND GT ISZERO PUSH2 0x1073 JUMPI PUSH1 0x40 MLOAD PUSH32 0xB7007E400000000000000000000000000000000000000000000000000000000 DUP2 MSTORE PUSH1 0x4 ADD PUSH1 0x40 MLOAD DUP1 SWAP2 SUB SWAP1 REVERT JUMPDEST PUSH2 0x162 PUSH1 0x2 SWAP1 SLOAD SWAP1 PUSH2 0x100 EXP SWAP1 DIV PUSH2 0xFFFF AND PUSH2 0xFFFF AND DUP3 DUP3 PUSH2 0x1095 SWAP2 SWAP1 PUSH2 0x5C24 JUMP JUMPDEST PUSH2 0xFFFF AND GT ISZERO PUSH2 0x10D1 JUMPI PUSH1 0x40 MLOAD PUSH32 0xC4F28E8100000000000000000000000000000000000000000000000000000000 DUP2 MSTORE PUSH1 0x4 ADD PUSH1 0x40 MLOAD DUP1 SWAP2 SUB SWAP1 REVERT JUMPDEST PUSH2 0x10DE DUP3 PUSH2 0xFFFF AND PUSH2 0x29A8 JUMP JUMPDEST CALLVALUE LT ISZERO PUSH2 0x1117 JUMPI PUSH1 0x40 MLOAD PUSH32 0x4130C7A000000000000000000000000000000000000000000000000000000000 DUP2 MSTORE PUSH1 0x4 ADD PUSH1 0x40 MLOAD DUP1 SWAP2 SUB SWAP1 REVERT JUMPDEST PUSH1 0x0 PUSH2 0x164 PUSH1 0x0 SWAP1 SLOAD SWAP1 PUSH2 0x100 EXP SWAP1 DIV PUSH20 0xFFFFFFFFFFFFFFFFFFFFFFFFFFFFFFFFFFFFFFFF AND PUSH20 0xFFFFFFFFFFFFFFFFFFFFFFFFFFFFFFFFFFFFFFFF AND CALLVALUE PUSH1 0x40 MLOAD PUSH2 0x1160 SWAP1 PUSH2 0x5C8B JUMP JUMPDEST PUSH1 0x0 PUSH1 0x40 MLOAD DUP1 DUP4 SUB DUP2 DUP6 DUP8 GAS CALL SWAP3 POP POP POP RETURNDATASIZE DUP1 PUSH1 0x0 DUP2 EQ PUSH2 0x119D JUMPI PUSH1 0x40 MLOAD SWAP2 POP PUSH1 0x1F NOT PUSH1 0x3F RETURNDATASIZE ADD AND DUP3 ADD PUSH1 0x40 MSTORE RETURNDATASIZE DUP3 MSTORE RETURNDATASIZE PUSH1 0x0 PUSH1 0x20 DUP5 ADD RETURNDATACOPY PUSH2 0x11A2 JUMP JUMPDEST PUSH1 0x60 SWAP2 POP JUMPDEST POP POP SWAP1 POP DUP1 PUSH2 0x11DD JUMPI PUSH1 0x40 MLOAD PUSH32 0xB4971FE00000000000000000000000000000000000000000000000000000000 DUP2 MSTORE PUSH1 0x4 ADD PUSH1 0x40 MLOAD DUP1 SWAP2 SUB SWAP1 REVERT JUMPDEST DUP3 PUSH2 0x162 PUSH1 0x0 DUP3 DUP3 DUP3 SWAP1 SLOAD SWAP1 PUSH2 0x100 EXP SWAP1 DIV PUSH2 0xFFFF AND PUSH2 0x11FD SWAP2 SWAP1 PUSH2 0x5C24 JUMP JUMPDEST SWAP3 POP PUSH2 0x100 EXP DUP2 SLOAD DUP2 PUSH2 0xFFFF MUL NOT AND SWAP1 DUP4 PUSH2 0xFFFF AND MUL OR SWAP1 SSTORE POP PUSH1 0x0 DUP1 PUSH1 0x0 SWAP1 POP JUMPDEST DUP5 PUSH2 0xFFFF AND DUP2 LT ISZERO PUSH2 0x1334 JUMPI PUSH2 0x1233 PUSH2 0x358B JUMP JUMPDEST SWAP2 POP PUSH2 0x172 PUSH1 0x0 CALLER PUSH20 0xFFFFFFFFFFFFFFFFFFFFFFFFFFFFFFFFFFFFFFFF AND PUSH20 0xFFFFFFFFFFFFFFFFFFFFFFFFFFFFFFFFFFFFFFFF AND DUP2 MSTORE PUSH1 0x20 ADD SWAP1 DUP2 MSTORE PUSH1 0x20 ADD PUSH1 0x0 KECCAK256 PUSH2 0x167 DUP4 PUSH2 0xFFFF AND DUP2 SLOAD DUP2 LT PUSH2 0x128E JUMPI PUSH2 0x128D PUSH2 0x5CA0 JUMP JUMPDEST JUMPDEST SWAP1 PUSH1 0x0 MSTORE PUSH1 0x20 PUSH1 0x0 KECCAK256 SWAP1 PUSH1 0x10 SWAP2 DUP3 DUP3 DIV ADD SWAP2 SWAP1 MOD PUSH1 0x2 MUL SWAP1 SLOAD SWAP1 PUSH2 0x100 EXP SWAP1 DIV PUSH2 0xFFFF AND SWAP1 DUP1 PUSH1 0x1 DUP2 SLOAD ADD DUP1 DUP3 SSTORE DUP1 SWAP2 POP POP PUSH1 0x1 SWAP1 SUB SWAP1 PUSH1 0x0 MSTORE PUSH1 0x20 PUSH1 0x0 KECCAK256 SWAP1 PUSH1 0x10 SWAP2 DUP3 DUP3 DIV ADD SWAP2 SWAP1 MOD PUSH1 0x2 MUL SWAP1 SWAP2 SWAP1 SWAP2 SWAP1 SWAP2 PUSH2 0x100 EXP DUP2 SLOAD DUP2 PUSH2 0xFFFF MUL NOT AND SWAP1 DUP4 PUSH2 0xFFFF AND MUL OR SWAP1 SSTORE POP PUSH2 0x1306 DUP3 PUSH2 0xFFFF AND PUSH2 0x35B6 JUMP JUMPDEST PUSH1 0x4 PUSH2 0x166 PUSH1 0x0 DUP3 DUP3 SLOAD PUSH2 0x131A SWAP2 SWAP1 PUSH2 0x5CCF JUMP JUMPDEST SWAP3 POP POP DUP2 SWAP1 SSTORE POP DUP1 DUP1 PUSH2 0x132C SWAP1 PUSH2 0x5D03 JUMP JUMPDEST SWAP2 POP POP PUSH2 0x121F JUMP JUMPDEST POP CALLER PUSH20 0xFFFFFFFFFFFFFFFFFFFFFFFFFFFFFFFFFFFFFFFF AND PUSH32 0x340A5DD5422F528CDB4F6E8BCC551FD61B8C114B12AE9403EEF2A63790EFD0EA DUP6 PUSH1 0x40 MLOAD PUSH2 0x137B SWAP2 SWAP1 PUSH2 0x5D86 JUMP JUMPDEST PUSH1 0x40 MLOAD DUP1 SWAP2 SUB SWAP1 LOG2 POP POP POP PUSH2 0x138E PUSH2 0x36C8 JUMP JUMPDEST POP JUMP JUMPDEST PUSH1 0x0 PUSH2 0x172 PUSH1 0x0 DUP4 PUSH20 0xFFFFFFFFFFFFFFFFFFFFFFFFFFFFFFFFFFFFFFFF AND PUSH20 0xFFFFFFFFFFFFFFFFFFFFFFFFFFFFFFFFFFFFFFFF AND DUP2 MSTORE PUSH1 0x20 ADD SWAP1 DUP2 MSTORE PUSH1 0x20 ADD PUSH1 0x0 KECCAK256 DUP1 SLOAD SWAP1 POP SWAP1 POP SWAP2 SWAP1 POP JUMP JUMPDEST PUSH1 0x0 PUSH2 0x162 PUSH1 0x2 SWAP1 SLOAD SWAP1 PUSH2 0x100 EXP SWAP1 DIV PUSH2 0xFFFF AND SWAP1 POP SWAP1 JUMP JUMPDEST PUSH2 0x1408 PUSH2 0x1402 PUSH2 0x3479 JUMP JUMPDEST DUP3 PUSH2 0x36D3 JUMP JUMPDEST PUSH2 0x1447 JUMPI PUSH1 0x40 MLOAD PUSH32 0x8C379A000000000000000000000000000000000000000000000000000000000 DUP2 MSTORE PUSH1 0x4 ADD PUSH2 0x143E SWAP1 PUSH2 0x5E13 JUMP JUMPDEST PUSH1 0x40 MLOAD DUP1 SWAP2 SUB SWAP1 REVERT JUMPDEST PUSH2 0x1452 DUP4 DUP4 DUP4 PUSH2 0x3768 JUMP JUMPDEST POP POP POP JUMP JUMPDEST PUSH32 0x0 PUSH20 0xFFFFFFFFFFFFFFFFFFFFFFFFFFFFFFFFFFFFFFFF AND ADDRESS PUSH20 0xFFFFFFFFFFFFFFFFFFFFFFFFFFFFFFFFFFFFFFFF AND SUB PUSH2 0x14E5 JUMPI PUSH1 0x40 MLOAD PUSH32 0x8C379A000000000000000000000000000000000000000000000000000000000 DUP2 MSTORE PUSH1 0x4 ADD PUSH2 0x14DC SWAP1 PUSH2 0x5EA5 JUMP JUMPDEST PUSH1 0x40 MLOAD DUP1 SWAP2 SUB SWAP1 REVERT JUMPDEST PUSH32 0x0 PUSH20 0xFFFFFFFFFFFFFFFFFFFFFFFFFFFFFFFFFFFFFFFF AND PUSH2 0x1524 PUSH2 0x3A61 JUMP JUMPDEST PUSH20 0xFFFFFFFFFFFFFFFFFFFFFFFFFFFFFFFFFFFFFFFF AND EQ PUSH2 0x157A JUMPI PUSH1 0x40 MLOAD PUSH32 0x8C379A000000000000000000000000000000000000000000000000000000000 DUP2 MSTORE PUSH1 0x4 ADD PUSH2 0x1571 SWAP1 PUSH2 0x5F37 JUMP JUMPDEST PUSH1 0x40 MLOAD DUP1 SWAP2 SUB SWAP1 REVERT JUMPDEST PUSH2 0x1583 DUP2 PUSH2 0x3AB8 JUMP JUMPDEST PUSH2 0x15DC DUP2 PUSH1 0x0 PUSH8 0xFFFFFFFFFFFFFFFF DUP2 GT ISZERO PUSH2 0x15A2 JUMPI PUSH2 0x15A1 PUSH2 0x5177 JUMP JUMPDEST JUMPDEST PUSH1 0x40 MLOAD SWAP1 DUP1 DUP3 MSTORE DUP1 PUSH1 0x1F ADD PUSH1 0x1F NOT AND PUSH1 0x20 ADD DUP3 ADD PUSH1 0x40 MSTORE DUP1 ISZERO PUSH2 0x15D4 JUMPI DUP2 PUSH1 0x20 ADD PUSH1 0x1 DUP3 MUL DUP1 CALLDATASIZE DUP4 CALLDATACOPY DUP1 DUP3 ADD SWAP2 POP POP SWAP1 POP JUMPDEST POP PUSH1 0x0 PUSH2 0x3AC3 JUMP JUMPDEST POP JUMP JUMPDEST PUSH2 0x15E7 PUSH2 0x3C31 JUMP JUMPDEST PUSH1 0x0 PUSH2 0x15F1 PUSH2 0x260B JUMP JUMPDEST PUSH20 0xFFFFFFFFFFFFFFFFFFFFFFFFFFFFFFFFFFFFFFFF AND SELFBALANCE PUSH1 0x40 MLOAD PUSH2 0x1614 SWAP1 PUSH2 0x5C8B JUMP JUMPDEST PUSH1 0x0 PUSH1 0x40 MLOAD DUP1 DUP4 SUB DUP2 DUP6 DUP8 GAS CALL SWAP3 POP POP POP RETURNDATASIZE DUP1 PUSH1 0x0 DUP2 EQ PUSH2 0x1651 JUMPI PUSH1 0x40 MLOAD SWAP2 POP PUSH1 0x1F NOT PUSH1 0x3F RETURNDATASIZE ADD AND DUP3 ADD PUSH1 0x40 MSTORE RETURNDATASIZE DUP3 MSTORE RETURNDATASIZE PUSH1 0x0 PUSH1 0x20 DUP5 ADD RETURNDATACOPY PUSH2 0x1656 JUMP JUMPDEST PUSH1 0x60 SWAP2 POP JUMPDEST POP POP SWAP1 POP DUP1 PUSH2 0x1691 JUMPI PUSH1 0x40 MLOAD PUSH32 0xB4971FE00000000000000000000000000000000000000000000000000000000 DUP2 MSTORE PUSH1 0x4 ADD PUSH1 0x40 MLOAD DUP1 SWAP2 SUB SWAP1 REVERT JUMPDEST POP JUMP JUMPDEST PUSH1 0x0 PUSH2 0x164 PUSH1 0x0 SWAP1 SLOAD SWAP1 PUSH2 0x100 EXP SWAP1 DIV PUSH20 0xFFFFFFFFFFFFFFFFFFFFFFFFFFFFFFFFFFFFFFFF AND SWAP1 POP SWAP1 JUMP JUMPDEST PUSH2 0x16DA DUP4 DUP4 DUP4 PUSH1 0x40 MLOAD DUP1 PUSH1 0x20 ADD PUSH1 0x40 MSTORE DUP1 PUSH1 0x0 DUP2 MSTORE POP PUSH2 0x28CB JUMP JUMPDEST POP POP POP JUMP JUMPDEST PUSH2 0x16E7 PUSH2 0x3C31 JUMP JUMPDEST PUSH2 0x163 SLOAD PUSH2 0x161 SLOAD LT PUSH2 0x1734 JUMPI PUSH2 0x163 SLOAD PUSH1 0x40 MLOAD PUSH32 0x37EF31F800000000000000000000000000000000000000000000000000000000 DUP2 MSTORE PUSH1 0x4 ADD PUSH2 0x172B SWAP2 SWAP1 PUSH2 0x50D5 JUMP JUMPDEST PUSH1 0x40 MLOAD DUP1 SWAP2 SUB SWAP1 REVERT JUMPDEST DUP1 PUSH2 0x161 DUP2 SWAP1 SSTORE POP POP JUMP JUMPDEST PUSH32 0x0 PUSH20 0xFFFFFFFFFFFFFFFFFFFFFFFFFFFFFFFFFFFFFFFF AND ADDRESS PUSH20 0xFFFFFFFFFFFFFFFFFFFFFFFFFFFFFFFFFFFFFFFF AND SUB PUSH2 0x17CD JUMPI PUSH1 0x40 MLOAD PUSH32 0x8C379A000000000000000000000000000000000000000000000000000000000 DUP2 MSTORE PUSH1 0x4 ADD PUSH2 0x17C4 SWAP1 PUSH2 0x5EA5 JUMP JUMPDEST PUSH1 0x40 MLOAD DUP1 SWAP2 SUB SWAP1 REVERT JUMPDEST PUSH32 0x0 PUSH20 0xFFFFFFFFFFFFFFFFFFFFFFFFFFFFFFFFFFFFFFFF AND PUSH2 0x180C PUSH2 0x3A61 JUMP JUMPDEST PUSH20 0xFFFFFFFFFFFFFFFFFFFFFFFFFFFFFFFFFFFFFFFF AND EQ PUSH2 0x1862 JUMPI PUSH1 0x40 MLOAD PUSH32 0x8C379A000000000000000000000000000000000000000000000000000000000 DUP2 MSTORE PUSH1 0x4 ADD PUSH2 0x1859 SWAP1 PUSH2 0x5F37 JUMP JUMPDEST PUSH1 0x40 MLOAD DUP1 SWAP2 SUB SWAP1 REVERT JUMPDEST PUSH2 0x186B DUP3 PUSH2 0x3AB8 JUMP JUMPDEST PUSH2 0x1877 DUP3 DUP3 PUSH1 0x1 PUSH2 0x3AC3 JUMP JUMPDEST POP POP JUMP JUMPDEST PUSH1 0x0 PUSH32 0x0 PUSH20 0xFFFFFFFFFFFFFFFFFFFFFFFFFFFFFFFFFFFFFFFF AND ADDRESS PUSH20 0xFFFFFFFFFFFFFFFFFFFFFFFFFFFFFFFFFFFFFFFF AND EQ PUSH2 0x190B JUMPI PUSH1 0x40 MLOAD PUSH32 0x8C379A000000000000000000000000000000000000000000000000000000000 DUP2 MSTORE PUSH1 0x4 ADD PUSH2 0x1902 SWAP1 PUSH2 0x5FC9 JUMP JUMPDEST PUSH1 0x40 MLOAD DUP1 SWAP2 SUB SWAP1 REVERT JUMPDEST PUSH32 0x360894A13BA1A3210667C828492DB98DCA3E2076CC3735A920A3CA505D382BBC PUSH1 0x0 SHL SWAP1 POP SWAP1 JUMP JUMPDEST PUSH2 0x193C PUSH2 0x3C31 JUMP JUMPDEST DUP1 PUSH2 0x15F SWAP1 DUP2 PUSH2 0x194C SWAP2 SWAP1 PUSH2 0x618B JUMP JUMPDEST POP POP JUMP JUMPDEST PUSH1 0x0 DUP1 PUSH2 0x195C DUP4 PUSH2 0x3CAF JUMP JUMPDEST SWAP1 POP PUSH1 0x0 PUSH20 0xFFFFFFFFFFFFFFFFFFFFFFFFFFFFFFFFFFFFFFFF AND DUP2 PUSH20 0xFFFFFFFFFFFFFFFFFFFFFFFFFFFFFFFFFFFFFFFF AND SUB PUSH2 0x19CD JUMPI PUSH1 0x40 MLOAD PUSH32 0x8C379A000000000000000000000000000000000000000000000000000000000 DUP2 MSTORE PUSH1 0x4 ADD PUSH2 0x19C4 SWAP1 PUSH2 0x62A9 JUMP JUMPDEST PUSH1 0x40 MLOAD DUP1 SWAP2 SUB SWAP1 REVERT JUMPDEST DUP1 SWAP2 POP POP SWAP2 SWAP1 POP JUMP JUMPDEST PUSH2 0x15F DUP1 SLOAD PUSH2 0x19E4 SWAP1 PUSH2 0x5AA0 JUMP JUMPDEST DUP1 PUSH1 0x1F ADD PUSH1 0x20 DUP1 SWAP2 DIV MUL PUSH1 0x20 ADD PUSH1 0x40 MLOAD SWAP1 DUP2 ADD PUSH1 0x40 MSTORE DUP1 SWAP3 SWAP2 SWAP1 DUP2 DUP2 MSTORE PUSH1 0x20 ADD DUP3 DUP1 SLOAD PUSH2 0x1A10 SWAP1 PUSH2 0x5AA0 JUMP JUMPDEST DUP1 ISZERO PUSH2 0x1A5D JUMPI DUP1 PUSH1 0x1F LT PUSH2 0x1A32 JUMPI PUSH2 0x100 DUP1 DUP4 SLOAD DIV MUL DUP4 MSTORE SWAP2 PUSH1 0x20 ADD SWAP2 PUSH2 0x1A5D JUMP JUMPDEST DUP3 ADD SWAP2 SWAP1 PUSH1 0x0 MSTORE PUSH1 0x20 PUSH1 0x0 KECCAK256 SWAP1 JUMPDEST DUP2 SLOAD DUP2 MSTORE SWAP1 PUSH1 0x1 ADD SWAP1 PUSH1 0x20 ADD DUP1 DUP4 GT PUSH2 0x1A40 JUMPI DUP3 SWAP1 SUB PUSH1 0x1F AND DUP3 ADD SWAP2 JUMPDEST POP POP POP POP POP DUP2 JUMP JUMPDEST PUSH1 0x0 DUP1 PUSH20 0xFFFFFFFFFFFFFFFFFFFFFFFFFFFFFFFFFFFFFFFF AND DUP3 PUSH20 0xFFFFFFFFFFFFFFFFFFFFFFFFFFFFFFFFFFFFFFFF AND SUB PUSH2 0x1AD5 JUMPI PUSH1 0x40 MLOAD PUSH32 0x8C379A000000000000000000000000000000000000000000000000000000000 DUP2 MSTORE PUSH1 0x4 ADD PUSH2 0x1ACC SWAP1 PUSH2 0x633B JUMP JUMPDEST PUSH1 0x40 MLOAD DUP1 SWAP2 SUB SWAP1 REVERT JUMPDEST PUSH1 0xFE PUSH1 0x0 DUP4 PUSH20 0xFFFFFFFFFFFFFFFFFFFFFFFFFFFFFFFFFFFFFFFF AND PUSH20 0xFFFFFFFFFFFFFFFFFFFFFFFFFFFFFFFFFFFFFFFF AND DUP2 MSTORE PUSH1 0x20 ADD SWAP1 DUP2 MSTORE PUSH1 0x20 ADD PUSH1 0x0 KECCAK256 SLOAD SWAP1 POP SWAP2 SWAP1 POP JUMP JUMPDEST PUSH2 0x1B24 PUSH2 0x3C31 JUMP JUMPDEST PUSH2 0x1B2E PUSH1 0x0 PUSH2 0x3CEC JUMP JUMPDEST JUMP JUMPDEST PUSH2 0x1B38 PUSH2 0x3C31 JUMP JUMPDEST PUSH1 0x40 MLOAD DUP1 PUSH1 0x40 ADD PUSH1 0x40 MSTORE DUP1 DUP4 PUSH2 0xFFFF AND DUP2 MSTORE PUSH1 0x20 ADD DUP3 PUSH2 0xFFFF AND DUP2 MSTORE POP PUSH2 0x173 PUSH1 0x0 DUP6 PUSH1 0xFF AND PUSH1 0xFF AND DUP2 MSTORE PUSH1 0x20 ADD SWAP1 DUP2 MSTORE PUSH1 0x20 ADD PUSH1 0x0 KECCAK256 PUSH1 0x0 DUP3 ADD MLOAD DUP2 PUSH1 0x0 ADD PUSH1 0x0 PUSH2 0x100 EXP DUP2 SLOAD DUP2 PUSH2 0xFFFF MUL NOT AND SWAP1 DUP4 PUSH2 0xFFFF AND MUL OR SWAP1 SSTORE POP PUSH1 0x20 DUP3 ADD MLOAD DUP2 PUSH1 0x0 ADD PUSH1 0x2 PUSH2 0x100 EXP DUP2 SLOAD DUP2 PUSH2 0xFFFF MUL NOT AND SWAP1 DUP4 PUSH2 0xFFFF AND MUL OR SWAP1 SSTORE POP SWAP1 POP POP POP POP POP JUMP JUMPDEST PUSH1 0x0 PUSH2 0x167 DUP1 SLOAD SWAP1 POP SWAP1 POP SWAP1 JUMP JUMPDEST PUSH1 0x0 DUP1 PUSH1 0x1 SWAP1 SLOAD SWAP1 PUSH2 0x100 EXP SWAP1 DIV PUSH1 0xFF AND ISZERO SWAP1 POP DUP1 DUP1 ISZERO PUSH2 0x1BFC JUMPI POP PUSH1 0x1 PUSH1 0x0 DUP1 SLOAD SWAP1 PUSH2 0x100 EXP SWAP1 DIV PUSH1 0xFF AND PUSH1 0xFF AND LT JUMPDEST DUP1 PUSH2 0x1C29 JUMPI POP PUSH2 0x1C0B ADDRESS PUSH2 0x3DB2 JUMP JUMPDEST ISZERO DUP1 ISZERO PUSH2 0x1C28 JUMPI POP PUSH1 0x1 PUSH1 0x0 DUP1 SLOAD SWAP1 PUSH2 0x100 EXP SWAP1 DIV PUSH1 0xFF AND PUSH1 0xFF AND EQ JUMPDEST JUMPDEST PUSH2 0x1C68 JUMPI PUSH1 0x40 MLOAD PUSH32 0x8C379A000000000000000000000000000000000000000000000000000000000 DUP2 MSTORE PUSH1 0x4 ADD PUSH2 0x1C5F SWAP1 PUSH2 0x63CD JUMP JUMPDEST PUSH1 0x40 MLOAD DUP1 SWAP2 SUB SWAP1 REVERT JUMPDEST PUSH1 0x1 PUSH1 0x0 DUP1 PUSH2 0x100 EXP DUP2 SLOAD DUP2 PUSH1 0xFF MUL NOT AND SWAP1 DUP4 PUSH1 0xFF AND MUL OR SWAP1 SSTORE POP DUP1 ISZERO PUSH2 0x1CA5 JUMPI PUSH1 0x1 PUSH1 0x0 PUSH1 0x1 PUSH2 0x100 EXP DUP2 SLOAD DUP2 PUSH1 0xFF MUL NOT AND SWAP1 DUP4 ISZERO ISZERO MUL OR SWAP1 SSTORE POP JUMPDEST PUSH2 0x1CAD PUSH2 0x3DD5 JUMP JUMPDEST PUSH2 0x1CB5 PUSH2 0x3E2E JUMP JUMPDEST PUSH2 0x1D29 PUSH1 0x40 MLOAD DUP1 PUSH1 0x40 ADD PUSH1 0x40 MSTORE DUP1 PUSH1 0x13 DUP2 MSTORE PUSH1 0x20 ADD PUSH32 0x446976697472656E6420466163746F7269657300000000000000000000000000 DUP2 MSTORE POP PUSH1 0x40 MLOAD DUP1 PUSH1 0x40 ADD PUSH1 0x40 MSTORE DUP1 PUSH1 0x4 DUP2 MSTORE PUSH1 0x20 ADD PUSH32 0x4641435400000000000000000000000000000000000000000000000000000000 DUP2 MSTORE POP PUSH2 0x3E87 JUMP JUMPDEST PUSH2 0x1D31 PUSH2 0x3EE4 JUMP JUMPDEST PUSH2 0x1D52 PUSH1 0x40 MLOAD DUP1 PUSH1 0x80 ADD PUSH1 0x40 MSTORE DUP1 PUSH1 0x44 DUP2 MSTORE PUSH1 0x20 ADD PUSH2 0x791F PUSH1 0x44 SWAP2 CODECOPY PUSH2 0x1934 JUMP JUMPDEST PUSH3 0x186A0 PUSH2 0x166 DUP2 SWAP1 SSTORE POP PUSH1 0x0 PUSH2 0x162 PUSH1 0x0 PUSH2 0x100 EXP DUP2 SLOAD DUP2 PUSH2 0xFFFF MUL NOT AND SWAP1 DUP4 PUSH2 0xFFFF AND MUL OR SWAP1 SSTORE POP PUSH2 0x12B PUSH2 0x162 PUSH1 0x2 PUSH2 0x100 EXP DUP2 SLOAD DUP2 PUSH2 0xFFFF MUL NOT AND SWAP1 DUP4 PUSH2 0xFFFF AND MUL OR SWAP1 SSTORE POP PUSH1 0x64 PUSH2 0x161 DUP2 SWAP1 SSTORE POP PUSH8 0x214E8348C4F0000 PUSH2 0x163 DUP2 SWAP1 SSTORE POP PUSH1 0xA PUSH2 0x162 PUSH1 0x4 PUSH2 0x100 EXP DUP2 SLOAD DUP2 PUSH2 0xFFFF MUL NOT AND SWAP1 DUP4 PUSH2 0xFFFF AND MUL OR SWAP1 SSTORE POP PUSH20 0x3D83988BED2E59DE9D65C0BB0CA42AB133527A74 PUSH2 0x164 PUSH1 0x0 PUSH2 0x100 EXP DUP2 SLOAD DUP2 PUSH20 0xFFFFFFFFFFFFFFFFFFFFFFFFFFFFFFFFFFFFFFFF MUL NOT AND SWAP1 DUP4 PUSH20 0xFFFFFFFFFFFFFFFFFFFFFFFFFFFFFFFFFFFFFFFF AND MUL OR SWAP1 SSTORE POP PUSH1 0x64 PUSH2 0x165 DUP2 SWAP1 SSTORE POP PUSH1 0x0 PUSH1 0x1 SWAP1 POP JUMPDEST PUSH2 0x162 PUSH1 0x2 SWAP1 SLOAD SWAP1 PUSH2 0x100 EXP SWAP1 DIV PUSH2 0xFFFF AND PUSH2 0xFFFF AND DUP2 PUSH2 0xFFFF AND GT PUSH2 0x1EB8 JUMPI PUSH2 0x167 DUP2 SWAP1 DUP1 PUSH1 0x1 DUP2 SLOAD ADD DUP1 DUP3 SSTORE DUP1 SWAP2 POP POP PUSH1 0x1 SWAP1 SUB SWAP1 PUSH1 0x0 MSTORE PUSH1 0x20 PUSH1 0x0 KECCAK256 SWAP1 PUSH1 0x10 SWAP2 DUP3 DUP3 DIV ADD SWAP2 SWAP1 MOD PUSH1 0x2 MUL SWAP1 SWAP2 SWAP1 SWAP2 SWAP1 SWAP2 PUSH2 0x100 EXP DUP2 SLOAD DUP2 PUSH2 0xFFFF MUL NOT AND SWAP1 DUP4 PUSH2 0xFFFF AND MUL OR SWAP1 SSTORE POP DUP1 DUP1 PUSH2 0x1EB0 SWAP1 PUSH2 0x63ED JUMP JUMPDEST SWAP2 POP POP PUSH2 0x1E3A JUMP JUMPDEST POP PUSH1 0x40 MLOAD DUP1 PUSH1 0x40 ADD PUSH1 0x40 MSTORE DUP1 PUSH1 0x19 PUSH2 0xFFFF AND DUP2 MSTORE PUSH1 0x20 ADD PUSH1 0xA PUSH2 0xFFFF AND DUP2 MSTORE POP PUSH2 0x173 PUSH1 0x0 PUSH1 0x1 PUSH1 0xFF AND DUP2 MSTORE PUSH1 0x20 ADD SWAP1 DUP2 MSTORE PUSH1 0x20 ADD PUSH1 0x0 KECCAK256 PUSH1 0x0 DUP3 ADD MLOAD DUP2 PUSH1 0x0 ADD PUSH1 0x0 PUSH2 0x100 EXP DUP2 SLOAD DUP2 PUSH2 0xFFFF MUL NOT AND SWAP1 DUP4 PUSH2 0xFFFF AND MUL OR SWAP1 SSTORE POP PUSH1 0x20 DUP3 ADD MLOAD DUP2 PUSH1 0x0 ADD PUSH1 0x2 PUSH2 0x100 EXP DUP2 SLOAD DUP2 PUSH2 0xFFFF MUL NOT AND SWAP1 DUP4 PUSH2 0xFFFF AND MUL OR SWAP1 SSTORE POP SWAP1 POP POP PUSH1 0x40 MLOAD DUP1 PUSH1 0x40 ADD PUSH1 0x40 MSTORE DUP1 PUSH1 0x32 PUSH2 0xFFFF AND DUP2 MSTORE PUSH1 0x20 ADD PUSH1 0x14 PUSH2 0xFFFF AND DUP2 MSTORE POP PUSH2 0x173 PUSH1 0x0 PUSH1 0x2 PUSH1 0xFF AND DUP2 MSTORE PUSH1 0x20 ADD SWAP1 DUP2 MSTORE PUSH1 0x20 ADD PUSH1 0x0 KECCAK256 PUSH1 0x0 DUP3 ADD MLOAD DUP2 PUSH1 0x0 ADD PUSH1 0x0 PUSH2 0x100 EXP DUP2 SLOAD DUP2 PUSH2 0xFFFF MUL NOT AND SWAP1 DUP4 PUSH2 0xFFFF AND MUL OR SWAP1 SSTORE POP PUSH1 0x20 DUP3 ADD MLOAD DUP2 PUSH1 0x0 ADD PUSH1 0x2 PUSH2 0x100 EXP DUP2 SLOAD DUP2 PUSH2 0xFFFF MUL NOT AND SWAP1 DUP4 PUSH2 0xFFFF AND MUL OR SWAP1 SSTORE POP SWAP1 POP POP PUSH1 0x40 MLOAD DUP1 PUSH1 0x40 ADD PUSH1 0x40 MSTORE DUP1 PUSH1 0x4B PUSH2 0xFFFF AND DUP2 MSTORE PUSH1 0x20 ADD PUSH1 0x1E PUSH2 0xFFFF AND DUP2 MSTORE POP PUSH2 0x173 PUSH1 0x0 PUSH1 0x3 PUSH1 0xFF AND DUP2 MSTORE PUSH1 0x20 ADD SWAP1 DUP2 MSTORE PUSH1 0x20 ADD PUSH1 0x0 KECCAK256 PUSH1 0x0 DUP3 ADD MLOAD DUP2 PUSH1 0x0 ADD PUSH1 0x0 PUSH2 0x100 EXP DUP2 SLOAD DUP2 PUSH2 0xFFFF MUL NOT AND SWAP1 DUP4 PUSH2 0xFFFF AND MUL OR SWAP1 SSTORE POP PUSH1 0x20 DUP3 ADD MLOAD DUP2 PUSH1 0x0 ADD PUSH1 0x2 PUSH2 0x100 EXP DUP2 SLOAD DUP2 PUSH2 0xFFFF MUL NOT AND SWAP1 DUP4 PUSH2 0xFFFF AND MUL OR SWAP1 SSTORE POP SWAP1 POP POP PUSH1 0x40 MLOAD DUP1 PUSH1 0x40 ADD PUSH1 0x40 MSTORE DUP1 PUSH1 0x64 PUSH2 0xFFFF AND DUP2 MSTORE PUSH1 0x20 ADD PUSH1 0x28 PUSH2 0xFFFF AND DUP2 MSTORE POP PUSH2 0x173 PUSH1 0x0 PUSH1 0x4 PUSH1 0xFF AND DUP2 MSTORE PUSH1 0x20 ADD SWAP1 DUP2 MSTORE PUSH1 0x20 ADD PUSH1 0x0 KECCAK256 PUSH1 0x0 DUP3 ADD MLOAD DUP2 PUSH1 0x0 ADD PUSH1 0x0 PUSH2 0x100 EXP DUP2 SLOAD DUP2 PUSH2 0xFFFF MUL NOT AND SWAP1 DUP4 PUSH2 0xFFFF AND MUL OR SWAP1 SSTORE POP PUSH1 0x20 DUP3 ADD MLOAD DUP2 PUSH1 0x0 ADD PUSH1 0x2 PUSH2 0x100 EXP DUP2 SLOAD DUP2 PUSH2 0xFFFF MUL NOT AND SWAP1 DUP4 PUSH2 0xFFFF AND MUL OR SWAP1 SSTORE POP SWAP1 POP POP PUSH1 0x40 MLOAD DUP1 PUSH1 0x40 ADD PUSH1 0x40 MSTORE DUP1 PUSH1 0x7D PUSH2 0xFFFF AND DUP2 MSTORE PUSH1 0x20 ADD PUSH1 0x32 PUSH2 0xFFFF AND DUP2 MSTORE POP PUSH2 0x173 PUSH1 0x0 PUSH1 0x5 PUSH1 0xFF AND DUP2 MSTORE PUSH1 0x20 ADD SWAP1 DUP2 MSTORE PUSH1 0x20 ADD PUSH1 0x0 KECCAK256 PUSH1 0x0 DUP3 ADD MLOAD DUP2 PUSH1 0x0 ADD PUSH1 0x0 PUSH2 0x100 EXP DUP2 SLOAD DUP2 PUSH2 0xFFFF MUL NOT AND SWAP1 DUP4 PUSH2 0xFFFF AND MUL OR SWAP1 SSTORE POP PUSH1 0x20 DUP3 ADD MLOAD DUP2 PUSH1 0x0 ADD PUSH1 0x2 PUSH2 0x100 EXP DUP2 SLOAD DUP2 PUSH2 0xFFFF MUL NOT AND SWAP1 DUP4 PUSH2 0xFFFF AND MUL OR SWAP1 SSTORE POP SWAP1 POP POP PUSH1 0x40 MLOAD DUP1 PUSH1 0x40 ADD PUSH1 0x40 MSTORE DUP1 PUSH1 0x96 PUSH2 0xFFFF AND DUP2 MSTORE PUSH1 0x20 ADD PUSH1 0x4B PUSH2 0xFFFF AND DUP2 MSTORE POP PUSH2 0x173 PUSH1 0x0 PUSH1 0x6 PUSH1 0xFF AND DUP2 MSTORE PUSH1 0x20 ADD SWAP1 DUP2 MSTORE PUSH1 0x20 ADD PUSH1 0x0 KECCAK256 PUSH1 0x0 DUP3 ADD MLOAD DUP2 PUSH1 0x0 ADD PUSH1 0x0 PUSH2 0x100 EXP DUP2 SLOAD DUP2 PUSH2 0xFFFF MUL NOT AND SWAP1 DUP4 PUSH2 0xFFFF AND MUL OR SWAP1 SSTORE POP PUSH1 0x20 DUP3 ADD MLOAD DUP2 PUSH1 0x0 ADD PUSH1 0x2 PUSH2 0x100 EXP DUP2 SLOAD DUP2 PUSH2 0xFFFF MUL NOT AND SWAP1 DUP4 PUSH2 0xFFFF AND MUL OR SWAP1 SSTORE POP SWAP1 POP POP PUSH1 0x40 MLOAD DUP1 PUSH1 0x40 ADD PUSH1 0x40 MSTORE DUP1 PUSH1 0xC8 PUSH2 0xFFFF AND DUP2 MSTORE PUSH1 0x20 ADD PUSH1 0x64 PUSH2 0xFFFF AND DUP2 MSTORE POP PUSH2 0x173 PUSH1 0x0 PUSH1 0x7 PUSH1 0xFF AND DUP2 MSTORE PUSH1 0x20 ADD SWAP1 DUP2 MSTORE PUSH1 0x20 ADD PUSH1 0x0 KECCAK256 PUSH1 0x0 DUP3 ADD MLOAD DUP2 PUSH1 0x0 ADD PUSH1 0x0 PUSH2 0x100 EXP DUP2 SLOAD DUP2 PUSH2 0xFFFF MUL NOT AND SWAP1 DUP4 PUSH2 0xFFFF AND MUL OR SWAP1 SSTORE POP PUSH1 0x20 DUP3 ADD MLOAD DUP2 PUSH1 0x0 ADD PUSH1 0x2 PUSH2 0x100 EXP DUP2 SLOAD DUP2 PUSH2 0xFFFF MUL NOT AND SWAP1 DUP4 PUSH2 0xFFFF AND MUL OR SWAP1 SSTORE POP SWAP1 POP POP PUSH1 0x40 MLOAD DUP1 PUSH1 0x40 ADD PUSH1 0x40 MSTORE DUP1 PUSH1 0xFA PUSH2 0xFFFF AND DUP2 MSTORE PUSH1 0x20 ADD PUSH1 0xC8 PUSH2 0xFFFF AND DUP2 MSTORE POP PUSH2 0x173 PUSH1 0x0 PUSH1 0x8 PUSH1 0xFF AND DUP2 MSTORE PUSH1 0x20 ADD SWAP1 DUP2 MSTORE PUSH1 0x20 ADD PUSH1 0x0 KECCAK256 PUSH1 0x0 DUP3 ADD MLOAD DUP2 PUSH1 0x0 ADD PUSH1 0x0 PUSH2 0x100 EXP DUP2 SLOAD DUP2 PUSH2 0xFFFF MUL NOT AND SWAP1 DUP4 PUSH2 0xFFFF AND MUL OR SWAP1 SSTORE POP PUSH1 0x20 DUP3 ADD MLOAD DUP2 PUSH1 0x0 ADD PUSH1 0x2 PUSH2 0x100 EXP DUP2 SLOAD DUP2 PUSH2 0xFFFF MUL NOT AND SWAP1 DUP4 PUSH2 0xFFFF AND MUL OR SWAP1 SSTORE POP SWAP1 POP POP PUSH1 0x40 MLOAD DUP1 PUSH1 0x40 ADD PUSH1 0x40 MSTORE DUP1 PUSH2 0x1F4 PUSH2 0xFFFF AND DUP2 MSTORE PUSH1 0x20 ADD PUSH2 0x12C PUSH2 0xFFFF AND DUP2 MSTORE POP PUSH2 0x173 PUSH1 0x0 PUSH1 0x9 PUSH1 0xFF AND DUP2 MSTORE PUSH1 0x20 ADD SWAP1 DUP2 MSTORE PUSH1 0x20 ADD PUSH1 0x0 KECCAK256 PUSH1 0x0 DUP3 ADD MLOAD DUP2 PUSH1 0x0 ADD PUSH1 0x0 PUSH2 0x100 EXP DUP2 SLOAD DUP2 PUSH2 0xFFFF MUL NOT AND SWAP1 DUP4 PUSH2 0xFFFF AND MUL OR SWAP1 SSTORE POP PUSH1 0x20 DUP3 ADD MLOAD DUP2 PUSH1 0x0 ADD PUSH1 0x2 PUSH2 0x100 EXP DUP2 SLOAD DUP2 PUSH2 0xFFFF MUL NOT AND SWAP1 DUP4 PUSH2 0xFFFF AND MUL OR SWAP1 SSTORE POP SWAP1 POP POP DUP1 ISZERO PUSH2 0x2394 JUMPI PUSH1 0x0 DUP1 PUSH1 0x1 PUSH2 0x100 EXP DUP2 SLOAD DUP2 PUSH1 0xFF MUL NOT AND SWAP1 DUP4 ISZERO ISZERO MUL OR SWAP1 SSTORE POP PUSH32 0x7F26B83FF96E1F2B6A682F133852F6798A09C465DA95921460CEFB3847402498 PUSH1 0x1 PUSH1 0x40 MLOAD PUSH2 0x238B SWAP2 SWAP1 PUSH2 0x6452 JUMP JUMPDEST PUSH1 0x40 MLOAD DUP1 SWAP2 SUB SWAP1 LOG1 JUMPDEST POP JUMP JUMPDEST PUSH1 0x60 PUSH1 0x0 PUSH2 0x23A4 DUP4 PUSH2 0x1A65 JUMP JUMPDEST SWAP1 POP PUSH1 0x0 DUP2 SUB PUSH2 0x2400 JUMPI PUSH1 0x0 PUSH8 0xFFFFFFFFFFFFFFFF DUP2 GT ISZERO PUSH2 0x23C9 JUMPI PUSH2 0x23C8 PUSH2 0x5177 JUMP JUMPDEST JUMPDEST PUSH1 0x40 MLOAD SWAP1 DUP1 DUP3 MSTORE DUP1 PUSH1 0x20 MUL PUSH1 0x20 ADD DUP3 ADD PUSH1 0x40 MSTORE DUP1 ISZERO PUSH2 0x23F7 JUMPI DUP2 PUSH1 0x20 ADD PUSH1 0x20 DUP3 MUL DUP1 CALLDATASIZE DUP4 CALLDATACOPY DUP1 DUP3 ADD SWAP2 POP POP SWAP1 POP JUMPDEST POP SWAP2 POP POP PUSH2 0x2561 JUMP JUMPDEST PUSH1 0x0 DUP2 PUSH8 0xFFFFFFFFFFFFFFFF DUP2 GT ISZERO PUSH2 0x241C JUMPI PUSH2 0x241B PUSH2 0x5177 JUMP JUMPDEST JUMPDEST PUSH1 0x40 MLOAD SWAP1 DUP1 DUP3 MSTORE DUP1 PUSH1 0x20 MUL PUSH1 0x20 ADD DUP3 ADD PUSH1 0x40 MSTORE DUP1 ISZERO PUSH2 0x244A JUMPI DUP2 PUSH1 0x20 ADD PUSH1 0x20 DUP3 MUL DUP1 CALLDATASIZE DUP4 CALLDATACOPY DUP1 DUP3 ADD SWAP2 POP POP SWAP1 POP JUMPDEST POP SWAP1 POP PUSH1 0x0 PUSH2 0x2457 PUSH2 0x13DE JUMP JUMPDEST PUSH2 0xFFFF AND SWAP1 POP PUSH1 0x0 DUP1 JUMPDEST DUP3 DUP2 LT ISZERO PUSH2 0x2558 JUMPI ADDRESS PUSH20 0xFFFFFFFFFFFFFFFFFFFFFFFFFFFFFFFFFFFFFFFF AND PUSH4 0x6352211E DUP3 PUSH1 0x40 MLOAD DUP3 PUSH4 0xFFFFFFFF AND PUSH1 0xE0 SHL DUP2 MSTORE PUSH1 0x4 ADD PUSH2 0x24A2 SWAP2 SWAP1 PUSH2 0x50D5 JUMP JUMPDEST PUSH1 0x20 PUSH1 0x40 MLOAD DUP1 DUP4 SUB DUP2 DUP7 GAS STATICCALL SWAP3 POP POP POP DUP1 ISZERO PUSH2 0x24DC JUMPI POP PUSH1 0x40 MLOAD RETURNDATASIZE PUSH1 0x1F NOT PUSH1 0x1F DUP3 ADD AND DUP3 ADD DUP1 PUSH1 0x40 MSTORE POP DUP2 ADD SWAP1 PUSH2 0x24D9 SWAP2 SWAP1 PUSH2 0x6482 JUMP JUMPDEST PUSH1 0x1 JUMPDEST ISZERO PUSH2 0x2545 JUMPI DUP8 PUSH20 0xFFFFFFFFFFFFFFFFFFFFFFFFFFFFFFFFFFFFFFFF AND DUP2 PUSH20 0xFFFFFFFFFFFFFFFFFFFFFFFFFFFFFFFFFFFFFFFF AND SUB PUSH2 0x2543 JUMPI DUP2 DUP6 DUP5 DUP2 MLOAD DUP2 LT PUSH2 0x2528 JUMPI PUSH2 0x2527 PUSH2 0x5CA0 JUMP JUMPDEST JUMPDEST PUSH1 0x20 MUL PUSH1 0x20 ADD ADD DUP2 DUP2 MSTORE POP POP DUP3 DUP1 PUSH2 0x253F SWAP1 PUSH2 0x5D03 JUMP JUMPDEST SWAP4 POP POP JUMPDEST POP JUMPDEST DUP1 DUP1 PUSH2 0x2550 SWAP1 PUSH2 0x5D03 JUMP JUMPDEST SWAP2 POP POP PUSH2 0x2461 JUMP JUMPDEST POP DUP3 SWAP5 POP POP POP POP POP JUMPDEST SWAP2 SWAP1 POP JUMP JUMPDEST PUSH1 0x0 PUSH2 0x162 PUSH1 0x0 SWAP1 SLOAD SWAP1 PUSH2 0x100 EXP SWAP1 DIV PUSH2 0xFFFF AND SWAP1 POP SWAP1 JUMP JUMPDEST PUSH1 0x0 PUSH2 0x165 SLOAD SWAP1 POP SWAP1 JUMP JUMPDEST PUSH1 0x60 PUSH2 0x167 DUP1 SLOAD DUP1 PUSH1 0x20 MUL PUSH1 0x20 ADD PUSH1 0x40 MLOAD SWAP1 DUP2 ADD PUSH1 0x40 MSTORE DUP1 SWAP3 SWAP2 SWAP1 DUP2 DUP2 MSTORE PUSH1 0x20 ADD DUP3 DUP1 SLOAD DUP1 ISZERO PUSH2 0x2601 JUMPI PUSH1 0x20 MUL DUP3 ADD SWAP2 SWAP1 PUSH1 0x0 MSTORE PUSH1 0x20 PUSH1 0x0 KECCAK256 SWAP1 PUSH1 0x0 SWAP1 JUMPDEST DUP3 DUP3 SWAP1 SLOAD SWAP1 PUSH2 0x100 EXP SWAP1 DIV PUSH2 0xFFFF AND PUSH2 0xFFFF AND DUP2 MSTORE PUSH1 0x20 ADD SWAP1 PUSH1 0x2 ADD SWAP1 PUSH1 0x20 DUP3 PUSH1 0x1 ADD DIV SWAP3 DUP4 ADD SWAP3 PUSH1 0x1 SUB DUP3 MUL SWAP2 POP DUP1 DUP5 GT PUSH2 0x25C8 JUMPI SWAP1 POP JUMPDEST POP POP POP POP POP SWAP1 POP SWAP1 JUMP JUMPDEST PUSH1 0x0 PUSH1 0x97 PUSH1 0x0 SWAP1 SLOAD SWAP1 PUSH2 0x100 EXP SWAP1 DIV PUSH20 0xFFFFFFFFFFFFFFFFFFFFFFFFFFFFFFFFFFFFFFFF AND SWAP1 POP SWAP1 JUMP JUMPDEST PUSH2 0x263D PUSH2 0x3C31 JUMP JUMPDEST DUP1 PUSH2 0x162 PUSH1 0x4 PUSH2 0x100 EXP DUP2 SLOAD DUP2 PUSH2 0xFFFF MUL NOT AND SWAP1 DUP4 PUSH2 0xFFFF AND MUL OR SWAP1 SSTORE POP POP JUMP JUMPDEST PUSH1 0x60 PUSH1 0xFC DUP1 SLOAD PUSH2 0x266D SWAP1 PUSH2 0x5AA0 JUMP JUMPDEST DUP1 PUSH1 0x1F ADD PUSH1 0x20 DUP1 SWAP2 DIV MUL PUSH1 0x20 ADD PUSH1 0x40 MLOAD SWAP1 DUP2 ADD PUSH1 0x40 MSTORE DUP1 SWAP3 SWAP2 SWAP1 DUP2 DUP2 MSTORE PUSH1 0x20 ADD DUP3 DUP1 SLOAD PUSH2 0x2699 SWAP1 PUSH2 0x5AA0 JUMP JUMPDEST DUP1 ISZERO PUSH2 0x26E6 JUMPI DUP1 PUSH1 0x1F LT PUSH2 0x26BB JUMPI PUSH2 0x100 DUP1 DUP4 SLOAD DIV MUL DUP4 MSTORE SWAP2 PUSH1 0x20 ADD SWAP2 PUSH2 0x26E6 JUMP JUMPDEST DUP3 ADD SWAP2 SWAP1 PUSH1 0x0 MSTORE PUSH1 0x20 PUSH1 0x0 KECCAK256 SWAP1 JUMPDEST DUP2 SLOAD DUP2 MSTORE SWAP1 PUSH1 0x1 ADD SWAP1 PUSH1 0x20 ADD DUP1 DUP4 GT PUSH2 0x26C9 JUMPI DUP3 SWAP1 SUB PUSH1 0x1F AND DUP3 ADD SWAP2 JUMPDEST POP POP POP POP POP SWAP1 POP SWAP1 JUMP JUMPDEST PUSH2 0x26F8 PUSH2 0x3C31 JUMP JUMPDEST PUSH1 0x0 DUP2 PUSH20 0xFFFFFFFFFFFFFFFFFFFFFFFFFFFFFFFFFFFFFFFF AND PUSH4 0x70A08231 ADDRESS PUSH1 0x40 MLOAD DUP3 PUSH4 0xFFFFFFFF AND PUSH1 0xE0 SHL DUP2 MSTORE PUSH1 0x4 ADD PUSH2 0x2733 SWAP2 SWAP1 PUSH2 0x4FAB JUMP JUMPDEST PUSH1 0x20 PUSH1 0x40 MLOAD DUP1 DUP4 SUB DUP2 DUP7 GAS STATICCALL ISZERO DUP1 ISZERO PUSH2 0x2750 JUMPI RETURNDATASIZE PUSH1 0x0 DUP1 RETURNDATACOPY RETURNDATASIZE PUSH1 0x0 REVERT JUMPDEST POP POP POP POP PUSH1 0x40 MLOAD RETURNDATASIZE PUSH1 0x1F NOT PUSH1 0x1F DUP3 ADD AND DUP3 ADD DUP1 PUSH1 0x40 MSTORE POP DUP2 ADD SWAP1 PUSH2 0x2774 SWAP2 SWAP1 PUSH2 0x64C4 JUMP JUMPDEST SWAP1 POP PUSH1 0x0 DUP2 SUB PUSH2 0x27B0 JUMPI PUSH1 0x40 MLOAD PUSH32 0xA89CF92700000000000000000000000000000000000000000000000000000000 DUP2 MSTORE PUSH1 0x4 ADD PUSH1 0x40 MLOAD DUP1 SWAP2 SUB SWAP1 REVERT JUMPDEST DUP2 PUSH20 0xFFFFFFFFFFFFFFFFFFFFFFFFFFFFFFFFFFFFFFFF AND PUSH4 0xA9059CBB CALLER DUP4 PUSH1 0x40 MLOAD DUP4 PUSH4 0xFFFFFFFF AND PUSH1 0xE0 SHL DUP2 MSTORE PUSH1 0x4 ADD PUSH2 0x27EB SWAP3 SWAP2 SWAP1 PUSH2 0x64F1 JUMP JUMPDEST PUSH1 0x20 PUSH1 0x40 MLOAD DUP1 DUP4 SUB DUP2 PUSH1 0x0 DUP8 GAS CALL ISZERO DUP1 ISZERO PUSH2 0x280A JUMPI RETURNDATASIZE PUSH1 0x0 DUP1 RETURNDATACOPY RETURNDATASIZE PUSH1 0x0 REVERT JUMPDEST POP POP POP POP PUSH1 0x40 MLOAD RETURNDATASIZE PUSH1 0x1F NOT PUSH1 0x1F DUP3 ADD AND DUP3 ADD DUP1 PUSH1 0x40 MSTORE POP DUP2 ADD SWAP1 PUSH2 0x282E SWAP2 SWAP1 PUSH2 0x652F JUMP JUMPDEST POP POP POP JUMP JUMPDEST PUSH2 0x2845 PUSH2 0x283E PUSH2 0x3479 JUMP JUMPDEST DUP4 DUP4 PUSH2 0x3F35 JUMP JUMPDEST POP POP JUMP JUMPDEST PUSH2 0x2851 PUSH2 0x3C31 JUMP JUMPDEST DUP1 PUSH2 0x164 PUSH1 0x0 PUSH2 0x100 EXP DUP2 SLOAD DUP2 PUSH20 0xFFFFFFFFFFFFFFFFFFFFFFFFFFFFFFFFFFFFFFFF MUL NOT AND SWAP1 DUP4 PUSH20 0xFFFFFFFFFFFFFFFFFFFFFFFFFFFFFFFFFFFFFFFF AND MUL OR SWAP1 SSTORE POP POP JUMP JUMPDEST PUSH1 0x0 PUSH2 0x168 DUP3 PUSH2 0x12B DUP2 LT PUSH2 0x28AE JUMPI PUSH2 0x28AD PUSH2 0x5CA0 JUMP JUMPDEST JUMPDEST PUSH1 0x20 SWAP2 DUP3 DUP3 DIV ADD SWAP2 SWAP1 MOD SWAP1 SLOAD SWAP1 PUSH2 0x100 EXP SWAP1 DIV PUSH1 0xFF AND SWAP1 POP SWAP2 SWAP1 POP JUMP JUMPDEST PUSH2 0x28DC PUSH2 0x28D6 PUSH2 0x3479 JUMP JUMPDEST DUP4 PUSH2 0x36D3 JUMP JUMPDEST PUSH2 0x291B JUMPI PUSH1 0x40 MLOAD PUSH32 0x8C379A000000000000000000000000000000000000000000000000000000000 DUP2 MSTORE PUSH1 0x4 ADD PUSH2 0x2912 SWAP1 PUSH2 0x5E13 JUMP JUMPDEST PUSH1 0x40 MLOAD DUP1 SWAP2 SUB SWAP1 REVERT JUMPDEST PUSH2 0x2927 DUP5 DUP5 DUP5 DUP5 PUSH2 0x40A2 JUMP JUMPDEST POP POP POP POP JUMP JUMPDEST PUSH2 0x2935 PUSH2 0x3C31 JUMP JUMPDEST DUP2 PUSH20 0xFFFFFFFFFFFFFFFFFFFFFFFFFFFFFFFFFFFFFFFF AND PUSH4 0x23B872DD ADDRESS CALLER DUP5 PUSH1 0x40 MLOAD DUP5 PUSH4 0xFFFFFFFF AND PUSH1 0xE0 SHL DUP2 MSTORE PUSH1 0x4 ADD PUSH2 0x2972 SWAP4 SWAP3 SWAP2 SWAP1 PUSH2 0x655C JUMP JUMPDEST PUSH1 0x0 PUSH1 0x40 MLOAD DUP1 DUP4 SUB DUP2 PUSH1 0x0 DUP8 DUP1 EXTCODESIZE ISZERO DUP1 ISZERO PUSH2 0x298C JUMPI PUSH1 0x0 DUP1 REVERT JUMPDEST POP GAS CALL ISZERO DUP1 ISZERO PUSH2 0x29A0 JUMPI RETURNDATASIZE PUSH1 0x0 DUP1 RETURNDATACOPY RETURNDATASIZE PUSH1 0x0 REVERT JUMPDEST POP POP POP POP POP POP JUMP JUMPDEST PUSH1 0x0 PUSH2 0x161 SLOAD DUP3 PUSH2 0x29B9 SWAP2 SWAP1 PUSH2 0x6593 JUMP JUMPDEST SWAP1 POP SWAP2 SWAP1 POP JUMP JUMPDEST PUSH2 0x29C8 PUSH2 0x353A JUMP JUMPDEST TIMESTAMP PUSH2 0x165 SLOAD GT ISZERO PUSH2 0x2A05 JUMPI PUSH1 0x40 MLOAD PUSH32 0xF7D3556B00000000000000000000000000000000000000000000000000000000 DUP2 MSTORE PUSH1 0x4 ADD PUSH1 0x40 MLOAD DUP1 SWAP2 SUB SWAP1 REVERT JUMPDEST ORIGIN PUSH20 0xFFFFFFFFFFFFFFFFFFFFFFFFFFFFFFFFFFFFFFFF AND CALLER PUSH20 0xFFFFFFFFFFFFFFFFFFFFFFFFFFFFFFFFFFFFFFFF AND EQ PUSH2 0x2A6A JUMPI PUSH1 0x40 MLOAD PUSH32 0x192E6D1600000000000000000000000000000000000000000000000000000000 DUP2 MSTORE PUSH1 0x4 ADD PUSH1 0x40 MLOAD DUP1 SWAP2 SUB SWAP1 REVERT JUMPDEST PUSH1 0x0 PUSH2 0x172 PUSH1 0x0 CALLER PUSH20 0xFFFFFFFFFFFFFFFFFFFFFFFFFFFFFFFFFFFFFFFF AND PUSH20 0xFFFFFFFFFFFFFFFFFFFFFFFFFFFFFFFFFFFFFFFF AND DUP2 MSTORE PUSH1 0x20 ADD SWAP1 DUP2 MSTORE PUSH1 0x20 ADD PUSH1 0x0 KECCAK256 DUP1 SLOAD SWAP1 POP SWAP1 POP PUSH1 0x0 DUP2 SUB PUSH2 0x2AEC JUMPI PUSH1 0x40 MLOAD PUSH32 0x625B9D6B00000000000000000000000000000000000000000000000000000000 DUP2 MSTORE PUSH1 0x4 ADD PUSH1 0x40 MLOAD DUP1 SWAP2 SUB SWAP1 REVERT JUMPDEST PUSH1 0x0 PUSH2 0x172 PUSH1 0x0 CALLER PUSH20 0xFFFFFFFFFFFFFFFFFFFFFFFFFFFFFFFFFFFFFFFF AND PUSH20 0xFFFFFFFFFFFFFFFFFFFFFFFFFFFFFFFFFFFFFFFF AND DUP2 MSTORE PUSH1 0x20 ADD SWAP1 DUP2 MSTORE PUSH1 0x20 ADD PUSH1 0x0 KECCAK256 DUP1 SLOAD DUP1 PUSH1 0x20 MUL PUSH1 0x20 ADD PUSH1 0x40 MLOAD SWAP1 DUP2 ADD PUSH1 0x40 MSTORE DUP1 SWAP3 SWAP2 SWAP1 DUP2 DUP2 MSTORE PUSH1 0x20 ADD DUP3 DUP1 SLOAD DUP1 ISZERO PUSH2 0x2BA0 JUMPI PUSH1 0x20 MUL DUP3 ADD SWAP2 SWAP1 PUSH1 0x0 MSTORE PUSH1 0x20 PUSH1 0x0 KECCAK256 SWAP1 PUSH1 0x0 SWAP1 JUMPDEST DUP3 DUP3 SWAP1 SLOAD SWAP1 PUSH2 0x100 EXP SWAP1 DIV PUSH2 0xFFFF AND PUSH2 0xFFFF AND DUP2 MSTORE PUSH1 0x20 ADD SWAP1 PUSH1 0x2 ADD SWAP1 PUSH1 0x20 DUP3 PUSH1 0x1 ADD DIV SWAP3 DUP4 ADD SWAP3 PUSH1 0x1 SUB DUP3 MUL SWAP2 POP DUP1 DUP5 GT PUSH2 0x2B67 JUMPI SWAP1 POP JUMPDEST POP POP POP POP POP SWAP1 POP PUSH1 0x0 JUMPDEST DUP3 DUP2 LT ISZERO PUSH2 0x2C07 JUMPI PUSH2 0x2BD9 DUP3 DUP3 DUP2 MLOAD DUP2 LT PUSH2 0x2BC8 JUMPI PUSH2 0x2BC7 PUSH2 0x5CA0 JUMP JUMPDEST JUMPDEST PUSH1 0x20 MUL PUSH1 0x20 ADD ADD MLOAD PUSH2 0xFFFF AND PUSH2 0x40FE JUMP JUMPDEST PUSH1 0x3 PUSH2 0x166 PUSH1 0x0 DUP3 DUP3 SLOAD PUSH2 0x2BED SWAP2 SWAP1 PUSH2 0x65D5 JUMP JUMPDEST SWAP3 POP POP DUP2 SWAP1 SSTORE POP DUP1 DUP1 PUSH2 0x2BFF SWAP1 PUSH2 0x5D03 JUMP JUMPDEST SWAP2 POP POP PUSH2 0x2BAA JUMP JUMPDEST POP PUSH2 0x172 PUSH1 0x0 CALLER PUSH20 0xFFFFFFFFFFFFFFFFFFFFFFFFFFFFFFFFFFFFFFFF AND PUSH20 0xFFFFFFFFFFFFFFFFFFFFFFFFFFFFFFFFFFFFFFFF AND DUP2 MSTORE PUSH1 0x20 ADD SWAP1 DUP2 MSTORE PUSH1 0x20 ADD PUSH1 0x0 KECCAK256 PUSH1 0x0 PUSH2 0x2C54 SWAP2 SWAP1 PUSH2 0x4CA6 JUMP JUMPDEST CALLER PUSH20 0xFFFFFFFFFFFFFFFFFFFFFFFFFFFFFFFFFFFFFFFF AND PUSH32 0x62ED7D60B5D66196410E11F0431F43DD63704AEC0738CE89C796756653121778 DUP3 PUSH1 0x40 MLOAD PUSH2 0x2C9A SWAP2 SWAP1 PUSH2 0x5646 JUMP JUMPDEST PUSH1 0x40 MLOAD DUP1 SWAP2 SUB SWAP1 LOG2 POP POP PUSH2 0x2CAC PUSH2 0x36C8 JUMP JUMPDEST JUMP JUMPDEST PUSH1 0x0 PUSH2 0x161 SLOAD SWAP1 POP SWAP1 JUMP JUMPDEST PUSH2 0x2CC1 PUSH2 0x3C31 JUMP JUMPDEST DUP1 PUSH2 0x168 SWAP1 PUSH2 0x12B PUSH2 0x2CD4 SWAP3 SWAP2 SWAP1 PUSH2 0x4CCE JUMP JUMPDEST POP POP JUMP JUMPDEST PUSH2 0x160 DUP1 SLOAD PUSH2 0x2CE6 SWAP1 PUSH2 0x5AA0 JUMP JUMPDEST DUP1 PUSH1 0x1F ADD PUSH1 0x20 DUP1 SWAP2 DIV MUL PUSH1 0x20 ADD PUSH1 0x40 MLOAD SWAP1 DUP2 ADD PUSH1 0x40 MSTORE DUP1 SWAP3 SWAP2 SWAP1 DUP2 DUP2 MSTORE PUSH1 0x20 ADD DUP3 DUP1 SLOAD PUSH2 0x2D12 SWAP1 PUSH2 0x5AA0 JUMP JUMPDEST DUP1 ISZERO PUSH2 0x2D5F JUMPI DUP1 PUSH1 0x1F LT PUSH2 0x2D34 JUMPI PUSH2 0x100 DUP1 DUP4 SLOAD DIV MUL DUP4 MSTORE SWAP2 PUSH1 0x20 ADD SWAP2 PUSH2 0x2D5F JUMP JUMPDEST DUP3 ADD SWAP2 SWAP1 PUSH1 0x0 MSTORE PUSH1 0x20 PUSH1 0x0 KECCAK256 SWAP1 JUMPDEST DUP2 SLOAD DUP2 MSTORE SWAP1 PUSH1 0x1 ADD SWAP1 PUSH1 0x20 ADD DUP1 DUP4 GT PUSH2 0x2D42 JUMPI DUP3 SWAP1 SUB PUSH1 0x1F AND DUP3 ADD SWAP2 JUMPDEST POP POP POP POP POP DUP2 JUMP JUMPDEST PUSH1 0x60 PUSH2 0x2D72 DUP3 PUSH2 0x410B JUMP JUMPDEST PUSH2 0x2DB1 JUMPI PUSH1 0x40 MLOAD PUSH32 0x8C379A000000000000000000000000000000000000000000000000000000000 DUP2 MSTORE PUSH1 0x4 ADD PUSH2 0x2DA8 SWAP1 PUSH2 0x667B JUMP JUMPDEST PUSH1 0x40 MLOAD DUP1 SWAP2 SUB SWAP1 REVERT JUMPDEST PUSH1 0x0 PUSH2 0x2DBB PUSH2 0x414C JUMP JUMPDEST SWAP1 POP PUSH1 0x0 DUP2 MLOAD GT PUSH2 0x2DDB JUMPI PUSH1 0x40 MLOAD DUP1 PUSH1 0x20 ADD PUSH1 0x40 MSTORE DUP1 PUSH1 0x0 DUP2 MSTORE POP PUSH2 0x2E0A JUMP JUMPDEST DUP1 PUSH2 0x2DE5 DUP5 PUSH2 0x41DF JUMP JUMPDEST PUSH2 0x160 PUSH1 0x40 MLOAD PUSH1 0x20 ADD PUSH2 0x2DFA SWAP4 SWAP3 SWAP2 SWAP1 PUSH2 0x675A JUMP JUMPDEST PUSH1 0x40 MLOAD PUSH1 0x20 DUP2 DUP4 SUB SUB DUP2 MSTORE SWAP1 PUSH1 0x40 MSTORE JUMPDEST SWAP2 POP POP SWAP2 SWAP1 POP JUMP JUMPDEST PUSH1 0x0 PUSH2 0x162 PUSH1 0x4 SWAP1 SLOAD SWAP1 PUSH2 0x100 EXP SWAP1 DIV PUSH2 0xFFFF AND SWAP1 POP SWAP1 JUMP JUMPDEST PUSH2 0x2E33 PUSH2 0x3C31 JUMP JUMPDEST DUP1 PUSH2 0x160 SWAP1 DUP2 PUSH2 0x2E43 SWAP2 SWAP1 PUSH2 0x618B JUMP JUMPDEST POP POP JUMP JUMPDEST PUSH1 0x0 PUSH2 0x163 SLOAD SWAP1 POP SWAP1 JUMP JUMPDEST PUSH2 0x2E5A PUSH2 0x3C31 JUMP JUMPDEST DUP1 PUSH2 0x163 DUP2 SWAP1 SSTORE POP POP JUMP JUMPDEST PUSH2 0x2E6D PUSH2 0x3C31 JUMP JUMPDEST DUP1 PUSH2 0x165 DUP2 SWAP1 SSTORE POP POP JUMP JUMPDEST PUSH1 0x0 PUSH2 0x100 PUSH1 0x0 DUP5 PUSH20 0xFFFFFFFFFFFFFFFFFFFFFFFFFFFFFFFFFFFFFFFF AND PUSH20 0xFFFFFFFFFFFFFFFFFFFFFFFFFFFFFFFFFFFFFFFF AND DUP2 MSTORE PUSH1 0x20 ADD SWAP1 DUP2 MSTORE PUSH1 0x20 ADD PUSH1 0x0 KECCAK256 PUSH1 0x0 DUP4 PUSH20 0xFFFFFFFFFFFFFFFFFFFFFFFFFFFFFFFFFFFFFFFF AND PUSH20 0xFFFFFFFFFFFFFFFFFFFFFFFFFFFFFFFFFFFFFFFF AND DUP2 MSTORE PUSH1 0x20 ADD SWAP1 DUP2 MSTORE PUSH1 0x20 ADD PUSH1 0x0 KECCAK256 PUSH1 0x0 SWAP1 SLOAD SWAP1 PUSH2 0x100 EXP SWAP1 DIV PUSH1 0xFF AND SWAP1 POP SWAP3 SWAP2 POP POP JUMP JUMPDEST PUSH1 0x0 DUP1 PUSH1 0x0 DUP1 PUSH1 0x0 JUMPDEST DUP6 MLOAD DUP2 LT ISZERO PUSH2 0x3036 JUMPI PUSH1 0x0 PUSH1 0x1 DUP8 DUP4 DUP2 MLOAD DUP2 LT PUSH2 0x2F36 JUMPI PUSH2 0x2F35 PUSH2 0x5CA0 JUMP JUMPDEST JUMPDEST PUSH1 0x20 MUL PUSH1 0x20 ADD ADD MLOAD PUSH2 0x2F48 SWAP2 SWAP1 PUSH2 0x678B JUMP JUMPDEST SWAP1 POP PUSH2 0x173 PUSH1 0x0 PUSH2 0x168 DUP4 PUSH2 0xFFFF AND PUSH2 0x12B DUP2 LT PUSH2 0x2F69 JUMPI PUSH2 0x2F68 PUSH2 0x5CA0 JUMP JUMPDEST JUMPDEST PUSH1 0x20 SWAP2 DUP3 DUP3 DIV ADD SWAP2 SWAP1 MOD SWAP1 SLOAD SWAP1 PUSH2 0x100 EXP SWAP1 DIV PUSH1 0xFF AND PUSH1 0xFF AND PUSH1 0xFF AND DUP2 MSTORE PUSH1 0x20 ADD SWAP1 DUP2 MSTORE PUSH1 0x20 ADD PUSH1 0x0 KECCAK256 PUSH1 0x0 ADD PUSH1 0x0 SWAP1 SLOAD SWAP1 PUSH2 0x100 EXP SWAP1 DIV PUSH2 0xFFFF AND PUSH2 0xFFFF AND DUP5 PUSH2 0x2FB4 SWAP2 SWAP1 PUSH2 0x5CCF JUMP JUMPDEST SWAP4 POP PUSH2 0x173 PUSH1 0x0 PUSH2 0x168 DUP4 PUSH2 0xFFFF AND PUSH2 0x12B DUP2 LT PUSH2 0x2FD5 JUMPI PUSH2 0x2FD4 PUSH2 0x5CA0 JUMP JUMPDEST JUMPDEST PUSH1 0x20 SWAP2 DUP3 DUP3 DIV ADD SWAP2 SWAP1 MOD SWAP1 SLOAD SWAP1 PUSH2 0x100 EXP SWAP1 DIV PUSH1 0xFF AND PUSH1 0xFF AND PUSH1 0xFF AND DUP2 MSTORE PUSH1 0x20 ADD SWAP1 DUP2 MSTORE PUSH1 0x20 ADD PUSH1 0x0 KECCAK256 PUSH1 0x0 ADD PUSH1 0x2 SWAP1 SLOAD SWAP1 PUSH2 0x100 EXP SWAP1 DIV PUSH2 0xFFFF AND PUSH2 0xFFFF AND DUP4 PUSH2 0x3020 SWAP2 SWAP1 PUSH2 0x5CCF JUMP JUMPDEST SWAP3 POP POP DUP1 DUP1 PUSH2 0x302E SWAP1 PUSH2 0x5D03 JUMP JUMPDEST SWAP2 POP POP PUSH2 0x2F16 JUMP JUMPDEST POP DUP2 DUP2 SWAP4 POP SWAP4 POP POP POP SWAP2 POP SWAP2 JUMP JUMPDEST PUSH2 0x304C PUSH2 0x3C31 JUMP JUMPDEST PUSH1 0x0 PUSH20 0xFFFFFFFFFFFFFFFFFFFFFFFFFFFFFFFFFFFFFFFF AND DUP2 PUSH20 0xFFFFFFFFFFFFFFFFFFFFFFFFFFFFFFFFFFFFFFFF AND SUB PUSH2 0x30BB JUMPI PUSH1 0x40 MLOAD PUSH32 0x8C379A000000000000000000000000000000000000000000000000000000000 DUP2 MSTORE PUSH1 0x4 ADD PUSH2 0x30B2 SWAP1 PUSH2 0x6833 JUMP JUMPDEST PUSH1 0x40 MLOAD DUP1 SWAP2 SUB SWAP1 REVERT JUMPDEST PUSH2 0x30C4 DUP2 PUSH2 0x3CEC JUMP JUMPDEST POP JUMP JUMPDEST PUSH1 0x0 PUSH2 0x167 DUP3 PUSH2 0xFFFF AND DUP2 SLOAD DUP2 LT PUSH2 0x30E2 JUMPI PUSH2 0x30E1 PUSH2 0x5CA0 JUMP JUMPDEST JUMPDEST SWAP1 PUSH1 0x0 MSTORE PUSH1 0x20 PUSH1 0x0 KECCAK256 SWAP1 PUSH1 0x10 SWAP2 DUP3 DUP3 DIV ADD SWAP2 SWAP1 MOD PUSH1 0x2 MUL SWAP1 SLOAD SWAP1 PUSH2 0x100 EXP SWAP1 DIV PUSH2 0xFFFF AND SWAP1 POP SWAP2 SWAP1 POP JUMP JUMPDEST PUSH1 0x0 DUP1 PUSH2 0x173 PUSH1 0x0 DUP5 PUSH1 0xFF AND PUSH1 0xFF AND DUP2 MSTORE PUSH1 0x20 ADD SWAP1 DUP2 MSTORE PUSH1 0x20 ADD PUSH1 0x0 KECCAK256 PUSH1 0x0 ADD PUSH1 0x0 SWAP1 SLOAD SWAP1 PUSH2 0x100 EXP SWAP1 DIV PUSH2 0xFFFF AND PUSH2 0x173 PUSH1 0x0 DUP6 PUSH1 0xFF AND PUSH1 0xFF AND DUP2 MSTORE PUSH1 0x20 ADD SWAP1 DUP2 MSTORE PUSH1 0x20 ADD PUSH1 0x0 KECCAK256 PUSH1 0x0 ADD PUSH1 0x2 SWAP1 SLOAD SWAP1 PUSH2 0x100 EXP SWAP1 DIV PUSH2 0xFFFF AND SWAP2 POP SWAP2 POP SWAP2 POP SWAP2 JUMP JUMPDEST PUSH2 0x3179 PUSH2 0x3C31 JUMP JUMPDEST ORIGIN PUSH20 0xFFFFFFFFFFFFFFFFFFFFFFFFFFFFFFFFFFFFFFFF AND CALLER PUSH20 0xFFFFFFFFFFFFFFFFFFFFFFFFFFFFFFFFFFFFFFFF AND EQ PUSH2 0x31DE JUMPI PUSH1 0x40 MLOAD PUSH32 0x192E6D1600000000000000000000000000000000000000000000000000000000 DUP2 MSTORE PUSH1 0x4 ADD PUSH1 0x40 MLOAD DUP1 SWAP2 SUB SWAP1 REVERT JUMPDEST PUSH1 0x0 PUSH2 0x162 PUSH1 0x0 SWAP1 SLOAD SWAP1 PUSH2 0x100 EXP SWAP1 DIV PUSH2 0xFFFF AND SWAP1 POP PUSH1 0x0 DUP4 PUSH2 0xFFFF AND SUB PUSH2 0x3232 JUMPI PUSH1 0x40 MLOAD PUSH32 0x47BAADB900000000000000000000000000000000000000000000000000000000 DUP2 MSTORE PUSH1 0x4 ADD PUSH1 0x40 MLOAD DUP1 SWAP2 SUB SWAP1 REVERT JUMPDEST PUSH2 0x162 PUSH1 0x2 SWAP1 SLOAD SWAP1 PUSH2 0x100 EXP SWAP1 DIV PUSH2 0xFFFF AND PUSH2 0xFFFF AND DUP4 DUP3 PUSH2 0x3254 SWAP2 SWAP1 PUSH2 0x5C24 JUMP JUMPDEST PUSH2 0xFFFF AND GT ISZERO PUSH2 0x3290 JUMPI PUSH1 0x40 MLOAD PUSH32 0xC4F28E8100000000000000000000000000000000000000000000000000000000 DUP2 MSTORE PUSH1 0x4 ADD PUSH1 0x40 MLOAD DUP1 SWAP2 SUB SWAP1 REVERT JUMPDEST DUP3 PUSH2 0x162 PUSH1 0x0 DUP3 DUP3 DUP3 SWAP1 SLOAD SWAP1 PUSH2 0x100 EXP SWAP1 DIV PUSH2 0xFFFF AND PUSH2 0x32B0 SWAP2 SWAP1 PUSH2 0x5C24 JUMP JUMPDEST SWAP3 POP PUSH2 0x100 EXP DUP2 SLOAD DUP2 PUSH2 0xFFFF MUL NOT AND SWAP1 DUP4 PUSH2 0xFFFF AND MUL OR SWAP1 SSTORE POP PUSH1 0x0 DUP1 PUSH1 0x0 SWAP1 POP JUMPDEST DUP5 PUSH2 0xFFFF AND DUP2 LT ISZERO PUSH2 0x336D JUMPI PUSH2 0x32E6 PUSH2 0x358B JUMP JUMPDEST SWAP2 POP PUSH2 0x3332 DUP5 PUSH2 0x167 DUP5 PUSH2 0xFFFF AND DUP2 SLOAD DUP2 LT PUSH2 0x3305 JUMPI PUSH2 0x3304 PUSH2 0x5CA0 JUMP JUMPDEST JUMPDEST SWAP1 PUSH1 0x0 MSTORE PUSH1 0x20 PUSH1 0x0 KECCAK256 SWAP1 PUSH1 0x10 SWAP2 DUP3 DUP3 DIV ADD SWAP2 SWAP1 MOD PUSH1 0x2 MUL SWAP1 SLOAD SWAP1 PUSH2 0x100 EXP SWAP1 DIV PUSH2 0xFFFF AND PUSH2 0xFFFF AND PUSH2 0x42AD JUMP JUMPDEST PUSH2 0x333F DUP3 PUSH2 0xFFFF AND PUSH2 0x35B6 JUMP JUMPDEST PUSH1 0x2 PUSH2 0x166 PUSH1 0x0 DUP3 DUP3 SLOAD PUSH2 0x3353 SWAP2 SWAP1 PUSH2 0x5CCF JUMP JUMPDEST SWAP3 POP POP DUP2 SWAP1 SSTORE POP DUP1 DUP1 PUSH2 0x3365 SWAP1 PUSH2 0x5D03 JUMP JUMPDEST SWAP2 POP POP PUSH2 0x32D2 JUMP JUMPDEST POP DUP3 PUSH20 0xFFFFFFFFFFFFFFFFFFFFFFFFFFFFFFFFFFFFFFFF AND PUSH32 0x62ED7D60B5D66196410E11F0431F43DD63704AEC0738CE89C796756653121778 PUSH2 0x167 PUSH1 0x40 MLOAD PUSH2 0x33B6 SWAP2 SWAP1 PUSH2 0x6F47 JUMP JUMPDEST PUSH1 0x40 MLOAD DUP1 SWAP2 SUB SWAP1 LOG2 POP POP POP POP JUMP JUMPDEST PUSH1 0x0 PUSH32 0x1FFC9A700000000000000000000000000000000000000000000000000000000 PUSH28 0xFFFFFFFFFFFFFFFFFFFFFFFFFFFFFFFFFFFFFFFFFFFFFFFFFFFFFFFF NOT AND DUP3 PUSH28 0xFFFFFFFFFFFFFFFFFFFFFFFFFFFFFFFFFFFFFFFFFFFFFFFFFFFFFFFF NOT AND EQ SWAP1 POP SWAP2 SWAP1 POP JUMP JUMPDEST PUSH2 0x3437 DUP2 PUSH2 0x410B JUMP JUMPDEST PUSH2 0x3476 JUMPI PUSH1 0x40 MLOAD PUSH32 0x8C379A000000000000000000000000000000000000000000000000000000000 DUP2 MSTORE PUSH1 0x4 ADD PUSH2 0x346D SWAP1 PUSH2 0x62A9 JUMP JUMPDEST PUSH1 0x40 MLOAD DUP1 SWAP2 SUB SWAP1 REVERT JUMPDEST POP JUMP JUMPDEST PUSH1 0x0 CALLER SWAP1 POP SWAP1 JUMP JUMPDEST DUP2 PUSH1 0xFF PUSH1 0x0 DUP4 DUP2 MSTORE PUSH1 0x20 ADD SWAP1 DUP2 MSTORE PUSH1 0x20 ADD PUSH1 0x0 KECCAK256 PUSH1 0x0 PUSH2 0x100 EXP DUP2 SLOAD DUP2 PUSH20 0xFFFFFFFFFFFFFFFFFFFFFFFFFFFFFFFFFFFFFFFF MUL NOT AND SWAP1 DUP4 PUSH20 0xFFFFFFFFFFFFFFFFFFFFFFFFFFFFFFFFFFFFFFFF AND MUL OR SWAP1 SSTORE POP DUP1 DUP3 PUSH20 0xFFFFFFFFFFFFFFFFFFFFFFFFFFFFFFFFFFFFFFFF AND PUSH2 0x34F4 DUP4 PUSH2 0x1950 JUMP JUMPDEST PUSH20 0xFFFFFFFFFFFFFFFFFFFFFFFFFFFFFFFFFFFFFFFF AND PUSH32 0x8C5BE1E5EBEC7D5BD14F71427D1E84F3DD0314C0F7B2291E5B200AC8C7C3B925 PUSH1 0x40 MLOAD PUSH1 0x40 MLOAD DUP1 SWAP2 SUB SWAP1 LOG4 POP POP JUMP JUMPDEST PUSH1 0x2 PUSH2 0x12D SLOAD SUB PUSH2 0x3580 JUMPI PUSH1 0x40 MLOAD PUSH32 0x8C379A000000000000000000000000000000000000000000000000000000000 DUP2 MSTORE PUSH1 0x4 ADD PUSH2 0x3577 SWAP1 PUSH2 0x6FB5 JUMP JUMPDEST PUSH1 0x40 MLOAD DUP1 SWAP2 SUB SWAP1 REVERT JUMPDEST PUSH1 0x2 PUSH2 0x12D DUP2 SWAP1 SSTORE POP JUMP JUMPDEST PUSH1 0x0 DUP1 PUSH2 0x3596 PUSH2 0x42CB JUMP JUMPDEST SWAP1 POP PUSH1 0x0 PUSH2 0x167 DUP1 SLOAD SWAP1 POP DUP3 PUSH2 0x35AC SWAP2 SWAP1 PUSH2 0x7004 JUMP JUMPDEST SWAP1 POP DUP1 SWAP3 POP POP POP SWAP1 JUMP JUMPDEST PUSH2 0x167 DUP1 SLOAD SWAP1 POP DUP2 LT PUSH2 0x35F5 JUMPI PUSH1 0x40 MLOAD PUSH32 0x47BAADB900000000000000000000000000000000000000000000000000000000 DUP2 MSTORE PUSH1 0x4 ADD PUSH1 0x40 MLOAD DUP1 SWAP2 SUB SWAP1 REVERT JUMPDEST PUSH2 0x167 PUSH1 0x1 PUSH2 0x167 DUP1 SLOAD SWAP1 POP PUSH2 0x360B SWAP2 SWAP1 PUSH2 0x65D5 JUMP JUMPDEST DUP2 SLOAD DUP2 LT PUSH2 0x361C JUMPI PUSH2 0x361B PUSH2 0x5CA0 JUMP JUMPDEST JUMPDEST SWAP1 PUSH1 0x0 MSTORE PUSH1 0x20 PUSH1 0x0 KECCAK256 SWAP1 PUSH1 0x10 SWAP2 DUP3 DUP3 DIV ADD SWAP2 SWAP1 MOD PUSH1 0x2 MUL SWAP1 SLOAD SWAP1 PUSH2 0x100 EXP SWAP1 DIV PUSH2 0xFFFF AND PUSH2 0x167 DUP3 DUP2 SLOAD DUP2 LT PUSH2 0x3655 JUMPI PUSH2 0x3654 PUSH2 0x5CA0 JUMP JUMPDEST JUMPDEST SWAP1 PUSH1 0x0 MSTORE PUSH1 0x20 PUSH1 0x0 KECCAK256 SWAP1 PUSH1 0x10 SWAP2 DUP3 DUP3 DIV ADD SWAP2 SWAP1 MOD PUSH1 0x2 MUL PUSH2 0x100 EXP DUP2 SLOAD DUP2 PUSH2 0xFFFF MUL NOT AND SWAP1 DUP4 PUSH2 0xFFFF AND MUL OR SWAP1 SSTORE POP PUSH2 0x167 DUP1 SLOAD DUP1 PUSH2 0x3697 JUMPI PUSH2 0x3696 PUSH2 0x7035 JUMP JUMPDEST JUMPDEST PUSH1 0x1 SWAP1 SUB DUP2 DUP2 SWAP1 PUSH1 0x0 MSTORE PUSH1 0x20 PUSH1 0x0 KECCAK256 SWAP1 PUSH1 0x10 SWAP2 DUP3 DUP3 DIV ADD SWAP2 SWAP1 MOD PUSH1 0x2 MUL PUSH2 0x100 EXP DUP2 SLOAD SWAP1 PUSH2 0xFFFF MUL NOT AND SWAP1 SSTORE SWAP1 SSTORE POP JUMP JUMPDEST PUSH1 0x1 PUSH2 0x12D DUP2 SWAP1 SSTORE POP JUMP JUMPDEST PUSH1 0x0 DUP1 PUSH2 0x36DF DUP4 PUSH2 0x1950 JUMP JUMPDEST SWAP1 POP DUP1 PUSH20 0xFFFFFFFFFFFFFFFFFFFFFFFFFFFFFFFFFFFFFFFF AND DUP5 PUSH20 0xFFFFFFFFFFFFFFFFFFFFFFFFFFFFFFFFFFFFFFFF AND EQ DUP1 PUSH2 0x3721 JUMPI POP PUSH2 0x3720 DUP2 DUP6 PUSH2 0x2E78 JUMP JUMPDEST JUMPDEST DUP1 PUSH2 0x375F JUMPI POP DUP4 PUSH20 0xFFFFFFFFFFFFFFFFFFFFFFFFFFFFFFFFFFFFFFFF AND PUSH2 0x3747 DUP5 PUSH2 0xDC5 JUMP JUMPDEST PUSH20 0xFFFFFFFFFFFFFFFFFFFFFFFFFFFFFFFFFFFFFFFF AND EQ JUMPDEST SWAP2 POP POP SWAP3 SWAP2 POP POP JUMP JUMPDEST DUP3 PUSH20 0xFFFFFFFFFFFFFFFFFFFFFFFFFFFFFFFFFFFFFFFF AND PUSH2 0x3788 DUP3 PUSH2 0x1950 JUMP JUMPDEST PUSH20 0xFFFFFFFFFFFFFFFFFFFFFFFFFFFFFFFFFFFFFFFF AND EQ PUSH2 0x37DE JUMPI PUSH1 0x40 MLOAD PUSH32 0x8C379A000000000000000000000000000000000000000000000000000000000 DUP2 MSTORE PUSH1 0x4 ADD PUSH2 0x37D5 SWAP1 PUSH2 0x70D6 JUMP JUMPDEST PUSH1 0x40 MLOAD DUP1 SWAP2 SUB SWAP1 REVERT JUMPDEST PUSH1 0x0 PUSH20 0xFFFFFFFFFFFFFFFFFFFFFFFFFFFFFFFFFFFFFFFF AND DUP3 PUSH20 0xFFFFFFFFFFFFFFFFFFFFFFFFFFFFFFFFFFFFFFFF AND SUB PUSH2 0x384D JUMPI PUSH1 0x40 MLOAD PUSH32 0x8C379A000000000000000000000000000000000000000000000000000000000 DUP2 MSTORE PUSH1 0x4 ADD PUSH2 0x3844 SWAP1 PUSH2 0x7168 JUMP JUMPDEST PUSH1 0x40 MLOAD DUP1 SWAP2 SUB SWAP1 REVERT JUMPDEST PUSH2 0x385A DUP4 DUP4 DUP4 PUSH1 0x1 PUSH2 0x435A JUMP JUMPDEST DUP3 PUSH20 0xFFFFFFFFFFFFFFFFFFFFFFFFFFFFFFFFFFFFFFFF AND PUSH2 0x387A DUP3 PUSH2 0x1950 JUMP JUMPDEST PUSH20 0xFFFFFFFFFFFFFFFFFFFFFFFFFFFFFFFFFFFFFFFF AND EQ PUSH2 0x38D0 JUMPI PUSH1 0x40 MLOAD PUSH32 0x8C379A000000000000000000000000000000000000000000000000000000000 DUP2 MSTORE PUSH1 0x4 ADD PUSH2 0x38C7 SWAP1 PUSH2 0x70D6 JUMP JUMPDEST PUSH1 0x40 MLOAD DUP1 SWAP2 SUB SWAP1 REVERT JUMPDEST PUSH1 0xFF PUSH1 0x0 DUP3 DUP2 MSTORE PUSH1 0x20 ADD SWAP1 DUP2 MSTORE PUSH1 0x20 ADD PUSH1 0x0 KECCAK256 PUSH1 0x0 PUSH2 0x100 EXP DUP2 SLOAD SWAP1 PUSH20 0xFFFFFFFFFFFFFFFFFFFFFFFFFFFFFFFFFFFFFFFF MUL NOT AND SWAP1 SSTORE PUSH1 0x1 PUSH1 0xFE PUSH1 0x0 DUP6 PUSH20 0xFFFFFFFFFFFFFFFFFFFFFFFFFFFFFFFFFFFFFFFF AND PUSH20 0xFFFFFFFFFFFFFFFFFFFFFFFFFFFFFFFFFFFFFFFF AND DUP2 MSTORE PUSH1 0x20 ADD SWAP1 DUP2 MSTORE PUSH1 0x20 ADD PUSH1 0x0 KECCAK256 PUSH1 0x0 DUP3 DUP3 SLOAD SUB SWAP3 POP POP DUP2 SWAP1 SSTORE POP PUSH1 0x1 PUSH1 0xFE PUSH1 0x0 DUP5 PUSH20 0xFFFFFFFFFFFFFFFFFFFFFFFFFFFFFFFFFFFFFFFF AND PUSH20 0xFFFFFFFFFFFFFFFFFFFFFFFFFFFFFFFFFFFFFFFF AND DUP2 MSTORE PUSH1 0x20 ADD SWAP1 DUP2 MSTORE PUSH1 0x20 ADD PUSH1 0x0 KECCAK256 PUSH1 0x0 DUP3 DUP3 SLOAD ADD SWAP3 POP POP DUP2 SWAP1 SSTORE POP DUP2 PUSH1 0xFD PUSH1 0x0 DUP4 DUP2 MSTORE PUSH1 0x20 ADD SWAP1 DUP2 MSTORE PUSH1 0x20 ADD PUSH1 0x0 KECCAK256 PUSH1 0x0 PUSH2 0x100 EXP DUP2 SLOAD DUP2 PUSH20 0xFFFFFFFFFFFFFFFFFFFFFFFFFFFFFFFFFFFFFFFF MUL NOT AND SWAP1 DUP4 PUSH20 0xFFFFFFFFFFFFFFFFFFFFFFFFFFFFFFFFFFFFFFFF AND MUL OR SWAP1 SSTORE POP DUP1 DUP3 PUSH20 0xFFFFFFFFFFFFFFFFFFFFFFFFFFFFFFFFFFFFFFFF AND DUP5 PUSH20 0xFFFFFFFFFFFFFFFFFFFFFFFFFFFFFFFFFFFFFFFF AND PUSH32 0xDDF252AD1BE2C89B69C2B068FC378DAA952BA7F163C4A11628F55A4DF523B3EF PUSH1 0x40 MLOAD PUSH1 0x40 MLOAD DUP1 SWAP2 SUB SWAP1 LOG4 PUSH2 0x3A5C DUP4 DUP4 DUP4 PUSH1 0x1 PUSH2 0x4360 JUMP JUMPDEST POP POP POP JUMP JUMPDEST PUSH1 0x0 PUSH2 0x3A8F PUSH32 0x360894A13BA1A3210667C828492DB98DCA3E2076CC3735A920A3CA505D382BBC PUSH1 0x0 SHL PUSH2 0x4366 JUMP JUMPDEST PUSH1 0x0 ADD PUSH1 0x0 SWAP1 SLOAD SWAP1 PUSH2 0x100 EXP SWAP1 DIV PUSH20 0xFFFFFFFFFFFFFFFFFFFFFFFFFFFFFFFFFFFFFFFF AND SWAP1 POP SWAP1 JUMP JUMPDEST PUSH2 0x3AC0 PUSH2 0x3C31 JUMP JUMPDEST POP JUMP JUMPDEST PUSH2 0x3AEF PUSH32 0x4910FDFA16FED3260ED0E7147F7CC6DA11A60208B5B9406D12A635614FFD9143 PUSH1 0x0 SHL PUSH2 0x4370 JUMP JUMPDEST PUSH1 0x0 ADD PUSH1 0x0 SWAP1 SLOAD SWAP1 PUSH2 0x100 EXP SWAP1 DIV PUSH1 0xFF AND ISZERO PUSH2 0x3B13 JUMPI PUSH2 0x3B0E DUP4 PUSH2 0x437A JUMP JUMPDEST PUSH2 0x3C2C JUMP JUMPDEST DUP3 PUSH20 0xFFFFFFFFFFFFFFFFFFFFFFFFFFFFFFFFFFFFFFFF AND PUSH4 0x52D1902D PUSH1 0x40 MLOAD DUP2 PUSH4 0xFFFFFFFF AND PUSH1 0xE0 SHL DUP2 MSTORE PUSH1 0x4 ADD PUSH1 0x20 PUSH1 0x40 MLOAD DUP1 DUP4 SUB DUP2 DUP7 GAS STATICCALL SWAP3 POP POP POP DUP1 ISZERO PUSH2 0x3B7B JUMPI POP PUSH1 0x40 MLOAD RETURNDATASIZE PUSH1 0x1F NOT PUSH1 0x1F DUP3 ADD AND DUP3 ADD DUP1 PUSH1 0x40 MSTORE POP DUP2 ADD SWAP1 PUSH2 0x3B78 SWAP2 SWAP1 PUSH2 0x71B4 JUMP JUMPDEST PUSH1 0x1 JUMPDEST PUSH2 0x3BBA JUMPI PUSH1 0x40 MLOAD PUSH32 0x8C379A000000000000000000000000000000000000000000000000000000000 DUP2 MSTORE PUSH1 0x4 ADD PUSH2 0x3BB1 SWAP1 PUSH2 0x7253 JUMP JUMPDEST PUSH1 0x40 MLOAD DUP1 SWAP2 SUB SWAP1 REVERT JUMPDEST PUSH32 0x360894A13BA1A3210667C828492DB98DCA3E2076CC3735A920A3CA505D382BBC PUSH1 0x0 SHL DUP2 EQ PUSH2 0x3C1F JUMPI PUSH1 0x40 MLOAD PUSH32 0x8C379A000000000000000000000000000000000000000000000000000000000 DUP2 MSTORE PUSH1 0x4 ADD PUSH2 0x3C16 SWAP1 PUSH2 0x72E5 JUMP JUMPDEST PUSH1 0x40 MLOAD DUP1 SWAP2 SUB SWAP1 REVERT JUMPDEST POP PUSH2 0x3C2B DUP4 DUP4 DUP4 PUSH2 0x4433 JUMP JUMPDEST JUMPDEST POP POP POP JUMP JUMPDEST PUSH2 0x3C39 PUSH2 0x3479 JUMP JUMPDEST PUSH20 0xFFFFFFFFFFFFFFFFFFFFFFFFFFFFFFFFFFFFFFFF AND PUSH2 0x3C57 PUSH2 0x260B JUMP JUMPDEST PUSH20 0xFFFFFFFFFFFFFFFFFFFFFFFFFFFFFFFFFFFFFFFF AND EQ PUSH2 0x3CAD JUMPI PUSH1 0x40 MLOAD PUSH32 0x8C379A000000000000000000000000000000000000000000000000000000000 DUP2 MSTORE PUSH1 0x4 ADD PUSH2 0x3CA4 SWAP1 PUSH2 0x7351 JUMP JUMPDEST PUSH1 0x40 MLOAD DUP1 SWAP2 SUB SWAP1 REVERT JUMPDEST JUMP JUMPDEST PUSH1 0x0 PUSH1 0xFD PUSH1 0x0 DUP4 DUP2 MSTORE PUSH1 0x20 ADD SWAP1 DUP2 MSTORE PUSH1 0x20 ADD PUSH1 0x0 KECCAK256 PUSH1 0x0 SWAP1 SLOAD SWAP1 PUSH2 0x100 EXP SWAP1 DIV PUSH20 0xFFFFFFFFFFFFFFFFFFFFFFFFFFFFFFFFFFFFFFFF AND SWAP1 POP SWAP2 SWAP1 POP JUMP JUMPDEST PUSH1 0x0 PUSH1 0x97 PUSH1 0x0 SWAP1 SLOAD SWAP1 PUSH2 0x100 EXP SWAP1 DIV PUSH20 0xFFFFFFFFFFFFFFFFFFFFFFFFFFFFFFFFFFFFFFFF AND SWAP1 POP DUP2 PUSH1 0x97 PUSH1 0x0 PUSH2 0x100 EXP DUP2 SLOAD DUP2 PUSH20 0xFFFFFFFFFFFFFFFFFFFFFFFFFFFFFFFFFFFFFFFF MUL NOT AND SWAP1 DUP4 PUSH20 0xFFFFFFFFFFFFFFFFFFFFFFFFFFFFFFFFFFFFFFFF AND MUL OR SWAP1 SSTORE POP DUP2 PUSH20 0xFFFFFFFFFFFFFFFFFFFFFFFFFFFFFFFFFFFFFFFF AND DUP2 PUSH20 0xFFFFFFFFFFFFFFFFFFFFFFFFFFFFFFFFFFFFFFFF AND PUSH32 0x8BE0079C531659141344CD1FD0A4F28419497F9722A3DAAFE3B4186F6B6457E0 PUSH1 0x40 MLOAD PUSH1 0x40 MLOAD DUP1 SWAP2 SUB SWAP1 LOG3 POP POP JUMP JUMPDEST PUSH1 0x0 DUP1 DUP3 PUSH20 0xFFFFFFFFFFFFFFFFFFFFFFFFFFFFFFFFFFFFFFFF AND EXTCODESIZE GT SWAP1 POP SWAP2 SWAP1 POP JUMP JUMPDEST PUSH1 0x0 PUSH1 0x1 SWAP1 SLOAD SWAP1 PUSH2 0x100 EXP SWAP1 DIV PUSH1 0xFF AND PUSH2 0x3E24 JUMPI PUSH1 0x40 MLOAD PUSH32 0x8C379A000000000000000000000000000000000000000000000000000000000 DUP2 MSTORE PUSH1 0x4 ADD PUSH2 0x3E1B SWAP1 PUSH2 0x73E3 JUMP JUMPDEST PUSH1 0x40 MLOAD DUP1 SWAP2 SUB SWAP1 REVERT JUMPDEST PUSH2 0x3E2C PUSH2 0x445F JUMP JUMPDEST JUMP JUMPDEST PUSH1 0x0 PUSH1 0x1 SWAP1 SLOAD SWAP1 PUSH2 0x100 EXP SWAP1 DIV PUSH1 0xFF AND PUSH2 0x3E7D JUMPI PUSH1 0x40 MLOAD PUSH32 0x8C379A000000000000000000000000000000000000000000000000000000000 DUP2 MSTORE PUSH1 0x4 ADD PUSH2 0x3E74 SWAP1 PUSH2 0x73E3 JUMP JUMPDEST PUSH1 0x40 MLOAD DUP1 SWAP2 SUB SWAP1 REVERT JUMPDEST PUSH2 0x3E85 PUSH2 0x44C0 JUMP JUMPDEST JUMP JUMPDEST PUSH1 0x0 PUSH1 0x1 SWAP1 SLOAD SWAP1 PUSH2 0x100 EXP SWAP1 DIV PUSH1 0xFF AND PUSH2 0x3ED6 JUMPI PUSH1 0x40 MLOAD PUSH32 0x8C379A000000000000000000000000000000000000000000000000000000000 DUP2 MSTORE PUSH1 0x4 ADD PUSH2 0x3ECD SWAP1 PUSH2 0x73E3 JUMP JUMPDEST PUSH1 0x40 MLOAD DUP1 SWAP2 SUB SWAP1 REVERT JUMPDEST PUSH2 0x3EE0 DUP3 DUP3 PUSH2 0x451A JUMP JUMPDEST POP POP JUMP JUMPDEST PUSH1 0x0 PUSH1 0x1 SWAP1 SLOAD SWAP1 PUSH2 0x100 EXP SWAP1 DIV PUSH1 0xFF AND PUSH2 0x3F33 JUMPI PUSH1 0x40 MLOAD PUSH32 0x8C379A000000000000000000000000000000000000000000000000000000000 DUP2 MSTORE PUSH1 0x4 ADD PUSH2 0x3F2A SWAP1 PUSH2 0x73E3 JUMP JUMPDEST PUSH1 0x40 MLOAD DUP1 SWAP2 SUB SWAP1 REVERT JUMPDEST JUMP JUMPDEST DUP2 PUSH20 0xFFFFFFFFFFFFFFFFFFFFFFFFFFFFFFFFFFFFFFFF AND DUP4 PUSH20 0xFFFFFFFFFFFFFFFFFFFFFFFFFFFFFFFFFFFFFFFF AND SUB PUSH2 0x3FA3 JUMPI PUSH1 0x40 MLOAD PUSH32 0x8C379A000000000000000000000000000000000000000000000000000000000 DUP2 MSTORE PUSH1 0x4 ADD PUSH2 0x3F9A SWAP1 PUSH2 0x744F JUMP JUMPDEST PUSH1 0x40 MLOAD DUP1 SWAP2 SUB SWAP1 REVERT JUMPDEST DUP1 PUSH2 0x100 PUSH1 0x0 DUP6 PUSH20 0xFFFFFFFFFFFFFFFFFFFFFFFFFFFFFFFFFFFFFFFF AND PUSH20 0xFFFFFFFFFFFFFFFFFFFFFFFFFFFFFFFFFFFFFFFF AND DUP2 MSTORE PUSH1 0x20 ADD SWAP1 DUP2 MSTORE PUSH1 0x20 ADD PUSH1 0x0 KECCAK256 PUSH1 0x0 DUP5 PUSH20 0xFFFFFFFFFFFFFFFFFFFFFFFFFFFFFFFFFFFFFFFF AND PUSH20 0xFFFFFFFFFFFFFFFFFFFFFFFFFFFFFFFFFFFFFFFF AND DUP2 MSTORE PUSH1 0x20 ADD SWAP1 DUP2 MSTORE PUSH1 0x20 ADD PUSH1 0x0 KECCAK256 PUSH1 0x0 PUSH2 0x100 EXP DUP2 SLOAD DUP2 PUSH1 0xFF MUL NOT AND SWAP1 DUP4 ISZERO ISZERO MUL OR SWAP1 SSTORE POP DUP2 PUSH20 0xFFFFFFFFFFFFFFFFFFFFFFFFFFFFFFFFFFFFFFFF AND DUP4 PUSH20 0xFFFFFFFFFFFFFFFFFFFFFFFFFFFFFFFFFFFFFFFF AND PUSH32 0x17307EAB39AB6107E8899845AD3D59BD9653F200F220920489CA2B5937696C31 DUP4 PUSH1 0x40 MLOAD PUSH2 0x4095 SWAP2 SWAP1 PUSH2 0x4E3A JUMP JUMPDEST PUSH1 0x40 MLOAD DUP1 SWAP2 SUB SWAP1 LOG3 POP POP POP JUMP JUMPDEST PUSH2 0x40AD DUP5 DUP5 DUP5 PUSH2 0x3768 JUMP JUMPDEST PUSH2 0x40B9 DUP5 DUP5 DUP5 DUP5 PUSH2 0x458D JUMP JUMPDEST PUSH2 0x40F8 JUMPI PUSH1 0x40 MLOAD PUSH32 0x8C379A000000000000000000000000000000000000000000000000000000000 DUP2 MSTORE PUSH1 0x4 ADD PUSH2 0x40EF SWAP1 PUSH2 0x74E1 JUMP JUMPDEST PUSH1 0x40 MLOAD DUP1 SWAP2 SUB SWAP1 REVERT JUMPDEST POP POP POP POP JUMP JUMPDEST PUSH2 0x4108 CALLER DUP3 PUSH2 0x42AD JUMP JUMPDEST POP JUMP JUMPDEST PUSH1 0x0 DUP1 PUSH20 0xFFFFFFFFFFFFFFFFFFFFFFFFFFFFFFFFFFFFFFFF AND PUSH2 0x412D DUP4 PUSH2 0x3CAF JUMP JUMPDEST PUSH20 0xFFFFFFFFFFFFFFFFFFFFFFFFFFFFFFFFFFFFFFFF AND EQ ISZERO SWAP1 POP SWAP2 SWAP1 POP JUMP JUMPDEST PUSH1 0x60 PUSH2 0x15F DUP1 SLOAD PUSH2 0x415C SWAP1 PUSH2 0x5AA0 JUMP JUMPDEST DUP1 PUSH1 0x1F ADD PUSH1 0x20 DUP1 SWAP2 DIV MUL PUSH1 0x20 ADD PUSH1 0x40 MLOAD SWAP1 DUP2 ADD PUSH1 0x40 MSTORE DUP1 SWAP3 SWAP2 SWAP1 DUP2 DUP2 MSTORE PUSH1 0x20 ADD DUP3 DUP1 SLOAD PUSH2 0x4188 SWAP1 PUSH2 0x5AA0 JUMP JUMPDEST DUP1 ISZERO PUSH2 0x41D5 JUMPI DUP1 PUSH1 0x1F LT PUSH2 0x41AA JUMPI PUSH2 0x100 DUP1 DUP4 SLOAD DIV MUL DUP4 MSTORE SWAP2 PUSH1 0x20 ADD SWAP2 PUSH2 0x41D5 JUMP JUMPDEST DUP3 ADD SWAP2 SWAP1 PUSH1 0x0 MSTORE PUSH1 0x20 PUSH1 0x0 KECCAK256 SWAP1 JUMPDEST DUP2 SLOAD DUP2 MSTORE SWAP1 PUSH1 0x1 ADD SWAP1 PUSH1 0x20 ADD DUP1 DUP4 GT PUSH2 0x41B8 JUMPI DUP3 SWAP1 SUB PUSH1 0x1F AND DUP3 ADD SWAP2 JUMPDEST POP POP POP POP POP SWAP1 POP SWAP1 JUMP JUMPDEST PUSH1 0x60 PUSH1 0x0 PUSH1 0x1 PUSH2 0x41EE DUP5 PUSH2 0x4714 JUMP JUMPDEST ADD SWAP1 POP PUSH1 0x0 DUP2 PUSH8 0xFFFFFFFFFFFFFFFF DUP2 GT ISZERO PUSH2 0x420D JUMPI PUSH2 0x420C PUSH2 0x5177 JUMP JUMPDEST JUMPDEST PUSH1 0x40 MLOAD SWAP1 DUP1 DUP3 MSTORE DUP1 PUSH1 0x1F ADD PUSH1 0x1F NOT AND PUSH1 0x20 ADD DUP3 ADD PUSH1 0x40 MSTORE DUP1 ISZERO PUSH2 0x423F JUMPI DUP2 PUSH1 0x20 ADD PUSH1 0x1 DUP3 MUL DUP1 CALLDATASIZE DUP4 CALLDATACOPY DUP1 DUP3 ADD SWAP2 POP POP SWAP1 POP JUMPDEST POP SWAP1 POP PUSH1 0x0 DUP3 PUSH1 0x20 ADD DUP3 ADD SWAP1 POP JUMPDEST PUSH1 0x1 ISZERO PUSH2 0x42A2 JUMPI DUP1 DUP1 PUSH1 0x1 SWAP1 SUB SWAP2 POP POP PUSH32 0x3031323334353637383961626364656600000000000000000000000000000000 PUSH1 0xA DUP7 MOD BYTE DUP2 MSTORE8 PUSH1 0xA DUP6 DUP2 PUSH2 0x4296 JUMPI PUSH2 0x4295 PUSH2 0x6FD5 JUMP JUMPDEST JUMPDEST DIV SWAP5 POP PUSH1 0x0 DUP6 SUB PUSH2 0x424D JUMPI JUMPDEST DUP2 SWAP4 POP POP POP POP SWAP2 SWAP1 POP JUMP JUMPDEST PUSH2 0x42C7 DUP3 DUP3 PUSH1 0x40 MLOAD DUP1 PUSH1 0x20 ADD PUSH1 0x40 MSTORE DUP1 PUSH1 0x0 DUP2 MSTORE POP PUSH2 0x4867 JUMP JUMPDEST POP POP JUMP JUMPDEST PUSH1 0x0 DUP1 COINBASE TIMESTAMP NUMBER CALLER PUSH20 0xFFFFFFFFFFFFFFFFFFFFFFFFFFFFFFFFFFFFFFFF AND BALANCE GAS PUSH1 0x40 MLOAD PUSH1 0x20 ADD PUSH2 0x42FE SWAP6 SWAP5 SWAP4 SWAP3 SWAP2 SWAP1 PUSH2 0x757C JUMP JUMPDEST PUSH1 0x40 MLOAD PUSH1 0x20 DUP2 DUP4 SUB SUB DUP2 MSTORE SWAP1 PUSH1 0x40 MSTORE DUP1 MLOAD SWAP1 PUSH1 0x20 ADD KECCAK256 PUSH1 0x0 SHR SWAP1 POP PUSH2 0x166 SLOAD DUP2 PUSH2 0x4328 SWAP2 SWAP1 PUSH2 0x65D5 JUMP JUMPDEST PUSH1 0x40 MLOAD PUSH1 0x20 ADD PUSH2 0x4338 SWAP2 SWAP1 PUSH2 0x75DB JUMP JUMPDEST PUSH1 0x40 MLOAD PUSH1 0x20 DUP2 DUP4 SUB SUB DUP2 MSTORE SWAP1 PUSH1 0x40 MSTORE DUP1 MLOAD SWAP1 PUSH1 0x20 ADD KECCAK256 PUSH1 0x0 SHR SWAP1 POP DUP1 SWAP2 POP POP SWAP1 JUMP JUMPDEST POP POP POP POP JUMP JUMPDEST POP POP POP POP JUMP JUMPDEST PUSH1 0x0 DUP2 SWAP1 POP SWAP2 SWAP1 POP JUMP JUMPDEST PUSH1 0x0 DUP2 SWAP1 POP SWAP2 SWAP1 POP JUMP JUMPDEST PUSH2 0x4383 DUP2 PUSH2 0x3DB2 JUMP JUMPDEST PUSH2 0x43C2 JUMPI PUSH1 0x40 MLOAD PUSH32 0x8C379A000000000000000000000000000000000000000000000000000000000 DUP2 MSTORE PUSH1 0x4 ADD PUSH2 0x43B9 SWAP1 PUSH2 0x7668 JUMP JUMPDEST PUSH1 0x40 MLOAD DUP1 SWAP2 SUB SWAP1 REVERT JUMPDEST DUP1 PUSH2 0x43EF PUSH32 0x360894A13BA1A3210667C828492DB98DCA3E2076CC3735A920A3CA505D382BBC PUSH1 0x0 SHL PUSH2 0x4366 JUMP JUMPDEST PUSH1 0x0 ADD PUSH1 0x0 PUSH2 0x100 EXP DUP2 SLOAD DUP2 PUSH20 0xFFFFFFFFFFFFFFFFFFFFFFFFFFFFFFFFFFFFFFFF MUL NOT AND SWAP1 DUP4 PUSH20 0xFFFFFFFFFFFFFFFFFFFFFFFFFFFFFFFFFFFFFFFF AND MUL OR SWAP1 SSTORE POP POP JUMP JUMPDEST PUSH2 0x443C DUP4 PUSH2 0x48C2 JUMP JUMPDEST PUSH1 0x0 DUP3 MLOAD GT DUP1 PUSH2 0x4449 JUMPI POP DUP1 JUMPDEST ISZERO PUSH2 0x445A JUMPI PUSH2 0x4458 DUP4 DUP4 PUSH2 0x4911 JUMP JUMPDEST POP JUMPDEST POP POP POP JUMP JUMPDEST PUSH1 0x0 PUSH1 0x1 SWAP1 SLOAD SWAP1 PUSH2 0x100 EXP SWAP1 DIV PUSH1 0xFF AND PUSH2 0x44AE JUMPI PUSH1 0x40 MLOAD PUSH32 0x8C379A000000000000000000000000000000000000000000000000000000000 DUP2 MSTORE PUSH1 0x4 ADD PUSH2 0x44A5 SWAP1 PUSH2 0x73E3 JUMP JUMPDEST PUSH1 0x40 MLOAD DUP1 SWAP2 SUB SWAP1 REVERT JUMPDEST PUSH2 0x44BE PUSH2 0x44B9 PUSH2 0x3479 JUMP JUMPDEST PUSH2 0x3CEC JUMP JUMPDEST JUMP JUMPDEST PUSH1 0x0 PUSH1 0x1 SWAP1 SLOAD SWAP1 PUSH2 0x100 EXP SWAP1 DIV PUSH1 0xFF AND PUSH2 0x450F JUMPI PUSH1 0x40 MLOAD PUSH32 0x8C379A000000000000000000000000000000000000000000000000000000000 DUP2 MSTORE PUSH1 0x4 ADD PUSH2 0x4506 SWAP1 PUSH2 0x73E3 JUMP JUMPDEST PUSH1 0x40 MLOAD DUP1 SWAP2 SUB SWAP1 REVERT JUMPDEST PUSH1 0x1 PUSH2 0x12D DUP2 SWAP1 SSTORE POP JUMP JUMPDEST PUSH1 0x0 PUSH1 0x1 SWAP1 SLOAD SWAP1 PUSH2 0x100 EXP SWAP1 DIV PUSH1 0xFF AND PUSH2 0x4569 JUMPI PUSH1 0x40 MLOAD PUSH32 0x8C379A000000000000000000000000000000000000000000000000000000000 DUP2 MSTORE PUSH1 0x4 ADD PUSH2 0x4560 SWAP1 PUSH2 0x73E3 JUMP JUMPDEST PUSH1 0x40 MLOAD DUP1 SWAP2 SUB SWAP1 REVERT JUMPDEST DUP2 PUSH1 0xFB SWAP1 DUP2 PUSH2 0x4578 SWAP2 SWAP1 PUSH2 0x618B JUMP JUMPDEST POP DUP1 PUSH1 0xFC SWAP1 DUP2 PUSH2 0x4588 SWAP2 SWAP1 PUSH2 0x618B JUMP JUMPDEST POP POP POP JUMP JUMPDEST PUSH1 0x0 PUSH2 0x45AE DUP5 PUSH20 0xFFFFFFFFFFFFFFFFFFFFFFFFFFFFFFFFFFFFFFFF AND PUSH2 0x3DB2 JUMP JUMPDEST ISZERO PUSH2 0x4707 JUMPI DUP4 PUSH20 0xFFFFFFFFFFFFFFFFFFFFFFFFFFFFFFFFFFFFFFFF AND PUSH4 0x150B7A02 PUSH2 0x45D7 PUSH2 0x3479 JUMP JUMPDEST DUP8 DUP7 DUP7 PUSH1 0x40 MLOAD DUP6 PUSH4 0xFFFFFFFF AND PUSH1 0xE0 SHL DUP2 MSTORE PUSH1 0x4 ADD PUSH2 0x45F9 SWAP5 SWAP4 SWAP3 SWAP2 SWAP1 PUSH2 0x76DD JUMP JUMPDEST PUSH1 0x20 PUSH1 0x40 MLOAD DUP1 DUP4 SUB DUP2 PUSH1 0x0 DUP8 GAS CALL SWAP3 POP POP POP DUP1 ISZERO PUSH2 0x4635 JUMPI POP PUSH1 0x40 MLOAD RETURNDATASIZE PUSH1 0x1F NOT PUSH1 0x1F DUP3 ADD AND DUP3 ADD DUP1 PUSH1 0x40 MSTORE POP DUP2 ADD SWAP1 PUSH2 0x4632 SWAP2 SWAP1 PUSH2 0x773E JUMP JUMPDEST PUSH1 0x1 JUMPDEST PUSH2 0x46B7 JUMPI RETURNDATASIZE DUP1 PUSH1 0x0 DUP2 EQ PUSH2 0x4665 JUMPI PUSH1 0x40 MLOAD SWAP2 POP PUSH1 0x1F NOT PUSH1 0x3F RETURNDATASIZE ADD AND DUP3 ADD PUSH1 0x40 MSTORE RETURNDATASIZE DUP3 MSTORE RETURNDATASIZE PUSH1 0x0 PUSH1 0x20 DUP5 ADD RETURNDATACOPY PUSH2 0x466A JUMP JUMPDEST PUSH1 0x60 SWAP2 POP JUMPDEST POP PUSH1 0x0 DUP2 MLOAD SUB PUSH2 0x46AF JUMPI PUSH1 0x40 MLOAD PUSH32 0x8C379A000000000000000000000000000000000000000000000000000000000 DUP2 MSTORE PUSH1 0x4 ADD PUSH2 0x46A6 SWAP1 PUSH2 0x74E1 JUMP JUMPDEST PUSH1 0x40 MLOAD DUP1 SWAP2 SUB SWAP1 REVERT JUMPDEST DUP1 MLOAD DUP2 PUSH1 0x20 ADD REVERT JUMPDEST PUSH4 0x150B7A02 PUSH1 0xE0 SHL PUSH28 0xFFFFFFFFFFFFFFFFFFFFFFFFFFFFFFFFFFFFFFFFFFFFFFFFFFFFFFFF NOT AND DUP2 PUSH28 0xFFFFFFFFFFFFFFFFFFFFFFFFFFFFFFFFFFFFFFFFFFFFFFFFFFFFFFFF NOT AND EQ SWAP2 POP POP PUSH2 0x470C JUMP JUMPDEST PUSH1 0x1 SWAP1 POP JUMPDEST SWAP5 SWAP4 POP POP POP POP JUMP JUMPDEST PUSH1 0x0 DUP1 PUSH1 0x0 SWAP1 POP PUSH27 0x184F03E93FF9F4DAA797ED6E38ED64BF6A1F010000000000000000 DUP4 LT PUSH2 0x4772 JUMPI PUSH27 0x184F03E93FF9F4DAA797ED6E38ED64BF6A1F010000000000000000 DUP4 DUP2 PUSH2 0x4768 JUMPI PUSH2 0x4767 PUSH2 0x6FD5 JUMP JUMPDEST JUMPDEST DIV SWAP3 POP PUSH1 0x40 DUP2 ADD SWAP1 POP JUMPDEST PUSH14 0x4EE2D6D415B85ACEF8100000000 DUP4 LT PUSH2 0x47AF JUMPI PUSH14 0x4EE2D6D415B85ACEF8100000000 DUP4 DUP2 PUSH2 0x47A5 JUMPI PUSH2 0x47A4 PUSH2 0x6FD5 JUMP JUMPDEST JUMPDEST DIV SWAP3 POP PUSH1 0x20 DUP2 ADD SWAP1 POP JUMPDEST PUSH7 0x2386F26FC10000 DUP4 LT PUSH2 0x47DE JUMPI PUSH7 0x2386F26FC10000 DUP4 DUP2 PUSH2 0x47D4 JUMPI PUSH2 0x47D3 PUSH2 0x6FD5 JUMP JUMPDEST JUMPDEST DIV SWAP3 POP PUSH1 0x10 DUP2 ADD SWAP1 POP JUMPDEST PUSH4 0x5F5E100 DUP4 LT PUSH2 0x4807 JUMPI PUSH4 0x5F5E100 DUP4 DUP2 PUSH2 0x47FD JUMPI PUSH2 0x47FC PUSH2 0x6FD5 JUMP JUMPDEST JUMPDEST DIV SWAP3 POP PUSH1 0x8 DUP2 ADD SWAP1 POP JUMPDEST PUSH2 0x2710 DUP4 LT PUSH2 0x482C JUMPI PUSH2 0x2710 DUP4 DUP2 PUSH2 0x4822 JUMPI PUSH2 0x4821 PUSH2 0x6FD5 JUMP JUMPDEST JUMPDEST DIV SWAP3 POP PUSH1 0x4 DUP2 ADD SWAP1 POP JUMPDEST PUSH1 0x64 DUP4 LT PUSH2 0x484F JUMPI PUSH1 0x64 DUP4 DUP2 PUSH2 0x4845 JUMPI PUSH2 0x4844 PUSH2 0x6FD5 JUMP JUMPDEST JUMPDEST DIV SWAP3 POP PUSH1 0x2 DUP2 ADD SWAP1 POP JUMPDEST PUSH1 0xA DUP4 LT PUSH2 0x485E JUMPI PUSH1 0x1 DUP2 ADD SWAP1 POP JUMPDEST DUP1 SWAP2 POP POP SWAP2 SWAP1 POP JUMP JUMPDEST PUSH2 0x4871 DUP4 DUP4 PUSH2 0x493E JUMP JUMPDEST PUSH2 0x487E PUSH1 0x0 DUP5 DUP5 DUP5 PUSH2 0x458D JUMP JUMPDEST PUSH2 0x48BD JUMPI PUSH1 0x40 MLOAD PUSH32 0x8C379A000000000000000000000000000000000000000000000000000000000 DUP2 MSTORE PUSH1 0x4 ADD PUSH2 0x48B4 SWAP1 PUSH2 0x74E1 JUMP JUMPDEST PUSH1 0x40 MLOAD DUP1 SWAP2 SUB SWAP1 REVERT JUMPDEST POP POP POP JUMP JUMPDEST PUSH2 0x48CB DUP2 PUSH2 0x437A JUMP JUMPDEST DUP1 PUSH20 0xFFFFFFFFFFFFFFFFFFFFFFFFFFFFFFFFFFFFFFFF AND PUSH32 0xBC7CD75A20EE27FD9ADEBAB32041F755214DBC6BFFA90CC0225B39DA2E5C2D3B PUSH1 0x40 MLOAD PUSH1 0x40 MLOAD DUP1 SWAP2 SUB SWAP1 LOG2 POP JUMP JUMPDEST PUSH1 0x60 PUSH2 0x4936 DUP4 DUP4 PUSH1 0x40 MLOAD DUP1 PUSH1 0x60 ADD PUSH1 0x40 MSTORE DUP1 PUSH1 0x27 DUP2 MSTORE PUSH1 0x20 ADD PUSH2 0x78F8 PUSH1 0x27 SWAP2 CODECOPY PUSH2 0x4B5B JUMP JUMPDEST SWAP1 POP SWAP3 SWAP2 POP POP JUMP JUMPDEST PUSH1 0x0 PUSH20 0xFFFFFFFFFFFFFFFFFFFFFFFFFFFFFFFFFFFFFFFF AND DUP3 PUSH20 0xFFFFFFFFFFFFFFFFFFFFFFFFFFFFFFFFFFFFFFFF AND SUB PUSH2 0x49AD JUMPI PUSH1 0x40 MLOAD PUSH32 0x8C379A000000000000000000000000000000000000000000000000000000000 DUP2 MSTORE PUSH1 0x4 ADD PUSH2 0x49A4 SWAP1 PUSH2 0x77B7 JUMP JUMPDEST PUSH1 0x40 MLOAD DUP1 SWAP2 SUB SWAP1 REVERT JUMPDEST PUSH2 0x49B6 DUP2 PUSH2 0x410B JUMP JUMPDEST ISZERO PUSH2 0x49F6 JUMPI PUSH1 0x40 MLOAD PUSH32 0x8C379A000000000000000000000000000000000000000000000000000000000 DUP2 MSTORE PUSH1 0x4 ADD PUSH2 0x49ED SWAP1 PUSH2 0x7823 JUMP JUMPDEST PUSH1 0x40 MLOAD DUP1 SWAP2 SUB SWAP1 REVERT JUMPDEST PUSH2 0x4A04 PUSH1 0x0 DUP4 DUP4 PUSH1 0x1 PUSH2 0x435A JUMP JUMPDEST PUSH2 0x4A0D DUP2 PUSH2 0x410B JUMP JUMPDEST ISZERO PUSH2 0x4A4D JUMPI PUSH1 0x40 MLOAD PUSH32 0x8C379A000000000000000000000000000000000000000000000000000000000 DUP2 MSTORE PUSH1 0x4 ADD PUSH2 0x4A44 SWAP1 PUSH2 0x7823 JUMP JUMPDEST PUSH1 0x40 MLOAD DUP1 SWAP2 SUB SWAP1 REVERT JUMPDEST PUSH1 0x1 PUSH1 0xFE PUSH1 0x0 DUP5 PUSH20 0xFFFFFFFFFFFFFFFFFFFFFFFFFFFFFFFFFFFFFFFF AND PUSH20 0xFFFFFFFFFFFFFFFFFFFFFFFFFFFFFFFFFFFFFFFF AND DUP2 MSTORE PUSH1 0x20 ADD SWAP1 DUP2 MSTORE PUSH1 0x20 ADD PUSH1 0x0 KECCAK256 PUSH1 0x0 DUP3 DUP3 SLOAD ADD SWAP3 POP POP DUP2 SWAP1 SSTORE POP DUP2 PUSH1 0xFD PUSH1 0x0 DUP4 DUP2 MSTORE PUSH1 0x20 ADD SWAP1 DUP2 MSTORE PUSH1 0x20 ADD PUSH1 0x0 KECCAK256 PUSH1 0x0 PUSH2 0x100 EXP DUP2 SLOAD DUP2 PUSH20 0xFFFFFFFFFFFFFFFFFFFFFFFFFFFFFFFFFFFFFFFF MUL NOT AND SWAP1 DUP4 PUSH20 0xFFFFFFFFFFFFFFFFFFFFFFFFFFFFFFFFFFFFFFFF AND MUL OR SWAP1 SSTORE POP DUP1 DUP3 PUSH20 0xFFFFFFFFFFFFFFFFFFFFFFFFFFFFFFFFFFFFFFFF AND PUSH1 0x0 PUSH20 0xFFFFFFFFFFFFFFFFFFFFFFFFFFFFFFFFFFFFFFFF AND PUSH32 0xDDF252AD1BE2C89B69C2B068FC378DAA952BA7F163C4A11628F55A4DF523B3EF PUSH1 0x40 MLOAD PUSH1 0x40 MLOAD DUP1 SWAP2 SUB SWAP1 LOG4 PUSH2 0x4B57 PUSH1 0x0 DUP4 DUP4 PUSH1 0x1 PUSH2 0x4360 JUMP JUMPDEST POP POP JUMP JUMPDEST PUSH1 0x60 PUSH1 0x0 DUP1 DUP6 PUSH20 0xFFFFFFFFFFFFFFFFFFFFFFFFFFFFFFFFFFFFFFFF AND DUP6 PUSH1 0x40 MLOAD PUSH2 0x4B85 SWAP2 SWAP1 PUSH2 0x7874 JUMP JUMPDEST PUSH1 0x0 PUSH1 0x40 MLOAD DUP1 DUP4 SUB DUP2 DUP6 GAS DELEGATECALL SWAP2 POP POP RETURNDATASIZE DUP1 PUSH1 0x0 DUP2 EQ PUSH2 0x4BC0 JUMPI PUSH1 0x40 MLOAD SWAP2 POP PUSH1 0x1F NOT PUSH1 0x3F RETURNDATASIZE ADD AND DUP3 ADD PUSH1 0x40 MSTORE RETURNDATASIZE DUP3 MSTORE RETURNDATASIZE PUSH1 0x0 PUSH1 0x20 DUP5 ADD RETURNDATACOPY PUSH2 0x4BC5 JUMP JUMPDEST PUSH1 0x60 SWAP2 POP JUMPDEST POP SWAP2 POP SWAP2 POP PUSH2 0x4BD6 DUP7 DUP4 DUP4 DUP8 PUSH2 0x4BE1 JUMP JUMPDEST SWAP3 POP POP POP SWAP4 SWAP3 POP POP POP JUMP JUMPDEST PUSH1 0x60 DUP4 ISZERO PUSH2 0x4C43 JUMPI PUSH1 0x0 DUP4 MLOAD SUB PUSH2 0x4C3B JUMPI PUSH2 0x4BFB DUP6 PUSH2 0x3DB2 JUMP JUMPDEST PUSH2 0x4C3A JUMPI PUSH1 0x40 MLOAD PUSH32 0x8C379A000000000000000000000000000000000000000000000000000000000 DUP2 MSTORE PUSH1 0x4 ADD PUSH2 0x4C31 SWAP1 PUSH2 0x78D7 JUMP JUMPDEST PUSH1 0x40 MLOAD DUP1 SWAP2 SUB SWAP1 REVERT JUMPDEST JUMPDEST DUP3 SWAP1 POP PUSH2 0x4C4E JUMP JUMPDEST PUSH2 0x4C4D DUP4 DUP4 PUSH2 0x4C56 JUMP JUMPDEST JUMPDEST SWAP5 SWAP4 POP POP POP POP JUMP JUMPDEST PUSH1 0x0 DUP3 MLOAD GT ISZERO PUSH2 0x4C69 JUMPI DUP2 MLOAD DUP1 DUP4 PUSH1 0x20 ADD REVERT JUMPDEST DUP1 PUSH1 0x40 MLOAD PUSH32 0x8C379A000000000000000000000000000000000000000000000000000000000 DUP2 MSTORE PUSH1 0x4 ADD PUSH2 0x4C9D SWAP2 SWAP1 PUSH2 0x4EE5 JUMP JUMPDEST PUSH1 0x40 MLOAD DUP1 SWAP2 SUB SWAP1 REVERT JUMPDEST POP DUP1 SLOAD PUSH1 0x0 DUP3 SSTORE PUSH1 0xF ADD PUSH1 0x10 SWAP1 DIV SWAP1 PUSH1 0x0 MSTORE PUSH1 0x20 PUSH1 0x0 KECCAK256 SWAP1 DUP2 ADD SWAP1 PUSH2 0x4CCB SWAP2 SWAP1 PUSH2 0x4D69 JUMP JUMPDEST POP JUMP JUMPDEST DUP3 PUSH2 0x12B PUSH1 0x1F ADD PUSH1 0x20 SWAP1 DIV DUP2 ADD SWAP3 DUP3 ISZERO PUSH2 0x4D58 JUMPI SWAP2 PUSH1 0x20 MUL DUP3 ADD PUSH1 0x0 JUMPDEST DUP4 DUP3 GT ISZERO PUSH2 0x4D29 JUMPI DUP4 MLOAD DUP4 DUP3 PUSH2 0x100 EXP DUP2 SLOAD DUP2 PUSH1 0xFF MUL NOT AND SWAP1 DUP4 PUSH1 0xFF AND MUL OR SWAP1 SSTORE POP SWAP3 PUSH1 0x20 ADD SWAP3 PUSH1 0x1 ADD PUSH1 0x20 DUP2 PUSH1 0x0 ADD DIV SWAP3 DUP4 ADD SWAP3 PUSH1 0x1 SUB MUL PUSH2 0x4CEB JUMP JUMPDEST DUP1 ISZERO PUSH2 0x4D56 JUMPI DUP3 DUP2 PUSH2 0x100 EXP DUP2 SLOAD SWAP1 PUSH1 0xFF MUL NOT AND SWAP1 SSTORE PUSH1 0x1 ADD PUSH1 0x20 DUP2 PUSH1 0x0 ADD DIV SWAP3 DUP4 ADD SWAP3 PUSH1 0x1 SUB MUL PUSH2 0x4D29 JUMP JUMPDEST POP JUMPDEST POP SWAP1 POP PUSH2 0x4D65 SWAP2 SWAP1 PUSH2 0x4D69 JUMP JUMPDEST POP SWAP1 JUMP JUMPDEST JUMPDEST DUP1 DUP3 GT ISZERO PUSH2 0x4D82 JUMPI PUSH1 0x0 DUP2 PUSH1 0x0 SWAP1 SSTORE POP PUSH1 0x1 ADD PUSH2 0x4D6A JUMP JUMPDEST POP SWAP1 JUMP JUMPDEST PUSH1 0x0 PUSH1 0x40 MLOAD SWAP1 POP SWAP1 JUMP JUMPDEST PUSH1 0x0 DUP1 REVERT JUMPDEST PUSH1 0x0 DUP1 REVERT JUMPDEST PUSH1 0x0 PUSH32 0xFFFFFFFF00000000000000000000000000000000000000000000000000000000 DUP3 AND SWAP1 POP SWAP2 SWAP1 POP JUMP JUMPDEST PUSH2 0x4DCF DUP2 PUSH2 0x4D9A JUMP JUMPDEST DUP2 EQ PUSH2 0x4DDA JUMPI PUSH1 0x0 DUP1 REVERT JUMPDEST POP JUMP JUMPDEST PUSH1 0x0 DUP2 CALLDATALOAD SWAP1 POP PUSH2 0x4DEC DUP2 PUSH2 0x4DC6 JUMP JUMPDEST SWAP3 SWAP2 POP POP JUMP JUMPDEST PUSH1 0x0 PUSH1 0x20 DUP3 DUP5 SUB SLT ISZERO PUSH2 0x4E08 JUMPI PUSH2 0x4E07 PUSH2 0x4D90 JUMP JUMPDEST JUMPDEST PUSH1 0x0 PUSH2 0x4E16 DUP5 DUP3 DUP6 ADD PUSH2 0x4DDD JUMP JUMPDEST SWAP2 POP POP SWAP3 SWAP2 POP POP JUMP JUMPDEST PUSH1 0x0 DUP2 ISZERO ISZERO SWAP1 POP SWAP2 SWAP1 POP JUMP JUMPDEST PUSH2 0x4E34 DUP2 PUSH2 0x4E1F JUMP JUMPDEST DUP3 MSTORE POP POP JUMP JUMPDEST PUSH1 0x0 PUSH1 0x20 DUP3 ADD SWAP1 POP PUSH2 0x4E4F PUSH1 0x0 DUP4 ADD DUP5 PUSH2 0x4E2B JUMP JUMPDEST SWAP3 SWAP2 POP POP JUMP JUMPDEST PUSH1 0x0 DUP2 MLOAD SWAP1 POP SWAP2 SWAP1 POP JUMP JUMPDEST PUSH1 0x0 DUP3 DUP3 MSTORE PUSH1 0x20 DUP3 ADD SWAP1 POP SWAP3 SWAP2 POP POP JUMP JUMPDEST PUSH1 0x0 JUMPDEST DUP4 DUP2 LT ISZERO PUSH2 0x4E8F JUMPI DUP1 DUP3 ADD MLOAD DUP2 DUP5 ADD MSTORE PUSH1 0x20 DUP2 ADD SWAP1 POP PUSH2 0x4E74 JUMP JUMPDEST PUSH1 0x0 DUP5 DUP5 ADD MSTORE POP POP POP POP JUMP JUMPDEST PUSH1 0x0 PUSH1 0x1F NOT PUSH1 0x1F DUP4 ADD AND SWAP1 POP SWAP2 SWAP1 POP JUMP JUMPDEST PUSH1 0x0 PUSH2 0x4EB7 DUP3 PUSH2 0x4E55 JUMP JUMPDEST PUSH2 0x4EC1 DUP2 DUP6 PUSH2 0x4E60 JUMP JUMPDEST SWAP4 POP PUSH2 0x4ED1 DUP2 DUP6 PUSH1 0x20 DUP7 ADD PUSH2 0x4E71 JUMP JUMPDEST PUSH2 0x4EDA DUP2 PUSH2 0x4E9B JUMP JUMPDEST DUP5 ADD SWAP2 POP POP SWAP3 SWAP2 POP POP JUMP JUMPDEST PUSH1 0x0 PUSH1 0x20 DUP3 ADD SWAP1 POP DUP2 DUP2 SUB PUSH1 0x0 DUP4 ADD MSTORE PUSH2 0x4EFF DUP2 DUP5 PUSH2 0x4EAC JUMP JUMPDEST SWAP1 POP SWAP3 SWAP2 POP POP JUMP JUMPDEST PUSH1 0x0 DUP2 SWAP1 POP SWAP2 SWAP1 POP JUMP JUMPDEST PUSH2 0x4F1A DUP2 PUSH2 0x4F07 JUMP JUMPDEST DUP2 EQ PUSH2 0x4F25 JUMPI PUSH1 0x0 DUP1 REVERT JUMPDEST POP JUMP JUMPDEST PUSH1 0x0 DUP2 CALLDATALOAD SWAP1 POP PUSH2 0x4F37 DUP2 PUSH2 0x4F11 JUMP JUMPDEST SWAP3 SWAP2 POP POP JUMP JUMPDEST PUSH1 0x0 PUSH1 0x20 DUP3 DUP5 SUB SLT ISZERO PUSH2 0x4F53 JUMPI PUSH2 0x4F52 PUSH2 0x4D90 JUMP JUMPDEST JUMPDEST PUSH1 0x0 PUSH2 0x4F61 DUP5 DUP3 DUP6 ADD PUSH2 0x4F28 JUMP JUMPDEST SWAP2 POP POP SWAP3 SWAP2 POP POP JUMP JUMPDEST PUSH1 0x0 PUSH20 0xFFFFFFFFFFFFFFFFFFFFFFFFFFFFFFFFFFFFFFFF DUP3 AND SWAP1 POP SWAP2 SWAP1 POP JUMP JUMPDEST PUSH1 0x0 PUSH2 0x4F95 DUP3 PUSH2 0x4F6A JUMP JUMPDEST SWAP1 POP SWAP2 SWAP1 POP JUMP JUMPDEST PUSH2 0x4FA5 DUP2 PUSH2 0x4F8A JUMP JUMPDEST DUP3 MSTORE POP POP JUMP JUMPDEST PUSH1 0x0 PUSH1 0x20 DUP3 ADD SWAP1 POP PUSH2 0x4FC0 PUSH1 0x0 DUP4 ADD DUP5 PUSH2 0x4F9C JUMP JUMPDEST SWAP3 SWAP2 POP POP JUMP JUMPDEST PUSH2 0x4FCF DUP2 PUSH2 0x4F8A JUMP JUMPDEST DUP2 EQ PUSH2 0x4FDA JUMPI PUSH1 0x0 DUP1 REVERT JUMPDEST POP JUMP JUMPDEST PUSH1 0x0 DUP2 CALLDATALOAD SWAP1 POP PUSH2 0x4FEC DUP2 PUSH2 0x4FC6 JUMP JUMPDEST SWAP3 SWAP2 POP POP JUMP JUMPDEST PUSH1 0x0 DUP1 PUSH1 0x40 DUP4 DUP6 SUB SLT ISZERO PUSH2 0x5009 JUMPI PUSH2 0x5008 PUSH2 0x4D90 JUMP JUMPDEST JUMPDEST PUSH1 0x0 PUSH2 0x5017 DUP6 DUP3 DUP7 ADD PUSH2 0x4FDD JUMP JUMPDEST SWAP3 POP POP PUSH1 0x20 PUSH2 0x5028 DUP6 DUP3 DUP7 ADD PUSH2 0x4F28 JUMP JUMPDEST SWAP2 POP POP SWAP3 POP SWAP3 SWAP1 POP JUMP JUMPDEST PUSH1 0x0 PUSH2 0xFFFF DUP3 AND SWAP1 POP SWAP2 SWAP1 POP JUMP JUMPDEST PUSH2 0x5049 DUP2 PUSH2 0x5032 JUMP JUMPDEST DUP2 EQ PUSH2 0x5054 JUMPI PUSH1 0x0 DUP1 REVERT JUMPDEST POP JUMP JUMPDEST PUSH1 0x0 DUP2 CALLDATALOAD SWAP1 POP PUSH2 0x5066 DUP2 PUSH2 0x5040 JUMP JUMPDEST SWAP3 SWAP2 POP POP JUMP JUMPDEST PUSH1 0x0 PUSH1 0x20 DUP3 DUP5 SUB SLT ISZERO PUSH2 0x5082 JUMPI PUSH2 0x5081 PUSH2 0x4D90 JUMP JUMPDEST JUMPDEST PUSH1 0x0 PUSH2 0x5090 DUP5 DUP3 DUP6 ADD PUSH2 0x5057 JUMP JUMPDEST SWAP2 POP POP SWAP3 SWAP2 POP POP JUMP JUMPDEST PUSH1 0x0 PUSH1 0x20 DUP3 DUP5 SUB SLT ISZERO PUSH2 0x50AF JUMPI PUSH2 0x50AE PUSH2 0x4D90 JUMP JUMPDEST JUMPDEST PUSH1 0x0 PUSH2 0x50BD DUP5 DUP3 DUP6 ADD PUSH2 0x4FDD JUMP JUMPDEST SWAP2 POP POP SWAP3 SWAP2 POP POP JUMP JUMPDEST PUSH2 0x50CF DUP2 PUSH2 0x4F07 JUMP JUMPDEST DUP3 MSTORE POP POP JUMP JUMPDEST PUSH1 0x0 PUSH1 0x20 DUP3 ADD SWAP1 POP PUSH2 0x50EA PUSH1 0x0 DUP4 ADD DUP5 PUSH2 0x50C6 JUMP JUMPDEST SWAP3 SWAP2 POP POP JUMP JUMPDEST PUSH2 0x50F9 DUP2 PUSH2 0x5032 JUMP JUMPDEST DUP3 MSTORE POP POP JUMP JUMPDEST PUSH1 0x0 PUSH1 0x20 DUP3 ADD SWAP1 POP PUSH2 0x5114 PUSH1 0x0 DUP4 ADD DUP5 PUSH2 0x50F0 JUMP JUMPDEST SWAP3 SWAP2 POP POP JUMP JUMPDEST PUSH1 0x0 DUP1 PUSH1 0x0 PUSH1 0x60 DUP5 DUP7 SUB SLT ISZERO PUSH2 0x5133 JUMPI PUSH2 0x5132 PUSH2 0x4D90 JUMP JUMPDEST JUMPDEST PUSH1 0x0 PUSH2 0x5141 DUP7 DUP3 DUP8 ADD PUSH2 0x4FDD JUMP JUMPDEST SWAP4 POP POP PUSH1 0x20 PUSH2 0x5152 DUP7 DUP3 DUP8 ADD PUSH2 0x4FDD JUMP JUMPDEST SWAP3 POP POP PUSH1 0x40 PUSH2 0x5163 DUP7 DUP3 DUP8 ADD PUSH2 0x4F28 JUMP JUMPDEST SWAP2 POP POP SWAP3 POP SWAP3 POP SWAP3 JUMP JUMPDEST PUSH1 0x0 DUP1 REVERT JUMPDEST PUSH1 0x0 DUP1 REVERT JUMPDEST PUSH32 0x4E487B7100000000000000000000000000000000000000000000000000000000 PUSH1 0x0 MSTORE PUSH1 0x41 PUSH1 0x4 MSTORE PUSH1 0x24 PUSH1 0x0 REVERT JUMPDEST PUSH2 0x51AF DUP3 PUSH2 0x4E9B JUMP JUMPDEST DUP2 ADD DUP2 DUP2 LT PUSH8 0xFFFFFFFFFFFFFFFF DUP3 GT OR ISZERO PUSH2 0x51CE JUMPI PUSH2 0x51CD PUSH2 0x5177 JUMP JUMPDEST JUMPDEST DUP1 PUSH1 0x40 MSTORE POP POP POP JUMP JUMPDEST PUSH1 0x0 PUSH2 0x51E1 PUSH2 0x4D86 JUMP JUMPDEST SWAP1 POP PUSH2 0x51ED DUP3 DUP3 PUSH2 0x51A6 JUMP JUMPDEST SWAP2 SWAP1 POP JUMP JUMPDEST PUSH1 0x0 PUSH8 0xFFFFFFFFFFFFFFFF DUP3 GT ISZERO PUSH2 0x520D JUMPI PUSH2 0x520C PUSH2 0x5177 JUMP JUMPDEST JUMPDEST PUSH2 0x5216 DUP3 PUSH2 0x4E9B JUMP JUMPDEST SWAP1 POP PUSH1 0x20 DUP2 ADD SWAP1 POP SWAP2 SWAP1 POP JUMP JUMPDEST DUP3 DUP2 DUP4 CALLDATACOPY PUSH1 0x0 DUP4 DUP4 ADD MSTORE POP POP POP JUMP JUMPDEST PUSH1 0x0 PUSH2 0x5245 PUSH2 0x5240 DUP5 PUSH2 0x51F2 JUMP JUMPDEST PUSH2 0x51D7 JUMP JUMPDEST SWAP1 POP DUP3 DUP2 MSTORE PUSH1 0x20 DUP2 ADD DUP5 DUP5 DUP5 ADD GT ISZERO PUSH2 0x5261 JUMPI PUSH2 0x5260 PUSH2 0x5172 JUMP JUMPDEST JUMPDEST PUSH2 0x526C DUP5 DUP3 DUP6 PUSH2 0x5223 JUMP JUMPDEST POP SWAP4 SWAP3 POP POP POP JUMP JUMPDEST PUSH1 0x0 DUP3 PUSH1 0x1F DUP4 ADD SLT PUSH2 0x5289 JUMPI PUSH2 0x5288 PUSH2 0x516D JUMP JUMPDEST JUMPDEST DUP2 CALLDATALOAD PUSH2 0x5299 DUP5 DUP3 PUSH1 0x20 DUP7 ADD PUSH2 0x5232 JUMP JUMPDEST SWAP2 POP POP SWAP3 SWAP2 POP POP JUMP JUMPDEST PUSH1 0x0 DUP1 PUSH1 0x40 DUP4 DUP6 SUB SLT ISZERO PUSH2 0x52B9 JUMPI PUSH2 0x52B8 PUSH2 0x4D90 JUMP JUMPDEST JUMPDEST PUSH1 0x0 PUSH2 0x52C7 DUP6 DUP3 DUP7 ADD PUSH2 0x4FDD JUMP JUMPDEST SWAP3 POP POP PUSH1 0x20 DUP4 ADD CALLDATALOAD PUSH8 0xFFFFFFFFFFFFFFFF DUP2 GT ISZERO PUSH2 0x52E8 JUMPI PUSH2 0x52E7 PUSH2 0x4D95 JUMP JUMPDEST JUMPDEST PUSH2 0x52F4 DUP6 DUP3 DUP7 ADD PUSH2 0x5274 JUMP JUMPDEST SWAP2 POP POP SWAP3 POP SWAP3 SWAP1 POP JUMP JUMPDEST PUSH1 0x0 DUP2 SWAP1 POP SWAP2 SWAP1 POP JUMP JUMPDEST PUSH2 0x5311 DUP2 PUSH2 0x52FE JUMP JUMPDEST DUP3 MSTORE POP POP JUMP JUMPDEST PUSH1 0x0 PUSH1 0x20 DUP3 ADD SWAP1 POP PUSH2 0x532C PUSH1 0x0 DUP4 ADD DUP5 PUSH2 0x5308 JUMP JUMPDEST SWAP3 SWAP2 POP POP JUMP JUMPDEST PUSH1 0x0 PUSH8 0xFFFFFFFFFFFFFFFF DUP3 GT ISZERO PUSH2 0x534D JUMPI PUSH2 0x534C PUSH2 0x5177 JUMP JUMPDEST JUMPDEST PUSH2 0x5356 DUP3 PUSH2 0x4E9B JUMP JUMPDEST SWAP1 POP PUSH1 0x20 DUP2 ADD SWAP1 POP SWAP2 SWAP1 POP JUMP JUMPDEST PUSH1 0x0 PUSH2 0x5376 PUSH2 0x5371 DUP5 PUSH2 0x5332 JUMP JUMPDEST PUSH2 0x51D7 JUMP JUMPDEST SWAP1 POP DUP3 DUP2 MSTORE PUSH1 0x20 DUP2 ADD DUP5 DUP5 DUP5 ADD GT ISZERO PUSH2 0x5392 JUMPI PUSH2 0x5391 PUSH2 0x5172 JUMP JUMPDEST JUMPDEST PUSH2 0x539D DUP5 DUP3 DUP6 PUSH2 0x5223 JUMP JUMPDEST POP SWAP4 SWAP3 POP POP POP JUMP JUMPDEST PUSH1 0x0 DUP3 PUSH1 0x1F DUP4 ADD SLT PUSH2 0x53BA JUMPI PUSH2 0x53B9 PUSH2 0x516D JUMP JUMPDEST JUMPDEST DUP2 CALLDATALOAD PUSH2 0x53CA DUP5 DUP3 PUSH1 0x20 DUP7 ADD PUSH2 0x5363 JUMP JUMPDEST SWAP2 POP POP SWAP3 SWAP2 POP POP JUMP JUMPDEST PUSH1 0x0 PUSH1 0x20 DUP3 DUP5 SUB SLT ISZERO PUSH2 0x53E9 JUMPI PUSH2 0x53E8 PUSH2 0x4D90 JUMP JUMPDEST JUMPDEST PUSH1 0x0 DUP3 ADD CALLDATALOAD PUSH8 0xFFFFFFFFFFFFFFFF DUP2 GT ISZERO PUSH2 0x5407 JUMPI PUSH2 0x5406 PUSH2 0x4D95 JUMP JUMPDEST JUMPDEST PUSH2 0x5413 DUP5 DUP3 DUP6 ADD PUSH2 0x53A5 JUMP JUMPDEST SWAP2 POP POP SWAP3 SWAP2 POP POP JUMP JUMPDEST PUSH1 0x0 PUSH1 0xFF DUP3 AND SWAP1 POP SWAP2 SWAP1 POP JUMP JUMPDEST PUSH2 0x5432 DUP2 PUSH2 0x541C JUMP JUMPDEST DUP2 EQ PUSH2 0x543D JUMPI PUSH1 0x0 DUP1 REVERT JUMPDEST POP JUMP JUMPDEST PUSH1 0x0 DUP2 CALLDATALOAD SWAP1 POP PUSH2 0x544F DUP2 PUSH2 0x5429 JUMP JUMPDEST SWAP3 SWAP2 POP POP JUMP JUMPDEST PUSH1 0x0 DUP1 PUSH1 0x0 PUSH1 0x60 DUP5 DUP7 SUB SLT ISZERO PUSH2 0x546E JUMPI PUSH2 0x546D PUSH2 0x4D90 JUMP JUMPDEST JUMPDEST PUSH1 0x0 PUSH2 0x547C DUP7 DUP3 DUP8 ADD PUSH2 0x5440 JUMP JUMPDEST SWAP4 POP POP PUSH1 0x20 PUSH2 0x548D DUP7 DUP3 DUP8 ADD PUSH2 0x5057 JUMP JUMPDEST SWAP3 POP POP PUSH1 0x40 PUSH2 0x549E DUP7 DUP3 DUP8 ADD PUSH2 0x5057 JUMP JUMPDEST SWAP2 POP POP SWAP3 POP SWAP3 POP SWAP3 JUMP JUMPDEST PUSH1 0x0 DUP2 MLOAD SWAP1 POP SWAP2 SWAP1 POP JUMP JUMPDEST PUSH1 0x0 DUP3 DUP3 MSTORE PUSH1 0x20 DUP3 ADD SWAP1 POP SWAP3 SWAP2 POP POP JUMP JUMPDEST PUSH1 0x0 DUP2 SWAP1 POP PUSH1 0x20 DUP3 ADD SWAP1 POP SWAP2 SWAP1 POP JUMP JUMPDEST PUSH2 0x54DD DUP2 PUSH2 0x4F07 JUMP JUMPDEST DUP3 MSTORE POP POP JUMP JUMPDEST PUSH1 0x0 PUSH2 0x54EF DUP4 DUP4 PUSH2 0x54D4 JUMP JUMPDEST PUSH1 0x20 DUP4 ADD SWAP1 POP SWAP3 SWAP2 POP POP JUMP JUMPDEST PUSH1 0x0 PUSH1 0x20 DUP3 ADD SWAP1 POP SWAP2 SWAP1 POP JUMP JUMPDEST PUSH1 0x0 PUSH2 0x5513 DUP3 PUSH2 0x54A8 JUMP JUMPDEST PUSH2 0x551D DUP2 DUP6 PUSH2 0x54B3 JUMP JUMPDEST SWAP4 POP PUSH2 0x5528 DUP4 PUSH2 0x54C4 JUMP JUMPDEST DUP1 PUSH1 0x0 JUMPDEST DUP4 DUP2 LT ISZERO PUSH2 0x5559 JUMPI DUP2 MLOAD PUSH2 0x5540 DUP9 DUP3 PUSH2 0x54E3 JUMP JUMPDEST SWAP8 POP PUSH2 0x554B DUP4 PUSH2 0x54FB JUMP JUMPDEST SWAP3 POP POP PUSH1 0x1 DUP2 ADD SWAP1 POP PUSH2 0x552C JUMP JUMPDEST POP DUP6 SWAP4 POP POP POP POP SWAP3 SWAP2 POP POP JUMP JUMPDEST PUSH1 0x0 PUSH1 0x20 DUP3 ADD SWAP1 POP DUP2 DUP2 SUB PUSH1 0x0 DUP4 ADD MSTORE PUSH2 0x5580 DUP2 DUP5 PUSH2 0x5508 JUMP JUMPDEST SWAP1 POP SWAP3 SWAP2 POP POP JUMP JUMPDEST PUSH1 0x0 DUP2 MLOAD SWAP1 POP SWAP2 SWAP1 POP JUMP JUMPDEST PUSH1 0x0 DUP3 DUP3 MSTORE PUSH1 0x20 DUP3 ADD SWAP1 POP SWAP3 SWAP2 POP POP JUMP JUMPDEST PUSH1 0x0 DUP2 SWAP1 POP PUSH1 0x20 DUP3 ADD SWAP1 POP SWAP2 SWAP1 POP JUMP JUMPDEST PUSH2 0x55BD DUP2 PUSH2 0x5032 JUMP JUMPDEST DUP3 MSTORE POP POP JUMP JUMPDEST PUSH1 0x0 PUSH2 0x55CF DUP4 DUP4 PUSH2 0x55B4 JUMP JUMPDEST PUSH1 0x20 DUP4 ADD SWAP1 POP SWAP3 SWAP2 POP POP JUMP JUMPDEST PUSH1 0x0 PUSH1 0x20 DUP3 ADD SWAP1 POP SWAP2 SWAP1 POP JUMP JUMPDEST PUSH1 0x0 PUSH2 0x55F3 DUP3 PUSH2 0x5588 JUMP JUMPDEST PUSH2 0x55FD DUP2 DUP6 PUSH2 0x5593 JUMP JUMPDEST SWAP4 POP PUSH2 0x5608 DUP4 PUSH2 0x55A4 JUMP JUMPDEST DUP1 PUSH1 0x0 JUMPDEST DUP4 DUP2 LT ISZERO PUSH2 0x5639 JUMPI DUP2 MLOAD PUSH2 0x5620 DUP9 DUP3 PUSH2 0x55C3 JUMP JUMPDEST SWAP8 POP PUSH2 0x562B DUP4 PUSH2 0x55DB JUMP JUMPDEST SWAP3 POP POP PUSH1 0x1 DUP2 ADD SWAP1 POP PUSH2 0x560C JUMP JUMPDEST POP DUP6 SWAP4 POP POP POP POP SWAP3 SWAP2 POP POP JUMP JUMPDEST PUSH1 0x0 PUSH1 0x20 DUP3 ADD SWAP1 POP DUP2 DUP2 SUB PUSH1 0x0 DUP4 ADD MSTORE PUSH2 0x5660 DUP2 DUP5 PUSH2 0x55E8 JUMP JUMPDEST SWAP1 POP SWAP3 SWAP2 POP POP JUMP JUMPDEST PUSH2 0x5671 DUP2 PUSH2 0x4E1F JUMP JUMPDEST DUP2 EQ PUSH2 0x567C JUMPI PUSH1 0x0 DUP1 REVERT JUMPDEST POP JUMP JUMPDEST PUSH1 0x0 DUP2 CALLDATALOAD SWAP1 POP PUSH2 0x568E DUP2 PUSH2 0x5668 JUMP JUMPDEST SWAP3 SWAP2 POP POP JUMP JUMPDEST PUSH1 0x0 DUP1 PUSH1 0x40 DUP4 DUP6 SUB SLT ISZERO PUSH2 0x56AB JUMPI PUSH2 0x56AA PUSH2 0x4D90 JUMP JUMPDEST JUMPDEST PUSH1 0x0 PUSH2 0x56B9 DUP6 DUP3 DUP7 ADD PUSH2 0x4FDD JUMP JUMPDEST SWAP3 POP POP PUSH1 0x20 PUSH2 0x56CA DUP6 DUP3 DUP7 ADD PUSH2 0x567F JUMP JUMPDEST SWAP2 POP POP SWAP3 POP SWAP3 SWAP1 POP JUMP JUMPDEST PUSH2 0x56DD DUP2 PUSH2 0x541C JUMP JUMPDEST DUP3 MSTORE POP POP JUMP JUMPDEST PUSH1 0x0 PUSH1 0x20 DUP3 ADD SWAP1 POP PUSH2 0x56F8 PUSH1 0x0 DUP4 ADD DUP5 PUSH2 0x56D4 JUMP JUMPDEST SWAP3 SWAP2 POP POP JUMP JUMPDEST PUSH1 0x0 DUP1 PUSH1 0x0 DUP1 PUSH1 0x80 DUP6 DUP8 SUB SLT ISZERO PUSH2 0x5718 JUMPI PUSH2 0x5717 PUSH2 0x4D90 JUMP JUMPDEST JUMPDEST PUSH1 0x0 PUSH2 0x5726 DUP8 DUP3 DUP9 ADD PUSH2 0x4FDD JUMP JUMPDEST SWAP5 POP POP PUSH1 0x20 PUSH2 0x5737 DUP8 DUP3 DUP9 ADD PUSH2 0x4FDD JUMP JUMPDEST SWAP4 POP POP PUSH1 0x40 PUSH2 0x5748 DUP8 DUP3 DUP9 ADD PUSH2 0x4F28 JUMP JUMPDEST SWAP3 POP POP PUSH1 0x60 DUP6 ADD CALLDATALOAD PUSH8 0xFFFFFFFFFFFFFFFF DUP2 GT ISZERO PUSH2 0x5769 JUMPI PUSH2 0x5768 PUSH2 0x4D95 JUMP JUMPDEST JUMPDEST PUSH2 0x5775 DUP8 DUP3 DUP9 ADD PUSH2 0x5274 JUMP JUMPDEST SWAP2 POP POP SWAP3 SWAP6 SWAP2 SWAP5 POP SWAP3 POP JUMP JUMPDEST PUSH1 0x0 PUSH8 0xFFFFFFFFFFFFFFFF DUP3 GT ISZERO PUSH2 0x579C JUMPI PUSH2 0x579B PUSH2 0x5177 JUMP JUMPDEST JUMPDEST PUSH1 0x20 DUP3 MUL SWAP1 POP SWAP2 SWAP1 POP JUMP JUMPDEST PUSH1 0x0 DUP1 REVERT JUMPDEST PUSH1 0x0 PUSH2 0x57BF PUSH2 0x57BA DUP5 PUSH2 0x5781 JUMP JUMPDEST PUSH2 0x51D7 JUMP JUMPDEST SWAP1 POP DUP1 PUSH1 0x20 DUP5 MUL DUP4 ADD DUP6 DUP2 GT ISZERO PUSH2 0x57D9 JUMPI PUSH2 0x57D8 PUSH2 0x57A7 JUMP JUMPDEST JUMPDEST DUP4 JUMPDEST DUP2 DUP2 LT ISZERO PUSH2 0x5802 JUMPI DUP1 PUSH2 0x57EE DUP9 DUP3 PUSH2 0x5440 JUMP JUMPDEST DUP5 MSTORE PUSH1 0x20 DUP5 ADD SWAP4 POP POP PUSH1 0x20 DUP2 ADD SWAP1 POP PUSH2 0x57DB JUMP JUMPDEST POP POP POP SWAP4 SWAP3 POP POP POP JUMP JUMPDEST PUSH1 0x0 DUP3 PUSH1 0x1F DUP4 ADD SLT PUSH2 0x5821 JUMPI PUSH2 0x5820 PUSH2 0x516D JUMP JUMPDEST JUMPDEST PUSH2 0x12B PUSH2 0x582F DUP5 DUP3 DUP6 PUSH2 0x57AC JUMP JUMPDEST SWAP2 POP POP SWAP3 SWAP2 POP POP JUMP JUMPDEST PUSH1 0x0 PUSH2 0x2560 DUP3 DUP5 SUB SLT ISZERO PUSH2 0x584F JUMPI PUSH2 0x584E PUSH2 0x4D90 JUMP JUMPDEST JUMPDEST PUSH1 0x0 PUSH2 0x585D DUP5 DUP3 DUP6 ADD PUSH2 0x580C JUMP JUMPDEST SWAP2 POP POP SWAP3 SWAP2 POP POP JUMP JUMPDEST PUSH1 0x0 DUP1 PUSH1 0x40 DUP4 DUP6 SUB SLT ISZERO PUSH2 0x587D JUMPI PUSH2 0x587C PUSH2 0x4D90 JUMP JUMPDEST JUMPDEST PUSH1 0x0 PUSH2 0x588B DUP6 DUP3 DUP7 ADD PUSH2 0x4FDD JUMP JUMPDEST SWAP3 POP POP PUSH1 0x20 PUSH2 0x589C DUP6 DUP3 DUP7 ADD PUSH2 0x4FDD JUMP JUMPDEST SWAP2 POP POP SWAP3 POP SWAP3 SWAP1 POP JUMP JUMPDEST PUSH1 0x0 PUSH8 0xFFFFFFFFFFFFFFFF DUP3 GT ISZERO PUSH2 0x58C1 JUMPI PUSH2 0x58C0 PUSH2 0x5177 JUMP JUMPDEST JUMPDEST PUSH1 0x20 DUP3 MUL SWAP1 POP PUSH1 0x20 DUP2 ADD SWAP1 POP SWAP2 SWAP1 POP JUMP JUMPDEST PUSH1 0x0 PUSH2 0x58E5 PUSH2 0x58E0 DUP5 PUSH2 0x58A6 JUMP JUMPDEST PUSH2 0x51D7 JUMP JUMPDEST SWAP1 POP DUP1 DUP4 DUP3 MSTORE PUSH1 0x20 DUP3 ADD SWAP1 POP PUSH1 0x20 DUP5 MUL DUP4 ADD DUP6 DUP2 GT ISZERO PUSH2 0x5908 JUMPI PUSH2 0x5907 PUSH2 0x57A7 JUMP JUMPDEST JUMPDEST DUP4 JUMPDEST DUP2 DUP2 LT ISZERO PUSH2 0x5931 JUMPI DUP1 PUSH2 0x591D DUP9 DUP3 PUSH2 0x5057 JUMP JUMPDEST DUP5 MSTORE PUSH1 0x20 DUP5 ADD SWAP4 POP POP PUSH1 0x20 DUP2 ADD SWAP1 POP PUSH2 0x590A JUMP JUMPDEST POP POP POP SWAP4 SWAP3 POP POP POP JUMP JUMPDEST PUSH1 0x0 DUP3 PUSH1 0x1F DUP4 ADD SLT PUSH2 0x5950 JUMPI PUSH2 0x594F PUSH2 0x516D JUMP JUMPDEST JUMPDEST DUP2 CALLDATALOAD PUSH2 0x5960 DUP5 DUP3 PUSH1 0x20 DUP7 ADD PUSH2 0x58D2 JUMP JUMPDEST SWAP2 POP POP SWAP3 SWAP2 POP POP JUMP JUMPDEST PUSH1 0x0 PUSH1 0x20 DUP3 DUP5 SUB SLT ISZERO PUSH2 0x597F JUMPI PUSH2 0x597E PUSH2 0x4D90 JUMP JUMPDEST JUMPDEST PUSH1 0x0 DUP3 ADD CALLDATALOAD PUSH8 0xFFFFFFFFFFFFFFFF DUP2 GT ISZERO PUSH2 0x599D JUMPI PUSH2 0x599C PUSH2 0x4D95 JUMP JUMPDEST JUMPDEST PUSH2 0x59A9 DUP5 DUP3 DUP6 ADD PUSH2 0x593B JUMP JUMPDEST SWAP2 POP POP SWAP3 SWAP2 POP POP JUMP JUMPDEST PUSH1 0x0 PUSH1 0x40 DUP3 ADD SWAP1 POP PUSH2 0x59C7 PUSH1 0x0 DUP4 ADD DUP6 PUSH2 0x50C6 JUMP JUMPDEST PUSH2 0x59D4 PUSH1 0x20 DUP4 ADD DUP5 PUSH2 0x50C6 JUMP JUMPDEST SWAP4 SWAP3 POP POP POP JUMP JUMPDEST PUSH1 0x0 PUSH1 0x20 DUP3 DUP5 SUB SLT ISZERO PUSH2 0x59F1 JUMPI PUSH2 0x59F0 PUSH2 0x4D90 JUMP JUMPDEST JUMPDEST PUSH1 0x0 PUSH2 0x59FF DUP5 DUP3 DUP6 ADD PUSH2 0x5440 JUMP JUMPDEST SWAP2 POP POP SWAP3 SWAP2 POP POP JUMP JUMPDEST PUSH1 0x0 PUSH1 0x40 DUP3 ADD SWAP1 POP PUSH2 0x5A1D PUSH1 0x0 DUP4 ADD DUP6 PUSH2 0x50F0 JUMP JUMPDEST PUSH2 0x5A2A PUSH1 0x20 DUP4 ADD DUP5 PUSH2 0x50F0 JUMP JUMPDEST SWAP4 SWAP3 POP POP POP JUMP JUMPDEST PUSH1 0x0 DUP1 PUSH1 0x40 DUP4 DUP6 SUB SLT ISZERO PUSH2 0x5A48 JUMPI PUSH2 0x5A47 PUSH2 0x4D90 JUMP JUMPDEST JUMPDEST PUSH1 0x0 PUSH2 0x5A56 DUP6 DUP3 DUP7 ADD PUSH2 0x5057 JUMP JUMPDEST SWAP3 POP POP PUSH1 0x20 PUSH2 0x5A67 DUP6 DUP3 DUP7 ADD PUSH2 0x4FDD JUMP JUMPDEST SWAP2 POP POP SWAP3 POP SWAP3 SWAP1 POP JUMP JUMPDEST PUSH32 0x4E487B7100000000000000000000000000000000000000000000000000000000 PUSH1 0x0 MSTORE PUSH1 0x22 PUSH1 0x4 MSTORE PUSH1 0x24 PUSH1 0x0 REVERT JUMPDEST PUSH1 0x0 PUSH1 0x2 DUP3 DIV SWAP1 POP PUSH1 0x1 DUP3 AND DUP1 PUSH2 0x5AB8 JUMPI PUSH1 0x7F DUP3 AND SWAP2 POP JUMPDEST PUSH1 0x20 DUP3 LT DUP2 SUB PUSH2 0x5ACB JUMPI PUSH2 0x5ACA PUSH2 0x5A71 JUMP JUMPDEST JUMPDEST POP SWAP2 SWAP1 POP JUMP JUMPDEST PUSH32 0x4552433732313A20617070726F76616C20746F2063757272656E74206F776E65 PUSH1 0x0 DUP3 ADD MSTORE PUSH32 0x7200000000000000000000000000000000000000000000000000000000000000 PUSH1 0x20 DUP3 ADD MSTORE POP JUMP JUMPDEST PUSH1 0x0 PUSH2 0x5B2D PUSH1 0x21 DUP4 PUSH2 0x4E60 JUMP JUMPDEST SWAP2 POP PUSH2 0x5B38 DUP3 PUSH2 0x5AD1 JUMP JUMPDEST PUSH1 0x40 DUP3 ADD SWAP1 POP SWAP2 SWAP1 POP JUMP JUMPDEST PUSH1 0x0 PUSH1 0x20 DUP3 ADD SWAP1 POP DUP2 DUP2 SUB PUSH1 0x0 DUP4 ADD MSTORE PUSH2 0x5B5C DUP2 PUSH2 0x5B20 JUMP JUMPDEST SWAP1 POP SWAP2 SWAP1 POP JUMP JUMPDEST PUSH32 0x4552433732313A20617070726F76652063616C6C6572206973206E6F7420746F PUSH1 0x0 DUP3 ADD MSTORE PUSH32 0x6B656E206F776E6572206F7220617070726F76656420666F7220616C6C000000 PUSH1 0x20 DUP3 ADD MSTORE POP JUMP JUMPDEST PUSH1 0x0 PUSH2 0x5BBF PUSH1 0x3D DUP4 PUSH2 0x4E60 JUMP JUMPDEST SWAP2 POP PUSH2 0x5BCA DUP3 PUSH2 0x5B63 JUMP JUMPDEST PUSH1 0x40 DUP3 ADD SWAP1 POP SWAP2 SWAP1 POP JUMP JUMPDEST PUSH1 0x0 PUSH1 0x20 DUP3 ADD SWAP1 POP DUP2 DUP2 SUB PUSH1 0x0 DUP4 ADD MSTORE PUSH2 0x5BEE DUP2 PUSH2 0x5BB2 JUMP JUMPDEST SWAP1 POP SWAP2 SWAP1 POP JUMP JUMPDEST PUSH32 0x4E487B7100000000000000000000000000000000000000000000000000000000 PUSH1 0x0 MSTORE PUSH1 0x11 PUSH1 0x4 MSTORE PUSH1 0x24 PUSH1 0x0 REVERT JUMPDEST PUSH1 0x0 PUSH2 0x5C2F DUP3 PUSH2 0x5032 JUMP JUMPDEST SWAP2 POP PUSH2 0x5C3A DUP4 PUSH2 0x5032 JUMP JUMPDEST SWAP3 POP DUP3 DUP3 ADD SWAP1 POP PUSH2 0xFFFF DUP2 GT ISZERO PUSH2 0x5C54 JUMPI PUSH2 0x5C53 PUSH2 0x5BF5 JUMP JUMPDEST JUMPDEST SWAP3 SWAP2 POP POP JUMP JUMPDEST PUSH1 0x0 DUP2 SWAP1 POP SWAP3 SWAP2 POP POP JUMP JUMPDEST POP JUMP JUMPDEST PUSH1 0x0 PUSH2 0x5C75 PUSH1 0x0 DUP4 PUSH2 0x5C5A JUMP JUMPDEST SWAP2 POP PUSH2 0x5C80 DUP3 PUSH2 0x5C65 JUMP JUMPDEST PUSH1 0x0 DUP3 ADD SWAP1 POP SWAP2 SWAP1 POP JUMP JUMPDEST PUSH1 0x0 PUSH2 0x5C96 DUP3 PUSH2 0x5C68 JUMP JUMPDEST SWAP2 POP DUP2 SWAP1 POP SWAP2 SWAP1 POP JUMP JUMPDEST PUSH32 0x4E487B7100000000000000000000000000000000000000000000000000000000 PUSH1 0x0 MSTORE PUSH1 0x32 PUSH1 0x4 MSTORE PUSH1 0x24 PUSH1 0x0 REVERT JUMPDEST PUSH1 0x0 PUSH2 0x5CDA DUP3 PUSH2 0x4F07 JUMP JUMPDEST SWAP2 POP PUSH2 0x5CE5 DUP4 PUSH2 0x4F07 JUMP JUMPDEST SWAP3 POP DUP3 DUP3 ADD SWAP1 POP DUP1 DUP3 GT ISZERO PUSH2 0x5CFD JUMPI PUSH2 0x5CFC PUSH2 0x5BF5 JUMP JUMPDEST JUMPDEST SWAP3 SWAP2 POP POP JUMP JUMPDEST PUSH1 0x0 PUSH2 0x5D0E DUP3 PUSH2 0x4F07 JUMP JUMPDEST SWAP2 POP PUSH32 0xFFFFFFFFFFFFFFFFFFFFFFFFFFFFFFFFFFFFFFFFFFFFFFFFFFFFFFFFFFFFFFFF DUP3 SUB PUSH2 0x5D40 JUMPI PUSH2 0x5D3F PUSH2 0x5BF5 JUMP JUMPDEST JUMPDEST PUSH1 0x1 DUP3 ADD SWAP1 POP SWAP2 SWAP1 POP JUMP JUMPDEST PUSH1 0x0 DUP2 SWAP1 POP SWAP2 SWAP1 POP JUMP JUMPDEST PUSH1 0x0 PUSH2 0x5D70 PUSH2 0x5D6B PUSH2 0x5D66 DUP5 PUSH2 0x5032 JUMP JUMPDEST PUSH2 0x5D4B JUMP JUMPDEST PUSH2 0x4F07 JUMP JUMPDEST SWAP1 POP SWAP2 SWAP1 POP JUMP JUMPDEST PUSH2 0x5D80 DUP2 PUSH2 0x5D55 JUMP JUMPDEST DUP3 MSTORE POP POP JUMP JUMPDEST PUSH1 0x0 PUSH1 0x20 DUP3 ADD SWAP1 POP PUSH2 0x5D9B PUSH1 0x0 DUP4 ADD DUP5 PUSH2 0x5D77 JUMP JUMPDEST SWAP3 SWAP2 POP POP JUMP JUMPDEST PUSH32 0x4552433732313A2063616C6C6572206973206E6F7420746F6B656E206F776E65 PUSH1 0x0 DUP3 ADD MSTORE PUSH32 0x72206F7220617070726F76656400000000000000000000000000000000000000 PUSH1 0x20 DUP3 ADD MSTORE POP JUMP JUMPDEST PUSH1 0x0 PUSH2 0x5DFD PUSH1 0x2D DUP4 PUSH2 0x4E60 JUMP JUMPDEST SWAP2 POP PUSH2 0x5E08 DUP3 PUSH2 0x5DA1 JUMP JUMPDEST PUSH1 0x40 DUP3 ADD SWAP1 POP SWAP2 SWAP1 POP JUMP JUMPDEST PUSH1 0x0 PUSH1 0x20 DUP3 ADD SWAP1 POP DUP2 DUP2 SUB PUSH1 0x0 DUP4 ADD MSTORE PUSH2 0x5E2C DUP2 PUSH2 0x5DF0 JUMP JUMPDEST SWAP1 POP SWAP2 SWAP1 POP JUMP JUMPDEST PUSH32 0x46756E6374696F6E206D7573742062652063616C6C6564207468726F75676820 PUSH1 0x0 DUP3 ADD MSTORE PUSH32 0x64656C656761746563616C6C0000000000000000000000000000000000000000 PUSH1 0x20 DUP3 ADD MSTORE POP JUMP JUMPDEST PUSH1 0x0 PUSH2 0x5E8F PUSH1 0x2C DUP4 PUSH2 0x4E60 JUMP JUMPDEST SWAP2 POP PUSH2 0x5E9A DUP3 PUSH2 0x5E33 JUMP JUMPDEST PUSH1 0x40 DUP3 ADD SWAP1 POP SWAP2 SWAP1 POP JUMP JUMPDEST PUSH1 0x0 PUSH1 0x20 DUP3 ADD SWAP1 POP DUP2 DUP2 SUB PUSH1 0x0 DUP4 ADD MSTORE PUSH2 0x5EBE DUP2 PUSH2 0x5E82 JUMP JUMPDEST SWAP1 POP SWAP2 SWAP1 POP JUMP JUMPDEST PUSH32 0x46756E6374696F6E206D7573742062652063616C6C6564207468726F75676820 PUSH1 0x0 DUP3 ADD MSTORE PUSH32 0x6163746976652070726F78790000000000000000000000000000000000000000 PUSH1 0x20 DUP3 ADD MSTORE POP JUMP JUMPDEST PUSH1 0x0 PUSH2 0x5F21 PUSH1 0x2C DUP4 PUSH2 0x4E60 JUMP JUMPDEST SWAP2 POP PUSH2 0x5F2C DUP3 PUSH2 0x5EC5 JUMP JUMPDEST PUSH1 0x40 DUP3 ADD SWAP1 POP SWAP2 SWAP1 POP JUMP JUMPDEST PUSH1 0x0 PUSH1 0x20 DUP3 ADD SWAP1 POP DUP2 DUP2 SUB PUSH1 0x0 DUP4 ADD MSTORE PUSH2 0x5F50 DUP2 PUSH2 0x5F14 JUMP JUMPDEST SWAP1 POP SWAP2 SWAP1 POP JUMP JUMPDEST PUSH32 0x555550535570677261646561626C653A206D757374206E6F742062652063616C PUSH1 0x0 DUP3 ADD MSTORE PUSH32 0x6C6564207468726F7567682064656C656761746563616C6C0000000000000000 PUSH1 0x20 DUP3 ADD MSTORE POP JUMP JUMPDEST PUSH1 0x0 PUSH2 0x5FB3 PUSH1 0x38 DUP4 PUSH2 0x4E60 JUMP JUMPDEST SWAP2 POP PUSH2 0x5FBE DUP3 PUSH2 0x5F57 JUMP JUMPDEST PUSH1 0x40 DUP3 ADD SWAP1 POP SWAP2 SWAP1 POP JUMP JUMPDEST PUSH1 0x0 PUSH1 0x20 DUP3 ADD SWAP1 POP DUP2 DUP2 SUB PUSH1 0x0 DUP4 ADD MSTORE PUSH2 0x5FE2 DUP2 PUSH2 0x5FA6 JUMP JUMPDEST SWAP1 POP SWAP2 SWAP1 POP JUMP JUMPDEST PUSH1 0x0 DUP2 SWAP1 POP DUP2 PUSH1 0x0 MSTORE PUSH1 0x20 PUSH1 0x0 KECCAK256 SWAP1 POP SWAP2 SWAP1 POP JUMP JUMPDEST PUSH1 0x0 PUSH1 0x20 PUSH1 0x1F DUP4 ADD DIV SWAP1 POP SWAP2 SWAP1 POP JUMP JUMPDEST PUSH1 0x0 DUP3 DUP3 SHL SWAP1 POP SWAP3 SWAP2 POP POP JUMP JUMPDEST PUSH1 0x0 PUSH1 0x8 DUP4 MUL PUSH2 0x604B PUSH32 0xFFFFFFFFFFFFFFFFFFFFFFFFFFFFFFFFFFFFFFFFFFFFFFFFFFFFFFFFFFFFFFFF DUP3 PUSH2 0x600E JUMP JUMPDEST PUSH2 0x6055 DUP7 DUP4 PUSH2 0x600E JUMP JUMPDEST SWAP6 POP DUP1 NOT DUP5 AND SWAP4 POP DUP1 DUP7 AND DUP5 OR SWAP3 POP POP POP SWAP4 SWAP3 POP POP POP JUMP JUMPDEST PUSH1 0x0 PUSH2 0x6088 PUSH2 0x6083 PUSH2 0x607E DUP5 PUSH2 0x4F07 JUMP JUMPDEST PUSH2 0x5D4B JUMP JUMPDEST PUSH2 0x4F07 JUMP JUMPDEST SWAP1 POP SWAP2 SWAP1 POP JUMP JUMPDEST PUSH1 0x0 DUP2 SWAP1 POP SWAP2 SWAP1 POP JUMP JUMPDEST PUSH2 0x60A2 DUP4 PUSH2 0x606D JUMP JUMPDEST PUSH2 0x60B6 PUSH2 0x60AE DUP3 PUSH2 0x608F JUMP JUMPDEST DUP5 DUP5 SLOAD PUSH2 0x601B JUMP JUMPDEST DUP3 SSTORE POP POP POP POP JUMP JUMPDEST PUSH1 0x0 SWAP1 JUMP JUMPDEST PUSH2 0x60CB PUSH2 0x60BE JUMP JUMPDEST PUSH2 0x60D6 DUP2 DUP5 DUP5 PUSH2 0x6099 JUMP JUMPDEST POP POP POP JUMP JUMPDEST JUMPDEST DUP2 DUP2 LT ISZERO PUSH2 0x60FA JUMPI PUSH2 0x60EF PUSH1 0x0 DUP3 PUSH2 0x60C3 JUMP JUMPDEST PUSH1 0x1 DUP2 ADD SWAP1 POP PUSH2 0x60DC JUMP JUMPDEST POP POP JUMP JUMPDEST PUSH1 0x1F DUP3 GT ISZERO PUSH2 0x613F JUMPI PUSH2 0x6110 DUP2 PUSH2 0x5FE9 JUMP JUMPDEST PUSH2 0x6119 DUP5 PUSH2 0x5FFE JUMP JUMPDEST DUP2 ADD PUSH1 0x20 DUP6 LT ISZERO PUSH2 0x6128 JUMPI DUP2 SWAP1 POP JUMPDEST PUSH2 0x613C PUSH2 0x6134 DUP6 PUSH2 0x5FFE JUMP JUMPDEST DUP4 ADD DUP3 PUSH2 0x60DB JUMP JUMPDEST POP POP JUMPDEST POP POP POP JUMP JUMPDEST PUSH1 0x0 DUP3 DUP3 SHR SWAP1 POP SWAP3 SWAP2 POP POP JUMP JUMPDEST PUSH1 0x0 PUSH2 0x6162 PUSH1 0x0 NOT DUP5 PUSH1 0x8 MUL PUSH2 0x6144 JUMP JUMPDEST NOT DUP1 DUP4 AND SWAP2 POP POP SWAP3 SWAP2 POP POP JUMP JUMPDEST PUSH1 0x0 PUSH2 0x617B DUP4 DUP4 PUSH2 0x6151 JUMP JUMPDEST SWAP2 POP DUP3 PUSH1 0x2 MUL DUP3 OR SWAP1 POP SWAP3 SWAP2 POP POP JUMP JUMPDEST PUSH2 0x6194 DUP3 PUSH2 0x4E55 JUMP JUMPDEST PUSH8 0xFFFFFFFFFFFFFFFF DUP2 GT ISZERO PUSH2 0x61AD JUMPI PUSH2 0x61AC PUSH2 0x5177 JUMP JUMPDEST JUMPDEST PUSH2 0x61B7 DUP3 SLOAD PUSH2 0x5AA0 JUMP JUMPDEST PUSH2 0x61C2 DUP3 DUP3 DUP6 PUSH2 0x60FE JUMP JUMPDEST PUSH1 0x0 PUSH1 0x20 SWAP1 POP PUSH1 0x1F DUP4 GT PUSH1 0x1 DUP2 EQ PUSH2 0x61F5 JUMPI PUSH1 0x0 DUP5 ISZERO PUSH2 0x61E3 JUMPI DUP3 DUP8 ADD MLOAD SWAP1 POP JUMPDEST PUSH2 0x61ED DUP6 DUP3 PUSH2 0x616F JUMP JUMPDEST DUP7 SSTORE POP PUSH2 0x6255 JUMP JUMPDEST PUSH1 0x1F NOT DUP5 AND PUSH2 0x6203 DUP7 PUSH2 0x5FE9 JUMP JUMPDEST PUSH1 0x0 JUMPDEST DUP3 DUP2 LT ISZERO PUSH2 0x622B JUMPI DUP5 DUP10 ADD MLOAD DUP3 SSTORE PUSH1 0x1 DUP3 ADD SWAP2 POP PUSH1 0x20 DUP6 ADD SWAP5 POP PUSH1 0x20 DUP2 ADD SWAP1 POP PUSH2 0x6206 JUMP JUMPDEST DUP7 DUP4 LT ISZERO PUSH2 0x6248 JUMPI DUP5 DUP10 ADD MLOAD PUSH2 0x6244 PUSH1 0x1F DUP10 AND DUP3 PUSH2 0x6151 JUMP JUMPDEST DUP4 SSTORE POP JUMPDEST PUSH1 0x1 PUSH1 0x2 DUP9 MUL ADD DUP9 SSTORE POP POP POP JUMPDEST POP POP POP POP POP POP JUMP JUMPDEST PUSH32 0x4552433732313A20696E76616C696420746F6B656E2049440000000000000000 PUSH1 0x0 DUP3 ADD MSTORE POP JUMP JUMPDEST PUSH1 0x0 PUSH2 0x6293 PUSH1 0x18 DUP4 PUSH2 0x4E60 JUMP JUMPDEST SWAP2 POP PUSH2 0x629E DUP3 PUSH2 0x625D JUMP JUMPDEST PUSH1 0x20 DUP3 ADD SWAP1 POP SWAP2 SWAP1 POP JUMP JUMPDEST PUSH1 0x0 PUSH1 0x20 DUP3 ADD SWAP1 POP DUP2 DUP2 SUB PUSH1 0x0 DUP4 ADD MSTORE PUSH2 0x62C2 DUP2 PUSH2 0x6286 JUMP JUMPDEST SWAP1 POP SWAP2 SWAP1 POP JUMP JUMPDEST PUSH32 0x4552433732313A2061646472657373207A65726F206973206E6F742061207661 PUSH1 0x0 DUP3 ADD MSTORE PUSH32 0x6C6964206F776E65720000000000000000000000000000000000000000000000 PUSH1 0x20 DUP3 ADD MSTORE POP JUMP JUMPDEST PUSH1 0x0 PUSH2 0x6325 PUSH1 0x29 DUP4 PUSH2 0x4E60 JUMP JUMPDEST SWAP2 POP PUSH2 0x6330 DUP3 PUSH2 0x62C9 JUMP JUMPDEST PUSH1 0x40 DUP3 ADD SWAP1 POP SWAP2 SWAP1 POP JUMP JUMPDEST PUSH1 0x0 PUSH1 0x20 DUP3 ADD SWAP1 POP DUP2 DUP2 SUB PUSH1 0x0 DUP4 ADD MSTORE PUSH2 0x6354 DUP2 PUSH2 0x6318 JUMP JUMPDEST SWAP1 POP SWAP2 SWAP1 POP JUMP JUMPDEST PUSH32 0x496E697469616C697A61626C653A20636F6E747261637420697320616C726561 PUSH1 0x0 DUP3 ADD MSTORE PUSH32 0x647920696E697469616C697A6564000000000000000000000000000000000000 PUSH1 0x20 DUP3 ADD MSTORE POP JUMP JUMPDEST PUSH1 0x0 PUSH2 0x63B7 PUSH1 0x2E DUP4 PUSH2 0x4E60 JUMP JUMPDEST SWAP2 POP PUSH2 0x63C2 DUP3 PUSH2 0x635B JUMP JUMPDEST PUSH1 0x40 DUP3 ADD SWAP1 POP SWAP2 SWAP1 POP JUMP JUMPDEST PUSH1 0x0 PUSH1 0x20 DUP3 ADD SWAP1 POP DUP2 DUP2 SUB PUSH1 0x0 DUP4 ADD MSTORE PUSH2 0x63E6 DUP2 PUSH2 0x63AA JUMP JUMPDEST SWAP1 POP SWAP2 SWAP1 POP JUMP JUMPDEST PUSH1 0x0 PUSH2 0x63F8 DUP3 PUSH2 0x5032 JUMP JUMPDEST SWAP2 POP PUSH2 0xFFFF DUP3 SUB PUSH2 0x640C JUMPI PUSH2 0x640B PUSH2 0x5BF5 JUMP JUMPDEST JUMPDEST PUSH1 0x1 DUP3 ADD SWAP1 POP SWAP2 SWAP1 POP JUMP JUMPDEST PUSH1 0x0 DUP2 SWAP1 POP SWAP2 SWAP1 POP JUMP JUMPDEST PUSH1 0x0 PUSH2 0x643C PUSH2 0x6437 PUSH2 0x6432 DUP5 PUSH2 0x6417 JUMP JUMPDEST PUSH2 0x5D4B JUMP JUMPDEST PUSH2 0x541C JUMP JUMPDEST SWAP1 POP SWAP2 SWAP1 POP JUMP JUMPDEST PUSH2 0x644C DUP2 PUSH2 0x6421 JUMP JUMPDEST DUP3 MSTORE POP POP JUMP JUMPDEST PUSH1 0x0 PUSH1 0x20 DUP3 ADD SWAP1 POP PUSH2 0x6467 PUSH1 0x0 DUP4 ADD DUP5 PUSH2 0x6443 JUMP JUMPDEST SWAP3 SWAP2 POP POP JUMP JUMPDEST PUSH1 0x0 DUP2 MLOAD SWAP1 POP PUSH2 0x647C DUP2 PUSH2 0x4FC6 JUMP JUMPDEST SWAP3 SWAP2 POP POP JUMP JUMPDEST PUSH1 0x0 PUSH1 0x20 DUP3 DUP5 SUB SLT ISZERO PUSH2 0x6498 JUMPI PUSH2 0x6497 PUSH2 0x4D90 JUMP JUMPDEST JUMPDEST PUSH1 0x0 PUSH2 0x64A6 DUP5 DUP3 DUP6 ADD PUSH2 0x646D JUMP JUMPDEST SWAP2 POP POP SWAP3 SWAP2 POP POP JUMP JUMPDEST PUSH1 0x0 DUP2 MLOAD SWAP1 POP PUSH2 0x64BE DUP2 PUSH2 0x4F11 JUMP JUMPDEST SWAP3 SWAP2 POP POP JUMP JUMPDEST PUSH1 0x0 PUSH1 0x20 DUP3 DUP5 SUB SLT ISZERO PUSH2 0x64DA JUMPI PUSH2 0x64D9 PUSH2 0x4D90 JUMP JUMPDEST JUMPDEST PUSH1 0x0 PUSH2 0x64E8 DUP5 DUP3 DUP6 ADD PUSH2 0x64AF JUMP JUMPDEST SWAP2 POP POP SWAP3 SWAP2 POP POP JUMP JUMPDEST PUSH1 0x0 PUSH1 0x40 DUP3 ADD SWAP1 POP PUSH2 0x6506 PUSH1 0x0 DUP4 ADD DUP6 PUSH2 0x4F9C JUMP JUMPDEST PUSH2 0x6513 PUSH1 0x20 DUP4 ADD DUP5 PUSH2 0x50C6 JUMP JUMPDEST SWAP4 SWAP3 POP POP POP JUMP JUMPDEST PUSH1 0x0 DUP2 MLOAD SWAP1 POP PUSH2 0x6529 DUP2 PUSH2 0x5668 JUMP JUMPDEST SWAP3 SWAP2 POP POP JUMP JUMPDEST PUSH1 0x0 PUSH1 0x20 DUP3 DUP5 SUB SLT ISZERO PUSH2 0x6545 JUMPI PUSH2 0x6544 PUSH2 0x4D90 JUMP JUMPDEST JUMPDEST PUSH1 0x0 PUSH2 0x6553 DUP5 DUP3 DUP6 ADD PUSH2 0x651A JUMP JUMPDEST SWAP2 POP POP SWAP3 SWAP2 POP POP JUMP JUMPDEST PUSH1 0x0 PUSH1 0x60 DUP3 ADD SWAP1 POP PUSH2 0x6571 PUSH1 0x0 DUP4 ADD DUP7 PUSH2 0x4F9C JUMP JUMPDEST PUSH2 0x657E PUSH1 0x20 DUP4 ADD DUP6 PUSH2 0x4F9C JUMP JUMPDEST PUSH2 0x658B PUSH1 0x40 DUP4 ADD DUP5 PUSH2 0x50C6 JUMP JUMPDEST SWAP5 SWAP4 POP POP POP POP JUMP JUMPDEST PUSH1 0x0 PUSH2 0x659E DUP3 PUSH2 0x4F07 JUMP JUMPDEST SWAP2 POP PUSH2 0x65A9 DUP4 PUSH2 0x4F07 JUMP JUMPDEST SWAP3 POP DUP3 DUP3 MUL PUSH2 0x65B7 DUP2 PUSH2 0x4F07 JUMP JUMPDEST SWAP2 POP DUP3 DUP3 DIV DUP5 EQ DUP4 ISZERO OR PUSH2 0x65CE JUMPI PUSH2 0x65CD PUSH2 0x5BF5 JUMP JUMPDEST JUMPDEST POP SWAP3 SWAP2 POP POP JUMP JUMPDEST PUSH1 0x0 PUSH2 0x65E0 DUP3 PUSH2 0x4F07 JUMP JUMPDEST SWAP2 POP PUSH2 0x65EB DUP4 PUSH2 0x4F07 JUMP JUMPDEST SWAP3 POP DUP3 DUP3 SUB SWAP1 POP DUP2 DUP2 GT ISZERO PUSH2 0x6603 JUMPI PUSH2 0x6602 PUSH2 0x5BF5 JUMP JUMPDEST JUMPDEST SWAP3 SWAP2 POP POP JUMP JUMPDEST PUSH32 0x4552433732314D657461646174613A2055524920717565727920666F72206E6F PUSH1 0x0 DUP3 ADD MSTORE PUSH32 0x6E6578697374656E7420746F6B656E0000000000000000000000000000000000 PUSH1 0x20 DUP3 ADD MSTORE POP JUMP JUMPDEST PUSH1 0x0 PUSH2 0x6665 PUSH1 0x2F DUP4 PUSH2 0x4E60 JUMP JUMPDEST SWAP2 POP PUSH2 0x6670 DUP3 PUSH2 0x6609 JUMP JUMPDEST PUSH1 0x40 DUP3 ADD SWAP1 POP SWAP2 SWAP1 POP JUMP JUMPDEST PUSH1 0x0 PUSH1 0x20 DUP3 ADD SWAP1 POP DUP2 DUP2 SUB PUSH1 0x0 DUP4 ADD MSTORE PUSH2 0x6694 DUP2 PUSH2 0x6658 JUMP JUMPDEST SWAP1 POP SWAP2 SWAP1 POP JUMP JUMPDEST PUSH1 0x0 DUP2 SWAP1 POP SWAP3 SWAP2 POP POP JUMP JUMPDEST PUSH1 0x0 PUSH2 0x66B1 DUP3 PUSH2 0x4E55 JUMP JUMPDEST PUSH2 0x66BB DUP2 DUP6 PUSH2 0x669B JUMP JUMPDEST SWAP4 POP PUSH2 0x66CB DUP2 DUP6 PUSH1 0x20 DUP7 ADD PUSH2 0x4E71 JUMP JUMPDEST DUP1 DUP5 ADD SWAP2 POP POP SWAP3 SWAP2 POP POP JUMP JUMPDEST PUSH1 0x0 DUP2 SLOAD PUSH2 0x66E4 DUP2 PUSH2 0x5AA0 JUMP JUMPDEST PUSH2 0x66EE DUP2 DUP7 PUSH2 0x669B JUMP JUMPDEST SWAP5 POP PUSH1 0x1 DUP3 AND PUSH1 0x0 DUP2 EQ PUSH2 0x6709 JUMPI PUSH1 0x1 DUP2 EQ PUSH2 0x671E JUMPI PUSH2 0x6751 JUMP JUMPDEST PUSH1 0xFF NOT DUP4 AND DUP7 MSTORE DUP2 ISZERO ISZERO DUP3 MUL DUP7 ADD SWAP4 POP PUSH2 0x6751 JUMP JUMPDEST PUSH2 0x6727 DUP6 PUSH2 0x5FE9 JUMP JUMPDEST PUSH1 0x0 JUMPDEST DUP4 DUP2 LT ISZERO PUSH2 0x6749 JUMPI DUP2 SLOAD DUP2 DUP10 ADD MSTORE PUSH1 0x1 DUP3 ADD SWAP2 POP PUSH1 0x20 DUP2 ADD SWAP1 POP PUSH2 0x672A JUMP JUMPDEST DUP4 DUP9 ADD SWAP6 POP POP POP JUMPDEST POP POP POP SWAP3 SWAP2 POP POP JUMP JUMPDEST PUSH1 0x0 PUSH2 0x6766 DUP3 DUP7 PUSH2 0x66A6 JUMP JUMPDEST SWAP2 POP PUSH2 0x6772 DUP3 DUP6 PUSH2 0x66A6 JUMP JUMPDEST SWAP2 POP PUSH2 0x677E DUP3 DUP5 PUSH2 0x66D7 JUMP JUMPDEST SWAP2 POP DUP2 SWAP1 POP SWAP5 SWAP4 POP POP POP POP JUMP JUMPDEST PUSH1 0x0 PUSH2 0x6796 DUP3 PUSH2 0x5032 JUMP JUMPDEST SWAP2 POP PUSH2 0x67A1 DUP4 PUSH2 0x5032 JUMP JUMPDEST SWAP3 POP DUP3 DUP3 SUB SWAP1 POP PUSH2 0xFFFF DUP2 GT ISZERO PUSH2 0x67BB JUMPI PUSH2 0x67BA PUSH2 0x5BF5 JUMP JUMPDEST JUMPDEST SWAP3 SWAP2 POP POP JUMP JUMPDEST PUSH32 0x4F776E61626C653A206E6577206F776E657220697320746865207A65726F2061 PUSH1 0x0 DUP3 ADD MSTORE PUSH32 0x6464726573730000000000000000000000000000000000000000000000000000 PUSH1 0x20 DUP3 ADD MSTORE POP JUMP JUMPDEST PUSH1 0x0 PUSH2 0x681D PUSH1 0x26 DUP4 PUSH2 0x4E60 JUMP JUMPDEST SWAP2 POP PUSH2 0x6828 DUP3 PUSH2 0x67C1 JUMP JUMPDEST PUSH1 0x40 DUP3 ADD SWAP1 POP SWAP2 SWAP1 POP JUMP JUMPDEST PUSH1 0x0 PUSH1 0x20 DUP3 ADD SWAP1 POP DUP2 DUP2 SUB PUSH1 0x0 DUP4 ADD MSTORE PUSH2 0x684C DUP2 PUSH2 0x6810 JUMP JUMPDEST SWAP1 POP SWAP2 SWAP1 POP JUMP JUMPDEST PUSH1 0x0 DUP2 SLOAD SWAP1 POP SWAP2 SWAP1 POP JUMP JUMPDEST PUSH1 0x0 DUP2 SWAP1 POP DUP2 PUSH1 0x0 MSTORE PUSH1 0x20 PUSH1 0x0 KECCAK256 SWAP1 POP SWAP2 SWAP1 POP JUMP JUMPDEST PUSH1 0x0 DUP2 PUSH1 0x0 SHR SWAP1 POP SWAP2 SWAP1 POP JUMP JUMPDEST PUSH1 0x0 PUSH2 0xFFFF DUP3 AND SWAP1 POP SWAP2 SWAP1 POP JUMP JUMPDEST PUSH1 0x0 PUSH2 0x68A1 PUSH2 0x689C DUP4 PUSH2 0x6873 JUMP JUMPDEST PUSH2 0x6880 JUMP JUMPDEST SWAP1 POP SWAP2 SWAP1 POP JUMP JUMPDEST PUSH1 0x0 DUP2 PUSH1 0x10 SHR SWAP1 POP SWAP2 SWAP1 POP JUMP JUMPDEST PUSH1 0x0 PUSH2 0x68C8 PUSH2 0x68C3 DUP4 PUSH2 0x68A8 JUMP JUMPDEST PUSH2 0x6880 JUMP JUMPDEST SWAP1 POP SWAP2 SWAP1 POP JUMP JUMPDEST PUSH1 0x0 DUP2 PUSH1 0x20 SHR SWAP1 POP SWAP2 SWAP1 POP JUMP JUMPDEST PUSH1 0x0 PUSH2 0x68EF PUSH2 0x68EA DUP4 PUSH2 0x68CF JUMP JUMPDEST PUSH2 0x6880 JUMP JUMPDEST SWAP1 POP SWAP2 SWAP1 POP JUMP JUMPDEST PUSH1 0x0 DUP2 PUSH1 0x30 SHR SWAP1 POP SWAP2 SWAP1 POP JUMP JUMPDEST PUSH1 0x0 PUSH2 0x6916 PUSH2 0x6911 DUP4 PUSH2 0x68F6 JUMP JUMPDEST PUSH2 0x6880 JUMP JUMPDEST SWAP1 POP SWAP2 SWAP1 POP JUMP JUMPDEST PUSH1 0x0 DUP2 PUSH1 0x40 SHR SWAP1 POP SWAP2 SWAP1 POP JUMP JUMPDEST PUSH1 0x0 PUSH2 0x693D PUSH2 0x6938 DUP4 PUSH2 0x691D JUMP JUMPDEST PUSH2 0x6880 JUMP JUMPDEST SWAP1 POP SWAP2 SWAP1 POP JUMP JUMPDEST PUSH1 0x0 DUP2 PUSH1 0x50 SHR SWAP1 POP SWAP2 SWAP1 POP JUMP JUMPDEST PUSH1 0x0 PUSH2 0x6964 PUSH2 0x695F DUP4 PUSH2 0x6944 JUMP JUMPDEST PUSH2 0x6880 JUMP JUMPDEST SWAP1 POP SWAP2 SWAP1 POP JUMP JUMPDEST PUSH1 0x0 DUP2 PUSH1 0x60 SHR SWAP1 POP SWAP2 SWAP1 POP JUMP JUMPDEST PUSH1 0x0 PUSH2 0x698B PUSH2 0x6986 DUP4 PUSH2 0x696B JUMP JUMPDEST PUSH2 0x6880 JUMP JUMPDEST SWAP1 POP SWAP2 SWAP1 POP JUMP JUMPDEST PUSH1 0x0 DUP2 PUSH1 0x70 SHR SWAP1 POP SWAP2 SWAP1 POP JUMP JUMPDEST PUSH1 0x0 PUSH2 0x69B2 PUSH2 0x69AD DUP4 PUSH2 0x6992 JUMP JUMPDEST PUSH2 0x6880 JUMP JUMPDEST SWAP1 POP SWAP2 SWAP1 POP JUMP JUMPDEST PUSH1 0x0 DUP2 PUSH1 0x80 SHR SWAP1 POP SWAP2 SWAP1 POP JUMP JUMPDEST PUSH1 0x0 PUSH2 0x69D9 PUSH2 0x69D4 DUP4 PUSH2 0x69B9 JUMP JUMPDEST PUSH2 0x6880 JUMP JUMPDEST SWAP1 POP SWAP2 SWAP1 POP JUMP JUMPDEST PUSH1 0x0 DUP2 PUSH1 0x90 SHR SWAP1 POP SWAP2 SWAP1 POP JUMP JUMPDEST PUSH1 0x0 PUSH2 0x6A00 PUSH2 0x69FB DUP4 PUSH2 0x69E0 JUMP JUMPDEST PUSH2 0x6880 JUMP JUMPDEST SWAP1 POP SWAP2 SWAP1 POP JUMP JUMPDEST PUSH1 0x0 DUP2 PUSH1 0xA0 SHR SWAP1 POP SWAP2 SWAP1 POP JUMP JUMPDEST PUSH1 0x0 PUSH2 0x6A27 PUSH2 0x6A22 DUP4 PUSH2 0x6A07 JUMP JUMPDEST PUSH2 0x6880 JUMP JUMPDEST SWAP1 POP SWAP2 SWAP1 POP JUMP JUMPDEST PUSH1 0x0 DUP2 PUSH1 0xB0 SHR SWAP1 POP SWAP2 SWAP1 POP JUMP JUMPDEST PUSH1 0x0 PUSH2 0x6A4E PUSH2 0x6A49 DUP4 PUSH2 0x6A2E JUMP JUMPDEST PUSH2 0x6880 JUMP JUMPDEST SWAP1 POP SWAP2 SWAP1 POP JUMP JUMPDEST PUSH1 0x0 DUP2 PUSH1 0xC0 SHR SWAP1 POP SWAP2 SWAP1 POP JUMP JUMPDEST PUSH1 0x0 PUSH2 0x6A75 PUSH2 0x6A70 DUP4 PUSH2 0x6A55 JUMP JUMPDEST PUSH2 0x6880 JUMP JUMPDEST SWAP1 POP SWAP2 SWAP1 POP JUMP JUMPDEST PUSH1 0x0 DUP2 PUSH1 0xD0 SHR SWAP1 POP SWAP2 SWAP1 POP JUMP JUMPDEST PUSH1 0x0 PUSH2 0x6A9C PUSH2 0x6A97 DUP4 PUSH2 0x6A7C JUMP JUMPDEST PUSH2 0x6880 JUMP JUMPDEST SWAP1 POP SWAP2 SWAP1 POP JUMP JUMPDEST PUSH1 0x0 DUP2 PUSH1 0xE0 SHR SWAP1 POP SWAP2 SWAP1 POP JUMP JUMPDEST PUSH1 0x0 PUSH2 0x6AC3 PUSH2 0x6ABE DUP4 PUSH2 0x6AA3 JUMP JUMPDEST PUSH2 0x6880 JUMP JUMPDEST SWAP1 POP SWAP2 SWAP1 POP JUMP JUMPDEST PUSH1 0x0 DUP2 PUSH1 0xF0 SHR SWAP1 POP SWAP2 SWAP1 POP JUMP JUMPDEST PUSH1 0x0 PUSH2 0x6AEA PUSH2 0x6AE5 DUP4 PUSH2 0x6ACA JUMP JUMPDEST PUSH2 0x6880 JUMP JUMPDEST SWAP1 POP SWAP2 SWAP1 POP JUMP JUMPDEST PUSH1 0x0 PUSH2 0x6AFC DUP3 PUSH2 0x6853 JUMP JUMPDEST PUSH2 0x6B06 DUP2 DUP6 PUSH2 0x5593 JUMP JUMPDEST SWAP4 POP DUP4 PUSH2 0x6B12 DUP5 PUSH2 0x685E JUMP JUMPDEST PUSH1 0x0 PUSH1 0x1 ISZERO PUSH2 0x6CBF JUMPI JUMPDEST DUP4 PUSH1 0x1 PUSH1 0x10 SUB DUP3 ADD LT ISZERO PUSH2 0x6CBE JUMPI DUP2 SLOAD PUSH2 0x6B3E DUP9 PUSH2 0x6B39 DUP4 PUSH2 0x688E JUMP JUMPDEST PUSH2 0x55B4 JUMP JUMPDEST PUSH1 0x20 DUP9 ADD SWAP8 POP PUSH2 0x6B56 DUP9 PUSH2 0x6B51 DUP4 PUSH2 0x68B5 JUMP JUMPDEST PUSH2 0x55B4 JUMP JUMPDEST PUSH1 0x20 DUP9 ADD SWAP8 POP PUSH2 0x6B6E DUP9 PUSH2 0x6B69 DUP4 PUSH2 0x68DC JUMP JUMPDEST PUSH2 0x55B4 JUMP JUMPDEST PUSH1 0x20 DUP9 ADD SWAP8 POP PUSH2 0x6B86 DUP9 PUSH2 0x6B81 DUP4 PUSH2 0x6903 JUMP JUMPDEST PUSH2 0x55B4 JUMP JUMPDEST PUSH1 0x20 DUP9 ADD SWAP8 POP PUSH2 0x6B9E DUP9 PUSH2 0x6B99 DUP4 PUSH2 0x692A JUMP JUMPDEST PUSH2 0x55B4 JUMP JUMPDEST PUSH1 0x20 DUP9 ADD SWAP8 POP PUSH2 0x6BB6 DUP9 PUSH2 0x6BB1 DUP4 PUSH2 0x6951 JUMP JUMPDEST PUSH2 0x55B4 JUMP JUMPDEST PUSH1 0x20 DUP9 ADD SWAP8 POP PUSH2 0x6BCE DUP9 PUSH2 0x6BC9 DUP4 PUSH2 0x6978 JUMP JUMPDEST PUSH2 0x55B4 JUMP JUMPDEST PUSH1 0x20 DUP9 ADD SWAP8 POP PUSH2 0x6BE6 DUP9 PUSH2 0x6BE1 DUP4 PUSH2 0x699F JUMP JUMPDEST PUSH2 0x55B4 JUMP JUMPDEST PUSH1 0x20 DUP9 ADD SWAP8 POP PUSH2 0x6BFE DUP9 PUSH2 0x6BF9 DUP4 PUSH2 0x69C6 JUMP JUMPDEST PUSH2 0x55B4 JUMP JUMPDEST PUSH1 0x20 DUP9 ADD SWAP8 POP PUSH2 0x6C16 DUP9 PUSH2 0x6C11 DUP4 PUSH2 0x69ED JUMP JUMPDEST PUSH2 0x55B4 JUMP JUMPDEST PUSH1 0x20 DUP9 ADD SWAP8 POP PUSH2 0x6C2E DUP9 PUSH2 0x6C29 DUP4 PUSH2 0x6A14 JUMP JUMPDEST PUSH2 0x55B4 JUMP JUMPDEST PUSH1 0x20 DUP9 ADD SWAP8 POP PUSH2 0x6C46 DUP9 PUSH2 0x6C41 DUP4 PUSH2 0x6A3B JUMP JUMPDEST PUSH2 0x55B4 JUMP JUMPDEST PUSH1 0x20 DUP9 ADD SWAP8 POP PUSH2 0x6C5E DUP9 PUSH2 0x6C59 DUP4 PUSH2 0x6A62 JUMP JUMPDEST PUSH2 0x55B4 JUMP JUMPDEST PUSH1 0x20 DUP9 ADD SWAP8 POP PUSH2 0x6C76 DUP9 PUSH2 0x6C71 DUP4 PUSH2 0x6A89 JUMP JUMPDEST PUSH2 0x55B4 JUMP JUMPDEST PUSH1 0x20 DUP9 ADD SWAP8 POP PUSH2 0x6C8E DUP9 PUSH2 0x6C89 DUP4 PUSH2 0x6AB0 JUMP JUMPDEST PUSH2 0x55B4 JUMP JUMPDEST PUSH1 0x20 DUP9 ADD SWAP8 POP PUSH2 0x6CA6 DUP9 PUSH2 0x6CA1 DUP4 PUSH2 0x6AD7 JUMP JUMPDEST PUSH2 0x55B4 JUMP JUMPDEST PUSH1 0x20 DUP9 ADD SWAP8 POP PUSH1 0x1 DUP4 ADD SWAP3 POP POP PUSH1 0x10 DUP2 ADD SWAP1 POP PUSH2 0x6B1C JUMP JUMPDEST JUMPDEST PUSH1 0x1 ISZERO PUSH2 0x6F3A JUMPI DUP2 SLOAD DUP5 DUP3 LT ISZERO PUSH2 0x6CEF JUMPI PUSH2 0x6CE2 DUP9 PUSH2 0x6CDD DUP4 PUSH2 0x688E JUMP JUMPDEST PUSH2 0x55B4 JUMP JUMPDEST PUSH1 0x20 DUP9 ADD SWAP8 POP PUSH1 0x1 DUP3 ADD SWAP2 POP JUMPDEST DUP5 DUP3 LT ISZERO PUSH2 0x6D16 JUMPI PUSH2 0x6D09 DUP9 PUSH2 0x6D04 DUP4 PUSH2 0x68B5 JUMP JUMPDEST PUSH2 0x55B4 JUMP JUMPDEST PUSH1 0x20 DUP9 ADD SWAP8 POP PUSH1 0x1 DUP3 ADD SWAP2 POP JUMPDEST DUP5 DUP3 LT ISZERO PUSH2 0x6D3D JUMPI PUSH2 0x6D30 DUP9 PUSH2 0x6D2B DUP4 PUSH2 0x68DC JUMP JUMPDEST PUSH2 0x55B4 JUMP JUMPDEST PUSH1 0x20 DUP9 ADD SWAP8 POP PUSH1 0x1 DUP3 ADD SWAP2 POP JUMPDEST DUP5 DUP3 LT ISZERO PUSH2 0x6D64 JUMPI PUSH2 0x6D57 DUP9 PUSH2 0x6D52 DUP4 PUSH2 0x6903 JUMP JUMPDEST PUSH2 0x55B4 JUMP JUMPDEST PUSH1 0x20 DUP9 ADD SWAP8 POP PUSH1 0x1 DUP3 ADD SWAP2 POP JUMPDEST DUP5 DUP3 LT ISZERO PUSH2 0x6D8B JUMPI PUSH2 0x6D7E DUP9 PUSH2 0x6D79 DUP4 PUSH2 0x692A JUMP JUMPDEST PUSH2 0x55B4 JUMP JUMPDEST PUSH1 0x20 DUP9 ADD SWAP8 POP PUSH1 0x1 DUP3 ADD SWAP2 POP JUMPDEST DUP5 DUP3 LT ISZERO PUSH2 0x6DB2 JUMPI PUSH2 0x6DA5 DUP9 PUSH2 0x6DA0 DUP4 PUSH2 0x6951 JUMP JUMPDEST PUSH2 0x55B4 JUMP JUMPDEST PUSH1 0x20 DUP9 ADD SWAP8 POP PUSH1 0x1 DUP3 ADD SWAP2 POP JUMPDEST DUP5 DUP3 LT ISZERO PUSH2 0x6DD9 JUMPI PUSH2 0x6DCC DUP9 PUSH2 0x6DC7 DUP4 PUSH2 0x6978 JUMP JUMPDEST PUSH2 0x55B4 JUMP JUMPDEST PUSH1 0x20 DUP9 ADD SWAP8 POP PUSH1 0x1 DUP3 ADD SWAP2 POP JUMPDEST DUP5 DUP3 LT ISZERO PUSH2 0x6E00 JUMPI PUSH2 0x6DF3 DUP9 PUSH2 0x6DEE DUP4 PUSH2 0x699F JUMP JUMPDEST PUSH2 0x55B4 JUMP JUMPDEST PUSH1 0x20 DUP9 ADD SWAP8 POP PUSH1 0x1 DUP3 ADD SWAP2 POP JUMPDEST DUP5 DUP3 LT ISZERO PUSH2 0x6E27 JUMPI PUSH2 0x6E1A DUP9 PUSH2 0x6E15 DUP4 PUSH2 0x69C6 JUMP JUMPDEST PUSH2 0x55B4 JUMP JUMPDEST PUSH1 0x20 DUP9 ADD SWAP8 POP PUSH1 0x1 DUP3 ADD SWAP2 POP JUMPDEST DUP5 DUP3 LT ISZERO PUSH2 0x6E4E JUMPI PUSH2 0x6E41 DUP9 PUSH2 0x6E3C DUP4 PUSH2 0x69ED JUMP JUMPDEST PUSH2 0x55B4 JUMP JUMPDEST PUSH1 0x20 DUP9 ADD SWAP8 POP PUSH1 0x1 DUP3 ADD SWAP2 POP JUMPDEST DUP5 DUP3 LT ISZERO PUSH2 0x6E75 JUMPI PUSH2 0x6E68 DUP9 PUSH2 0x6E63 DUP4 PUSH2 0x6A14 JUMP JUMPDEST PUSH2 0x55B4 JUMP JUMPDEST PUSH1 0x20 DUP9 ADD SWAP8 POP PUSH1 0x1 DUP3 ADD SWAP2 POP JUMPDEST DUP5 DUP3 LT ISZERO PUSH2 0x6E9C JUMPI PUSH2 0x6E8F DUP9 PUSH2 0x6E8A DUP4 PUSH2 0x6A3B JUMP JUMPDEST PUSH2 0x55B4 JUMP JUMPDEST PUSH1 0x20 DUP9 ADD SWAP8 POP PUSH1 0x1 DUP3 ADD SWAP2 POP JUMPDEST DUP5 DUP3 LT ISZERO PUSH2 0x6EC3 JUMPI PUSH2 0x6EB6 DUP9 PUSH2 0x6EB1 DUP4 PUSH2 0x6A62 JUMP JUMPDEST PUSH2 0x55B4 JUMP JUMPDEST PUSH1 0x20 DUP9 ADD SWAP8 POP PUSH1 0x1 DUP3 ADD SWAP2 POP JUMPDEST DUP5 DUP3 LT ISZERO PUSH2 0x6EEA JUMPI PUSH2 0x6EDD DUP9 PUSH2 0x6ED8 DUP4 PUSH2 0x6A89 JUMP JUMPDEST PUSH2 0x55B4 JUMP JUMPDEST PUSH1 0x20 DUP9 ADD SWAP8 POP PUSH1 0x1 DUP3 ADD SWAP2 POP JUMPDEST DUP5 DUP3 LT ISZERO PUSH2 0x6F11 JUMPI PUSH2 0x6F04 DUP9 PUSH2 0x6EFF DUP4 PUSH2 0x6AB0 JUMP JUMPDEST PUSH2 0x55B4 JUMP JUMPDEST PUSH1 0x20 DUP9 ADD SWAP8 POP PUSH1 0x1 DUP3 ADD SWAP2 POP JUMPDEST DUP5 DUP3 LT ISZERO PUSH2 0x6F38 JUMPI PUSH2 0x6F2B DUP9 PUSH2 0x6F26 DUP4 PUSH2 0x6AD7 JUMP JUMPDEST PUSH2 0x55B4 JUMP JUMPDEST PUSH1 0x20 DUP9 ADD SWAP8 POP PUSH1 0x1 DUP3 ADD SWAP2 POP JUMPDEST POP JUMPDEST DUP7 SWAP5 POP POP POP POP POP SWAP3 SWAP2 POP POP JUMP JUMPDEST PUSH1 0x0 PUSH1 0x20 DUP3 ADD SWAP1 POP DUP2 DUP2 SUB PUSH1 0x0 DUP4 ADD MSTORE PUSH2 0x6F61 DUP2 DUP5 PUSH2 0x6AF1 JUMP JUMPDEST SWAP1 POP SWAP3 SWAP2 POP POP JUMP JUMPDEST PUSH32 0x5265656E7472616E637947756172643A207265656E7472616E742063616C6C00 PUSH1 0x0 DUP3 ADD MSTORE POP JUMP JUMPDEST PUSH1 0x0 PUSH2 0x6F9F PUSH1 0x1F DUP4 PUSH2 0x4E60 JUMP JUMPDEST SWAP2 POP PUSH2 0x6FAA DUP3 PUSH2 0x6F69 JUMP JUMPDEST PUSH1 0x20 DUP3 ADD SWAP1 POP SWAP2 SWAP1 POP JUMP JUMPDEST PUSH1 0x0 PUSH1 0x20 DUP3 ADD SWAP1 POP DUP2 DUP2 SUB PUSH1 0x0 DUP4 ADD MSTORE PUSH2 0x6FCE DUP2 PUSH2 0x6F92 JUMP JUMPDEST SWAP1 POP SWAP2 SWAP1 POP JUMP JUMPDEST PUSH32 0x4E487B7100000000000000000000000000000000000000000000000000000000 PUSH1 0x0 MSTORE PUSH1 0x12 PUSH1 0x4 MSTORE PUSH1 0x24 PUSH1 0x0 REVERT JUMPDEST PUSH1 0x0 PUSH2 0x700F DUP3 PUSH2 0x4F07 JUMP JUMPDEST SWAP2 POP PUSH2 0x701A DUP4 PUSH2 0x4F07 JUMP JUMPDEST SWAP3 POP DUP3 PUSH2 0x702A JUMPI PUSH2 0x7029 PUSH2 0x6FD5 JUMP JUMPDEST JUMPDEST DUP3 DUP3 MOD SWAP1 POP SWAP3 SWAP2 POP POP JUMP JUMPDEST PUSH32 0x4E487B7100000000000000000000000000000000000000000000000000000000 PUSH1 0x0 MSTORE PUSH1 0x31 PUSH1 0x4 MSTORE PUSH1 0x24 PUSH1 0x0 REVERT JUMPDEST PUSH32 0x4552433732313A207472616E736665722066726F6D20696E636F727265637420 PUSH1 0x0 DUP3 ADD MSTORE PUSH32 0x6F776E6572000000000000000000000000000000000000000000000000000000 PUSH1 0x20 DUP3 ADD MSTORE POP JUMP JUMPDEST PUSH1 0x0 PUSH2 0x70C0 PUSH1 0x25 DUP4 PUSH2 0x4E60 JUMP JUMPDEST SWAP2 POP PUSH2 0x70CB DUP3 PUSH2 0x7064 JUMP JUMPDEST PUSH1 0x40 DUP3 ADD SWAP1 POP SWAP2 SWAP1 POP JUMP JUMPDEST PUSH1 0x0 PUSH1 0x20 DUP3 ADD SWAP1 POP DUP2 DUP2 SUB PUSH1 0x0 DUP4 ADD MSTORE PUSH2 0x70EF DUP2 PUSH2 0x70B3 JUMP JUMPDEST SWAP1 POP SWAP2 SWAP1 POP JUMP JUMPDEST PUSH32 0x4552433732313A207472616E7366657220746F20746865207A65726F20616464 PUSH1 0x0 DUP3 ADD MSTORE PUSH32 0x7265737300000000000000000000000000000000000000000000000000000000 PUSH1 0x20 DUP3 ADD MSTORE POP JUMP JUMPDEST PUSH1 0x0 PUSH2 0x7152 PUSH1 0x24 DUP4 PUSH2 0x4E60 JUMP JUMPDEST SWAP2 POP PUSH2 0x715D DUP3 PUSH2 0x70F6 JUMP JUMPDEST PUSH1 0x40 DUP3 ADD SWAP1 POP SWAP2 SWAP1 POP JUMP JUMPDEST PUSH1 0x0 PUSH1 0x20 DUP3 ADD SWAP1 POP DUP2 DUP2 SUB PUSH1 0x0 DUP4 ADD MSTORE PUSH2 0x7181 DUP2 PUSH2 0x7145 JUMP JUMPDEST SWAP1 POP SWAP2 SWAP1 POP JUMP JUMPDEST PUSH2 0x7191 DUP2 PUSH2 0x52FE JUMP JUMPDEST DUP2 EQ PUSH2 0x719C JUMPI PUSH1 0x0 DUP1 REVERT JUMPDEST POP JUMP JUMPDEST PUSH1 0x0 DUP2 MLOAD SWAP1 POP PUSH2 0x71AE DUP2 PUSH2 0x7188 JUMP JUMPDEST SWAP3 SWAP2 POP POP JUMP JUMPDEST PUSH1 0x0 PUSH1 0x20 DUP3 DUP5 SUB SLT ISZERO PUSH2 0x71CA JUMPI PUSH2 0x71C9 PUSH2 0x4D90 JUMP JUMPDEST JUMPDEST PUSH1 0x0 PUSH2 0x71D8 DUP5 DUP3 DUP6 ADD PUSH2 0x719F JUMP JUMPDEST SWAP2 POP POP SWAP3 SWAP2 POP POP JUMP JUMPDEST PUSH32 0x45524331393637557067726164653A206E657720696D706C656D656E74617469 PUSH1 0x0 DUP3 ADD MSTORE PUSH32 0x6F6E206973206E6F742055555053000000000000000000000000000000000000 PUSH1 0x20 DUP3 ADD MSTORE POP JUMP JUMPDEST PUSH1 0x0 PUSH2 0x723D PUSH1 0x2E DUP4 PUSH2 0x4E60 JUMP JUMPDEST SWAP2 POP PUSH2 0x7248 DUP3 PUSH2 0x71E1 JUMP JUMPDEST PUSH1 0x40 DUP3 ADD SWAP1 POP SWAP2 SWAP1 POP JUMP JUMPDEST PUSH1 0x0 PUSH1 0x20 DUP3 ADD SWAP1 POP DUP2 DUP2 SUB PUSH1 0x0 DUP4 ADD MSTORE PUSH2 0x726C DUP2 PUSH2 0x7230 JUMP JUMPDEST SWAP1 POP SWAP2 SWAP1 POP JUMP JUMPDEST PUSH32 0x45524331393637557067726164653A20756E737570706F727465642070726F78 PUSH1 0x0 DUP3 ADD MSTORE PUSH32 0x6961626C65555549440000000000000000000000000000000000000000000000 PUSH1 0x20 DUP3 ADD MSTORE POP JUMP JUMPDEST PUSH1 0x0 PUSH2 0x72CF PUSH1 0x29 DUP4 PUSH2 0x4E60 JUMP JUMPDEST SWAP2 POP PUSH2 0x72DA DUP3 PUSH2 0x7273 JUMP JUMPDEST PUSH1 0x40 DUP3 ADD SWAP1 POP SWAP2 SWAP1 POP JUMP JUMPDEST PUSH1 0x0 PUSH1 0x20 DUP3 ADD SWAP1 POP DUP2 DUP2 SUB PUSH1 0x0 DUP4 ADD MSTORE PUSH2 0x72FE DUP2 PUSH2 0x72C2 JUMP JUMPDEST SWAP1 POP SWAP2 SWAP1 POP JUMP JUMPDEST PUSH32 0x4F776E61626C653A2063616C6C6572206973206E6F7420746865206F776E6572 PUSH1 0x0 DUP3 ADD MSTORE POP JUMP JUMPDEST PUSH1 0x0 PUSH2 0x733B PUSH1 0x20 DUP4 PUSH2 0x4E60 JUMP JUMPDEST SWAP2 POP PUSH2 0x7346 DUP3 PUSH2 0x7305 JUMP JUMPDEST PUSH1 0x20 DUP3 ADD SWAP1 POP SWAP2 SWAP1 POP JUMP JUMPDEST PUSH1 0x0 PUSH1 0x20 DUP3 ADD SWAP1 POP DUP2 DUP2 SUB PUSH1 0x0 DUP4 ADD MSTORE PUSH2 0x736A DUP2 PUSH2 0x732E JUMP JUMPDEST SWAP1 POP SWAP2 SWAP1 POP JUMP JUMPDEST PUSH32 0x496E697469616C697A61626C653A20636F6E7472616374206973206E6F742069 PUSH1 0x0 DUP3 ADD MSTORE PUSH32 0x6E697469616C697A696E67000000000000000000000000000000000000000000 PUSH1 0x20 DUP3 ADD MSTORE POP JUMP JUMPDEST PUSH1 0x0 PUSH2 0x73CD PUSH1 0x2B DUP4 PUSH2 0x4E60 JUMP JUMPDEST SWAP2 POP PUSH2 0x73D8 DUP3 PUSH2 0x7371 JUMP JUMPDEST PUSH1 0x40 DUP3 ADD SWAP1 POP SWAP2 SWAP1 POP JUMP JUMPDEST PUSH1 0x0 PUSH1 0x20 DUP3 ADD SWAP1 POP DUP2 DUP2 SUB PUSH1 0x0 DUP4 ADD MSTORE PUSH2 0x73FC DUP2 PUSH2 0x73C0 JUMP JUMPDEST SWAP1 POP SWAP2 SWAP1 POP JUMP JUMPDEST PUSH32 0x4552433732313A20617070726F766520746F2063616C6C657200000000000000 PUSH1 0x0 DUP3 ADD MSTORE POP JUMP JUMPDEST PUSH1 0x0 PUSH2 0x7439 PUSH1 0x19 DUP4 PUSH2 0x4E60 JUMP JUMPDEST SWAP2 POP PUSH2 0x7444 DUP3 PUSH2 0x7403 JUMP JUMPDEST PUSH1 0x20 DUP3 ADD SWAP1 POP SWAP2 SWAP1 POP JUMP JUMPDEST PUSH1 0x0 PUSH1 0x20 DUP3 ADD SWAP1 POP DUP2 DUP2 SUB PUSH1 0x0 DUP4 ADD MSTORE PUSH2 0x7468 DUP2 PUSH2 0x742C JUMP JUMPDEST SWAP1 POP SWAP2 SWAP1 POP JUMP JUMPDEST PUSH32 0x4552433732313A207472616E7366657220746F206E6F6E204552433732315265 PUSH1 0x0 DUP3 ADD MSTORE PUSH32 0x63656976657220696D706C656D656E7465720000000000000000000000000000 PUSH1 0x20 DUP3 ADD MSTORE POP JUMP JUMPDEST PUSH1 0x0 PUSH2 0x74CB PUSH1 0x32 DUP4 PUSH2 0x4E60 JUMP JUMPDEST SWAP2 POP PUSH2 0x74D6 DUP3 PUSH2 0x746F JUMP JUMPDEST PUSH1 0x40 DUP3 ADD SWAP1 POP SWAP2 SWAP1 POP JUMP JUMPDEST PUSH1 0x0 PUSH1 0x20 DUP3 ADD SWAP1 POP DUP2 DUP2 SUB PUSH1 0x0 DUP4 ADD MSTORE PUSH2 0x74FA DUP2 PUSH2 0x74BE JUMP JUMPDEST SWAP1 POP SWAP2 SWAP1 POP JUMP JUMPDEST PUSH1 0x0 PUSH2 0x750C DUP3 PUSH2 0x4F6A JUMP JUMPDEST SWAP1 POP SWAP2 SWAP1 POP JUMP JUMPDEST PUSH1 0x0 DUP2 PUSH1 0x60 SHL SWAP1 POP SWAP2 SWAP1 POP JUMP JUMPDEST PUSH1 0x0 PUSH2 0x752B DUP3 PUSH2 0x7513 JUMP JUMPDEST SWAP1 POP SWAP2 SWAP1 POP JUMP JUMPDEST PUSH1 0x0 PUSH2 0x753D DUP3 PUSH2 0x7520 JUMP JUMPDEST SWAP1 POP SWAP2 SWAP1 POP JUMP JUMPDEST PUSH2 0x7555 PUSH2 0x7550 DUP3 PUSH2 0x7501 JUMP JUMPDEST PUSH2 0x7532 JUMP JUMPDEST DUP3 MSTORE POP POP JUMP JUMPDEST PUSH1 0x0 DUP2 SWAP1 POP SWAP2 SWAP1 POP JUMP JUMPDEST PUSH2 0x7576 PUSH2 0x7571 DUP3 PUSH2 0x4F07 JUMP JUMPDEST PUSH2 0x755B JUMP JUMPDEST DUP3 MSTORE POP POP JUMP JUMPDEST PUSH1 0x0 PUSH2 0x7588 DUP3 DUP9 PUSH2 0x7544 JUMP JUMPDEST PUSH1 0x14 DUP3 ADD SWAP2 POP PUSH2 0x7598 DUP3 DUP8 PUSH2 0x7565 JUMP JUMPDEST PUSH1 0x20 DUP3 ADD SWAP2 POP PUSH2 0x75A8 DUP3 DUP7 PUSH2 0x7565 JUMP JUMPDEST PUSH1 0x20 DUP3 ADD SWAP2 POP PUSH2 0x75B8 DUP3 DUP6 PUSH2 0x7565 JUMP JUMPDEST PUSH1 0x20 DUP3 ADD SWAP2 POP PUSH2 0x75C8 DUP3 DUP5 PUSH2 0x7565 JUMP JUMPDEST PUSH1 0x20 DUP3 ADD SWAP2 POP DUP2 SWAP1 POP SWAP7 SWAP6 POP POP POP POP POP POP JUMP JUMPDEST PUSH1 0x0 PUSH2 0x75E7 DUP3 DUP5 PUSH2 0x7565 JUMP JUMPDEST PUSH1 0x20 DUP3 ADD SWAP2 POP DUP2 SWAP1 POP SWAP3 SWAP2 POP POP JUMP JUMPDEST PUSH32 0x455243313936373A206E657720696D706C656D656E746174696F6E206973206E PUSH1 0x0 DUP3 ADD MSTORE PUSH32 0x6F74206120636F6E747261637400000000000000000000000000000000000000 PUSH1 0x20 DUP3 ADD MSTORE POP JUMP JUMPDEST PUSH1 0x0 PUSH2 0x7652 PUSH1 0x2D DUP4 PUSH2 0x4E60 JUMP JUMPDEST SWAP2 POP PUSH2 0x765D DUP3 PUSH2 0x75F6 JUMP JUMPDEST PUSH1 0x40 DUP3 ADD SWAP1 POP SWAP2 SWAP1 POP JUMP JUMPDEST PUSH1 0x0 PUSH1 0x20 DUP3 ADD SWAP1 POP DUP2 DUP2 SUB PUSH1 0x0 DUP4 ADD MSTORE PUSH2 0x7681 DUP2 PUSH2 0x7645 JUMP JUMPDEST SWAP1 POP SWAP2 SWAP1 POP JUMP JUMPDEST PUSH1 0x0 DUP2 MLOAD SWAP1 POP SWAP2 SWAP1 POP JUMP JUMPDEST PUSH1 0x0 DUP3 DUP3 MSTORE PUSH1 0x20 DUP3 ADD SWAP1 POP SWAP3 SWAP2 POP POP JUMP JUMPDEST PUSH1 0x0 PUSH2 0x76AF DUP3 PUSH2 0x7688 JUMP JUMPDEST PUSH2 0x76B9 DUP2 DUP6 PUSH2 0x7693 JUMP JUMPDEST SWAP4 POP PUSH2 0x76C9 DUP2 DUP6 PUSH1 0x20 DUP7 ADD PUSH2 0x4E71 JUMP JUMPDEST PUSH2 0x76D2 DUP2 PUSH2 0x4E9B JUMP JUMPDEST DUP5 ADD SWAP2 POP POP SWAP3 SWAP2 POP POP JUMP JUMPDEST PUSH1 0x0 PUSH1 0x80 DUP3 ADD SWAP1 POP PUSH2 0x76F2 PUSH1 0x0 DUP4 ADD DUP8 PUSH2 0x4F9C JUMP JUMPDEST PUSH2 0x76FF PUSH1 0x20 DUP4 ADD DUP7 PUSH2 0x4F9C JUMP JUMPDEST PUSH2 0x770C PUSH1 0x40 DUP4 ADD DUP6 PUSH2 0x50C6 JUMP JUMPDEST DUP2 DUP2 SUB PUSH1 0x60 DUP4 ADD MSTORE PUSH2 0x771E DUP2 DUP5 PUSH2 0x76A4 JUMP JUMPDEST SWAP1 POP SWAP6 SWAP5 POP POP POP POP POP JUMP JUMPDEST PUSH1 0x0 DUP2 MLOAD SWAP1 POP PUSH2 0x7738 DUP2 PUSH2 0x4DC6 JUMP JUMPDEST SWAP3 SWAP2 POP POP JUMP JUMPDEST PUSH1 0x0 PUSH1 0x20 DUP3 DUP5 SUB SLT ISZERO PUSH2 0x7754 JUMPI PUSH2 0x7753 PUSH2 0x4D90 JUMP JUMPDEST JUMPDEST PUSH1 0x0 PUSH2 0x7762 DUP5 DUP3 DUP6 ADD PUSH2 0x7729 JUMP JUMPDEST SWAP2 POP POP SWAP3 SWAP2 POP POP JUMP JUMPDEST PUSH32 0x4552433732313A206D696E7420746F20746865207A65726F2061646472657373 PUSH1 0x0 DUP3 ADD MSTORE POP JUMP JUMPDEST PUSH1 0x0 PUSH2 0x77A1 PUSH1 0x20 DUP4 PUSH2 0x4E60 JUMP JUMPDEST SWAP2 POP PUSH2 0x77AC DUP3 PUSH2 0x776B JUMP JUMPDEST PUSH1 0x20 DUP3 ADD SWAP1 POP SWAP2 SWAP1 POP JUMP JUMPDEST PUSH1 0x0 PUSH1 0x20 DUP3 ADD SWAP1 POP DUP2 DUP2 SUB PUSH1 0x0 DUP4 ADD MSTORE PUSH2 0x77D0 DUP2 PUSH2 0x7794 JUMP JUMPDEST SWAP1 POP SWAP2 SWAP1 POP JUMP JUMPDEST PUSH32 0x4552433732313A20746F6B656E20616C7265616479206D696E74656400000000 PUSH1 0x0 DUP3 ADD MSTORE POP JUMP JUMPDEST PUSH1 0x0 PUSH2 0x780D PUSH1 0x1C DUP4 PUSH2 0x4E60 JUMP JUMPDEST SWAP2 POP PUSH2 0x7818 DUP3 PUSH2 0x77D7 JUMP JUMPDEST PUSH1 0x20 DUP3 ADD SWAP1 POP SWAP2 SWAP1 POP JUMP JUMPDEST PUSH1 0x0 PUSH1 0x20 DUP3 ADD SWAP1 POP DUP2 DUP2 SUB PUSH1 0x0 DUP4 ADD MSTORE PUSH2 0x783C DUP2 PUSH2 0x7800 JUMP JUMPDEST SWAP1 POP SWAP2 SWAP1 POP JUMP JUMPDEST PUSH1 0x0 PUSH2 0x784E DUP3 PUSH2 0x7688 JUMP JUMPDEST PUSH2 0x7858 DUP2 DUP6 PUSH2 0x5C5A JUMP JUMPDEST SWAP4 POP PUSH2 0x7868 DUP2 DUP6 PUSH1 0x20 DUP7 ADD PUSH2 0x4E71 JUMP JUMPDEST DUP1 DUP5 ADD SWAP2 POP POP SWAP3 SWAP2 POP POP JUMP JUMPDEST PUSH1 0x0 PUSH2 0x7880 DUP3 DUP5 PUSH2 0x7843 JUMP JUMPDEST SWAP2 POP DUP2 SWAP1 POP SWAP3 SWAP2 POP POP JUMP JUMPDEST PUSH32 0x416464726573733A2063616C6C20746F206E6F6E2D636F6E7472616374000000 PUSH1 0x0 DUP3 ADD MSTORE POP JUMP JUMPDEST PUSH1 0x0 PUSH2 0x78C1 PUSH1 0x1D DUP4 PUSH2 0x4E60 JUMP JUMPDEST SWAP2 POP PUSH2 0x78CC DUP3 PUSH2 0x788B JUMP JUMPDEST PUSH1 0x20 DUP3 ADD SWAP1 POP SWAP2 SWAP1 POP JUMP JUMPDEST PUSH1 0x0 PUSH1 0x20 DUP3 ADD SWAP1 POP DUP2 DUP2 SUB PUSH1 0x0 DUP4 ADD MSTORE PUSH2 0x78F0 DUP2 PUSH2 0x78B4 JUMP JUMPDEST SWAP1 POP SWAP2 SWAP1 POP JUMP INVALID COINBASE PUSH5 0x6472657373 GASPRICE KECCAK256 PUSH13 0x6F772D6C6576656C2064656C65 PUSH8 0x6174652063616C6C KECCAK256 PUSH7 0x61696C65646874 PUSH21 0x70733A2F2F697066732E696F2F697066732F516D53 PUSH26 0x314C5441386666534C563650354A42513667504438687270326D BASEFEE PUSH27 0x46704170634346424A375956726A2FA264697066735822122031AD 0xC1 PUSH22 0xC0B27A482EC3C41F4FAB16B850ECCEB40B8C9483E653 PUSH11 0x90B2C0F90964736F6C6343 STOP ADDMOD SLT STOP CALLER "},"methodIdentifiers":{"adminMint(uint16,address)":"fe232518","approve(address,uint256)":"095ea7b3","balanceOf(address)":"70a08231","baseExtension()":"c6682862","baseURI()":"6c0360eb","calCost(uint256)":"bbced2c6","claimNfts()":"bcc08b2c","getActualSupply()":"876f303b","getApproved(uint256)":"081812fc","getCashWallet()":"3e140474","getCost()":"bd3e19d4","getIdsArray(uint16)":"f3891f1b","getIdsArrayLength()":"7e1ac0a4","getMaxCost()":"e4e6bea7","getMaxMintAmount()":"d6e7b8e4","getNftBoostData(uint8)":"f426502e","getNftTypesArray(uint256)":"b674cf8f","getTimeStart()":"8b915c25","getTotalBoosts(uint16[])":"ee5b9263","getTotalIdsArray()":"8c4da52a","getUserTokensLength(address)":"17911cd0","initialize()":"8129fc1c","isApprovedForAll(address,address)":"e985e9c5","name()":"06fdde03","owner()":"8da5cb5b","ownerOf(uint256)":"6352211e","payNfts(uint16)":"10e3163d","proxiableUUID()":"52d1902d","recoverNonFungibleToken(address,uint256)":"bb0fd147","recoverToken(address)":"9be65a60","renounceOwnership()":"715018a6","safeTransferFrom(address,address,uint256)":"42842e0e","safeTransferFrom(address,address,uint256,bytes)":"b88d4fde","setApprovalForAll(address,bool)":"a22cb465","setBaseExtension(string)":"da3ef23f","setBaseURI(string)":"55f804b3","setCashWallet(address)":"a42c7d28","setCost(uint256)":"44a0d68a","setMaxCost(uint256)":"e647e01a","setNftBoostData(uint8,uint16,uint16)":"7c6b3f03","setNftTypesArray(uint8[299])":"c026759e","setTimeStart(uint256)":"e685d48a","setmaxMintAmount(uint16)":"90ede4cb","supportsInterface(bytes4)":"01ffc9a7","symbol()":"95d89b41","tokenURI(uint256)":"c87b56dd","tokensOfOwner(address)":"8462151c","totalSupply()":"18160ddd","transferFrom(address,address,uint256)":"23b872dd","transferOwnership(address)":"f2fde38b","upgradeTo(address)":"3659cfe6","upgradeToAndCall(address,bytes)":"4f1ef286","withdraw()":"3ccfd60b"}},"storageLayout":{"storage":[{"astId":503,"contract":"contracts/TrndFactories.sol:DivitrendFactories","label":"_initialized","offset":0,"slot":"0","type":"t_uint8"},{"astId":506,"contract":"contracts/TrndFactories.sol:DivitrendFactories","label":"_initializing","offset":1,"slot":"0","type":"t_bool"},{"astId":485,"contract":"contracts/TrndFactories.sol:DivitrendFactories","label":"__gap","offset":0,"slot":"1","type":"t_array(t_uint256)50_storage"},{"astId":800,"contract":"contracts/TrndFactories.sol:DivitrendFactories","label":"__gap","offset":0,"slot":"51","type":"t_array(t_uint256)50_storage"},{"astId":2369,"contract":"contracts/TrndFactories.sol:DivitrendFactories","label":"__gap","offset":0,"slot":"101","type":"t_array(t_uint256)50_storage"},{"astId":10,"contract":"contracts/TrndFactories.sol:DivitrendFactories","label":"_owner","offset":0,"slot":"151","type":"t_address"},{"astId":130,"contract":"contracts/TrndFactories.sol:DivitrendFactories","label":"__gap","offset":0,"slot":"152","type":"t_array(t_uint256)49_storage"},{"astId":2752,"contract":"contracts/TrndFactories.sol:DivitrendFactories","label":"__gap","offset":0,"slot":"201","type":"t_array(t_uint256)50_storage"},{"astId":914,"contract":"contracts/TrndFactories.sol:DivitrendFactories","label":"_name","offset":0,"slot":"251","type":"t_string_storage"},{"astId":916,"contract":"contracts/TrndFactories.sol:DivitrendFactories","label":"_symbol","offset":0,"slot":"252","type":"t_string_storage"},{"astId":920,"contract":"contracts/TrndFactories.sol:DivitrendFactories","label":"_owners","offset":0,"slot":"253","type":"t_mapping(t_uint256,t_address)"},{"astId":924,"contract":"contracts/TrndFactories.sol:DivitrendFactories","label":"_balances","offset":0,"slot":"254","type":"t_mapping(t_address,t_uint256)"},{"astId":928,"contract":"contracts/TrndFactories.sol:DivitrendFactories","label":"_tokenApprovals","offset":0,"slot":"255","type":"t_mapping(t_uint256,t_address)"},{"astId":934,"contract":"contracts/TrndFactories.sol:DivitrendFactories","label":"_operatorApprovals","offset":0,"slot":"256","type":"t_mapping(t_address,t_mapping(t_address,t_bool))"},{"astId":1836,"contract":"contracts/TrndFactories.sol:DivitrendFactories","label":"__gap","offset":0,"slot":"257","type":"t_array(t_uint256)44_storage"},{"astId":815,"contract":"contracts/TrndFactories.sol:DivitrendFactories","label":"_status","offset":0,"slot":"301","type":"t_uint256"},{"astId":884,"contract":"contracts/TrndFactories.sol:DivitrendFactories","label":"__gap","offset":0,"slot":"302","type":"t_array(t_uint256)49_storage"},{"astId":5207,"contract":"contracts/TrndFactories.sol:DivitrendFactories","label":"baseURI","offset":0,"slot":"351","type":"t_string_storage"},{"astId":5210,"contract":"contracts/TrndFactories.sol:DivitrendFactories","label":"baseExtension","offset":0,"slot":"352","type":"t_string_storage"},{"astId":5212,"contract":"contracts/TrndFactories.sol:DivitrendFactories","label":"cost","offset":0,"slot":"353","type":"t_uint256"},{"astId":5214,"contract":"contracts/TrndFactories.sol:DivitrendFactories","label":"actualSupply","offset":0,"slot":"354","type":"t_uint16"},{"astId":5216,"contract":"contracts/TrndFactories.sol:DivitrendFactories","label":"maxSupply","offset":2,"slot":"354","type":"t_uint16"},{"astId":5218,"contract":"contracts/TrndFactories.sol:DivitrendFactories","label":"maxMintAmount","offset":4,"slot":"354","type":"t_uint16"},{"astId":5220,"contract":"contracts/TrndFactories.sol:DivitrendFactories","label":"maxCost","offset":0,"slot":"355","type":"t_uint256"},{"astId":5222,"contract":"contracts/TrndFactories.sol:DivitrendFactories","label":"cashWallet","offset":0,"slot":"356","type":"t_address"},{"astId":5224,"contract":"contracts/TrndFactories.sol:DivitrendFactories","label":"timeStart","offset":0,"slot":"357","type":"t_uint256"},{"astId":5226,"contract":"contracts/TrndFactories.sol:DivitrendFactories","label":"nonce","offset":0,"slot":"358","type":"t_uint256"},{"astId":5229,"contract":"contracts/TrndFactories.sol:DivitrendFactories","label":"idsArray","offset":0,"slot":"359","type":"t_array(t_uint16)dyn_storage"},{"astId":5233,"contract":"contracts/TrndFactories.sol:DivitrendFactories","label":"nftTypesArray","offset":0,"slot":"360","type":"t_array(t_uint8)299_storage"},{"astId":5238,"contract":"contracts/TrndFactories.sol:DivitrendFactories","label":"userTokens","offset":0,"slot":"370","type":"t_mapping(t_address,t_array(t_uint16)dyn_storage)"},{"astId":5243,"contract":"contracts/TrndFactories.sol:DivitrendFactories","label":"nftBoostData","offset":0,"slot":"371","type":"t_mapping(t_uint8,t_struct(NftBoost)5202_storage)"}],"types":{"t_address":{"encoding":"inplace","label":"address","numberOfBytes":"20"},"t_array(t_uint16)dyn_storage":{"base":"t_uint16","encoding":"dynamic_array","label":"uint16[]","numberOfBytes":"32"},"t_array(t_uint256)44_storage":{"base":"t_uint256","encoding":"inplace","label":"uint256[44]","numberOfBytes":"1408"},"t_array(t_uint256)49_storage":{"base":"t_uint256","encoding":"inplace","label":"uint256[49]","numberOfBytes":"1568"},"t_array(t_uint256)50_storage":{"base":"t_uint256","encoding":"inplace","label":"uint256[50]","numberOfBytes":"1600"},"t_array(t_uint8)299_storage":{"base":"t_uint8","encoding":"inplace","label":"uint8[299]","numberOfBytes":"320"},"t_bool":{"encoding":"inplace","label":"bool","numberOfBytes":"1"},"t_mapping(t_address,t_array(t_uint16)dyn_storage)":{"encoding":"mapping","key":"t_address","label":"mapping(address => uint16[])","numberOfBytes":"32","value":"t_array(t_uint16)dyn_storage"},"t_mapping(t_address,t_bool)":{"encoding":"mapping","key":"t_address","label":"mapping(address => bool)","numberOfBytes":"32","value":"t_bool"},"t_mapping(t_address,t_mapping(t_address,t_bool))":{"encoding":"mapping","key":"t_address","label":"mapping(address => mapping(address => bool))","numberOfBytes":"32","value":"t_mapping(t_address,t_bool)"},"t_mapping(t_address,t_uint256)":{"encoding":"mapping","key":"t_address","label":"mapping(address => uint256)","numberOfBytes":"32","value":"t_uint256"},"t_mapping(t_uint256,t_address)":{"encoding":"mapping","key":"t_uint256","label":"mapping(uint256 => address)","numberOfBytes":"32","value":"t_address"},"t_mapping(t_uint8,t_struct(NftBoost)5202_storage)":{"encoding":"mapping","key":"t_uint8","label":"mapping(uint8 => struct DivitrendFactories.NftBoost)","numberOfBytes":"32","value":"t_struct(NftBoost)5202_storage"},"t_string_storage":{"encoding":"bytes","label":"string","numberOfBytes":"32"},"t_struct(NftBoost)5202_storage":{"encoding":"inplace","label":"struct DivitrendFactories.NftBoost","members":[{"astId":5199,"contract":"contracts/TrndFactories.sol:DivitrendFactories","label":"apyBoost","offset":0,"slot":"0","type":"t_uint16"},{"astId":5201,"contract":"contracts/TrndFactories.sol:DivitrendFactories","label":"depositPerc","offset":2,"slot":"0","type":"t_uint16"}],"numberOfBytes":"32"},"t_uint16":{"encoding":"inplace","label":"uint16","numberOfBytes":"2"},"t_uint256":{"encoding":"inplace","label":"uint256","numberOfBytes":"32"},"t_uint8":{"encoding":"inplace","label":"uint8","numberOfBytes":"1"}}}}}}