{"contracts/DiviTrend.sol":{"Divitrend":{"abi":[{"inputs":[],"stateMutability":"nonpayable","type":"constructor"},{"inputs":[{"internalType":"address","name":"addr","type":"address"}],"name":"Trnd__AlreadyBlacklisted","type":"error"},{"inputs":[{"internalType":"address","name":"addr","type":"address"}],"name":"Trnd__AlreadyExcluded","type":"error"},{"inputs":[{"internalType":"address","name":"addr","type":"address"}],"name":"Trnd__BlacklistedAddress","type":"error"},{"inputs":[],"name":"Trnd__ContractNotPaused","type":"error"},{"inputs":[],"name":"Trnd__ContractPaused","type":"error"},{"inputs":[],"name":"Trnd__InvalidAmount","type":"error"},{"inputs":[{"internalType":"address","name":"addr","type":"address"}],"name":"Trnd__NotBlacklisted","type":"error"},{"inputs":[{"internalType":"address","name":"addr","type":"address"}],"name":"Trnd__NotExcluded","type":"error"},{"inputs":[{"internalType":"uint256","name":"tax","type":"uint256"}],"name":"Trnd__TaxExceedsLimit","type":"error"},{"inputs":[{"internalType":"address","name":"addr","type":"address"}],"name":"Trnd__TransferFailed","type":"error"},{"inputs":[],"name":"Trnd__ZeroAddress","type":"error"},{"inputs":[],"name":"Trnd__ZeroCollectedTaxes","type":"error"},{"anonymous":false,"inputs":[{"indexed":true,"internalType":"address","name":"owner","type":"address"},{"indexed":true,"internalType":"address","name":"spender","type":"address"},{"indexed":false,"internalType":"uint256","name":"value","type":"uint256"}],"name":"Approval","type":"event"},{"anonymous":false,"inputs":[{"indexed":true,"internalType":"address","name":"previousOwner","type":"address"},{"indexed":true,"internalType":"address","name":"newOwner","type":"address"}],"name":"OwnershipTransferred","type":"event"},{"anonymous":false,"inputs":[{"indexed":false,"internalType":"address","name":"account","type":"address"}],"name":"Paused","type":"event"},{"anonymous":false,"inputs":[{"indexed":false,"internalType":"uint256","name":"id","type":"uint256"}],"name":"Snapshot","type":"event"},{"anonymous":false,"inputs":[{"indexed":true,"internalType":"address","name":"account","type":"address"},{"indexed":false,"internalType":"uint256","name":"amount","type":"uint256"},{"indexed":false,"internalType":"bool","name":"isBuy","type":"bool"},{"indexed":false,"internalType":"uint256","name":"reserve0","type":"uint256"},{"indexed":false,"internalType":"uint256","name":"reserve1","type":"uint256"}],"name":"Swapped","type":"event"},{"anonymous":false,"inputs":[{"indexed":true,"internalType":"address","name":"account","type":"address"},{"indexed":false,"internalType":"uint256","name":"amount","type":"uint256"}],"name":"TaxDeposited","type":"event"},{"anonymous":false,"inputs":[{"indexed":false,"internalType":"uint256","name":"amount","type":"uint256"},{"indexed":false,"internalType":"uint256","name":"tax","type":"uint256"}],"name":"TaxHandled","type":"event"},{"anonymous":false,"inputs":[{"indexed":true,"internalType":"address","name":"from","type":"address"},{"indexed":true,"internalType":"address","name":"to","type":"address"},{"indexed":false,"internalType":"uint256","name":"value","type":"uint256"}],"name":"Transfer","type":"event"},{"anonymous":false,"inputs":[{"indexed":false,"internalType":"address","name":"account","type":"address"}],"name":"Unpaused","type":"event"},{"inputs":[{"internalType":"address","name":"owner","type":"address"},{"internalType":"address","name":"spender","type":"address"}],"name":"allowance","outputs":[{"internalType":"uint256","name":"","type":"uint256"}],"stateMutability":"view","type":"function"},{"inputs":[{"internalType":"address","name":"spender","type":"address"},{"internalType":"uint256","name":"amount","type":"uint256"}],"name":"approve","outputs":[{"internalType":"bool","name":"","type":"bool"}],"stateMutability":"nonpayable","type":"function"},{"inputs":[{"internalType":"address","name":"account","type":"address"}],"name":"balanceOf","outputs":[{"internalType":"uint256","name":"","type":"uint256"}],"stateMutability":"view","type":"function"},{"inputs":[{"internalType":"address","name":"account","type":"address"},{"internalType":"uint256","name":"snapshotId","type":"uint256"}],"name":"balanceOfAt","outputs":[{"internalType":"uint256","name":"","type":"uint256"}],"stateMutability":"view","type":"function"},{"inputs":[{"internalType":"uint256","name":"amount","type":"uint256"}],"name":"burn","outputs":[],"stateMutability":"nonpayable","type":"function"},{"inputs":[{"internalType":"address","name":"account","type":"address"},{"internalType":"uint256","name":"amount","type":"uint256"}],"name":"burnFrom","outputs":[],"stateMutability":"nonpayable","type":"function"},{"inputs":[],"name":"createSnapshot","outputs":[],"stateMutability":"nonpayable","type":"function"},{"inputs":[],"name":"currentSnapshotId","outputs":[{"internalType":"uint256","name":"","type":"uint256"}],"stateMutability":"view","type":"function"},{"inputs":[],"name":"decimals","outputs":[{"internalType":"uint8","name":"","type":"uint8"}],"stateMutability":"view","type":"function"},{"inputs":[{"internalType":"address","name":"spender","type":"address"},{"internalType":"uint256","name":"subtractedValue","type":"uint256"}],"name":"decreaseAllowance","outputs":[{"internalType":"bool","name":"","type":"bool"}],"stateMutability":"nonpayable","type":"function"},{"inputs":[{"internalType":"uint256","name":"taxAmount","type":"uint256"}],"name":"depositTax","outputs":[],"stateMutability":"payable","type":"function"},{"inputs":[{"internalType":"address","name":"account","type":"address"}],"name":"disableBlacklist","outputs":[],"stateMutability":"nonpayable","type":"function"},{"inputs":[{"internalType":"address","name":"account","type":"address"}],"name":"enableBlacklist","outputs":[],"stateMutability":"nonpayable","type":"function"},{"inputs":[{"internalType":"address","name":"account","type":"address"}],"name":"exclude","outputs":[],"stateMutability":"nonpayable","type":"function"},{"inputs":[],"name":"getAutoSwap","outputs":[{"internalType":"bool","name":"","type":"bool"}],"stateMutability":"view","type":"function"},{"inputs":[],"name":"getBuyTax","outputs":[{"internalType":"uint256","name":"","type":"uint256"}],"stateMutability":"view","type":"function"},{"inputs":[],"name":"getCollectedTaxes","outputs":[{"internalType":"uint256","name":"","type":"uint256"}],"stateMutability":"view","type":"function"},{"inputs":[],"name":"getDivitrendRewardsAddress","outputs":[{"internalType":"address","name":"","type":"address"}],"stateMutability":"view","type":"function"},{"inputs":[],"name":"getExchangeAddress","outputs":[{"internalType":"address","name":"","type":"address"}],"stateMutability":"view","type":"function"},{"inputs":[],"name":"getFounderPerc","outputs":[{"internalType":"uint256","name":"","type":"uint256"}],"stateMutability":"view","type":"function"},{"inputs":[],"name":"getFounderWallet","outputs":[{"internalType":"address","name":"","type":"address"}],"stateMutability":"view","type":"function"},{"inputs":[],"name":"getLiquidityPerc","outputs":[{"internalType":"uint256","name":"","type":"uint256"}],"stateMutability":"view","type":"function"},{"inputs":[],"name":"getLiquidityWallet","outputs":[{"internalType":"address","name":"","type":"address"}],"stateMutability":"view","type":"function"},{"inputs":[],"name":"getPairAddress","outputs":[{"internalType":"address","name":"","type":"address"}],"stateMutability":"view","type":"function"},{"inputs":[],"name":"getRouterAddress","outputs":[{"internalType":"address","name":"","type":"address"}],"stateMutability":"view","type":"function"},{"inputs":[],"name":"getSellTax","outputs":[{"internalType":"uint256","name":"","type":"uint256"}],"stateMutability":"view","type":"function"},{"inputs":[],"name":"getStakedCapPerc","outputs":[{"internalType":"uint256","name":"","type":"uint256"}],"stateMutability":"view","type":"function"},{"inputs":[],"name":"getStakedCapitalWallet","outputs":[{"internalType":"address","name":"","type":"address"}],"stateMutability":"view","type":"function"},{"inputs":[],"name":"getSwapThreshold","outputs":[{"internalType":"uint256","name":"","type":"uint256"}],"stateMutability":"view","type":"function"},{"inputs":[],"name":"getUniswapV2Factory","outputs":[{"internalType":"address","name":"","type":"address"}],"stateMutability":"view","type":"function"},{"inputs":[],"name":"getUniswapV2Pair","outputs":[{"internalType":"address","name":"","type":"address"}],"stateMutability":"view","type":"function"},{"inputs":[{"internalType":"address","name":"spender","type":"address"},{"internalType":"uint256","name":"addedValue","type":"uint256"}],"name":"increaseAllowance","outputs":[{"internalType":"bool","name":"","type":"bool"}],"stateMutability":"nonpayable","type":"function"},{"inputs":[{"internalType":"address","name":"account","type":"address"}],"name":"isBlacklisted","outputs":[{"internalType":"bool","name":"","type":"bool"}],"stateMutability":"view","type":"function"},{"inputs":[{"internalType":"address","name":"account","type":"address"}],"name":"isExcluded","outputs":[{"internalType":"bool","name":"","type":"bool"}],"stateMutability":"view","type":"function"},{"inputs":[],"name":"manualSwapAndLiquify","outputs":[],"stateMutability":"nonpayable","type":"function"},{"inputs":[],"name":"name","outputs":[{"internalType":"string","name":"","type":"string"}],"stateMutability":"view","type":"function"},{"inputs":[],"name":"owner","outputs":[{"internalType":"address","name":"","type":"address"}],"stateMutability":"view","type":"function"},{"inputs":[],"name":"pause","outputs":[],"stateMutability":"nonpayable","type":"function"},{"inputs":[],"name":"paused","outputs":[{"internalType":"bool","name":"","type":"bool"}],"stateMutability":"view","type":"function"},{"inputs":[{"internalType":"address","name":"account","type":"address"}],"name":"removeExclude","outputs":[],"stateMutability":"nonpayable","type":"function"},{"inputs":[],"name":"renounceOwnership","outputs":[],"stateMutability":"nonpayable","type":"function"},{"inputs":[{"internalType":"bool","name":"value","type":"bool"}],"name":"setAutoSwap","outputs":[],"stateMutability":"nonpayable","type":"function"},{"inputs":[{"internalType":"uint8","name":"tax","type":"uint8"}],"name":"setBuyTax","outputs":[],"stateMutability":"nonpayable","type":"function"},{"inputs":[{"internalType":"address","name":"account","type":"address"}],"name":"setDivitrendRewardsAddress","outputs":[],"stateMutability":"nonpayable","type":"function"},{"inputs":[{"internalType":"address","name":"account","type":"address"}],"name":"setExchangeAddress","outputs":[],"stateMutability":"nonpayable","type":"function"},{"inputs":[{"internalType":"uint16","name":"perc","type":"uint16"}],"name":"setFounderPerc","outputs":[],"stateMutability":"nonpayable","type":"function"},{"inputs":[{"internalType":"address","name":"account","type":"address"}],"name":"setFounderWallet","outputs":[],"stateMutability":"nonpayable","type":"function"},{"inputs":[{"internalType":"uint16","name":"perc","type":"uint16"}],"name":"setLiquidityPerc","outputs":[],"stateMutability":"nonpayable","type":"function"},{"inputs":[{"internalType":"address","name":"account","type":"address"}],"name":"setLiquidityWallet","outputs":[],"stateMutability":"payable","type":"function"},{"inputs":[{"internalType":"address","name":"account","type":"address"}],"name":"setRouterAddress","outputs":[],"stateMutability":"nonpayable","type":"function"},{"inputs":[{"internalType":"uint8","name":"tax","type":"uint8"}],"name":"setSellTax","outputs":[],"stateMutability":"nonpayable","type":"function"},{"inputs":[{"internalType":"uint16","name":"perc","type":"uint16"}],"name":"setStakedCapPerc","outputs":[],"stateMutability":"nonpayable","type":"function"},{"inputs":[{"internalType":"address","name":"account","type":"address"}],"name":"setStakedCapitalWallet","outputs":[],"stateMutability":"nonpayable","type":"function"},{"inputs":[{"internalType":"uint256","name":"amount","type":"uint256"}],"name":"setSwapThreshold","outputs":[],"stateMutability":"nonpayable","type":"function"},{"inputs":[],"name":"symbol","outputs":[{"internalType":"string","name":"","type":"string"}],"stateMutability":"view","type":"function"},{"inputs":[],"name":"totalSupply","outputs":[{"internalType":"uint256","name":"","type":"uint256"}],"stateMutability":"view","type":"function"},{"inputs":[{"internalType":"uint256","name":"snapshotId","type":"uint256"}],"name":"totalSupplyAt","outputs":[{"internalType":"uint256","name":"","type":"uint256"}],"stateMutability":"view","type":"function"},{"inputs":[{"internalType":"address","name":"to","type":"address"},{"internalType":"uint256","name":"amount","type":"uint256"}],"name":"transfer","outputs":[{"internalType":"bool","name":"","type":"bool"}],"stateMutability":"nonpayable","type":"function"},{"inputs":[{"internalType":"address","name":"from","type":"address"},{"internalType":"address","name":"to","type":"address"},{"internalType":"uint256","name":"amount","type":"uint256"}],"name":"transferFrom","outputs":[{"internalType":"bool","name":"","type":"bool"}],"stateMutability":"nonpayable","type":"function"},{"inputs":[{"internalType":"address","name":"newOwner","type":"address"}],"name":"transferOwnership","outputs":[],"stateMutability":"nonpayable","type":"function"},{"inputs":[],"name":"unpause","outputs":[],"stateMutability":"nonpayable","type":"function"},{"inputs":[],"name":"withdrawETH","outputs":[],"stateMutability":"nonpayable","type":"function"},{"inputs":[{"internalType":"address","name":"tokenAddress","type":"address"}],"name":"withdrawTokens","outputs":[],"stateMutability":"nonpayable","type":"function"},{"stateMutability":"payable","type":"receive"}],"evm":{"bytecode":{"linkReferences":{},"object":"60806040523480156200001157600080fd5b506040518060400160405280600981526020017f446976695472656e6400000000000000000000000000000000000000000000008152506040518060400160405280600481526020017f54524e440000000000000000000000000000000000000000000000000000000081525081600390816200008f919062000b15565b508060049081620000a1919062000b15565b505050620000c4620000b86200027060201b60201c565b6200027860201b60201c565b6000600560146101000a81548160ff02191690831515021790555069010f0cf064dd59200000600b819055506001600c60006101000a81548160ff021916908315150217905550600f600c60016101000a81548160ff021916908360ff160217905550600f600c60026101000a81548160ff021916908360ff160217905550610320600c60036101000a81548161ffff021916908361ffff1602179055506085600c60056101000a81548161ffff021916908361ffff1602179055506043600c60076101000a81548161ffff021916908361ffff1602179055506001601660003073ffffffffffffffffffffffffffffffffffffffff1673ffffffffffffffffffffffffffffffffffffffff16815260200190815260200160002060006101000a81548160ff0219169083151502179055506001601660003373ffffffffffffffffffffffffffffffffffffffff1673ffffffffffffffffffffffffffffffffffffffff16815260200190815260200160002060006101000a81548160ff0219169083151502179055506200026a3369d3c21bcecceda10000006200033e60201b60201c565b62000e8b565b600033905090565b6000600560009054906101000a900473ffffffffffffffffffffffffffffffffffffffff16905081600560006101000a81548173ffffffffffffffffffffffffffffffffffffffff021916908373ffffffffffffffffffffffffffffffffffffffff1602179055508173ffffffffffffffffffffffffffffffffffffffff168173ffffffffffffffffffffffffffffffffffffffff167f8be0079c531659141344cd1fd0a4f28419497f9722a3daafe3b4186f6b6457e060405160405180910390a35050565b600073ffffffffffffffffffffffffffffffffffffffff168273ffffffffffffffffffffffffffffffffffffffff1603620003b0576040517f08c379a0000000000000000000000000000000000000000000000000000000008152600401620003a79062000c5d565b60405180910390fd5b620003c460008383620004ab60201b60201c565b8060026000828254620003d8919062000cae565b92505081905550806000808473ffffffffffffffffffffffffffffffffffffffff1673ffffffffffffffffffffffffffffffffffffffff168152602001908152602001600020600082825401925050819055508173ffffffffffffffffffffffffffffffffffffffff16600073ffffffffffffffffffffffffffffffffffffffff167fddf252ad1be2c89b69c2b068fc378daa952ba7f163c4a11628f55a4df523b3ef836040516200048b919062000cfa565b60405180910390a3620004a760008383620004d860201b60201c565b5050565b620004bb620004dd60201b60201c565b620004d38383836200053260201b620027381760201c565b505050565b505050565b620004ed6200062b60201b60201c565b1562000530576040517f08c379a0000000000000000000000000000000000000000000000000000000008152600401620005279062000d67565b60405180910390fd5b565b6200054a8383836200064260201b620027f01760201c565b600073ffffffffffffffffffffffffffffffffffffffff168373ffffffffffffffffffffffffffffffffffffffff1603620005a6576200059082620006b260201b60201c565b620005a06200071560201b60201c565b62000626565b600073ffffffffffffffffffffffffffffffffffffffff168273ffffffffffffffffffffffffffffffffffffffff16036200060257620005ec83620006b260201b60201c565b620005fc6200071560201b60201c565b62000625565b6200061383620006b260201b60201c565b6200062482620006b260201b60201c565b5b5b505050565b6000600560149054906101000a900460ff16905090565b6200065a8383836200073960201b620028481760201c565b6200066a6200062b60201b60201c565b15620006ad576040517f08c379a0000000000000000000000000000000000000000000000000000000008152600401620006a49062000dff565b60405180910390fd5b505050565b62000712600660008373ffffffffffffffffffffffffffffffffffffffff1673ffffffffffffffffffffffffffffffffffffffff16815260200190815260200160002062000706836200073e60201b60201c565b6200078660201b60201c565b50565b6200073760076200072b6200081260201b60201c565b6200078660201b60201c565b565b505050565b60008060008373ffffffffffffffffffffffffffffffffffffffff1673ffffffffffffffffffffffffffffffffffffffff168152602001908152602001600020549050919050565b6000620007986200081c60201b60201c565b905080620007af846000016200083a60201b60201c565b10156200080d5782600001819080600181540180825580915050600190039060005260206000200160009091909190915055826001018290806001815401808255809150506001900390600052602060002001600090919091909150555b505050565b6000600254905090565b60006200083560096200088d60201b6200284d1760201c565b905090565b60008082805490500362000852576000905062000888565b816001838054905062000866919062000e21565b815481106200087a576200087962000e5c565b5b906000526020600020015490505b919050565b600081600001549050919050565b600081519050919050565b7f4e487b7100000000000000000000000000000000000000000000000000000000600052604160045260246000fd5b7f4e487b7100000000000000000000000000000000000000000000000000000000600052602260045260246000fd5b600060028204905060018216806200091d57607f821691505b602082108103620009335762000932620008d5565b5b50919050565b60008190508160005260206000209050919050565b60006020601f8301049050919050565b600082821b905092915050565b6000600883026200099d7fffffffffffffffffffffffffffffffffffffffffffffffffffffffffffffffff826200095e565b620009a986836200095e565b95508019841693508086168417925050509392505050565b6000819050919050565b6000819050919050565b6000620009f6620009f0620009ea84620009c1565b620009cb565b620009c1565b9050919050565b6000819050919050565b62000a1283620009d5565b62000a2a62000a2182620009fd565b8484546200096b565b825550505050565b600090565b62000a4162000a32565b62000a4e81848462000a07565b505050565b5b8181101562000a765762000a6a60008262000a37565b60018101905062000a54565b5050565b601f82111562000ac55762000a8f8162000939565b62000a9a846200094e565b8101602085101562000aaa578190505b62000ac262000ab9856200094e565b83018262000a53565b50505b505050565b600082821c905092915050565b600062000aea6000198460080262000aca565b1980831691505092915050565b600062000b05838362000ad7565b9150826002028217905092915050565b62000b20826200089b565b67ffffffffffffffff81111562000b3c5762000b3b620008a6565b5b62000b48825462000904565b62000b5582828562000a7a565b600060209050601f83116001811462000b8d576000841562000b78578287015190505b62000b84858262000af7565b86555062000bf4565b601f19841662000b9d8662000939565b60005b8281101562000bc75784890151825560018201915060208501945060208101905062000ba0565b8683101562000be7578489015162000be3601f89168262000ad7565b8355505b6001600288020188555050505b505050505050565b600082825260208201905092915050565b7f45524332303a206d696e7420746f20746865207a65726f206164647265737300600082015250565b600062000c45601f8362000bfc565b915062000c528262000c0d565b602082019050919050565b6000602082019050818103600083015262000c788162000c36565b9050919050565b7f4e487b7100000000000000000000000000000000000000000000000000000000600052601160045260246000fd5b600062000cbb82620009c1565b915062000cc883620009c1565b925082820190508082111562000ce35762000ce262000c7f565b5b92915050565b62000cf481620009c1565b82525050565b600060208201905062000d11600083018462000ce9565b92915050565b7f5061757361626c653a2070617573656400000000000000000000000000000000600082015250565b600062000d4f60108362000bfc565b915062000d5c8262000d17565b602082019050919050565b6000602082019050818103600083015262000d828162000d40565b9050919050565b7f45524332305061757361626c653a20746f6b656e207472616e7366657220776860008201527f696c652070617573656400000000000000000000000000000000000000000000602082015250565b600062000de7602a8362000bfc565b915062000df48262000d89565b604082019050919050565b6000602082019050818103600083015262000e1a8162000dd8565b9050919050565b600062000e2e82620009c1565b915062000e3b83620009c1565b925082820390508181111562000e565762000e5562000c7f565b5b92915050565b7f4e487b7100000000000000000000000000000000000000000000000000000000600052603260045260246000fd5b6159e18062000e9b6000396000f3fe6080604052600436106103bc5760003560e01c8063733b864f116101f2578063b12167861161010d578063dd62ed3e116100a0578063f29f69f01161006f578063f29f69f014610da9578063f2fde38b14610dd4578063fac5066a14610dfd578063fe575a8714610e28576103c3565b8063dd62ed3e14610d01578063e086e5ec14610d3e578063e7d30b4f14610d55578063f005f2ca14610d7e576103c3565b8063cee36053116100dc578063cee3605314610c5b578063cfefd79e14610c84578063d082ea8c14610cad578063d54f7d5e14610cd6576103c3565b8063b121678614610b9d578063b79cb2a014610bc8578063c726389514610bf3578063cba0e99614610c1e576103c3565b806395d89b4111610185578063a457c2d711610154578063a457c2d714610acf578063a9059cbb14610b0c578063abe4f11d14610b49578063b0bc85de14610b72576103c3565b806395d89b4114610a13578063970875ce14610a3e578063981b24d014610a695780639d0014b114610aa6576103c3565b80638d5f81e2116101c15780638d5f81e21461096b5780638d91cca1146109965780638da5cb5b146109bf57806393818cfa146109ea576103c3565b8063733b864f146108e957806379cc6790146109005780637a367d06146109295780638456cb5914610954576103c3565b806341cb87fc116102e25780635c975abb116102755780636d51d473116102445780636d51d4731461084357806370a082311461086c578063715018a6146108a9578063717a8651146108c0576103c3565b80635c975abb146107995780636081752b146107c4578063691dcad5146107ed5780636c01042714610818576103c3565b80634ee2cd7e116102b15780634ee2cd7e146106e15780634febf53d1461071e578063503fa890146107475780635692717e14610770576103c3565b806341cb87fc1461063d57806342966c681461066657806349abdc141461068f57806349df728c146106b8576103c3565b8063230f01bf1161035a578063313ce56711610329578063313ce567146105a257806339509351146105cd5780633f4ba83a1461060a5780633f6c518d14610621576103c3565b8063230f01bf146104f357806323b872dd1461051e578063252d723a1461055b578063296f0a0c14610586576103c3565b80631504d8f0116103965780631504d8f01461045b57806318160ddd146104725780631abfa6291461049d5780631ae646ae146104c8576103c3565b80630103982d146103c857806306fdde03146103f3578063095ea7b31461041e576103c3565b366103c357005b600080fd5b3480156103d457600080fd5b506103dd610e65565b6040516103ea91906144c7565b60405180910390f35b3480156103ff57600080fd5b50610408610e8f565b6040516104159190614572565b60405180910390f35b34801561042a57600080fd5b506104456004803603810190610440919061460a565b610f21565b6040516104529190614665565b60405180910390f35b34801561046757600080fd5b50610470610f44565b005b34801561047e57600080fd5b50610487610f57565b604051610494919061468f565b60405180910390f35b3480156104a957600080fd5b506104b2610f61565b6040516104bf91906144c7565b60405180910390f35b3480156104d457600080fd5b506104dd610f8b565b6040516104ea919061468f565b60405180910390f35b3480156104ff57600080fd5b50610508610fa7565b604051610515919061468f565b60405180910390f35b34801561052a57600080fd5b50610545600480360381019061054091906146aa565b610fb1565b6040516105529190614665565b60405180910390f35b34801561056757600080fd5b50610570610fe0565b60405161057d919061468f565b60405180910390f35b6105a0600480360381019061059b91906146fd565b610ffa565b005b3480156105ae57600080fd5b506105b76110e5565b6040516105c49190614746565b60405180910390f35b3480156105d957600080fd5b506105f460048036038101906105ef919061460a565b6110ee565b6040516106019190614665565b60405180910390f35b34801561061657600080fd5b5061061f611125565b005b61063b60048036038101906106369190614761565b611175565b005b34801561064957600080fd5b50610664600480360381019061065f91906146fd565b6111d6565b005b34801561067257600080fd5b5061068d60048036038101906106889190614761565b6116a2565b005b34801561069b57600080fd5b506106b660048036038101906106b191906147ba565b6116b6565b005b3480156106c457600080fd5b506106df60048036038101906106da91906146fd565b611725565b005b3480156106ed57600080fd5b506107086004803603810190610703919061460a565b61182e565b604051610715919061468f565b60405180910390f35b34801561072a57600080fd5b50610745600480360381019061074091906146fd565b61189e565b005b34801561075357600080fd5b5061076e60048036038101906107699190614821565b61194c565b005b34801561077c57600080fd5b5061079760048036038101906107929190614821565b611974565b005b3480156107a557600080fd5b506107ae61199c565b6040516107bb9190614665565b60405180910390f35b3480156107d057600080fd5b506107eb60048036038101906107e691906147ba565b6119b3565b005b3480156107f957600080fd5b50610802611a22565b60405161080f91906144c7565b60405180910390f35b34801561082457600080fd5b5061082d611a4c565b60405161083a91906144c7565b60405180910390f35b34801561084f57600080fd5b5061086a600480360381019061086591906146fd565b611a76565b005b34801561087857600080fd5b50610893600480360381019061088e91906146fd565b611b61565b6040516108a0919061468f565b60405180910390f35b3480156108b557600080fd5b506108be611ba9565b005b3480156108cc57600080fd5b506108e760048036038101906108e291906146fd565b611bbd565b005b3480156108f557600080fd5b506108fe611caf565b005b34801561090c57600080fd5b506109276004803603810190610922919061460a565b611cf8565b005b34801561093557600080fd5b5061093e611d18565b60405161094b91906144c7565b60405180910390f35b34801561096057600080fd5b50610969611d42565b005b34801561097757600080fd5b50610980611d93565b60405161098d91906144c7565b60405180910390f35b3480156109a257600080fd5b506109bd60048036038101906109b891906146fd565b611dbd565b005b3480156109cb57600080fd5b506109d4611ea8565b6040516109e191906144c7565b60405180910390f35b3480156109f657600080fd5b50610a116004803603810190610a0c919061487a565b611ed2565b005b348015610a1f57600080fd5b50610a28611ef7565b604051610a359190614572565b60405180910390f35b348015610a4a57600080fd5b50610a53611f89565b604051610a60919061468f565b60405180910390f35b348015610a7557600080fd5b50610a906004803603810190610a8b9190614761565b611f98565b604051610a9d919061468f565b60405180910390f35b348015610ab257600080fd5b50610acd6004803603810190610ac89190614761565b611fc9565b005b348015610adb57600080fd5b50610af66004803603810190610af1919061460a565b611fdb565b604051610b039190614665565b60405180910390f35b348015610b1857600080fd5b50610b336004803603810190610b2e919061460a565b612052565b604051610b409190614665565b60405180910390f35b348015610b5557600080fd5b50610b706004803603810190610b6b91906146fd565b612075565b005b348015610b7e57600080fd5b50610b87612122565b604051610b94919061468f565b60405180910390f35b348015610ba957600080fd5b50610bb261213c565b604051610bbf9190614665565b60405180910390f35b348015610bd457600080fd5b50610bdd612153565b604051610bea91906144c7565b60405180910390f35b348015610bff57600080fd5b50610c0861217d565b604051610c15919061468f565b60405180910390f35b348015610c2a57600080fd5b50610c456004803603810190610c4091906146fd565b612199565b604051610c529190614665565b60405180910390f35b348015610c6757600080fd5b50610c826004803603810190610c7d91906146fd565b6121ef565b005b348015610c9057600080fd5b50610cab6004803603810190610ca691906146fd565b6122da565b005b348015610cb957600080fd5b50610cd46004803603810190610ccf91906146fd565b6123cb565b005b348015610ce257600080fd5b50610ceb61247d565b604051610cf891906144c7565b60405180910390f35b348015610d0d57600080fd5b50610d286004803603810190610d2391906148a7565b6124a7565b604051610d35919061468f565b60405180910390f35b348015610d4a57600080fd5b50610d5361252e565b005b348015610d6157600080fd5b50610d7c6004803603810190610d779190614821565b6125e7565b005b348015610d8a57600080fd5b50610d9361260f565b604051610da0919061468f565b60405180910390f35b348015610db557600080fd5b50610dbe612619565b604051610dcb919061468f565b60405180910390f35b348015610de057600080fd5b50610dfb6004803603810190610df691906146fd565b612635565b005b348015610e0957600080fd5b50610e126126b8565b604051610e1f91906144c7565b60405180910390f35b348015610e3457600080fd5b50610e4f6004803603810190610e4a91906146fd565b6126e2565b604051610e5c9190614665565b60405180910390f35b6000601060009054906101000a900473ffffffffffffffffffffffffffffffffffffffff16905090565b606060038054610e9e90614916565b80601f0160208091040260200160405190810160405280929190818152602001828054610eca90614916565b8015610f175780601f10610eec57610100808354040283529160200191610f17565b820191906000526020600020905b815481529060010190602001808311610efa57829003601f168201915b5050505050905090565b600080610f2c61285b565b9050610f39818585612863565b600191505092915050565b610f4c612a2c565b610f54612aaa565b50565b6000600254905090565b6000600f60009054906101000a900473ffffffffffffffffffffffffffffffffffffffff16905090565b6000600c60059054906101000a900461ffff1661ffff16905090565b6000600a54905090565b600080610fbc61285b565b9050610fc9858285612b00565b610fd4858585612b8c565b60019150509392505050565b6000600c60019054906101000a900460ff1660ff16905090565b611002612a2c565b600073ffffffffffffffffffffffffffffffffffffffff168173ffffffffffffffffffffffffffffffffffffffff1603611068576040517f342f50b300000000000000000000000000000000000000000000000000000000815260040160405180910390fd5b80600e60006101000a81548173ffffffffffffffffffffffffffffffffffffffff021916908373ffffffffffffffffffffffffffffffffffffffff1602179055506110b281612199565b6110e2576110e1600e60009054906101000a900473ffffffffffffffffffffffffffffffffffffffff1661189e565b5b50565b60006012905090565b6000806110f961285b565b905061111a81858561110b85896124a7565b6111159190614976565b612863565b600191505092915050565b61112d612a2c565b61113561199c565b61116b576040517fb250bdd300000000000000000000000000000000000000000000000000000000815260040160405180910390fd5b611173613129565b565b600081036111af576040517fb868c9e500000000000000000000000000000000000000000000000000000000815260040160405180910390fd5b6111ba333083612b8c565b80600a60008282546111cc9190614976565b9250508190555050565b6111de612a2c565b600073ffffffffffffffffffffffffffffffffffffffff168173ffffffffffffffffffffffffffffffffffffffff1603611244576040517f342f50b300000000000000000000000000000000000000000000000000000000815260040160405180910390fd5b80601160006101000a81548173ffffffffffffffffffffffffffffffffffffffff021916908373ffffffffffffffffffffffffffffffffffffffff160217905550601160009054906101000a900473ffffffffffffffffffffffffffffffffffffffff1673ffffffffffffffffffffffffffffffffffffffff1663c45a01556040518163ffffffff1660e01b8152600401602060405180830381865afa1580156112f2573d6000803e3d6000fd5b505050506040513d601f19601f8201168201806040525081019061131691906149bf565b601060006101000a81548173ffffffffffffffffffffffffffffffffffffffff021916908373ffffffffffffffffffffffffffffffffffffffff1602179055506000601160009054906101000a900473ffffffffffffffffffffffffffffffffffffffff1673ffffffffffffffffffffffffffffffffffffffff1663c45a01556040518163ffffffff1660e01b8152600401602060405180830381865afa1580156113c5573d6000803e3d6000fd5b505050506040513d601f19601f820116820180604052508101906113e991906149bf565b73ffffffffffffffffffffffffffffffffffffffff1663e6a4390530601160009054906101000a900473ffffffffffffffffffffffffffffffffffffffff1673ffffffffffffffffffffffffffffffffffffffff1663ad5c46486040518163ffffffff1660e01b8152600401602060405180830381865afa158015611472573d6000803e3d6000fd5b505050506040513d601f19601f8201168201806040525081019061149691906149bf565b6040518363ffffffff1660e01b81526004016114b39291906149ec565b602060405180830381865afa1580156114d0573d6000803e3d6000fd5b505050506040513d601f19601f820116820180604052508101906114f491906149bf565b9050600073ffffffffffffffffffffffffffffffffffffffff168173ffffffffffffffffffffffffffffffffffffffff160361165d57601060009054906101000a900473ffffffffffffffffffffffffffffffffffffffff1673ffffffffffffffffffffffffffffffffffffffff1663c9c6539630601160009054906101000a900473ffffffffffffffffffffffffffffffffffffffff1673ffffffffffffffffffffffffffffffffffffffff1663ad5c46486040518163ffffffff1660e01b8152600401602060405180830381865afa1580156115d6573d6000803e3d6000fd5b505050506040513d601f19601f820116820180604052508101906115fa91906149bf565b6040518363ffffffff1660e01b81526004016116179291906149ec565b6020604051808303816000875af1158015611636573d6000803e3d6000fd5b505050506040513d601f19601f8201168201806040525081019061165a91906149bf565b90505b80600f60006101000a81548173ffffffffffffffffffffffffffffffffffffffff021916908373ffffffffffffffffffffffffffffffffffffffff1602179055505050565b6116b36116ad61285b565b8261318c565b50565b6116be612a2c565b600f8160ff16111561170757806040517f37df5e110000000000000000000000000000000000000000000000000000000081526004016116fe9190614a50565b60405180910390fd5b80600c60026101000a81548160ff021916908360ff16021790555050565b61172d612a2c565b60008173ffffffffffffffffffffffffffffffffffffffff166370a08231306040518263ffffffff1660e01b815260040161176891906144c7565b602060405180830381865afa158015611785573d6000803e3d6000fd5b505050506040513d601f19601f820116820180604052508101906117a99190614a80565b90508173ffffffffffffffffffffffffffffffffffffffff1663a9059cbb33836040518363ffffffff1660e01b81526004016117e6929190614aad565b6020604051808303816000875af1158015611805573d6000803e3d6000fd5b505050506040513d601f19601f820116820180604052508101906118299190614aeb565b505050565b600080600061187b84600660008873ffffffffffffffffffffffffffffffffffffffff1673ffffffffffffffffffffffffffffffffffffffff168152602001908152602001600020613359565b91509150816118925761188d85611b61565b611894565b805b9250505092915050565b6118a6612a2c565b6118af81612199565b156118f157806040517faab81d210000000000000000000000000000000000000000000000000000000081526004016118e891906144c7565b60405180910390fd5b6001601660008373ffffffffffffffffffffffffffffffffffffffff1673ffffffffffffffffffffffffffffffffffffffff16815260200190815260200160002060006101000a81548160ff02191690831515021790555050565b611954612a2c565b80600c60036101000a81548161ffff021916908361ffff16021790555050565b61197c612a2c565b80600c60076101000a81548161ffff021916908361ffff16021790555050565b6000600560149054906101000a900460ff16905090565b6119bb612a2c565b600f8160ff161115611a0457806040517f37df5e110000000000000000000000000000000000000000000000000000000081526004016119fb9190614a50565b60405180910390fd5b80600c60016101000a81548160ff021916908360ff16021790555050565b6000601460009054906101000a900473ffffffffffffffffffffffffffffffffffffffff16905090565b6000600c60099054906101000a900473ffffffffffffffffffffffffffffffffffffffff16905090565b611a7e612a2c565b600073ffffffffffffffffffffffffffffffffffffffff168173ffffffffffffffffffffffffffffffffffffffff1603611ae4576040517f342f50b300000000000000000000000000000000000000000000000000000000815260040160405180910390fd5b80601260006101000a81548173ffffffffffffffffffffffffffffffffffffffff021916908373ffffffffffffffffffffffffffffffffffffffff160217905550611b2e81612199565b611b5e57611b5d601260009054906101000a900473ffffffffffffffffffffffffffffffffffffffff1661189e565b5b50565b60008060008373ffffffffffffffffffffffffffffffffffffffff1673ffffffffffffffffffffffffffffffffffffffff168152602001908152602001600020549050919050565b611bb1612a2c565b611bbb600061344e565b565b611bc5612a2c565b601560008273ffffffffffffffffffffffffffffffffffffffff1673ffffffffffffffffffffffffffffffffffffffff16815260200190815260200160002060009054906101000a900460ff1615611c5457806040517fbfd8159b000000000000000000000000000000000000000000000000000000008152600401611c4b91906144c7565b60405180910390fd5b6001601560008373ffffffffffffffffffffffffffffffffffffffff1673ffffffffffffffffffffffffffffffffffffffff16815260200190815260200160002060006101000a81548160ff02191690831515021790555050565b611cb7612a2c565b611ce630601160009054906101000a900473ffffffffffffffffffffffffffffffffffffffff16600a54612863565b611cee613514565b6000600a81905550565b611d0a82611d0461285b565b83612b00565b611d14828261318c565b5050565b6000601260009054906101000a900473ffffffffffffffffffffffffffffffffffffffff16905090565b611d4a612a2c565b611d5261199c565b15611d89576040517f2af83b5400000000000000000000000000000000000000000000000000000000815260040160405180910390fd5b611d91613bfe565b565b6000600f60009054906101000a900473ffffffffffffffffffffffffffffffffffffffff16905090565b611dc5612a2c565b600073ffffffffffffffffffffffffffffffffffffffff168173ffffffffffffffffffffffffffffffffffffffff1603611e2b576040517f342f50b300000000000000000000000000000000000000000000000000000000815260040160405180910390fd5b80600c60096101000a81548173ffffffffffffffffffffffffffffffffffffffff021916908373ffffffffffffffffffffffffffffffffffffffff160217905550611e7581612199565b611ea557611ea4600c60099054906101000a900473ffffffffffffffffffffffffffffffffffffffff1661189e565b5b50565b6000600560009054906101000a900473ffffffffffffffffffffffffffffffffffffffff16905090565b611eda612a2c565b80600c60006101000a81548160ff02191690831515021790555050565b606060048054611f0690614916565b80601f0160208091040260200160405190810160405280929190818152602001828054611f3290614916565b8015611f7f5780601f10611f5457610100808354040283529160200191611f7f565b820191906000526020600020905b815481529060010190602001808311611f6257829003601f168201915b5050505050905090565b6000611f93613c61565b905090565b6000806000611fa8846007613359565b9150915081611fbe57611fb9610f57565b611fc0565b805b92505050919050565b611fd1612a2c565b80600b8190555050565b600080611fe661285b565b90506000611ff482866124a7565b905083811015612039576040517f08c379a000000000000000000000000000000000000000000000000000000000815260040161203090614b8a565b60405180910390fd5b6120468286868403612863565b60019250505092915050565b60008061205d61285b565b905061206a818585612b8c565b600191505092915050565b61207d612a2c565b61208681612199565b6120c757806040517f817695130000000000000000000000000000000000000000000000000000000081526004016120be91906144c7565b60405180910390fd5b6000601660008373ffffffffffffffffffffffffffffffffffffffff1673ffffffffffffffffffffffffffffffffffffffff16815260200190815260200160002060006101000a81548160ff02191690831515021790555050565b6000600c60029054906101000a900460ff1660ff16905090565b6000600c60009054906101000a900460ff16905090565b6000600e60009054906101000a900473ffffffffffffffffffffffffffffffffffffffff16905090565b6000600c60079054906101000a900461ffff1661ffff16905090565b6000601660008373ffffffffffffffffffffffffffffffffffffffff1673ffffffffffffffffffffffffffffffffffffffff16815260200190815260200160002060009054906101000a900460ff169050919050565b6121f7612a2c565b600073ffffffffffffffffffffffffffffffffffffffff168173ffffffffffffffffffffffffffffffffffffffff160361225d576040517f342f50b300000000000000000000000000000000000000000000000000000000815260040160405180910390fd5b80600d60006101000a81548173ffffffffffffffffffffffffffffffffffffffff021916908373ffffffffffffffffffffffffffffffffffffffff1602179055506122a781612199565b6122d7576122d6600d60009054906101000a900473ffffffffffffffffffffffffffffffffffffffff1661189e565b5b50565b6122e2612a2c565b601560008273ffffffffffffffffffffffffffffffffffffffff1673ffffffffffffffffffffffffffffffffffffffff16815260200190815260200160002060009054906101000a900460ff1661237057806040517fd3dcf12100000000000000000000000000000000000000000000000000000000815260040161236791906144c7565b60405180910390fd5b6000601560008373ffffffffffffffffffffffffffffffffffffffff1673ffffffffffffffffffffffffffffffffffffffff16815260200190815260200160002060006101000a81548160ff02191690831515021790555050565b6123d3612a2c565b600073ffffffffffffffffffffffffffffffffffffffff168173ffffffffffffffffffffffffffffffffffffffff1603612439576040517f342f50b300000000000000000000000000000000000000000000000000000000815260040160405180910390fd5b80601460006101000a81548173ffffffffffffffffffffffffffffffffffffffff021916908373ffffffffffffffffffffffffffffffffffffffff16021790555050565b6000601160009054906101000a900473ffffffffffffffffffffffffffffffffffffffff16905090565b6000600160008473ffffffffffffffffffffffffffffffffffffffff1673ffffffffffffffffffffffffffffffffffffffff16815260200190815260200160002060008373ffffffffffffffffffffffffffffffffffffffff1673ffffffffffffffffffffffffffffffffffffffff16815260200190815260200160002054905092915050565b612536612a2c565b60003373ffffffffffffffffffffffffffffffffffffffff164760405161255c90614bdb565b60006040518083038185875af1925050503d8060008114612599576040519150601f19603f3d011682016040523d82523d6000602084013e61259e565b606091505b50509050806125e457336040517f744cf9ba0000000000000000000000000000000000000000000000000000000081526004016125db91906144c7565b60405180910390fd5b50565b6125ef612a2c565b80600c60056101000a81548161ffff021916908361ffff16021790555050565b6000600b54905090565b6000600c60039054906101000a900461ffff1661ffff16905090565b61263d612a2c565b600073ffffffffffffffffffffffffffffffffffffffff168173ffffffffffffffffffffffffffffffffffffffff16036126ac576040517f08c379a00000000000000000000000000000000000000000000000000000000081526004016126a390614c62565b60405180910390fd5b6126b58161344e565b50565b6000600d60009054906101000a900473ffffffffffffffffffffffffffffffffffffffff16905090565b6000601560008373ffffffffffffffffffffffffffffffffffffffff1673ffffffffffffffffffffffffffffffffffffffff16815260200190815260200160002060009054906101000a900460ff169050919050565b6127438383836127f0565b600073ffffffffffffffffffffffffffffffffffffffff168373ffffffffffffffffffffffffffffffffffffffff160361278d5761278082613c72565b612788613cc5565b6127eb565b600073ffffffffffffffffffffffffffffffffffffffff168273ffffffffffffffffffffffffffffffffffffffff16036127d7576127ca83613c72565b6127d2613cc5565b6127ea565b6127e083613c72565b6127e982613c72565b5b5b505050565b6127fb838383612848565b61280361199c565b15612843576040517f08c379a000000000000000000000000000000000000000000000000000000000815260040161283a90614cf4565b60405180910390fd5b505050565b505050565b600081600001549050919050565b600033905090565b600073ffffffffffffffffffffffffffffffffffffffff168373ffffffffffffffffffffffffffffffffffffffff16036128d2576040517f08c379a00000000000000000000000000000000000000000000000000000000081526004016128c990614d86565b60405180910390fd5b600073ffffffffffffffffffffffffffffffffffffffff168273ffffffffffffffffffffffffffffffffffffffff1603612941576040517f08c379a000000000000000000000000000000000000000000000000000000000815260040161293890614e18565b60405180910390fd5b80600160008573ffffffffffffffffffffffffffffffffffffffff1673ffffffffffffffffffffffffffffffffffffffff16815260200190815260200160002060008473ffffffffffffffffffffffffffffffffffffffff1673ffffffffffffffffffffffffffffffffffffffff168152602001908152602001600020819055508173ffffffffffffffffffffffffffffffffffffffff168373ffffffffffffffffffffffffffffffffffffffff167f8c5be1e5ebec7d5bd14f71427d1e84f3dd0314c0f7b2291e5b200ac8c7c3b92583604051612a1f919061468f565b60405180910390a3505050565b612a3461285b565b73ffffffffffffffffffffffffffffffffffffffff16612a52611ea8565b73ffffffffffffffffffffffffffffffffffffffff1614612aa8576040517f08c379a0000000000000000000000000000000000000000000000000000000008152600401612a9f90614e84565b60405180910390fd5b565b6000612ab66009613cd9565b6000612ac0613c61565b90507f8030e83b04d87bef53480e26263266d6ca66863aa8506aca6f2559d18aa1cb6781604051612af1919061468f565b60405180910390a18091505090565b6000612b0c84846124a7565b90507fffffffffffffffffffffffffffffffffffffffffffffffffffffffffffffffff8114612b865781811015612b78576040517f08c379a0000000000000000000000000000000000000000000000000000000008152600401612b6f90614ef0565b60405180910390fd5b612b858484848403612863565b5b50505050565b612b94613cef565b612b9d336126e2565b15612bdf57336040517fb2f6aab9000000000000000000000000000000000000000000000000000000008152600401612bd691906144c7565b60405180910390fd5b612be8326126e2565b15612c2a57326040517fb2f6aab9000000000000000000000000000000000000000000000000000000008152600401612c2191906144c7565b60405180910390fd5b612c33826126e2565b15612c7557816040517fb2f6aab9000000000000000000000000000000000000000000000000000000008152600401612c6c91906144c7565b60405180910390fd5b6000600f60009054906101000a900473ffffffffffffffffffffffffffffffffffffffff1673ffffffffffffffffffffffffffffffffffffffff168473ffffffffffffffffffffffffffffffffffffffff161480612d205750601460009054906101000a900473ffffffffffffffffffffffffffffffffffffffff1673ffffffffffffffffffffffffffffffffffffffff168473ffffffffffffffffffffffffffffffffffffffff16145b80612d785750600f60009054906101000a900473ffffffffffffffffffffffffffffffffffffffff1673ffffffffffffffffffffffffffffffffffffffff168373ffffffffffffffffffffffffffffffffffffffff16145b80612dd05750601460009054906101000a900473ffffffffffffffffffffffffffffffffffffffff1673ffffffffffffffffffffffffffffffffffffffff168373ffffffffffffffffffffffffffffffffffffffff16145b90506000600f60009054906101000a900473ffffffffffffffffffffffffffffffffffffffff1673ffffffffffffffffffffffffffffffffffffffff168573ffffffffffffffffffffffffffffffffffffffff161480612e7d5750601460009054906101000a900473ffffffffffffffffffffffffffffffffffffffff1673ffffffffffffffffffffffffffffffffffffffff168573ffffffffffffffffffffffffffffffffffffffff16145b90506000600f60009054906101000a900473ffffffffffffffffffffffffffffffffffffffff1673ffffffffffffffffffffffffffffffffffffffff168573ffffffffffffffffffffffffffffffffffffffff161480612f2a5750601460009054906101000a900473ffffffffffffffffffffffffffffffffffffffff1673ffffffffffffffffffffffffffffffffffffffff168573ffffffffffffffffffffffffffffffffffffffff16145b9050600080600073ffffffffffffffffffffffffffffffffffffffff16600f60009054906101000a900473ffffffffffffffffffffffffffffffffffffffff1673ffffffffffffffffffffffffffffffffffffffff161461301f57600f60009054906101000a900473ffffffffffffffffffffffffffffffffffffffff1673ffffffffffffffffffffffffffffffffffffffff16630902f1ac6040518163ffffffff1660e01b8152600401606060405180830381865afa92505050801561300f57506040513d601f19601f8201168201806040525081019061300c9190614f92565b60015b1561301e578294508193505050505b5b61302888612199565b15801561303b575061303987612199565b155b80156130445750845b1561305757613054888888613d39565b95505b83156130b7578673ffffffffffffffffffffffffffffffffffffffff167f8462fba29dbb512e305e3dbb93ca56c6565c97e1abfe92bb11623f6cf5fdd9f187600185856040516130aa9493929190615016565b60405180910390a2613114565b8215613113578773ffffffffffffffffffffffffffffffffffffffff167f8462fba29dbb512e305e3dbb93ca56c6565c97e1abfe92bb11623f6cf5fdd9f1876000858560405161310a9493929190615016565b60405180910390a25b5b61311f888888613fd8565b5050505050505050565b61313161424e565b6000600560146101000a81548160ff0219169083151502179055507f5db9ee0a495bf2e6ff9c91a7834c1ba4fdd244a5e8aa4e537bd38aeae4b073aa61317561285b565b60405161318291906144c7565b60405180910390a1565b600073ffffffffffffffffffffffffffffffffffffffff168273ffffffffffffffffffffffffffffffffffffffff16036131fb576040517f08c379a00000000000000000000000000000000000000000000000000000000081526004016131f2906150cd565b60405180910390fd5b61320782600083614297565b60008060008473ffffffffffffffffffffffffffffffffffffffff1673ffffffffffffffffffffffffffffffffffffffff1681526020019081526020016000205490508181101561328d576040517f08c379a00000000000000000000000000000000000000000000000000000000081526004016132849061515f565b60405180910390fd5b8181036000808573ffffffffffffffffffffffffffffffffffffffff1673ffffffffffffffffffffffffffffffffffffffff1681526020019081526020016000208190555081600260008282540392505081905550600073ffffffffffffffffffffffffffffffffffffffff168373ffffffffffffffffffffffffffffffffffffffff167fddf252ad1be2c89b69c2b068fc378daa952ba7f163c4a11628f55a4df523b3ef84604051613340919061468f565b60405180910390a3613354836000846142af565b505050565b6000806000841161339f576040517f08c379a0000000000000000000000000000000000000000000000000000000008152600401613396906151cb565b60405180910390fd5b6133a7613c61565b8411156133e9576040517f08c379a00000000000000000000000000000000000000000000000000000000081526004016133e090615237565b60405180910390fd5b600061340185856000016142b490919063ffffffff16565b90508360000180549050810361341e576000809250925050613447565b600184600101828154811061343657613435615257565b5b906000526020600020015492509250505b9250929050565b6000600560009054906101000a900473ffffffffffffffffffffffffffffffffffffffff16905081600560006101000a81548173ffffffffffffffffffffffffffffffffffffffff021916908373ffffffffffffffffffffffffffffffffffffffff1602179055508173ffffffffffffffffffffffffffffffffffffffff168173ffffffffffffffffffffffffffffffffffffffff167f8be0079c531659141344cd1fd0a4f28419497f9722a3daafe3b4186f6b6457e060405160405180910390a35050565b6000601160009054906101000a900473ffffffffffffffffffffffffffffffffffffffff1690506000600a5403613577576040517f87db5a4f00000000000000000000000000000000000000000000000000000000815260040160405180910390fd5b60006103e861ffff16600c60039054906101000a900461ffff1661ffff16600a546135a29190615286565b6135ac91906152f7565b905060006103e861ffff16600c60059054906101000a900461ffff1661ffff16600a546135d99190615286565b6135e391906152f7565b905060006103e861ffff16600c60079054906101000a900461ffff1661ffff16600a546136109190615286565b61361a91906152f7565b905060004790506000600267ffffffffffffffff81111561363e5761363d615328565b5b60405190808252806020026020018201604052801561366c5781602001602082028036833780820191505090505b509050308160008151811061368457613683615257565b5b602002602001019073ffffffffffffffffffffffffffffffffffffffff16908173ffffffffffffffffffffffffffffffffffffffff16815250508573ffffffffffffffffffffffffffffffffffffffff1663ad5c46486040518163ffffffff1660e01b8152600401602060405180830381865afa158015613709573d6000803e3d6000fd5b505050506040513d601f19601f8201168201806040525081019061372d91906149bf565b8160018151811061374157613740615257565b5b602002602001019073ffffffffffffffffffffffffffffffffffffffff16908173ffffffffffffffffffffffffffffffffffffffff16815250508573ffffffffffffffffffffffffffffffffffffffff166318cbafe58660008430426040518663ffffffff1660e01b81526004016137bd959493929190615450565b6000604051808303816000875af11580156137dc573d6000803e3d6000fd5b505050506040513d6000823e3d601f19601f8201168201806040525081019061380591906155c3565b5060008247613814919061560c565b90504792508673ffffffffffffffffffffffffffffffffffffffff166318cbafe58660008530426040518663ffffffff1660e01b815260040161385b959493929190615450565b6000604051808303816000875af115801561387a573d6000803e3d6000fd5b505050506040513d6000823e3d601f19601f820116820180604052508101906138a391906155c3565b50600083476138b2919061560c565b90504793506002856138c491906152f7565b94508773ffffffffffffffffffffffffffffffffffffffff166318cbafe58660008630426040518663ffffffff1660e01b8152600401613908959493929190615450565b6000604051808303816000875af1158015613927573d6000803e3d6000fd5b505050506040513d6000823e3d601f19601f8201168201806040525081019061395091906155c3565b506000844761395f919061560c565b90508873ffffffffffffffffffffffffffffffffffffffff1663f305d719823089600080600e60009054906101000a900473ffffffffffffffffffffffffffffffffffffffff16426040518863ffffffff1660e01b81526004016139c896959493929190615640565b60606040518083038185885af11580156139e6573d6000803e3d6000fd5b50505050506040513d601f19601f82011682018060405250810190613a0b91906156a1565b5050506000600c60099054906101000a900473ffffffffffffffffffffffffffffffffffffffff1673ffffffffffffffffffffffffffffffffffffffff1684604051613a5690614bdb565b60006040518083038185875af1925050503d8060008114613a93576040519150601f19603f3d011682016040523d82523d6000602084013e613a98565b606091505b5050905080613b0057600c60099054906101000a900473ffffffffffffffffffffffffffffffffffffffff166040517f744cf9ba000000000000000000000000000000000000000000000000000000008152600401613af791906144c7565b60405180910390fd5b600d60009054906101000a900473ffffffffffffffffffffffffffffffffffffffff1673ffffffffffffffffffffffffffffffffffffffff1683604051613b4690614bdb565b60006040518083038185875af1925050503d8060008114613b83576040519150601f19603f3d011682016040523d82523d6000602084013e613b88565b606091505b50508091505080613bf257600d60009054906101000a900473ffffffffffffffffffffffffffffffffffffffff166040517f744cf9ba000000000000000000000000000000000000000000000000000000008152600401613be991906144c7565b60405180910390fd5b50505050505050505050565b613c06613cef565b6001600560146101000a81548160ff0219169083151502179055507f62e78cea01bee320cd4e420270b5ea74000d11b0c9f74754ebdbfc544b05a258613c4a61285b565b604051613c5791906144c7565b60405180910390a1565b6000613c6d600961284d565b905090565b613cc2600660008373ffffffffffffffffffffffffffffffffffffffff1673ffffffffffffffffffffffffffffffffffffffff168152602001908152602001600020613cbd83611b61565b61436d565b50565b613cd76007613cd2610f57565b61436d565b565b6001816000016000828254019250508190555050565b613cf761199c565b15613d37576040517f08c379a0000000000000000000000000000000000000000000000000000000008152600401613d2e90615740565b60405180910390fd5b565b6000806000606484613d4b91906152f7565b90506000600f60009054906101000a900473ffffffffffffffffffffffffffffffffffffffff1673ffffffffffffffffffffffffffffffffffffffff168773ffffffffffffffffffffffffffffffffffffffff161480613df85750601460009054906101000a900473ffffffffffffffffffffffffffffffffffffffff1673ffffffffffffffffffffffffffffffffffffffff168773ffffffffffffffffffffffffffffffffffffffff16145b90506000600f60009054906101000a900473ffffffffffffffffffffffffffffffffffffffff1673ffffffffffffffffffffffffffffffffffffffff168773ffffffffffffffffffffffffffffffffffffffff161480613ea55750601460009054906101000a900473ffffffffffffffffffffffffffffffffffffffff1673ffffffffffffffffffffffffffffffffffffffff168773ffffffffffffffffffffffffffffffffffffffff16145b90508115613ed257600c60019054906101000a900460ff1660ff1683613ecb9190615286565b9350613efa565b8015613ef957600c60029054906101000a900460ff1660ff1683613ef69190615286565b93505b5b613f05883086612b8c565b83600a6000828254613f179190614976565b92505081905550600c60009054906101000a900460ff168015613f3e5750600b54600a5410155b15613f8357613f7230601160009054906101000a900473ffffffffffffffffffffffffffffffffffffffff16600a54612863565b613f7a613514565b6000600a819055505b8386613f8f919061560c565b95507f0881d38abf1296e6655f5451ad7fb65cd915ddaf5263d7f9af19feabef77bfdd8685604051613fc2929190615760565b60405180910390a1859450505050509392505050565b600073ffffffffffffffffffffffffffffffffffffffff168373ffffffffffffffffffffffffffffffffffffffff1603614047576040517f08c379a000000000000000000000000000000000000000000000000000000000815260040161403e906157fb565b60405180910390fd5b600073ffffffffffffffffffffffffffffffffffffffff168273ffffffffffffffffffffffffffffffffffffffff16036140b6576040517f08c379a00000000000000000000000000000000000000000000000000000000081526004016140ad9061588d565b60405180910390fd5b6140c1838383614297565b60008060008573ffffffffffffffffffffffffffffffffffffffff1673ffffffffffffffffffffffffffffffffffffffff16815260200190815260200160002054905081811015614147576040517f08c379a000000000000000000000000000000000000000000000000000000000815260040161413e9061591f565b60405180910390fd5b8181036000808673ffffffffffffffffffffffffffffffffffffffff1673ffffffffffffffffffffffffffffffffffffffff16815260200190815260200160002081905550816000808573ffffffffffffffffffffffffffffffffffffffff1673ffffffffffffffffffffffffffffffffffffffff168152602001908152602001600020600082825401925050819055508273ffffffffffffffffffffffffffffffffffffffff168473ffffffffffffffffffffffffffffffffffffffff167fddf252ad1be2c89b69c2b068fc378daa952ba7f163c4a11628f55a4df523b3ef84604051614235919061468f565b60405180910390a36142488484846142af565b50505050565b61425661199c565b614295576040517f08c379a000000000000000000000000000000000000000000000000000000000815260040161428c9061598b565b60405180910390fd5b565b61429f613cef565b6142aa838383612738565b505050565b505050565b6000808380549050036142ca5760009050614367565b600080848054905090505b8082101561431e5760006142e983836143e8565b9050846142f6878361440e565b60000154111561430857809150614318565b6001816143159190614976565b92505b506142d5565b6000821180156143465750836143408660018561433b919061560c565b61440e565b60000154145b1561436157600182614358919061560c565b92505050614367565b81925050505b92915050565b6000614377613c61565b90508061438684600001614430565b10156143e35782600001819080600181540180825580915050600190039060005260206000200160009091909190915055826001018290806001815401808255809150506001900390600052602060002001600090919091909150555b505050565b600060028284186143f991906152f7565b8284166144069190614976565b905092915050565b600080836000528260206000200190506144278161447c565b91505092915050565b6000808280549050036144465760009050614477565b8160018380549050614458919061560c565b8154811061446957614468615257565b5b906000526020600020015490505b919050565b6000819050919050565b600073ffffffffffffffffffffffffffffffffffffffff82169050919050565b60006144b182614486565b9050919050565b6144c1816144a6565b82525050565b60006020820190506144dc60008301846144b8565b92915050565b600081519050919050565b600082825260208201905092915050565b60005b8381101561451c578082015181840152602081019050614501565b60008484015250505050565b6000601f19601f8301169050919050565b6000614544826144e2565b61454e81856144ed565b935061455e8185602086016144fe565b61456781614528565b840191505092915050565b6000602082019050818103600083015261458c8184614539565b905092915050565b6000604051905090565b600080fd5b600080fd5b6145b1816144a6565b81146145bc57600080fd5b50565b6000813590506145ce816145a8565b92915050565b6000819050919050565b6145e7816145d4565b81146145f257600080fd5b50565b600081359050614604816145de565b92915050565b600080604083850312156146215761462061459e565b5b600061462f858286016145bf565b9250506020614640858286016145f5565b9150509250929050565b60008115159050919050565b61465f8161464a565b82525050565b600060208201905061467a6000830184614656565b92915050565b614689816145d4565b82525050565b60006020820190506146a46000830184614680565b92915050565b6000806000606084860312156146c3576146c261459e565b5b60006146d1868287016145bf565b93505060206146e2868287016145bf565b92505060406146f3868287016145f5565b9150509250925092565b6000602082840312156147135761471261459e565b5b6000614721848285016145bf565b91505092915050565b600060ff82169050919050565b6147408161472a565b82525050565b600060208201905061475b6000830184614737565b92915050565b6000602082840312156147775761477661459e565b5b6000614785848285016145f5565b91505092915050565b6147978161472a565b81146147a257600080fd5b50565b6000813590506147b48161478e565b92915050565b6000602082840312156147d0576147cf61459e565b5b60006147de848285016147a5565b91505092915050565b600061ffff82169050919050565b6147fe816147e7565b811461480957600080fd5b50565b60008135905061481b816147f5565b92915050565b6000602082840312156148375761483661459e565b5b60006148458482850161480c565b91505092915050565b6148578161464a565b811461486257600080fd5b50565b6000813590506148748161484e565b92915050565b6000602082840312156148905761488f61459e565b5b600061489e84828501614865565b91505092915050565b600080604083850312156148be576148bd61459e565b5b60006148cc858286016145bf565b92505060206148dd858286016145bf565b9150509250929050565b7f4e487b7100000000000000000000000000000000000000000000000000000000600052602260045260246000fd5b6000600282049050600182168061492e57607f821691505b602082108103614941576149406148e7565b5b50919050565b7f4e487b7100000000000000000000000000000000000000000000000000000000600052601160045260246000fd5b6000614981826145d4565b915061498c836145d4565b92508282019050808211156149a4576149a3614947565b5b92915050565b6000815190506149b9816145a8565b92915050565b6000602082840312156149d5576149d461459e565b5b60006149e3848285016149aa565b91505092915050565b6000604082019050614a0160008301856144b8565b614a0e60208301846144b8565b9392505050565b6000819050919050565b6000614a3a614a35614a308461472a565b614a15565b6145d4565b9050919050565b614a4a81614a1f565b82525050565b6000602082019050614a656000830184614a41565b92915050565b600081519050614a7a816145de565b92915050565b600060208284031215614a9657614a9561459e565b5b6000614aa484828501614a6b565b91505092915050565b6000604082019050614ac260008301856144b8565b614acf6020830184614680565b9392505050565b600081519050614ae58161484e565b92915050565b600060208284031215614b0157614b0061459e565b5b6000614b0f84828501614ad6565b91505092915050565b7f45524332303a2064656372656173656420616c6c6f77616e63652062656c6f7760008201527f207a65726f000000000000000000000000000000000000000000000000000000602082015250565b6000614b746025836144ed565b9150614b7f82614b18565b604082019050919050565b60006020820190508181036000830152614ba381614b67565b9050919050565b600081905092915050565b50565b6000614bc5600083614baa565b9150614bd082614bb5565b600082019050919050565b6000614be682614bb8565b9150819050919050565b7f4f776e61626c653a206e6577206f776e657220697320746865207a65726f206160008201527f6464726573730000000000000000000000000000000000000000000000000000602082015250565b6000614c4c6026836144ed565b9150614c5782614bf0565b604082019050919050565b60006020820190508181036000830152614c7b81614c3f565b9050919050565b7f45524332305061757361626c653a20746f6b656e207472616e7366657220776860008201527f696c652070617573656400000000000000000000000000000000000000000000602082015250565b6000614cde602a836144ed565b9150614ce982614c82565b604082019050919050565b60006020820190508181036000830152614d0d81614cd1565b9050919050565b7f45524332303a20617070726f76652066726f6d20746865207a65726f2061646460008201527f7265737300000000000000000000000000000000000000000000000000000000602082015250565b6000614d706024836144ed565b9150614d7b82614d14565b604082019050919050565b60006020820190508181036000830152614d9f81614d63565b9050919050565b7f45524332303a20617070726f766520746f20746865207a65726f20616464726560008201527f7373000000000000000000000000000000000000000000000000000000000000602082015250565b6000614e026022836144ed565b9150614e0d82614da6565b604082019050919050565b60006020820190508181036000830152614e3181614df5565b9050919050565b7f4f776e61626c653a2063616c6c6572206973206e6f7420746865206f776e6572600082015250565b6000614e6e6020836144ed565b9150614e7982614e38565b602082019050919050565b60006020820190508181036000830152614e9d81614e61565b9050919050565b7f45524332303a20696e73756666696369656e7420616c6c6f77616e6365000000600082015250565b6000614eda601d836144ed565b9150614ee582614ea4565b602082019050919050565b60006020820190508181036000830152614f0981614ecd565b9050919050565b60006dffffffffffffffffffffffffffff82169050919050565b614f3381614f10565b8114614f3e57600080fd5b50565b600081519050614f5081614f2a565b92915050565b600063ffffffff82169050919050565b614f6f81614f56565b8114614f7a57600080fd5b50565b600081519050614f8c81614f66565b92915050565b600080600060608486031215614fab57614faa61459e565b5b6000614fb986828701614f41565b9350506020614fca86828701614f41565b9250506040614fdb86828701614f7d565b9150509250925092565b6000615000614ffb614ff684614f10565b614a15565b6145d4565b9050919050565b61501081614fe5565b82525050565b600060808201905061502b6000830187614680565b6150386020830186614656565b6150456040830185615007565b6150526060830184615007565b95945050505050565b7f45524332303a206275726e2066726f6d20746865207a65726f2061646472657360008201527f7300000000000000000000000000000000000000000000000000000000000000602082015250565b60006150b76021836144ed565b91506150c28261505b565b604082019050919050565b600060208201905081810360008301526150e6816150aa565b9050919050565b7f45524332303a206275726e20616d6f756e7420657863656564732062616c616e60008201527f6365000000000000000000000000000000000000000000000000000000000000602082015250565b60006151496022836144ed565b9150615154826150ed565b604082019050919050565b600060208201905081810360008301526151788161513c565b9050919050565b7f4552433230536e617073686f743a206964206973203000000000000000000000600082015250565b60006151b56016836144ed565b91506151c08261517f565b602082019050919050565b600060208201905081810360008301526151e4816151a8565b9050919050565b7f4552433230536e617073686f743a206e6f6e6578697374656e74206964000000600082015250565b6000615221601d836144ed565b915061522c826151eb565b602082019050919050565b6000602082019050818103600083015261525081615214565b9050919050565b7f4e487b7100000000000000000000000000000000000000000000000000000000600052603260045260246000fd5b6000615291826145d4565b915061529c836145d4565b92508282026152aa816145d4565b915082820484148315176152c1576152c0614947565b5b5092915050565b7f4e487b7100000000000000000000000000000000000000000000000000000000600052601260045260246000fd5b6000615302826145d4565b915061530d836145d4565b92508261531d5761531c6152c8565b5b828204905092915050565b7f4e487b7100000000000000000000000000000000000000000000000000000000600052604160045260246000fd5b6000819050919050565b600061537c61537761537284615357565b614a15565b6145d4565b9050919050565b61538c81615361565b82525050565b600081519050919050565b600082825260208201905092915050565b6000819050602082019050919050565b6153c7816144a6565b82525050565b60006153d983836153be565b60208301905092915050565b6000602082019050919050565b60006153fd82615392565b615407818561539d565b9350615412836153ae565b8060005b8381101561544357815161542a88826153cd565b9750615435836153e5565b925050600181019050615416565b5085935050505092915050565b600060a0820190506154656000830188614680565b6154726020830187615383565b818103604083015261548481866153f2565b905061549360608301856144b8565b6154a06080830184614680565b9695505050505050565b600080fd5b6154b882614528565b810181811067ffffffffffffffff821117156154d7576154d6615328565b5b80604052505050565b60006154ea614594565b90506154f682826154af565b919050565b600067ffffffffffffffff82111561551657615515615328565b5b602082029050602081019050919050565b600080fd5b600061553f61553a846154fb565b6154e0565b9050808382526020820190506020840283018581111561556257615561615527565b5b835b8181101561558b57806155778882614a6b565b845260208401935050602081019050615564565b5050509392505050565b600082601f8301126155aa576155a96154aa565b5b81516155ba84826020860161552c565b91505092915050565b6000602082840312156155d9576155d861459e565b5b600082015167ffffffffffffffff8111156155f7576155f66145a3565b5b61560384828501615595565b91505092915050565b6000615617826145d4565b9150615622836145d4565b925082820390508181111561563a57615639614947565b5b92915050565b600060c08201905061565560008301896144b8565b6156626020830188614680565b61566f6040830187615383565b61567c6060830186615383565b61568960808301856144b8565b61569660a0830184614680565b979650505050505050565b6000806000606084860312156156ba576156b961459e565b5b60006156c886828701614a6b565b93505060206156d986828701614a6b565b92505060406156ea86828701614a6b565b9150509250925092565b7f5061757361626c653a2070617573656400000000000000000000000000000000600082015250565b600061572a6010836144ed565b9150615735826156f4565b602082019050919050565b600060208201905081810360008301526157598161571d565b9050919050565b60006040820190506157756000830185614680565b6157826020830184614680565b9392505050565b7f45524332303a207472616e736665722066726f6d20746865207a65726f20616460008201527f6472657373000000000000000000000000000000000000000000000000000000602082015250565b60006157e56025836144ed565b91506157f082615789565b604082019050919050565b60006020820190508181036000830152615814816157d8565b9050919050565b7f45524332303a207472616e7366657220746f20746865207a65726f206164647260008201527f6573730000000000000000000000000000000000000000000000000000000000602082015250565b60006158776023836144ed565b91506158828261581b565b604082019050919050565b600060208201905081810360008301526158a68161586a565b9050919050565b7f45524332303a207472616e7366657220616d6f756e742065786365656473206260008201527f616c616e63650000000000000000000000000000000000000000000000000000602082015250565b60006159096026836144ed565b9150615914826158ad565b604082019050919050565b60006020820190508181036000830152615938816158fc565b9050919050565b7f5061757361626c653a206e6f7420706175736564000000000000000000000000600082015250565b60006159756014836144ed565b91506159808261593f565b602082019050919050565b600060208201905081810360008301526159a481615968565b905091905056fea2646970667358221220aae9c45b7a64b27945fc2d7f1ae0eafa38fbfca39a8dee3f403c464c97ecdfe664736f6c63430008120033","opcodes":"PUSH1 0x80 PUSH1 0x40 MSTORE CALLVALUE DUP1 ISZERO PUSH3 0x11 JUMPI PUSH1 0x0 DUP1 REVERT JUMPDEST POP PUSH1 0x40 MLOAD DUP1 PUSH1 0x40 ADD PUSH1 0x40 MSTORE DUP1 PUSH1 0x9 DUP2 MSTORE PUSH1 0x20 ADD PUSH32 0x446976695472656E640000000000000000000000000000000000000000000000 DUP2 MSTORE POP PUSH1 0x40 MLOAD DUP1 PUSH1 0x40 ADD PUSH1 0x40 MSTORE DUP1 PUSH1 0x4 DUP2 MSTORE PUSH1 0x20 ADD PUSH32 0x54524E4400000000000000000000000000000000000000000000000000000000 DUP2 MSTORE POP DUP2 PUSH1 0x3 SWAP1 DUP2 PUSH3 0x8F SWAP2 SWAP1 PUSH3 0xB15 JUMP JUMPDEST POP DUP1 PUSH1 0x4 SWAP1 DUP2 PUSH3 0xA1 SWAP2 SWAP1 PUSH3 0xB15 JUMP JUMPDEST POP POP POP PUSH3 0xC4 PUSH3 0xB8 PUSH3 0x270 PUSH1 0x20 SHL PUSH1 0x20 SHR JUMP JUMPDEST PUSH3 0x278 PUSH1 0x20 SHL PUSH1 0x20 SHR JUMP JUMPDEST PUSH1 0x0 PUSH1 0x5 PUSH1 0x14 PUSH2 0x100 EXP DUP2 SLOAD DUP2 PUSH1 0xFF MUL NOT AND SWAP1 DUP4 ISZERO ISZERO MUL OR SWAP1 SSTORE POP PUSH10 0x10F0CF064DD59200000 PUSH1 0xB DUP2 SWAP1 SSTORE POP PUSH1 0x1 PUSH1 0xC PUSH1 0x0 PUSH2 0x100 EXP DUP2 SLOAD DUP2 PUSH1 0xFF MUL NOT AND SWAP1 DUP4 ISZERO ISZERO MUL OR SWAP1 SSTORE POP PUSH1 0xF PUSH1 0xC PUSH1 0x1 PUSH2 0x100 EXP DUP2 SLOAD DUP2 PUSH1 0xFF MUL NOT AND SWAP1 DUP4 PUSH1 0xFF AND MUL OR SWAP1 SSTORE POP PUSH1 0xF PUSH1 0xC PUSH1 0x2 PUSH2 0x100 EXP DUP2 SLOAD DUP2 PUSH1 0xFF MUL NOT AND SWAP1 DUP4 PUSH1 0xFF AND MUL OR SWAP1 SSTORE POP PUSH2 0x320 PUSH1 0xC PUSH1 0x3 PUSH2 0x100 EXP DUP2 SLOAD DUP2 PUSH2 0xFFFF MUL NOT AND SWAP1 DUP4 PUSH2 0xFFFF AND MUL OR SWAP1 SSTORE POP PUSH1 0x85 PUSH1 0xC PUSH1 0x5 PUSH2 0x100 EXP DUP2 SLOAD DUP2 PUSH2 0xFFFF MUL NOT AND SWAP1 DUP4 PUSH2 0xFFFF AND MUL OR SWAP1 SSTORE POP PUSH1 0x43 PUSH1 0xC PUSH1 0x7 PUSH2 0x100 EXP DUP2 SLOAD DUP2 PUSH2 0xFFFF MUL NOT AND SWAP1 DUP4 PUSH2 0xFFFF AND MUL OR SWAP1 SSTORE POP PUSH1 0x1 PUSH1 0x16 PUSH1 0x0 ADDRESS PUSH20 0xFFFFFFFFFFFFFFFFFFFFFFFFFFFFFFFFFFFFFFFF AND PUSH20 0xFFFFFFFFFFFFFFFFFFFFFFFFFFFFFFFFFFFFFFFF AND DUP2 MSTORE PUSH1 0x20 ADD SWAP1 DUP2 MSTORE PUSH1 0x20 ADD PUSH1 0x0 KECCAK256 PUSH1 0x0 PUSH2 0x100 EXP DUP2 SLOAD DUP2 PUSH1 0xFF MUL NOT AND SWAP1 DUP4 ISZERO ISZERO MUL OR SWAP1 SSTORE POP PUSH1 0x1 PUSH1 0x16 PUSH1 0x0 CALLER PUSH20 0xFFFFFFFFFFFFFFFFFFFFFFFFFFFFFFFFFFFFFFFF AND PUSH20 0xFFFFFFFFFFFFFFFFFFFFFFFFFFFFFFFFFFFFFFFF AND DUP2 MSTORE PUSH1 0x20 ADD SWAP1 DUP2 MSTORE PUSH1 0x20 ADD PUSH1 0x0 KECCAK256 PUSH1 0x0 PUSH2 0x100 EXP DUP2 SLOAD DUP2 PUSH1 0xFF MUL NOT AND SWAP1 DUP4 ISZERO ISZERO MUL OR SWAP1 SSTORE POP PUSH3 0x26A CALLER PUSH10 0xD3C21BCECCEDA1000000 PUSH3 0x33E PUSH1 0x20 SHL PUSH1 0x20 SHR JUMP JUMPDEST PUSH3 0xE8B JUMP JUMPDEST PUSH1 0x0 CALLER SWAP1 POP SWAP1 JUMP JUMPDEST PUSH1 0x0 PUSH1 0x5 PUSH1 0x0 SWAP1 SLOAD SWAP1 PUSH2 0x100 EXP SWAP1 DIV PUSH20 0xFFFFFFFFFFFFFFFFFFFFFFFFFFFFFFFFFFFFFFFF AND SWAP1 POP DUP2 PUSH1 0x5 PUSH1 0x0 PUSH2 0x100 EXP DUP2 SLOAD DUP2 PUSH20 0xFFFFFFFFFFFFFFFFFFFFFFFFFFFFFFFFFFFFFFFF MUL NOT AND SWAP1 DUP4 PUSH20 0xFFFFFFFFFFFFFFFFFFFFFFFFFFFFFFFFFFFFFFFF AND MUL OR SWAP1 SSTORE POP DUP2 PUSH20 0xFFFFFFFFFFFFFFFFFFFFFFFFFFFFFFFFFFFFFFFF AND DUP2 PUSH20 0xFFFFFFFFFFFFFFFFFFFFFFFFFFFFFFFFFFFFFFFF AND PUSH32 0x8BE0079C531659141344CD1FD0A4F28419497F9722A3DAAFE3B4186F6B6457E0 PUSH1 0x40 MLOAD PUSH1 0x40 MLOAD DUP1 SWAP2 SUB SWAP1 LOG3 POP POP JUMP JUMPDEST PUSH1 0x0 PUSH20 0xFFFFFFFFFFFFFFFFFFFFFFFFFFFFFFFFFFFFFFFF AND DUP3 PUSH20 0xFFFFFFFFFFFFFFFFFFFFFFFFFFFFFFFFFFFFFFFF AND SUB PUSH3 0x3B0 JUMPI PUSH1 0x40 MLOAD PUSH32 0x8C379A000000000000000000000000000000000000000000000000000000000 DUP2 MSTORE PUSH1 0x4 ADD PUSH3 0x3A7 SWAP1 PUSH3 0xC5D JUMP JUMPDEST PUSH1 0x40 MLOAD DUP1 SWAP2 SUB SWAP1 REVERT JUMPDEST PUSH3 0x3C4 PUSH1 0x0 DUP4 DUP4 PUSH3 0x4AB PUSH1 0x20 SHL PUSH1 0x20 SHR JUMP JUMPDEST DUP1 PUSH1 0x2 PUSH1 0x0 DUP3 DUP3 SLOAD PUSH3 0x3D8 SWAP2 SWAP1 PUSH3 0xCAE JUMP JUMPDEST SWAP3 POP POP DUP2 SWAP1 SSTORE POP DUP1 PUSH1 0x0 DUP1 DUP5 PUSH20 0xFFFFFFFFFFFFFFFFFFFFFFFFFFFFFFFFFFFFFFFF AND PUSH20 0xFFFFFFFFFFFFFFFFFFFFFFFFFFFFFFFFFFFFFFFF AND DUP2 MSTORE PUSH1 0x20 ADD SWAP1 DUP2 MSTORE PUSH1 0x20 ADD PUSH1 0x0 KECCAK256 PUSH1 0x0 DUP3 DUP3 SLOAD ADD SWAP3 POP POP DUP2 SWAP1 SSTORE POP DUP2 PUSH20 0xFFFFFFFFFFFFFFFFFFFFFFFFFFFFFFFFFFFFFFFF AND PUSH1 0x0 PUSH20 0xFFFFFFFFFFFFFFFFFFFFFFFFFFFFFFFFFFFFFFFF AND PUSH32 0xDDF252AD1BE2C89B69C2B068FC378DAA952BA7F163C4A11628F55A4DF523B3EF DUP4 PUSH1 0x40 MLOAD PUSH3 0x48B SWAP2 SWAP1 PUSH3 0xCFA JUMP JUMPDEST PUSH1 0x40 MLOAD DUP1 SWAP2 SUB SWAP1 LOG3 PUSH3 0x4A7 PUSH1 0x0 DUP4 DUP4 PUSH3 0x4D8 PUSH1 0x20 SHL PUSH1 0x20 SHR JUMP JUMPDEST POP POP JUMP JUMPDEST PUSH3 0x4BB PUSH3 0x4DD PUSH1 0x20 SHL PUSH1 0x20 SHR JUMP JUMPDEST PUSH3 0x4D3 DUP4 DUP4 DUP4 PUSH3 0x532 PUSH1 0x20 SHL PUSH3 0x2738 OR PUSH1 0x20 SHR JUMP JUMPDEST POP POP POP JUMP JUMPDEST POP POP POP JUMP JUMPDEST PUSH3 0x4ED PUSH3 0x62B PUSH1 0x20 SHL PUSH1 0x20 SHR JUMP JUMPDEST ISZERO PUSH3 0x530 JUMPI PUSH1 0x40 MLOAD PUSH32 0x8C379A000000000000000000000000000000000000000000000000000000000 DUP2 MSTORE PUSH1 0x4 ADD PUSH3 0x527 SWAP1 PUSH3 0xD67 JUMP JUMPDEST PUSH1 0x40 MLOAD DUP1 SWAP2 SUB SWAP1 REVERT JUMPDEST JUMP JUMPDEST PUSH3 0x54A DUP4 DUP4 DUP4 PUSH3 0x642 PUSH1 0x20 SHL PUSH3 0x27F0 OR PUSH1 0x20 SHR JUMP JUMPDEST PUSH1 0x0 PUSH20 0xFFFFFFFFFFFFFFFFFFFFFFFFFFFFFFFFFFFFFFFF AND DUP4 PUSH20 0xFFFFFFFFFFFFFFFFFFFFFFFFFFFFFFFFFFFFFFFF AND SUB PUSH3 0x5A6 JUMPI PUSH3 0x590 DUP3 PUSH3 0x6B2 PUSH1 0x20 SHL PUSH1 0x20 SHR JUMP JUMPDEST PUSH3 0x5A0 PUSH3 0x715 PUSH1 0x20 SHL PUSH1 0x20 SHR JUMP JUMPDEST PUSH3 0x626 JUMP JUMPDEST PUSH1 0x0 PUSH20 0xFFFFFFFFFFFFFFFFFFFFFFFFFFFFFFFFFFFFFFFF AND DUP3 PUSH20 0xFFFFFFFFFFFFFFFFFFFFFFFFFFFFFFFFFFFFFFFF AND SUB PUSH3 0x602 JUMPI PUSH3 0x5EC DUP4 PUSH3 0x6B2 PUSH1 0x20 SHL PUSH1 0x20 SHR JUMP JUMPDEST PUSH3 0x5FC PUSH3 0x715 PUSH1 0x20 SHL PUSH1 0x20 SHR JUMP JUMPDEST PUSH3 0x625 JUMP JUMPDEST PUSH3 0x613 DUP4 PUSH3 0x6B2 PUSH1 0x20 SHL PUSH1 0x20 SHR JUMP JUMPDEST PUSH3 0x624 DUP3 PUSH3 0x6B2 PUSH1 0x20 SHL PUSH1 0x20 SHR JUMP JUMPDEST JUMPDEST JUMPDEST POP POP POP JUMP JUMPDEST PUSH1 0x0 PUSH1 0x5 PUSH1 0x14 SWAP1 SLOAD SWAP1 PUSH2 0x100 EXP SWAP1 DIV PUSH1 0xFF AND SWAP1 POP SWAP1 JUMP JUMPDEST PUSH3 0x65A DUP4 DUP4 DUP4 PUSH3 0x739 PUSH1 0x20 SHL PUSH3 0x2848 OR PUSH1 0x20 SHR JUMP JUMPDEST PUSH3 0x66A PUSH3 0x62B PUSH1 0x20 SHL PUSH1 0x20 SHR JUMP JUMPDEST ISZERO PUSH3 0x6AD JUMPI PUSH1 0x40 MLOAD PUSH32 0x8C379A000000000000000000000000000000000000000000000000000000000 DUP2 MSTORE PUSH1 0x4 ADD PUSH3 0x6A4 SWAP1 PUSH3 0xDFF JUMP JUMPDEST PUSH1 0x40 MLOAD DUP1 SWAP2 SUB SWAP1 REVERT JUMPDEST POP POP POP JUMP JUMPDEST PUSH3 0x712 PUSH1 0x6 PUSH1 0x0 DUP4 PUSH20 0xFFFFFFFFFFFFFFFFFFFFFFFFFFFFFFFFFFFFFFFF AND PUSH20 0xFFFFFFFFFFFFFFFFFFFFFFFFFFFFFFFFFFFFFFFF AND DUP2 MSTORE PUSH1 0x20 ADD SWAP1 DUP2 MSTORE PUSH1 0x20 ADD PUSH1 0x0 KECCAK256 PUSH3 0x706 DUP4 PUSH3 0x73E PUSH1 0x20 SHL PUSH1 0x20 SHR JUMP JUMPDEST PUSH3 0x786 PUSH1 0x20 SHL PUSH1 0x20 SHR JUMP JUMPDEST POP JUMP JUMPDEST PUSH3 0x737 PUSH1 0x7 PUSH3 0x72B PUSH3 0x812 PUSH1 0x20 SHL PUSH1 0x20 SHR JUMP JUMPDEST PUSH3 0x786 PUSH1 0x20 SHL PUSH1 0x20 SHR JUMP JUMPDEST JUMP JUMPDEST POP POP POP JUMP JUMPDEST PUSH1 0x0 DUP1 PUSH1 0x0 DUP4 PUSH20 0xFFFFFFFFFFFFFFFFFFFFFFFFFFFFFFFFFFFFFFFF AND PUSH20 0xFFFFFFFFFFFFFFFFFFFFFFFFFFFFFFFFFFFFFFFF AND DUP2 MSTORE PUSH1 0x20 ADD SWAP1 DUP2 MSTORE PUSH1 0x20 ADD PUSH1 0x0 KECCAK256 SLOAD SWAP1 POP SWAP2 SWAP1 POP JUMP JUMPDEST PUSH1 0x0 PUSH3 0x798 PUSH3 0x81C PUSH1 0x20 SHL PUSH1 0x20 SHR JUMP JUMPDEST SWAP1 POP DUP1 PUSH3 0x7AF DUP5 PUSH1 0x0 ADD PUSH3 0x83A PUSH1 0x20 SHL PUSH1 0x20 SHR JUMP JUMPDEST LT ISZERO PUSH3 0x80D JUMPI DUP3 PUSH1 0x0 ADD DUP2 SWAP1 DUP1 PUSH1 0x1 DUP2 SLOAD ADD DUP1 DUP3 SSTORE DUP1 SWAP2 POP POP PUSH1 0x1 SWAP1 SUB SWAP1 PUSH1 0x0 MSTORE PUSH1 0x20 PUSH1 0x0 KECCAK256 ADD PUSH1 0x0 SWAP1 SWAP2 SWAP1 SWAP2 SWAP1 SWAP2 POP SSTORE DUP3 PUSH1 0x1 ADD DUP3 SWAP1 DUP1 PUSH1 0x1 DUP2 SLOAD ADD DUP1 DUP3 SSTORE DUP1 SWAP2 POP POP PUSH1 0x1 SWAP1 SUB SWAP1 PUSH1 0x0 MSTORE PUSH1 0x20 PUSH1 0x0 KECCAK256 ADD PUSH1 0x0 SWAP1 SWAP2 SWAP1 SWAP2 SWAP1 SWAP2 POP SSTORE JUMPDEST POP POP POP JUMP JUMPDEST PUSH1 0x0 PUSH1 0x2 SLOAD SWAP1 POP SWAP1 JUMP JUMPDEST PUSH1 0x0 PUSH3 0x835 PUSH1 0x9 PUSH3 0x88D PUSH1 0x20 SHL PUSH3 0x284D OR PUSH1 0x20 SHR JUMP JUMPDEST SWAP1 POP SWAP1 JUMP JUMPDEST PUSH1 0x0 DUP1 DUP3 DUP1 SLOAD SWAP1 POP SUB PUSH3 0x852 JUMPI PUSH1 0x0 SWAP1 POP PUSH3 0x888 JUMP JUMPDEST DUP2 PUSH1 0x1 DUP4 DUP1 SLOAD SWAP1 POP PUSH3 0x866 SWAP2 SWAP1 PUSH3 0xE21 JUMP JUMPDEST DUP2 SLOAD DUP2 LT PUSH3 0x87A JUMPI PUSH3 0x879 PUSH3 0xE5C JUMP JUMPDEST JUMPDEST SWAP1 PUSH1 0x0 MSTORE PUSH1 0x20 PUSH1 0x0 KECCAK256 ADD SLOAD SWAP1 POP JUMPDEST SWAP2 SWAP1 POP JUMP JUMPDEST PUSH1 0x0 DUP2 PUSH1 0x0 ADD SLOAD SWAP1 POP SWAP2 SWAP1 POP JUMP JUMPDEST PUSH1 0x0 DUP2 MLOAD SWAP1 POP SWAP2 SWAP1 POP JUMP JUMPDEST PUSH32 0x4E487B7100000000000000000000000000000000000000000000000000000000 PUSH1 0x0 MSTORE PUSH1 0x41 PUSH1 0x4 MSTORE PUSH1 0x24 PUSH1 0x0 REVERT JUMPDEST PUSH32 0x4E487B7100000000000000000000000000000000000000000000000000000000 PUSH1 0x0 MSTORE PUSH1 0x22 PUSH1 0x4 MSTORE PUSH1 0x24 PUSH1 0x0 REVERT JUMPDEST PUSH1 0x0 PUSH1 0x2 DUP3 DIV SWAP1 POP PUSH1 0x1 DUP3 AND DUP1 PUSH3 0x91D JUMPI PUSH1 0x7F DUP3 AND SWAP2 POP JUMPDEST PUSH1 0x20 DUP3 LT DUP2 SUB PUSH3 0x933 JUMPI PUSH3 0x932 PUSH3 0x8D5 JUMP JUMPDEST JUMPDEST POP SWAP2 SWAP1 POP JUMP JUMPDEST PUSH1 0x0 DUP2 SWAP1 POP DUP2 PUSH1 0x0 MSTORE PUSH1 0x20 PUSH1 0x0 KECCAK256 SWAP1 POP SWAP2 SWAP1 POP JUMP JUMPDEST PUSH1 0x0 PUSH1 0x20 PUSH1 0x1F DUP4 ADD DIV SWAP1 POP SWAP2 SWAP1 POP JUMP JUMPDEST PUSH1 0x0 DUP3 DUP3 SHL SWAP1 POP SWAP3 SWAP2 POP POP JUMP JUMPDEST PUSH1 0x0 PUSH1 0x8 DUP4 MUL PUSH3 0x99D PUSH32 0xFFFFFFFFFFFFFFFFFFFFFFFFFFFFFFFFFFFFFFFFFFFFFFFFFFFFFFFFFFFFFFFF DUP3 PUSH3 0x95E JUMP JUMPDEST PUSH3 0x9A9 DUP7 DUP4 PUSH3 0x95E JUMP JUMPDEST SWAP6 POP DUP1 NOT DUP5 AND SWAP4 POP DUP1 DUP7 AND DUP5 OR SWAP3 POP POP POP SWAP4 SWAP3 POP POP POP JUMP JUMPDEST PUSH1 0x0 DUP2 SWAP1 POP SWAP2 SWAP1 POP JUMP JUMPDEST PUSH1 0x0 DUP2 SWAP1 POP SWAP2 SWAP1 POP JUMP JUMPDEST PUSH1 0x0 PUSH3 0x9F6 PUSH3 0x9F0 PUSH3 0x9EA DUP5 PUSH3 0x9C1 JUMP JUMPDEST PUSH3 0x9CB JUMP JUMPDEST PUSH3 0x9C1 JUMP JUMPDEST SWAP1 POP SWAP2 SWAP1 POP JUMP JUMPDEST PUSH1 0x0 DUP2 SWAP1 POP SWAP2 SWAP1 POP JUMP JUMPDEST PUSH3 0xA12 DUP4 PUSH3 0x9D5 JUMP JUMPDEST PUSH3 0xA2A PUSH3 0xA21 DUP3 PUSH3 0x9FD JUMP JUMPDEST DUP5 DUP5 SLOAD PUSH3 0x96B JUMP JUMPDEST DUP3 SSTORE POP POP POP POP JUMP JUMPDEST PUSH1 0x0 SWAP1 JUMP JUMPDEST PUSH3 0xA41 PUSH3 0xA32 JUMP JUMPDEST PUSH3 0xA4E DUP2 DUP5 DUP5 PUSH3 0xA07 JUMP JUMPDEST POP POP POP JUMP JUMPDEST JUMPDEST DUP2 DUP2 LT ISZERO PUSH3 0xA76 JUMPI PUSH3 0xA6A PUSH1 0x0 DUP3 PUSH3 0xA37 JUMP JUMPDEST PUSH1 0x1 DUP2 ADD SWAP1 POP PUSH3 0xA54 JUMP JUMPDEST POP POP JUMP JUMPDEST PUSH1 0x1F DUP3 GT ISZERO PUSH3 0xAC5 JUMPI PUSH3 0xA8F DUP2 PUSH3 0x939 JUMP JUMPDEST PUSH3 0xA9A DUP5 PUSH3 0x94E JUMP JUMPDEST DUP2 ADD PUSH1 0x20 DUP6 LT ISZERO PUSH3 0xAAA JUMPI DUP2 SWAP1 POP JUMPDEST PUSH3 0xAC2 PUSH3 0xAB9 DUP6 PUSH3 0x94E JUMP JUMPDEST DUP4 ADD DUP3 PUSH3 0xA53 JUMP JUMPDEST POP POP JUMPDEST POP POP POP JUMP JUMPDEST PUSH1 0x0 DUP3 DUP3 SHR SWAP1 POP SWAP3 SWAP2 POP POP JUMP JUMPDEST PUSH1 0x0 PUSH3 0xAEA PUSH1 0x0 NOT DUP5 PUSH1 0x8 MUL PUSH3 0xACA JUMP JUMPDEST NOT DUP1 DUP4 AND SWAP2 POP POP SWAP3 SWAP2 POP POP JUMP JUMPDEST PUSH1 0x0 PUSH3 0xB05 DUP4 DUP4 PUSH3 0xAD7 JUMP JUMPDEST SWAP2 POP DUP3 PUSH1 0x2 MUL DUP3 OR SWAP1 POP SWAP3 SWAP2 POP POP JUMP JUMPDEST PUSH3 0xB20 DUP3 PUSH3 0x89B JUMP JUMPDEST PUSH8 0xFFFFFFFFFFFFFFFF DUP2 GT ISZERO PUSH3 0xB3C JUMPI PUSH3 0xB3B PUSH3 0x8A6 JUMP JUMPDEST JUMPDEST PUSH3 0xB48 DUP3 SLOAD PUSH3 0x904 JUMP JUMPDEST PUSH3 0xB55 DUP3 DUP3 DUP6 PUSH3 0xA7A JUMP JUMPDEST PUSH1 0x0 PUSH1 0x20 SWAP1 POP PUSH1 0x1F DUP4 GT PUSH1 0x1 DUP2 EQ PUSH3 0xB8D JUMPI PUSH1 0x0 DUP5 ISZERO PUSH3 0xB78 JUMPI DUP3 DUP8 ADD MLOAD SWAP1 POP JUMPDEST PUSH3 0xB84 DUP6 DUP3 PUSH3 0xAF7 JUMP JUMPDEST DUP7 SSTORE POP PUSH3 0xBF4 JUMP JUMPDEST PUSH1 0x1F NOT DUP5 AND PUSH3 0xB9D DUP7 PUSH3 0x939 JUMP JUMPDEST PUSH1 0x0 JUMPDEST DUP3 DUP2 LT ISZERO PUSH3 0xBC7 JUMPI DUP5 DUP10 ADD MLOAD DUP3 SSTORE PUSH1 0x1 DUP3 ADD SWAP2 POP PUSH1 0x20 DUP6 ADD SWAP5 POP PUSH1 0x20 DUP2 ADD SWAP1 POP PUSH3 0xBA0 JUMP JUMPDEST DUP7 DUP4 LT ISZERO PUSH3 0xBE7 JUMPI DUP5 DUP10 ADD MLOAD PUSH3 0xBE3 PUSH1 0x1F DUP10 AND DUP3 PUSH3 0xAD7 JUMP JUMPDEST DUP4 SSTORE POP JUMPDEST PUSH1 0x1 PUSH1 0x2 DUP9 MUL ADD DUP9 SSTORE POP POP POP JUMPDEST POP POP POP POP POP POP JUMP JUMPDEST PUSH1 0x0 DUP3 DUP3 MSTORE PUSH1 0x20 DUP3 ADD SWAP1 POP SWAP3 SWAP2 POP POP JUMP JUMPDEST PUSH32 0x45524332303A206D696E7420746F20746865207A65726F206164647265737300 PUSH1 0x0 DUP3 ADD MSTORE POP JUMP JUMPDEST PUSH1 0x0 PUSH3 0xC45 PUSH1 0x1F DUP4 PUSH3 0xBFC JUMP JUMPDEST SWAP2 POP PUSH3 0xC52 DUP3 PUSH3 0xC0D JUMP JUMPDEST PUSH1 0x20 DUP3 ADD SWAP1 POP SWAP2 SWAP1 POP JUMP JUMPDEST PUSH1 0x0 PUSH1 0x20 DUP3 ADD SWAP1 POP DUP2 DUP2 SUB PUSH1 0x0 DUP4 ADD MSTORE PUSH3 0xC78 DUP2 PUSH3 0xC36 JUMP JUMPDEST SWAP1 POP SWAP2 SWAP1 POP JUMP JUMPDEST PUSH32 0x4E487B7100000000000000000000000000000000000000000000000000000000 PUSH1 0x0 MSTORE PUSH1 0x11 PUSH1 0x4 MSTORE PUSH1 0x24 PUSH1 0x0 REVERT JUMPDEST PUSH1 0x0 PUSH3 0xCBB DUP3 PUSH3 0x9C1 JUMP JUMPDEST SWAP2 POP PUSH3 0xCC8 DUP4 PUSH3 0x9C1 JUMP JUMPDEST SWAP3 POP DUP3 DUP3 ADD SWAP1 POP DUP1 DUP3 GT ISZERO PUSH3 0xCE3 JUMPI PUSH3 0xCE2 PUSH3 0xC7F JUMP JUMPDEST JUMPDEST SWAP3 SWAP2 POP POP JUMP JUMPDEST PUSH3 0xCF4 DUP2 PUSH3 0x9C1 JUMP JUMPDEST DUP3 MSTORE POP POP JUMP JUMPDEST PUSH1 0x0 PUSH1 0x20 DUP3 ADD SWAP1 POP PUSH3 0xD11 PUSH1 0x0 DUP4 ADD DUP5 PUSH3 0xCE9 JUMP JUMPDEST SWAP3 SWAP2 POP POP JUMP JUMPDEST PUSH32 0x5061757361626C653A2070617573656400000000000000000000000000000000 PUSH1 0x0 DUP3 ADD MSTORE POP JUMP JUMPDEST PUSH1 0x0 PUSH3 0xD4F PUSH1 0x10 DUP4 PUSH3 0xBFC JUMP JUMPDEST SWAP2 POP PUSH3 0xD5C DUP3 PUSH3 0xD17 JUMP JUMPDEST PUSH1 0x20 DUP3 ADD SWAP1 POP SWAP2 SWAP1 POP JUMP JUMPDEST PUSH1 0x0 PUSH1 0x20 DUP3 ADD SWAP1 POP DUP2 DUP2 SUB PUSH1 0x0 DUP4 ADD MSTORE PUSH3 0xD82 DUP2 PUSH3 0xD40 JUMP JUMPDEST SWAP1 POP SWAP2 SWAP1 POP JUMP JUMPDEST PUSH32 0x45524332305061757361626C653A20746F6B656E207472616E73666572207768 PUSH1 0x0 DUP3 ADD MSTORE PUSH32 0x696C652070617573656400000000000000000000000000000000000000000000 PUSH1 0x20 DUP3 ADD MSTORE POP JUMP JUMPDEST PUSH1 0x0 PUSH3 0xDE7 PUSH1 0x2A DUP4 PUSH3 0xBFC JUMP JUMPDEST SWAP2 POP PUSH3 0xDF4 DUP3 PUSH3 0xD89 JUMP JUMPDEST PUSH1 0x40 DUP3 ADD SWAP1 POP SWAP2 SWAP1 POP JUMP JUMPDEST PUSH1 0x0 PUSH1 0x20 DUP3 ADD SWAP1 POP DUP2 DUP2 SUB PUSH1 0x0 DUP4 ADD MSTORE PUSH3 0xE1A DUP2 PUSH3 0xDD8 JUMP JUMPDEST SWAP1 POP SWAP2 SWAP1 POP JUMP JUMPDEST PUSH1 0x0 PUSH3 0xE2E DUP3 PUSH3 0x9C1 JUMP JUMPDEST SWAP2 POP PUSH3 0xE3B DUP4 PUSH3 0x9C1 JUMP JUMPDEST SWAP3 POP DUP3 DUP3 SUB SWAP1 POP DUP2 DUP2 GT ISZERO PUSH3 0xE56 JUMPI PUSH3 0xE55 PUSH3 0xC7F JUMP JUMPDEST JUMPDEST SWAP3 SWAP2 POP POP JUMP JUMPDEST PUSH32 0x4E487B7100000000000000000000000000000000000000000000000000000000 PUSH1 0x0 MSTORE PUSH1 0x32 PUSH1 0x4 MSTORE PUSH1 0x24 PUSH1 0x0 REVERT JUMPDEST PUSH2 0x59E1 DUP1 PUSH3 0xE9B PUSH1 0x0 CODECOPY PUSH1 0x0 RETURN INVALID PUSH1 0x80 PUSH1 0x40 MSTORE PUSH1 0x4 CALLDATASIZE LT PUSH2 0x3BC JUMPI PUSH1 0x0 CALLDATALOAD PUSH1 0xE0 SHR DUP1 PUSH4 0x733B864F GT PUSH2 0x1F2 JUMPI DUP1 PUSH4 0xB1216786 GT PUSH2 0x10D JUMPI DUP1 PUSH4 0xDD62ED3E GT PUSH2 0xA0 JUMPI DUP1 PUSH4 0xF29F69F0 GT PUSH2 0x6F JUMPI DUP1 PUSH4 0xF29F69F0 EQ PUSH2 0xDA9 JUMPI DUP1 PUSH4 0xF2FDE38B EQ PUSH2 0xDD4 JUMPI DUP1 PUSH4 0xFAC5066A EQ PUSH2 0xDFD JUMPI DUP1 PUSH4 0xFE575A87 EQ PUSH2 0xE28 JUMPI PUSH2 0x3C3 JUMP JUMPDEST DUP1 PUSH4 0xDD62ED3E EQ PUSH2 0xD01 JUMPI DUP1 PUSH4 0xE086E5EC EQ PUSH2 0xD3E JUMPI DUP1 PUSH4 0xE7D30B4F EQ PUSH2 0xD55 JUMPI DUP1 PUSH4 0xF005F2CA EQ PUSH2 0xD7E JUMPI PUSH2 0x3C3 JUMP JUMPDEST DUP1 PUSH4 0xCEE36053 GT PUSH2 0xDC JUMPI DUP1 PUSH4 0xCEE36053 EQ PUSH2 0xC5B JUMPI DUP1 PUSH4 0xCFEFD79E EQ PUSH2 0xC84 JUMPI DUP1 PUSH4 0xD082EA8C EQ PUSH2 0xCAD JUMPI DUP1 PUSH4 0xD54F7D5E EQ PUSH2 0xCD6 JUMPI PUSH2 0x3C3 JUMP JUMPDEST DUP1 PUSH4 0xB1216786 EQ PUSH2 0xB9D JUMPI DUP1 PUSH4 0xB79CB2A0 EQ PUSH2 0xBC8 JUMPI DUP1 PUSH4 0xC7263895 EQ PUSH2 0xBF3 JUMPI DUP1 PUSH4 0xCBA0E996 EQ PUSH2 0xC1E JUMPI PUSH2 0x3C3 JUMP JUMPDEST DUP1 PUSH4 0x95D89B41 GT PUSH2 0x185 JUMPI DUP1 PUSH4 0xA457C2D7 GT PUSH2 0x154 JUMPI DUP1 PUSH4 0xA457C2D7 EQ PUSH2 0xACF JUMPI DUP1 PUSH4 0xA9059CBB EQ PUSH2 0xB0C JUMPI DUP1 PUSH4 0xABE4F11D EQ PUSH2 0xB49 JUMPI DUP1 PUSH4 0xB0BC85DE EQ PUSH2 0xB72 JUMPI PUSH2 0x3C3 JUMP JUMPDEST DUP1 PUSH4 0x95D89B41 EQ PUSH2 0xA13 JUMPI DUP1 PUSH4 0x970875CE EQ PUSH2 0xA3E JUMPI DUP1 PUSH4 0x981B24D0 EQ PUSH2 0xA69 JUMPI DUP1 PUSH4 0x9D0014B1 EQ PUSH2 0xAA6 JUMPI PUSH2 0x3C3 JUMP JUMPDEST DUP1 PUSH4 0x8D5F81E2 GT PUSH2 0x1C1 JUMPI DUP1 PUSH4 0x8D5F81E2 EQ PUSH2 0x96B JUMPI DUP1 PUSH4 0x8D91CCA1 EQ PUSH2 0x996 JUMPI DUP1 PUSH4 0x8DA5CB5B EQ PUSH2 0x9BF JUMPI DUP1 PUSH4 0x93818CFA EQ PUSH2 0x9EA JUMPI PUSH2 0x3C3 JUMP JUMPDEST DUP1 PUSH4 0x733B864F EQ PUSH2 0x8E9 JUMPI DUP1 PUSH4 0x79CC6790 EQ PUSH2 0x900 JUMPI DUP1 PUSH4 0x7A367D06 EQ PUSH2 0x929 JUMPI DUP1 PUSH4 0x8456CB59 EQ PUSH2 0x954 JUMPI PUSH2 0x3C3 JUMP JUMPDEST DUP1 PUSH4 0x41CB87FC GT PUSH2 0x2E2 JUMPI DUP1 PUSH4 0x5C975ABB GT PUSH2 0x275 JUMPI DUP1 PUSH4 0x6D51D473 GT PUSH2 0x244 JUMPI DUP1 PUSH4 0x6D51D473 EQ PUSH2 0x843 JUMPI DUP1 PUSH4 0x70A08231 EQ PUSH2 0x86C JUMPI DUP1 PUSH4 0x715018A6 EQ PUSH2 0x8A9 JUMPI DUP1 PUSH4 0x717A8651 EQ PUSH2 0x8C0 JUMPI PUSH2 0x3C3 JUMP JUMPDEST DUP1 PUSH4 0x5C975ABB EQ PUSH2 0x799 JUMPI DUP1 PUSH4 0x6081752B EQ PUSH2 0x7C4 JUMPI DUP1 PUSH4 0x691DCAD5 EQ PUSH2 0x7ED JUMPI DUP1 PUSH4 0x6C010427 EQ PUSH2 0x818 JUMPI PUSH2 0x3C3 JUMP JUMPDEST DUP1 PUSH4 0x4EE2CD7E GT PUSH2 0x2B1 JUMPI DUP1 PUSH4 0x4EE2CD7E EQ PUSH2 0x6E1 JUMPI DUP1 PUSH4 0x4FEBF53D EQ PUSH2 0x71E JUMPI DUP1 PUSH4 0x503FA890 EQ PUSH2 0x747 JUMPI DUP1 PUSH4 0x5692717E EQ PUSH2 0x770 JUMPI PUSH2 0x3C3 JUMP JUMPDEST DUP1 PUSH4 0x41CB87FC EQ PUSH2 0x63D JUMPI DUP1 PUSH4 0x42966C68 EQ PUSH2 0x666 JUMPI DUP1 PUSH4 0x49ABDC14 EQ PUSH2 0x68F JUMPI DUP1 PUSH4 0x49DF728C EQ PUSH2 0x6B8 JUMPI PUSH2 0x3C3 JUMP JUMPDEST DUP1 PUSH4 0x230F01BF GT PUSH2 0x35A JUMPI DUP1 PUSH4 0x313CE567 GT PUSH2 0x329 JUMPI DUP1 PUSH4 0x313CE567 EQ PUSH2 0x5A2 JUMPI DUP1 PUSH4 0x39509351 EQ PUSH2 0x5CD JUMPI DUP1 PUSH4 0x3F4BA83A EQ PUSH2 0x60A JUMPI DUP1 PUSH4 0x3F6C518D EQ PUSH2 0x621 JUMPI PUSH2 0x3C3 JUMP JUMPDEST DUP1 PUSH4 0x230F01BF EQ PUSH2 0x4F3 JUMPI DUP1 PUSH4 0x23B872DD EQ PUSH2 0x51E JUMPI DUP1 PUSH4 0x252D723A EQ PUSH2 0x55B JUMPI DUP1 PUSH4 0x296F0A0C EQ PUSH2 0x586 JUMPI PUSH2 0x3C3 JUMP JUMPDEST DUP1 PUSH4 0x1504D8F0 GT PUSH2 0x396 JUMPI DUP1 PUSH4 0x1504D8F0 EQ PUSH2 0x45B JUMPI DUP1 PUSH4 0x18160DDD EQ PUSH2 0x472 JUMPI DUP1 PUSH4 0x1ABFA629 EQ PUSH2 0x49D JUMPI DUP1 PUSH4 0x1AE646AE EQ PUSH2 0x4C8 JUMPI PUSH2 0x3C3 JUMP JUMPDEST DUP1 PUSH4 0x103982D EQ PUSH2 0x3C8 JUMPI DUP1 PUSH4 0x6FDDE03 EQ PUSH2 0x3F3 JUMPI DUP1 PUSH4 0x95EA7B3 EQ PUSH2 0x41E JUMPI PUSH2 0x3C3 JUMP JUMPDEST CALLDATASIZE PUSH2 0x3C3 JUMPI STOP JUMPDEST PUSH1 0x0 DUP1 REVERT JUMPDEST CALLVALUE DUP1 ISZERO PUSH2 0x3D4 JUMPI PUSH1 0x0 DUP1 REVERT JUMPDEST POP PUSH2 0x3DD PUSH2 0xE65 JUMP JUMPDEST PUSH1 0x40 MLOAD PUSH2 0x3EA SWAP2 SWAP1 PUSH2 0x44C7 JUMP JUMPDEST PUSH1 0x40 MLOAD DUP1 SWAP2 SUB SWAP1 RETURN JUMPDEST CALLVALUE DUP1 ISZERO PUSH2 0x3FF JUMPI PUSH1 0x0 DUP1 REVERT JUMPDEST POP PUSH2 0x408 PUSH2 0xE8F JUMP JUMPDEST PUSH1 0x40 MLOAD PUSH2 0x415 SWAP2 SWAP1 PUSH2 0x4572 JUMP JUMPDEST PUSH1 0x40 MLOAD DUP1 SWAP2 SUB SWAP1 RETURN JUMPDEST CALLVALUE DUP1 ISZERO PUSH2 0x42A JUMPI PUSH1 0x0 DUP1 REVERT JUMPDEST POP PUSH2 0x445 PUSH1 0x4 DUP1 CALLDATASIZE SUB DUP2 ADD SWAP1 PUSH2 0x440 SWAP2 SWAP1 PUSH2 0x460A JUMP JUMPDEST PUSH2 0xF21 JUMP JUMPDEST PUSH1 0x40 MLOAD PUSH2 0x452 SWAP2 SWAP1 PUSH2 0x4665 JUMP JUMPDEST PUSH1 0x40 MLOAD DUP1 SWAP2 SUB SWAP1 RETURN JUMPDEST CALLVALUE DUP1 ISZERO PUSH2 0x467 JUMPI PUSH1 0x0 DUP1 REVERT JUMPDEST POP PUSH2 0x470 PUSH2 0xF44 JUMP JUMPDEST STOP JUMPDEST CALLVALUE DUP1 ISZERO PUSH2 0x47E JUMPI PUSH1 0x0 DUP1 REVERT JUMPDEST POP PUSH2 0x487 PUSH2 0xF57 JUMP JUMPDEST PUSH1 0x40 MLOAD PUSH2 0x494 SWAP2 SWAP1 PUSH2 0x468F JUMP JUMPDEST PUSH1 0x40 MLOAD DUP1 SWAP2 SUB SWAP1 RETURN JUMPDEST CALLVALUE DUP1 ISZERO PUSH2 0x4A9 JUMPI PUSH1 0x0 DUP1 REVERT JUMPDEST POP PUSH2 0x4B2 PUSH2 0xF61 JUMP JUMPDEST PUSH1 0x40 MLOAD PUSH2 0x4BF SWAP2 SWAP1 PUSH2 0x44C7 JUMP JUMPDEST PUSH1 0x40 MLOAD DUP1 SWAP2 SUB SWAP1 RETURN JUMPDEST CALLVALUE DUP1 ISZERO PUSH2 0x4D4 JUMPI PUSH1 0x0 DUP1 REVERT JUMPDEST POP PUSH2 0x4DD PUSH2 0xF8B JUMP JUMPDEST PUSH1 0x40 MLOAD PUSH2 0x4EA SWAP2 SWAP1 PUSH2 0x468F JUMP JUMPDEST PUSH1 0x40 MLOAD DUP1 SWAP2 SUB SWAP1 RETURN JUMPDEST CALLVALUE DUP1 ISZERO PUSH2 0x4FF JUMPI PUSH1 0x0 DUP1 REVERT JUMPDEST POP PUSH2 0x508 PUSH2 0xFA7 JUMP JUMPDEST PUSH1 0x40 MLOAD PUSH2 0x515 SWAP2 SWAP1 PUSH2 0x468F JUMP JUMPDEST PUSH1 0x40 MLOAD DUP1 SWAP2 SUB SWAP1 RETURN JUMPDEST CALLVALUE DUP1 ISZERO PUSH2 0x52A JUMPI PUSH1 0x0 DUP1 REVERT JUMPDEST POP PUSH2 0x545 PUSH1 0x4 DUP1 CALLDATASIZE SUB DUP2 ADD SWAP1 PUSH2 0x540 SWAP2 SWAP1 PUSH2 0x46AA JUMP JUMPDEST PUSH2 0xFB1 JUMP JUMPDEST PUSH1 0x40 MLOAD PUSH2 0x552 SWAP2 SWAP1 PUSH2 0x4665 JUMP JUMPDEST PUSH1 0x40 MLOAD DUP1 SWAP2 SUB SWAP1 RETURN JUMPDEST CALLVALUE DUP1 ISZERO PUSH2 0x567 JUMPI PUSH1 0x0 DUP1 REVERT JUMPDEST POP PUSH2 0x570 PUSH2 0xFE0 JUMP JUMPDEST PUSH1 0x40 MLOAD PUSH2 0x57D SWAP2 SWAP1 PUSH2 0x468F JUMP JUMPDEST PUSH1 0x40 MLOAD DUP1 SWAP2 SUB SWAP1 RETURN JUMPDEST PUSH2 0x5A0 PUSH1 0x4 DUP1 CALLDATASIZE SUB DUP2 ADD SWAP1 PUSH2 0x59B SWAP2 SWAP1 PUSH2 0x46FD JUMP JUMPDEST PUSH2 0xFFA JUMP JUMPDEST STOP JUMPDEST CALLVALUE DUP1 ISZERO PUSH2 0x5AE JUMPI PUSH1 0x0 DUP1 REVERT JUMPDEST POP PUSH2 0x5B7 PUSH2 0x10E5 JUMP JUMPDEST PUSH1 0x40 MLOAD PUSH2 0x5C4 SWAP2 SWAP1 PUSH2 0x4746 JUMP JUMPDEST PUSH1 0x40 MLOAD DUP1 SWAP2 SUB SWAP1 RETURN JUMPDEST CALLVALUE DUP1 ISZERO PUSH2 0x5D9 JUMPI PUSH1 0x0 DUP1 REVERT JUMPDEST POP PUSH2 0x5F4 PUSH1 0x4 DUP1 CALLDATASIZE SUB DUP2 ADD SWAP1 PUSH2 0x5EF SWAP2 SWAP1 PUSH2 0x460A JUMP JUMPDEST PUSH2 0x10EE JUMP JUMPDEST PUSH1 0x40 MLOAD PUSH2 0x601 SWAP2 SWAP1 PUSH2 0x4665 JUMP JUMPDEST PUSH1 0x40 MLOAD DUP1 SWAP2 SUB SWAP1 RETURN JUMPDEST CALLVALUE DUP1 ISZERO PUSH2 0x616 JUMPI PUSH1 0x0 DUP1 REVERT JUMPDEST POP PUSH2 0x61F PUSH2 0x1125 JUMP JUMPDEST STOP JUMPDEST PUSH2 0x63B PUSH1 0x4 DUP1 CALLDATASIZE SUB DUP2 ADD SWAP1 PUSH2 0x636 SWAP2 SWAP1 PUSH2 0x4761 JUMP JUMPDEST PUSH2 0x1175 JUMP JUMPDEST STOP JUMPDEST CALLVALUE DUP1 ISZERO PUSH2 0x649 JUMPI PUSH1 0x0 DUP1 REVERT JUMPDEST POP PUSH2 0x664 PUSH1 0x4 DUP1 CALLDATASIZE SUB DUP2 ADD SWAP1 PUSH2 0x65F SWAP2 SWAP1 PUSH2 0x46FD JUMP JUMPDEST PUSH2 0x11D6 JUMP JUMPDEST STOP JUMPDEST CALLVALUE DUP1 ISZERO PUSH2 0x672 JUMPI PUSH1 0x0 DUP1 REVERT JUMPDEST POP PUSH2 0x68D PUSH1 0x4 DUP1 CALLDATASIZE SUB DUP2 ADD SWAP1 PUSH2 0x688 SWAP2 SWAP1 PUSH2 0x4761 JUMP JUMPDEST PUSH2 0x16A2 JUMP JUMPDEST STOP JUMPDEST CALLVALUE DUP1 ISZERO PUSH2 0x69B JUMPI PUSH1 0x0 DUP1 REVERT JUMPDEST POP PUSH2 0x6B6 PUSH1 0x4 DUP1 CALLDATASIZE SUB DUP2 ADD SWAP1 PUSH2 0x6B1 SWAP2 SWAP1 PUSH2 0x47BA JUMP JUMPDEST PUSH2 0x16B6 JUMP JUMPDEST STOP JUMPDEST CALLVALUE DUP1 ISZERO PUSH2 0x6C4 JUMPI PUSH1 0x0 DUP1 REVERT JUMPDEST POP PUSH2 0x6DF PUSH1 0x4 DUP1 CALLDATASIZE SUB DUP2 ADD SWAP1 PUSH2 0x6DA SWAP2 SWAP1 PUSH2 0x46FD JUMP JUMPDEST PUSH2 0x1725 JUMP JUMPDEST STOP JUMPDEST CALLVALUE DUP1 ISZERO PUSH2 0x6ED JUMPI PUSH1 0x0 DUP1 REVERT JUMPDEST POP PUSH2 0x708 PUSH1 0x4 DUP1 CALLDATASIZE SUB DUP2 ADD SWAP1 PUSH2 0x703 SWAP2 SWAP1 PUSH2 0x460A JUMP JUMPDEST PUSH2 0x182E JUMP JUMPDEST PUSH1 0x40 MLOAD PUSH2 0x715 SWAP2 SWAP1 PUSH2 0x468F JUMP JUMPDEST PUSH1 0x40 MLOAD DUP1 SWAP2 SUB SWAP1 RETURN JUMPDEST CALLVALUE DUP1 ISZERO PUSH2 0x72A JUMPI PUSH1 0x0 DUP1 REVERT JUMPDEST POP PUSH2 0x745 PUSH1 0x4 DUP1 CALLDATASIZE SUB DUP2 ADD SWAP1 PUSH2 0x740 SWAP2 SWAP1 PUSH2 0x46FD JUMP JUMPDEST PUSH2 0x189E JUMP JUMPDEST STOP JUMPDEST CALLVALUE DUP1 ISZERO PUSH2 0x753 JUMPI PUSH1 0x0 DUP1 REVERT JUMPDEST POP PUSH2 0x76E PUSH1 0x4 DUP1 CALLDATASIZE SUB DUP2 ADD SWAP1 PUSH2 0x769 SWAP2 SWAP1 PUSH2 0x4821 JUMP JUMPDEST PUSH2 0x194C JUMP JUMPDEST STOP JUMPDEST CALLVALUE DUP1 ISZERO PUSH2 0x77C JUMPI PUSH1 0x0 DUP1 REVERT JUMPDEST POP PUSH2 0x797 PUSH1 0x4 DUP1 CALLDATASIZE SUB DUP2 ADD SWAP1 PUSH2 0x792 SWAP2 SWAP1 PUSH2 0x4821 JUMP JUMPDEST PUSH2 0x1974 JUMP JUMPDEST STOP JUMPDEST CALLVALUE DUP1 ISZERO PUSH2 0x7A5 JUMPI PUSH1 0x0 DUP1 REVERT JUMPDEST POP PUSH2 0x7AE PUSH2 0x199C JUMP JUMPDEST PUSH1 0x40 MLOAD PUSH2 0x7BB SWAP2 SWAP1 PUSH2 0x4665 JUMP JUMPDEST PUSH1 0x40 MLOAD DUP1 SWAP2 SUB SWAP1 RETURN JUMPDEST CALLVALUE DUP1 ISZERO PUSH2 0x7D0 JUMPI PUSH1 0x0 DUP1 REVERT JUMPDEST POP PUSH2 0x7EB PUSH1 0x4 DUP1 CALLDATASIZE SUB DUP2 ADD SWAP1 PUSH2 0x7E6 SWAP2 SWAP1 PUSH2 0x47BA JUMP JUMPDEST PUSH2 0x19B3 JUMP JUMPDEST STOP JUMPDEST CALLVALUE DUP1 ISZERO PUSH2 0x7F9 JUMPI PUSH1 0x0 DUP1 REVERT JUMPDEST POP PUSH2 0x802 PUSH2 0x1A22 JUMP JUMPDEST PUSH1 0x40 MLOAD PUSH2 0x80F SWAP2 SWAP1 PUSH2 0x44C7 JUMP JUMPDEST PUSH1 0x40 MLOAD DUP1 SWAP2 SUB SWAP1 RETURN JUMPDEST CALLVALUE DUP1 ISZERO PUSH2 0x824 JUMPI PUSH1 0x0 DUP1 REVERT JUMPDEST POP PUSH2 0x82D PUSH2 0x1A4C JUMP JUMPDEST PUSH1 0x40 MLOAD PUSH2 0x83A SWAP2 SWAP1 PUSH2 0x44C7 JUMP JUMPDEST PUSH1 0x40 MLOAD DUP1 SWAP2 SUB SWAP1 RETURN JUMPDEST CALLVALUE DUP1 ISZERO PUSH2 0x84F JUMPI PUSH1 0x0 DUP1 REVERT JUMPDEST POP PUSH2 0x86A PUSH1 0x4 DUP1 CALLDATASIZE SUB DUP2 ADD SWAP1 PUSH2 0x865 SWAP2 SWAP1 PUSH2 0x46FD JUMP JUMPDEST PUSH2 0x1A76 JUMP JUMPDEST STOP JUMPDEST CALLVALUE DUP1 ISZERO PUSH2 0x878 JUMPI PUSH1 0x0 DUP1 REVERT JUMPDEST POP PUSH2 0x893 PUSH1 0x4 DUP1 CALLDATASIZE SUB DUP2 ADD SWAP1 PUSH2 0x88E SWAP2 SWAP1 PUSH2 0x46FD JUMP JUMPDEST PUSH2 0x1B61 JUMP JUMPDEST PUSH1 0x40 MLOAD PUSH2 0x8A0 SWAP2 SWAP1 PUSH2 0x468F JUMP JUMPDEST PUSH1 0x40 MLOAD DUP1 SWAP2 SUB SWAP1 RETURN JUMPDEST CALLVALUE DUP1 ISZERO PUSH2 0x8B5 JUMPI PUSH1 0x0 DUP1 REVERT JUMPDEST POP PUSH2 0x8BE PUSH2 0x1BA9 JUMP JUMPDEST STOP JUMPDEST CALLVALUE DUP1 ISZERO PUSH2 0x8CC JUMPI PUSH1 0x0 DUP1 REVERT JUMPDEST POP PUSH2 0x8E7 PUSH1 0x4 DUP1 CALLDATASIZE SUB DUP2 ADD SWAP1 PUSH2 0x8E2 SWAP2 SWAP1 PUSH2 0x46FD JUMP JUMPDEST PUSH2 0x1BBD JUMP JUMPDEST STOP JUMPDEST CALLVALUE DUP1 ISZERO PUSH2 0x8F5 JUMPI PUSH1 0x0 DUP1 REVERT JUMPDEST POP PUSH2 0x8FE PUSH2 0x1CAF JUMP JUMPDEST STOP JUMPDEST CALLVALUE DUP1 ISZERO PUSH2 0x90C JUMPI PUSH1 0x0 DUP1 REVERT JUMPDEST POP PUSH2 0x927 PUSH1 0x4 DUP1 CALLDATASIZE SUB DUP2 ADD SWAP1 PUSH2 0x922 SWAP2 SWAP1 PUSH2 0x460A JUMP JUMPDEST PUSH2 0x1CF8 JUMP JUMPDEST STOP JUMPDEST CALLVALUE DUP1 ISZERO PUSH2 0x935 JUMPI PUSH1 0x0 DUP1 REVERT JUMPDEST POP PUSH2 0x93E PUSH2 0x1D18 JUMP JUMPDEST PUSH1 0x40 MLOAD PUSH2 0x94B SWAP2 SWAP1 PUSH2 0x44C7 JUMP JUMPDEST PUSH1 0x40 MLOAD DUP1 SWAP2 SUB SWAP1 RETURN JUMPDEST CALLVALUE DUP1 ISZERO PUSH2 0x960 JUMPI PUSH1 0x0 DUP1 REVERT JUMPDEST POP PUSH2 0x969 PUSH2 0x1D42 JUMP JUMPDEST STOP JUMPDEST CALLVALUE DUP1 ISZERO PUSH2 0x977 JUMPI PUSH1 0x0 DUP1 REVERT JUMPDEST POP PUSH2 0x980 PUSH2 0x1D93 JUMP JUMPDEST PUSH1 0x40 MLOAD PUSH2 0x98D SWAP2 SWAP1 PUSH2 0x44C7 JUMP JUMPDEST PUSH1 0x40 MLOAD DUP1 SWAP2 SUB SWAP1 RETURN JUMPDEST CALLVALUE DUP1 ISZERO PUSH2 0x9A2 JUMPI PUSH1 0x0 DUP1 REVERT JUMPDEST POP PUSH2 0x9BD PUSH1 0x4 DUP1 CALLDATASIZE SUB DUP2 ADD SWAP1 PUSH2 0x9B8 SWAP2 SWAP1 PUSH2 0x46FD JUMP JUMPDEST PUSH2 0x1DBD JUMP JUMPDEST STOP JUMPDEST CALLVALUE DUP1 ISZERO PUSH2 0x9CB JUMPI PUSH1 0x0 DUP1 REVERT JUMPDEST POP PUSH2 0x9D4 PUSH2 0x1EA8 JUMP JUMPDEST PUSH1 0x40 MLOAD PUSH2 0x9E1 SWAP2 SWAP1 PUSH2 0x44C7 JUMP JUMPDEST PUSH1 0x40 MLOAD DUP1 SWAP2 SUB SWAP1 RETURN JUMPDEST CALLVALUE DUP1 ISZERO PUSH2 0x9F6 JUMPI PUSH1 0x0 DUP1 REVERT JUMPDEST POP PUSH2 0xA11 PUSH1 0x4 DUP1 CALLDATASIZE SUB DUP2 ADD SWAP1 PUSH2 0xA0C SWAP2 SWAP1 PUSH2 0x487A JUMP JUMPDEST PUSH2 0x1ED2 JUMP JUMPDEST STOP JUMPDEST CALLVALUE DUP1 ISZERO PUSH2 0xA1F JUMPI PUSH1 0x0 DUP1 REVERT JUMPDEST POP PUSH2 0xA28 PUSH2 0x1EF7 JUMP JUMPDEST PUSH1 0x40 MLOAD PUSH2 0xA35 SWAP2 SWAP1 PUSH2 0x4572 JUMP JUMPDEST PUSH1 0x40 MLOAD DUP1 SWAP2 SUB SWAP1 RETURN JUMPDEST CALLVALUE DUP1 ISZERO PUSH2 0xA4A JUMPI PUSH1 0x0 DUP1 REVERT JUMPDEST POP PUSH2 0xA53 PUSH2 0x1F89 JUMP JUMPDEST PUSH1 0x40 MLOAD PUSH2 0xA60 SWAP2 SWAP1 PUSH2 0x468F JUMP JUMPDEST PUSH1 0x40 MLOAD DUP1 SWAP2 SUB SWAP1 RETURN JUMPDEST CALLVALUE DUP1 ISZERO PUSH2 0xA75 JUMPI PUSH1 0x0 DUP1 REVERT JUMPDEST POP PUSH2 0xA90 PUSH1 0x4 DUP1 CALLDATASIZE SUB DUP2 ADD SWAP1 PUSH2 0xA8B SWAP2 SWAP1 PUSH2 0x4761 JUMP JUMPDEST PUSH2 0x1F98 JUMP JUMPDEST PUSH1 0x40 MLOAD PUSH2 0xA9D SWAP2 SWAP1 PUSH2 0x468F JUMP JUMPDEST PUSH1 0x40 MLOAD DUP1 SWAP2 SUB SWAP1 RETURN JUMPDEST CALLVALUE DUP1 ISZERO PUSH2 0xAB2 JUMPI PUSH1 0x0 DUP1 REVERT JUMPDEST POP PUSH2 0xACD PUSH1 0x4 DUP1 CALLDATASIZE SUB DUP2 ADD SWAP1 PUSH2 0xAC8 SWAP2 SWAP1 PUSH2 0x4761 JUMP JUMPDEST PUSH2 0x1FC9 JUMP JUMPDEST STOP JUMPDEST CALLVALUE DUP1 ISZERO PUSH2 0xADB JUMPI PUSH1 0x0 DUP1 REVERT JUMPDEST POP PUSH2 0xAF6 PUSH1 0x4 DUP1 CALLDATASIZE SUB DUP2 ADD SWAP1 PUSH2 0xAF1 SWAP2 SWAP1 PUSH2 0x460A JUMP JUMPDEST PUSH2 0x1FDB JUMP JUMPDEST PUSH1 0x40 MLOAD PUSH2 0xB03 SWAP2 SWAP1 PUSH2 0x4665 JUMP JUMPDEST PUSH1 0x40 MLOAD DUP1 SWAP2 SUB SWAP1 RETURN JUMPDEST CALLVALUE DUP1 ISZERO PUSH2 0xB18 JUMPI PUSH1 0x0 DUP1 REVERT JUMPDEST POP PUSH2 0xB33 PUSH1 0x4 DUP1 CALLDATASIZE SUB DUP2 ADD SWAP1 PUSH2 0xB2E SWAP2 SWAP1 PUSH2 0x460A JUMP JUMPDEST PUSH2 0x2052 JUMP JUMPDEST PUSH1 0x40 MLOAD PUSH2 0xB40 SWAP2 SWAP1 PUSH2 0x4665 JUMP JUMPDEST PUSH1 0x40 MLOAD DUP1 SWAP2 SUB SWAP1 RETURN JUMPDEST CALLVALUE DUP1 ISZERO PUSH2 0xB55 JUMPI PUSH1 0x0 DUP1 REVERT JUMPDEST POP PUSH2 0xB70 PUSH1 0x4 DUP1 CALLDATASIZE SUB DUP2 ADD SWAP1 PUSH2 0xB6B SWAP2 SWAP1 PUSH2 0x46FD JUMP JUMPDEST PUSH2 0x2075 JUMP JUMPDEST STOP JUMPDEST CALLVALUE DUP1 ISZERO PUSH2 0xB7E JUMPI PUSH1 0x0 DUP1 REVERT JUMPDEST POP PUSH2 0xB87 PUSH2 0x2122 JUMP JUMPDEST PUSH1 0x40 MLOAD PUSH2 0xB94 SWAP2 SWAP1 PUSH2 0x468F JUMP JUMPDEST PUSH1 0x40 MLOAD DUP1 SWAP2 SUB SWAP1 RETURN JUMPDEST CALLVALUE DUP1 ISZERO PUSH2 0xBA9 JUMPI PUSH1 0x0 DUP1 REVERT JUMPDEST POP PUSH2 0xBB2 PUSH2 0x213C JUMP JUMPDEST PUSH1 0x40 MLOAD PUSH2 0xBBF SWAP2 SWAP1 PUSH2 0x4665 JUMP JUMPDEST PUSH1 0x40 MLOAD DUP1 SWAP2 SUB SWAP1 RETURN JUMPDEST CALLVALUE DUP1 ISZERO PUSH2 0xBD4 JUMPI PUSH1 0x0 DUP1 REVERT JUMPDEST POP PUSH2 0xBDD PUSH2 0x2153 JUMP JUMPDEST PUSH1 0x40 MLOAD PUSH2 0xBEA SWAP2 SWAP1 PUSH2 0x44C7 JUMP JUMPDEST PUSH1 0x40 MLOAD DUP1 SWAP2 SUB SWAP1 RETURN JUMPDEST CALLVALUE DUP1 ISZERO PUSH2 0xBFF JUMPI PUSH1 0x0 DUP1 REVERT JUMPDEST POP PUSH2 0xC08 PUSH2 0x217D JUMP JUMPDEST PUSH1 0x40 MLOAD PUSH2 0xC15 SWAP2 SWAP1 PUSH2 0x468F JUMP JUMPDEST PUSH1 0x40 MLOAD DUP1 SWAP2 SUB SWAP1 RETURN JUMPDEST CALLVALUE DUP1 ISZERO PUSH2 0xC2A JUMPI PUSH1 0x0 DUP1 REVERT JUMPDEST POP PUSH2 0xC45 PUSH1 0x4 DUP1 CALLDATASIZE SUB DUP2 ADD SWAP1 PUSH2 0xC40 SWAP2 SWAP1 PUSH2 0x46FD JUMP JUMPDEST PUSH2 0x2199 JUMP JUMPDEST PUSH1 0x40 MLOAD PUSH2 0xC52 SWAP2 SWAP1 PUSH2 0x4665 JUMP JUMPDEST PUSH1 0x40 MLOAD DUP1 SWAP2 SUB SWAP1 RETURN JUMPDEST CALLVALUE DUP1 ISZERO PUSH2 0xC67 JUMPI PUSH1 0x0 DUP1 REVERT JUMPDEST POP PUSH2 0xC82 PUSH1 0x4 DUP1 CALLDATASIZE SUB DUP2 ADD SWAP1 PUSH2 0xC7D SWAP2 SWAP1 PUSH2 0x46FD JUMP JUMPDEST PUSH2 0x21EF JUMP JUMPDEST STOP JUMPDEST CALLVALUE DUP1 ISZERO PUSH2 0xC90 JUMPI PUSH1 0x0 DUP1 REVERT JUMPDEST POP PUSH2 0xCAB PUSH1 0x4 DUP1 CALLDATASIZE SUB DUP2 ADD SWAP1 PUSH2 0xCA6 SWAP2 SWAP1 PUSH2 0x46FD JUMP JUMPDEST PUSH2 0x22DA JUMP JUMPDEST STOP JUMPDEST CALLVALUE DUP1 ISZERO PUSH2 0xCB9 JUMPI PUSH1 0x0 DUP1 REVERT JUMPDEST POP PUSH2 0xCD4 PUSH1 0x4 DUP1 CALLDATASIZE SUB DUP2 ADD SWAP1 PUSH2 0xCCF SWAP2 SWAP1 PUSH2 0x46FD JUMP JUMPDEST PUSH2 0x23CB JUMP JUMPDEST STOP JUMPDEST CALLVALUE DUP1 ISZERO PUSH2 0xCE2 JUMPI PUSH1 0x0 DUP1 REVERT JUMPDEST POP PUSH2 0xCEB PUSH2 0x247D JUMP JUMPDEST PUSH1 0x40 MLOAD PUSH2 0xCF8 SWAP2 SWAP1 PUSH2 0x44C7 JUMP JUMPDEST PUSH1 0x40 MLOAD DUP1 SWAP2 SUB SWAP1 RETURN JUMPDEST CALLVALUE DUP1 ISZERO PUSH2 0xD0D JUMPI PUSH1 0x0 DUP1 REVERT JUMPDEST POP PUSH2 0xD28 PUSH1 0x4 DUP1 CALLDATASIZE SUB DUP2 ADD SWAP1 PUSH2 0xD23 SWAP2 SWAP1 PUSH2 0x48A7 JUMP JUMPDEST PUSH2 0x24A7 JUMP JUMPDEST PUSH1 0x40 MLOAD PUSH2 0xD35 SWAP2 SWAP1 PUSH2 0x468F JUMP JUMPDEST PUSH1 0x40 MLOAD DUP1 SWAP2 SUB SWAP1 RETURN JUMPDEST CALLVALUE DUP1 ISZERO PUSH2 0xD4A JUMPI PUSH1 0x0 DUP1 REVERT JUMPDEST POP PUSH2 0xD53 PUSH2 0x252E JUMP JUMPDEST STOP JUMPDEST CALLVALUE DUP1 ISZERO PUSH2 0xD61 JUMPI PUSH1 0x0 DUP1 REVERT JUMPDEST POP PUSH2 0xD7C PUSH1 0x4 DUP1 CALLDATASIZE SUB DUP2 ADD SWAP1 PUSH2 0xD77 SWAP2 SWAP1 PUSH2 0x4821 JUMP JUMPDEST PUSH2 0x25E7 JUMP JUMPDEST STOP JUMPDEST CALLVALUE DUP1 ISZERO PUSH2 0xD8A JUMPI PUSH1 0x0 DUP1 REVERT JUMPDEST POP PUSH2 0xD93 PUSH2 0x260F JUMP JUMPDEST PUSH1 0x40 MLOAD PUSH2 0xDA0 SWAP2 SWAP1 PUSH2 0x468F JUMP JUMPDEST PUSH1 0x40 MLOAD DUP1 SWAP2 SUB SWAP1 RETURN JUMPDEST CALLVALUE DUP1 ISZERO PUSH2 0xDB5 JUMPI PUSH1 0x0 DUP1 REVERT JUMPDEST POP PUSH2 0xDBE PUSH2 0x2619 JUMP JUMPDEST PUSH1 0x40 MLOAD PUSH2 0xDCB SWAP2 SWAP1 PUSH2 0x468F JUMP JUMPDEST PUSH1 0x40 MLOAD DUP1 SWAP2 SUB SWAP1 RETURN JUMPDEST CALLVALUE DUP1 ISZERO PUSH2 0xDE0 JUMPI PUSH1 0x0 DUP1 REVERT JUMPDEST POP PUSH2 0xDFB PUSH1 0x4 DUP1 CALLDATASIZE SUB DUP2 ADD SWAP1 PUSH2 0xDF6 SWAP2 SWAP1 PUSH2 0x46FD JUMP JUMPDEST PUSH2 0x2635 JUMP JUMPDEST STOP JUMPDEST CALLVALUE DUP1 ISZERO PUSH2 0xE09 JUMPI PUSH1 0x0 DUP1 REVERT JUMPDEST POP PUSH2 0xE12 PUSH2 0x26B8 JUMP JUMPDEST PUSH1 0x40 MLOAD PUSH2 0xE1F SWAP2 SWAP1 PUSH2 0x44C7 JUMP JUMPDEST PUSH1 0x40 MLOAD DUP1 SWAP2 SUB SWAP1 RETURN JUMPDEST CALLVALUE DUP1 ISZERO PUSH2 0xE34 JUMPI PUSH1 0x0 DUP1 REVERT JUMPDEST POP PUSH2 0xE4F PUSH1 0x4 DUP1 CALLDATASIZE SUB DUP2 ADD SWAP1 PUSH2 0xE4A SWAP2 SWAP1 PUSH2 0x46FD JUMP JUMPDEST PUSH2 0x26E2 JUMP JUMPDEST PUSH1 0x40 MLOAD PUSH2 0xE5C SWAP2 SWAP1 PUSH2 0x4665 JUMP JUMPDEST PUSH1 0x40 MLOAD DUP1 SWAP2 SUB SWAP1 RETURN JUMPDEST PUSH1 0x0 PUSH1 0x10 PUSH1 0x0 SWAP1 SLOAD SWAP1 PUSH2 0x100 EXP SWAP1 DIV PUSH20 0xFFFFFFFFFFFFFFFFFFFFFFFFFFFFFFFFFFFFFFFF AND SWAP1 POP SWAP1 JUMP JUMPDEST PUSH1 0x60 PUSH1 0x3 DUP1 SLOAD PUSH2 0xE9E SWAP1 PUSH2 0x4916 JUMP JUMPDEST DUP1 PUSH1 0x1F ADD PUSH1 0x20 DUP1 SWAP2 DIV MUL PUSH1 0x20 ADD PUSH1 0x40 MLOAD SWAP1 DUP2 ADD PUSH1 0x40 MSTORE DUP1 SWAP3 SWAP2 SWAP1 DUP2 DUP2 MSTORE PUSH1 0x20 ADD DUP3 DUP1 SLOAD PUSH2 0xECA SWAP1 PUSH2 0x4916 JUMP JUMPDEST DUP1 ISZERO PUSH2 0xF17 JUMPI DUP1 PUSH1 0x1F LT PUSH2 0xEEC JUMPI PUSH2 0x100 DUP1 DUP4 SLOAD DIV MUL DUP4 MSTORE SWAP2 PUSH1 0x20 ADD SWAP2 PUSH2 0xF17 JUMP JUMPDEST DUP3 ADD SWAP2 SWAP1 PUSH1 0x0 MSTORE PUSH1 0x20 PUSH1 0x0 KECCAK256 SWAP1 JUMPDEST DUP2 SLOAD DUP2 MSTORE SWAP1 PUSH1 0x1 ADD SWAP1 PUSH1 0x20 ADD DUP1 DUP4 GT PUSH2 0xEFA JUMPI DUP3 SWAP1 SUB PUSH1 0x1F AND DUP3 ADD SWAP2 JUMPDEST POP POP POP POP POP SWAP1 POP SWAP1 JUMP JUMPDEST PUSH1 0x0 DUP1 PUSH2 0xF2C PUSH2 0x285B JUMP JUMPDEST SWAP1 POP PUSH2 0xF39 DUP2 DUP6 DUP6 PUSH2 0x2863 JUMP JUMPDEST PUSH1 0x1 SWAP2 POP POP SWAP3 SWAP2 POP POP JUMP JUMPDEST PUSH2 0xF4C PUSH2 0x2A2C JUMP JUMPDEST PUSH2 0xF54 PUSH2 0x2AAA JUMP JUMPDEST POP JUMP JUMPDEST PUSH1 0x0 PUSH1 0x2 SLOAD SWAP1 POP SWAP1 JUMP JUMPDEST PUSH1 0x0 PUSH1 0xF PUSH1 0x0 SWAP1 SLOAD SWAP1 PUSH2 0x100 EXP SWAP1 DIV PUSH20 0xFFFFFFFFFFFFFFFFFFFFFFFFFFFFFFFFFFFFFFFF AND SWAP1 POP SWAP1 JUMP JUMPDEST PUSH1 0x0 PUSH1 0xC PUSH1 0x5 SWAP1 SLOAD SWAP1 PUSH2 0x100 EXP SWAP1 DIV PUSH2 0xFFFF AND PUSH2 0xFFFF AND SWAP1 POP SWAP1 JUMP JUMPDEST PUSH1 0x0 PUSH1 0xA SLOAD SWAP1 POP SWAP1 JUMP JUMPDEST PUSH1 0x0 DUP1 PUSH2 0xFBC PUSH2 0x285B JUMP JUMPDEST SWAP1 POP PUSH2 0xFC9 DUP6 DUP3 DUP6 PUSH2 0x2B00 JUMP JUMPDEST PUSH2 0xFD4 DUP6 DUP6 DUP6 PUSH2 0x2B8C JUMP JUMPDEST PUSH1 0x1 SWAP2 POP POP SWAP4 SWAP3 POP POP POP JUMP JUMPDEST PUSH1 0x0 PUSH1 0xC PUSH1 0x1 SWAP1 SLOAD SWAP1 PUSH2 0x100 EXP SWAP1 DIV PUSH1 0xFF AND PUSH1 0xFF AND SWAP1 POP SWAP1 JUMP JUMPDEST PUSH2 0x1002 PUSH2 0x2A2C JUMP JUMPDEST PUSH1 0x0 PUSH20 0xFFFFFFFFFFFFFFFFFFFFFFFFFFFFFFFFFFFFFFFF AND DUP2 PUSH20 0xFFFFFFFFFFFFFFFFFFFFFFFFFFFFFFFFFFFFFFFF AND SUB PUSH2 0x1068 JUMPI PUSH1 0x40 MLOAD PUSH32 0x342F50B300000000000000000000000000000000000000000000000000000000 DUP2 MSTORE PUSH1 0x4 ADD PUSH1 0x40 MLOAD DUP1 SWAP2 SUB SWAP1 REVERT JUMPDEST DUP1 PUSH1 0xE PUSH1 0x0 PUSH2 0x100 EXP DUP2 SLOAD DUP2 PUSH20 0xFFFFFFFFFFFFFFFFFFFFFFFFFFFFFFFFFFFFFFFF MUL NOT AND SWAP1 DUP4 PUSH20 0xFFFFFFFFFFFFFFFFFFFFFFFFFFFFFFFFFFFFFFFF AND MUL OR SWAP1 SSTORE POP PUSH2 0x10B2 DUP2 PUSH2 0x2199 JUMP JUMPDEST PUSH2 0x10E2 JUMPI PUSH2 0x10E1 PUSH1 0xE PUSH1 0x0 SWAP1 SLOAD SWAP1 PUSH2 0x100 EXP SWAP1 DIV PUSH20 0xFFFFFFFFFFFFFFFFFFFFFFFFFFFFFFFFFFFFFFFF AND PUSH2 0x189E JUMP JUMPDEST JUMPDEST POP JUMP JUMPDEST PUSH1 0x0 PUSH1 0x12 SWAP1 POP SWAP1 JUMP JUMPDEST PUSH1 0x0 DUP1 PUSH2 0x10F9 PUSH2 0x285B JUMP JUMPDEST SWAP1 POP PUSH2 0x111A DUP2 DUP6 DUP6 PUSH2 0x110B DUP6 DUP10 PUSH2 0x24A7 JUMP JUMPDEST PUSH2 0x1115 SWAP2 SWAP1 PUSH2 0x4976 JUMP JUMPDEST PUSH2 0x2863 JUMP JUMPDEST PUSH1 0x1 SWAP2 POP POP SWAP3 SWAP2 POP POP JUMP JUMPDEST PUSH2 0x112D PUSH2 0x2A2C JUMP JUMPDEST PUSH2 0x1135 PUSH2 0x199C JUMP JUMPDEST PUSH2 0x116B JUMPI PUSH1 0x40 MLOAD PUSH32 0xB250BDD300000000000000000000000000000000000000000000000000000000 DUP2 MSTORE PUSH1 0x4 ADD PUSH1 0x40 MLOAD DUP1 SWAP2 SUB SWAP1 REVERT JUMPDEST PUSH2 0x1173 PUSH2 0x3129 JUMP JUMPDEST JUMP JUMPDEST PUSH1 0x0 DUP2 SUB PUSH2 0x11AF JUMPI PUSH1 0x40 MLOAD PUSH32 0xB868C9E500000000000000000000000000000000000000000000000000000000 DUP2 MSTORE PUSH1 0x4 ADD PUSH1 0x40 MLOAD DUP1 SWAP2 SUB SWAP1 REVERT JUMPDEST PUSH2 0x11BA CALLER ADDRESS DUP4 PUSH2 0x2B8C JUMP JUMPDEST DUP1 PUSH1 0xA PUSH1 0x0 DUP3 DUP3 SLOAD PUSH2 0x11CC SWAP2 SWAP1 PUSH2 0x4976 JUMP JUMPDEST SWAP3 POP POP DUP2 SWAP1 SSTORE POP POP JUMP JUMPDEST PUSH2 0x11DE PUSH2 0x2A2C JUMP JUMPDEST PUSH1 0x0 PUSH20 0xFFFFFFFFFFFFFFFFFFFFFFFFFFFFFFFFFFFFFFFF AND DUP2 PUSH20 0xFFFFFFFFFFFFFFFFFFFFFFFFFFFFFFFFFFFFFFFF AND SUB PUSH2 0x1244 JUMPI PUSH1 0x40 MLOAD PUSH32 0x342F50B300000000000000000000000000000000000000000000000000000000 DUP2 MSTORE PUSH1 0x4 ADD PUSH1 0x40 MLOAD DUP1 SWAP2 SUB SWAP1 REVERT JUMPDEST DUP1 PUSH1 0x11 PUSH1 0x0 PUSH2 0x100 EXP DUP2 SLOAD DUP2 PUSH20 0xFFFFFFFFFFFFFFFFFFFFFFFFFFFFFFFFFFFFFFFF MUL NOT AND SWAP1 DUP4 PUSH20 0xFFFFFFFFFFFFFFFFFFFFFFFFFFFFFFFFFFFFFFFF AND MUL OR SWAP1 SSTORE POP PUSH1 0x11 PUSH1 0x0 SWAP1 SLOAD SWAP1 PUSH2 0x100 EXP SWAP1 DIV PUSH20 0xFFFFFFFFFFFFFFFFFFFFFFFFFFFFFFFFFFFFFFFF AND PUSH20 0xFFFFFFFFFFFFFFFFFFFFFFFFFFFFFFFFFFFFFFFF AND PUSH4 0xC45A0155 PUSH1 0x40 MLOAD DUP2 PUSH4 0xFFFFFFFF AND PUSH1 0xE0 SHL DUP2 MSTORE PUSH1 0x4 ADD PUSH1 0x20 PUSH1 0x40 MLOAD DUP1 DUP4 SUB DUP2 DUP7 GAS STATICCALL ISZERO DUP1 ISZERO PUSH2 0x12F2 JUMPI RETURNDATASIZE PUSH1 0x0 DUP1 RETURNDATACOPY RETURNDATASIZE PUSH1 0x0 REVERT JUMPDEST POP POP POP POP PUSH1 0x40 MLOAD RETURNDATASIZE PUSH1 0x1F NOT PUSH1 0x1F DUP3 ADD AND DUP3 ADD DUP1 PUSH1 0x40 MSTORE POP DUP2 ADD SWAP1 PUSH2 0x1316 SWAP2 SWAP1 PUSH2 0x49BF JUMP JUMPDEST PUSH1 0x10 PUSH1 0x0 PUSH2 0x100 EXP DUP2 SLOAD DUP2 PUSH20 0xFFFFFFFFFFFFFFFFFFFFFFFFFFFFFFFFFFFFFFFF MUL NOT AND SWAP1 DUP4 PUSH20 0xFFFFFFFFFFFFFFFFFFFFFFFFFFFFFFFFFFFFFFFF AND MUL OR SWAP1 SSTORE POP PUSH1 0x0 PUSH1 0x11 PUSH1 0x0 SWAP1 SLOAD SWAP1 PUSH2 0x100 EXP SWAP1 DIV PUSH20 0xFFFFFFFFFFFFFFFFFFFFFFFFFFFFFFFFFFFFFFFF AND PUSH20 0xFFFFFFFFFFFFFFFFFFFFFFFFFFFFFFFFFFFFFFFF AND PUSH4 0xC45A0155 PUSH1 0x40 MLOAD DUP2 PUSH4 0xFFFFFFFF AND PUSH1 0xE0 SHL DUP2 MSTORE PUSH1 0x4 ADD PUSH1 0x20 PUSH1 0x40 MLOAD DUP1 DUP4 SUB DUP2 DUP7 GAS STATICCALL ISZERO DUP1 ISZERO PUSH2 0x13C5 JUMPI RETURNDATASIZE PUSH1 0x0 DUP1 RETURNDATACOPY RETURNDATASIZE PUSH1 0x0 REVERT JUMPDEST POP POP POP POP PUSH1 0x40 MLOAD RETURNDATASIZE PUSH1 0x1F NOT PUSH1 0x1F DUP3 ADD AND DUP3 ADD DUP1 PUSH1 0x40 MSTORE POP DUP2 ADD SWAP1 PUSH2 0x13E9 SWAP2 SWAP1 PUSH2 0x49BF JUMP JUMPDEST PUSH20 0xFFFFFFFFFFFFFFFFFFFFFFFFFFFFFFFFFFFFFFFF AND PUSH4 0xE6A43905 ADDRESS PUSH1 0x11 PUSH1 0x0 SWAP1 SLOAD SWAP1 PUSH2 0x100 EXP SWAP1 DIV PUSH20 0xFFFFFFFFFFFFFFFFFFFFFFFFFFFFFFFFFFFFFFFF AND PUSH20 0xFFFFFFFFFFFFFFFFFFFFFFFFFFFFFFFFFFFFFFFF AND PUSH4 0xAD5C4648 PUSH1 0x40 MLOAD DUP2 PUSH4 0xFFFFFFFF AND PUSH1 0xE0 SHL DUP2 MSTORE PUSH1 0x4 ADD PUSH1 0x20 PUSH1 0x40 MLOAD DUP1 DUP4 SUB DUP2 DUP7 GAS STATICCALL ISZERO DUP1 ISZERO PUSH2 0x1472 JUMPI RETURNDATASIZE PUSH1 0x0 DUP1 RETURNDATACOPY RETURNDATASIZE PUSH1 0x0 REVERT JUMPDEST POP POP POP POP PUSH1 0x40 MLOAD RETURNDATASIZE PUSH1 0x1F NOT PUSH1 0x1F DUP3 ADD AND DUP3 ADD DUP1 PUSH1 0x40 MSTORE POP DUP2 ADD SWAP1 PUSH2 0x1496 SWAP2 SWAP1 PUSH2 0x49BF JUMP JUMPDEST PUSH1 0x40 MLOAD DUP4 PUSH4 0xFFFFFFFF AND PUSH1 0xE0 SHL DUP2 MSTORE PUSH1 0x4 ADD PUSH2 0x14B3 SWAP3 SWAP2 SWAP1 PUSH2 0x49EC JUMP JUMPDEST PUSH1 0x20 PUSH1 0x40 MLOAD DUP1 DUP4 SUB DUP2 DUP7 GAS STATICCALL ISZERO DUP1 ISZERO PUSH2 0x14D0 JUMPI RETURNDATASIZE PUSH1 0x0 DUP1 RETURNDATACOPY RETURNDATASIZE PUSH1 0x0 REVERT JUMPDEST POP POP POP POP PUSH1 0x40 MLOAD RETURNDATASIZE PUSH1 0x1F NOT PUSH1 0x1F DUP3 ADD AND DUP3 ADD DUP1 PUSH1 0x40 MSTORE POP DUP2 ADD SWAP1 PUSH2 0x14F4 SWAP2 SWAP1 PUSH2 0x49BF JUMP JUMPDEST SWAP1 POP PUSH1 0x0 PUSH20 0xFFFFFFFFFFFFFFFFFFFFFFFFFFFFFFFFFFFFFFFF AND DUP2 PUSH20 0xFFFFFFFFFFFFFFFFFFFFFFFFFFFFFFFFFFFFFFFF AND SUB PUSH2 0x165D JUMPI PUSH1 0x10 PUSH1 0x0 SWAP1 SLOAD SWAP1 PUSH2 0x100 EXP SWAP1 DIV PUSH20 0xFFFFFFFFFFFFFFFFFFFFFFFFFFFFFFFFFFFFFFFF AND PUSH20 0xFFFFFFFFFFFFFFFFFFFFFFFFFFFFFFFFFFFFFFFF AND PUSH4 0xC9C65396 ADDRESS PUSH1 0x11 PUSH1 0x0 SWAP1 SLOAD SWAP1 PUSH2 0x100 EXP SWAP1 DIV PUSH20 0xFFFFFFFFFFFFFFFFFFFFFFFFFFFFFFFFFFFFFFFF AND PUSH20 0xFFFFFFFFFFFFFFFFFFFFFFFFFFFFFFFFFFFFFFFF AND PUSH4 0xAD5C4648 PUSH1 0x40 MLOAD DUP2 PUSH4 0xFFFFFFFF AND PUSH1 0xE0 SHL DUP2 MSTORE PUSH1 0x4 ADD PUSH1 0x20 PUSH1 0x40 MLOAD DUP1 DUP4 SUB DUP2 DUP7 GAS STATICCALL ISZERO DUP1 ISZERO PUSH2 0x15D6 JUMPI RETURNDATASIZE PUSH1 0x0 DUP1 RETURNDATACOPY RETURNDATASIZE PUSH1 0x0 REVERT JUMPDEST POP POP POP POP PUSH1 0x40 MLOAD RETURNDATASIZE PUSH1 0x1F NOT PUSH1 0x1F DUP3 ADD AND DUP3 ADD DUP1 PUSH1 0x40 MSTORE POP DUP2 ADD SWAP1 PUSH2 0x15FA SWAP2 SWAP1 PUSH2 0x49BF JUMP JUMPDEST PUSH1 0x40 MLOAD DUP4 PUSH4 0xFFFFFFFF AND PUSH1 0xE0 SHL DUP2 MSTORE PUSH1 0x4 ADD PUSH2 0x1617 SWAP3 SWAP2 SWAP1 PUSH2 0x49EC JUMP JUMPDEST PUSH1 0x20 PUSH1 0x40 MLOAD DUP1 DUP4 SUB DUP2 PUSH1 0x0 DUP8 GAS CALL ISZERO DUP1 ISZERO PUSH2 0x1636 JUMPI RETURNDATASIZE PUSH1 0x0 DUP1 RETURNDATACOPY RETURNDATASIZE PUSH1 0x0 REVERT JUMPDEST POP POP POP POP PUSH1 0x40 MLOAD RETURNDATASIZE PUSH1 0x1F NOT PUSH1 0x1F DUP3 ADD AND DUP3 ADD DUP1 PUSH1 0x40 MSTORE POP DUP2 ADD SWAP1 PUSH2 0x165A SWAP2 SWAP1 PUSH2 0x49BF JUMP JUMPDEST SWAP1 POP JUMPDEST DUP1 PUSH1 0xF PUSH1 0x0 PUSH2 0x100 EXP DUP2 SLOAD DUP2 PUSH20 0xFFFFFFFFFFFFFFFFFFFFFFFFFFFFFFFFFFFFFFFF MUL NOT AND SWAP1 DUP4 PUSH20 0xFFFFFFFFFFFFFFFFFFFFFFFFFFFFFFFFFFFFFFFF AND MUL OR SWAP1 SSTORE POP POP POP JUMP JUMPDEST PUSH2 0x16B3 PUSH2 0x16AD PUSH2 0x285B JUMP JUMPDEST DUP3 PUSH2 0x318C JUMP JUMPDEST POP JUMP JUMPDEST PUSH2 0x16BE PUSH2 0x2A2C JUMP JUMPDEST PUSH1 0xF DUP2 PUSH1 0xFF AND GT ISZERO PUSH2 0x1707 JUMPI DUP1 PUSH1 0x40 MLOAD PUSH32 0x37DF5E1100000000000000000000000000000000000000000000000000000000 DUP2 MSTORE PUSH1 0x4 ADD PUSH2 0x16FE SWAP2 SWAP1 PUSH2 0x4A50 JUMP JUMPDEST PUSH1 0x40 MLOAD DUP1 SWAP2 SUB SWAP1 REVERT JUMPDEST DUP1 PUSH1 0xC PUSH1 0x2 PUSH2 0x100 EXP DUP2 SLOAD DUP2 PUSH1 0xFF MUL NOT AND SWAP1 DUP4 PUSH1 0xFF AND MUL OR SWAP1 SSTORE POP POP JUMP JUMPDEST PUSH2 0x172D PUSH2 0x2A2C JUMP JUMPDEST PUSH1 0x0 DUP2 PUSH20 0xFFFFFFFFFFFFFFFFFFFFFFFFFFFFFFFFFFFFFFFF AND PUSH4 0x70A08231 ADDRESS PUSH1 0x40 MLOAD DUP3 PUSH4 0xFFFFFFFF AND PUSH1 0xE0 SHL DUP2 MSTORE PUSH1 0x4 ADD PUSH2 0x1768 SWAP2 SWAP1 PUSH2 0x44C7 JUMP JUMPDEST PUSH1 0x20 PUSH1 0x40 MLOAD DUP1 DUP4 SUB DUP2 DUP7 GAS STATICCALL ISZERO DUP1 ISZERO PUSH2 0x1785 JUMPI RETURNDATASIZE PUSH1 0x0 DUP1 RETURNDATACOPY RETURNDATASIZE PUSH1 0x0 REVERT JUMPDEST POP POP POP POP PUSH1 0x40 MLOAD RETURNDATASIZE PUSH1 0x1F NOT PUSH1 0x1F DUP3 ADD AND DUP3 ADD DUP1 PUSH1 0x40 MSTORE POP DUP2 ADD SWAP1 PUSH2 0x17A9 SWAP2 SWAP1 PUSH2 0x4A80 JUMP JUMPDEST SWAP1 POP DUP2 PUSH20 0xFFFFFFFFFFFFFFFFFFFFFFFFFFFFFFFFFFFFFFFF AND PUSH4 0xA9059CBB CALLER DUP4 PUSH1 0x40 MLOAD DUP4 PUSH4 0xFFFFFFFF AND PUSH1 0xE0 SHL DUP2 MSTORE PUSH1 0x4 ADD PUSH2 0x17E6 SWAP3 SWAP2 SWAP1 PUSH2 0x4AAD JUMP JUMPDEST PUSH1 0x20 PUSH1 0x40 MLOAD DUP1 DUP4 SUB DUP2 PUSH1 0x0 DUP8 GAS CALL ISZERO DUP1 ISZERO PUSH2 0x1805 JUMPI RETURNDATASIZE PUSH1 0x0 DUP1 RETURNDATACOPY RETURNDATASIZE PUSH1 0x0 REVERT JUMPDEST POP POP POP POP PUSH1 0x40 MLOAD RETURNDATASIZE PUSH1 0x1F NOT PUSH1 0x1F DUP3 ADD AND DUP3 ADD DUP1 PUSH1 0x40 MSTORE POP DUP2 ADD SWAP1 PUSH2 0x1829 SWAP2 SWAP1 PUSH2 0x4AEB JUMP JUMPDEST POP POP POP JUMP JUMPDEST PUSH1 0x0 DUP1 PUSH1 0x0 PUSH2 0x187B DUP5 PUSH1 0x6 PUSH1 0x0 DUP9 PUSH20 0xFFFFFFFFFFFFFFFFFFFFFFFFFFFFFFFFFFFFFFFF AND PUSH20 0xFFFFFFFFFFFFFFFFFFFFFFFFFFFFFFFFFFFFFFFF AND DUP2 MSTORE PUSH1 0x20 ADD SWAP1 DUP2 MSTORE PUSH1 0x20 ADD PUSH1 0x0 KECCAK256 PUSH2 0x3359 JUMP JUMPDEST SWAP2 POP SWAP2 POP DUP2 PUSH2 0x1892 JUMPI PUSH2 0x188D DUP6 PUSH2 0x1B61 JUMP JUMPDEST PUSH2 0x1894 JUMP JUMPDEST DUP1 JUMPDEST SWAP3 POP POP POP SWAP3 SWAP2 POP POP JUMP JUMPDEST PUSH2 0x18A6 PUSH2 0x2A2C JUMP JUMPDEST PUSH2 0x18AF DUP2 PUSH2 0x2199 JUMP JUMPDEST ISZERO PUSH2 0x18F1 JUMPI DUP1 PUSH1 0x40 MLOAD PUSH32 0xAAB81D2100000000000000000000000000000000000000000000000000000000 DUP2 MSTORE PUSH1 0x4 ADD PUSH2 0x18E8 SWAP2 SWAP1 PUSH2 0x44C7 JUMP JUMPDEST PUSH1 0x40 MLOAD DUP1 SWAP2 SUB SWAP1 REVERT JUMPDEST PUSH1 0x1 PUSH1 0x16 PUSH1 0x0 DUP4 PUSH20 0xFFFFFFFFFFFFFFFFFFFFFFFFFFFFFFFFFFFFFFFF AND PUSH20 0xFFFFFFFFFFFFFFFFFFFFFFFFFFFFFFFFFFFFFFFF AND DUP2 MSTORE PUSH1 0x20 ADD SWAP1 DUP2 MSTORE PUSH1 0x20 ADD PUSH1 0x0 KECCAK256 PUSH1 0x0 PUSH2 0x100 EXP DUP2 SLOAD DUP2 PUSH1 0xFF MUL NOT AND SWAP1 DUP4 ISZERO ISZERO MUL OR SWAP1 SSTORE POP POP JUMP JUMPDEST PUSH2 0x1954 PUSH2 0x2A2C JUMP JUMPDEST DUP1 PUSH1 0xC PUSH1 0x3 PUSH2 0x100 EXP DUP2 SLOAD DUP2 PUSH2 0xFFFF MUL NOT AND SWAP1 DUP4 PUSH2 0xFFFF AND MUL OR SWAP1 SSTORE POP POP JUMP JUMPDEST PUSH2 0x197C PUSH2 0x2A2C JUMP JUMPDEST DUP1 PUSH1 0xC PUSH1 0x7 PUSH2 0x100 EXP DUP2 SLOAD DUP2 PUSH2 0xFFFF MUL NOT AND SWAP1 DUP4 PUSH2 0xFFFF AND MUL OR SWAP1 SSTORE POP POP JUMP JUMPDEST PUSH1 0x0 PUSH1 0x5 PUSH1 0x14 SWAP1 SLOAD SWAP1 PUSH2 0x100 EXP SWAP1 DIV PUSH1 0xFF AND SWAP1 POP SWAP1 JUMP JUMPDEST PUSH2 0x19BB PUSH2 0x2A2C JUMP JUMPDEST PUSH1 0xF DUP2 PUSH1 0xFF AND GT ISZERO PUSH2 0x1A04 JUMPI DUP1 PUSH1 0x40 MLOAD PUSH32 0x37DF5E1100000000000000000000000000000000000000000000000000000000 DUP2 MSTORE PUSH1 0x4 ADD PUSH2 0x19FB SWAP2 SWAP1 PUSH2 0x4A50 JUMP JUMPDEST PUSH1 0x40 MLOAD DUP1 SWAP2 SUB SWAP1 REVERT JUMPDEST DUP1 PUSH1 0xC PUSH1 0x1 PUSH2 0x100 EXP DUP2 SLOAD DUP2 PUSH1 0xFF MUL NOT AND SWAP1 DUP4 PUSH1 0xFF AND MUL OR SWAP1 SSTORE POP POP JUMP JUMPDEST PUSH1 0x0 PUSH1 0x14 PUSH1 0x0 SWAP1 SLOAD SWAP1 PUSH2 0x100 EXP SWAP1 DIV PUSH20 0xFFFFFFFFFFFFFFFFFFFFFFFFFFFFFFFFFFFFFFFF AND SWAP1 POP SWAP1 JUMP JUMPDEST PUSH1 0x0 PUSH1 0xC PUSH1 0x9 SWAP1 SLOAD SWAP1 PUSH2 0x100 EXP SWAP1 DIV PUSH20 0xFFFFFFFFFFFFFFFFFFFFFFFFFFFFFFFFFFFFFFFF AND SWAP1 POP SWAP1 JUMP JUMPDEST PUSH2 0x1A7E PUSH2 0x2A2C JUMP JUMPDEST PUSH1 0x0 PUSH20 0xFFFFFFFFFFFFFFFFFFFFFFFFFFFFFFFFFFFFFFFF AND DUP2 PUSH20 0xFFFFFFFFFFFFFFFFFFFFFFFFFFFFFFFFFFFFFFFF AND SUB PUSH2 0x1AE4 JUMPI PUSH1 0x40 MLOAD PUSH32 0x342F50B300000000000000000000000000000000000000000000000000000000 DUP2 MSTORE PUSH1 0x4 ADD PUSH1 0x40 MLOAD DUP1 SWAP2 SUB SWAP1 REVERT JUMPDEST DUP1 PUSH1 0x12 PUSH1 0x0 PUSH2 0x100 EXP DUP2 SLOAD DUP2 PUSH20 0xFFFFFFFFFFFFFFFFFFFFFFFFFFFFFFFFFFFFFFFF MUL NOT AND SWAP1 DUP4 PUSH20 0xFFFFFFFFFFFFFFFFFFFFFFFFFFFFFFFFFFFFFFFF AND MUL OR SWAP1 SSTORE POP PUSH2 0x1B2E DUP2 PUSH2 0x2199 JUMP JUMPDEST PUSH2 0x1B5E JUMPI PUSH2 0x1B5D PUSH1 0x12 PUSH1 0x0 SWAP1 SLOAD SWAP1 PUSH2 0x100 EXP SWAP1 DIV PUSH20 0xFFFFFFFFFFFFFFFFFFFFFFFFFFFFFFFFFFFFFFFF AND PUSH2 0x189E JUMP JUMPDEST JUMPDEST POP JUMP JUMPDEST PUSH1 0x0 DUP1 PUSH1 0x0 DUP4 PUSH20 0xFFFFFFFFFFFFFFFFFFFFFFFFFFFFFFFFFFFFFFFF AND PUSH20 0xFFFFFFFFFFFFFFFFFFFFFFFFFFFFFFFFFFFFFFFF AND DUP2 MSTORE PUSH1 0x20 ADD SWAP1 DUP2 MSTORE PUSH1 0x20 ADD PUSH1 0x0 KECCAK256 SLOAD SWAP1 POP SWAP2 SWAP1 POP JUMP JUMPDEST PUSH2 0x1BB1 PUSH2 0x2A2C JUMP JUMPDEST PUSH2 0x1BBB PUSH1 0x0 PUSH2 0x344E JUMP JUMPDEST JUMP JUMPDEST PUSH2 0x1BC5 PUSH2 0x2A2C JUMP JUMPDEST PUSH1 0x15 PUSH1 0x0 DUP3 PUSH20 0xFFFFFFFFFFFFFFFFFFFFFFFFFFFFFFFFFFFFFFFF AND PUSH20 0xFFFFFFFFFFFFFFFFFFFFFFFFFFFFFFFFFFFFFFFF AND DUP2 MSTORE PUSH1 0x20 ADD SWAP1 DUP2 MSTORE PUSH1 0x20 ADD PUSH1 0x0 KECCAK256 PUSH1 0x0 SWAP1 SLOAD SWAP1 PUSH2 0x100 EXP SWAP1 DIV PUSH1 0xFF AND ISZERO PUSH2 0x1C54 JUMPI DUP1 PUSH1 0x40 MLOAD PUSH32 0xBFD8159B00000000000000000000000000000000000000000000000000000000 DUP2 MSTORE PUSH1 0x4 ADD PUSH2 0x1C4B SWAP2 SWAP1 PUSH2 0x44C7 JUMP JUMPDEST PUSH1 0x40 MLOAD DUP1 SWAP2 SUB SWAP1 REVERT JUMPDEST PUSH1 0x1 PUSH1 0x15 PUSH1 0x0 DUP4 PUSH20 0xFFFFFFFFFFFFFFFFFFFFFFFFFFFFFFFFFFFFFFFF AND PUSH20 0xFFFFFFFFFFFFFFFFFFFFFFFFFFFFFFFFFFFFFFFF AND DUP2 MSTORE PUSH1 0x20 ADD SWAP1 DUP2 MSTORE PUSH1 0x20 ADD PUSH1 0x0 KECCAK256 PUSH1 0x0 PUSH2 0x100 EXP DUP2 SLOAD DUP2 PUSH1 0xFF MUL NOT AND SWAP1 DUP4 ISZERO ISZERO MUL OR SWAP1 SSTORE POP POP JUMP JUMPDEST PUSH2 0x1CB7 PUSH2 0x2A2C JUMP JUMPDEST PUSH2 0x1CE6 ADDRESS PUSH1 0x11 PUSH1 0x0 SWAP1 SLOAD SWAP1 PUSH2 0x100 EXP SWAP1 DIV PUSH20 0xFFFFFFFFFFFFFFFFFFFFFFFFFFFFFFFFFFFFFFFF AND PUSH1 0xA SLOAD PUSH2 0x2863 JUMP JUMPDEST PUSH2 0x1CEE PUSH2 0x3514 JUMP JUMPDEST PUSH1 0x0 PUSH1 0xA DUP2 SWAP1 SSTORE POP JUMP JUMPDEST PUSH2 0x1D0A DUP3 PUSH2 0x1D04 PUSH2 0x285B JUMP JUMPDEST DUP4 PUSH2 0x2B00 JUMP JUMPDEST PUSH2 0x1D14 DUP3 DUP3 PUSH2 0x318C JUMP JUMPDEST POP POP JUMP JUMPDEST PUSH1 0x0 PUSH1 0x12 PUSH1 0x0 SWAP1 SLOAD SWAP1 PUSH2 0x100 EXP SWAP1 DIV PUSH20 0xFFFFFFFFFFFFFFFFFFFFFFFFFFFFFFFFFFFFFFFF AND SWAP1 POP SWAP1 JUMP JUMPDEST PUSH2 0x1D4A PUSH2 0x2A2C JUMP JUMPDEST PUSH2 0x1D52 PUSH2 0x199C JUMP JUMPDEST ISZERO PUSH2 0x1D89 JUMPI PUSH1 0x40 MLOAD PUSH32 0x2AF83B5400000000000000000000000000000000000000000000000000000000 DUP2 MSTORE PUSH1 0x4 ADD PUSH1 0x40 MLOAD DUP1 SWAP2 SUB SWAP1 REVERT JUMPDEST PUSH2 0x1D91 PUSH2 0x3BFE JUMP JUMPDEST JUMP JUMPDEST PUSH1 0x0 PUSH1 0xF PUSH1 0x0 SWAP1 SLOAD SWAP1 PUSH2 0x100 EXP SWAP1 DIV PUSH20 0xFFFFFFFFFFFFFFFFFFFFFFFFFFFFFFFFFFFFFFFF AND SWAP1 POP SWAP1 JUMP JUMPDEST PUSH2 0x1DC5 PUSH2 0x2A2C JUMP JUMPDEST PUSH1 0x0 PUSH20 0xFFFFFFFFFFFFFFFFFFFFFFFFFFFFFFFFFFFFFFFF AND DUP2 PUSH20 0xFFFFFFFFFFFFFFFFFFFFFFFFFFFFFFFFFFFFFFFF AND SUB PUSH2 0x1E2B JUMPI PUSH1 0x40 MLOAD PUSH32 0x342F50B300000000000000000000000000000000000000000000000000000000 DUP2 MSTORE PUSH1 0x4 ADD PUSH1 0x40 MLOAD DUP1 SWAP2 SUB SWAP1 REVERT JUMPDEST DUP1 PUSH1 0xC PUSH1 0x9 PUSH2 0x100 EXP DUP2 SLOAD DUP2 PUSH20 0xFFFFFFFFFFFFFFFFFFFFFFFFFFFFFFFFFFFFFFFF MUL NOT AND SWAP1 DUP4 PUSH20 0xFFFFFFFFFFFFFFFFFFFFFFFFFFFFFFFFFFFFFFFF AND MUL OR SWAP1 SSTORE POP PUSH2 0x1E75 DUP2 PUSH2 0x2199 JUMP JUMPDEST PUSH2 0x1EA5 JUMPI PUSH2 0x1EA4 PUSH1 0xC PUSH1 0x9 SWAP1 SLOAD SWAP1 PUSH2 0x100 EXP SWAP1 DIV PUSH20 0xFFFFFFFFFFFFFFFFFFFFFFFFFFFFFFFFFFFFFFFF AND PUSH2 0x189E JUMP JUMPDEST JUMPDEST POP JUMP JUMPDEST PUSH1 0x0 PUSH1 0x5 PUSH1 0x0 SWAP1 SLOAD SWAP1 PUSH2 0x100 EXP SWAP1 DIV PUSH20 0xFFFFFFFFFFFFFFFFFFFFFFFFFFFFFFFFFFFFFFFF AND SWAP1 POP SWAP1 JUMP JUMPDEST PUSH2 0x1EDA PUSH2 0x2A2C JUMP JUMPDEST DUP1 PUSH1 0xC PUSH1 0x0 PUSH2 0x100 EXP DUP2 SLOAD DUP2 PUSH1 0xFF MUL NOT AND SWAP1 DUP4 ISZERO ISZERO MUL OR SWAP1 SSTORE POP POP JUMP JUMPDEST PUSH1 0x60 PUSH1 0x4 DUP1 SLOAD PUSH2 0x1F06 SWAP1 PUSH2 0x4916 JUMP JUMPDEST DUP1 PUSH1 0x1F ADD PUSH1 0x20 DUP1 SWAP2 DIV MUL PUSH1 0x20 ADD PUSH1 0x40 MLOAD SWAP1 DUP2 ADD PUSH1 0x40 MSTORE DUP1 SWAP3 SWAP2 SWAP1 DUP2 DUP2 MSTORE PUSH1 0x20 ADD DUP3 DUP1 SLOAD PUSH2 0x1F32 SWAP1 PUSH2 0x4916 JUMP JUMPDEST DUP1 ISZERO PUSH2 0x1F7F JUMPI DUP1 PUSH1 0x1F LT PUSH2 0x1F54 JUMPI PUSH2 0x100 DUP1 DUP4 SLOAD DIV MUL DUP4 MSTORE SWAP2 PUSH1 0x20 ADD SWAP2 PUSH2 0x1F7F JUMP JUMPDEST DUP3 ADD SWAP2 SWAP1 PUSH1 0x0 MSTORE PUSH1 0x20 PUSH1 0x0 KECCAK256 SWAP1 JUMPDEST DUP2 SLOAD DUP2 MSTORE SWAP1 PUSH1 0x1 ADD SWAP1 PUSH1 0x20 ADD DUP1 DUP4 GT PUSH2 0x1F62 JUMPI DUP3 SWAP1 SUB PUSH1 0x1F AND DUP3 ADD SWAP2 JUMPDEST POP POP POP POP POP SWAP1 POP SWAP1 JUMP JUMPDEST PUSH1 0x0 PUSH2 0x1F93 PUSH2 0x3C61 JUMP JUMPDEST SWAP1 POP SWAP1 JUMP JUMPDEST PUSH1 0x0 DUP1 PUSH1 0x0 PUSH2 0x1FA8 DUP5 PUSH1 0x7 PUSH2 0x3359 JUMP JUMPDEST SWAP2 POP SWAP2 POP DUP2 PUSH2 0x1FBE JUMPI PUSH2 0x1FB9 PUSH2 0xF57 JUMP JUMPDEST PUSH2 0x1FC0 JUMP JUMPDEST DUP1 JUMPDEST SWAP3 POP POP POP SWAP2 SWAP1 POP JUMP JUMPDEST PUSH2 0x1FD1 PUSH2 0x2A2C JUMP JUMPDEST DUP1 PUSH1 0xB DUP2 SWAP1 SSTORE POP POP JUMP JUMPDEST PUSH1 0x0 DUP1 PUSH2 0x1FE6 PUSH2 0x285B JUMP JUMPDEST SWAP1 POP PUSH1 0x0 PUSH2 0x1FF4 DUP3 DUP7 PUSH2 0x24A7 JUMP JUMPDEST SWAP1 POP DUP4 DUP2 LT ISZERO PUSH2 0x2039 JUMPI PUSH1 0x40 MLOAD PUSH32 0x8C379A000000000000000000000000000000000000000000000000000000000 DUP2 MSTORE PUSH1 0x4 ADD PUSH2 0x2030 SWAP1 PUSH2 0x4B8A JUMP JUMPDEST PUSH1 0x40 MLOAD DUP1 SWAP2 SUB SWAP1 REVERT JUMPDEST PUSH2 0x2046 DUP3 DUP7 DUP7 DUP5 SUB PUSH2 0x2863 JUMP JUMPDEST PUSH1 0x1 SWAP3 POP POP POP SWAP3 SWAP2 POP POP JUMP JUMPDEST PUSH1 0x0 DUP1 PUSH2 0x205D PUSH2 0x285B JUMP JUMPDEST SWAP1 POP PUSH2 0x206A DUP2 DUP6 DUP6 PUSH2 0x2B8C JUMP JUMPDEST PUSH1 0x1 SWAP2 POP POP SWAP3 SWAP2 POP POP JUMP JUMPDEST PUSH2 0x207D PUSH2 0x2A2C JUMP JUMPDEST PUSH2 0x2086 DUP2 PUSH2 0x2199 JUMP JUMPDEST PUSH2 0x20C7 JUMPI DUP1 PUSH1 0x40 MLOAD PUSH32 0x8176951300000000000000000000000000000000000000000000000000000000 DUP2 MSTORE PUSH1 0x4 ADD PUSH2 0x20BE SWAP2 SWAP1 PUSH2 0x44C7 JUMP JUMPDEST PUSH1 0x40 MLOAD DUP1 SWAP2 SUB SWAP1 REVERT JUMPDEST PUSH1 0x0 PUSH1 0x16 PUSH1 0x0 DUP4 PUSH20 0xFFFFFFFFFFFFFFFFFFFFFFFFFFFFFFFFFFFFFFFF AND PUSH20 0xFFFFFFFFFFFFFFFFFFFFFFFFFFFFFFFFFFFFFFFF AND DUP2 MSTORE PUSH1 0x20 ADD SWAP1 DUP2 MSTORE PUSH1 0x20 ADD PUSH1 0x0 KECCAK256 PUSH1 0x0 PUSH2 0x100 EXP DUP2 SLOAD DUP2 PUSH1 0xFF MUL NOT AND SWAP1 DUP4 ISZERO ISZERO MUL OR SWAP1 SSTORE POP POP JUMP JUMPDEST PUSH1 0x0 PUSH1 0xC PUSH1 0x2 SWAP1 SLOAD SWAP1 PUSH2 0x100 EXP SWAP1 DIV PUSH1 0xFF AND PUSH1 0xFF AND SWAP1 POP SWAP1 JUMP JUMPDEST PUSH1 0x0 PUSH1 0xC PUSH1 0x0 SWAP1 SLOAD SWAP1 PUSH2 0x100 EXP SWAP1 DIV PUSH1 0xFF AND SWAP1 POP SWAP1 JUMP JUMPDEST PUSH1 0x0 PUSH1 0xE PUSH1 0x0 SWAP1 SLOAD SWAP1 PUSH2 0x100 EXP SWAP1 DIV PUSH20 0xFFFFFFFFFFFFFFFFFFFFFFFFFFFFFFFFFFFFFFFF AND SWAP1 POP SWAP1 JUMP JUMPDEST PUSH1 0x0 PUSH1 0xC PUSH1 0x7 SWAP1 SLOAD SWAP1 PUSH2 0x100 EXP SWAP1 DIV PUSH2 0xFFFF AND PUSH2 0xFFFF AND SWAP1 POP SWAP1 JUMP JUMPDEST PUSH1 0x0 PUSH1 0x16 PUSH1 0x0 DUP4 PUSH20 0xFFFFFFFFFFFFFFFFFFFFFFFFFFFFFFFFFFFFFFFF AND PUSH20 0xFFFFFFFFFFFFFFFFFFFFFFFFFFFFFFFFFFFFFFFF AND DUP2 MSTORE PUSH1 0x20 ADD SWAP1 DUP2 MSTORE PUSH1 0x20 ADD PUSH1 0x0 KECCAK256 PUSH1 0x0 SWAP1 SLOAD SWAP1 PUSH2 0x100 EXP SWAP1 DIV PUSH1 0xFF AND SWAP1 POP SWAP2 SWAP1 POP JUMP JUMPDEST PUSH2 0x21F7 PUSH2 0x2A2C JUMP JUMPDEST PUSH1 0x0 PUSH20 0xFFFFFFFFFFFFFFFFFFFFFFFFFFFFFFFFFFFFFFFF AND DUP2 PUSH20 0xFFFFFFFFFFFFFFFFFFFFFFFFFFFFFFFFFFFFFFFF AND SUB PUSH2 0x225D JUMPI PUSH1 0x40 MLOAD PUSH32 0x342F50B300000000000000000000000000000000000000000000000000000000 DUP2 MSTORE PUSH1 0x4 ADD PUSH1 0x40 MLOAD DUP1 SWAP2 SUB SWAP1 REVERT JUMPDEST DUP1 PUSH1 0xD PUSH1 0x0 PUSH2 0x100 EXP DUP2 SLOAD DUP2 PUSH20 0xFFFFFFFFFFFFFFFFFFFFFFFFFFFFFFFFFFFFFFFF MUL NOT AND SWAP1 DUP4 PUSH20 0xFFFFFFFFFFFFFFFFFFFFFFFFFFFFFFFFFFFFFFFF AND MUL OR SWAP1 SSTORE POP PUSH2 0x22A7 DUP2 PUSH2 0x2199 JUMP JUMPDEST PUSH2 0x22D7 JUMPI PUSH2 0x22D6 PUSH1 0xD PUSH1 0x0 SWAP1 SLOAD SWAP1 PUSH2 0x100 EXP SWAP1 DIV PUSH20 0xFFFFFFFFFFFFFFFFFFFFFFFFFFFFFFFFFFFFFFFF AND PUSH2 0x189E JUMP JUMPDEST JUMPDEST POP JUMP JUMPDEST PUSH2 0x22E2 PUSH2 0x2A2C JUMP JUMPDEST PUSH1 0x15 PUSH1 0x0 DUP3 PUSH20 0xFFFFFFFFFFFFFFFFFFFFFFFFFFFFFFFFFFFFFFFF AND PUSH20 0xFFFFFFFFFFFFFFFFFFFFFFFFFFFFFFFFFFFFFFFF AND DUP2 MSTORE PUSH1 0x20 ADD SWAP1 DUP2 MSTORE PUSH1 0x20 ADD PUSH1 0x0 KECCAK256 PUSH1 0x0 SWAP1 SLOAD SWAP1 PUSH2 0x100 EXP SWAP1 DIV PUSH1 0xFF AND PUSH2 0x2370 JUMPI DUP1 PUSH1 0x40 MLOAD PUSH32 0xD3DCF12100000000000000000000000000000000000000000000000000000000 DUP2 MSTORE PUSH1 0x4 ADD PUSH2 0x2367 SWAP2 SWAP1 PUSH2 0x44C7 JUMP JUMPDEST PUSH1 0x40 MLOAD DUP1 SWAP2 SUB SWAP1 REVERT JUMPDEST PUSH1 0x0 PUSH1 0x15 PUSH1 0x0 DUP4 PUSH20 0xFFFFFFFFFFFFFFFFFFFFFFFFFFFFFFFFFFFFFFFF AND PUSH20 0xFFFFFFFFFFFFFFFFFFFFFFFFFFFFFFFFFFFFFFFF AND DUP2 MSTORE PUSH1 0x20 ADD SWAP1 DUP2 MSTORE PUSH1 0x20 ADD PUSH1 0x0 KECCAK256 PUSH1 0x0 PUSH2 0x100 EXP DUP2 SLOAD DUP2 PUSH1 0xFF MUL NOT AND SWAP1 DUP4 ISZERO ISZERO MUL OR SWAP1 SSTORE POP POP JUMP JUMPDEST PUSH2 0x23D3 PUSH2 0x2A2C JUMP JUMPDEST PUSH1 0x0 PUSH20 0xFFFFFFFFFFFFFFFFFFFFFFFFFFFFFFFFFFFFFFFF AND DUP2 PUSH20 0xFFFFFFFFFFFFFFFFFFFFFFFFFFFFFFFFFFFFFFFF AND SUB PUSH2 0x2439 JUMPI PUSH1 0x40 MLOAD PUSH32 0x342F50B300000000000000000000000000000000000000000000000000000000 DUP2 MSTORE PUSH1 0x4 ADD PUSH1 0x40 MLOAD DUP1 SWAP2 SUB SWAP1 REVERT JUMPDEST DUP1 PUSH1 0x14 PUSH1 0x0 PUSH2 0x100 EXP DUP2 SLOAD DUP2 PUSH20 0xFFFFFFFFFFFFFFFFFFFFFFFFFFFFFFFFFFFFFFFF MUL NOT AND SWAP1 DUP4 PUSH20 0xFFFFFFFFFFFFFFFFFFFFFFFFFFFFFFFFFFFFFFFF AND MUL OR SWAP1 SSTORE POP POP JUMP JUMPDEST PUSH1 0x0 PUSH1 0x11 PUSH1 0x0 SWAP1 SLOAD SWAP1 PUSH2 0x100 EXP SWAP1 DIV PUSH20 0xFFFFFFFFFFFFFFFFFFFFFFFFFFFFFFFFFFFFFFFF AND SWAP1 POP SWAP1 JUMP JUMPDEST PUSH1 0x0 PUSH1 0x1 PUSH1 0x0 DUP5 PUSH20 0xFFFFFFFFFFFFFFFFFFFFFFFFFFFFFFFFFFFFFFFF AND PUSH20 0xFFFFFFFFFFFFFFFFFFFFFFFFFFFFFFFFFFFFFFFF AND DUP2 MSTORE PUSH1 0x20 ADD SWAP1 DUP2 MSTORE PUSH1 0x20 ADD PUSH1 0x0 KECCAK256 PUSH1 0x0 DUP4 PUSH20 0xFFFFFFFFFFFFFFFFFFFFFFFFFFFFFFFFFFFFFFFF AND PUSH20 0xFFFFFFFFFFFFFFFFFFFFFFFFFFFFFFFFFFFFFFFF AND DUP2 MSTORE PUSH1 0x20 ADD SWAP1 DUP2 MSTORE PUSH1 0x20 ADD PUSH1 0x0 KECCAK256 SLOAD SWAP1 POP SWAP3 SWAP2 POP POP JUMP JUMPDEST PUSH2 0x2536 PUSH2 0x2A2C JUMP JUMPDEST PUSH1 0x0 CALLER PUSH20 0xFFFFFFFFFFFFFFFFFFFFFFFFFFFFFFFFFFFFFFFF AND SELFBALANCE PUSH1 0x40 MLOAD PUSH2 0x255C SWAP1 PUSH2 0x4BDB JUMP JUMPDEST PUSH1 0x0 PUSH1 0x40 MLOAD DUP1 DUP4 SUB DUP2 DUP6 DUP8 GAS CALL SWAP3 POP POP POP RETURNDATASIZE DUP1 PUSH1 0x0 DUP2 EQ PUSH2 0x2599 JUMPI PUSH1 0x40 MLOAD SWAP2 POP PUSH1 0x1F NOT PUSH1 0x3F RETURNDATASIZE ADD AND DUP3 ADD PUSH1 0x40 MSTORE RETURNDATASIZE DUP3 MSTORE RETURNDATASIZE PUSH1 0x0 PUSH1 0x20 DUP5 ADD RETURNDATACOPY PUSH2 0x259E JUMP JUMPDEST PUSH1 0x60 SWAP2 POP JUMPDEST POP POP SWAP1 POP DUP1 PUSH2 0x25E4 JUMPI CALLER PUSH1 0x40 MLOAD PUSH32 0x744CF9BA00000000000000000000000000000000000000000000000000000000 DUP2 MSTORE PUSH1 0x4 ADD PUSH2 0x25DB SWAP2 SWAP1 PUSH2 0x44C7 JUMP JUMPDEST PUSH1 0x40 MLOAD DUP1 SWAP2 SUB SWAP1 REVERT JUMPDEST POP JUMP JUMPDEST PUSH2 0x25EF PUSH2 0x2A2C JUMP JUMPDEST DUP1 PUSH1 0xC PUSH1 0x5 PUSH2 0x100 EXP DUP2 SLOAD DUP2 PUSH2 0xFFFF MUL NOT AND SWAP1 DUP4 PUSH2 0xFFFF AND MUL OR SWAP1 SSTORE POP POP JUMP JUMPDEST PUSH1 0x0 PUSH1 0xB SLOAD SWAP1 POP SWAP1 JUMP JUMPDEST PUSH1 0x0 PUSH1 0xC PUSH1 0x3 SWAP1 SLOAD SWAP1 PUSH2 0x100 EXP SWAP1 DIV PUSH2 0xFFFF AND PUSH2 0xFFFF AND SWAP1 POP SWAP1 JUMP JUMPDEST PUSH2 0x263D PUSH2 0x2A2C JUMP JUMPDEST PUSH1 0x0 PUSH20 0xFFFFFFFFFFFFFFFFFFFFFFFFFFFFFFFFFFFFFFFF AND DUP2 PUSH20 0xFFFFFFFFFFFFFFFFFFFFFFFFFFFFFFFFFFFFFFFF AND SUB PUSH2 0x26AC JUMPI PUSH1 0x40 MLOAD PUSH32 0x8C379A000000000000000000000000000000000000000000000000000000000 DUP2 MSTORE PUSH1 0x4 ADD PUSH2 0x26A3 SWAP1 PUSH2 0x4C62 JUMP JUMPDEST PUSH1 0x40 MLOAD DUP1 SWAP2 SUB SWAP1 REVERT JUMPDEST PUSH2 0x26B5 DUP2 PUSH2 0x344E JUMP JUMPDEST POP JUMP JUMPDEST PUSH1 0x0 PUSH1 0xD PUSH1 0x0 SWAP1 SLOAD SWAP1 PUSH2 0x100 EXP SWAP1 DIV PUSH20 0xFFFFFFFFFFFFFFFFFFFFFFFFFFFFFFFFFFFFFFFF AND SWAP1 POP SWAP1 JUMP JUMPDEST PUSH1 0x0 PUSH1 0x15 PUSH1 0x0 DUP4 PUSH20 0xFFFFFFFFFFFFFFFFFFFFFFFFFFFFFFFFFFFFFFFF AND PUSH20 0xFFFFFFFFFFFFFFFFFFFFFFFFFFFFFFFFFFFFFFFF AND DUP2 MSTORE PUSH1 0x20 ADD SWAP1 DUP2 MSTORE PUSH1 0x20 ADD PUSH1 0x0 KECCAK256 PUSH1 0x0 SWAP1 SLOAD SWAP1 PUSH2 0x100 EXP SWAP1 DIV PUSH1 0xFF AND SWAP1 POP SWAP2 SWAP1 POP JUMP JUMPDEST PUSH2 0x2743 DUP4 DUP4 DUP4 PUSH2 0x27F0 JUMP JUMPDEST PUSH1 0x0 PUSH20 0xFFFFFFFFFFFFFFFFFFFFFFFFFFFFFFFFFFFFFFFF AND DUP4 PUSH20 0xFFFFFFFFFFFFFFFFFFFFFFFFFFFFFFFFFFFFFFFF AND SUB PUSH2 0x278D JUMPI PUSH2 0x2780 DUP3 PUSH2 0x3C72 JUMP JUMPDEST PUSH2 0x2788 PUSH2 0x3CC5 JUMP JUMPDEST PUSH2 0x27EB JUMP JUMPDEST PUSH1 0x0 PUSH20 0xFFFFFFFFFFFFFFFFFFFFFFFFFFFFFFFFFFFFFFFF AND DUP3 PUSH20 0xFFFFFFFFFFFFFFFFFFFFFFFFFFFFFFFFFFFFFFFF AND SUB PUSH2 0x27D7 JUMPI PUSH2 0x27CA DUP4 PUSH2 0x3C72 JUMP JUMPDEST PUSH2 0x27D2 PUSH2 0x3CC5 JUMP JUMPDEST PUSH2 0x27EA JUMP JUMPDEST PUSH2 0x27E0 DUP4 PUSH2 0x3C72 JUMP JUMPDEST PUSH2 0x27E9 DUP3 PUSH2 0x3C72 JUMP JUMPDEST JUMPDEST JUMPDEST POP POP POP JUMP JUMPDEST PUSH2 0x27FB DUP4 DUP4 DUP4 PUSH2 0x2848 JUMP JUMPDEST PUSH2 0x2803 PUSH2 0x199C JUMP JUMPDEST ISZERO PUSH2 0x2843 JUMPI PUSH1 0x40 MLOAD PUSH32 0x8C379A000000000000000000000000000000000000000000000000000000000 DUP2 MSTORE PUSH1 0x4 ADD PUSH2 0x283A SWAP1 PUSH2 0x4CF4 JUMP JUMPDEST PUSH1 0x40 MLOAD DUP1 SWAP2 SUB SWAP1 REVERT JUMPDEST POP POP POP JUMP JUMPDEST POP POP POP JUMP JUMPDEST PUSH1 0x0 DUP2 PUSH1 0x0 ADD SLOAD SWAP1 POP SWAP2 SWAP1 POP JUMP JUMPDEST PUSH1 0x0 CALLER SWAP1 POP SWAP1 JUMP JUMPDEST PUSH1 0x0 PUSH20 0xFFFFFFFFFFFFFFFFFFFFFFFFFFFFFFFFFFFFFFFF AND DUP4 PUSH20 0xFFFFFFFFFFFFFFFFFFFFFFFFFFFFFFFFFFFFFFFF AND SUB PUSH2 0x28D2 JUMPI PUSH1 0x40 MLOAD PUSH32 0x8C379A000000000000000000000000000000000000000000000000000000000 DUP2 MSTORE PUSH1 0x4 ADD PUSH2 0x28C9 SWAP1 PUSH2 0x4D86 JUMP JUMPDEST PUSH1 0x40 MLOAD DUP1 SWAP2 SUB SWAP1 REVERT JUMPDEST PUSH1 0x0 PUSH20 0xFFFFFFFFFFFFFFFFFFFFFFFFFFFFFFFFFFFFFFFF AND DUP3 PUSH20 0xFFFFFFFFFFFFFFFFFFFFFFFFFFFFFFFFFFFFFFFF AND SUB PUSH2 0x2941 JUMPI PUSH1 0x40 MLOAD PUSH32 0x8C379A000000000000000000000000000000000000000000000000000000000 DUP2 MSTORE PUSH1 0x4 ADD PUSH2 0x2938 SWAP1 PUSH2 0x4E18 JUMP JUMPDEST PUSH1 0x40 MLOAD DUP1 SWAP2 SUB SWAP1 REVERT JUMPDEST DUP1 PUSH1 0x1 PUSH1 0x0 DUP6 PUSH20 0xFFFFFFFFFFFFFFFFFFFFFFFFFFFFFFFFFFFFFFFF AND PUSH20 0xFFFFFFFFFFFFFFFFFFFFFFFFFFFFFFFFFFFFFFFF AND DUP2 MSTORE PUSH1 0x20 ADD SWAP1 DUP2 MSTORE PUSH1 0x20 ADD PUSH1 0x0 KECCAK256 PUSH1 0x0 DUP5 PUSH20 0xFFFFFFFFFFFFFFFFFFFFFFFFFFFFFFFFFFFFFFFF AND PUSH20 0xFFFFFFFFFFFFFFFFFFFFFFFFFFFFFFFFFFFFFFFF AND DUP2 MSTORE PUSH1 0x20 ADD SWAP1 DUP2 MSTORE PUSH1 0x20 ADD PUSH1 0x0 KECCAK256 DUP2 SWAP1 SSTORE POP DUP2 PUSH20 0xFFFFFFFFFFFFFFFFFFFFFFFFFFFFFFFFFFFFFFFF AND DUP4 PUSH20 0xFFFFFFFFFFFFFFFFFFFFFFFFFFFFFFFFFFFFFFFF AND PUSH32 0x8C5BE1E5EBEC7D5BD14F71427D1E84F3DD0314C0F7B2291E5B200AC8C7C3B925 DUP4 PUSH1 0x40 MLOAD PUSH2 0x2A1F SWAP2 SWAP1 PUSH2 0x468F JUMP JUMPDEST PUSH1 0x40 MLOAD DUP1 SWAP2 SUB SWAP1 LOG3 POP POP POP JUMP JUMPDEST PUSH2 0x2A34 PUSH2 0x285B JUMP JUMPDEST PUSH20 0xFFFFFFFFFFFFFFFFFFFFFFFFFFFFFFFFFFFFFFFF AND PUSH2 0x2A52 PUSH2 0x1EA8 JUMP JUMPDEST PUSH20 0xFFFFFFFFFFFFFFFFFFFFFFFFFFFFFFFFFFFFFFFF AND EQ PUSH2 0x2AA8 JUMPI PUSH1 0x40 MLOAD PUSH32 0x8C379A000000000000000000000000000000000000000000000000000000000 DUP2 MSTORE PUSH1 0x4 ADD PUSH2 0x2A9F SWAP1 PUSH2 0x4E84 JUMP JUMPDEST PUSH1 0x40 MLOAD DUP1 SWAP2 SUB SWAP1 REVERT JUMPDEST JUMP JUMPDEST PUSH1 0x0 PUSH2 0x2AB6 PUSH1 0x9 PUSH2 0x3CD9 JUMP JUMPDEST PUSH1 0x0 PUSH2 0x2AC0 PUSH2 0x3C61 JUMP JUMPDEST SWAP1 POP PUSH32 0x8030E83B04D87BEF53480E26263266D6CA66863AA8506ACA6F2559D18AA1CB67 DUP2 PUSH1 0x40 MLOAD PUSH2 0x2AF1 SWAP2 SWAP1 PUSH2 0x468F JUMP JUMPDEST PUSH1 0x40 MLOAD DUP1 SWAP2 SUB SWAP1 LOG1 DUP1 SWAP2 POP POP SWAP1 JUMP JUMPDEST PUSH1 0x0 PUSH2 0x2B0C DUP5 DUP5 PUSH2 0x24A7 JUMP JUMPDEST SWAP1 POP PUSH32 0xFFFFFFFFFFFFFFFFFFFFFFFFFFFFFFFFFFFFFFFFFFFFFFFFFFFFFFFFFFFFFFFF DUP2 EQ PUSH2 0x2B86 JUMPI DUP2 DUP2 LT ISZERO PUSH2 0x2B78 JUMPI PUSH1 0x40 MLOAD PUSH32 0x8C379A000000000000000000000000000000000000000000000000000000000 DUP2 MSTORE PUSH1 0x4 ADD PUSH2 0x2B6F SWAP1 PUSH2 0x4EF0 JUMP JUMPDEST PUSH1 0x40 MLOAD DUP1 SWAP2 SUB SWAP1 REVERT JUMPDEST PUSH2 0x2B85 DUP5 DUP5 DUP5 DUP5 SUB PUSH2 0x2863 JUMP JUMPDEST JUMPDEST POP POP POP POP JUMP JUMPDEST PUSH2 0x2B94 PUSH2 0x3CEF JUMP JUMPDEST PUSH2 0x2B9D CALLER PUSH2 0x26E2 JUMP JUMPDEST ISZERO PUSH2 0x2BDF JUMPI CALLER PUSH1 0x40 MLOAD PUSH32 0xB2F6AAB900000000000000000000000000000000000000000000000000000000 DUP2 MSTORE PUSH1 0x4 ADD PUSH2 0x2BD6 SWAP2 SWAP1 PUSH2 0x44C7 JUMP JUMPDEST PUSH1 0x40 MLOAD DUP1 SWAP2 SUB SWAP1 REVERT JUMPDEST PUSH2 0x2BE8 ORIGIN PUSH2 0x26E2 JUMP JUMPDEST ISZERO PUSH2 0x2C2A JUMPI ORIGIN PUSH1 0x40 MLOAD PUSH32 0xB2F6AAB900000000000000000000000000000000000000000000000000000000 DUP2 MSTORE PUSH1 0x4 ADD PUSH2 0x2C21 SWAP2 SWAP1 PUSH2 0x44C7 JUMP JUMPDEST PUSH1 0x40 MLOAD DUP1 SWAP2 SUB SWAP1 REVERT JUMPDEST PUSH2 0x2C33 DUP3 PUSH2 0x26E2 JUMP JUMPDEST ISZERO PUSH2 0x2C75 JUMPI DUP2 PUSH1 0x40 MLOAD PUSH32 0xB2F6AAB900000000000000000000000000000000000000000000000000000000 DUP2 MSTORE PUSH1 0x4 ADD PUSH2 0x2C6C SWAP2 SWAP1 PUSH2 0x44C7 JUMP JUMPDEST PUSH1 0x40 MLOAD DUP1 SWAP2 SUB SWAP1 REVERT JUMPDEST PUSH1 0x0 PUSH1 0xF PUSH1 0x0 SWAP1 SLOAD SWAP1 PUSH2 0x100 EXP SWAP1 DIV PUSH20 0xFFFFFFFFFFFFFFFFFFFFFFFFFFFFFFFFFFFFFFFF AND PUSH20 0xFFFFFFFFFFFFFFFFFFFFFFFFFFFFFFFFFFFFFFFF AND DUP5 PUSH20 0xFFFFFFFFFFFFFFFFFFFFFFFFFFFFFFFFFFFFFFFF AND EQ DUP1 PUSH2 0x2D20 JUMPI POP PUSH1 0x14 PUSH1 0x0 SWAP1 SLOAD SWAP1 PUSH2 0x100 EXP SWAP1 DIV PUSH20 0xFFFFFFFFFFFFFFFFFFFFFFFFFFFFFFFFFFFFFFFF AND PUSH20 0xFFFFFFFFFFFFFFFFFFFFFFFFFFFFFFFFFFFFFFFF AND DUP5 PUSH20 0xFFFFFFFFFFFFFFFFFFFFFFFFFFFFFFFFFFFFFFFF AND EQ JUMPDEST DUP1 PUSH2 0x2D78 JUMPI POP PUSH1 0xF PUSH1 0x0 SWAP1 SLOAD SWAP1 PUSH2 0x100 EXP SWAP1 DIV PUSH20 0xFFFFFFFFFFFFFFFFFFFFFFFFFFFFFFFFFFFFFFFF AND PUSH20 0xFFFFFFFFFFFFFFFFFFFFFFFFFFFFFFFFFFFFFFFF AND DUP4 PUSH20 0xFFFFFFFFFFFFFFFFFFFFFFFFFFFFFFFFFFFFFFFF AND EQ JUMPDEST DUP1 PUSH2 0x2DD0 JUMPI POP PUSH1 0x14 PUSH1 0x0 SWAP1 SLOAD SWAP1 PUSH2 0x100 EXP SWAP1 DIV PUSH20 0xFFFFFFFFFFFFFFFFFFFFFFFFFFFFFFFFFFFFFFFF AND PUSH20 0xFFFFFFFFFFFFFFFFFFFFFFFFFFFFFFFFFFFFFFFF AND DUP4 PUSH20 0xFFFFFFFFFFFFFFFFFFFFFFFFFFFFFFFFFFFFFFFF AND EQ JUMPDEST SWAP1 POP PUSH1 0x0 PUSH1 0xF PUSH1 0x0 SWAP1 SLOAD SWAP1 PUSH2 0x100 EXP SWAP1 DIV PUSH20 0xFFFFFFFFFFFFFFFFFFFFFFFFFFFFFFFFFFFFFFFF AND PUSH20 0xFFFFFFFFFFFFFFFFFFFFFFFFFFFFFFFFFFFFFFFF AND DUP6 PUSH20 0xFFFFFFFFFFFFFFFFFFFFFFFFFFFFFFFFFFFFFFFF AND EQ DUP1 PUSH2 0x2E7D JUMPI POP PUSH1 0x14 PUSH1 0x0 SWAP1 SLOAD SWAP1 PUSH2 0x100 EXP SWAP1 DIV PUSH20 0xFFFFFFFFFFFFFFFFFFFFFFFFFFFFFFFFFFFFFFFF AND PUSH20 0xFFFFFFFFFFFFFFFFFFFFFFFFFFFFFFFFFFFFFFFF AND DUP6 PUSH20 0xFFFFFFFFFFFFFFFFFFFFFFFFFFFFFFFFFFFFFFFF AND EQ JUMPDEST SWAP1 POP PUSH1 0x0 PUSH1 0xF PUSH1 0x0 SWAP1 SLOAD SWAP1 PUSH2 0x100 EXP SWAP1 DIV PUSH20 0xFFFFFFFFFFFFFFFFFFFFFFFFFFFFFFFFFFFFFFFF AND PUSH20 0xFFFFFFFFFFFFFFFFFFFFFFFFFFFFFFFFFFFFFFFF AND DUP6 PUSH20 0xFFFFFFFFFFFFFFFFFFFFFFFFFFFFFFFFFFFFFFFF AND EQ DUP1 PUSH2 0x2F2A JUMPI POP PUSH1 0x14 PUSH1 0x0 SWAP1 SLOAD SWAP1 PUSH2 0x100 EXP SWAP1 DIV PUSH20 0xFFFFFFFFFFFFFFFFFFFFFFFFFFFFFFFFFFFFFFFF AND PUSH20 0xFFFFFFFFFFFFFFFFFFFFFFFFFFFFFFFFFFFFFFFF AND DUP6 PUSH20 0xFFFFFFFFFFFFFFFFFFFFFFFFFFFFFFFFFFFFFFFF AND EQ JUMPDEST SWAP1 POP PUSH1 0x0 DUP1 PUSH1 0x0 PUSH20 0xFFFFFFFFFFFFFFFFFFFFFFFFFFFFFFFFFFFFFFFF AND PUSH1 0xF PUSH1 0x0 SWAP1 SLOAD SWAP1 PUSH2 0x100 EXP SWAP1 DIV PUSH20 0xFFFFFFFFFFFFFFFFFFFFFFFFFFFFFFFFFFFFFFFF AND PUSH20 0xFFFFFFFFFFFFFFFFFFFFFFFFFFFFFFFFFFFFFFFF AND EQ PUSH2 0x301F JUMPI PUSH1 0xF PUSH1 0x0 SWAP1 SLOAD SWAP1 PUSH2 0x100 EXP SWAP1 DIV PUSH20 0xFFFFFFFFFFFFFFFFFFFFFFFFFFFFFFFFFFFFFFFF AND PUSH20 0xFFFFFFFFFFFFFFFFFFFFFFFFFFFFFFFFFFFFFFFF AND PUSH4 0x902F1AC PUSH1 0x40 MLOAD DUP2 PUSH4 0xFFFFFFFF AND PUSH1 0xE0 SHL DUP2 MSTORE PUSH1 0x4 ADD PUSH1 0x60 PUSH1 0x40 MLOAD DUP1 DUP4 SUB DUP2 DUP7 GAS STATICCALL SWAP3 POP POP POP DUP1 ISZERO PUSH2 0x300F JUMPI POP PUSH1 0x40 MLOAD RETURNDATASIZE PUSH1 0x1F NOT PUSH1 0x1F DUP3 ADD AND DUP3 ADD DUP1 PUSH1 0x40 MSTORE POP DUP2 ADD SWAP1 PUSH2 0x300C SWAP2 SWAP1 PUSH2 0x4F92 JUMP JUMPDEST PUSH1 0x1 JUMPDEST ISZERO PUSH2 0x301E JUMPI DUP3 SWAP5 POP DUP2 SWAP4 POP POP POP POP JUMPDEST JUMPDEST PUSH2 0x3028 DUP9 PUSH2 0x2199 JUMP JUMPDEST ISZERO DUP1 ISZERO PUSH2 0x303B JUMPI POP PUSH2 0x3039 DUP8 PUSH2 0x2199 JUMP JUMPDEST ISZERO JUMPDEST DUP1 ISZERO PUSH2 0x3044 JUMPI POP DUP5 JUMPDEST ISZERO PUSH2 0x3057 JUMPI PUSH2 0x3054 DUP9 DUP9 DUP9 PUSH2 0x3D39 JUMP JUMPDEST SWAP6 POP JUMPDEST DUP4 ISZERO PUSH2 0x30B7 JUMPI DUP7 PUSH20 0xFFFFFFFFFFFFFFFFFFFFFFFFFFFFFFFFFFFFFFFF AND PUSH32 0x8462FBA29DBB512E305E3DBB93CA56C6565C97E1ABFE92BB11623F6CF5FDD9F1 DUP8 PUSH1 0x1 DUP6 DUP6 PUSH1 0x40 MLOAD PUSH2 0x30AA SWAP5 SWAP4 SWAP3 SWAP2 SWAP1 PUSH2 0x5016 JUMP JUMPDEST PUSH1 0x40 MLOAD DUP1 SWAP2 SUB SWAP1 LOG2 PUSH2 0x3114 JUMP JUMPDEST DUP3 ISZERO PUSH2 0x3113 JUMPI DUP8 PUSH20 0xFFFFFFFFFFFFFFFFFFFFFFFFFFFFFFFFFFFFFFFF AND PUSH32 0x8462FBA29DBB512E305E3DBB93CA56C6565C97E1ABFE92BB11623F6CF5FDD9F1 DUP8 PUSH1 0x0 DUP6 DUP6 PUSH1 0x40 MLOAD PUSH2 0x310A SWAP5 SWAP4 SWAP3 SWAP2 SWAP1 PUSH2 0x5016 JUMP JUMPDEST PUSH1 0x40 MLOAD DUP1 SWAP2 SUB SWAP1 LOG2 JUMPDEST JUMPDEST PUSH2 0x311F DUP9 DUP9 DUP9 PUSH2 0x3FD8 JUMP JUMPDEST POP POP POP POP POP POP POP POP JUMP JUMPDEST PUSH2 0x3131 PUSH2 0x424E JUMP JUMPDEST PUSH1 0x0 PUSH1 0x5 PUSH1 0x14 PUSH2 0x100 EXP DUP2 SLOAD DUP2 PUSH1 0xFF MUL NOT AND SWAP1 DUP4 ISZERO ISZERO MUL OR SWAP1 SSTORE POP PUSH32 0x5DB9EE0A495BF2E6FF9C91A7834C1BA4FDD244A5E8AA4E537BD38AEAE4B073AA PUSH2 0x3175 PUSH2 0x285B JUMP JUMPDEST PUSH1 0x40 MLOAD PUSH2 0x3182 SWAP2 SWAP1 PUSH2 0x44C7 JUMP JUMPDEST PUSH1 0x40 MLOAD DUP1 SWAP2 SUB SWAP1 LOG1 JUMP JUMPDEST PUSH1 0x0 PUSH20 0xFFFFFFFFFFFFFFFFFFFFFFFFFFFFFFFFFFFFFFFF AND DUP3 PUSH20 0xFFFFFFFFFFFFFFFFFFFFFFFFFFFFFFFFFFFFFFFF AND SUB PUSH2 0x31FB JUMPI PUSH1 0x40 MLOAD PUSH32 0x8C379A000000000000000000000000000000000000000000000000000000000 DUP2 MSTORE PUSH1 0x4 ADD PUSH2 0x31F2 SWAP1 PUSH2 0x50CD JUMP JUMPDEST PUSH1 0x40 MLOAD DUP1 SWAP2 SUB SWAP1 REVERT JUMPDEST PUSH2 0x3207 DUP3 PUSH1 0x0 DUP4 PUSH2 0x4297 JUMP JUMPDEST PUSH1 0x0 DUP1 PUSH1 0x0 DUP5 PUSH20 0xFFFFFFFFFFFFFFFFFFFFFFFFFFFFFFFFFFFFFFFF AND PUSH20 0xFFFFFFFFFFFFFFFFFFFFFFFFFFFFFFFFFFFFFFFF AND DUP2 MSTORE PUSH1 0x20 ADD SWAP1 DUP2 MSTORE PUSH1 0x20 ADD PUSH1 0x0 KECCAK256 SLOAD SWAP1 POP DUP2 DUP2 LT ISZERO PUSH2 0x328D JUMPI PUSH1 0x40 MLOAD PUSH32 0x8C379A000000000000000000000000000000000000000000000000000000000 DUP2 MSTORE PUSH1 0x4 ADD PUSH2 0x3284 SWAP1 PUSH2 0x515F JUMP JUMPDEST PUSH1 0x40 MLOAD DUP1 SWAP2 SUB SWAP1 REVERT JUMPDEST DUP2 DUP2 SUB PUSH1 0x0 DUP1 DUP6 PUSH20 0xFFFFFFFFFFFFFFFFFFFFFFFFFFFFFFFFFFFFFFFF AND PUSH20 0xFFFFFFFFFFFFFFFFFFFFFFFFFFFFFFFFFFFFFFFF AND DUP2 MSTORE PUSH1 0x20 ADD SWAP1 DUP2 MSTORE PUSH1 0x20 ADD PUSH1 0x0 KECCAK256 DUP2 SWAP1 SSTORE POP DUP2 PUSH1 0x2 PUSH1 0x0 DUP3 DUP3 SLOAD SUB SWAP3 POP POP DUP2 SWAP1 SSTORE POP PUSH1 0x0 PUSH20 0xFFFFFFFFFFFFFFFFFFFFFFFFFFFFFFFFFFFFFFFF AND DUP4 PUSH20 0xFFFFFFFFFFFFFFFFFFFFFFFFFFFFFFFFFFFFFFFF AND PUSH32 0xDDF252AD1BE2C89B69C2B068FC378DAA952BA7F163C4A11628F55A4DF523B3EF DUP5 PUSH1 0x40 MLOAD PUSH2 0x3340 SWAP2 SWAP1 PUSH2 0x468F JUMP JUMPDEST PUSH1 0x40 MLOAD DUP1 SWAP2 SUB SWAP1 LOG3 PUSH2 0x3354 DUP4 PUSH1 0x0 DUP5 PUSH2 0x42AF JUMP JUMPDEST POP POP POP JUMP JUMPDEST PUSH1 0x0 DUP1 PUSH1 0x0 DUP5 GT PUSH2 0x339F JUMPI PUSH1 0x40 MLOAD PUSH32 0x8C379A000000000000000000000000000000000000000000000000000000000 DUP2 MSTORE PUSH1 0x4 ADD PUSH2 0x3396 SWAP1 PUSH2 0x51CB JUMP JUMPDEST PUSH1 0x40 MLOAD DUP1 SWAP2 SUB SWAP1 REVERT JUMPDEST PUSH2 0x33A7 PUSH2 0x3C61 JUMP JUMPDEST DUP5 GT ISZERO PUSH2 0x33E9 JUMPI PUSH1 0x40 MLOAD PUSH32 0x8C379A000000000000000000000000000000000000000000000000000000000 DUP2 MSTORE PUSH1 0x4 ADD PUSH2 0x33E0 SWAP1 PUSH2 0x5237 JUMP JUMPDEST PUSH1 0x40 MLOAD DUP1 SWAP2 SUB SWAP1 REVERT JUMPDEST PUSH1 0x0 PUSH2 0x3401 DUP6 DUP6 PUSH1 0x0 ADD PUSH2 0x42B4 SWAP1 SWAP2 SWAP1 PUSH4 0xFFFFFFFF AND JUMP JUMPDEST SWAP1 POP DUP4 PUSH1 0x0 ADD DUP1 SLOAD SWAP1 POP DUP2 SUB PUSH2 0x341E JUMPI PUSH1 0x0 DUP1 SWAP3 POP SWAP3 POP POP PUSH2 0x3447 JUMP JUMPDEST PUSH1 0x1 DUP5 PUSH1 0x1 ADD DUP3 DUP2 SLOAD DUP2 LT PUSH2 0x3436 JUMPI PUSH2 0x3435 PUSH2 0x5257 JUMP JUMPDEST JUMPDEST SWAP1 PUSH1 0x0 MSTORE PUSH1 0x20 PUSH1 0x0 KECCAK256 ADD SLOAD SWAP3 POP SWAP3 POP POP JUMPDEST SWAP3 POP SWAP3 SWAP1 POP JUMP JUMPDEST PUSH1 0x0 PUSH1 0x5 PUSH1 0x0 SWAP1 SLOAD SWAP1 PUSH2 0x100 EXP SWAP1 DIV PUSH20 0xFFFFFFFFFFFFFFFFFFFFFFFFFFFFFFFFFFFFFFFF AND SWAP1 POP DUP2 PUSH1 0x5 PUSH1 0x0 PUSH2 0x100 EXP DUP2 SLOAD DUP2 PUSH20 0xFFFFFFFFFFFFFFFFFFFFFFFFFFFFFFFFFFFFFFFF MUL NOT AND SWAP1 DUP4 PUSH20 0xFFFFFFFFFFFFFFFFFFFFFFFFFFFFFFFFFFFFFFFF AND MUL OR SWAP1 SSTORE POP DUP2 PUSH20 0xFFFFFFFFFFFFFFFFFFFFFFFFFFFFFFFFFFFFFFFF AND DUP2 PUSH20 0xFFFFFFFFFFFFFFFFFFFFFFFFFFFFFFFFFFFFFFFF AND PUSH32 0x8BE0079C531659141344CD1FD0A4F28419497F9722A3DAAFE3B4186F6B6457E0 PUSH1 0x40 MLOAD PUSH1 0x40 MLOAD DUP1 SWAP2 SUB SWAP1 LOG3 POP POP JUMP JUMPDEST PUSH1 0x0 PUSH1 0x11 PUSH1 0x0 SWAP1 SLOAD SWAP1 PUSH2 0x100 EXP SWAP1 DIV PUSH20 0xFFFFFFFFFFFFFFFFFFFFFFFFFFFFFFFFFFFFFFFF AND SWAP1 POP PUSH1 0x0 PUSH1 0xA SLOAD SUB PUSH2 0x3577 JUMPI PUSH1 0x40 MLOAD PUSH32 0x87DB5A4F00000000000000000000000000000000000000000000000000000000 DUP2 MSTORE PUSH1 0x4 ADD PUSH1 0x40 MLOAD DUP1 SWAP2 SUB SWAP1 REVERT JUMPDEST PUSH1 0x0 PUSH2 0x3E8 PUSH2 0xFFFF AND PUSH1 0xC PUSH1 0x3 SWAP1 SLOAD SWAP1 PUSH2 0x100 EXP SWAP1 DIV PUSH2 0xFFFF AND PUSH2 0xFFFF AND PUSH1 0xA SLOAD PUSH2 0x35A2 SWAP2 SWAP1 PUSH2 0x5286 JUMP JUMPDEST PUSH2 0x35AC SWAP2 SWAP1 PUSH2 0x52F7 JUMP JUMPDEST SWAP1 POP PUSH1 0x0 PUSH2 0x3E8 PUSH2 0xFFFF AND PUSH1 0xC PUSH1 0x5 SWAP1 SLOAD SWAP1 PUSH2 0x100 EXP SWAP1 DIV PUSH2 0xFFFF AND PUSH2 0xFFFF AND PUSH1 0xA SLOAD PUSH2 0x35D9 SWAP2 SWAP1 PUSH2 0x5286 JUMP JUMPDEST PUSH2 0x35E3 SWAP2 SWAP1 PUSH2 0x52F7 JUMP JUMPDEST SWAP1 POP PUSH1 0x0 PUSH2 0x3E8 PUSH2 0xFFFF AND PUSH1 0xC PUSH1 0x7 SWAP1 SLOAD SWAP1 PUSH2 0x100 EXP SWAP1 DIV PUSH2 0xFFFF AND PUSH2 0xFFFF AND PUSH1 0xA SLOAD PUSH2 0x3610 SWAP2 SWAP1 PUSH2 0x5286 JUMP JUMPDEST PUSH2 0x361A SWAP2 SWAP1 PUSH2 0x52F7 JUMP JUMPDEST SWAP1 POP PUSH1 0x0 SELFBALANCE SWAP1 POP PUSH1 0x0 PUSH1 0x2 PUSH8 0xFFFFFFFFFFFFFFFF DUP2 GT ISZERO PUSH2 0x363E JUMPI PUSH2 0x363D PUSH2 0x5328 JUMP JUMPDEST JUMPDEST PUSH1 0x40 MLOAD SWAP1 DUP1 DUP3 MSTORE DUP1 PUSH1 0x20 MUL PUSH1 0x20 ADD DUP3 ADD PUSH1 0x40 MSTORE DUP1 ISZERO PUSH2 0x366C JUMPI DUP2 PUSH1 0x20 ADD PUSH1 0x20 DUP3 MUL DUP1 CALLDATASIZE DUP4 CALLDATACOPY DUP1 DUP3 ADD SWAP2 POP POP SWAP1 POP JUMPDEST POP SWAP1 POP ADDRESS DUP2 PUSH1 0x0 DUP2 MLOAD DUP2 LT PUSH2 0x3684 JUMPI PUSH2 0x3683 PUSH2 0x5257 JUMP JUMPDEST JUMPDEST PUSH1 0x20 MUL PUSH1 0x20 ADD ADD SWAP1 PUSH20 0xFFFFFFFFFFFFFFFFFFFFFFFFFFFFFFFFFFFFFFFF AND SWAP1 DUP2 PUSH20 0xFFFFFFFFFFFFFFFFFFFFFFFFFFFFFFFFFFFFFFFF AND DUP2 MSTORE POP POP DUP6 PUSH20 0xFFFFFFFFFFFFFFFFFFFFFFFFFFFFFFFFFFFFFFFF AND PUSH4 0xAD5C4648 PUSH1 0x40 MLOAD DUP2 PUSH4 0xFFFFFFFF AND PUSH1 0xE0 SHL DUP2 MSTORE PUSH1 0x4 ADD PUSH1 0x20 PUSH1 0x40 MLOAD DUP1 DUP4 SUB DUP2 DUP7 GAS STATICCALL ISZERO DUP1 ISZERO PUSH2 0x3709 JUMPI RETURNDATASIZE PUSH1 0x0 DUP1 RETURNDATACOPY RETURNDATASIZE PUSH1 0x0 REVERT JUMPDEST POP POP POP POP PUSH1 0x40 MLOAD RETURNDATASIZE PUSH1 0x1F NOT PUSH1 0x1F DUP3 ADD AND DUP3 ADD DUP1 PUSH1 0x40 MSTORE POP DUP2 ADD SWAP1 PUSH2 0x372D SWAP2 SWAP1 PUSH2 0x49BF JUMP JUMPDEST DUP2 PUSH1 0x1 DUP2 MLOAD DUP2 LT PUSH2 0x3741 JUMPI PUSH2 0x3740 PUSH2 0x5257 JUMP JUMPDEST JUMPDEST PUSH1 0x20 MUL PUSH1 0x20 ADD ADD SWAP1 PUSH20 0xFFFFFFFFFFFFFFFFFFFFFFFFFFFFFFFFFFFFFFFF AND SWAP1 DUP2 PUSH20 0xFFFFFFFFFFFFFFFFFFFFFFFFFFFFFFFFFFFFFFFF AND DUP2 MSTORE POP POP DUP6 PUSH20 0xFFFFFFFFFFFFFFFFFFFFFFFFFFFFFFFFFFFFFFFF AND PUSH4 0x18CBAFE5 DUP7 PUSH1 0x0 DUP5 ADDRESS TIMESTAMP PUSH1 0x40 MLOAD DUP7 PUSH4 0xFFFFFFFF AND PUSH1 0xE0 SHL DUP2 MSTORE PUSH1 0x4 ADD PUSH2 0x37BD SWAP6 SWAP5 SWAP4 SWAP3 SWAP2 SWAP1 PUSH2 0x5450 JUMP JUMPDEST PUSH1 0x0 PUSH1 0x40 MLOAD DUP1 DUP4 SUB DUP2 PUSH1 0x0 DUP8 GAS CALL ISZERO DUP1 ISZERO PUSH2 0x37DC JUMPI RETURNDATASIZE PUSH1 0x0 DUP1 RETURNDATACOPY RETURNDATASIZE PUSH1 0x0 REVERT JUMPDEST POP POP POP POP PUSH1 0x40 MLOAD RETURNDATASIZE PUSH1 0x0 DUP3 RETURNDATACOPY RETURNDATASIZE PUSH1 0x1F NOT PUSH1 0x1F DUP3 ADD AND DUP3 ADD DUP1 PUSH1 0x40 MSTORE POP DUP2 ADD SWAP1 PUSH2 0x3805 SWAP2 SWAP1 PUSH2 0x55C3 JUMP JUMPDEST POP PUSH1 0x0 DUP3 SELFBALANCE PUSH2 0x3814 SWAP2 SWAP1 PUSH2 0x560C JUMP JUMPDEST SWAP1 POP SELFBALANCE SWAP3 POP DUP7 PUSH20 0xFFFFFFFFFFFFFFFFFFFFFFFFFFFFFFFFFFFFFFFF AND PUSH4 0x18CBAFE5 DUP7 PUSH1 0x0 DUP6 ADDRESS TIMESTAMP PUSH1 0x40 MLOAD DUP7 PUSH4 0xFFFFFFFF AND PUSH1 0xE0 SHL DUP2 MSTORE PUSH1 0x4 ADD PUSH2 0x385B SWAP6 SWAP5 SWAP4 SWAP3 SWAP2 SWAP1 PUSH2 0x5450 JUMP JUMPDEST PUSH1 0x0 PUSH1 0x40 MLOAD DUP1 DUP4 SUB DUP2 PUSH1 0x0 DUP8 GAS CALL ISZERO DUP1 ISZERO PUSH2 0x387A JUMPI RETURNDATASIZE PUSH1 0x0 DUP1 RETURNDATACOPY RETURNDATASIZE PUSH1 0x0 REVERT JUMPDEST POP POP POP POP PUSH1 0x40 MLOAD RETURNDATASIZE PUSH1 0x0 DUP3 RETURNDATACOPY RETURNDATASIZE PUSH1 0x1F NOT PUSH1 0x1F DUP3 ADD AND DUP3 ADD DUP1 PUSH1 0x40 MSTORE POP DUP2 ADD SWAP1 PUSH2 0x38A3 SWAP2 SWAP1 PUSH2 0x55C3 JUMP JUMPDEST POP PUSH1 0x0 DUP4 SELFBALANCE PUSH2 0x38B2 SWAP2 SWAP1 PUSH2 0x560C JUMP JUMPDEST SWAP1 POP SELFBALANCE SWAP4 POP PUSH1 0x2 DUP6 PUSH2 0x38C4 SWAP2 SWAP1 PUSH2 0x52F7 JUMP JUMPDEST SWAP5 POP DUP8 PUSH20 0xFFFFFFFFFFFFFFFFFFFFFFFFFFFFFFFFFFFFFFFF AND PUSH4 0x18CBAFE5 DUP7 PUSH1 0x0 DUP7 ADDRESS TIMESTAMP PUSH1 0x40 MLOAD DUP7 PUSH4 0xFFFFFFFF AND PUSH1 0xE0 SHL DUP2 MSTORE PUSH1 0x4 ADD PUSH2 0x3908 SWAP6 SWAP5 SWAP4 SWAP3 SWAP2 SWAP1 PUSH2 0x5450 JUMP JUMPDEST PUSH1 0x0 PUSH1 0x40 MLOAD DUP1 DUP4 SUB DUP2 PUSH1 0x0 DUP8 GAS CALL ISZERO DUP1 ISZERO PUSH2 0x3927 JUMPI RETURNDATASIZE PUSH1 0x0 DUP1 RETURNDATACOPY RETURNDATASIZE PUSH1 0x0 REVERT JUMPDEST POP POP POP POP PUSH1 0x40 MLOAD RETURNDATASIZE PUSH1 0x0 DUP3 RETURNDATACOPY RETURNDATASIZE PUSH1 0x1F NOT PUSH1 0x1F DUP3 ADD AND DUP3 ADD DUP1 PUSH1 0x40 MSTORE POP DUP2 ADD SWAP1 PUSH2 0x3950 SWAP2 SWAP1 PUSH2 0x55C3 JUMP JUMPDEST POP PUSH1 0x0 DUP5 SELFBALANCE PUSH2 0x395F SWAP2 SWAP1 PUSH2 0x560C JUMP JUMPDEST SWAP1 POP DUP9 PUSH20 0xFFFFFFFFFFFFFFFFFFFFFFFFFFFFFFFFFFFFFFFF AND PUSH4 0xF305D719 DUP3 ADDRESS DUP10 PUSH1 0x0 DUP1 PUSH1 0xE PUSH1 0x0 SWAP1 SLOAD SWAP1 PUSH2 0x100 EXP SWAP1 DIV PUSH20 0xFFFFFFFFFFFFFFFFFFFFFFFFFFFFFFFFFFFFFFFF AND TIMESTAMP PUSH1 0x40 MLOAD DUP9 PUSH4 0xFFFFFFFF AND PUSH1 0xE0 SHL DUP2 MSTORE PUSH1 0x4 ADD PUSH2 0x39C8 SWAP7 SWAP6 SWAP5 SWAP4 SWAP3 SWAP2 SWAP1 PUSH2 0x5640 JUMP JUMPDEST PUSH1 0x60 PUSH1 0x40 MLOAD DUP1 DUP4 SUB DUP2 DUP6 DUP9 GAS CALL ISZERO DUP1 ISZERO PUSH2 0x39E6 JUMPI RETURNDATASIZE PUSH1 0x0 DUP1 RETURNDATACOPY RETURNDATASIZE PUSH1 0x0 REVERT JUMPDEST POP POP POP POP POP PUSH1 0x40 MLOAD RETURNDATASIZE PUSH1 0x1F NOT PUSH1 0x1F DUP3 ADD AND DUP3 ADD DUP1 PUSH1 0x40 MSTORE POP DUP2 ADD SWAP1 PUSH2 0x3A0B SWAP2 SWAP1 PUSH2 0x56A1 JUMP JUMPDEST POP POP POP PUSH1 0x0 PUSH1 0xC PUSH1 0x9 SWAP1 SLOAD SWAP1 PUSH2 0x100 EXP SWAP1 DIV PUSH20 0xFFFFFFFFFFFFFFFFFFFFFFFFFFFFFFFFFFFFFFFF AND PUSH20 0xFFFFFFFFFFFFFFFFFFFFFFFFFFFFFFFFFFFFFFFF AND DUP5 PUSH1 0x40 MLOAD PUSH2 0x3A56 SWAP1 PUSH2 0x4BDB JUMP JUMPDEST PUSH1 0x0 PUSH1 0x40 MLOAD DUP1 DUP4 SUB DUP2 DUP6 DUP8 GAS CALL SWAP3 POP POP POP RETURNDATASIZE DUP1 PUSH1 0x0 DUP2 EQ PUSH2 0x3A93 JUMPI PUSH1 0x40 MLOAD SWAP2 POP PUSH1 0x1F NOT PUSH1 0x3F RETURNDATASIZE ADD AND DUP3 ADD PUSH1 0x40 MSTORE RETURNDATASIZE DUP3 MSTORE RETURNDATASIZE PUSH1 0x0 PUSH1 0x20 DUP5 ADD RETURNDATACOPY PUSH2 0x3A98 JUMP JUMPDEST PUSH1 0x60 SWAP2 POP JUMPDEST POP POP SWAP1 POP DUP1 PUSH2 0x3B00 JUMPI PUSH1 0xC PUSH1 0x9 SWAP1 SLOAD SWAP1 PUSH2 0x100 EXP SWAP1 DIV PUSH20 0xFFFFFFFFFFFFFFFFFFFFFFFFFFFFFFFFFFFFFFFF AND PUSH1 0x40 MLOAD PUSH32 0x744CF9BA00000000000000000000000000000000000000000000000000000000 DUP2 MSTORE PUSH1 0x4 ADD PUSH2 0x3AF7 SWAP2 SWAP1 PUSH2 0x44C7 JUMP JUMPDEST PUSH1 0x40 MLOAD DUP1 SWAP2 SUB SWAP1 REVERT JUMPDEST PUSH1 0xD PUSH1 0x0 SWAP1 SLOAD SWAP1 PUSH2 0x100 EXP SWAP1 DIV PUSH20 0xFFFFFFFFFFFFFFFFFFFFFFFFFFFFFFFFFFFFFFFF AND PUSH20 0xFFFFFFFFFFFFFFFFFFFFFFFFFFFFFFFFFFFFFFFF AND DUP4 PUSH1 0x40 MLOAD PUSH2 0x3B46 SWAP1 PUSH2 0x4BDB JUMP JUMPDEST PUSH1 0x0 PUSH1 0x40 MLOAD DUP1 DUP4 SUB DUP2 DUP6 DUP8 GAS CALL SWAP3 POP POP POP RETURNDATASIZE DUP1 PUSH1 0x0 DUP2 EQ PUSH2 0x3B83 JUMPI PUSH1 0x40 MLOAD SWAP2 POP PUSH1 0x1F NOT PUSH1 0x3F RETURNDATASIZE ADD AND DUP3 ADD PUSH1 0x40 MSTORE RETURNDATASIZE DUP3 MSTORE RETURNDATASIZE PUSH1 0x0 PUSH1 0x20 DUP5 ADD RETURNDATACOPY PUSH2 0x3B88 JUMP JUMPDEST PUSH1 0x60 SWAP2 POP JUMPDEST POP POP DUP1 SWAP2 POP POP DUP1 PUSH2 0x3BF2 JUMPI PUSH1 0xD PUSH1 0x0 SWAP1 SLOAD SWAP1 PUSH2 0x100 EXP SWAP1 DIV PUSH20 0xFFFFFFFFFFFFFFFFFFFFFFFFFFFFFFFFFFFFFFFF AND PUSH1 0x40 MLOAD PUSH32 0x744CF9BA00000000000000000000000000000000000000000000000000000000 DUP2 MSTORE PUSH1 0x4 ADD PUSH2 0x3BE9 SWAP2 SWAP1 PUSH2 0x44C7 JUMP JUMPDEST PUSH1 0x40 MLOAD DUP1 SWAP2 SUB SWAP1 REVERT JUMPDEST POP POP POP POP POP POP POP POP POP POP JUMP JUMPDEST PUSH2 0x3C06 PUSH2 0x3CEF JUMP JUMPDEST PUSH1 0x1 PUSH1 0x5 PUSH1 0x14 PUSH2 0x100 EXP DUP2 SLOAD DUP2 PUSH1 0xFF MUL NOT AND SWAP1 DUP4 ISZERO ISZERO MUL OR SWAP1 SSTORE POP PUSH32 0x62E78CEA01BEE320CD4E420270B5EA74000D11B0C9F74754EBDBFC544B05A258 PUSH2 0x3C4A PUSH2 0x285B JUMP JUMPDEST PUSH1 0x40 MLOAD PUSH2 0x3C57 SWAP2 SWAP1 PUSH2 0x44C7 JUMP JUMPDEST PUSH1 0x40 MLOAD DUP1 SWAP2 SUB SWAP1 LOG1 JUMP JUMPDEST PUSH1 0x0 PUSH2 0x3C6D PUSH1 0x9 PUSH2 0x284D JUMP JUMPDEST SWAP1 POP SWAP1 JUMP JUMPDEST PUSH2 0x3CC2 PUSH1 0x6 PUSH1 0x0 DUP4 PUSH20 0xFFFFFFFFFFFFFFFFFFFFFFFFFFFFFFFFFFFFFFFF AND PUSH20 0xFFFFFFFFFFFFFFFFFFFFFFFFFFFFFFFFFFFFFFFF AND DUP2 MSTORE PUSH1 0x20 ADD SWAP1 DUP2 MSTORE PUSH1 0x20 ADD PUSH1 0x0 KECCAK256 PUSH2 0x3CBD DUP4 PUSH2 0x1B61 JUMP JUMPDEST PUSH2 0x436D JUMP JUMPDEST POP JUMP JUMPDEST PUSH2 0x3CD7 PUSH1 0x7 PUSH2 0x3CD2 PUSH2 0xF57 JUMP JUMPDEST PUSH2 0x436D JUMP JUMPDEST JUMP JUMPDEST PUSH1 0x1 DUP2 PUSH1 0x0 ADD PUSH1 0x0 DUP3 DUP3 SLOAD ADD SWAP3 POP POP DUP2 SWAP1 SSTORE POP POP JUMP JUMPDEST PUSH2 0x3CF7 PUSH2 0x199C JUMP JUMPDEST ISZERO PUSH2 0x3D37 JUMPI PUSH1 0x40 MLOAD PUSH32 0x8C379A000000000000000000000000000000000000000000000000000000000 DUP2 MSTORE PUSH1 0x4 ADD PUSH2 0x3D2E SWAP1 PUSH2 0x5740 JUMP JUMPDEST PUSH1 0x40 MLOAD DUP1 SWAP2 SUB SWAP1 REVERT JUMPDEST JUMP JUMPDEST PUSH1 0x0 DUP1 PUSH1 0x0 PUSH1 0x64 DUP5 PUSH2 0x3D4B SWAP2 SWAP1 PUSH2 0x52F7 JUMP JUMPDEST SWAP1 POP PUSH1 0x0 PUSH1 0xF PUSH1 0x0 SWAP1 SLOAD SWAP1 PUSH2 0x100 EXP SWAP1 DIV PUSH20 0xFFFFFFFFFFFFFFFFFFFFFFFFFFFFFFFFFFFFFFFF AND PUSH20 0xFFFFFFFFFFFFFFFFFFFFFFFFFFFFFFFFFFFFFFFF AND DUP8 PUSH20 0xFFFFFFFFFFFFFFFFFFFFFFFFFFFFFFFFFFFFFFFF AND EQ DUP1 PUSH2 0x3DF8 JUMPI POP PUSH1 0x14 PUSH1 0x0 SWAP1 SLOAD SWAP1 PUSH2 0x100 EXP SWAP1 DIV PUSH20 0xFFFFFFFFFFFFFFFFFFFFFFFFFFFFFFFFFFFFFFFF AND PUSH20 0xFFFFFFFFFFFFFFFFFFFFFFFFFFFFFFFFFFFFFFFF AND DUP8 PUSH20 0xFFFFFFFFFFFFFFFFFFFFFFFFFFFFFFFFFFFFFFFF AND EQ JUMPDEST SWAP1 POP PUSH1 0x0 PUSH1 0xF PUSH1 0x0 SWAP1 SLOAD SWAP1 PUSH2 0x100 EXP SWAP1 DIV PUSH20 0xFFFFFFFFFFFFFFFFFFFFFFFFFFFFFFFFFFFFFFFF AND PUSH20 0xFFFFFFFFFFFFFFFFFFFFFFFFFFFFFFFFFFFFFFFF AND DUP8 PUSH20 0xFFFFFFFFFFFFFFFFFFFFFFFFFFFFFFFFFFFFFFFF AND EQ DUP1 PUSH2 0x3EA5 JUMPI POP PUSH1 0x14 PUSH1 0x0 SWAP1 SLOAD SWAP1 PUSH2 0x100 EXP SWAP1 DIV PUSH20 0xFFFFFFFFFFFFFFFFFFFFFFFFFFFFFFFFFFFFFFFF AND PUSH20 0xFFFFFFFFFFFFFFFFFFFFFFFFFFFFFFFFFFFFFFFF AND DUP8 PUSH20 0xFFFFFFFFFFFFFFFFFFFFFFFFFFFFFFFFFFFFFFFF AND EQ JUMPDEST SWAP1 POP DUP2 ISZERO PUSH2 0x3ED2 JUMPI PUSH1 0xC PUSH1 0x1 SWAP1 SLOAD SWAP1 PUSH2 0x100 EXP SWAP1 DIV PUSH1 0xFF AND PUSH1 0xFF AND DUP4 PUSH2 0x3ECB SWAP2 SWAP1 PUSH2 0x5286 JUMP JUMPDEST SWAP4 POP PUSH2 0x3EFA JUMP JUMPDEST DUP1 ISZERO PUSH2 0x3EF9 JUMPI PUSH1 0xC PUSH1 0x2 SWAP1 SLOAD SWAP1 PUSH2 0x100 EXP SWAP1 DIV PUSH1 0xFF AND PUSH1 0xFF AND DUP4 PUSH2 0x3EF6 SWAP2 SWAP1 PUSH2 0x5286 JUMP JUMPDEST SWAP4 POP JUMPDEST JUMPDEST PUSH2 0x3F05 DUP9 ADDRESS DUP7 PUSH2 0x2B8C JUMP JUMPDEST DUP4 PUSH1 0xA PUSH1 0x0 DUP3 DUP3 SLOAD PUSH2 0x3F17 SWAP2 SWAP1 PUSH2 0x4976 JUMP JUMPDEST SWAP3 POP POP DUP2 SWAP1 SSTORE POP PUSH1 0xC PUSH1 0x0 SWAP1 SLOAD SWAP1 PUSH2 0x100 EXP SWAP1 DIV PUSH1 0xFF AND DUP1 ISZERO PUSH2 0x3F3E JUMPI POP PUSH1 0xB SLOAD PUSH1 0xA SLOAD LT ISZERO JUMPDEST ISZERO PUSH2 0x3F83 JUMPI PUSH2 0x3F72 ADDRESS PUSH1 0x11 PUSH1 0x0 SWAP1 SLOAD SWAP1 PUSH2 0x100 EXP SWAP1 DIV PUSH20 0xFFFFFFFFFFFFFFFFFFFFFFFFFFFFFFFFFFFFFFFF AND PUSH1 0xA SLOAD PUSH2 0x2863 JUMP JUMPDEST PUSH2 0x3F7A PUSH2 0x3514 JUMP JUMPDEST PUSH1 0x0 PUSH1 0xA DUP2 SWAP1 SSTORE POP JUMPDEST DUP4 DUP7 PUSH2 0x3F8F SWAP2 SWAP1 PUSH2 0x560C JUMP JUMPDEST SWAP6 POP PUSH32 0x881D38ABF1296E6655F5451AD7FB65CD915DDAF5263D7F9AF19FEABEF77BFDD DUP7 DUP6 PUSH1 0x40 MLOAD PUSH2 0x3FC2 SWAP3 SWAP2 SWAP1 PUSH2 0x5760 JUMP JUMPDEST PUSH1 0x40 MLOAD DUP1 SWAP2 SUB SWAP1 LOG1 DUP6 SWAP5 POP POP POP POP POP SWAP4 SWAP3 POP POP POP JUMP JUMPDEST PUSH1 0x0 PUSH20 0xFFFFFFFFFFFFFFFFFFFFFFFFFFFFFFFFFFFFFFFF AND DUP4 PUSH20 0xFFFFFFFFFFFFFFFFFFFFFFFFFFFFFFFFFFFFFFFF AND SUB PUSH2 0x4047 JUMPI PUSH1 0x40 MLOAD PUSH32 0x8C379A000000000000000000000000000000000000000000000000000000000 DUP2 MSTORE PUSH1 0x4 ADD PUSH2 0x403E SWAP1 PUSH2 0x57FB JUMP JUMPDEST PUSH1 0x40 MLOAD DUP1 SWAP2 SUB SWAP1 REVERT JUMPDEST PUSH1 0x0 PUSH20 0xFFFFFFFFFFFFFFFFFFFFFFFFFFFFFFFFFFFFFFFF AND DUP3 PUSH20 0xFFFFFFFFFFFFFFFFFFFFFFFFFFFFFFFFFFFFFFFF AND SUB PUSH2 0x40B6 JUMPI PUSH1 0x40 MLOAD PUSH32 0x8C379A000000000000000000000000000000000000000000000000000000000 DUP2 MSTORE PUSH1 0x4 ADD PUSH2 0x40AD SWAP1 PUSH2 0x588D JUMP JUMPDEST PUSH1 0x40 MLOAD DUP1 SWAP2 SUB SWAP1 REVERT JUMPDEST PUSH2 0x40C1 DUP4 DUP4 DUP4 PUSH2 0x4297 JUMP JUMPDEST PUSH1 0x0 DUP1 PUSH1 0x0 DUP6 PUSH20 0xFFFFFFFFFFFFFFFFFFFFFFFFFFFFFFFFFFFFFFFF AND PUSH20 0xFFFFFFFFFFFFFFFFFFFFFFFFFFFFFFFFFFFFFFFF AND DUP2 MSTORE PUSH1 0x20 ADD SWAP1 DUP2 MSTORE PUSH1 0x20 ADD PUSH1 0x0 KECCAK256 SLOAD SWAP1 POP DUP2 DUP2 LT ISZERO PUSH2 0x4147 JUMPI PUSH1 0x40 MLOAD PUSH32 0x8C379A000000000000000000000000000000000000000000000000000000000 DUP2 MSTORE PUSH1 0x4 ADD PUSH2 0x413E SWAP1 PUSH2 0x591F JUMP JUMPDEST PUSH1 0x40 MLOAD DUP1 SWAP2 SUB SWAP1 REVERT JUMPDEST DUP2 DUP2 SUB PUSH1 0x0 DUP1 DUP7 PUSH20 0xFFFFFFFFFFFFFFFFFFFFFFFFFFFFFFFFFFFFFFFF AND PUSH20 0xFFFFFFFFFFFFFFFFFFFFFFFFFFFFFFFFFFFFFFFF AND DUP2 MSTORE PUSH1 0x20 ADD SWAP1 DUP2 MSTORE PUSH1 0x20 ADD PUSH1 0x0 KECCAK256 DUP2 SWAP1 SSTORE POP DUP2 PUSH1 0x0 DUP1 DUP6 PUSH20 0xFFFFFFFFFFFFFFFFFFFFFFFFFFFFFFFFFFFFFFFF AND PUSH20 0xFFFFFFFFFFFFFFFFFFFFFFFFFFFFFFFFFFFFFFFF AND DUP2 MSTORE PUSH1 0x20 ADD SWAP1 DUP2 MSTORE PUSH1 0x20 ADD PUSH1 0x0 KECCAK256 PUSH1 0x0 DUP3 DUP3 SLOAD ADD SWAP3 POP POP DUP2 SWAP1 SSTORE POP DUP3 PUSH20 0xFFFFFFFFFFFFFFFFFFFFFFFFFFFFFFFFFFFFFFFF AND DUP5 PUSH20 0xFFFFFFFFFFFFFFFFFFFFFFFFFFFFFFFFFFFFFFFF AND PUSH32 0xDDF252AD1BE2C89B69C2B068FC378DAA952BA7F163C4A11628F55A4DF523B3EF DUP5 PUSH1 0x40 MLOAD PUSH2 0x4235 SWAP2 SWAP1 PUSH2 0x468F JUMP JUMPDEST PUSH1 0x40 MLOAD DUP1 SWAP2 SUB SWAP1 LOG3 PUSH2 0x4248 DUP5 DUP5 DUP5 PUSH2 0x42AF JUMP JUMPDEST POP POP POP POP JUMP JUMPDEST PUSH2 0x4256 PUSH2 0x199C JUMP JUMPDEST PUSH2 0x4295 JUMPI PUSH1 0x40 MLOAD PUSH32 0x8C379A000000000000000000000000000000000000000000000000000000000 DUP2 MSTORE PUSH1 0x4 ADD PUSH2 0x428C SWAP1 PUSH2 0x598B JUMP JUMPDEST PUSH1 0x40 MLOAD DUP1 SWAP2 SUB SWAP1 REVERT JUMPDEST JUMP JUMPDEST PUSH2 0x429F PUSH2 0x3CEF JUMP JUMPDEST PUSH2 0x42AA DUP4 DUP4 DUP4 PUSH2 0x2738 JUMP JUMPDEST POP POP POP JUMP JUMPDEST POP POP POP JUMP JUMPDEST PUSH1 0x0 DUP1 DUP4 DUP1 SLOAD SWAP1 POP SUB PUSH2 0x42CA JUMPI PUSH1 0x0 SWAP1 POP PUSH2 0x4367 JUMP JUMPDEST PUSH1 0x0 DUP1 DUP5 DUP1 SLOAD SWAP1 POP SWAP1 POP JUMPDEST DUP1 DUP3 LT ISZERO PUSH2 0x431E JUMPI PUSH1 0x0 PUSH2 0x42E9 DUP4 DUP4 PUSH2 0x43E8 JUMP JUMPDEST SWAP1 POP DUP5 PUSH2 0x42F6 DUP8 DUP4 PUSH2 0x440E JUMP JUMPDEST PUSH1 0x0 ADD SLOAD GT ISZERO PUSH2 0x4308 JUMPI DUP1 SWAP2 POP PUSH2 0x4318 JUMP JUMPDEST PUSH1 0x1 DUP2 PUSH2 0x4315 SWAP2 SWAP1 PUSH2 0x4976 JUMP JUMPDEST SWAP3 POP JUMPDEST POP PUSH2 0x42D5 JUMP JUMPDEST PUSH1 0x0 DUP3 GT DUP1 ISZERO PUSH2 0x4346 JUMPI POP DUP4 PUSH2 0x4340 DUP7 PUSH1 0x1 DUP6 PUSH2 0x433B SWAP2 SWAP1 PUSH2 0x560C JUMP JUMPDEST PUSH2 0x440E JUMP JUMPDEST PUSH1 0x0 ADD SLOAD EQ JUMPDEST ISZERO PUSH2 0x4361 JUMPI PUSH1 0x1 DUP3 PUSH2 0x4358 SWAP2 SWAP1 PUSH2 0x560C JUMP JUMPDEST SWAP3 POP POP POP PUSH2 0x4367 JUMP JUMPDEST DUP2 SWAP3 POP POP POP JUMPDEST SWAP3 SWAP2 POP POP JUMP JUMPDEST PUSH1 0x0 PUSH2 0x4377 PUSH2 0x3C61 JUMP JUMPDEST SWAP1 POP DUP1 PUSH2 0x4386 DUP5 PUSH1 0x0 ADD PUSH2 0x4430 JUMP JUMPDEST LT ISZERO PUSH2 0x43E3 JUMPI DUP3 PUSH1 0x0 ADD DUP2 SWAP1 DUP1 PUSH1 0x1 DUP2 SLOAD ADD DUP1 DUP3 SSTORE DUP1 SWAP2 POP POP PUSH1 0x1 SWAP1 SUB SWAP1 PUSH1 0x0 MSTORE PUSH1 0x20 PUSH1 0x0 KECCAK256 ADD PUSH1 0x0 SWAP1 SWAP2 SWAP1 SWAP2 SWAP1 SWAP2 POP SSTORE DUP3 PUSH1 0x1 ADD DUP3 SWAP1 DUP1 PUSH1 0x1 DUP2 SLOAD ADD DUP1 DUP3 SSTORE DUP1 SWAP2 POP POP PUSH1 0x1 SWAP1 SUB SWAP1 PUSH1 0x0 MSTORE PUSH1 0x20 PUSH1 0x0 KECCAK256 ADD PUSH1 0x0 SWAP1 SWAP2 SWAP1 SWAP2 SWAP1 SWAP2 POP SSTORE JUMPDEST POP POP POP JUMP JUMPDEST PUSH1 0x0 PUSH1 0x2 DUP3 DUP5 XOR PUSH2 0x43F9 SWAP2 SWAP1 PUSH2 0x52F7 JUMP JUMPDEST DUP3 DUP5 AND PUSH2 0x4406 SWAP2 SWAP1 PUSH2 0x4976 JUMP JUMPDEST SWAP1 POP SWAP3 SWAP2 POP POP JUMP JUMPDEST PUSH1 0x0 DUP1 DUP4 PUSH1 0x0 MSTORE DUP3 PUSH1 0x20 PUSH1 0x0 KECCAK256 ADD SWAP1 POP PUSH2 0x4427 DUP2 PUSH2 0x447C JUMP JUMPDEST SWAP2 POP POP SWAP3 SWAP2 POP POP JUMP JUMPDEST PUSH1 0x0 DUP1 DUP3 DUP1 SLOAD SWAP1 POP SUB PUSH2 0x4446 JUMPI PUSH1 0x0 SWAP1 POP PUSH2 0x4477 JUMP JUMPDEST DUP2 PUSH1 0x1 DUP4 DUP1 SLOAD SWAP1 POP PUSH2 0x4458 SWAP2 SWAP1 PUSH2 0x560C JUMP JUMPDEST DUP2 SLOAD DUP2 LT PUSH2 0x4469 JUMPI PUSH2 0x4468 PUSH2 0x5257 JUMP JUMPDEST JUMPDEST SWAP1 PUSH1 0x0 MSTORE PUSH1 0x20 PUSH1 0x0 KECCAK256 ADD SLOAD SWAP1 POP JUMPDEST SWAP2 SWAP1 POP JUMP JUMPDEST PUSH1 0x0 DUP2 SWAP1 POP SWAP2 SWAP1 POP JUMP JUMPDEST PUSH1 0x0 PUSH20 0xFFFFFFFFFFFFFFFFFFFFFFFFFFFFFFFFFFFFFFFF DUP3 AND SWAP1 POP SWAP2 SWAP1 POP JUMP JUMPDEST PUSH1 0x0 PUSH2 0x44B1 DUP3 PUSH2 0x4486 JUMP JUMPDEST SWAP1 POP SWAP2 SWAP1 POP JUMP JUMPDEST PUSH2 0x44C1 DUP2 PUSH2 0x44A6 JUMP JUMPDEST DUP3 MSTORE POP POP JUMP JUMPDEST PUSH1 0x0 PUSH1 0x20 DUP3 ADD SWAP1 POP PUSH2 0x44DC PUSH1 0x0 DUP4 ADD DUP5 PUSH2 0x44B8 JUMP JUMPDEST SWAP3 SWAP2 POP POP JUMP JUMPDEST PUSH1 0x0 DUP2 MLOAD SWAP1 POP SWAP2 SWAP1 POP JUMP JUMPDEST PUSH1 0x0 DUP3 DUP3 MSTORE PUSH1 0x20 DUP3 ADD SWAP1 POP SWAP3 SWAP2 POP POP JUMP JUMPDEST PUSH1 0x0 JUMPDEST DUP4 DUP2 LT ISZERO PUSH2 0x451C JUMPI DUP1 DUP3 ADD MLOAD DUP2 DUP5 ADD MSTORE PUSH1 0x20 DUP2 ADD SWAP1 POP PUSH2 0x4501 JUMP JUMPDEST PUSH1 0x0 DUP5 DUP5 ADD MSTORE POP POP POP POP JUMP JUMPDEST PUSH1 0x0 PUSH1 0x1F NOT PUSH1 0x1F DUP4 ADD AND SWAP1 POP SWAP2 SWAP1 POP JUMP JUMPDEST PUSH1 0x0 PUSH2 0x4544 DUP3 PUSH2 0x44E2 JUMP JUMPDEST PUSH2 0x454E DUP2 DUP6 PUSH2 0x44ED JUMP JUMPDEST SWAP4 POP PUSH2 0x455E DUP2 DUP6 PUSH1 0x20 DUP7 ADD PUSH2 0x44FE JUMP JUMPDEST PUSH2 0x4567 DUP2 PUSH2 0x4528 JUMP JUMPDEST DUP5 ADD SWAP2 POP POP SWAP3 SWAP2 POP POP JUMP JUMPDEST PUSH1 0x0 PUSH1 0x20 DUP3 ADD SWAP1 POP DUP2 DUP2 SUB PUSH1 0x0 DUP4 ADD MSTORE PUSH2 0x458C DUP2 DUP5 PUSH2 0x4539 JUMP JUMPDEST SWAP1 POP SWAP3 SWAP2 POP POP JUMP JUMPDEST PUSH1 0x0 PUSH1 0x40 MLOAD SWAP1 POP SWAP1 JUMP JUMPDEST PUSH1 0x0 DUP1 REVERT JUMPDEST PUSH1 0x0 DUP1 REVERT JUMPDEST PUSH2 0x45B1 DUP2 PUSH2 0x44A6 JUMP JUMPDEST DUP2 EQ PUSH2 0x45BC JUMPI PUSH1 0x0 DUP1 REVERT JUMPDEST POP JUMP JUMPDEST PUSH1 0x0 DUP2 CALLDATALOAD SWAP1 POP PUSH2 0x45CE DUP2 PUSH2 0x45A8 JUMP JUMPDEST SWAP3 SWAP2 POP POP JUMP JUMPDEST PUSH1 0x0 DUP2 SWAP1 POP SWAP2 SWAP1 POP JUMP JUMPDEST PUSH2 0x45E7 DUP2 PUSH2 0x45D4 JUMP JUMPDEST DUP2 EQ PUSH2 0x45F2 JUMPI PUSH1 0x0 DUP1 REVERT JUMPDEST POP JUMP JUMPDEST PUSH1 0x0 DUP2 CALLDATALOAD SWAP1 POP PUSH2 0x4604 DUP2 PUSH2 0x45DE JUMP JUMPDEST SWAP3 SWAP2 POP POP JUMP JUMPDEST PUSH1 0x0 DUP1 PUSH1 0x40 DUP4 DUP6 SUB SLT ISZERO PUSH2 0x4621 JUMPI PUSH2 0x4620 PUSH2 0x459E JUMP JUMPDEST JUMPDEST PUSH1 0x0 PUSH2 0x462F DUP6 DUP3 DUP7 ADD PUSH2 0x45BF JUMP JUMPDEST SWAP3 POP POP PUSH1 0x20 PUSH2 0x4640 DUP6 DUP3 DUP7 ADD PUSH2 0x45F5 JUMP JUMPDEST SWAP2 POP POP SWAP3 POP SWAP3 SWAP1 POP JUMP JUMPDEST PUSH1 0x0 DUP2 ISZERO ISZERO SWAP1 POP SWAP2 SWAP1 POP JUMP JUMPDEST PUSH2 0x465F DUP2 PUSH2 0x464A JUMP JUMPDEST DUP3 MSTORE POP POP JUMP JUMPDEST PUSH1 0x0 PUSH1 0x20 DUP3 ADD SWAP1 POP PUSH2 0x467A PUSH1 0x0 DUP4 ADD DUP5 PUSH2 0x4656 JUMP JUMPDEST SWAP3 SWAP2 POP POP JUMP JUMPDEST PUSH2 0x4689 DUP2 PUSH2 0x45D4 JUMP JUMPDEST DUP3 MSTORE POP POP JUMP JUMPDEST PUSH1 0x0 PUSH1 0x20 DUP3 ADD SWAP1 POP PUSH2 0x46A4 PUSH1 0x0 DUP4 ADD DUP5 PUSH2 0x4680 JUMP JUMPDEST SWAP3 SWAP2 POP POP JUMP JUMPDEST PUSH1 0x0 DUP1 PUSH1 0x0 PUSH1 0x60 DUP5 DUP7 SUB SLT ISZERO PUSH2 0x46C3 JUMPI PUSH2 0x46C2 PUSH2 0x459E JUMP JUMPDEST JUMPDEST PUSH1 0x0 PUSH2 0x46D1 DUP7 DUP3 DUP8 ADD PUSH2 0x45BF JUMP JUMPDEST SWAP4 POP POP PUSH1 0x20 PUSH2 0x46E2 DUP7 DUP3 DUP8 ADD PUSH2 0x45BF JUMP JUMPDEST SWAP3 POP POP PUSH1 0x40 PUSH2 0x46F3 DUP7 DUP3 DUP8 ADD PUSH2 0x45F5 JUMP JUMPDEST SWAP2 POP POP SWAP3 POP SWAP3 POP SWAP3 JUMP JUMPDEST PUSH1 0x0 PUSH1 0x20 DUP3 DUP5 SUB SLT ISZERO PUSH2 0x4713 JUMPI PUSH2 0x4712 PUSH2 0x459E JUMP JUMPDEST JUMPDEST PUSH1 0x0 PUSH2 0x4721 DUP5 DUP3 DUP6 ADD PUSH2 0x45BF JUMP JUMPDEST SWAP2 POP POP SWAP3 SWAP2 POP POP JUMP JUMPDEST PUSH1 0x0 PUSH1 0xFF DUP3 AND SWAP1 POP SWAP2 SWAP1 POP JUMP JUMPDEST PUSH2 0x4740 DUP2 PUSH2 0x472A JUMP JUMPDEST DUP3 MSTORE POP POP JUMP JUMPDEST PUSH1 0x0 PUSH1 0x20 DUP3 ADD SWAP1 POP PUSH2 0x475B PUSH1 0x0 DUP4 ADD DUP5 PUSH2 0x4737 JUMP JUMPDEST SWAP3 SWAP2 POP POP JUMP JUMPDEST PUSH1 0x0 PUSH1 0x20 DUP3 DUP5 SUB SLT ISZERO PUSH2 0x4777 JUMPI PUSH2 0x4776 PUSH2 0x459E JUMP JUMPDEST JUMPDEST PUSH1 0x0 PUSH2 0x4785 DUP5 DUP3 DUP6 ADD PUSH2 0x45F5 JUMP JUMPDEST SWAP2 POP POP SWAP3 SWAP2 POP POP JUMP JUMPDEST PUSH2 0x4797 DUP2 PUSH2 0x472A JUMP JUMPDEST DUP2 EQ PUSH2 0x47A2 JUMPI PUSH1 0x0 DUP1 REVERT JUMPDEST POP JUMP JUMPDEST PUSH1 0x0 DUP2 CALLDATALOAD SWAP1 POP PUSH2 0x47B4 DUP2 PUSH2 0x478E JUMP JUMPDEST SWAP3 SWAP2 POP POP JUMP JUMPDEST PUSH1 0x0 PUSH1 0x20 DUP3 DUP5 SUB SLT ISZERO PUSH2 0x47D0 JUMPI PUSH2 0x47CF PUSH2 0x459E JUMP JUMPDEST JUMPDEST PUSH1 0x0 PUSH2 0x47DE DUP5 DUP3 DUP6 ADD PUSH2 0x47A5 JUMP JUMPDEST SWAP2 POP POP SWAP3 SWAP2 POP POP JUMP JUMPDEST PUSH1 0x0 PUSH2 0xFFFF DUP3 AND SWAP1 POP SWAP2 SWAP1 POP JUMP JUMPDEST PUSH2 0x47FE DUP2 PUSH2 0x47E7 JUMP JUMPDEST DUP2 EQ PUSH2 0x4809 JUMPI PUSH1 0x0 DUP1 REVERT JUMPDEST POP JUMP JUMPDEST PUSH1 0x0 DUP2 CALLDATALOAD SWAP1 POP PUSH2 0x481B DUP2 PUSH2 0x47F5 JUMP JUMPDEST SWAP3 SWAP2 POP POP JUMP JUMPDEST PUSH1 0x0 PUSH1 0x20 DUP3 DUP5 SUB SLT ISZERO PUSH2 0x4837 JUMPI PUSH2 0x4836 PUSH2 0x459E JUMP JUMPDEST JUMPDEST PUSH1 0x0 PUSH2 0x4845 DUP5 DUP3 DUP6 ADD PUSH2 0x480C JUMP JUMPDEST SWAP2 POP POP SWAP3 SWAP2 POP POP JUMP JUMPDEST PUSH2 0x4857 DUP2 PUSH2 0x464A JUMP JUMPDEST DUP2 EQ PUSH2 0x4862 JUMPI PUSH1 0x0 DUP1 REVERT JUMPDEST POP JUMP JUMPDEST PUSH1 0x0 DUP2 CALLDATALOAD SWAP1 POP PUSH2 0x4874 DUP2 PUSH2 0x484E JUMP JUMPDEST SWAP3 SWAP2 POP POP JUMP JUMPDEST PUSH1 0x0 PUSH1 0x20 DUP3 DUP5 SUB SLT ISZERO PUSH2 0x4890 JUMPI PUSH2 0x488F PUSH2 0x459E JUMP JUMPDEST JUMPDEST PUSH1 0x0 PUSH2 0x489E DUP5 DUP3 DUP6 ADD PUSH2 0x4865 JUMP JUMPDEST SWAP2 POP POP SWAP3 SWAP2 POP POP JUMP JUMPDEST PUSH1 0x0 DUP1 PUSH1 0x40 DUP4 DUP6 SUB SLT ISZERO PUSH2 0x48BE JUMPI PUSH2 0x48BD PUSH2 0x459E JUMP JUMPDEST JUMPDEST PUSH1 0x0 PUSH2 0x48CC DUP6 DUP3 DUP7 ADD PUSH2 0x45BF JUMP JUMPDEST SWAP3 POP POP PUSH1 0x20 PUSH2 0x48DD DUP6 DUP3 DUP7 ADD PUSH2 0x45BF JUMP JUMPDEST SWAP2 POP POP SWAP3 POP SWAP3 SWAP1 POP JUMP JUMPDEST PUSH32 0x4E487B7100000000000000000000000000000000000000000000000000000000 PUSH1 0x0 MSTORE PUSH1 0x22 PUSH1 0x4 MSTORE PUSH1 0x24 PUSH1 0x0 REVERT JUMPDEST PUSH1 0x0 PUSH1 0x2 DUP3 DIV SWAP1 POP PUSH1 0x1 DUP3 AND DUP1 PUSH2 0x492E JUMPI PUSH1 0x7F DUP3 AND SWAP2 POP JUMPDEST PUSH1 0x20 DUP3 LT DUP2 SUB PUSH2 0x4941 JUMPI PUSH2 0x4940 PUSH2 0x48E7 JUMP JUMPDEST JUMPDEST POP SWAP2 SWAP1 POP JUMP JUMPDEST PUSH32 0x4E487B7100000000000000000000000000000000000000000000000000000000 PUSH1 0x0 MSTORE PUSH1 0x11 PUSH1 0x4 MSTORE PUSH1 0x24 PUSH1 0x0 REVERT JUMPDEST PUSH1 0x0 PUSH2 0x4981 DUP3 PUSH2 0x45D4 JUMP JUMPDEST SWAP2 POP PUSH2 0x498C DUP4 PUSH2 0x45D4 JUMP JUMPDEST SWAP3 POP DUP3 DUP3 ADD SWAP1 POP DUP1 DUP3 GT ISZERO PUSH2 0x49A4 JUMPI PUSH2 0x49A3 PUSH2 0x4947 JUMP JUMPDEST JUMPDEST SWAP3 SWAP2 POP POP JUMP JUMPDEST PUSH1 0x0 DUP2 MLOAD SWAP1 POP PUSH2 0x49B9 DUP2 PUSH2 0x45A8 JUMP JUMPDEST SWAP3 SWAP2 POP POP JUMP JUMPDEST PUSH1 0x0 PUSH1 0x20 DUP3 DUP5 SUB SLT ISZERO PUSH2 0x49D5 JUMPI PUSH2 0x49D4 PUSH2 0x459E JUMP JUMPDEST JUMPDEST PUSH1 0x0 PUSH2 0x49E3 DUP5 DUP3 DUP6 ADD PUSH2 0x49AA JUMP JUMPDEST SWAP2 POP POP SWAP3 SWAP2 POP POP JUMP JUMPDEST PUSH1 0x0 PUSH1 0x40 DUP3 ADD SWAP1 POP PUSH2 0x4A01 PUSH1 0x0 DUP4 ADD DUP6 PUSH2 0x44B8 JUMP JUMPDEST PUSH2 0x4A0E PUSH1 0x20 DUP4 ADD DUP5 PUSH2 0x44B8 JUMP JUMPDEST SWAP4 SWAP3 POP POP POP JUMP JUMPDEST PUSH1 0x0 DUP2 SWAP1 POP SWAP2 SWAP1 POP JUMP JUMPDEST PUSH1 0x0 PUSH2 0x4A3A PUSH2 0x4A35 PUSH2 0x4A30 DUP5 PUSH2 0x472A JUMP JUMPDEST PUSH2 0x4A15 JUMP JUMPDEST PUSH2 0x45D4 JUMP JUMPDEST SWAP1 POP SWAP2 SWAP1 POP JUMP JUMPDEST PUSH2 0x4A4A DUP2 PUSH2 0x4A1F JUMP JUMPDEST DUP3 MSTORE POP POP JUMP JUMPDEST PUSH1 0x0 PUSH1 0x20 DUP3 ADD SWAP1 POP PUSH2 0x4A65 PUSH1 0x0 DUP4 ADD DUP5 PUSH2 0x4A41 JUMP JUMPDEST SWAP3 SWAP2 POP POP JUMP JUMPDEST PUSH1 0x0 DUP2 MLOAD SWAP1 POP PUSH2 0x4A7A DUP2 PUSH2 0x45DE JUMP JUMPDEST SWAP3 SWAP2 POP POP JUMP JUMPDEST PUSH1 0x0 PUSH1 0x20 DUP3 DUP5 SUB SLT ISZERO PUSH2 0x4A96 JUMPI PUSH2 0x4A95 PUSH2 0x459E JUMP JUMPDEST JUMPDEST PUSH1 0x0 PUSH2 0x4AA4 DUP5 DUP3 DUP6 ADD PUSH2 0x4A6B JUMP JUMPDEST SWAP2 POP POP SWAP3 SWAP2 POP POP JUMP JUMPDEST PUSH1 0x0 PUSH1 0x40 DUP3 ADD SWAP1 POP PUSH2 0x4AC2 PUSH1 0x0 DUP4 ADD DUP6 PUSH2 0x44B8 JUMP JUMPDEST PUSH2 0x4ACF PUSH1 0x20 DUP4 ADD DUP5 PUSH2 0x4680 JUMP JUMPDEST SWAP4 SWAP3 POP POP POP JUMP JUMPDEST PUSH1 0x0 DUP2 MLOAD SWAP1 POP PUSH2 0x4AE5 DUP2 PUSH2 0x484E JUMP JUMPDEST SWAP3 SWAP2 POP POP JUMP JUMPDEST PUSH1 0x0 PUSH1 0x20 DUP3 DUP5 SUB SLT ISZERO PUSH2 0x4B01 JUMPI PUSH2 0x4B00 PUSH2 0x459E JUMP JUMPDEST JUMPDEST PUSH1 0x0 PUSH2 0x4B0F DUP5 DUP3 DUP6 ADD PUSH2 0x4AD6 JUMP JUMPDEST SWAP2 POP POP SWAP3 SWAP2 POP POP JUMP JUMPDEST PUSH32 0x45524332303A2064656372656173656420616C6C6F77616E63652062656C6F77 PUSH1 0x0 DUP3 ADD MSTORE PUSH32 0x207A65726F000000000000000000000000000000000000000000000000000000 PUSH1 0x20 DUP3 ADD MSTORE POP JUMP JUMPDEST PUSH1 0x0 PUSH2 0x4B74 PUSH1 0x25 DUP4 PUSH2 0x44ED JUMP JUMPDEST SWAP2 POP PUSH2 0x4B7F DUP3 PUSH2 0x4B18 JUMP JUMPDEST PUSH1 0x40 DUP3 ADD SWAP1 POP SWAP2 SWAP1 POP JUMP JUMPDEST PUSH1 0x0 PUSH1 0x20 DUP3 ADD SWAP1 POP DUP2 DUP2 SUB PUSH1 0x0 DUP4 ADD MSTORE PUSH2 0x4BA3 DUP2 PUSH2 0x4B67 JUMP JUMPDEST SWAP1 POP SWAP2 SWAP1 POP JUMP JUMPDEST PUSH1 0x0 DUP2 SWAP1 POP SWAP3 SWAP2 POP POP JUMP JUMPDEST POP JUMP JUMPDEST PUSH1 0x0 PUSH2 0x4BC5 PUSH1 0x0 DUP4 PUSH2 0x4BAA JUMP JUMPDEST SWAP2 POP PUSH2 0x4BD0 DUP3 PUSH2 0x4BB5 JUMP JUMPDEST PUSH1 0x0 DUP3 ADD SWAP1 POP SWAP2 SWAP1 POP JUMP JUMPDEST PUSH1 0x0 PUSH2 0x4BE6 DUP3 PUSH2 0x4BB8 JUMP JUMPDEST SWAP2 POP DUP2 SWAP1 POP SWAP2 SWAP1 POP JUMP JUMPDEST PUSH32 0x4F776E61626C653A206E6577206F776E657220697320746865207A65726F2061 PUSH1 0x0 DUP3 ADD MSTORE PUSH32 0x6464726573730000000000000000000000000000000000000000000000000000 PUSH1 0x20 DUP3 ADD MSTORE POP JUMP JUMPDEST PUSH1 0x0 PUSH2 0x4C4C PUSH1 0x26 DUP4 PUSH2 0x44ED JUMP JUMPDEST SWAP2 POP PUSH2 0x4C57 DUP3 PUSH2 0x4BF0 JUMP JUMPDEST PUSH1 0x40 DUP3 ADD SWAP1 POP SWAP2 SWAP1 POP JUMP JUMPDEST PUSH1 0x0 PUSH1 0x20 DUP3 ADD SWAP1 POP DUP2 DUP2 SUB PUSH1 0x0 DUP4 ADD MSTORE PUSH2 0x4C7B DUP2 PUSH2 0x4C3F JUMP JUMPDEST SWAP1 POP SWAP2 SWAP1 POP JUMP JUMPDEST PUSH32 0x45524332305061757361626C653A20746F6B656E207472616E73666572207768 PUSH1 0x0 DUP3 ADD MSTORE PUSH32 0x696C652070617573656400000000000000000000000000000000000000000000 PUSH1 0x20 DUP3 ADD MSTORE POP JUMP JUMPDEST PUSH1 0x0 PUSH2 0x4CDE PUSH1 0x2A DUP4 PUSH2 0x44ED JUMP JUMPDEST SWAP2 POP PUSH2 0x4CE9 DUP3 PUSH2 0x4C82 JUMP JUMPDEST PUSH1 0x40 DUP3 ADD SWAP1 POP SWAP2 SWAP1 POP JUMP JUMPDEST PUSH1 0x0 PUSH1 0x20 DUP3 ADD SWAP1 POP DUP2 DUP2 SUB PUSH1 0x0 DUP4 ADD MSTORE PUSH2 0x4D0D DUP2 PUSH2 0x4CD1 JUMP JUMPDEST SWAP1 POP SWAP2 SWAP1 POP JUMP JUMPDEST PUSH32 0x45524332303A20617070726F76652066726F6D20746865207A65726F20616464 PUSH1 0x0 DUP3 ADD MSTORE PUSH32 0x7265737300000000000000000000000000000000000000000000000000000000 PUSH1 0x20 DUP3 ADD MSTORE POP JUMP JUMPDEST PUSH1 0x0 PUSH2 0x4D70 PUSH1 0x24 DUP4 PUSH2 0x44ED JUMP JUMPDEST SWAP2 POP PUSH2 0x4D7B DUP3 PUSH2 0x4D14 JUMP JUMPDEST PUSH1 0x40 DUP3 ADD SWAP1 POP SWAP2 SWAP1 POP JUMP JUMPDEST PUSH1 0x0 PUSH1 0x20 DUP3 ADD SWAP1 POP DUP2 DUP2 SUB PUSH1 0x0 DUP4 ADD MSTORE PUSH2 0x4D9F DUP2 PUSH2 0x4D63 JUMP JUMPDEST SWAP1 POP SWAP2 SWAP1 POP JUMP JUMPDEST PUSH32 0x45524332303A20617070726F766520746F20746865207A65726F206164647265 PUSH1 0x0 DUP3 ADD MSTORE PUSH32 0x7373000000000000000000000000000000000000000000000000000000000000 PUSH1 0x20 DUP3 ADD MSTORE POP JUMP JUMPDEST PUSH1 0x0 PUSH2 0x4E02 PUSH1 0x22 DUP4 PUSH2 0x44ED JUMP JUMPDEST SWAP2 POP PUSH2 0x4E0D DUP3 PUSH2 0x4DA6 JUMP JUMPDEST PUSH1 0x40 DUP3 ADD SWAP1 POP SWAP2 SWAP1 POP JUMP JUMPDEST PUSH1 0x0 PUSH1 0x20 DUP3 ADD SWAP1 POP DUP2 DUP2 SUB PUSH1 0x0 DUP4 ADD MSTORE PUSH2 0x4E31 DUP2 PUSH2 0x4DF5 JUMP JUMPDEST SWAP1 POP SWAP2 SWAP1 POP JUMP JUMPDEST PUSH32 0x4F776E61626C653A2063616C6C6572206973206E6F7420746865206F776E6572 PUSH1 0x0 DUP3 ADD MSTORE POP JUMP JUMPDEST PUSH1 0x0 PUSH2 0x4E6E PUSH1 0x20 DUP4 PUSH2 0x44ED JUMP JUMPDEST SWAP2 POP PUSH2 0x4E79 DUP3 PUSH2 0x4E38 JUMP JUMPDEST PUSH1 0x20 DUP3 ADD SWAP1 POP SWAP2 SWAP1 POP JUMP JUMPDEST PUSH1 0x0 PUSH1 0x20 DUP3 ADD SWAP1 POP DUP2 DUP2 SUB PUSH1 0x0 DUP4 ADD MSTORE PUSH2 0x4E9D DUP2 PUSH2 0x4E61 JUMP JUMPDEST SWAP1 POP SWAP2 SWAP1 POP JUMP JUMPDEST PUSH32 0x45524332303A20696E73756666696369656E7420616C6C6F77616E6365000000 PUSH1 0x0 DUP3 ADD MSTORE POP JUMP JUMPDEST PUSH1 0x0 PUSH2 0x4EDA PUSH1 0x1D DUP4 PUSH2 0x44ED JUMP JUMPDEST SWAP2 POP PUSH2 0x4EE5 DUP3 PUSH2 0x4EA4 JUMP JUMPDEST PUSH1 0x20 DUP3 ADD SWAP1 POP SWAP2 SWAP1 POP JUMP JUMPDEST PUSH1 0x0 PUSH1 0x20 DUP3 ADD SWAP1 POP DUP2 DUP2 SUB PUSH1 0x0 DUP4 ADD MSTORE PUSH2 0x4F09 DUP2 PUSH2 0x4ECD JUMP JUMPDEST SWAP1 POP SWAP2 SWAP1 POP JUMP JUMPDEST PUSH1 0x0 PUSH14 0xFFFFFFFFFFFFFFFFFFFFFFFFFFFF DUP3 AND SWAP1 POP SWAP2 SWAP1 POP JUMP JUMPDEST PUSH2 0x4F33 DUP2 PUSH2 0x4F10 JUMP JUMPDEST DUP2 EQ PUSH2 0x4F3E JUMPI PUSH1 0x0 DUP1 REVERT JUMPDEST POP JUMP JUMPDEST PUSH1 0x0 DUP2 MLOAD SWAP1 POP PUSH2 0x4F50 DUP2 PUSH2 0x4F2A JUMP JUMPDEST SWAP3 SWAP2 POP POP JUMP JUMPDEST PUSH1 0x0 PUSH4 0xFFFFFFFF DUP3 AND SWAP1 POP SWAP2 SWAP1 POP JUMP JUMPDEST PUSH2 0x4F6F DUP2 PUSH2 0x4F56 JUMP JUMPDEST DUP2 EQ PUSH2 0x4F7A JUMPI PUSH1 0x0 DUP1 REVERT JUMPDEST POP JUMP JUMPDEST PUSH1 0x0 DUP2 MLOAD SWAP1 POP PUSH2 0x4F8C DUP2 PUSH2 0x4F66 JUMP JUMPDEST SWAP3 SWAP2 POP POP JUMP JUMPDEST PUSH1 0x0 DUP1 PUSH1 0x0 PUSH1 0x60 DUP5 DUP7 SUB SLT ISZERO PUSH2 0x4FAB JUMPI PUSH2 0x4FAA PUSH2 0x459E JUMP JUMPDEST JUMPDEST PUSH1 0x0 PUSH2 0x4FB9 DUP7 DUP3 DUP8 ADD PUSH2 0x4F41 JUMP JUMPDEST SWAP4 POP POP PUSH1 0x20 PUSH2 0x4FCA DUP7 DUP3 DUP8 ADD PUSH2 0x4F41 JUMP JUMPDEST SWAP3 POP POP PUSH1 0x40 PUSH2 0x4FDB DUP7 DUP3 DUP8 ADD PUSH2 0x4F7D JUMP JUMPDEST SWAP2 POP POP SWAP3 POP SWAP3 POP SWAP3 JUMP JUMPDEST PUSH1 0x0 PUSH2 0x5000 PUSH2 0x4FFB PUSH2 0x4FF6 DUP5 PUSH2 0x4F10 JUMP JUMPDEST PUSH2 0x4A15 JUMP JUMPDEST PUSH2 0x45D4 JUMP JUMPDEST SWAP1 POP SWAP2 SWAP1 POP JUMP JUMPDEST PUSH2 0x5010 DUP2 PUSH2 0x4FE5 JUMP JUMPDEST DUP3 MSTORE POP POP JUMP JUMPDEST PUSH1 0x0 PUSH1 0x80 DUP3 ADD SWAP1 POP PUSH2 0x502B PUSH1 0x0 DUP4 ADD DUP8 PUSH2 0x4680 JUMP JUMPDEST PUSH2 0x5038 PUSH1 0x20 DUP4 ADD DUP7 PUSH2 0x4656 JUMP JUMPDEST PUSH2 0x5045 PUSH1 0x40 DUP4 ADD DUP6 PUSH2 0x5007 JUMP JUMPDEST PUSH2 0x5052 PUSH1 0x60 DUP4 ADD DUP5 PUSH2 0x5007 JUMP JUMPDEST SWAP6 SWAP5 POP POP POP POP POP JUMP JUMPDEST PUSH32 0x45524332303A206275726E2066726F6D20746865207A65726F20616464726573 PUSH1 0x0 DUP3 ADD MSTORE PUSH32 0x7300000000000000000000000000000000000000000000000000000000000000 PUSH1 0x20 DUP3 ADD MSTORE POP JUMP JUMPDEST PUSH1 0x0 PUSH2 0x50B7 PUSH1 0x21 DUP4 PUSH2 0x44ED JUMP JUMPDEST SWAP2 POP PUSH2 0x50C2 DUP3 PUSH2 0x505B JUMP JUMPDEST PUSH1 0x40 DUP3 ADD SWAP1 POP SWAP2 SWAP1 POP JUMP JUMPDEST PUSH1 0x0 PUSH1 0x20 DUP3 ADD SWAP1 POP DUP2 DUP2 SUB PUSH1 0x0 DUP4 ADD MSTORE PUSH2 0x50E6 DUP2 PUSH2 0x50AA JUMP JUMPDEST SWAP1 POP SWAP2 SWAP1 POP JUMP JUMPDEST PUSH32 0x45524332303A206275726E20616D6F756E7420657863656564732062616C616E PUSH1 0x0 DUP3 ADD MSTORE PUSH32 0x6365000000000000000000000000000000000000000000000000000000000000 PUSH1 0x20 DUP3 ADD MSTORE POP JUMP JUMPDEST PUSH1 0x0 PUSH2 0x5149 PUSH1 0x22 DUP4 PUSH2 0x44ED JUMP JUMPDEST SWAP2 POP PUSH2 0x5154 DUP3 PUSH2 0x50ED JUMP JUMPDEST PUSH1 0x40 DUP3 ADD SWAP1 POP SWAP2 SWAP1 POP JUMP JUMPDEST PUSH1 0x0 PUSH1 0x20 DUP3 ADD SWAP1 POP DUP2 DUP2 SUB PUSH1 0x0 DUP4 ADD MSTORE PUSH2 0x5178 DUP2 PUSH2 0x513C JUMP JUMPDEST SWAP1 POP SWAP2 SWAP1 POP JUMP JUMPDEST PUSH32 0x4552433230536E617073686F743A206964206973203000000000000000000000 PUSH1 0x0 DUP3 ADD MSTORE POP JUMP JUMPDEST PUSH1 0x0 PUSH2 0x51B5 PUSH1 0x16 DUP4 PUSH2 0x44ED JUMP JUMPDEST SWAP2 POP PUSH2 0x51C0 DUP3 PUSH2 0x517F JUMP JUMPDEST PUSH1 0x20 DUP3 ADD SWAP1 POP SWAP2 SWAP1 POP JUMP JUMPDEST PUSH1 0x0 PUSH1 0x20 DUP3 ADD SWAP1 POP DUP2 DUP2 SUB PUSH1 0x0 DUP4 ADD MSTORE PUSH2 0x51E4 DUP2 PUSH2 0x51A8 JUMP JUMPDEST SWAP1 POP SWAP2 SWAP1 POP JUMP JUMPDEST PUSH32 0x4552433230536E617073686F743A206E6F6E6578697374656E74206964000000 PUSH1 0x0 DUP3 ADD MSTORE POP JUMP JUMPDEST PUSH1 0x0 PUSH2 0x5221 PUSH1 0x1D DUP4 PUSH2 0x44ED JUMP JUMPDEST SWAP2 POP PUSH2 0x522C DUP3 PUSH2 0x51EB JUMP JUMPDEST PUSH1 0x20 DUP3 ADD SWAP1 POP SWAP2 SWAP1 POP JUMP JUMPDEST PUSH1 0x0 PUSH1 0x20 DUP3 ADD SWAP1 POP DUP2 DUP2 SUB PUSH1 0x0 DUP4 ADD MSTORE PUSH2 0x5250 DUP2 PUSH2 0x5214 JUMP JUMPDEST SWAP1 POP SWAP2 SWAP1 POP JUMP JUMPDEST PUSH32 0x4E487B7100000000000000000000000000000000000000000000000000000000 PUSH1 0x0 MSTORE PUSH1 0x32 PUSH1 0x4 MSTORE PUSH1 0x24 PUSH1 0x0 REVERT JUMPDEST PUSH1 0x0 PUSH2 0x5291 DUP3 PUSH2 0x45D4 JUMP JUMPDEST SWAP2 POP PUSH2 0x529C DUP4 PUSH2 0x45D4 JUMP JUMPDEST SWAP3 POP DUP3 DUP3 MUL PUSH2 0x52AA DUP2 PUSH2 0x45D4 JUMP JUMPDEST SWAP2 POP DUP3 DUP3 DIV DUP5 EQ DUP4 ISZERO OR PUSH2 0x52C1 JUMPI PUSH2 0x52C0 PUSH2 0x4947 JUMP JUMPDEST JUMPDEST POP SWAP3 SWAP2 POP POP JUMP JUMPDEST PUSH32 0x4E487B7100000000000000000000000000000000000000000000000000000000 PUSH1 0x0 MSTORE PUSH1 0x12 PUSH1 0x4 MSTORE PUSH1 0x24 PUSH1 0x0 REVERT JUMPDEST PUSH1 0x0 PUSH2 0x5302 DUP3 PUSH2 0x45D4 JUMP JUMPDEST SWAP2 POP PUSH2 0x530D DUP4 PUSH2 0x45D4 JUMP JUMPDEST SWAP3 POP DUP3 PUSH2 0x531D JUMPI PUSH2 0x531C PUSH2 0x52C8 JUMP JUMPDEST JUMPDEST DUP3 DUP3 DIV SWAP1 POP SWAP3 SWAP2 POP POP JUMP JUMPDEST PUSH32 0x4E487B7100000000000000000000000000000000000000000000000000000000 PUSH1 0x0 MSTORE PUSH1 0x41 PUSH1 0x4 MSTORE PUSH1 0x24 PUSH1 0x0 REVERT JUMPDEST PUSH1 0x0 DUP2 SWAP1 POP SWAP2 SWAP1 POP JUMP JUMPDEST PUSH1 0x0 PUSH2 0x537C PUSH2 0x5377 PUSH2 0x5372 DUP5 PUSH2 0x5357 JUMP JUMPDEST PUSH2 0x4A15 JUMP JUMPDEST PUSH2 0x45D4 JUMP JUMPDEST SWAP1 POP SWAP2 SWAP1 POP JUMP JUMPDEST PUSH2 0x538C DUP2 PUSH2 0x5361 JUMP JUMPDEST DUP3 MSTORE POP POP JUMP JUMPDEST PUSH1 0x0 DUP2 MLOAD SWAP1 POP SWAP2 SWAP1 POP JUMP JUMPDEST PUSH1 0x0 DUP3 DUP3 MSTORE PUSH1 0x20 DUP3 ADD SWAP1 POP SWAP3 SWAP2 POP POP JUMP JUMPDEST PUSH1 0x0 DUP2 SWAP1 POP PUSH1 0x20 DUP3 ADD SWAP1 POP SWAP2 SWAP1 POP JUMP JUMPDEST PUSH2 0x53C7 DUP2 PUSH2 0x44A6 JUMP JUMPDEST DUP3 MSTORE POP POP JUMP JUMPDEST PUSH1 0x0 PUSH2 0x53D9 DUP4 DUP4 PUSH2 0x53BE JUMP JUMPDEST PUSH1 0x20 DUP4 ADD SWAP1 POP SWAP3 SWAP2 POP POP JUMP JUMPDEST PUSH1 0x0 PUSH1 0x20 DUP3 ADD SWAP1 POP SWAP2 SWAP1 POP JUMP JUMPDEST PUSH1 0x0 PUSH2 0x53FD DUP3 PUSH2 0x5392 JUMP JUMPDEST PUSH2 0x5407 DUP2 DUP6 PUSH2 0x539D JUMP JUMPDEST SWAP4 POP PUSH2 0x5412 DUP4 PUSH2 0x53AE JUMP JUMPDEST DUP1 PUSH1 0x0 JUMPDEST DUP4 DUP2 LT ISZERO PUSH2 0x5443 JUMPI DUP2 MLOAD PUSH2 0x542A DUP9 DUP3 PUSH2 0x53CD JUMP JUMPDEST SWAP8 POP PUSH2 0x5435 DUP4 PUSH2 0x53E5 JUMP JUMPDEST SWAP3 POP POP PUSH1 0x1 DUP2 ADD SWAP1 POP PUSH2 0x5416 JUMP JUMPDEST POP DUP6 SWAP4 POP POP POP POP SWAP3 SWAP2 POP POP JUMP JUMPDEST PUSH1 0x0 PUSH1 0xA0 DUP3 ADD SWAP1 POP PUSH2 0x5465 PUSH1 0x0 DUP4 ADD DUP9 PUSH2 0x4680 JUMP JUMPDEST PUSH2 0x5472 PUSH1 0x20 DUP4 ADD DUP8 PUSH2 0x5383 JUMP JUMPDEST DUP2 DUP2 SUB PUSH1 0x40 DUP4 ADD MSTORE PUSH2 0x5484 DUP2 DUP7 PUSH2 0x53F2 JUMP JUMPDEST SWAP1 POP PUSH2 0x5493 PUSH1 0x60 DUP4 ADD DUP6 PUSH2 0x44B8 JUMP JUMPDEST PUSH2 0x54A0 PUSH1 0x80 DUP4 ADD DUP5 PUSH2 0x4680 JUMP JUMPDEST SWAP7 SWAP6 POP POP POP POP POP POP JUMP JUMPDEST PUSH1 0x0 DUP1 REVERT JUMPDEST PUSH2 0x54B8 DUP3 PUSH2 0x4528 JUMP JUMPDEST DUP2 ADD DUP2 DUP2 LT PUSH8 0xFFFFFFFFFFFFFFFF DUP3 GT OR ISZERO PUSH2 0x54D7 JUMPI PUSH2 0x54D6 PUSH2 0x5328 JUMP JUMPDEST JUMPDEST DUP1 PUSH1 0x40 MSTORE POP POP POP JUMP JUMPDEST PUSH1 0x0 PUSH2 0x54EA PUSH2 0x4594 JUMP JUMPDEST SWAP1 POP PUSH2 0x54F6 DUP3 DUP3 PUSH2 0x54AF JUMP JUMPDEST SWAP2 SWAP1 POP JUMP JUMPDEST PUSH1 0x0 PUSH8 0xFFFFFFFFFFFFFFFF DUP3 GT ISZERO PUSH2 0x5516 JUMPI PUSH2 0x5515 PUSH2 0x5328 JUMP JUMPDEST JUMPDEST PUSH1 0x20 DUP3 MUL SWAP1 POP PUSH1 0x20 DUP2 ADD SWAP1 POP SWAP2 SWAP1 POP JUMP JUMPDEST PUSH1 0x0 DUP1 REVERT JUMPDEST PUSH1 0x0 PUSH2 0x553F PUSH2 0x553A DUP5 PUSH2 0x54FB JUMP JUMPDEST PUSH2 0x54E0 JUMP JUMPDEST SWAP1 POP DUP1 DUP4 DUP3 MSTORE PUSH1 0x20 DUP3 ADD SWAP1 POP PUSH1 0x20 DUP5 MUL DUP4 ADD DUP6 DUP2 GT ISZERO PUSH2 0x5562 JUMPI PUSH2 0x5561 PUSH2 0x5527 JUMP JUMPDEST JUMPDEST DUP4 JUMPDEST DUP2 DUP2 LT ISZERO PUSH2 0x558B JUMPI DUP1 PUSH2 0x5577 DUP9 DUP3 PUSH2 0x4A6B JUMP JUMPDEST DUP5 MSTORE PUSH1 0x20 DUP5 ADD SWAP4 POP POP PUSH1 0x20 DUP2 ADD SWAP1 POP PUSH2 0x5564 JUMP JUMPDEST POP POP POP SWAP4 SWAP3 POP POP POP JUMP JUMPDEST PUSH1 0x0 DUP3 PUSH1 0x1F DUP4 ADD SLT PUSH2 0x55AA JUMPI PUSH2 0x55A9 PUSH2 0x54AA JUMP JUMPDEST JUMPDEST DUP2 MLOAD PUSH2 0x55BA DUP5 DUP3 PUSH1 0x20 DUP7 ADD PUSH2 0x552C JUMP JUMPDEST SWAP2 POP POP SWAP3 SWAP2 POP POP JUMP JUMPDEST PUSH1 0x0 PUSH1 0x20 DUP3 DUP5 SUB SLT ISZERO PUSH2 0x55D9 JUMPI PUSH2 0x55D8 PUSH2 0x459E JUMP JUMPDEST JUMPDEST PUSH1 0x0 DUP3 ADD MLOAD PUSH8 0xFFFFFFFFFFFFFFFF DUP2 GT ISZERO PUSH2 0x55F7 JUMPI PUSH2 0x55F6 PUSH2 0x45A3 JUMP JUMPDEST JUMPDEST PUSH2 0x5603 DUP5 DUP3 DUP6 ADD PUSH2 0x5595 JUMP JUMPDEST SWAP2 POP POP SWAP3 SWAP2 POP POP JUMP JUMPDEST PUSH1 0x0 PUSH2 0x5617 DUP3 PUSH2 0x45D4 JUMP JUMPDEST SWAP2 POP PUSH2 0x5622 DUP4 PUSH2 0x45D4 JUMP JUMPDEST SWAP3 POP DUP3 DUP3 SUB SWAP1 POP DUP2 DUP2 GT ISZERO PUSH2 0x563A JUMPI PUSH2 0x5639 PUSH2 0x4947 JUMP JUMPDEST JUMPDEST SWAP3 SWAP2 POP POP JUMP JUMPDEST PUSH1 0x0 PUSH1 0xC0 DUP3 ADD SWAP1 POP PUSH2 0x5655 PUSH1 0x0 DUP4 ADD DUP10 PUSH2 0x44B8 JUMP JUMPDEST PUSH2 0x5662 PUSH1 0x20 DUP4 ADD DUP9 PUSH2 0x4680 JUMP JUMPDEST PUSH2 0x566F PUSH1 0x40 DUP4 ADD DUP8 PUSH2 0x5383 JUMP JUMPDEST PUSH2 0x567C PUSH1 0x60 DUP4 ADD DUP7 PUSH2 0x5383 JUMP JUMPDEST PUSH2 0x5689 PUSH1 0x80 DUP4 ADD DUP6 PUSH2 0x44B8 JUMP JUMPDEST PUSH2 0x5696 PUSH1 0xA0 DUP4 ADD DUP5 PUSH2 0x4680 JUMP JUMPDEST SWAP8 SWAP7 POP POP POP POP POP POP POP JUMP JUMPDEST PUSH1 0x0 DUP1 PUSH1 0x0 PUSH1 0x60 DUP5 DUP7 SUB SLT ISZERO PUSH2 0x56BA JUMPI PUSH2 0x56B9 PUSH2 0x459E JUMP JUMPDEST JUMPDEST PUSH1 0x0 PUSH2 0x56C8 DUP7 DUP3 DUP8 ADD PUSH2 0x4A6B JUMP JUMPDEST SWAP4 POP POP PUSH1 0x20 PUSH2 0x56D9 DUP7 DUP3 DUP8 ADD PUSH2 0x4A6B JUMP JUMPDEST SWAP3 POP POP PUSH1 0x40 PUSH2 0x56EA DUP7 DUP3 DUP8 ADD PUSH2 0x4A6B JUMP JUMPDEST SWAP2 POP POP SWAP3 POP SWAP3 POP SWAP3 JUMP JUMPDEST PUSH32 0x5061757361626C653A2070617573656400000000000000000000000000000000 PUSH1 0x0 DUP3 ADD MSTORE POP JUMP JUMPDEST PUSH1 0x0 PUSH2 0x572A PUSH1 0x10 DUP4 PUSH2 0x44ED JUMP JUMPDEST SWAP2 POP PUSH2 0x5735 DUP3 PUSH2 0x56F4 JUMP JUMPDEST PUSH1 0x20 DUP3 ADD SWAP1 POP SWAP2 SWAP1 POP JUMP JUMPDEST PUSH1 0x0 PUSH1 0x20 DUP3 ADD SWAP1 POP DUP2 DUP2 SUB PUSH1 0x0 DUP4 ADD MSTORE PUSH2 0x5759 DUP2 PUSH2 0x571D JUMP JUMPDEST SWAP1 POP SWAP2 SWAP1 POP JUMP JUMPDEST PUSH1 0x0 PUSH1 0x40 DUP3 ADD SWAP1 POP PUSH2 0x5775 PUSH1 0x0 DUP4 ADD DUP6 PUSH2 0x4680 JUMP JUMPDEST PUSH2 0x5782 PUSH1 0x20 DUP4 ADD DUP5 PUSH2 0x4680 JUMP JUMPDEST SWAP4 SWAP3 POP POP POP JUMP JUMPDEST PUSH32 0x45524332303A207472616E736665722066726F6D20746865207A65726F206164 PUSH1 0x0 DUP3 ADD MSTORE PUSH32 0x6472657373000000000000000000000000000000000000000000000000000000 PUSH1 0x20 DUP3 ADD MSTORE POP JUMP JUMPDEST PUSH1 0x0 PUSH2 0x57E5 PUSH1 0x25 DUP4 PUSH2 0x44ED JUMP JUMPDEST SWAP2 POP PUSH2 0x57F0 DUP3 PUSH2 0x5789 JUMP JUMPDEST PUSH1 0x40 DUP3 ADD SWAP1 POP SWAP2 SWAP1 POP JUMP JUMPDEST PUSH1 0x0 PUSH1 0x20 DUP3 ADD SWAP1 POP DUP2 DUP2 SUB PUSH1 0x0 DUP4 ADD MSTORE PUSH2 0x5814 DUP2 PUSH2 0x57D8 JUMP JUMPDEST SWAP1 POP SWAP2 SWAP1 POP JUMP JUMPDEST PUSH32 0x45524332303A207472616E7366657220746F20746865207A65726F2061646472 PUSH1 0x0 DUP3 ADD MSTORE PUSH32 0x6573730000000000000000000000000000000000000000000000000000000000 PUSH1 0x20 DUP3 ADD MSTORE POP JUMP JUMPDEST PUSH1 0x0 PUSH2 0x5877 PUSH1 0x23 DUP4 PUSH2 0x44ED JUMP JUMPDEST SWAP2 POP PUSH2 0x5882 DUP3 PUSH2 0x581B JUMP JUMPDEST PUSH1 0x40 DUP3 ADD SWAP1 POP SWAP2 SWAP1 POP JUMP JUMPDEST PUSH1 0x0 PUSH1 0x20 DUP3 ADD SWAP1 POP DUP2 DUP2 SUB PUSH1 0x0 DUP4 ADD MSTORE PUSH2 0x58A6 DUP2 PUSH2 0x586A JUMP JUMPDEST SWAP1 POP SWAP2 SWAP1 POP JUMP JUMPDEST PUSH32 0x45524332303A207472616E7366657220616D6F756E7420657863656564732062 PUSH1 0x0 DUP3 ADD MSTORE PUSH32 0x616C616E63650000000000000000000000000000000000000000000000000000 PUSH1 0x20 DUP3 ADD MSTORE POP JUMP JUMPDEST PUSH1 0x0 PUSH2 0x5909 PUSH1 0x26 DUP4 PUSH2 0x44ED JUMP JUMPDEST SWAP2 POP PUSH2 0x5914 DUP3 PUSH2 0x58AD JUMP JUMPDEST PUSH1 0x40 DUP3 ADD SWAP1 POP SWAP2 SWAP1 POP JUMP JUMPDEST PUSH1 0x0 PUSH1 0x20 DUP3 ADD SWAP1 POP DUP2 DUP2 SUB PUSH1 0x0 DUP4 ADD MSTORE PUSH2 0x5938 DUP2 PUSH2 0x58FC JUMP JUMPDEST SWAP1 POP SWAP2 SWAP1 POP JUMP JUMPDEST PUSH32 0x5061757361626C653A206E6F7420706175736564000000000000000000000000 PUSH1 0x0 DUP3 ADD MSTORE POP JUMP JUMPDEST PUSH1 0x0 PUSH2 0x5975 PUSH1 0x14 DUP4 PUSH2 0x44ED JUMP JUMPDEST SWAP2 POP PUSH2 0x5980 DUP3 PUSH2 0x593F JUMP JUMPDEST PUSH1 0x20 DUP3 ADD SWAP1 POP SWAP2 SWAP1 POP JUMP JUMPDEST PUSH1 0x0 PUSH1 0x20 DUP3 ADD SWAP1 POP DUP2 DUP2 SUB PUSH1 0x0 DUP4 ADD MSTORE PUSH2 0x59A4 DUP2 PUSH2 0x5968 JUMP JUMPDEST SWAP1 POP SWAP2 SWAP1 POP JUMP INVALID LOG2 PUSH5 0x6970667358 0x22 SLT KECCAK256 0xAA 0xE9 0xC4 JUMPDEST PUSH27 0x64B27945FC2D7F1AE0EAFA38FBFCA39A8DEE3F403C464C97ECDFE6 PUSH5 0x736F6C6343 STOP ADDMOD SLT STOP CALLER "},"methodIdentifiers":{"allowance(address,address)":"dd62ed3e","approve(address,uint256)":"095ea7b3","balanceOf(address)":"70a08231","balanceOfAt(address,uint256)":"4ee2cd7e","burn(uint256)":"42966c68","burnFrom(address,uint256)":"79cc6790","createSnapshot()":"1504d8f0","currentSnapshotId()":"970875ce","decimals()":"313ce567","decreaseAllowance(address,uint256)":"a457c2d7","depositTax(uint256)":"3f6c518d","disableBlacklist(address)":"cfefd79e","enableBlacklist(address)":"717a8651","exclude(address)":"4febf53d","getAutoSwap()":"b1216786","getBuyTax()":"252d723a","getCollectedTaxes()":"230f01bf","getDivitrendRewardsAddress()":"7a367d06","getExchangeAddress()":"691dcad5","getFounderPerc()":"1ae646ae","getFounderWallet()":"fac5066a","getLiquidityPerc()":"c7263895","getLiquidityWallet()":"b79cb2a0","getPairAddress()":"8d5f81e2","getRouterAddress()":"d54f7d5e","getSellTax()":"b0bc85de","getStakedCapPerc()":"f29f69f0","getStakedCapitalWallet()":"6c010427","getSwapThreshold()":"f005f2ca","getUniswapV2Factory()":"0103982d","getUniswapV2Pair()":"1abfa629","increaseAllowance(address,uint256)":"39509351","isBlacklisted(address)":"fe575a87","isExcluded(address)":"cba0e996","manualSwapAndLiquify()":"733b864f","name()":"06fdde03","owner()":"8da5cb5b","pause()":"8456cb59","paused()":"5c975abb","removeExclude(address)":"abe4f11d","renounceOwnership()":"715018a6","setAutoSwap(bool)":"93818cfa","setBuyTax(uint8)":"6081752b","setDivitrendRewardsAddress(address)":"6d51d473","setExchangeAddress(address)":"d082ea8c","setFounderPerc(uint16)":"e7d30b4f","setFounderWallet(address)":"cee36053","setLiquidityPerc(uint16)":"5692717e","setLiquidityWallet(address)":"296f0a0c","setRouterAddress(address)":"41cb87fc","setSellTax(uint8)":"49abdc14","setStakedCapPerc(uint16)":"503fa890","setStakedCapitalWallet(address)":"8d91cca1","setSwapThreshold(uint256)":"9d0014b1","symbol()":"95d89b41","totalSupply()":"18160ddd","totalSupplyAt(uint256)":"981b24d0","transfer(address,uint256)":"a9059cbb","transferFrom(address,address,uint256)":"23b872dd","transferOwnership(address)":"f2fde38b","unpause()":"3f4ba83a","withdrawETH()":"e086e5ec","withdrawTokens(address)":"49df728c"}},"storageLayout":{"storage":[{"astId":236,"contract":"contracts/DiviTrend.sol:Divitrend","label":"_balances","offset":0,"slot":"0","type":"t_mapping(t_address,t_uint256)"},{"astId":242,"contract":"contracts/DiviTrend.sol:Divitrend","label":"_allowances","offset":0,"slot":"1","type":"t_mapping(t_address,t_mapping(t_address,t_uint256))"},{"astId":244,"contract":"contracts/DiviTrend.sol:Divitrend","label":"_totalSupply","offset":0,"slot":"2","type":"t_uint256"},{"astId":246,"contract":"contracts/DiviTrend.sol:Divitrend","label":"_name","offset":0,"slot":"3","type":"t_string_storage"},{"astId":248,"contract":"contracts/DiviTrend.sol:Divitrend","label":"_symbol","offset":0,"slot":"4","type":"t_string_storage"},{"astId":7,"contract":"contracts/DiviTrend.sol:Divitrend","label":"_owner","offset":0,"slot":"5","type":"t_address"},{"astId":130,"contract":"contracts/DiviTrend.sol:Divitrend","label":"_paused","offset":20,"slot":"5","type":"t_bool"},{"astId":994,"contract":"contracts/DiviTrend.sol:Divitrend","label":"_accountBalanceSnapshots","offset":0,"slot":"6","type":"t_mapping(t_address,t_struct(Snapshots)989_storage)"},{"astId":997,"contract":"contracts/DiviTrend.sol:Divitrend","label":"_totalSupplySnapshots","offset":0,"slot":"7","type":"t_struct(Snapshots)989_storage"},{"astId":1000,"contract":"contracts/DiviTrend.sol:Divitrend","label":"_currentSnapshotId","offset":0,"slot":"9","type":"t_struct(Counter)1503_storage"},{"astId":3312,"contract":"contracts/DiviTrend.sol:Divitrend","label":"collectedTaxes","offset":0,"slot":"10","type":"t_uint256"},{"astId":3314,"contract":"contracts/DiviTrend.sol:Divitrend","label":"swapThreshold","offset":0,"slot":"11","type":"t_uint256"},{"astId":3316,"contract":"contracts/DiviTrend.sol:Divitrend","label":"autoSwap","offset":0,"slot":"12","type":"t_bool"},{"astId":3318,"contract":"contracts/DiviTrend.sol:Divitrend","label":"buyTax","offset":1,"slot":"12","type":"t_uint8"},{"astId":3320,"contract":"contracts/DiviTrend.sol:Divitrend","label":"sellTax","offset":2,"slot":"12","type":"t_uint8"},{"astId":3322,"contract":"contracts/DiviTrend.sol:Divitrend","label":"stakedCapPerc","offset":3,"slot":"12","type":"t_uint16"},{"astId":3324,"contract":"contracts/DiviTrend.sol:Divitrend","label":"founderPerc","offset":5,"slot":"12","type":"t_uint16"},{"astId":3326,"contract":"contracts/DiviTrend.sol:Divitrend","label":"liquidityPerc","offset":7,"slot":"12","type":"t_uint16"},{"astId":3328,"contract":"contracts/DiviTrend.sol:Divitrend","label":"stakedCapitalWallet","offset":9,"slot":"12","type":"t_address"},{"astId":3330,"contract":"contracts/DiviTrend.sol:Divitrend","label":"founderWallet","offset":0,"slot":"13","type":"t_address"},{"astId":3332,"contract":"contracts/DiviTrend.sol:Divitrend","label":"liquidityWallet","offset":0,"slot":"14","type":"t_address"},{"astId":3335,"contract":"contracts/DiviTrend.sol:Divitrend","label":"uniswapV2Pair","offset":0,"slot":"15","type":"t_contract(IUniswapV2Pair)2852"},{"astId":3338,"contract":"contracts/DiviTrend.sol:Divitrend","label":"uniswapV2Factory","offset":0,"slot":"16","type":"t_contract(IUniswapV2Factory)2610"},{"astId":3341,"contract":"contracts/DiviTrend.sol:Divitrend","label":"uniswapV2Router02","offset":0,"slot":"17","type":"t_contract(IUniswapV2Router02)3248"},{"astId":3343,"contract":"contracts/DiviTrend.sol:Divitrend","label":"_divRewardsAddress","offset":0,"slot":"18","type":"t_address"},{"astId":3345,"contract":"contracts/DiviTrend.sol:Divitrend","label":"_referralAddress","offset":0,"slot":"19","type":"t_address"},{"astId":3347,"contract":"contracts/DiviTrend.sol:Divitrend","label":"_exchangeAddress","offset":0,"slot":"20","type":"t_address"},{"astId":3351,"contract":"contracts/DiviTrend.sol:Divitrend","label":"blacklist","offset":0,"slot":"21","type":"t_mapping(t_address,t_bool)"},{"astId":3355,"contract":"contracts/DiviTrend.sol:Divitrend","label":"excludeList","offset":0,"slot":"22","type":"t_mapping(t_address,t_bool)"}],"types":{"t_address":{"encoding":"inplace","label":"address","numberOfBytes":"20"},"t_array(t_uint256)dyn_storage":{"base":"t_uint256","encoding":"dynamic_array","label":"uint256[]","numberOfBytes":"32"},"t_bool":{"encoding":"inplace","label":"bool","numberOfBytes":"1"},"t_contract(IUniswapV2Factory)2610":{"encoding":"inplace","label":"contract IUniswapV2Factory","numberOfBytes":"20"},"t_contract(IUniswapV2Pair)2852":{"encoding":"inplace","label":"contract IUniswapV2Pair","numberOfBytes":"20"},"t_contract(IUniswapV2Router02)3248":{"encoding":"inplace","label":"contract IUniswapV2Router02","numberOfBytes":"20"},"t_mapping(t_address,t_bool)":{"encoding":"mapping","key":"t_address","label":"mapping(address => bool)","numberOfBytes":"32","value":"t_bool"},"t_mapping(t_address,t_mapping(t_address,t_uint256))":{"encoding":"mapping","key":"t_address","label":"mapping(address => mapping(address => uint256))","numberOfBytes":"32","value":"t_mapping(t_address,t_uint256)"},"t_mapping(t_address,t_struct(Snapshots)989_storage)":{"encoding":"mapping","key":"t_address","label":"mapping(address => struct ERC20Snapshot.Snapshots)","numberOfBytes":"32","value":"t_struct(Snapshots)989_storage"},"t_mapping(t_address,t_uint256)":{"encoding":"mapping","key":"t_address","label":"mapping(address => uint256)","numberOfBytes":"32","value":"t_uint256"},"t_string_storage":{"encoding":"bytes","label":"string","numberOfBytes":"32"},"t_struct(Counter)1503_storage":{"encoding":"inplace","label":"struct Counters.Counter","members":[{"astId":1502,"contract":"contracts/DiviTrend.sol:Divitrend","label":"_value","offset":0,"slot":"0","type":"t_uint256"}],"numberOfBytes":"32"},"t_struct(Snapshots)989_storage":{"encoding":"inplace","label":"struct ERC20Snapshot.Snapshots","members":[{"astId":985,"contract":"contracts/DiviTrend.sol:Divitrend","label":"ids","offset":0,"slot":"0","type":"t_array(t_uint256)dyn_storage"},{"astId":988,"contract":"contracts/DiviTrend.sol:Divitrend","label":"values","offset":0,"slot":"1","type":"t_array(t_uint256)dyn_storage"}],"numberOfBytes":"64"},"t_uint16":{"encoding":"inplace","label":"uint16","numberOfBytes":"2"},"t_uint256":{"encoding":"inplace","label":"uint256","numberOfBytes":"32"},"t_uint8":{"encoding":"inplace","label":"uint8","numberOfBytes":"1"}}}}}}